:020000040000FA
:1000000002008602158FFFFFFFFFFFFFFFFFFFFFCC
:10001000FFFFFFFFFFFFFFFFFFFFFFFFFFFFFFFFF0
:10002000FFFFFFFFFFFFFFFFFFFFFF0212E4FFFFE5
:10003000FFFFFF02133EFFFFFFFFFFFFFFFFFFFF7A
:10004000FFFFFFFFFFFFFFFFFFFFFF021300FFFFA8
:10005000FFFFFF02141FFFFFFFFFFF02131CFFFF44
:10006000FFFFFF02132DFFFFFFFFFFFFFFFFFFFF5B
:10007000FFFFFFFFFFFFFFFFFFFFFF02129DFFFFDC
:10008000FFFFFF02147975D00075814075188075E7
:1000900019010002009B00000080FB12011FB90043
:1000A000030200EBE4791A7801B800028004F70932
:1000B000D8FCE49001807846790E8002F0A3D8FC49
:1000C000D9FA900EC5AA82AB839015B978D8790178
:1000D0008015E493A3AC82AD838A828B83F0A3AABC
:1000E00082AB838C828D83D8E9D9E7758262758370
:1000F0002574001201017582967583007400120147
:1001000001C09FF59FE473D09F22D083D082C09F0F
:10011000E493C0E0740193C0E0740293F59F2279E8
:10012000012212010ACB440012010AD54400120137
:100130000A1B450012010A8B450012010AB3450053
:1001400012010A09460012010A34460012010A93FC
:10015000460012010A38470012010A9247001201B4
:100160000AE9470012010A68480012010AB548006E
:1001700012010AF4480012010A28490012010A3A41
:10018000490012010A4C490012010A6B4900120190
:100190000A62630012010A63640012010A685900CE
:1001A00012010ACC590012010AF0590012010AF694
:1001B0005A0012010A45680012010A5B6800120128
:1001C0000A65680012010AAF680012010AA3510013
:1001D00012010ABB510012010A63520012010AA463
:1001E000520012010AC1520012010AE45200120127
:1001F0000A1F530012010AAD540012010AF1540003
:1002000012010A96690012010AA7690012010A95F3
:100210005E0012010AD95E0012010AFA5E001201A4
:100220000A3E5F0012010AA85F0012010AB25F00D5
:1002300012010AC45F0012010A6D5B0012010A7B01
:100240005B0012010A04360012010A433900120150
:100250000AF43A0012010AFC3C0012010A156A0075
:1002600012010A05670012010A15670012010A2D22
:10027000670012010AA0670012010A44620012011D
:100280000A47620012010AC3620012010A356300C4
:1002900012010A5A660012010A5D660012010A98EC
:1002A000660012010AE7660012010AF966001201EF
:1002B0000AFC660012010A374A0012010A454A0088
:1002C00012010AC54A0012010A8C4B0012010A42AF
:1002D0004D0012010AA74D0012010A1A4E00120128
:1002E0000AE0FF0712010A43570012010AFE5700F5
:1002F00012010A2B590012010A65590012010A2540
:100300005D0012010A605D0012010A845D001201A5
:100310000AE25D0012010A4D5E0012010ACA2500C0
:1003200012010ADA250012010AE2250012010A254B
:10033000260012010A5D260012010A102700120190
:100340000A34270012010A93280012010ADB280050
:1003500012010A5F290012010AAE290012010ABC2B
:100360002A0012010A872B0012010A5F2C001201D9
:100370000AB92C0012010ABC2C0012010ABF2C0081
:1003800012010A0B2D0012010A222D0012010A315E
:100390002D0012010A342D0012010AF42D00120161
:1003A0000AF72D0012010ACE2E0012010A0C2F00AE
:1003B00012010A6C2F0012010AC12F0012010A1E3D
:1003C000300012010AB8300012010AC031001201D7
:1003D0000A6B330012010A15340012010A7A340044
:1003E00012010A8E340012010AB9350012010A9274
:1003F0001A0012010A5F1B0012010A1A1C001201E6
:100400000A291D0012010A921D0012010A171E007E
:1004100012010AAB1E0012010A0E1F0012010A1976
:100420001F0012010ABC1F0012010AEB1F0012017B
:100430000A1A220012010AB6220012010A762300CB
:1004400012010A7E240012010A10250012010AFE80
:10045000690012010A09550012010A5855001201DB
:100460000ADB550012010A3A560012010A9D560095
:1004700012010AEE560012010A07600012010A7DFD
:10048000600012010A8E600012010AD4600012019D
:100490000A0C610012010A2E4E0012010A844E005D
:1004A00012010AA54E0012010A03510012010A3D71
:1004B000510012010A61510012010A236100120168
:1004C0000A38610012010AC7610012010AD66800E9
:1004D00012010A02690012010A2E690012010A3093
:1004E000690012010A32690012010A43690012010F
:1004F0000A45690012010A8D650012010A9A650019
:1005000012010AE3650012010AC1690012010AAE74
:100510003D0012010A953E0012010A7E3F001201C1
:100520000A8F3F0012010AA03F0012010AF53F00A6
:1005300012010A81410012010AE0420012010A1B65
:10054000430012010AE9430012010A4B4400120160
:100550000AAA670012010AD7670012010A9A8001ED
:1005600012010AF2800112010ABE810112010ACCB5
:10057000820112010ACA840112010A518501120185
:100580000A29860112010A94860112010AB0860125
:1005900012010AE5860112010A18870112010A21D7
:1005A000870112010A8B870112010AD98701120102
:1005B0000A00890112010A13890112010A30890116
:1005C00012010AD2890112010A3C8B0112010A4769
:1005D0008C0112010AB78C0112010AC18C011201AF
:1005E0000A7D8D0112010A8E8D0112010AC18D0151
:1005F00012010A058E0112010A348E0112010A52FB
:100600008E0112010AE48E0112010AF88E01120114
:100610000A00900112010A15900112010AC6900108
:1006200012010A5F910112010A6A910112010A7F07
:10063000920112010A9A920112010AE99201120131
:100640000A03930112010A1E950112010A929501F3
:1006500012010AA5970112010AA8970112010AB412
:10066000970112010AF3970112010ACA98011201B7
:100670000A499A0112010A6A9A0112010ACC9A01E6
:1006800012010AA69C0112010AA99C0112010A1B6F
:100690009D0112010A2F9D0112010A519D011201B3
:1006A0000A9E9D0112010ACF9D0112010AD29D01ED
:1006B00012010A379E0112010A4A9F0112010A2102
:1006C000A00112010AB9A00112010AE0A101120160
:1006D0000A19A20112010A4EA20112010A57A2012F
:1006E00012010A7FA30112010AF0A30112010A8775
:1006F000A40112010AB1A40112010AECA401120121
:100700000A31A50112010AA0A50112010AB5A5012D
:1007100012010AF8A50112010A1DA60112010A4BD5
:10072000A60112010A7EA60112010A0FA8011201F8
:100730000A9AA80112010AA7A80112010ACCA8016D
:1007400012010A51A90112010A8EA90112010AAF70
:10075000A90112010AF5A90112010A04AA01120154
:100760000A14AA0112010A2DAA0112010A6BAA0198
:1007700012010A86AA0112010AEFAA0112010AB5A2
:10078000AE0112010A95AF0112010AC6AF011201B2
:100790000A2AB00112010A12B10112010A3AB1018A
:1007A00012010A63B10112010A93B10112010AE6B2
:1007B000B10112010A04B20112010A25B2011201AB
:1007C0000A44B20112010A66B20112010A95B2018D
:1007D00012010AB0B20112010AE2B20112010A8743
:1007E000B30112010A97B40112010A0DB5011201F9
:1007F0000A70B50112010AA8B50112010AE6B50195
:1008000012010A15B60112010A36B60112010A5E7A
:10081000B60112010A8CB60112010AE7B6011201F3
:100820000A87B70112010A9BB70112010A0EB8012B
:1008300012010A89B90112010A9FB90112010ABA0B
:10084000B90112010AD1B90112010AE6B901120176
:100850000A4EBA0112010AAFBA0112010A11BB0114
:1008600012010A58BB0112010A91BB0112010AA828
:10087000BB0112010A92BC0112010AA6BC011201BD
:100880000ADBBC0112010A04BD0112010A2DBD01DF
:1008900012010AFCBD0112010A8CBE0112010AA557
:1008A000BE0112010ACBBE0112010A41BF011201B1
:1008B0000ACAC10112010A28C20112010A51C20169
:1008C00012010AA9C20112010AC9C20112010ACA0F
:1008D000C30112010AE1C30112010A0DC401120190
:1008E0000A54C40112010A12C60112010ACFC6013C
:1008F00012010A07C70112010A56C70112010AAD07
:10090000C70112010ABFC80112010AE3C80112019E
:100910000AE1C90112010A42CB0112010A7CCB0192
:1009200012010AAECD0112010A49CF0112010AAE2D
:10093000CF0112010A9ED10112010AB0D3011201A6
:100940000A44D40112010A52D60112010A77D601D3
:1009500012010AFAD60112010A62D80112010A9D97
:10096000D80112010AD1D80112010A85D901120158
:100970000AFDDB0112010ADDDC0112010A05DD01BD
:1009800012010AA4DE0112010A0EE00112010AB2EC
:10099000E00112010AE3E00112010A6BE101120118
:1009A0000A9FE10112010ADEE10112010A26E201B9
:1009B00012010A41E20112010A11E30112010A2F98
:1009C000E30112010A52E30112010A70E30112016C
:1009D0000A79E40112010A50E50112010A9BE501BE
:1009E00012010AC5E60112010A2FE70112010ACE1F
:1009F000E70112010AB5EB0112010A3CED011201F7
:100A00000A8CEE0112010AD6EE0112010AF4EE017F
:100A100012010A0CEF0112010A9EEF0112010A6095
:100A2000F00112010A31F10112010AFCF101120177
:100A30000AD6F20112010A75F30112010A06F40145
:100A400012010A5FF40112010A82F50112010ACBB8
:100A5000F50112010A7A640012010AEB6400120126
:100A60000A2A650012010A6B650012010A67690013
:100A700012010AE069001201000200000020510486
:100A8000B01600010102030109025B00030100A08E
:100A900019090400000103010100092111010001ED
:100AA000223F000705810308000A09040100010331
:100AB000000000092111010001226D0007058203D9
:100AC0000C000A09040200020300000009211101C0
:100AD0000001223200070583030C000A0705030307
:100AE00003000A040309042403540065007800612C
:100AF000007300200049006E0073007400720075DE
:100B0000006D0065006E00740073001E03550053F5
:100B10000042002000430043003200350033003122
:100B20000020004800490044000803300030003134
:100B30000005010906A10195087501050719E029BD
:100B4000E71500250181029501750881019505755C
:100B50000105081901290591029501750391019577
:100B6000067508050719002965150025658100C06F
:100B7000050C0901A1010902A10205091901290AAF
:100B80001501250A750495018100C0050C0986151B
:100B9000FF250175029501814609E909EA150075ED
:100BA000019502810209E209300983098109B0092E
:100BB000B109B209B309B409B509B609B7150125D8
:100BC0000C7504950181000980A10205091901290C
:100BD000031501250375028100C08103C00600FFD3
:100BE0000905A10185011580257F09010902750804
:100BF000950291020901090281028502090295010B
:100C00008102090375108102090475408102C02226
:100C1000000000310B3F0022000001700B6D00222C
:100C2000000002DD0B3200210000009A0A090021B9
:100C3000000001B30A090021000002CC0A0900915A
:100C40000A0000AA0A0000C30A0000E76670100844
:100C500009E766700A0809E76670040809E7662272
:100C6000E066701008A3E066700A08A3E0667004EE
:100C700008A3E06622C3E09608A3E09608A3E096E6
:100C800008A3E096A2D265D03322C3E7960809E70D
:100C9000960809E7960809E79622C3E09608A3E0BC
:100CA0009608A3E09608A3E09622BB0102E722C0C3
:100CB00082C08389828A83BB0003E08002E493D0F0
:100CC00083D08222BB000EC082C0838A838982F0D7
:100CD000D083D08222BB0101F722080808EAC0E0D5
:100CE000EBC0E086F0E7A4FA180986F0E7A42AFA38
:100CF000180986F0E7A42AFA180986F0E7A42AFA68
:100D00001986F0E7A4FBE5F02AFA190886F0E7A4B3
:100D10002BFBE5F03AFA190886F0E7A42BFBE5F087
:100D20003AFA18180986F0E7A4C5F02BFBE43AFA62
:100D30001908E7C5F0C6A426F6E5F03BFBE43AFA4D
:100D40001886F0E7A4F6E5F00826F6E43B08F6E49A
:100D50003A08F6D0E0FBD0E0FA22E4CFC0E0E4CEDF
:100D6000C0E0E4CDC0E0E4CCC0E075F020C3E633E1
:100D7000F608E633F608E633F608E633F6181818F0
:100D8000EC33FCED33FDEE33FEEF33FFC3EC97099C
:100D9000ED9709EE9709EF97191919400FFFEC9796
:100DA000FC09ED97FD09EE97FE191906D5F0BEEC8A
:100DB000F709EDF709EEF709EFF7191919D0E0FC7B
:100DC000D0E0FDD0E0FED0E0FF22E4C396F608E4D8
:100DD00096F608E496F608E496F622C6F4C608C627
:100DE000F4C608C6F4C608C6F4C622601608080889
:100DF000C6C313C618C613C618C613C618C613C66C
:100E0000D5E0EA227009080808226016181818C6EA
:100E1000C333C608C633C608C633C608C633C6D5EC
:100E2000E0EA22E627F60809E637F60809E637F68B
:100E30000809E637F622E026F608A3E036F608A30E
:100E4000E036F608A3E036F622E026F008A3E03606
:100E5000F008A3E036F008A3E036F022C3E697F6E8
:100E60000809E697F60809E697F60809E697F622D4
:100E7000C3E0C696F608A3E0C696F608A3E0C696B9
:100E8000F608A3E0C696F622C3E096F008A3E09623
:100E9000F008A3E096F008A3E096F022E056F608EA
:100EA000A3E056F608A3E056F608A3E056F622E0C3
:100EB00056F008A3E056F008A3E056F008A3E05669
:100EC000F022E046F008A3E046F008A3E046F00870
:100ED000A3E046F022E0F608A3E0F608A3E0F60857
:100EE000A3E0F622E6F008A3E6F008A3E6F008A3E4
:100EF000E6F022CAC0E0E6F0A308DAFAD0E0FA226F
:100F0000CAC0E0E0A3C582CCC582C583CDC583F04D
:100F1000A3C582CCC582C583CDC583DAE6D0E0CA3D
:100F200022CAC0E0E493A3C582CCC582C583CDC5E7
:100F300083F0A3C582CCC582C583CDC583DAE5D055
:100F4000E0CA22C3E498F8E499F9120F848026C31A
:100F5000E49AFAE49BFBE920E7E9120F84E498F8AD
:100F6000E499F922C3E498F8E499F9120F84E4981B
:100F7000F8E499F9C3E49AFAE49BFB22EB20E7CF6B
:100F8000E920E7E0B90010BB0008E88AF084F8AA7D
:100F9000F022E4FBC8FA22EB70227B10C833C8C9E8
:100FA00033C9335007C39AC3DBF280069A50012A33
:100FB000DBEAC833F4C8C933F4C9FA2275F008E48F
:100FC000C833C8C933C933C99AC99B5004C92AC98F
:100FD0003BD5F0ECFBC833F4C8E4C9FA22600C0836
:100FE000C6C313C618C613C6D5E0F4227004226027
:100FF0000D18C6C333C608C633C6D5E0F41822257B
:101000001810AF08F518400215198008F5184002AD
:101010001519D2AF22C0D0251810AF08F51850020C
:1010200005198008F51850020519D2AFD0D0222535
:1010300018F58210AF08F518400215198008F51848
:1010400040021519D2AF851983222518F582E4359F
:1010500019F58322E473C0E0E8C0E0E58124FCF8E0
:10106000E6A2E7D0E0F8D0E0222518C582C0E0E58E
:101070001934FFC583C0E0E518C3958224F8F8E46D
:10108000C5A8858319858218C5A8E8CEF0A3E520F8
:10109000F0A37808E608F0A3DEFAEFF0A3E58124D8
:1010A000FAF8E608F0A3E608F0A3E608F0A30808BB
:1010B000E608F0A3E608F0A315811581D0E0FED084
:1010C000E0F8158115811581E8C0E0EEC0E02285C9
:1010D0001983851882E0A3FEE0A3F5207808E0A339
:1010E000F608DFFAE0A3FFE0A3C0E0E0A3C0E0E081
:1010F000A3C0E0E0A3C0E0E0A3C0E0E4C5A885820F
:1011000018858319C5A8D083D082020107C0D025D5
:1011100018C582C0E0E51934FFC583C0E0E518C3F7
:10112000958224F310AF088583198582188008857D
:101130008319858218D2AFC8F0A3E9F0A3EAF0A31F
:10114000EBF0A37908E709F0A3D8FAECF0A3EDF0EF
:10115000A3EEF0A3EFF0A3D0E0F0A3D0E0F0A3D093
:10116000E0F0A3E520F0A3E5F0F0A3228519838544
:101170001882E0C0E0A3E0F9A3E0FAA3E0FBA378C3
:1011800008E0F608A3DFFAE0FCA3E0FDA3E0FEA37D
:10119000E0FFA3E0C0E0A3E0C0E0A3E0F5D0A3E05F
:1011A000F520A3E0A3F5F0E4C5A88583198582188E
:1011B000C5A8D082D083D0E0F8D0E0327404800A91
:1011C00074038006740280027401C0E0F4041210FB
:1011D0002FD0E0120EF3227403800474028000CC3E
:1011E000C0E0EDC0E0E518C39CCCAD1950011D1066
:1011F000AF068C188D1980068C188D19D2AF120F7E
:1012000000D0E0FDD0E0FC22D083D082C5F0E49392
:10121000A3C5F0C395F0F5F0E493A3C395F04005A2
:10122000E5F0048001E475F002A42582F582E5F082
:101230003583F583E493A3C0E0E493C0E022D08338
:10124000D082CCC0E0E493A360061212681470FA56
:10125000E493A360061212871470FAD0E0FCE493C2
:10126000A3C0E0E493C0E022C0E0E493A3D39C5089
:1012700010E493A3C39C400AD0E0D0E0D0E0021277
:101280005BA3A3A3D0E022C0E0E493A36C7009D0D9
:10129000E0D0E0D0E002125BA3A3D0E022C0E07473
:1012A000F212110DA2AFE492E0FED2AFE58AA2E203
:1012B00050079009CBE0D2E0F0E58AA2E350079016
:1012C00009CBE0D2E1F0758A00C2EB7A017B009095
:1012D00009C7E0F912016A751A00EEA2E092AF7F29
:1012E0000102116CC0E0C0D0EAC0E0E5A8D2AFC2F4
:1012F000C7751A00A2E792AFD0E0FAD0D0D0E032A2
:10130000C0E074F212110DE5A8FED2AF1203087509
:101310001A00EEA2E792AF7F0102116CC0E074F2F6
:1013200012110DE5A8FED2AF12030E80E2C0E074E8
:10133000F212110DE5A8FED2AF12031480D1C0E065
:1013400074ED12110DA2AFE492E0FCD2AF7480658F
:101350009E70FA740390620FF0E0A2E750FB906277
:1013600006E0F50A7406550A7006E58BA2E55042C0
:10137000E50AA2E25033900AADE0F8A3E0E89062FB
:101380000B12141374047808120FDDE5089062073D
:1013900012141374097808120FDDE508543E9062A8
:1013A00009F0906201E0D2E0F0E50AD2E1F50AE44A
:1013B0008014E50AA2E0501290620FE0C2E1F0E072
:1013C000A2E740FB7401900AAFF0906202E0F50CD6
:1013D000906204E0F508750D007404780C120FECAF
:1013E000E50C450AFAAB0D75090074097808120F6F
:1013F000ECEAF8E5094BF9900AABE048F0A3E049C4
:10140000F0758B00C2E8751A00ECA2E092AF7F067F
:1014100002116CF0900AADE0F508A3E0F50922C0D6
:10142000E074F212110DA2AFE492E0FED2AFE5A794
:10143000FAE5A1FBEA5B5410600812072275A1EFE0
:10144000802AEAA2E0C0D0EBA2E092F0121056157A
:101450008182F05017906198E0FA900B99E0C39A5E
:10146000A2D265D0335002EAF075A1FE751A00EEE3
:10147000A2E092AF7F0102116CC0E074F212110D74
:10148000A2AFE492E0FED2AF9061A4E0FA759B00B7
:10149000E5915A540860097591F71208240215481D
:1014A000E5915A5410607B7591EFE0C2E4F09061D1
:1014B000E4E070061207F4021548E06401705E74FF
:1014C00004900B90F01207C4900B94E004F0900B82
:1014D00028E0C0E0900B94E0FAD0E0C39A5007797E
:1014E000E11208008062900B92E0F874012808E491
:1014F0003400F9900B34E0FAE89AE99400C365D01F
:10150000335007900B92E0048001E0900B92F012B0
:1015100007E27483900B90F01207EE802B1207FA0B
:101520008026EAA2E0C0D0E591A2E092F012105627
:10153000158182F05012E0C2E0F0E4900B7DF09053
:101540000B7BE0700312079A9061A3E0FAE5E95A79
:1015500054046038900B8CE070277401900B8BF072
:10156000900B7EE0F8A3E0F5838882121054E4909B
:101570000B8BF0900B8CE06008120770E4900B8CE2
:10158000F075E9FB906193E0A2E640C802146CC0DC
:10159000E074F212110DA2AFE492E0FED2AF9061BE
:1015A000A5E0FAE5BF5A5404600C75BFFB900B8DA3
:1015B000E004F012076A02146C90010000000001C0
:1015C00000000000580000640000001F0000009FA1
:1015D00002000011000000EFFFFFFFFFFFFFFF6CA4
:1015E0000226066809F2033203050000100060EAD3
:1015F0003075102019F8E7544920496E6300760AC7
:10160000310B0F0C3F0C3F0C0000000000000000ED
:10161000000000000000000101FF00FF00030003C4
:1016200000030003000300030003000300030005A0
:10163000000A00140028004F009E000000500650D1
:101640000650065006B405AE0550060B1700000004
:10165000006D17000000000C0000000C0002CE011D
:101660000201FFFFFFFFFFFFFFFFAE08D8081409CC
:10167000560902092609100A3000000000000C007B
:1016800000000080008010020004000000FCFFFF4A
:1016900005001F000000FF030700FF1B0000000102
:1016A000000000000000000000000000000000003A
:1016B00000007101560A0F016F0A7206570A730182
:1016C0005D0A74035E0A7507610A7602680A77028A
:1016D0006A0A1002700A1107720A78026C0A79010C
:1016E0006E0A0005150D0910080400383C3E363B13
:1016F0003B352B432C303016181920231A1C1E3072
:10170000303017181921301B1D1F300300710030B5
:1017100001600011007000310220035004800010AD
:101720000061000000140063007300720062004357
:10173000000000130006000000000004001200007A
:101740000000000000000004000400370037003CE7
:1017500002440000000000000000006500000035A9
:1017600000810000000500000083000000010371FB
:101770000301030103010301030103220302030127
:101780000310030003000300030003000300030031
:1017900003420300032403060300030003040312AF
:1017A0000325032303250323030403040300030089
:1017B0000300034403000300032303000365032124
:1017C0000035038103000305030003000300030346
:1017D0000471040204600411047004020402040190
:1017E000040204100461040004140463047304720A
:1017F0000462044304000413040604000400040407
:1018000004120400040004000400045104640000F5
:1018100004000400044404000400040004000465FF
:1018200004000435048104640005040004830400FA
:101830000400034948424D181725050200011916F6
:10184000181616152303000C0E020B040B0A0708CA
:10185000000F500656065C06D8056206D205DE0566
:1018600036000100060000000F000000000000002C
:1018700000000000000003FFFF00000403FFFF0062
:1018800000FFFF0FF4010005C40403200001000065
:101890000B000000000000000003010F00013636BD
:1018A000010100010201000103010001040106061B
:1018B00005020000070100340801000F09040101BE
:1018C0000D0100FF0E08000017020000190100FFC3
:1018D0001A0100011B0100FE1C0100081D0200008E
:1018E0001F01000120010001210200002301000F5F
:1018F000240200002601000127010008280200FF41
:101900002A0100072B0102402C0100002D010001DB
:101910002E0100012F0100FF30010B1C31080000D7
:101920003A0100083B01000F2F0100008006A406C9
:10193000A4065006A40672058405A406A406900514
:10194000A4068A05A406A406A406A406A406A40662
:10195000A406A406A406A406A406A406A406FC05E0
:10196000F605A406A406A406A406A406B006C806A6
:10197000CE06B606C206BC0603000300040008003B
:1019800010001F003E007B00F600EC01D703AF07FC
:101990005D0FB91E713D000000BE040A03EAF5E5C3
:1019A000D5D5C5B5A5959585857575656555554597
:1019B0004535352525151505140AE5D5C5B5A5A563
:1019C00095858575650BF4F5E5D5C5B5A5A5958512
:1019D0007575656555554545453525251515050428
:1019E000ECECDCCCCCBCACAC9C8C8C7C7C6C6C5CB7
:1019F0005C4C4C4C3C3C2C2C1C0CDF19DF19DF19C7
:101A00009C19B819C51900FA06F600FFFF0FFFC8A8
:101A10000000000001040303640006000000000051
:101A200000000000000000000000010000006E0C3B
:101A30000202700C0100710C0103720C0204740CA0
:101A400002058D0C0406760C010700000100000061
:101A50002B00770C0108780C0109790C010A7A0C2B
:101A6000010B7B0C020C7D0C010D7E0C0F0E910CFA
:101A7000010F920C0210940C07119B0C0121000025
:101A800008009C0C02229E0C0223A00C0100A10C59
:101A9000010074F612106974F7120FFFE9900A3909
:101AA000F012044075080875090078081211C47412
:101AB0000312104AAC82AD837AE87B0F793F1202A1
:101AC0007E74021210157A008A08740112104AE519
:101AD000822508F582E58312220B64FF70070AEA6B
:101AE000C3940840E3EAC394085010740112104AEA
:101AF000AC82AD837A007984120980E485188285EE
:101B00001983F0AC82AD837A0179701203E68518EF
:101B100082851983E0701C7AE07B0312044674010D
:101B2000851882851983F0AC82AD83FA797012032F
:101B3000E080077AE67B03120446E4900A55F090B1
:101B40000A7BF074FF900FD5F0121B547409121029
:101B500015021D8D7A01900A39E0F91201BE227436
:101B6000F6121069EAFEEBFF74805FF9E47001E998
:101B7000601A900A39E0F912014CEA7001EB600337
:101B8000120140EEFA74806FFB021C0CEEA2E050D2
:101B90006A790112097A7C687D0A7A0079601209F3
:101BA000807C6A7D0A7A0079641209807C6E7D0AE5
:101BB0007A00796212098074FF900A79F0900FCD53
:101BC00074E8F0A37403121C127963120980E49084
:101BD0000FCDF07CCD7D0FFA7966120980741E124C
:101BE0001C0F79691209807401121C0F796C12099B
:101BF0008012093874016EFAEF808D5402600990EA
:101C00000A7BE060031224727A007B00021D8D9033
:101C10000FCDF07CCD7D0F7A002274F01210697424
:101C2000FE120FFF8908ECFEEDFF7509008A828520
:101C3000820AE9C394905036746865087006750985
:101C4000B4021D1D7CCD7D0F7A0012096EE9F509E5
:101C5000750CCD750D0F750E00780C1211C0AC0A05
:101C60007D00EEFAEF122509121015021D1DE9C3C1
:101C700094AF5019750AE6750B03780A1211C41255
:101C800004047402121015E9F509021D1DE912126F
:101C90003E0007B0AA1CB1DD1CB2E21CC00A1DC187
:101CA0000E1DC2121DC3161D1A1DE4900A7AF0F50E
:101CB0000A851882851983AA82AB83A90A1209743E
:101CC000E97006900A7AE004F0050AE50AC3940A6E
:101CD00040DF900A7AE08E828F83F08040900A790C
:101CE00080F3851882851983AA82AB83900A79E0F4
:101CF000F9120974E9FA8A09702385188285198313
:101D0000E0F50CA3E0F50D021C56741280C8740AAD
:101D100080C474CE80C0741080BC7509E8A90974B1
:101D2000021210157F080210CF74F6121069E9FE36
:101D3000C39490501074686E700479B4804F7A0028
:101D40001209808048EEC394AF50157508E07509FC
:101D50000378081211C41204047402121015802DA5
:101D6000EE12123E01C0C33A1D03B03A1DB1751DFB
:101D7000B2821D8B1D8C828D83E0900A79F07900F0
:101D8000800B900A79E0FA796880B579E87F0202E1
:101D900010CF74ED1210698A0D8C0A8D0B7413121A
:101DA000104AE0F508A3E0F509890E750F007402EA
:101DB000780E120FECE50E24B2FEE50F3416FFEE9E
:101DC0002480F582EF34FDF583E493F9850882855C
:101DD0000983121054E50864E67004E50964037091
:101DE00031E9602EEE2482F582EF34FDF583E49331
:101DF000F508740193850810F5117512007810121A
:101E000011C0AC0D7D00AA0AAB0B12250A121015E9
:101E100079007F0B0210CF74F712106974FF120F54
:101E2000FF7AE67B03120446900A56E0121208007D
:101E3000028C1E391E721E801E851882851983AC85
:101E400082AD837A00798312096EE9FE701F8518CE
:101E500082851983E0601B790012097A900A6FE08D
:101E6000A2E0402A7A007B001209E6802112036872
:101E700080267A017B00900A39E0F912016A80130A
:101E80001204407AE07B0312044680E67EE8EEF915
:101E90001203687A00121B5674011210157F01029A
:101EA00010CF900A55F07A3B7B0A22C082C0839003
:101EB0000A3B7430F0A37475F0900A5DE0FC900A60
:101EC0003DF07A008013122366C0E0E8243EF582DC
:101ED000E4340AF583D0E0F00A12235D40E87A008A
:101EE000801312234DC0E0E82441F582E4340AF562
:101EF00083D0E0F00A74705CC430E30244F0FBEA83
:101F0000C39B40DE7A3B7B0A1208BA021FE474F7D7
:101F1000121069120950021E9D74EE12106974FEAF
:101F2000120FFF89088A0FECFEEDFF8B107414125C
:101F3000104AE0F511741512104AE0F50AA3E0F515
:101F40000B851882851983AA82AB83120974E9FA7A
:101F50008A097054E508900A3BF0E50F900A3CF0BE
:101F6000900A3DEEF0A3EFF0E510900A40F0E51185
:101F7000900A3F121EA51208A2E9FA8A0970298563
:101F80000A0C850B0D750E00780C1211C0AC117D7A
:101F900000900A43E0FAA3E0122509121015740715
:101FA000121EA21208A8800AE4900A55F0A909128C
:101FB000038C74021210157F0A0210CF74F71210EE
:101FC00069E91212080001E01FCD1FDA1F7AFF7BBA
:101FD000FF1209E6120398021E9D7A007B0080F131
:101FE00079E880F0D083D08202010774F212106980
:101FF00074FE120FFFEAFEEBFF900A7CE07002A372
:10200000E06011900A7CE0F8A3E0F583888212106A
:10201000540221F18E828F83A3858208858309EE85
:102020002402F8EF3400F9880A890B8E828F83E04E
:102030001212080110F12198218B217620F121A89C
:1020400020AE20F1216321FC20F121F121F1215961
:102050002081216921C820B420900A6FE0A2E040CD
:10206000077A007B001209E6850882850983E0F97A
:102070001203680221F1900FD5E064FF7003022182
:10208000F188828983E0FA900FD5E06A600302212B
:10209000F1900FD6E0FB900FD51221FD12037A7458
:1020A000FF900FD5F00221F112042E0221F112044B
:1020B000340221F1900A55E0640460030221F1E446
:1020C000F0F91203740221F1850882850983E0F595
:1020D0000C701D7CE87D037A027B00900A39E0F9E0
:1020E0001201E2E9FA8A0C70077401900A7B80B44D
:1020F0007BFF7AFFA90C12037A0221F1900A55E0C6
:102100006405600AE06406704C750D018003750D6E
:1021100000E41222117029851882851983AA82ABE6
:102120008388828983E0F9120974E9701CEE241D0A
:10213000122208FB850A82850B83E0FA790080066B
:102140007BFF7AFF792212036EE50D70030221F105
:1021500079240220C2E4F07BFF7AFF79B412036E87
:102160000221F112043A0221F1850882850983E0F7
:10217000F9120386850882850983E0F912095C80DB
:102180007088821221FB1203808066E4900A551247
:102190002211F912038C80598E828F83A3A3A3A3EB
:1021A000A3A3A3A31211DB8E828F83A3A3A3A3A354
:1021B000E0F50D780D1211C88E828F83A3A3A3A31F
:1021C000A3A3A3E0F50D780D1211C88E828F83A30F
:1021D000A3A3A3A3A3E0FB8E828F83A3A3A3E0FC0E
:1021E000A3E0FD850A821221FB12039274041210EF
:1021F0001574021210157F060210CF8983E0FA854C
:102200000882850983E0F922F582EF3400F583E046
:1022100022F0850882850983E02274F51210699006
:102220000A55E0640160030222AC8A828B83A3A872
:1022300082A983E070727E0080080CECC394064093
:102240002E0EEA2417F582EB122468FCEE9C5058FF
:102250008E08EA2508FCEB3400FD74272CF582E497
:102260003DF583E0FD74FE2DC3940E503B7C008C45
:1022700008E5082457F582E4340AF583E0FF6D6031
:102280000574FF6F70B488088909750A0078081210
:1022900011C07C317D007A9C7B0F12250A1210152B
:1022A0007402900A55F08009740380F6E0640260BD
:1022B000F77F030210CFC082C083900A55E064020A
:1022C0007073900F9DE0900A3BF0900F9EE0F8A392
:1022D000E0F9900A44E8F0A3E9F07CA07D0F7A3C95
:1022E0007B0A120A6412245C800C122366C0E0127E
:1022F0002451D0E0F00A12235D40EF7A00800C12E6
:10230000234DC0E0122446D0E0F00A74705CC43063
:10231000E30244F0FBEAC39B40E5900A6FE0A2E2CF
:10232000500474248001E4900A51F07405121EA236
:1023300012090E8015E064016005E06403700BE48F
:10234000F07BFF7AFF792112036E021FE48A82A8D4
:1023500082E82461F582E4340AF583E02274065CA5
:10236000C313FBEA9B228A82A882E8245EF582E4FA
:10237000340AF583E02274F6121069EAFEEBFFEEF0
:102380002430122208FA900A51F08A08EE2416F539
:1023900082EF122468601A900A7BE06014EE242613
:1023A000122208F50974FF6A700474B18005E48094
:1023B0000274B4900A3BF07A027B00900A39E0F98B
:1023C0001201E812245C800C122366C0E012245132
:1023D000D0E0F00A12235D40EF7A00800C12234D0A
:1023E000C0E0122446D0E0F00A74705CC430E3020E
:1023F00044F0FBEAC39B40E58E828F83A3A3E0F801
:10240000A3E0F9900A3CE8F0A3E9F0EE2404FCEF25
:102410003400FD7A3E7B0A120A647A3B7B0A120979
:1024200020900A3BE07013E508900FD5F0E5099085
:102430000FD6F0E4900A7BF08009900A7BE06003FD
:10244000122472021D8DE8244AF582E4340AF583D1
:1024500022E82447F582E4340AF58322900A5DE0FD
:10246000FC900A46F07A00223400F583E05406C35B
:102470001322E4F07BFF7AFF792312037A2274F5AA
:102480001210697401900A56F0740F900A6FF07C74
:10249000067D0079007A577B0A1201347402900A93
:1024A00057F07412900A5DF07401900A5EF0900A81
:1024B00061F0900A687410F0A3E4F0900A6A744A1C
:1024C000F0A37401F0900A707407F0A3E4F07508AB
:1024D0000375090FF50A78081211C07A037B0F12F1
:1024E00001228A088B0974012508FCE43509FD7A6C
:1024F000727B0A12250A121015900A6C7464F0A3FC
:10250000E4F0900A6EF00222B1FB1201287403225B
:1025100074F5121069EAFEEBFF750A00850A08756A
:10252000090074027808120FECE50824B2F8E509F6
:102530003416F988828983A3A3E493FC740193FD84
:1025400088828983A3E493FA88828983E493F98E4D
:10255000828F83121054050AE50AC3940C40BD0211
:1025600022B179FF12017C53BEFBE59DA2E650FA31
:102570000078F8790100E824FF18E934FFF9E870E1
:1025800001E970F175C6807480659E70FA43BE04DF
:102590007408906270F0D28043FD01C29143FE0244
:1025A0001202661203DA1206921201827A387B0353
:1025B00079011202961204B879FF1201761201888D
:1025C000C2AF75C9AB75C95B80FEC082C08379019B
:1025D000120422D083D082020107C082C083790016
:1025E00080EE74F7121069E9900A20F07401900AE5
:1025F0001FF0FA7B0012016A900AB2741AF0A374F9
:1026000003F0900AB47420F0A37403F07C097D00F9
:1026100079007A167B0A12013480057401121015B4
:102620007F010210CFC082C0837A0A7B001201A60C
:10263000900A2FEAF0A3EBF07C0A7D0079001201EA
:1026400034790012026079011206207902120962BF
:1026500079031203EC79041203260225D374F612CF
:10266000106974F0120FFFEAFEEBFF74805FF9E46B
:102670007001E960030226FAEEA2E050457A017982
:10268000021202BA740212104A7407122CB179A114
:102690001203FE740212104A740B122CB179A412A8
:1026A0002CA774E8F0A37403F0851882851983AC15
:1026B00082AD837A0279A71203FE79011201B81262
:1026C000040AEE54026022900A19E06004E4122A1F
:1026D000B3900A21E07006900A22E0600CE4900AB0
:1026E00021F0900A22F01203447A007B0074101249
:1026F00010157F020210CF120140900A20E0F9125B
:10270000014CEA7001EB70EFEEFA74806FFB80DD34
:1027100074F7121069E9FEA2E050077A04790212F8
:1027200002BAEEA2E1500A7A0179021202BA120547
:102730005402262074F712106974D4120FFF900A05
:1027400013E06401600302288E900A14E0FE121266
:102750000801058E286127832799270328132870ED
:1027600028900A1FE0640270157403F07CE8FD7B7A
:10277000327A1E79011202C012041002288E7AB435
:10278000022889900A1FE0640270F37405F0900A31
:1027900015E0F912041602288E7F0085188285192B
:1027A00083AC82AD837A0179C11203F88F08803738
:1027B0007C157D0A7A0179B11203FE740112104A68
:1027C000AC82AD837A2B79B21203F8E970177401E9
:1027D00012104A74FFF0AC82AD837A2B79B21203E7
:1027E000FEE96001FF0508851882851983E0FAE596
:1027F00008C39A40BBEF70077A0079011202BAEF62
:10280000022888851882851983AC82AD837A017984
:10281000C1806B7C157D0A7A0179B11203FE7401C7
:1028200012104AAC82AD837A2B79B21203F8E970A8
:102830002E740112104AE0900A24F0742312104AF8
:10284000E0F8A3E0F9900A25E8F0A3E9F074051296
:10285000104AAC82AD837A277B0A120A6480067420
:10286000FF900A24F07402900A23F0120350801E95
:10287000851882851983AC82AD837A017961120350
:10288000F8851882851983E0FAEEF912034A742C50
:1028900002261D74F51210697A00A2AFE492E0FEE0
:1028A000C2AF7402122954402175082175090A75B6
:1028B0000A0078081211C079027A247B621204B2ED
:1028C00074031210151229A1800CEEA2E092AF0A37
:1028D000EAC3940340C47F030210CF74F11210695D
:1028E00074FD120FFF7401851882851983F0121090
:1028F0004AE9F0740212104AEAF07A00A2AFE492B8
:10290000E0F5081229504033851882851983A98281
:10291000AA83890C8A0D750E00780C1211C07903F8
:102920007A267B621204B27403121015906211E0D1
:10293000D2E0F0E508A2E092AF800DE508A2E092B7
:10294000AF0AEAC3940340B47403121015022C4E6C
:10295000C2AF740390620EF0906211E0A2E02274A4
:10296000F51210697A00A2AFE492E0FE12295040FD
:102970002175082375090A750A0078081211C079B3
:102980000C7A267B621204B274031210151229A16C
:10299000800CEEA2E092AF0AEAC3940340C802287A
:1029A000D6906211E0D2E0F0EEA2E092AF2274F194
:1029B000121069EAFEEBFF750900E9C394025003A7
:1029C000022A758E828F83A3E01212080103142A53
:1029D000D829082A0C2A102A7A528E828F83E0FB8B
:1029E00074016B6006900A31E0707EEA900A31F063
:1029F000900A19122AB38E828F83E0640370767571
:102A00000901E4900A31806C7A5180CE7A5080CAF4
:102A10007A4F80C612035CEAF8EBF9EA7001EB60CA
:102A2000548E828F83E0FA74016A6006900A32E065
:102A3000703C7401900A32F0880C890D750E007894
:102A40000C1211C07C027D007A217B0A12012874CD
:102A5000031210151203448E828F83E064037015F5
:102A6000750901E4900A32800B74036B80037403D0
:102A70006A7002E4F08E828F83E064037022E509BD
:102A800060047C0A801C7A027B00900A20E0F91224
:102A900001E87A027B00900A20E0F912016A8010B6
:102AA0007C647D007A027B00900A20E0F91201E24A
:102AB000022C4EF07A167B0A1204C422C082C08314
:102AC000E4900A33F0900A34F08A828B83A3E0FC0E
:102AD00012123E001200312B300D2B311A2B322DE9
:102AE0002B40702B411E2B42222B43262B44352B8F
:102AF00045512B46392B473D2B48452B49412B4B04
:102B0000492B4C4D2B68552B6B702B742B741090EC
:102B10000A33F07A337B0A0225D3743080F1744093
:102B200080ED748080E97401900A3480E57403803C
:102B3000F7740480F3740580EF740680EB740780EB
:102B4000E7740880E3740980DF740A80DB740B800B
:102B5000D7740C80D3E9C3940340B88A828B83A3D3
:102B6000A3E0FAC3940350AB74012A5403C480B8A1
:102B7000740280B474E02CC3940A500574E12C8074
:102B80008E7A007B00809074F112106990620EE0E2
:102B9000F50A7403F0906214E0A2E04003022C48AE
:102BA000906216E0F508906217E0AE08FFC3EE945D
:102BB00004EF9400501F75081375090A8062780CA1
:102BC0001211C07903122C55121015EE24FD1E1E91
:102BD0001EEF34FFFF750C13750D0A750E00C3EE62
:102BE0009404EF940050D7EE7001EF600B780C1254
:102BF00011C0122C53121015E4906214F080497821
:102C00000C1211C079FF122C55121015EE24010E72
:102C1000EF34FFFFE50824FFF508E5093400F50966
:102C200085080C85090D750E00C3EF940150D0EE98
:102C30007001EF600B780C1211C0122C531210159A
:102C4000E4906214F012033EE50A90620EF07F07F2
:102C50000210CFEEF97A267B621204AC7403227460
:102C6000F712106974FF120FFFE97035E4851882BE
:102C7000851983122CB179A0122CA7AC82AD837A6E
:102C80000179B01203F8E97010851882851983E084
:102C900060077A0179011202BA7402900A1FF0806B
:102CA0000312023602261B1203FE85188285198341
:102CB00022F0AC82AD837A0122020107020107747F
:102CC000F712106974FF120FFFE9FE85188285194B
:102CD00083AC82AD837A0179B01203F8E9700D8577
:102CE0001882851983E060047A0180027A007901F4
:102CF0001202BA900A1FE064037007EEFA7901121B
:102D0000034A7402900A1FF002261B74F71210691E
:102D1000900A1FE0640570077402F0F912034A027A
:102D2000262074F7121069E9FA790212034A022682
:102D30002002010774F112106989088A09740F12C0
:102D4000104AE0FA741012104AE0F50A74111210D9
:102D50004AE0FEA3E0FFE50A7003022DF17401656D
:102D6000096003022DF1EAA2E25003022DF11205DF
:102D7000548E828F83E0FA74016A600A74026A607A
:102D80000574036A700BEEFAEFFBA90A1203568072
:102D90006074046A705BA3E070577402650A705136
:102DA0007A227B001201A68A0A8B0BEA7001EB6083
:102DB00040750C90750D16750E80780C1211C07C44
:102DC000227D001201287403121015780A1211C412
:102DD000750C22780C1211C87B047C007D007A01EE
:102DE000A90812041C7403121015AA0AAB0B1201D5
:102DF000AC022C4E02010774F412106974FC120F1D
:102E0000FF7E00E4900A38F0900A35F07F3D7508A7
:102E10000475090078081211C4740212104AAC82B9
:102E2000AD837A007B00EF12340E121015851882E4
:102E3000851983C082C083900EF67808120ED5D013
:102E400083D0827808120C607019900A35E0601007
:102E5000F91203B0EFF91203B0E4900A35F08029BB
:102E6000EF80FA851882851983C082C083900EC7CF
:102E70007808120ED5D083D0827808120C607004C6
:102E8000EFFE8005EFF91203B00FEFC3943F50033C
:102E9000022E0E900A35E07026EE7018793D12036E
:102EA000A4900A367404F0A3E4F0900A38E06019A4
:102EB00079008017F01203B6EEF91203C8800AEE0B
:102EC0006004F91203AA1203B679010230AE74F459
:102ED00012106974FC120FFFE9FE900EF6780812CA
:102EE0000ED58518828519837808120EE48518821C
:102EF000851983AC82AD837A007B001203D4900ADB
:102F000038E07005EE900A35F00230AE74F412101D
:102F10006974FF120FFF8908794E120206E96006F4
:102F2000900A38E060087401900A38F08039A908E6
:102F300012028A7E007F00750A01750B00780A1262
:102F400011C4740212104AAC82AD83EEFAEFFBA9F1
:102F50000812340F121015851882851983E064FF5A
:102F600070C4122FB540D074010230B074F4121046
:102F70006974FF120FFF89087E007F00750A0175D2
:102F80000B00780A1211C4740212104AAC82AD838D
:102F9000EEFAEFFBA90812340F121015851882857E
:102FA0001983E064FF6007A9081203AA8005122FA5
:102FB000B540C980B2EE24010EEF3400FFC3941077
:102FC0002274F412106974FC120FFF7EFC7F0F75DF
:102FD000080475090078081211C4740212104A120C
:102FE0003402121015851882851983C082C083901F
:102FF0000EE77808120ED5D083D0827808120C60C4
:103000007011EE24FCFEEF34FFFFC3EE9404EF9446
:103010000050BC1235AEE8F0A3E9F00230AE74F413
:1030200012106974FC120FFF8909EAFEEBFF8C088D
:10303000EE24FCFEEF34FFFFC3EE9404EF94004057
:1030400069750A04750B00780A1211C47402121013
:103050004AAC82AD83EEFAEFFBA90912340F1210CD
:1030600015740212104AE0F8A3E0F9851882851958
:103070008385080AE0650A7002A3E0700AEEC3982F
:10308000FAEF9400FB8027748059FBE47001EB7029
:103090009F740428FAE439FBC3EE9AEF9B4008EED4
:1030A000C39812335680901202367A007B00740463
:1030B0001210157F040210CF74EC12106974FC1208
:1030C0000FFF890AEAFEEBFF8C0B741812104AE01E
:1030D000F50EA3E0F50F741A12104AE0F50CA3E008
:1030E000F50D85188285198374FFF0A3F0A80E747E
:1030F00080450FF9740212104AE8F0A3E9F0E82EB7
:10310000F508E50F3FF509851882851983AC82AD76
:1031100083AA08FBA90A1203D4740212104A1231BE
:10312000A57402780E120FDDE50EF510900A38E056
:10313000704E750F00780E1211C4AC0CAD0D8E0ED2
:103140008F0F7402780E120FDD850A12F513740AC0
:103150007812120FEC250EFAE513350FFB120284DC
:103160007402121015E510F50E780E1211C8AC0C91
:10317000AD0DEEFAEFFBA90A1203CE740112101581
:10318000850B0CE50C851882851983F0A3748012D9
:1031900031AB8518828519831231A574041210157C
:1031A0007F0C0210CFE0F0A3E0547FF085188285F9
:1031B0001983AC82AD83AA08AB09A90A1203D422F1
:1031C00074EA12106974F8120FFF8910750DFF74FC
:1031D0003D65107005750C3E8003750C3D750A0445
:1031E000750B00900A36E024FCFEA3E08005EE2477
:1031F000FCFEEF34FFFFC3EE9404EF940050030293
:103200003332900A38E0600302334C7508047509C4
:103210000078081211C4740212104AAC82AD83EE19
:10322000FAEFFBA91012340F1210158518828519B8
:1032300083E064FF7004A3E064FF70357402121031
:103240004AE0F8A3E0F9748059FBE47001EB709E4A
:10325000740428F8E439F9C3EE98EF99400D74022C
:1032600012104A123362123356808A120236023327
:103270004C851882851983A3E05480F9E47001E934
:1032800070DC851882851983850D08E06508700259
:10329000A3E060CA851882851983E0F50DFCAA0AAF
:1032A000AB0BA90C1203BCEA7001EB70B1740212F3
:1032B000104A123362F508EF99F5098814891575DB
:1032C0000E00750F0075120475130078121211C4E8
:1032D000740612104AAC82AD83E50E2508FAE50F9C
:1032E0003509123409121015740412104AAC82AD5B
:1032F00083E50E250AFAE50F350BFBA90C1203D462
:10330000E50E2404F50EE50F3400F50FC3E5149522
:103310000EE515950F50AE740212104AE02404F821
:10332000A3E03400F9E50A28F50AE50B39F50B02AC
:10333000325EA90C1203A4900A38E0700A900A3693
:10334000E50AF0A3E50BF0A9101203AA7408121005
:10335000157F0E0210CFF8EF99F974FC28FE74FF68
:103360003922E0F8A3E0F9EEC3982274F012106954
:1033700074FC120FFF890FEAFEEBFF8C0A8D0B74B1
:103380001412104AE0F5098014EE2404FEEF340014
:10339000FFE50A2404F50AE50B3400F50B8509085E
:1033A00074FF2508F509E508604E750C04750D00DD
:1033B000780C1211C4740212104AAC82AD83EEFA7A
:1033C000EFFBA90F12340F121015850A0C850B0D97
:1033D000750E00780C1211C07C047D00740312106D
:1033E0004AA982AA837B0012012E7403121015E9E8
:1033F00070977401900A38F074041210157F080257
:1034000010CFAC82AD83EEFAEFFB900A35E0F912F3
:10341000027E74022274F1121069890E8A088B09E7
:10342000ECFEEDFF900A38E0704B750A01750B0059
:10343000780A1211C48A0A8B0B7402780A120FDD03
:10344000890CF50D740A780C120FEC250AFAE50DBB
:10345000350BFB1202847402121015750A01780AEA
:103460001211C8EEFCEFFDAA08AB09A90E1203CE9B
:1034700074011210157F070210CFC082C08312039F
:103480009EE97003120236D083D08202010774F0E5
:1034900012106974FB120FFF89098A088C0A8D0BC0
:1034A000AC091235EF8A0C8B0DAE0CAF0DEE70012E
:1034B000EF6050750E00803B750C01750D00780CA7
:1034C0001211C4740212104A123402121015851817
:1034D00082851983E0FA850E0CE50A250CF582E554
:1034E0000B3400F583E06A701AEE24010EEF34000D
:1034F000FF050EE50EC3950840BEE508650E700396
:103500000235A785080C7403250CF8E43400F97A19
:10351000047B00120F7C880C890D7402780C120F4A
:10352000ECAE0CAF0D900A36E02EF8A3E03FF97434
:103530000428F8E439F9C3E89401E994104039907B
:103540000EC7780C120ED5740112104AE50CF0A3C8
:10355000E50DF0A3E50EF0A3E50FF0740112104A9B
:10356000AC82AD837A007B00900A35E0F91203D477
:10357000900A35E0F91203C8780A1211C48E0A8F36
:103580000B780A1211C4AC091235F61203C2740486
:10359000121015900A38E06004790A800C1235AEDA
:1035A000E028F0A3E039F0790074050233FA7404DE
:1035B0002EF8E43FF9900A362274F4121069890A51
:1035C0008A0BECFEEDFFAC0A1235EFEA7001EB60FE
:1035D00019850B0875090078081211C4EEFCEFFD7F
:1035E00012340A12101579008002790A0230B312DF
:1035F00035F61203BC22900A36E0FAA3E0FB900AEB
:1036000035E0F92274E812106974ED120FFFE985B4
:103610001882851983F0740112104AECF0A3EDF0C2
:10362000742B12104AE0F510A3E0F511742D12105E
:103630004AE0F516A3E0F517742F12104AE0FEA336
:10364000E0FF851882851983E0700302392F740327
:1036500012104A7401F0EE7001EF60037441F085BE
:103660001882851983E024FE333354FCFC74031262
:10367000104AE04C123CE01211C07C0D7D00740732
:1036800012104AAA82AB83123AEE1210157411126C
:10369000104AE511F0741212104AE510F07C107D0A
:1036A000007900743312104AE0FAA3E0FB120134EF
:1036B000750820750900C3EE940FEF9400402D7437
:1036C000F22EF874FF3FF974F058F8742028F508CA
:1036D000E439F509EE24F2540F6004781080027882
:1036E00000E50828F508E5093400F509E510540F50
:1036F000F50F60047A1080027A0074F05510F874A7
:10370000FF5511F9EA28F8E439F9E50828F508E544
:103710000939F509AA08FB1201A68A148B15EA706B
:1037200001EB70057910023931740312104AA98235
:10373000AA83890C8A0D750E00780C1211C07C10BA
:103740007D00AA14123AEE121015E5142410F50AA1
:10375000E5153400F50BEF850A82850B83F0A3EEA7
:10376000F0A385820A85830B85160C85170DC394FB
:103770000FEF9400400B780C1211C07C0E7D00807E
:10378000167C0E7D007900AA0AAB0B120134780C6E
:103790001211C0EEFCEFFD123AEA121015E50A24F0
:1037A0000EF50AE50B3400F50BC3EE940FEF940011
:1037B000407BEE24F2FEEF34FFFF8E0C8F0D74047D
:1037C000780C120FDDEE540FFE7404780C120FEC1F
:1037D000850C128F13E516240EF50CE5173400F551
:1037E0000D780C1211C0AC12AD13123AEA1210157A
:1037F000E50A2512F50AE50B3513F50BEE602E7C74
:10380000107D007900AA0AAB0B120134E5162512CF
:10381000F8E5173513F9740E28F50CE439F50D7831
:103820000C1211C0123AE6121015123936740478CF
:1038300010120FDDA810A911AE0F880C890D7404A9
:10384000780C120FEC850C10850D11740112104AC2
:10385000E0F50CA3E0F50D780C1211C0AC10AD1121
:10386000123AEA121015E50A2510F50AE50B351192
:10387000F50BEE602B7C107D007900AA0AAB0B12D1
:103880000134740112104AE02510F50CA3E0351143
:10389000F50D780C1211C0123AE6121015123936D5
:1038A000E50AC39514F8E50B9515F9E8650870036A
:1038B000E965096003120236123CB743B350E5B321
:1038C000743312104AE0FAA3E0FB120212780812D5
:1038D00011C478141211C47C107D00743712104A80
:1038E000123CD112101553B3F8E5B37404780812E2
:1038F0000FDD74FF2508F874FF3509F9800943B31B
:1039000001E5B3A2E350FAE8FAE9FB74FF2A187460
:10391000FF3BF9EA7001EB70E5123CB785B3B343A6
:10392000B301E5D1A2E250FAAA14AB151201AC79A9
:10393000007413023ADEE50A2410F50AE50B3400A0
:10394000F50B2274E812106974E0120FFFEAFEEB27
:10395000FF8C168D17743812104AE0F508A3E0F5B5
:1039600009743C12104AE0F512A3E0F51385120C1D
:10397000F50D750E00780C1211C0E9FC7D00741372
:1039800012104AAA82AB83123AEE12101574018506
:103990001882851983F08E0C8F0D780C1211C07C63
:1039A0000D7D00740412104AAA82AB83123AEE1203
:1039B0001015740F12104AE4F0740E12104AE4F05D
:1039C00085080A85090B7404780A120FDDAE0AAF68
:1039D0000BE508540FF50F6008EE24010EEF3400DC
:1039E000FF8E0C8F0D7404780C120FEC850C0A8579
:1039F0000D0BAA0AAB0B1201A68A108B11EA7001FB
:103A0000EB70057910023ADC85160C85170D780CE1
:103A10001211C0AC08AD09123AEE121015E50F6094
:103A20001BF50C7410C3950CFCE49400FD7900E5C3
:103A3000102508FAE5113509FB120134123CBD7559
:103A40000C10750D00780C1211C4741212104A85F6
:103A5000820C85830D780C1211C47C107D00AA1293
:103A6000AB13123CDA121015123CA3E5D1A2E250BE
:103A7000FAEE7001EF6043123CAC12104A123CEBBC
:103A8000780A1211C478101211C4AC0AAD0BAA1036
:103A9000AB11123CDA12101553B3F8E5B3800943A9
:103AA000B301E5B3A2E350FAEEF8EFF974FF281E74
:103AB00074FF39FFE87001E970E585100C85110D80
:103AC000780C1211C0AC08AD09AA16AB17123AEE69
:103AD000121015AA10AB111201AC7900742012104B
:103AE000157F100210CFEEFC7D00AA0AAB0B12016D
:103AF0002874032274E812106974E0120FFF890F12
:103B00008C148D15743812104AE0FE7401851882E9
:103B1000851983123CE01211C07C0D7D00740412E3
:103B2000104AAA82AB83123AEE121015740F1210CB
:103B30004AE4F0740E12104AE4F0EEC3950FF50C4F
:103B4000C4540FFE7F00740F550C60010E7C107D75
:103B5000007900EC12104AAA82AB83120134850C62
:103B600008E5142508F516E5153400F517850F82CC
:103B7000858212851608F50978081211C0AC127DED
:103B800000741312104AAA82AB83123AEE12101577
:103B9000123CBD7508108F0978081211C4741212F6
:103BA000104A85820885830978081211C47C107D2B
:103BB00000744012104A123CD1121015123CA3E5B9
:103BC000D1A2E250FA8E0A8F0B7404780A120FEC1D
:103BD000850A08850B09AA08AB091201A68A0A8B77
:103BE0000BEA7001EB70057910023CA0AC08AD093E
:103BF0007900120134850C8285821085140C85159C
:103C00000D8F0E780C1211C0AC10123AE81210157C
:103C1000EE7001E46046123CAC12104A123CEB78A4
:103C2000081211C4780A1211C4AC08AD09AA0AAB73
:103C30000B123CDA12101574F855B34402F5B38038
:103C40000943B301E5B3A2E350FAEEF8EFF974FFCC
:103C5000281E74FF39FFE87001E970E5850A0C85BC
:103C60000B0D780C1211C0AC107D00AA14AB15120C
:103C70003AEE121015AA0AAB0B1201AC743C1210EA
:103C80004AE0F508A3E0F509750A0078081211C0AA
:103C9000AC127D00AA16AB17123AEE12101579007D
:103CA000023ADC53B3F8E5B343B30122123CB74305
:103CB000B330E5B3740F2253B38FE5B322123CB790
:103CC00043B320851882851983AA82AB831202121E
:103CD00022E0FAA3E0FB123CDA2212021E74042254
:103CE000F08A088B09750A007808227401F085189B
:103CF00082851983AA82AB831202122274EE1210FB
:103D0000698908ECFEEDFF741212104AE0F8741491
:103D100012104AE0F510A3E0F511741612104AE0F3
:103D2000F50EA3E0F50F741812104AE0F50CA3E0AD
:103D3000F50D741A12104AE0F50AA3E0F50BE970CC
:103D40000779007F0A0210CFE8C39508F509780AC1
:103D50001211C4780C1211C4780E1211C47810120A
:103D600011C485090C750D00780C1211C4120242A1
:103D7000740A121015E970CB7A0080010AEAC39523
:103D80000850C0AC0974012CF5098A0CE50A250C11
:103D9000F582E50B3400F583E0FB8C0CEE250CF589
:103DA00082EF3400F583E06B60D27901809574F680
:103DB000121069900A9BE07002A3E0701C900A9DAB
:103DC00012417B74FF59FBE47001EB700C900A9F69
:103DD000E064027002A3E0600474048058900A99C1
:103DE000E01212088002D93DEE3D3C3E4C3EE870A8
:103DF000E8900A93E06004780180027800900AB0AD
:103E0000E8F0A3E4F0900A92E0600A900AB0E0447F
:103E100002F0A3E4F0900A87E06404601C900A9426
:103E200074B0F0A3740AF0A3E4F0900A977402F05F
:103E3000A3E4F07401900A87F00244C6900A82E07D
:103E400064047095900AB0E4F0A380C8E8547FF54C
:103E500008900A82E064047080E508C39406400379
:103E6000023DD9E5082482F582E4340AF583E8545A
:103E700080A3A3A3A3A36011E0640370047801806E
:103E8000027800900AB0E88088A3A3A3A3A3E0640B
:103E90000370EE80E874F6121069E9FE900A9FE064
:103EA0007002A3E07012900A82E064046015900A28
:103EB0009DE07002A3E0600B7404900A87F0790122
:103EC0000244C6900A99E0541F1212080002B83E3C
:103ED000D63EDE3EF63E900A9BE064016004790027
:103EE00080DEEE900A92F060047905800279067A0D
:103EF000001204EE80C8900A9DE0547FFA900A9B5D
:103F0000E070DBEAC3940650AFEA90620EF02482C0
:103F1000F8E4340AF9900A9DE05480602AEE6004C7
:103F2000741080027440906211F0EE60047403809B
:103F300001E488828983A3A3A3A3A3F0EE6004799C
:103F40000880317907802DEE60047420800274802F
:103F5000906214F0EE600474038001E48882898327
:103F6000A3A3A3A3A3A3A3A3A3A3F0EE6004790A2E
:103F7000800279091204EEE490620E023EBDC08216
:103F8000C0837900120512E970031204E2805FC059
:103F900082C0837901120512E970031204E8804E91
:103FA000C082C083900A9DE07002A3E0701E900A58
:103FB0009FE07002A3E07014900A9B12417B748012
:103FC00058FA74FF59FBEA7001EB60077404900A19
:103FD00087801AE8906200F0900A826009E064022B
:103FE000700C74038007E0640370037402F0D083E4
:103FF000D08202010774F2121069900A9BE0FAA3C2
:10400000E0121208010258400E40214051401204B3
:104010007C12415A120CAA900A97F0A3E4F00241D4
:1040200016790012048212415AE924020909EA347D
:1040300000FA120CAAFC1919E0FAE924030909098B
:10404000EA3400FA120CAAF9EC900A97F0A3E9807E
:10405000CCEAF912048E80B9900A94E4F0A3F0A39C
:10406000F0F50B900F0EE0FAA3E0FB0240F07509AB
:104070000074037808120FECEA2508F8EB3509F90B
:10408000900A9B124171E493C0E0EFFCD0E06C70A9
:104090005DA3E4936E7057900A9D124171A3A3E44F
:1040A00093C0E0EFFCD0E06C704488828983A3A3C6
:1040B000A3E4936E703888828983A3A3A3A3E493B7
:1040C000F508740193F509900A94E508F0A3E50951
:1040D000F0A37480F088828983A3A3A3A3A3A3E49D
:1040E00093F8740193F9900A97E8F0A3E9F0050BAF
:1040F000850B08900F1012417BE8C39AF50CE99BE1
:10410000F50D7403780C120FDDC3E508950CE495EA
:104110000D500302406E900A94E0FCA3E0FDA3E082
:10412000FEEC4D4E700474048027900A87E064040E
:104130006023900A9FE0FAA3E0FB900A9712417B6C
:10414000C3EA98EB995008900A97EAF0A3EBF07451
:1041500001900A87F07F060210CF900A94EAF0A33C
:10416000EBF0A37480F0900A94E0F9A3E0FA7B806E
:1041700022E0FEA3E0FF8882898322E0F8A3E0F931
:104180002274ED121069EA2404F508EB3400F509F5
:10419000850882F583E4936026900F1212417BE834
:1041A000FEE98007EE2404FEEF3400FF8E828F8349
:1041B000E493F8740193F9EA687002EB6970E575AD
:1041C0000A0080417490906214F074101242D4700E
:1041D00003750B408E828F83A3A3A3E493551060D5
:1041E00006E50BD2E0F50BE50B906215F0EA906264
:1041F000131242CBA3A3A3A3A3A3A3A3A3A3F090AF
:10420000620EF0050A850882850983E493FAE50ABF
:10421000C39A40030242C67A0079051204768A0ED8
:10422000EA7001EB60DDEA2402F8EB3400F9E8FC07
:10423000E9FD8C828D83E493540FF51290620EF0A9
:10424000750B008A828B83A3A3A3A3E4932407F5B1
:104250000CA3E4933400F50D7403780C120FDDAA5F
:104260000C85120CE50C2482F8E4340AF9880C89D8
:104270000D751001751100E5127810120FECE50EA6
:104280002403F8EB3400F98C828D83E493A2E74099
:10429000030241C47448906211F074081242D47051
:1042A00003750B408E828F83A3A3E49355106006A1
:1042B000E50BD2E0F50BE50B906212F0EA9062108C
:1042C0001242CB0241F97F0B0210CFF0E4850C8241
:1042D000850D8322F088828983E49354036401224C
:1042E000C082C083900A9BE07002A3E07016900A1F
:1042F0009DE07002A3E0700C900A9FE064017002E0
:10430000A3E060047404800C900A947483F0A37496
:104310000A12443B900A87F0023FEE74F3121069D0
:10432000900A82E06402601F900A9DE07002A3E0A0
:104330007015900A9FE07002A3E0700B900A9CE059
:10434000F9E47001E960097404900A87F00243E41B
:104350007A0079011204EE900A9BE060727A00F90B
:104360001204828A088B09EA7001EB605A74049087
:104370000A82F0900A9BE0900A83F0750C00850891
:1043800082850983A3A3A3A3E493FAE50CC39A50FF
:104390004C850C0AE50A2484F8E4340AF9E8FEE9BD
:1043A000FFE48E828F83F07A0079041204768A8289
:1043B0008B83A3A3A3E493FC8E828F83E06C70E7CE
:1043C000120530050C80B77404900A87F0800E90B7
:1043D0000A83F07403900A82F0F91204A67A007935
:1043E000021204EE7F050210CF74F5121069900AD4
:1043F00082E06404701E900A99E064817016900A4D
:104400009BE07002A3E0700C900A9FE064017002D0
:10441000A3E060047404801A900A9DE02484F508E7
:10442000A3E0340AF509900A94E508F0A3E509121F
:10443000443B900A87F07F030210CFF0A3E4F09092
:104440000A977401F0A3E4F074012274F612106963
:10445000900A82E064047012900A99E06401700A84
:10446000900A9FE07002A3E060087404900A87F04D
:104470008054900A9BE0FB900A9DE0FA900A83E04A
:10448000F91204888A088B09AE08AF09EE7001EFB3
:1044900060D8900A9DE0FA79031204EE900A9BE03E
:1044A000C0E0900A9DE02484F8A3E0340AF98882F1
:1044B0008983D0E0F0EEFAEFFB120530900A9DE020
:1044C000FA79041204EE7F020210CFC082C0831278
:1044D0000A7002462D74F5121069EAFEEBFF740BA8
:1044E00012104A12472AA3E0A908AA09FB8E828F5C
:1044F00083800D120CAAF0E9240109EA3400FAA322
:10450000ECFEEDFF74FF2E1C74FF3FFDEE7001EF1B
:1045100070E1AA82AB837F030210CF74ED121069A1
:10452000741312104AE0F510A3E0F511A3E0F512A0
:1045300089088A098B0A85100C85110DECF8EDF9B4
:1045400074FF281C74FF39FDE87001E96036A90882
:10455000AA09AB0AE92401F508EA3400F509850C3B
:1045600010850D11E50C2401F50CE50D3400F50D59
:10457000120CAAFEA910AA11AB12120CAA6E60BCF2
:104580007900800279017F0B0210CF74F612106956
:10459000E9FE8C088D0978081211C4EEFC7D00122A
:1045A0000A6A74021210150247E4A2E092AF7F017A
:1045B0000210CF74F6121069EAFEEBFFEE7001EF05
:1045C00070067A007B00803E74052EFAE43FFB12F1
:1045D00001A68A088B09A808A909E87001E960E228
:1045E00088828983E4F0A3F088828983A3A3EEF014
:1045F000A3EFF074FF88828983A3A3A3A3F0E82428
:1046000005FAE93400FB0247E4C082C083EA700186
:10461000EB70047905801612468560047904800DDC
:10462000EA24FBFAEB34FFFB1201AC7900D083D013
:104630008202010774F7121069E9FEEA7001EB705B
:10464000047905803D900EF5E0FCE9C39C4007121B
:1046500001407903802C124857E07002A3E07005F6
:10466000124685600512014080D7EEF0EAFCEBFDB2
:104670007A807B011201527A007B80EEF912016A86
:1046800079000245AEEA24FFF582EB34FFF583E0C2
:1046900064FF2274F2121069890B750C00750D000D
:1046A0007E007F00A2AFE492E0F50AC2AF900180E5
:1046B0008017EE7001EF700685080C85090DE5087E
:1046C00024FBF582E50912485D12472AE5087002CD
:1046D000E5096025E50824FFF582E50912485DE05B
:1046E000650B70CEEE7001EF7006AE08AF0980CE9C
:1046F0007A007B8012016A800D7A007B8012017043
:10470000EE7001EF6015780C1211C4EEFCEFFD7A2B
:10471000807B0112015E7402121015E50AA2E0927C
:10472000AFEEFAEFFB7F060210CFE0F508A3E0F54D
:104730000922E0FAA3E0FB2274F7121069A2AFE4A9
:1047400092E0FEC2AFEC24FBF582ED12485DE4F08E
:10475000A3F01247877001E970098A828B83801069
:104760001248621247797002A3E08882898370F050
:10477000ECF0A3EDF0EE0245AAE824FBF8E934FFE3
:10478000F988828983E0228A828B83E0F8A3E0F9AA
:10479000E82274F6121069EAFCEBFD7A007B00A2B5
:1047A000AFE492E0F508C2AF8C828D8312478B7024
:1047B00001E9602AE8FAE9FBEA24FBF8EB12477EFC
:1047C000FEA3E0FF8C828D83EEF0A3EFF088828958
:1047D00083E4F0A3F0EA24FF12485A74FFF0E508DE
:1047E000A2E092AF7F020210CF74F5121069740B31
:1047F00012104A124862A2AFE492E0F50AC2AFEC8E
:1048000024FBFEED34FFFF8A828B8312472AEC657E
:10481000087003ED65098E828F83700D1248628ADD
:10482000828B83E8F0A3E98010124732E824FBF57D
:1048300082E912485DEAF0A3EBF08E828F83E4F008
:10484000A3F0EC24FFF582ED12485D74FFF0E50A59
:10485000A2E092AF024516EA24FBF582EB34FFF5A5
:104860008322E0F8A3E0F92274F6121069E9FE75DC
:104870000800A2AFE492E0FFC2AF1247877001E9DF
:1048800070108A828B83801BEE602088828983125D
:1048900048621E1247797002A3E070ECEE600C884B
:1048A000828983ECF0A3EDF0750801EFA2E092AFEE
:1048B000A9080247E474F7121069E9FD900EF5E0CB
:1048C000FCE9C39C5029E5A8FEC2AFEDC333F8E470
:1048D00033F9900A2FE028FCA3E0398C82F583E0BD
:1048E0004AF0A3E04BF0EEA2E792AF7900800279A4
:1048F000030245AE74F7121069E9FE900EF5E0FC74
:10490000E9C39C501EE5A8FFC2AFEAF4FCEBF4FD3E
:10491000EE124A225CF0A3E05DF0EFA2E792AF79DD
:1049200000800279030245AEE9FA74FF6A7006D28C
:10493000AF790080027907020107E9FA74FF6A7013
:1049400006C2AF790080027907020107C082C083E6
:1049500012019A900180E4F0A3F01201CA1201B290
:1049600012032C1201A0790002462D74F412106972
:10497000750800751A0112018E120272E508124ABA
:10498000227002A3E0700D0508900EF5E0FAE5082C
:10499000C39A40E8900EF5E0FAE508C39A505BE54B
:1049A000A8FCC2AFE508C333FEE433FF900A2FE052
:1049B0002EF8A3E03FF988828983124732888289E2
:1049C00083E4F0A3F0ECA2E792AFA908EE24EBF5A4
:1049D00082EF340EF583124A19121054E5A8FDC275
:1049E000AF900A2FE02EFCA3E03F8C82F583E04AD3
:1049F000F0A3E04BF0EDA2E792AFA2AF40031202AA
:104A000036900EF5E065086003024970E51A700300
:104A10000249701201C4024970E0F8A3E0F58388EE
:104A20008222C333F8E433F9900A2FE028FAA3E096
:104A3000398A82F583E022C082C0837A00790F121E
:104A400002BA024D9B74F512106989088A0AEA12AB
:104A5000123E0100017A4A0302634A04704A087A4E
:104A60004ABB4A7CE87D037B057A011202C0804B79
:104A70007CE87D037B057A3280F175090153080FCC
:104A80007ED07F09801DE06401F0E0FAA9091202DE
:104A9000CCE5096208E509C333F509EE2409FEEF08
:104AA0003400FFE5086014E509550860E8740865FE
:104AB0000A8E828F8360CFE50A80CE9009CDE0F91F
:104AC0007F030210CF74EE12106989088A0B8B0ADB
:104AD0008C108D11E97003024B82EB7003024B8244
:104AE000EC7001ED7003024B82EBC394644003024F
:104AF0004B7E75090153080F7ED07F09806EE50952
:104B00005508605A9009CDE05509FA9009CFE04A5E
:104B1000F0E48E828F83F0A3A3A3E510F0A3E51148
:104B2000F08E828F83A3A3E50AF08E828F83A3E5A4
:104B30000BF0700774048E828F83F01201FA8E825C
:104B40008F83A3A3A3A3A3EAF0A3EBF0A3ECF0A3AA
:104B5000EDF08E828F83E0D2E1F0E5096208E5098D
:104B6000C333F509EE2409FEEF3400FFE508708E2B
:104B70007A027B009009C7E0F912016A80097A0184
:104B800080027A001202BA7F0A0210CF74E8121073
:104B90006974FF120FFF7E007F00751601740F8588
:104BA0001882851983F07514D07515099009F4E001
:104BB0006003024D38851882851983E0551670030D
:104BC000024D0A851482851583E0A2E14003024D5F
:104BD000001201FA8A0C8B0D8C0E8D0F85148285C4
:104BE0001583A3A3A3A3A37808120ED57808790C84
:104BF000120C8A5003024CD8851482851583A3A316
:104C0000E0FA851482851583E0A2E0502E7464C317
:104C10009AF517E0C2E0F07A00A9161202CC8514CA
:104C200082851583E0A2E2401EA3E014F07018858F
:104C30001482851583E06402F0800C8A17D2E0F0BC
:104C40007A01A9161202CC851482851583E0A2E1AF
:104C50005061851708750900750A00750B00A3A33C
:104C6000A3E0F510A3E0F5117512007513007808A4
:104C70007910120CDA900ED37810120ED5780879CC
:104C800010120D5A85081085091175120075130050
:104C9000780C7910120E23851482851583A3A3A3A3
:104CA000A3A3E50CF0A3E50DF0A3E50EF0A3E50F3B
:104CB000F080327508007509009009CFE055166044
:104CC000047A0180027A00A9161202BA74FF6516EE
:104CD000FA9009CFE05A80D8E508C3950CF508E5AD
:104CE00009950DF509EE7001EF6011E5087002E518
:104CF00009600DC3E5089EE5099F5004AE08AF09A1
:104D0000851882851983E06516F0E516C333F5161C
:104D1000E5142409F514E5153400F515E0600302E7
:104D20004BB5EE7001EF6010EEFCEFFD7A027B00F8
:104D30009009C7E0F91201E274011210157F100208
:104D400010CFC082C083E9A2E0500B74016A7004E6
:104D5000C2808002D280E9A2E1500B74016A700423
:104D6000D2918002C291E9A2E2500B74016A7004F0
:104D7000C2808002D280E9A2E3500B74016A700401
:104D8000D2918005C291EA60079009CDE04980097F
:104D900074FF69FB9009CDE05B8004E49009F4F0B6
:104DA000D083D082020107C082C08374019009F4CD
:104DB000F0E580FAE590FBE580FCE590FDEBA2E1F3
:104DC0005004D2F08002C2F0EDA2E15004D2F18092
:104DD00002C2F1A2F1E492E033333354F8C0E0ECC4
:104DE000A2E0E492E0F45401333354FCC0E0A2F0BA
:104DF000E492E0C333C0E0EAA2E0E492E0F45401BC
:104E0000FAD0E04AFAD0E04AFAD0E04A9009CEF06F
:104E10007A00790F1202CC024DA0C082C0837A01C1
:104E20009009CEE0F91202CC1202C6024D9BC0825C
:104E3000C0837A0079011204828A828B83A3A3A3A0
:104E4000A3A3A3A3E493A2E6500474018001E49019
:104E50000A93F07401900A92F07480659E70FA745F
:104E60000390620FF0E0A2E750FB53F4FED29043B0
:104E7000FE01758B00C2E843AC20439A02D083D078
:104E800082020107C082C0837402900A82F0E4901B
:104E90000A83F0900A87F079031204A6900AA1E42D
:104EA000F0A3F080D874F512106990620EE0FEE471
:104EB000F0906211E0F50AA2E4501E7480F07407CD
:104EC000900A87F0900AA1E07002A3E060061250F9
:104ED000D5121054E4900A87F0E50AA2E2500BE4E0
:104EE000906211F0900A87F0807A900A87E0FA7455
:104EF000026A705C906216E0FF900A941211D7EF7C
:104F0000F97A207B621204AC74031210158F08909A
:104F10000A971250CA1250E1E07002A3E0600474D4
:104F20004080027448906211F0900A97E07002A3EA
:104F3000E07015900AA1E07002A3E060061250D55F
:104F4000121054E4900A87F0EE90620EF002518342
:104F500074066A70061250D5121054900A87E060E9
:104F600003025064E50AA2E050DE75089975090A4B
:104F7000750A0078081211C079087A207B62120441
:104F8000AC7403121015900AA1E4F0A3F0900A99F2
:104F9000E054E012123E000600AC4F203E5040208C
:104FA0005080ED4FA04E50C02F501850900A9AE0FC
:104FB00012123E000501DE4F03D94F05C64F09E32B
:104FC0004F0BE84F1850120524900A87E0640460E4
:104FD0000302505E746002506012051E80EB1205E1
:104FE0001880E612053C80E112054880DC900A9AA0
:104FF000E012123E0004000450060950080E500A48
:105000001350185012050C80C012052A80BB1205DF
:105010003680B612054280B17404900A87F080B4DD
:10502000900AA174D6F0A37404F01204D6809A906A
:105030000AA174DCF0A37404F01204DC808B900AE3
:10504000A174CAF0A37404F01204CA024FC9900AF2
:10505000A174D0F0A37404F01204D0024FC97440BC
:10506000906211F0900A87E0FA74016A704B750A39
:1050700002900A97E0F8A3E0F9C3E89420E99400CD
:105080005007E8FF750A0A80027F20900A941211E7
:10509000D7EFF97A207B621204B274031210158FD5
:1050A000081250E11250CAE50A906211F0EFC39461
:1050B000204003024F48024F3374056A6003024FD9
:1050C000481250D5121054024F48C3E09508F0A37F
:1050D000E09400F022900AA1E0F8A3E0F583888232
:1050E00022900A94E0F9A3E0FAA3E0FBE92508F98D
:1050F000EA3400FA900A94E9F0A3EAF0A3EBF09006
:105100000A972274F61210697A008A08E508248842
:10511000F582E4340AF583E9F00AEAC3940540EA2B
:105120007A008A08E508248DF582E4340AF583E9DB
:10513000F00AEAC3940540EA7F020210CF74F51228
:105140001069EAFCEBFDE9FE740B12104A12519350
:10515000600D8C828D83E0120CC412518870F38034
:105160002274F5121069EAFCEBFDE9FE740B1210D3
:105170004A125193600D120CAA8C828D83F0125149
:105180008870F37F030210CFE9240109EA3400FAA2
:105190001EEE22E0F508A3E0F509A3E0A908AA099C
:1051A000FBEE2274F4121069900EC77808120ED527
:1051B0009009997808120EE402531A74F2121069D9
:1051C0008908EAFEEBFF8C0A8D0B1201D6EA70010A
:1051D000EB600F8A828B83A3A3E50AF0A3E50BF0B3
:1051E00080727A097B001201A6EA7001EB60618A85
:1051F000828B83A3A3A3A3A3A3E508125259EEF0C5
:10520000A3EFF08A828B83A3A3E50AF0A3E50BF05A
:105210008A828B83E4F0A3125259A3A3A3F0A3F0D4
:10522000900997E07002A3E09009977006EAF0A356
:10523000EB80ACE0FCA3E08003E8FCE9FD8C828D10
:10524000831254A7E87001E970EF8C828D8380DDB2
:105250007A007B007F060210CFF08A828B83A3A3A3
:10526000A3A32274F712106990099780048C828D91
:1052700083E0FCA3E0FDEC7001ED601F8C828D8368
:10528000A3A3A3A3E06A7003A3E06B70E08C828DFC
:1052900083A3A3A3A3A3A3E06970D2ECFAEDFB7FE1
:1052A000010210CFC082C083EA7001EB600C8A82D9
:1052B0008B83A3A3A3A3E4F0A3F0D083D082020145
:1052C0000774F6121069E5A8FFC2AF1201D0EFA271
:1052D000E792AFEA7001EB60047900800279087F01
:1052E000020210CF74F4121069A2AFE492E0F50943
:1052F000C2AF1201D68A0A8B0BAE0AAF0BEE700159
:10530000EF60031201DCE509A2E092AFEE7001EF5D
:10531000600479008002790680007F040210CF7457
:10532000EB1210698A0E8B0FE5A8FAC2AF850E0842
:105330008B09750A00750B009009997808120E49BF
:10534000EAA2E792AF900997E07002A3E07003022F
:1053500054A2900997E0F508A3E0F5097E007F00CC
:10536000A2AFE492E0F514C2AFE5082404F512E51B
:10537000093400F513E5082402F50CE5093400F5BD
:105380000D850C82F5831254A7C3E50E98E50F999D
:10539000850C82850D834006E4F0A3F08017C3E0FE
:1053A000950EF0A3E0950FF0850C82850D83E070DB
:1053B00002A3E0704EE5082407F510E5093400F576
:1053C00011851082F583E07002A3E060508512829F
:1053D000851383E0FAA3E0FBEA7001EB603F8508E8
:1053E00082850983A3A3A3A3A3A3E0F912016A857D
:1053F00010828511831254A7850C82850D83E8F0F5
:10540000A3E9F0850C82850D83E07002A3E0600DB6
:10541000851282851383E07002A3E0702B850882D9
:105420008509831254A7E50A7002E50B70059009FF
:10543000978006850A82850B83E8F0A3E9F0AE0821
:10544000AF098E828F83800C85080A85090B850839
:1054500082850983E0F508A3E0F509E514A2E0924E
:10546000AFEE7001EF60308E828F83A3A3E07002F5
:10547000A3E0701C8E828F83A3A3A3A3E0FAA3E012
:10548000FB8E828F83A3A3A3A3A3A3E0F912016AD7
:10549000EEFAEFFB1201ACE5087002E509600302C9
:1054A000535C7F0D0210CFE0F8A3E0F922C082C068
:1054B00083900997E07002A3E0602F90099712543F
:1054C000A77AFF7BFF88828983A3A3E0FCA3E0FD8A
:1054D000C3EC9AED9B5004ECFAEDFB8882898312B1
:1054E00054A7E87001E9600680DB7A007B00025275
:1054F000BA74F41210699009997808120ED5AA08A6
:10550000AB09AC0AAD0B02531AC082C083900A8764
:10551000E07042900A9CE0F9E47003740269702F15
:10552000900A9DE07002A3E07025900A9FE064015C
:105530007002A3E070197402900A87F0900A9474C4
:1055400016F0A3740F1255D37401F0A3E480057410
:1055500004900A87F0025696C082C083900A87E0C2
:10556000706E900A9CE0F9E47003740169705B90BE
:105570000A9D125634E87001E97025900A9FE06494
:10558000087002A3E070437401900A87F0900A94B7
:105590007417F0A3740F1255D37408F0A3E4802F8E
:1055A0007401687001E97022900A9FE0640470023F
:1055B000A3E070167401900A87F0900A94741FF0AB
:1055C000A3740F1255D3740480D17404900A87F029
:1055D000025696F0A3E4F0900A9722C082C083900E
:1055E0000A87E0704A12563174FE58FA74FF59FB6C
:1055F000EA7001EB701B900A9FE07002A3E070114B
:10560000900A9DE0FAA3E0FBC3EA9402EB94004009
:10561000077404900A878016EA12120800012F56B8
:1056200024562A56E8900F238004E8900F24F08037
:1056300065900A9BE0F8A3E0F922C082C083900A3B
:1056400087E07052900A9BE07002A3E07011900A0C
:105650009FE064017002A3E070051256DE400474FE
:1056600004802FE8121208000187566F567A569070
:105670000A947423F0A3740F8009900A947424F0A0
:10568000A3740FF0A3E4F0900A977401F0A3E4F080
:105690007401900A87F0D083D082020107C082C0D3
:1056A00083900A87E07035900A9FE07002A3E07053
:1056B000051256DE40077404900A87801EE8121215
:1056C000080001DC56C956D156125631900F25807C
:1056D00006125631900F27E8F0A3E9F080B8900A3F
:1056E0009DE0F8A3E0F9C3E89402E9940022C082A7
:1056F000C083900A87E07048900A9FE064017002BE
:10570000A3E070051256DE40047404802FE81212E4
:10571000080001315719572457900A947426F0A3B2
:10572000740F8009900A947428F0A3740FF0A3E416
:10573000F0900A977401F0A3E4F07401900A87F0E6
:1057400002569674EB1210698A088B091202D21263
:1057500002A8E5087002E50970051206FE804212F3
:1057600006FE8A0C8B0D8C0E8D0F750A00750B00D2
:10577000900ED37810120ED578087910120CDA90AA
:105780000ED77808120E3674057808120DEB900EBD
:10579000C7780C120C6060117808790C120C8A50D2
:1057A000088A088B098C0A8D0B7902120686E9702B
:1057B0001AE5A8F514E5B8FFE59AFE75A88053B878
:1057C00020E5B8539A12E59A43BE01AA08AB09AC8A
:1057D0000AAD0B1202EA1202DEC2AD1202AE1202D2
:1057E000D8740355BE601253BEFCE5BE12068C850C
:1057F00014A88FB88E9A1208547F0D0210CF74F03F
:1058000012106974F8120FFF8A088B098C0A8D0B2D
:10581000900EC77808120C607003025921900EDBBD
:10582000780C120ED57808790C120CDA7406780808
:10583000120DEB900EDF780C120ED5780C79081251
:105840000C8A5006751A00025921E5958518828543
:105850001983F0E596C0E0740112104AD0E0F0E53B
:1058600097C0E0740212104AD0E0F0740312104A9C
:10587000E4F085188285198385080C85090D850A51
:105880000E850B0F780C120E36900EE3780C120E6C
:1058900036740412104A780C120EE4740612104A80
:1058A000E0F597740512104AE0F596740412104A58
:1058B000E0F595E5ADA2E050FAC2AFE59585188216
:1058C000851983F0E596C0E0740112104AD0E0F02B
:1058D000E597C0E0740212104AD0E0F07403121091
:1058E0004AE4F0740412104A780C120ED58518821E
:1058F000851983780C120E70900EE7780C120E3614
:10590000740412104A780C120EE4E4F074041210BD
:105910004A7808120C9A5004D2AD8003751A00D24E
:10592000AF74081210157F080210CFEBC313FBEA07
:1059300013FAEAF8EBF974FF28FA74FF39FB7400E4
:10594000687003740069601A000000000000000025
:105950000000000000000000000000000000000047
:1059600080D0020107020107C082C083900EC5E00B
:1059700024FEF8A3E03407F988828983E4F0A3F0D9
:10598000900EC5E0F8A3E0F583888274E8F0A3E404
:10599000F0900EC5E024E8F8A3E03400F98882898D
:1059A000837416F0A37407F090018CE8F0A3E9F07B
:1059B0007A007B001201A690018EEAF0A3EBF09032
:1059C0000EC51259E2D083D082020107C082C08383
:1059D000E5A8FAC2AF90018E1259E2EAA2E792AFAF
:1059E00080E3E0F8A3E0F990018CE8F0A3E9F0226D
:1059F00074F31210697C007D008C0BEA24020A0A01
:105A0000EB3400FBA2AFE492E0F50AC2AFC3EA9424
:105A100011EB9400500590018C800390018EE0F80A
:105A2000A3E0F988828983E0FEA3E0FF74805FF53C
:105A300009E47002E509600974806FFF750B00804E
:105A400074E50B606288828983E0F508A3E0F509BC
:105A50008C828D83E02508F0A3E03509F08C828DDF
:105A600083C3E09AA3E09B404CECF8EDF98882896F
:105A700083E0FEA3E0FFE87001E9606BC3EE9AFEED
:105A8000EF9BFFC3EE9404EF94004047E82AF582B1
:105A9000E93BF583EEF0A3EFF074804BFB8882893D
:105AA00083EAF0A3EB8036C3EE9AEF9B50C8750BE8
:105AB00001E8FCE9FDE82EF8E93FF988828983E0F6
:105AC000FEA3E0FFEE7001EF6003025A2C7800792C
:105AD00000801488828983E0F0A3E04480F0E82409
:105AE000020808E93400F9E50AA2E092AFE8FAE911
:105AF000FB7F050210CF74F7121069EAFEEBFFA2DC
:105B0000AFE492E0F508C2AFEEF8EFF9C3E8949085
:105B1000E994014009C3E89490E994094003120212
:105B200036EE24FE1E1EEF34FFFF8E828F83A3E02D
:105B30005480F9E47001E970031202368E828F837B
:105B4000E0F0A3E0547FF090018CE0F8A3E0F9C30B
:105B5000EE98EF99500CEEF8EFF990018CE8F0A375
:105B6000E9F0E508A2E092AF7F010210CFC082C049
:105B70008312023CD083D08202010774F4121069B0
:105B800074F6120FFFC2AF53BEFBE59DA2E650FABA
:105B90000078F8790100E824FF18E934FFF9E8708B
:105BA00001E970F175C6807480659E70FA43BE0489
:105BB0007408906270F0D28043FD01C29143FE02EE
:105BC000D280C291D280C2918019D2800B74086BAE
:105BD0006003025CB07B000CECC394065003025CD3
:105BE000B0D2807A0080060A740A6A606E900EC78E
:105BF0007808120ED5740612104A7808120EE48046
:105C000012900ECB7808120ED5740612104A78083E
:105C1000120E49740612104AC082C083900ECF78CB
:105C200008120ED5D083D0827808120C9A40D2A2E6
:105C3000805004C2808002D280A2915004C2918020
:105C400002D29190099EE0600CE4F0740A121015E3
:105C50007F040210CFA292508E8088D280C291D24F
:105C600080C29178007900A29240047800790012F5
:105C70005D1040F39061A3E0C0E0740412104AD0BC
:105C8000E0F09061A4E0C0E0740512104AD0E0F0AA
:105C9000900B90E0C0E0740212104AD0E0F0900B3C
:105CA0007BE0C0E0740312104AD0E0F07B007C007F
:105CB000A29240FCC280D291C280EB7004D291804B
:105CC00002C29178007900A2924004780079001213
:105CD0005D1040F3D280C291D280C29175080175E7
:105CE00009007407C39B7808120FECC0088C088564
:105CF0001882851983E5822508F582E5833400F54D
:105D000083D0E0FAE05A7003025BCAC280025BCC27
:105D1000E8240108E93400F9C3E894F4E99401A205
:105D2000D265D0332274F7121069E9FE8A08EBFFBE
:105D3000125E4424FDF582E5F03409F583125D56C8
:105D4000E5827002E5836009EFFBAA08EEF9121004
:105D5000547F010210CFE0F8A3E0F9888289832202
:105D6000C082C083E91212080003805D745D805D0B
:105D7000785D7C5D7901800A790280067900800275
:105D800079038057C082C0837903125E2F7033E598
:105D9000E4A2E5500C53E4DF7B027A02790312029D
:105DA000FCE5E4A2E6500C53E4BF7B027A047903DD
:105DB0001202FCE5E4A2E7502253E47F7B027A085A
:105DC00080147903125E297012E5E4A2E4500C53AA
:105DD000E4EF7B047A0179031202FCD083D08202C3
:105DE0000107C082C0837900125E2F7021A2D950B2
:105DF0000EE5D875D8407B027A0279001202FCA227
:105E0000DA5024E5D875D8407B027A0480147900F2
:105E1000125E297012A2D8500EE5D875D8407B04C6
:105E20007A0179001202FC80B2125E3564042212FB
:105E30005E35640222125E4424F9F582E5F03409ED
:105E4000F583E022120302E975F00AA422C082C0A1
:105E5000837902125E2F7021A2DC500EE5D875D82E
:105E6000407B027A0279021202FCA2DD5024E5D8BE
:105E700075D8407B027A0480147902125E29701270
:105E8000A2DB500EE5D875D8407B047A0179021266
:105E900002FC025DDBC082C08374709009A9F074BB
:105EA000B19009AAF09009ABE0541FF0741D90095D
:105EB000ADF074429009AEF074709009AFF074B216
:105EC0009009B0F09009B3E0541FF0741E9009B52A
:105ED000F074129009B6F08040C082C083125F2037
:105EE00000E5D6A2E150F974F855B34406F5B34382
:105EF000B301E5B3A2E350FA801FC082C083125FF2
:105F00002000E5D6A2E150F974F855B34404F5B386
:105F100043B301E5B3A2E350FAD083D08202010774
:105F2000EB9009A7F0EA9009A8F074109009ACF082
:105F30009009ABE054E0F075D1FD75D6022274F6FD
:105F4000121069740A12104AE0FEA3E0FF740C12EA
:105F5000104AE0F8A3E0F9EF9009A7F0EE9009A845
:105F6000F0E89009ACF0E9F89009ABE054E048F0B3
:105F7000EB9009B1F0EA9009B2F0EC9009B4F0EDC1
:105F8000FC9009B3E054E04CF075D1FD75D60200E9
:105F9000E5D6A2E150F975D1FB75D60400E5D6A28D
:105FA000E250F97F020210CFC082C08312020C02BD
:105FB0005F19C082C08353B38FE5B343B34012026D
:105FC00018025F1974F41210698C088D09750A1093
:105FD000750B00780A1211C478081211C47C107D68
:105FE00000AA08AB0912021E740412101553B3F86C
:105FF000E5B343B301E5D1A2E250FA7F040210CF2A
:10600000D083D08202010774F7121069E9FCEAFD1F
:106010007A007B00800818900A81E0126062900A82
:1060200080E0F8A3E0F9900F0CE0687003A3E0694A
:10603000602B900A80E0240108A3E03400F98882F4
:106040008983E4936C700E900A80E0FAA3E0FB1859
:106050001260628008E4936D70BCED60B97F01024C
:1060600010CFF5838882E493F8900A80E028F8A3A3
:10607000E03400F9900A80E8F0A3E9F022C082C081
:10608000831260C37A00790112047602600074F60C
:10609000121069E9FEEAFF1260C3800E8A828B83C8
:1060A000A3A3A3A3A3E4936E60147A00790212045D
:1060B00076EA7001EB6007EE70E2EF1F70EC7F0292
:1060C0000210CF900F0AE0F8A3E0F9900A80E8F000
:1060D000A3E9F02274F4121069EAFF8B087A001227
:1060E00004827A027904120476EA7001EB60188A5D
:1060F000828B83A3A3E4936F70E88A828B83A3A32C
:10610000A3E493650870DB7F040210CF74F61210CD
:1061100069E9FE1260C37A007903120476EE1E70FC
:10612000F5809BC082C0837AFF7BFF1205061204B4
:1061300094D083D082020107C082C0831261BE5412
:1061400002601D900AABE054FDF0A3E0F0900AB4A9
:10615000E07002A3E06009900AB41261B512105415
:106160001261BE54046010900AABE0A3E0900AAB49
:10617000E4F0A3F012049A1261BEA2E0501D900A4E
:10618000ABE054FEF0A3E0F0900AB2E07002A3E0AE
:106190006009900AB21261B51210541261BE541017
:1061A000600D900AABE054EFF0A3E0F01204A012EF
:1061B0000362026131E0F8A3E0F583888222900A4D
:1061C000ABE0F8A3E0E82274F61210698A828B83B0
:1061D000A3E0900AA3F08A828B83A3A3E0900AA491
:1061E000F07C008C82A882EA28F582EB3400F583EB
:1061F000A3A3A3E0C0E0E812623AD0E0F00CECC345
:10620000940640DF7AA37B0A1205001204FAE960C3
:1062100024E4900AA3F0900AA4F0FC8C08E508128C
:10622000623AE4F00CECC3940640F07AA37B0A12C5
:1062300005001204FA7F020210CF24A5F582E4348F
:106240000AF5832202010774F41210698908740C9C
:1062500012104AE0FEA3E0FF74075508F50A750B1B
:1062600000740C780A120FEC2AF874803BF9E428C9
:10627000E50B39F9E5C7F509E508131313541FC0F9
:10628000E074F855C7FAD0E04AF5C7801C888289C7
:1062900083E08C828D83F088828983A3A882A9837E
:1062A0008C828D83A3AC82AD83EEFAEFFB74FF2A60
:1062B0001E74FF3BFFEA7001EB70D28509C77F04B3
:1062C0000210CF74F6121069740A12104AE0F50831
:1062D000A3E0F509ED90099FF0EC9009A0F074623D
:1062E0009009A1F074739009A2F09009A3E0541FE3
:1062F000F0E508333354FC9009A4F07406780812D2
:106300000FDDE5089009A3F074129009A5F074421E
:106310009009A6F075D1FE75D601EA906271F0EB96
:10632000906272F0906270E0D2E1F0E0A2E740FB90
:106330007F020210CFC082C083E9333354FC9062E5
:1063400072F07A02906270E0D2E0F0E0A2E740FBE7
:10635000906272E02402F01AEA70E9D083D08202DF
:10636000010774F41210697E007F0012085A8A082F
:106370008B09AC08AD09900182E06C7003A3E06D5D
:106380007003026451900182E0F8A3E0F9ECC39835
:10639000F508ED99F509900182ECF0A3ED801FE579
:1063A000082404F508E50934E0F509EE243CFEEF85
:1063B000340AFF900184E02404F0A3E03400F0C329
:1063C000E50894FDE509941F50D574037808120F71
:1063D000EC900184E02508FCA3E03509FDECF8ED24
:1063E000F97A197B00120F8488088909EE2508FEC6
:1063F000EF3509FFECF8EDF97A197B00120F849064
:106400000184EAF0A3EBF0EE7001EF6044900186A6
:10641000E02EF0A3E03FF0900186C3E094E9A3E012
:1064200094034026126456120F8488088909750A5D
:1064300000750B009001887808120E4912645612FC
:106440000F84900186EAF0A3EBF0EEFAEFFB120165
:10645000EE7F040210CF900186E0F8A3E0F97AE81D
:106460007B032274F41210699001887808120ED50B
:10647000AA08AB09AC0AAD0B80D774F712106912E9
:1064800064CE6004790080358A828B83A3A3A3A3A2
:10649000A3A3A3A3E060ED64028A828B83700E1233
:1064A00064C27003A3E06970DB79018010A3A3A329
:1064B000A3A3A3A3A3E0640370CA120A5E7F010230
:1064C00010CFE0F8A3E0F98C828D83E068228A8205
:1064D0008B83A3A3A3A3A3A3A3A3E0FE8C828D839A
:1064E000A3A3A3A3A3A3A3A3E06E2274F71210692E
:1064F0008C828D83A3A3A3A3A3A3A3A3E0FE8A827C
:106500008B83A3A3A3A3A3A3A3A3F074036E70051B
:10651000120A6480128C828D83E0F8A3E0F98A82EB
:106520008B83E8F0A3E9F00264BD74F6121069757C
:106530000808EAFEEBFF8E828F83A3AA82AB83EC6E
:10654000F8EDF988828983A3AC82AD838E828F8334
:10655000E0FE88828983E06E600479008008150877
:10656000E50870CE79017F020210CF74F512106930
:106570008C088D09750A0078081211C07C087D000E
:1065800012012874031210157F030210CFE5A8C270
:10659000AFA2E7E492E0F902010774F51210697EF8
:1065A000001204F4E9FF740190620EF0906211E0B1
:1065B000A2E0402375081775090F8E0A780812119A
:1065C000C079087A227B621204B27403121015900B
:1065D0006211E0D2E0F00EEFA2E092AFEEF97F039D
:1065E0000210CF74F712106912664B900F171266E3
:1065F00037900F19126644900F1A126623E0900F1D
:106600001B126623A3E0900F1C126631E0900F1D51
:10661000126631A3E0900F1EF0EAA2E092AF7F0174
:106620000210CF12662722F08E828F83A3A3A3A32A
:1066300022126627A3A32212663DA3E022F08E82D7
:106640008F83A32212663DA3A3E022EAFEEBFF1292
:1066500004F4E9FA8E828F83E02202010774F712B4
:106660001069EAFEEBFFE99009C8F06012758A0034
:10667000C2EB438C01438D0CE58D439A10800C7A5C
:10668000017B009009C7E0F912016A9009C9EEF098
:10669000A3EFF07F010210CFC082C0839009C8E051
:1066A0006013E5A8FAC2AF9009CBE0F9E4F0EAA2E2
:1066B000E792AF800E1202A2E9FA9009CCE06A5A82
:1066C000F9EAF0E9601A9009C9E07002A3E06010ED
:1066D0007A009009C9E0F8A3E0F58388821210548B
:1066E000D083D0820201077900A292400109A293CF
:1066F0004004E9D2E1F9020107020107C082C08328
:106700001202A280DBC082C083E99009C7F0D08367
:10671000D082020107C082C08312020012025A1204
:1067200002781202241202B412029080E174F6126E
:106730001069EAFEEBFF74805FF9E47001E9601B09
:1067400080031201409009C7E0F912014CEA700180
:10675000EB70EFEEFA74806FFB8040EE5402600A3B
:106760001202C674026EFAEF80EEEEA2E0501D1225
:10677000029C9009C8E070107C647D007A017B0067
:106780009009C7E0F91201E2740180D9540460074E
:106790001202F6740480CE7A007B007F020210CFD2
:1067A000C082C0831204BE02670E74F7121069EA39
:1067B000FEEBFFEEF8EFF974FF28FE74FF39FF746B
:1067C0000068700374006960097AE87B031202F0C4
:1067D00080E17F010210CF74F71210697A00900AED
:1067E00092E0700479008058A2AFE492E0FEC2AF5C
:1067F000900AAFE060287480659E70FA740390621E
:106800000FF0E0A2E750FB906201E0D2E2F07A0ADA
:106810007B0012054E906201E0C2E2F07A01EEA226
:10682000E092AFEA6018900AB4E07002A3E0600E54
:10683000900AB4E0F8A3E0F583888212105479013D
:106840007F010210CFC082C083E4900996F09009C6
:1068500090F0A3F0D083D082020107C082C083E908
:1068600090099680EE74F6121069E9FE900EF5E03C
:10687000FBE9C39B4004790380307508017509006A
:10688000EE7808120FECAC08AD09EA7011ECF4F8E0
:10689000EDF4F9900990E058F0A3E05980099009CF
:1068A00090E04CF0A3E04DF079007F020210CF742D
:1068B000F6121069900996E0601A900990E0700253
:1068C000A3E07010E5A8FEC2AF1201F4EEA2E792B9
:1068D000AF1202E480D4C082C083900A9AE0121200
:1068E000080902FA68EB68F568F068120452801033
:1068F00012045E800B12046A80067404900A87F00A
:10690000803AC082C083900A9AE0121208010226DF
:1069100069176921691C6912045880101204648087
:106920000B12047080067404900A87F0800E8002B7
:106930008000C082C0837404900A87F0D083D08224
:1069400002010780EDC082C083E9121208010965C7
:1069500069656965696569656965696569656965C7
:10696000696569656980D574F71210697409121038
:106970004AE0F8A3E0F98A828B838003ECF0A3E875
:10698000FEE9FF74FF2E1874FF3FF9EE7001EF70FF
:10699000EB7F010210CFC082C083748090099DF00C
:1069A000D083D082020107E9FA75B60FE5B4A2E7F9
:1069B00050FAEAC395BB50047901800279000201C4
:1069C00007C082C083900AABE4F0A3F0900AADEA5E
:1069D000F0A3EBF0E4900AAFF0D083D0820201077D
:1069E000C082C0838A828B838001A3E070FCE58231
:1069F000C39AFAE5839BFBD083D082020107C08251
:106A0000C083900A7EE02401F0A3E03400F0D0833C
:106A1000D0820201077409F5D575D49F7409F5D3A6
:106A200075D2A7020107FFFFFFFFFFFFFFFFFFFF78
:106A3000FFFFFFFFFFFFFFFFFFFFFFFFFFFFFFFF66
:106A4000FFFFFFFFFFFFFFFFFFFFFFFFFFFFFFFF56
:106A5000FFFFFFFFFFFFFFFFFFFFFFFFFFFFFFFF46
:106A6000FFFFFFFFFFFFFFFFFFFFFFFFFFFFFFFF36
:10800000F582EB128488A2E2227808120EE4028044
:108010005412892BE912848822E5A48518828519D7
:1080200083F0E5A5C0E0740112104AD0E0F0E5A6A7
:10803000C0E0740212104AD0E0F0740312104A1229
:1080400080597808120ED5AA08AB09AC0AAD0B749A
:10805000041210157F040210CFE4F0EAA2E792AFF9
:1080600085188285198322900ABF12B01012057EEE
:1080700022900B30E0FA900B15E022F0900B15E007
:10808000640F22A3A3E024F5C39412221206F890F1
:108090000B3512C6047A147B0022C082C083900A7A
:1080A000BFE07002A3E0600612B0091201AC900AB2
:1080B000BC128E2C7408900ABEF0900ABFE4F0A3A4
:1080C000F0900B0BF0900AC1029D4979031A1AEF48
:1080D000FB12063E740222EE24020A0AEF3400FB71
:1080E0008A828B831280E822E024FFF8A3E034FF29
:1080F000F92274F0121069EAFEEBFF89087410127D
:10810000104A12958A741212104AE0F50AA3E0F59B
:108110000B1280D7850F0D1281B0E50E1281B6E5E6
:10812000081281A2900B2F12819F900B2E12819F1B
:10813000850B0D1281B0E50AF088098A828B83E0F5
:10814000C395098E828F83A3A3A3A312950712CF91
:10815000218C828D83A3A3A3A3A3A3A3A3E0640381
:108160007008EE240E1281968008EE128FFBEF123B
:1081700090B8128E9E7409F0750AFF750BFF780A8D
:108180001211C41280CB121015E97007EEFAEFFB42
:108190001205CC0282C7F582EF12EB8B740122121A
:1081A00097631281A622F0E824FF18E934FFF92230
:1081B000E50D888289831281A6888289832274F0E2
:1081C000121069EAFEEBFF890B8C0E8D0F750A0009
:1081D000A2AFE492E0F50CC2AF900AC280351282E1
:1081E0009C502D1282A7640370261294E8850882A1
:1081F000850983A3A3E02405FCA3E03400FDEEFA87
:10820000EFFB120A641294F17410250AF50A150B9B
:1082100012844612D18CE50B6008E5087002E5096E
:1082200070BCE50CA2E092AFA2AFE492E0F50CC204
:10823000AF900AC2801B2402F8E509128EC6128B89
:1082400002128425129A00128425050A150B128445
:1082500046128C2B7002E50960251282A764027019
:10826000ED12829CE50840CE129502E50912829635
:1082700050DC7401850E82850F83F0E50B70CFE52D
:108280000CA2E092AF8E828F83E50AF0EE24FFFA13
:10829000EF34FFFB8031128488A2E522128929E5A0
:1082A00009128488A2E622850882850983A3A31285
:1082B0008B1E1282B622A3E01313543F54032212E2
:1082C00006EC74041210157F080210CF74ED121022
:1082D0006974F6120FFF89128A108B0FE4851882D9
:1082E000851983F0900AC8E0C3940840057511070A
:1082F0008003E0F511E51133333354F8900B14FA91
:10830000E02A2433F50A1291237001EB70030284F2
:108310000CEA250AF8EB3400F9EA240212976912F4
:10832000CF21900B14E0FCFAC3E49AFAE49400FB2A
:10833000E82AFEE93BFF900B1212841A780C121106
:10834000C012F3ED121015851882851983AC82AD29
:1083500083A911EE24FFFAEF34FFFB1205668A0CA5
:108360008B0DAE0CAF0DE412842BE50FC454F0C09E
:10837000E0900B0CE0C4333354C0C0E0900B0E12FD
:10838000B98213135480FAD0E04AFAD0E04A440F7D
:1083900012842BE510C454F045128E828F83F0EEC8
:1083A000FA850A82850B83E0C39A85088285098352
:1083B000A3A3A3A312978FEEF0A3EFF0E508240E7A
:1083C00012D36FE508240D12D36F740912104AE41A
:1083D000F0F50AF50B780A1211C4740312104AAEB4
:1083E00082AF83120638EEFCEFFDAA08AB091280BB
:1083F000D1121015851882851983E06009850882DD
:1084000085098312845CAA08AB0980047A007B008A
:10841000740A1210157F0B0210CFE0F50CA3E0F5E3
:108420000D750E0022A3A3A3A3A3E08E828F831257
:10843000843322F0EE24FF1EEF34FFFF227F05027B
:1084400010CF1282B722E50824FBF582E50934FF3C
:10845000F58322128929E50912848822A3A31284B4
:10846000A8D2E4F022A3A3A3E0FA88828983227F22
:10847000060210CF7AC27B0A12015E7402221284B5
:108480008222EE2410F582EF3400F583E022A2E789
:1084900002B2611206EC740422EE240EF582EF1291
:1084A000EB8B22A31284A822128B22E022EE240B53
:1084B000F582EF12848822EE240DF582EF12848873
:1084C000640122E0FEA3E0FFEE2274F4121069744E
:1084D000F7120FFFEAFEEBFF120578E9F508704C82
:1084E000EE240E1284B060447A00790912059CEAE9
:1084F0007001EB6037740812104A12853E1211DBCE
:108500007508FF7509FF78081211C48E828F83A346
:10851000A3A3A3A3A3A3A3E0F9740412104AAC82FB
:10852000AD831205607404121015800D8E828F8346
:10853000A3E5081286DF12058474090280517402D3
:1085400012D64174FFF0A312854B22128EDAA3A338
:108550002274F1121069EAFEEBFF7508008E828F1B
:1085600083A3A3A3A3A3A312808340037508E88E6B
:10857000828F83A3A3A3A3A3A3A3A3A3A3E0C394D2
:108580001040057508E880138E828F83A3A3A3A3F0
:10859000A3A3A3A3A3A3E0640F600B900AE8E05495
:1085A0000870037508E88E828F83A3A3A3A3A3A3F7
:1085B000A3A3A3A3E0C0E0EE240BF582EF1298C5BD
:1085C000D0E0C39A5008E0640F60037508E8900B90
:1085D0002EE064FF7004A3E064FF70037508EC7A7A
:1085E000237B001201A6900ABF12EE71900ABFE031
:1085F0007002A3E060258E828F83A3A3A982AA8341
:10860000890C8A0D750E00780C1211C07C237D0038
:1086100012B00912F3F3121015800375081AA90895
:10862000800239FB7F070210CF74F7121069EAFE4F
:10863000EBFF8E828F83A3A3A3A3A3A3A3A3E090A6
:108640000B15129F42900B30F01284AD900B10125C
:108650008ED2A3A3A3A3A3A3E0900B0CF0F912075F
:1086600034900B0CE0600CEE2404128E93EE240682
:108670001286897401900B0B12807B600474018058
:1086800001E4900AC1F00297EEFAEF3400FB79E1C1
:1086900012067A2274F7121069EAFEEBFF8E828FBF
:1086A00083A3E07003128067742C1298AC0297EEDB
:1086B00074F7121069EAFEEBFF900ABFE07002A3A4
:1086C000E0600D12B009900ABFE4F0A3F01201AC13
:1086D00074088E828F831286DF1209860297EEF06D
:1086E000EEFAEFFB2274F6121069900B0BE06012A9
:1086F000900AC1E0700C128705EA7001EB6003126A
:1087000005CC02B508900B10E0FB128071F9120540
:108710006C22128488640222C082C0837908029A83
:108720003574F4121069E9FE24EAF582E43416F592
:1087300083E493F508FA7B0012013AEA7001EB60DA
:108740001212877E12CF1FE48A828B83A3A3A3A376
:10875000F080287A027B0012013AEA7001EB601780
:10876000EE2400F582E43417F583E4938A828B8348
:10877000F0741AA31289C87A007B00028054EA259B
:1087800008F8EB3400F98A828B8322E9FDEAFC7455
:10879000062DFAECA2E0501EEA75F00A84ABF0EB6D
:1087A0006014740A2AC39BFAEBC394054004740A4C
:1087B0002AFA740B2AFAEDC3941340047814800249
:1087C0007806E82AF8740928F8E43400F97A0A7B74
:1087D00000120F7CE8F9020107C082C08374FE1208
:1087E0000FFF8518828519831288F312120800037F
:1087F000D288FA875488D2887988900B15E0640F64
:10880000601812060EE9701285188285198312B05D
:108810000C900F4D129A04121054900B3DE0C0E0E2
:1088200085188285198312AE91D0E012D64D12EDD3
:1088300036741412D64DFCA3E0FD7AC47B0A1201F3
:1088400052E5A8FAC2AF900ACA1288EA7920120645
:108850000202F553900AEAE0851882851983A37015
:108860001112ED38740D12D64DFAA3E0FB120986F1
:1088700080DF12ED38741580BA128C356054128C7A
:10888000351412DBF11284A3C0E0851882851983A8
:1088900012B7FFD0E012D64D2402F812B47F2401A3
:1088A00012F562888289831288F314C394095022D6
:1088B00085188285198312C186A3A3E0240AC0E02B
:1088C00085188285198312ED37D0E01288F70402EB
:1088D0008833851882851983AA82AB8312063202F7
:1088E0008851E5A8FAC2AF900AC9E004F0EAA2E70D
:1088F00092AF22EAF0A3EB12DBF5A3A3A3A3E0223D
:10890000C082C08312060EE96004792080027901DA
:10891000029D4AC082C083128920E0D2E0029D49B4
:10892000EA12892BEB12EB8B22E5082410F5822248
:10893000C082C0831294FA1284BD70111289BC40A7
:108940000C8A828B83A3E0F9120608806CEA1295E8
:1089500002EB1284B3A2E650128A828B83A3E0F961
:10896000900F4F129A04121054804E1294FA1284EF
:10897000BD70091289BC5004743080368A828B83A2
:10898000A3E0641B7004742280288A828B83A3E096
:10899000700F1294FA1284B324F5F582E434168031
:1089A0000D1294FA1284B32400F582E43417F5838F
:1089B000E4938A828B831289C8029D4AEA240FF5C8
:1089C00082EB128488A2E322F0900AE3E0F912011C
:1089D000462274F7121069E9FE900ACBE07002A3F8
:1089E000E0603EEE7006128AFFE48014741B6E7025
:1089F00033900ACB129783E0640570EA128AFFEE87
:108A000012B483FB1205BA900ACBE0240E128C2517
:108A10005003129A08900ACBE4F0A3F079101206E2
:108A2000020297EE74E96E6003028AC512D81E70C6
:108A300038120A46E96032128B2F402D900B37E036
:108A4000C0E0900ACBE0241112B0D7D0E0F0900B38
:108A500026E0C0E0128B14A3A3D0E0F0900B26E038
:108A600004F079011207DC80B812D81E900ACB609E
:108A70004CE0240E181818128B36900ACBE04014E4
:108A8000241112B47C14F07401900B97F0900B91A8
:108A9000E0F980D0240F12B47EC2E7128C41240D7D
:108AA000F812B47F6403700C900ACBE0241012B467
:108AB0007CD2E2F0128B07121054028A07128B024A
:108AC00074E9028A0074E16E7014120A46E97003B8
:108AD0000289FC128B2F50030289FC028A3C741C11
:108AE0006E60030289FC900ACB12B00C900F5512F5
:108AF0009A04121054900ACBE4F0A3F0028A219059
:108B00000ACB128B1EA322900ACB12B010900F4BEF
:108B1000128B1E22900ACB12B01C128B1E22128BBB
:108B20002222128B2622E0F8A3E0F583888222908D
:108B30000ACBE0240EF812D829A2E22274F4121013
:108B400069750A00750B00A2AFE492E0FEC2AF9017
:108B50000ACBE07002A3E06008EEA2E092AF028CC4
:108B60000F900F53129A04121054E94410FA900A0D
:108B7000C2800985080A85090B128446128C2B7065
:108B800002E50960D41284535A6A70E7780A121118
:108B9000C4AC08AD09128474121015900ACBE50814
:108BA000F0A3E509128C41128C234066900AC9E0BB
:108BB00014F0EEA2E092AF900ACBE0240E18181247
:108BC000B003E8FEE9FF8E828F83E0FA900ACBE0E3
:108BD000F8128C3BF91205A2E9900AC6F0A3E41240
:108BE000A46BE0A2E75018900ACBE02412128C1775
:108BF000120746900ACBE02413128C1712073A9002
:108C00000ACB128C1CA2E1B3E492E0F91207DC0259
:108C10008054900AC8809812D828F922E0240F12B4
:108C2000D82822241012D828A2E722E0F508A3E0D1
:108C3000F509E5082285188285198312C18AA3E007
:108C400022F0900ACBE02274F7121069EAFEEBFFE3
:108C500012062C129501EF1289C240091284B770D6
:108C600004790280027905EEFCEFFD7AC27B0A12DC
:108C70000164E9602EEEFAEFFB900F51129A041294
:108C80001054EE128FFBEF12800340081288E2129C
:108C900005C68014EEFAEFFB900F49129A041210E9
:108CA00054800574F1128CAB0297EE8E828F83A3F1
:108CB0001286DF1205BA22C082C0831205C6029D49
:108CC0004A74F7121069EAFEEBFF7900900AE8E0B7
:108CD0005402700DEE242FF582EF128003500279BA
:108CE000E8900AE8E05460700CEE242F1284B0A2E1
:108CF000E1500279E88E828F83A3A3A3A3E0C394FB
:108D000075400279E8EE242D1284B07010EE242A0A
:108D10001284B0700879F51206080297EEE970F730
:108D2000EE240D128196F0EE242F1284B0C0E012D2
:108D30008499D0E0F0EE24301284B0C0E0EE24122A
:108D400012849CD0E0129797C0E0EE241312849C0A
:108D5000D0E0F0EE242B12849C1211DBEE2422FCD6
:108D6000EF3400FDEE242D1284B0F91280D11210E0
:108D700015E970A6EEFAEFFB1205CC809DC082C00B
:108D800083740D8A828B83F0120986029D4AC08209
:108D9000C083E48A828B83F0A3F0EA242F12800040
:108DA0004011900AC9E0C39402401179F1120608FB
:108DB000029D4A900AC8E0C3940250EF12912F809E
:108DC000EF74F3121069890CEA24E2F582E4341698
:108DD000F583E493244AFE890A250AFAE43400FB69
:108DE00012013AEA7001EB60158A828B83A3A3A378
:108DF000A3E50CF08E0812877E12CF1F80047A0044
:108E00007B0002843DC082C083E4900AE1F0900AB6
:108E1000E2F0900AD5128E2C7402900AD7F0900AD4
:108E2000DE128E2C7401900AE0029D497402F0A3B8
:108E30007406F02274F012106912A0A0120ED578F8
:108E400008790C120CDA78081211BC7AD87B0A0265
:108E500082BF74F412106974CE120FFF900B15E0EC
:108E6000640F6007742E12927080237ACF7B0A12EF
:108E7000808C120F8488088909750A00750B0078A8
:108E8000081211BC7ACF7B0A128493121015743227
:108E9000028051FAEF3400FB795012067A22F0EE8C
:108EA000240D12EB88221210150297EE7402028E26
:108EB000A6AA82AB83120134851882851983AA82FF
:108EC000AB83120986223400F9E8FAE9FB8A828B27
:108ED0008322128ED622128EDA22F08E828F83A304
:108EE000A3A3A32274F7121069E9FA7B00900AE3A6
:108EF000E0F912016A0297EE74F412106974F0122C
:108F00000FFFE9FE8A828B83E02447F582E4341860
:108F1000F583E493C0E0740112104AD0E0F0640BD2
:108F2000700DEE8A828B83A3F0120662028FF5E049
:108F30007003028FF5640C6003028FE27404121058
:108F40004A12EE71EA242EF582EB1284B3C0E0746B
:108F50000312104AD0E0129507A3A3A3A3A3780895
:108F6000120ED5740612104A7808120EE48A828B0B
:108F70008312D151740A12104A12CF21128FFAEBC8
:108F80001284B3A2E45003E4800D12D3681284B3B8
:108F9000FC900B37E0C39C851882851983F0E0C0F4
:108FA000E0740C12104AD0E0F0EA2414F582EB12BF
:108FB00084B3C0E0740D12104AD0E0F0EA2415F535
:108FC00082EB1284B3C0E0740E12104AD0E0F0EAD3
:108FD0002416F582EB1284B3C0E0740F12104AD04D
:108FE000E0F0740212104AEEF0740112104AAA82E4
:108FF000AB831209867410028051EA240EF5822296
:10900000C082C083900AEAE06403700479018002A0
:109010007900029D4A74F6121069900AEA1290BD16
:109020002457F582E9340FF58312D39EE0C2E7F0AE
:10903000C333FCE82CF582E912849FA3E493FEC3BA
:1090400033FCE433FDEC2457F582ED340FF583E077
:109050007002A3E06005EE900AEAF08A828B83E05A
:10906000C333FCE433FDE82CF582E93DF583E4935A
:10907000F508C4540FC33324F9F582E4340AF583A8
:10908000129C917001E970118A828B83E0C3940B6A
:10909000502079181206088019740F5508C333FC44
:1090A000E82C1290B593C0E0740193F583D082123E
:1090B000105402B508F582E912EB8BE422E0C333C9
:1090C000F8E433F9E82274F012106974FE120FFF0D
:1090D000890FEAFEEBFF1291381291237001EB60C9
:1090E000328A828B83E50FF0E4A3F08E0C8F0DF5AE
:1090F0000E780C1211C0850F0AE50A129145EA2478
:10910000020A0AEB12D37C121015AA08AB091291BD
:109110002F800B851882851983E50F1291547402F4
:109120000282C4FA7B0012013A8A088B09EA229073
:109130000AE3E0F912014622E92431F582E4341809
:10914000F583E49322243CF582E43418F583E49318
:10915000FC7D0022F0791AAA82AB8312060822C095
:1091600082C083E9900AE3029D4974F61210697483
:10917000FE120FFFEAFEEBFFEE54207031803CE55B
:10918000A8FCC2AF900ACAE01412A94A8A828B8353
:10919000129254900AE612EE711206148518828516
:1091A0001983E0641560077AE67B0A1206327AC4F6
:1091B0007B0A120158EA7001EB70C474805FF9E415
:1091C0007001E97005801112925D900AE3E0F912D6
:1091D000014CEA7001EB70EFEE54106005742D1233
:1091E0009270EEA2E050057424129270EE54026068
:1091F000057425129270EE54046005742612927064
:10920000EE540860057428129270EE5440600C749D
:109210000112104AE4F0742C129270EE5480600C2B
:10922000740112104AE4F0742F129270900AE4E074
:109230007002A3E06017E5A8FCC2AF900AE412B088
:109240000C900AE4E4F0A312A94A12925D7A007B22
:109250000002B503E0851882851983F022900AE6A2
:10926000EAF0A3EBF01206147AE67B0A1206322229
:10927000851882851983F0AA82AB8312061422C056
:1092800082C083900AE612A3EB687002EB69700754
:10929000900AE6E4F0A3F0029D4A74F7121069A266
:1092A000AFE492E0F508C2AF8A828B83E07002A33C
:1092B000E060338A828B8312CB76EC24FBF8ED34AA
:1092C000FFF9900AE612A809EC6E7002ED6F7007C4
:1092D000900AE6E4F0A3F08A828B83E4F0A3F0E83E
:1092E000FAE9FB1201AC02B25DC082C083900B2E82
:1092F000C3E094FEA3E094FF400479038002790266
:10930000029D4A74EA1210698A088B098C108D112B
:10931000741612104A12958A750A008C828D83A3E6
:10932000A3A3A3A3A3A3A3E0F512E9A2E7500875A2
:109330000CFF750DFF800A900B2AE0F50CA3E0F5F9
:109340000DE9C2E7F513128FFAEB128296EA500B81
:10935000129502EB12849F74088007129502EB129B
:1093600090B812950DA2E2EA50071289217480800C
:1093700005128921741012950DA2E4500812D368C9
:109380001290B8800E900B37E0C0E012D3681284C0
:109390009FD0E012950DA2E05003750A208A828BBF
:1093A00083A3A3E024FFFEA3E034FFFF1294FA128C
:1093B00084B3C39402E040061412842B7403450A5C
:1093C000F50A851314751500740E7814120FECE568
:1093D00015F50B740265137011900B2F12842A90EF
:1093E0000B2E12E45A1294F1801A74036513701054
:1093F0001294E87C3E7D0BEEFAEFFB120A6480E5E6
:10940000E5136026E5126014E50E650C7004E50FA7
:10941000650D70087440450AF50A800E8E828F83B0
:10942000E50D129516E50C12842F85120C750D00B2
:10943000740A780C120FECE50D450BF50B74026500
:1094400012701785108285118312842985108285F8
:10945000118312E45A1294F1801A74036512701089
:109460001294E8AC10AD11EEFAEFFB120A6480E53D
:10947000E512600E8E828F83E50F129516E50E12AF
:10948000842FEEF8EFF9E824FF1EE934FFFFE5082A
:10949000240DF582E5091284B37005900B1A800340
:1094A000900B26E0FA04F0EA8882898312A46BE527
:1094B0000B129516E50AF0E5082404F8E5093400D6
:1094C000F9E5082402FAE5093400FBEEFC8A828BF8
:1094D00083129763FDE02DC39C129507EEF0A3EF76
:1094E000F079007F0E0210CFEE24F9FEEF34FFFF7B
:1094F00022EE24FF1EEF34FFFF22EA240DF582EB5B
:1095000022EE240FF58222F08A828B8322F0128FC2
:10951000FAEB128488221284338E828F832274EEB7
:10952000121069890A8A0C8C088D098B0B7412122F
:10953000104A12958AAA0B12059C8A108B11A8104A
:10954000A911E8FEE9FFE87001E96039128499E5A4
:109550000B128E9EE50AF0780E1211C4AC08AD090C
:10956000A90C1280D1121015E9701AE50A1212081E
:1095700007017E957895789512847ED2E5F0EEFA13
:10958000EFFB1205CC7F0A0210CFE0F50EA3E0F549
:109590000F2274EE1210698A088B09ECFEEDFF743D
:1095A000058A828B831297978A828B83A3A3F0EA22
:1095B0002403129769E0F510A3E0F511EE242412BC
:1095C000849C780C120ED5E5102411F582E5111259
:1095D000849F12EB9912C5EBAA10AB11120A5885A1
:1095E0000A82850B831298BCFAA3E0FB88828983E8
:1095F000A3A3A3A3A3A3A3A3A312EE71EE242E12ED
:1096000084B0C0E0E812892BE912849FD0E0129761
:109610008A12B0D5E412978A240E12AE8B7C0BFD11
:10962000F9850A82850B83E0241612F56212013453
:109630008E828F83A3A3A3A3A3A3E0C0E0850A82A5
:10964000850B83129783D0E012979FFAA3E0FB85E6
:109650000A82850B83129C91240BFCE93400FD8A5D
:10966000828B83E08C828D83F0A3E412BB82E0F5D1
:109670000B8C828D83E0F0A3E0450B1298B7FCA31E
:109680000A0AAB83A2E7E492E0C0E0E8129502E99F
:1096900012849FD0E0F074075C6004780180027847
:1096A0000075F00374075CA428F8EA28FAEB34008C
:1096B000FBE5082405F8E50912878312976312BBBE
:1096C00082850882850983A3A3A3A3A3A3EA12D159
:1096D00094F50CF50A7407550AC333FC7470550CE5
:1096E000C430E30244F0F50A3395E0F50B740378D7
:1096F0000A120FECE50A2CF8E50B3400F9EA28F819
:10970000EB39F985088285098312CF188E828F8301
:1097100012977612F560C3EA98EB9940278E828FF4
:1097200083A3A3E0F8850882850983A3A3A3A3A349
:10973000129776A3A3E0C39A28850882850983A39C
:10974000A3A38016E4850882850983A3A3A3A3A30A
:10975000A3A3A3F0850882850983A3A3A3A3A3F0F1
:10976000029585E08882898322F50AEB3400F50BA7
:10977000850A82F58322A3A3A3A3E0FA8E828F83B6
:10978000A3A322E0240D12C6B82212978FE022F084
:10979000850A82850B8322F0EE2431128485221201
:1097A000CF13A3E022020107C082C08379191206F9
:1097B00008029D4A74F7121069EAFEEBFF900AE472
:1097C000E07002A3E06010900AE412B00C1206569A
:1097D0007AE47B0A120632EEFAEFFB12062C900AAC
:1097E000E4EEF0A3EFF0800612CAEA1204287F012B
:1097F0000210CF74F712106974DE120FFFEAFEEB4D
:10980000FF8E828F83E012123E011E1F56980303C3
:109810001A98055698181A985F98741612104AE408
:10982000129894740B12104AAA82AB83120A6474C1
:109830001312104A7403129A19740212104A12CFAA
:1098400021740A12104A740212988C741412104A6D
:10985000E8F0A3E98010741612104A740180C174F4
:109860001612104A7402F0740B851882851983123F
:10987000CF0FE0C0E0740112104AD0E01298A27439
:109880001712104A128EB17422028EA6F0900B2A83
:1098900012C60422F012989922EE2417FCEF34002D
:1098A000FD22F07C0B7D0079002274298E828F834B
:1098B0001286DF1206142212BB8AE02212A52A2485
:1098C0002A12848522128488FA2274F6121069748E
:1098D000FE120FFFE9FEA2AFE492E0FFC2AFEE601E
:1098E0001C9018607C0D7D0B743C120F2112072E0A
:1098F000E9900B26F012072EE9900B1AF0900F69F1
:10990000E070151207B8E4900B7CF0900B8AF0120F
:10991000DBBF12075212075E53A7EF12070A1207A6
:10992000D6129A08900B0CE0F9120734129C96128A
:109930009A19E8906174F0E912B375750800E508AA
:10994000C333F8E433F91299F5E07002A3E060093B
:109950001299F5129A041210540508E508C39407E9
:1099600040DC900AE4E07002A3E060077AE47B0A3E
:10997000120632E4900AEAF0900A2FE07002A3E0A7
:10998000601E800D851882851983AA82AB8312061A
:1099900032900AE312DBD012CF21E87001E970E4C3
:1099A000E4900B49F080077AC27B0A129A21900A50
:1099B000C2E07002A3E070EF900AC4E07002A3E07E
:1099C00060097AC47B0A129A2180ED900AC2E4F001
:1099D000A3F0900AC8F0900AC9F0900ACAF0900B60
:1099E0000CF07A2D7B0B795212067AEFA2E092AF3F
:1099F000790002B503E824EBF582E9340AF5832205
:109A00008A828B83128B1E22900B3DE0F91207464F
:109A1000900B3CE0F912073A22F0900B2E12C6048C
:109A200022120158851882851983EAF0A3EB12D619
:109A3000F21206322212061A029D4AF0900AE8E457
:109A4000F0A3F0120728029D4AE9FA74C02AC394D1
:109A50001E500674C02AF9800E74202AC394065042
:109A600004743E80F0792402010774F3121069EA4D
:109A7000FEEBFF12066EE9F50874246508700479A0
:109A8000F48046E5A8F50CC2AF75090074027808A9
:109A9000120FECE508249CFAE5093418FB8A828B46
:109AA00083E493240DF508E4340BF509750A007876
:109AB000081211C08A828B83A3E49312F3EC121074
:109AC00015E50CA2E792AF790002843D74F1121003
:109AD000698908EAFEEBFF74456508700B900B126C
:109AE000EEF0A3EFF0029C6812066EE9FA8A0974A0
:109AF000246A700579F4029C6A890A750B00740265
:109B0000780A120FEC129C7C7014890A750B007491
:109B100002780A120FEC129C6D7003029BAB890A4B
:109B2000750B007402780A120FECE50A249CFAE522
:109B30000B3418FB8A828B83A3A3E493FC8A828B69
:109B400083A3A3A3E4936C700579FB029C6A745809
:109B50006508701B8E828F83E02471F8A3E034FFC8
:109B6000F9C3E89422E99464400579E8029C6A8E7E
:109B7000828F83E0C0E085090A750B007402780AC1
:109B8000120FEC129C7CFAD0E0C39A40DD85090AE2
:109B9000750B007402780A120FEC129C6DC0E08EF7
:109BA000828F83E0FAD0E0C39A40BFE5A8F50AC2ED
:109BB000AF85090C750D007402780C120FECE50CE2
:109BC000249CF8E50D3418F9E8FAE9FB8E0C8F0DAA
:109BD000750E00780C1211C08A828B83A3E493FC6B
:109BE0007D008A828B83E493240DFAE4340B12F314
:109BF000F2121015E50AA2E792AFE50812123E0034
:109C00000750189C522E9C531E9CE0599CE1409C8E
:109C1000E24A9CE5609C689C129C96029AE4900B38
:109C20002E129C91906174F0E990617580ED900B1B
:109C30002DE0790260051207AC802D1207B2802852
:109C4000900B3DE0F9120746801E79087C3E7D0BA3
:109C50007A6A7B61120860800F900B3CE0F404F09C
:109C6000900B3CE0F912073A7900028624E50A24B9
:109C70009FF582E50B3418F583E49322E50A249ED0
:109C8000F582E50B3418F583E493228E828F83A34B
:109C9000A312C604E822900B2A12C604E89061724F
:109CA000F0E99061732202010774F7121069E9FE6E
:109CB000900B49E06E700479008034E0702F900AB8
:109CC000EAE0600464027025A2AFE492E0FFC2AF54
:109CD000900B7BE07012900B7DE0700C900B90E08D
:109CE0007006900B8FE0600AEFA2E092AF79E2027B
:109CF00097EE1207D0EE900F69F0EFA2E092AF530B
:109D000094FEE594A2E240FA74016E60079061A5AA
:109D1000E0C2E2F0EE900B49F0809CC082C08390DC
:109D20000B49E060081207D6E4900B49F0801BC095
:109D300082C083900AF97452F0A37418029A3BF01F
:109D4000900AE8E04402F0A3E0F0D083D082020160
:109D500007C082C083900AFB742CF0A37419F090A2
:109D60000AFF7446F0A37419F0900B017462F0A31B
:109D70007419129D8CF0A3E0129D81F012069E8052
:109D8000C9F0900AFD746CF0A3741922F0900AEBEC
:109D900074F0F0A37405F0900AE8E0440122C08258
:109DA000C083900B037436F0A37419F0900B057404
:109DB0003AF0A37419129DBA8085F0900F5F74CFAA
:109DC000F0A37417F0900AED745AF0A37405220200
:109DD000010774F412106974078A828B83129E271C
:109DE00012BB7CA3A3129E27A3A312BB7CA3A3A395
:109DF000129E31A3A37808120ED58A828B83A3A367
:109E0000A3A37808120EE4E48A828B83A3A3A3A3FE
:109E1000A3A3A3A3F0EC2415F582ED12849F12D323
:109E20009E12CF18028054129E31A3A3A3A3A3A312
:109E300022F08C828D832274F4121069EAFEEBFF0B
:109E4000E4900B4B12C1B3C39404400674E8900B2A
:109E50004BF08E828F83A3A3A3A3A3A3A3E0C394F9
:109E60000F40158E828F83A3A3A3A3A3A3E0640353
:109E7000601574E8900B4BF08E828F83A3A3A3A38D
:109E8000A3A3E06403700E900AE8E0A2E040067429
:109E9000E8900B4BF0EEFCEFFD7A4A7B0B1206AA22
:109EA0008E828F83A3A37808120ED5740A780812C5
:109EB0000DEB900B5E7808120EE48E828F83A3A3C5
:109EC000A3A3A3A3A3E0900B62129F42900B63F0A5
:109ED000740A900B64F0900B3DE0900B65F0900BD2
:109EE0005B128E2C7404900B5DF0900B4BE0704174
:109EF000900B4CE0600674EA900B4BF0900B4CE03A
:109F0000FA70077401900B7C801874036A700474F3
:109F10000380F27402900B7CF074FF906172F090F9
:109F20006173F074268E828F83F079041207AC80FF
:109F30000774298E828F83F0EEFAEFFB120614026B
:109F4000805412854BA3A3A3E02274F41210697409
:109F5000F7120FFFEAFEEBFF900B4CE0702E900B18
:109F600064E0640A602612075EE9C0E0900B64E0DA
:109F7000F8900B53E02812B00274F528F58274FFB4
:109F800039F583D0E0F0900B52E004F0900B5E784E
:109F900008120ED574017808120DEB900B5E78084C
:109FA000120EE4900B64E004F0E508A2E04006E045
:109FB000C3941D40D7E0641D605B7A647B0B79E13C
:109FC00012067A900B4CE0600464027009EEFAEF1E
:109FD000FB1206BC8042740812104A740212D63D6D
:109FE00074FFF0A3F0900B4CE06401700679087ADE
:109FF00080800479077A837508FF7509FF78081255
:10A0000011C47B00740212104AAC82AD8312A01BF3
:10A0100012101580031298AA0285391206447402A0
:10A020002274F0121069750801750900750A00752F
:10A030000B00900B64E07808120E047808120DDB18
:10A04000900B4E7808120EAF900B4CE06403700F2B
:10A0500012A0A0120ED57808790C120CDA80357592
:10A060000801750900750A00750B00900B62E07815
:10A0700008120E04900ECB7808120E36900F8478DA
:10A080000C120ED57808790C120CDA900B4CE0709B
:10A090000312075878081211BC7A557B0B0282BF55
:10A0A000900B3812A0B2750A00750B00900F8478DF
:10A0B0000C22E0F5087509002274F112106974D4BD
:10A0C000120FFFEAFEEBFF900B4CE064026008E029
:10A0D0006401600302A1C1E4900B4BF0740B1210F9
:10A0E0004AA882A983740312104A12A1C9900B6373
:10A0F000E0700302A18B900B52E0C0E0900B63E094
:10A10000FAD0E0C39A400302A18B900B5312D18C7A
:10A11000900B52E0F50A803385088285098312D1BD
:10A1200051741412104AE0687003A3E0696013745C
:10A130000B12104AAC82AD83AA08AB09120A52E98D
:10A140006013150AE508242112E53EE50A70C9905E
:10A150000B52E07036740B12104AA982AA83890C44
:10A160008A0D750E00780C1211C07C217D00900BB9
:10A1700052E08CF0A4F8A9F0E50828FAE5093912B4
:10A18000F3F2121015900B52E004F0900B0FE06008
:10A190000E740812104AE07006900B63E0700D8593
:10A1A0001882851983AA82AB83120986900B63E01B
:10A1B000600F900B52E0FA900B63E06A7003129804
:10A1C000AA742C121015028624E8F0A3E9F0EEFC24
:10A1D000EFFD851882851983AA82AB8312064A2275
:10A1E000C082C083900B4BE064E860267A557B0BFD
:10A1F0001206F812075279041207B2900B4CE06471
:10A20000037006900B4BE060097A657B0B79E112D5
:10A21000067A7A4A7B0B028D88C082C08374F5125D
:10A220000FFFEAFCEBFD851882851983AA82AB83B8
:10A230001206AA740112104A74FC12A241740B8017
:10A240000712D6F212098622121015029D4AC08208
:10A25000C0837907029A3574F0121069900B6AE492
:10A26000F0A3F0900B66E07002A3E06037900B66FD
:10A2700012B018C082C083900F617808120ED5D03A
:10A2800083D0827808120C75501A12A36312A37639
:10A29000120C75500612A376120EE4900B6612A3F0
:10A2A0006F12CF21900B68E07002A3E0900B6A6000
:10A2B00030E07002A3E0601E900B6812B018C082FC
:10A2C000C083900B6A12A379120ED5D083D0827806
:10A2D00008120C755012900B6812A36F12CF2180D8
:10A2E00007E07002A3E0607512B015C082C08390D1
:10A2F0000F617808120ED5D083D0827808120C75C1
:10A30000505B900B6A12A379120ED5A2AFE492E0D3
:10A31000FEC2AF900B727808120EE412A66D780898
:10A32000790C120C8A50087402900B76F0801C9005
:10A330000EC77808120C60700474038002740590D4
:10A340000B76F0900B6E7808120ED5AA08AB09AC0C
:10A350000AAD0B12084EEEA2E092AF800312071C6A
:10A360000282C71207168A088B098C0A8D0B2212EB
:10A37000C604900B6A22900B6612B01C78082274F7
:10A38000F01210698A088B098C0A8D0B7410121058
:10A390004A804C8A828B83A3A37808120E49900BC3
:10A3A0006A12A3EB687002EB6970308A828B83A318
:10A3B000A3C082C083900EC7780C120ED5D083D074
:10A3C00082780C120C755013900EC7780C120ED5B3
:10A3D0008A828B83A3A3780C120EE48A828B831269
:10A3E000B00CEA7001EB70AB0282C712C604EA221D
:10A3F00074F0121069EAFEEBFFA2AFE492E0F50CF4
:10A40000C2AFECFAEDFB8C828D838008AA0EAB0FF5
:10A410008A828B8312958AE50E7002E50F60228E88
:10A42000828F83A3A3C082C083850E82850F83A3FE
:10A43000A37808120ED5D083D0827808120C7550FC
:10A44000CB8A828B83EEF0A3EF12A46BE50EF0A310
:10A45000E50F129E3112A526687002EF6970031293
:10A4600006DAE50CA2E092AF0282C712A46F22F0D6
:10A470008E828F8322EEFAEFFB1206E60282C7126B
:10A48000A5947808790C2274F0121069EAFEEBFFAB
:10A49000741012104A7808120ED512A47F120E23DF
:10A4A0008E828F83A3A37808120EE47C667D0B80D6
:10A4B000C474F7121069ECF8EDF98C828D83800476
:10A4C000A882A98312CB768C828D83E5827002E507
:10A4D000836014EA65827003EB658370E312B00C4D
:10A4E00012EE6D7901800279000297EE74F7121076
:10A4F00069EAFEEBFFA2AFE492E0F508C2AF7C662A
:10A500007D0B1206F2E9700B7C687D0BEEFAEFFB17
:10A510001206F2900B6A12A526687002EF697003AA
:10A520001206DA02B25D12A52A22E0F8A3E0F9EEE3
:10A530002274F0121069900B66E07002A3E0700ABA
:10A54000900B68E07002A3E0603BE5A8FEC2AF900C
:10A550000B727808120ED512A590EEA2E792AF907A
:10A560000ECB780C120E367808790C120C8A50112A
:10A570007808790C120E5CAA08AB09AC0AAD0B8006
:10A580000C7A0180027A007B007C007D000282C789
:10A5900012A594221207168A0C8B0D8C0E8D0F2299
:10A5A000C082C083900B6DE06401700479FE80026C
:10A5B00079FF029D4A74F41210697401900B76F0D1
:10A5C000900EC77808120ED5AA08AB09AC0AAD0BDD
:10A5D000120848900F887808120ED5AA08AB09AC6B
:10A5E0000AAD0B12071075A1EF439401E594A2E2A6
:10A5F00050FA43A71002805474F41210698A088B31
:10A60000098C0A8D0BE5A8FEC2AF900B6E7808127C
:10A610000EE412084EEEA2E792AF02805474F012DC
:10A620001069E5A8FEC2AF12BA42EEA2E792AF905F
:10A630000B6E780C120ED5780C7908120C8A400833
:10A640007A007B007C007D000282C774F4121069DE
:10A65000E5A8FEC2AF7401900B76F0900B6E7808FF
:10A66000120ED5AA08AB09AC0AAD0B80A512083CA6
:10A670008A0C8B0D8C0E8D0F227F0C0210CF74F084
:10A68000121069A2AFE492E0F508C2AF900B76E039
:10A69000F509A2E0400302A762900EC7780C120EE3
:10A6A000D5AA0CAB0DAC0EAD0F120848A2AFE492C8
:10A6B000E0F50AC2AF900B6812A809900B66121160
:10A6C000DB900F61780C120ED5780C120DCAAA0C13
:10A6D000AB0DAC0EAD0F1206E074021210158037F0
:10A6E0008E828F83A3A3C082C083900F61780C12E7
:10A6F0000ED5D083D082780C120C754013900F6168
:10A70000780C120ED58E828F83A3A3780C120E883C
:10A710008E828F8312A809EE7001EF70C3900F61D3
:10A72000C082900F65780C120ED575830FD0827899
:10A730000C120C606023900F65780C120ED5900FF0
:10A7400061780C120EE4900F61780C120ED5AA0CF1
:10A75000AB0DAC0EAD0F1207101206DAE50AA2E03F
:10A7600092AFE509A2E1506B7401900B76F0900B6B
:10A770006E780C120ED5AA0CAB0DAC0EAD0F1208F4
:10A780004EE508A2E092AF900B6AE07002A3E06091
:10A7900067900B6AE07002A3E0605D12A36312B0E1
:10A7A00015780C120ED5780C7908120C8A40499055
:10A7B0000B6A1284C3FAEFFB12A7FBA3A3A3A3E0C7
:10A7C000F98E828F83A3A3A3A3A3A3129A041210CA
:10A7D0005480BE7405650970197402900B76F09070
:10A7E0000B72780C120ED5AA0CAB0DAC0EAD0F127D
:10A7F000084EE508A2E092AF0282C71206F88E82E8
:10A800008F83A3A3A3A322A3A3E0FEA3E0FF22C000
:10A8100082C08312082A7C00ECC333F8E433F9E8E1
:10A820002478F582E93419F583E493FA740193FBF3
:10A8300012A88B12EE710CECC3941040DB740B90D9
:10A840000B79F0900B78F07432900B7AF0900B77D4
:10A85000F0E4900B8FF0900B8EF0900B7CF0900B4F
:10A860008AF0900B80F0A3F0900B7B12AAE012B15B
:10A8700001900B8BF0900B8CF0900B8DF0900B9067
:10A88000F0900B97F012070A029D4AE812A8902256
:10A890002429F582E9340FF5832274F355B4440476
:10A8A000F5B4A9BD020107C082C083906180E0FABF
:10A8B000E96004D2F08002C2F0A2F0E492E0C33377
:10A8C000C0E074FD5AFAD0E04A029D4974F71210B4
:10A8D00069E9FE907803E06495900BB0700FE0C4D6
:10A8E000540FC33324FAF582E43419800DE0C454C4
:10A8F0000FC3332400F582E4341AF583E493F8742B
:10A900000193F988828983E493C39EA2D265D033F0
:10A910004013A3E493FAEEC39AA2D265D033500851
:10A9200088828983A3E493FEE5A8FCC2AF8882896C
:10A9300083E493C39E2402FAE82A1290B593900B05
:10A940007A12A94A1207400297EEF0ECA2E792AF02
:10A9500022C082C083A2AFE492E0FBC2AF900B7A28
:10A96000E0FA900B77E06A601A900B7DE07014902B
:10A970000B90E0A2E7400C900B7AE0900B77F09000
:10A980006190F0EB8001EAA2E092AF029D4A74F779
:10A99000121069E9FEA2AFE492E0FFC2AFEE900BA5
:10A9A00079F0900B90E0700312074CEF02B25FC099
:10A9B00082C083A2AFE492E0FBC2AF900B79E0FAD1
:10A9C000900B78E06A6026900B79E0900B78F0EBC2
:10A9D000A2E092AF1207D075F005900B78E0A424A6
:10A9E000D490618FF012076A1207BE8005EBA2E0D7
:10A9F00092AF029D4AC082C083E4900B7CF012B3F8
:10AA000065029D49C082C0837480900B99F043A772
:10AA100001029D4AC082C08353A7FE12AEA1900BD3
:10AA200099FAE02A24B7F9120764029D4AE9FCC3A7
:10AA300094AFA2D265D03350047CAF800DECC394A8
:10AA40000BA2D265D03340027C0AECF83395E0F9D2
:10AA5000745128F8E439F9E875F0FFA4F8AAF07504
:10AA6000F0FFE9A42AF97A5B0287CFC082C0837421
:10AA700001900B8CF0900B8BE07008120770E49043
:10AA80000B8CF0029D4AC082C0839061A412E7093A
:10AA90007405906194F075E1ED75E1EDE5A8C2AF44
:10AAA000759B0075E9FBA2E792AF900B80E0700206
:10AAB000A3E060077A807B0B120632900B80E4F0F3
:10AAC000A312AAE0F0900B7BE07006900B7DE06093
:10AAD0000CE4900B7BF0900B7DF012079A029D4ADC
:10AAE00012AAE422F0900B7E7476F0A3740722740D
:10AAF000F412106974FE120FFF7481900B7BF090BA
:10AB00000B8EE0600D906193E0A2E74010E0A2E6BA
:10AB1000400BE4900B7BF012079A02AE789061E450
:10AB2000E070179061A4E0A2E4500FE0C2E4F0E00E
:10AB3000A2E350031208241207F412B0FB900B7C1E
:10AB4000E0900B89F079047A827B0B120866900BF7
:10AB500082E0547F24FD900B86F0900B98E07020EB
:10AB6000900B86E0C3947D500B900B83E05407C399
:10AB70009404400C75E1ED75E1ED12079402AE7896
:10AB8000900B83E054076402600302AC57900B8A79
:10AB9000E0600302AC577902851882851983AA8286
:10ABA000AB83120866A2AFE492E0FFC2AF900B90B5
:10ABB000E06486600302AC4F12AEA185188285194D
:10ABC00083FAE02A24B7FE740112104AE0547FF59C
:10ABD00008EEF9120764E9C0E0900ACBE0241412F1
:10ABE000B0D7D0E0128C4112B0D5E508128C4124C8
:10ABF0001612B0DBF0EFA2E092AF740112104AE03F
:10AC0000A2E75046900B83E05410FE900B85E0FFC6
:10AC1000A2AFE492E0F508C2AF900B90E0648670BA
:10AC2000257487F012081EE508A2E092AF900B95FC
:10AC3000E06F700EEE6007791B1208008016790035
:10AC400080F779E980F3E50880061207FA8005EFBE
:10AC5000A2E092AF02AB7A900B90E0648670031290
:10AC600007FA900B89E06024900B8AE0701E900B2D
:10AC700089E06401700302AD2BE06402600302AD61
:10AC800016900B83E05407600302AD2B900B84E019
:10AC9000FA1313543F5403F50BEAC413135403F58A
:10ACA0000A900B98E070127401650A700302AB748D
:10ACB0007401650B700302AB74850A0812AE7DC087
:10ACC000E0850B0812AE7DFAD0E02AFEE50A600AA4
:10ACD000900B83E0A2E650021E1E900B86E0FA8ED7
:10ACE000087402250812EB684041E0C39E24FE90E0
:10ACF0000B88F0900ACAE0C394025035900B88E0AC
:10AD0000F8743228FAE43400FB12013A8A088B09FD
:10AD1000A808A909801FE06403600302AC8C900BB3
:10AD200083E054076403700302AC8C1207A002AEE8
:10AD30007878007900900B8012B1087002A3E0705F
:10AD40000575E1E880E57F00900B8AE0700A900BC2
:10AD500083E05420900B7DF0900B7DE06068A2AF03
:10AD6000E492E0F508C2AF900B83E05407640370EF
:10AD700039900AE8E054026019900AC8E070219006
:10AD80000ACBE07002A3E06009900ACBE0128C23AA
:10AD9000400E900B6CE06012120704E964FE700A2A
:10ADA0007F0490618AE0D2E2800690618AE0C2E28C
:10ADB00012B35C7591FEA2E792AF9061A412DBC260
:10ADC000E508A2E092AF900B80E012B0E012CF1F36
:10ADD000900B88E0C0E0900B8012B018A3A3D0E0E5
:10ADE00012B10C241A12B0D7E50A12B10C242312A6
:10ADF000B0D7E50BF012B7F3900B80E0242412B02B
:10AE0000D77808120EE4120836900B80E02428123E
:10AE1000EE67900B83E05407C0E0900B8012B7FF01
:10AE2000D0E0F0900B85E0C0E0900B80E024311280
:10AE3000B0D7D0E0F0900B83E05478C0E0900B8462
:10AE4000E0C4540F5403FAD0E04A4FC0E0900B80A6
:10AE500012AE91D0E012B10C240F12AE8BEE700541
:10AE600012AF878013900B87F014906194F0900BD1
:10AE70007E747CF0A37407F07402028051E508240C
:10AE800098F582E43419F583E4932212C6B8E4F00D
:10AE90002212AE952212AE992212B024A3A3A3A32C
:10AEA00022900BB0E0F8740F582406F582E4341AAF
:10AEB000F583E4932274F712106974EC120FFF12F9
:10AEC000B1C6851882851983AC82AD83900B84123C
:10AED0008442FE6065900B80E0242C12B00285183D
:10AEE00082851983E0FC740112104AE0FBEC888231
:10AEF000898312D194FA900B80E0242A12EE6774B1
:10AF0000036E7016740212104AAC82AD83900B80EF
:10AF1000E0241B12C8A7740A8019740212104AE0B8
:10AF2000FA740312104AE0FB900B80E0241B12EE2F
:10AF300067740412104AAC82AD83900B8412D16204
:10AF4000FE603012B0F3A2E6401112AF7B242A1249
:10AF5000EE67EC24020C0CED3400FD74036E700BF4
:10AF6000900B80E0241212C8A7800812AF7B241235
:10AF700012EE6712AF877414028EA68C828D831234
:10AF8000B010900B80E022900B7E7488F0A37407C1
:10AF9000F012078222C082C083900B88E070117487
:10AFA00001906194F0900B7E748EF0A3740780136F
:10AFB000C394105003E080027410900B87F0E014EB
:10AFC000906194029D49C082C083900B87E0F99004
:10AFD0000B8012B01812B00C120866900B80E0249F
:10AFE0000212B002900B8712846812F56012EE6DA7
:10AFF000900B87E0FA900B88E0C39AF01207820268
:10B000009D4AF8A3E03400F922900ABF12B0102242
:10B0100012B48BFB22900B6A12B01C2212B02022B9
:10B0200012B02422128B26A3A32274F61210697F79
:10B030000079027A827B0B120866900B83E05480C1
:10B04000F5087008900B8AE0640270727402900B2D
:10B050007BF01207C412AEA1900B82FAE02A24B74B
:10B06000FE900B83E0547FF509900B6CE06010902C
:10B070000B6DE07008906163E0A2E650027F04EF80
:10B080004508FA12B0F34AF0EEF9120764E9C0E09D
:10B09000900B8012F573D0E012B10C243012B0DBAB
:10B0A00012B10C242F12B0D7E50912B10C12B0E086
:10B0B000A3A312B108FAA3E0FB1205A8800A12B0FC
:10B0C000FB7A807B0B120632900B80E4F0A3F01227
:10B0D000B1D902B508241512C6B82212C6B8EE229C
:10B0E0002432F8A3E03400F9900B8012B48BF5837E
:10B0F0008A8222900B8012AE95E0229061A4E0C279
:10B10000E0F0E4900B7DF022E8F0A3E9F0900B80F2
:10B11000E022C082C083906193E0A2E6500BE0A2DF
:10B12000E7400675E1ED75E1EDE4900B7BF0900BE7
:10B130007DE0700312079A029D4AC082C083120705
:10B14000C4120740A2AFE492E0FAC2AF900B90E0C5
:10B1500064027007748312B4908005EAA2E092AF93
:10B16000029D4AC082C083900B86E070051207944E
:10B17000801EC394105003E080027410900B87F07F
:10B18000E014906194F0900B7E74A6F0A37407F025
:10B19000029D4AC082C08374F0120FFF12B1C690A4
:10B1A0000B87E0FA900B86E0C39AF06011C394100D
:10B1B000500FE0900B87F014906194F0800312B16F
:10B1C000D9741002A248900B87E0F985188285197E
:10B1D00083AA82AB8312086622740590619412AA36
:10B1E000E4F01207942274F7121069E9FEE5A8FF53
:10B1F000C2AF900B8FE04EF01207CAEF02848EA20E
:10B20000E702A98974F7121069E9FEE5A8FBC2AF4D
:10B2100074FF6EFA900B8FE05AF0EBA2E792AF1238
:10B2200007C40297EEC082C083E5A8FAC2AFE490DB
:10B230000B8FF0900B8E12B2D7EAA2E792AF1207F3
:10B240006A029D4A74F7121069A2AFE492E0FEC24E
:10B25000AF900B8FE060031207CAEE8002E508A2F0
:10B26000E092AF0297EE74F7121069A2AFE492E099
:10B27000FEC2AF900B8FE07019900B7BE0A2E7400D
:10B2800011900B7DE0700B900B90E0A2E740031251
:10B2900007D0EE80CAC082C083A2AFE492E0FAC2B7
:10B2A000AF900B8EE070067401F075E1E302A986A1
:10B2B000C082C083A2AFE492E0FAC2AF900B8EE0EE
:10B2C0006012E412B2D7E5A8C2AF759B0075E9FB26
:10B2D000A2E792AF02A986F075E1EF75E1ED75E1A5
:10B2E000ED22C082C083900F69E0606D439401E558
:10B2F00094A2E250FAE0640270579061A512EE4801
:10B30000900BB0E054F0601874689061EBF074FB3F
:10B31000906244F0746A9061ECF074FC906247F0C3
:10B32000900B98E0C39412501312B365F0900B2E5B
:10B33000E0906174F0900B2FE012B375740590618A
:10B340009412B35C75E9FBA2E792AF9061A312EE91
:10B3500048E4900F69F01207BE029D4AF0E5A8C2CA
:10B36000AF759B0022900B2AE0906172F0900B2B3E
:10B37000E090617322906175F079087C3E7D0B7AD4
:10B380006A7B611208602274F7121069E9FE740189
:10B39000900B90F0900F69E06008791D1208000290
:10B3A000B472EE900B91F06402701A12B4FC75E165
:10B3B000D975E10175E10975E1BA75E10175E1C57C
:10B3C00075E1D2803CE4900B94128C41240EF8126B
:10B3D000B47FA2E65005900B478003900B29E090C4
:10B3E0000B92F0900B91E07015900B10E0600F90B5
:10B3F0000B92E0C39403400474028001E0F0120752
:10B40000E2900B97E07045900ACB12F681FAA3E028
:10B41000F5838A82E05420900B9612D197FAA3E02C
:10B42000F5838A82A3A3E0900B9512B483F5838AF7
:10B4300082A31284651280E48882898374022AF0D0
:10B4400075E1EE0AE0F5D9A31AEA70F8A2AFE4922A
:10B45000E0FAC2AF900B7BE07010900B7DE0700AB9
:10B460007483900B9012B49080087402900B901229
:10B47000B4750297EEF0EAA2E092AF220808081233
:10B48000D82922F0900ACB12B48B22E0FAA3E02252
:10B4900012B4751207E82274F61210697508017566
:10B4A0000900900B92E07808120FECE50814C0E058
:10B4B00012072EE9FAD0E05A900B93F0900B91E02E
:10B4C000701112B4FC75E18175E11075E1D275E17E
:10B4D00081800C12B4FC75E1B875E18175E1B87535
:10B4E000E11075E1D275E1D975E10175E10975E108
:10B4F000BA75E10175E1C575E1D2800C12080C75D1
:10B50000E1BC2274021210157F020210CF74F712F0
:10B51000106912B0FB900B91E06402704D12B6DB23
:10B52000A2AFE492E0FEC2AF75C300E5A2E5A4FFBE
:10B53000740F5FFA740FC39AF5089061E2F0120776
:10B54000B87401900B8EF075E1E175C300E5A2E5DA
:10B55000A46F600FE508C39402400874FF250890AB
:10B5600061E2F0EEA2E092AF80031207EE0297EEE6
:10B57000C082C083900B91E07028900ACDE07002E9
:10B58000A3E0600D900ACD129A04121054E9FA80DB
:10B59000027A00900B93E0C39A4007791C120800CE
:10B5A0008003120812029D4A74F7121069A2AFE4D8
:10B5B00092E0FEC2AF900B90E064837021900B96F6
:10B5C000E070127485900B90F0EEA2E092AF7900DB
:10B5D000120800800E7486900B90F0120818EEA2EC
:10B5E000E092AF0297EE74F7121069A2AFE492E016
:10B5F000FEC2AF900B90E0648670127487F0120860
:10B600001EEEA2E092AF79E91208008005EEA2E0FA
:10B6100092AF0297EE74F7121069E9FEE4900B976F
:10B62000F0900B90F01207C412074012074CEEF98D
:10B630001205C00297EEC008E5A8FAC2AF75C300B4
:10B64000E5A2F508E5A3FBEAA2E792AFEBF9A808AB
:10B650007A007B02120F7CE8F9D008020107C08251
:10B66000C083759C0174019061E4F075E1E275E1BD
:10B67000FFE5A8C2AF759B007591EFA2E792AFE519
:10B68000A8C2AF759B007591F702B1FFC082C0835D
:10B69000900B93E09061E2F0E06003E014F075A19C
:10B6A000FDA2AFE492E0FAC2AF75C300E5A2FBE5EC
:10B6B000A3FC900B98E0C394125008EB7005EC705B
:10B6C000027B0175C3038BA28CA3EAA2E092AF12A6
:10B6D000B6DB1207CA75E1E1029D4A9061A4E0D28F
:10B6E000E4F0E0D2E3F02274F6121069120806E9E1
:10B6F000FF900B0DE02F24ECFA75F01484FE75F02A
:10B7000014A4CA9AFA0E74029061E4F0EE9061E219
:10B71000F075A1FDA2AFE492E0FBC2AF75C3038A4E
:10B720000875090074097808120FECF8A909900B44
:10B7300098E0C394125009E47001E970030879009D
:10B74000E8F5A2E9F5A3EBA2E092AF75E1E275E1BD
:10B75000FFE5A8C2AF759B007591EFA2E792AF75A8
:10B76000E1BC75E1B875E1D29061A4E0D2E4F07576
:10B77000E1E1120806E9C39F500A9061E2E06E70B1
:10B7800003E014F002B508C082C0839061A4E0C257
:10B79000E4F075E1E275E1FF029D4A74F012106970
:10B7A0009061A4E0C2E3F0E5A8FEC2AF12B7F3EEE9
:10B7B000A2E792AF900B6E780C120ED5780C790838
:10B7C000120C8A400A900EC7780C120ED580088A97
:10B7D0000C8B0D8C0E8D0F900ACB12B7FF780C12CC
:10B7E0000EE4120836900ACB12B805A3A312EE712C
:10B7F0000282C71208428A088B098C0A8D0B22121A
:10B80000D7E8A3A32212B8092212AE99A32274F694
:10B8100012106974F0120FFF74149061A9F0743F54
:10B820009061ABF074F8906196F074859061A8F027
:10B83000745A9061ACF0E49061AEF074159061B20E
:10B84000F0E4906182F074109061B5F0740E906134
:10B85000B6F074039061B7F074099061FAF074FF68
:10B860009061E5F0439A01D2A843A90153B9FE9033
:10B870006249E0900B98F0E5A8C2AF75C30275A2CB
:10B880000075A328A2E792AF439401E594A2E25089
:10B89000FA439408D2BA7448906189F01207CA90AA
:10B8A0006199E0A2E050F87A007C007B0812B97F31
:10B8B000C0E0ECC333FCD0E04CFC1BEB70EF8A081B
:10B8C000E50824A0F582E4340BF583ECF00AEAC322
:10B8D000941040D5780079007C10E8C333F8E93340
:10B8E000F912B97F48F81CEC70F0E87001E9600AC1
:10B8F0007480687003740369700478BE79BAE8F5DF
:10B90000BCE9F5BC900B9EE07002A3E060467A00B3
:10B910007C007B0812B97FC0E0ECC333FCD0E04C64
:10B92000FC1BEB70EF8A08851882851983E5822558
:10B9300008F582E58312849FECF00AEAC394104074
:10B94000CF851882851983AA82AB83900B9E129AA9
:10B95000041210541207D07440906189F0E0D2E5CF
:10B96000F0E4906164F0906165F0906166F0906140
:10B9700067F0906168F0906169F0741002B505900D
:10B9800061A7E0A2E0E492E02274F355B44404F528
:10B99000B4E5BDF9E5BC2400FAE439FB020107C0B7
:10B9A00008E5A8FAC2AF75C301E5A3FBE5A2F50857
:10B9B000EAA2E792AFAA0802B65974F412106974A9
:10B9C000FC120FFFE5A8FAC2AF75C300E5A2028022
:10B9D0001974F412106974FC120FFFE5A8FAC2AFD3
:10B9E00075C31002801974F412106974FC120FFFF1
:10B9F00012BA9D900B9AC082C08312BA42D083D0F3
:10BA0000827808120E368518828519837808120EFE
:10BA100070900B9A7808120EE4E5A8FAC2AF75C3CD
:10BA200000851882851983E0F5A4740112104AE09C
:10BA3000F5A5740212104AE0F5A6EAA2E792AF0259
:10BA4000804F12083C8A088B098C0A8D0B22C08219
:10BA5000C08374FC120FFF12BA9D7A00A2AFE49269
:10BA6000E0FBC2AFE5A7A2E450040A53A7EF75C3F9
:10BA700030851882851983E0F5A4740112104AE01C
:10BA8000F5A5740212104AE0F5A675A1EFEA60036D
:10BA900043A710EBA2E092AF740402A2488518827B
:10BAA000851983EAF0A3EBF0A3ECF0A3EDF0227488
:10BAB000F412106974FC120FFFE5A7A2E4504FE5E1
:10BAC000A1A2E44049E5A8FAC2AF75C330E5A48558
:10BAD0001882851983F0E5A5C0E0740112104AD0E0
:10BAE000E0F0E5A6C0E0740212104AD0E0F0740362
:10BAF00012104A128059C082C08312BA42D083D039
:10BB0000827808120C9A500612072275A1EF028063
:10BB10004F74F412106974FE120FFFE5A8FAC2AF59
:10BB200075C300E5A2E5A4851882851983F0E5A513
:10BB3000C0E0740112104AD0E012805AC082C08363
:10BB4000900B9A7808120ED5D083D082E02508FA9F
:10BB5000A3E03509FB02AE7874F71210698017195B
:10BB60008C828D8312BB7CF0A3AA82AB838C828DE6
:10BB700083A3AC82AD83E970E60297EEE08A828B04
:10BB8000832212BB8AAA82AB8322F08A828B83A390
:10BB900022C082C083E5D98A828B83F0A3AA82ABBC
:10BBA0008319E970F0029D4A74F7121069900BB383
:10BBB000E07036900BB2E06402702E12075EE9FF6F
:10BBC000900C70E0F9120896E9FEEFFA12088A90DC
:10BBD0000BB1E0C0E0900EFFE0FAD0E0C39A500C49
:10BBE000900BB1E004F012089C0297EEEE12BC81BB
:10BBF000C0E0900EFEE0FAD0E0C39A40E9900CA0BD
:10BC0000E06008900BCAE064037006900C70E0805E
:10BC100047EE12BE6912D15A75830E7582FCC3E0DD
:10BC200098A3E0994024900BCAE004F06403700BE1
:10BC3000900EFA12C7A57B0212BEC2900BCAE06436
:10BC400003700CEEF9120890800DE4900BCAF0908E
:10BC50000C70E0F91209B6E9FA900C70E06A60869F
:10BC6000900EB5E0A2E4500E7404900BB2F0EA908E
:10BC70000BB4F002BBE9EA900C70F012087E02BB34
:10BC8000E975F007A4A9F024BBF582E9340BF5832C
:10BC9000E022C082C083900BB312DBC76402700342
:10BCA00012E305029D4AC082C083900BB2E064019A
:10BCB000700512DE92801BE06402700512E30580BD
:10BCC00011E064047012900BB4E0900C70F0F91263
:10BCD00008847403900BB2F0029D4AC082C0837442
:10BCE00001900BB2F0900C70E0F91208847A707B2E
:10BCF0000C79E112067A7C017D007A007B0112BE8C
:10BD0000C2029D4A74F712106989087900E9C0E0FF
:10BD1000A90812DBA1FAE5F0340BFB7C07E4FDD0A7
:10BD2000E0F9120134E4900BB1F00297EE74F412D2
:10BD30001069E9FDEAFCED75F007A4A9F012BDF762
:10BD400064FF7004A3E064FF6010ED75F007A412B7
:10BD5000BDF72401F0A3E03400F0ED75F007A42452
:10BD6000B7F582E9340BF583C082C083900F8C78DD
:10BD700008120ED5D083D0827808120E9C900EC780
:10BD80007808120C60600AED75F007A412BC8714E5
:10BD9000F0ED75F007A424B5FAE9340BFBEA2402B0
:10BDA000EB34000A0AFB8A828B837808120ED57462
:10BDB000017808120E048A828B837808120EE490B0
:10BDC0000F00E0C39C502DED75F007A424B5E934B5
:10BDD0000B1A1AFB900ECB7808120ED58A828B8331
:10BDE000A3A37808120EC28A828B83A3A3A3A3A362
:10BDF000A3E004F002805412BE71E02274F7121026
:10BE000069E9FBFC7D00EB6D604312BE7BC0E0EC9A
:10BE100012BE7CFAD0E0C39A403112BE7BFEEC1217
:10BE2000BC816E7028EC12BE69C082C083ED75F0D3
:10BE300007A424B5F582E5F0340BF58312D15AD06E
:10BE400083D082C3E098A3E0995002EDFC0DEDC3CE
:10BE5000940340B2EC7004790F800B74016C700491
:10BE60007914800279190297EE75F007A412BE7159
:10BE70002224B5F582E9340BF58322ED75F007A491
:10BE800024BBF582E5F0340BF583E022E9FA741463
:10BE90006A70047901800B74196A70047902800257
:10BEA0007900020107C082C083900C70E0900BB44F
:10BEB000F07C027D007A1012BEC0120758029D4A23
:10BEC0007B00900EB4E0F91201E22274F4121069C2
:10BED000EAFEEBFF8E828F83A3A3A3A3A3E0A2E6D7
:10BEE000500575080880037508068E828F83A3A30A
:10BEF000A3A3E02508F98E828F83A3A3A3A3A3E0C5
:10BF0000A2E35004740429F97B007A001205EA8A3E
:10BF10000A8B0BA80AA90BE87001E9700479BE80AE
:10BF20001D8E828F8312CF1BAA0888828983A3A3C8
:10BF3000E02A12B0028E828F8312CF19790002801C
:10BF40005474F0121069EAFEEBFFE4900E5112F205
:10BF5000ACF0A3F0900EB6E064016014E0640260FF
:10BF60000F74B4900E51F012C19912CFA70282C77C
:10BF7000900EE77808120ED575830C75828D7808BF
:10BF8000120C60700474B680DA8E828F83A3A3A330
:10BF9000A3A3E05409640960118E828F83A3A3A335
:10BFA000A3A3A3E07002A3E0700474E880B58E82BE
:10BFB0008F83A3A3A3A3A3E0A2E0402F7A527B1018
:10BFC0008E828F83E0F9120974E9600474B2809361
:10BFD0008E828F83A3A3A3A3A3E0A2E3500D9010AE
:10BFE0005212D821700574BD02BF63900E51E060FB
:10BFF0000302BF678E828F83E0900FD712C1B3F820
:10C00000A3E0F990105012CF21EE240512C177540D
:10C0100015900EC112D197A2E05033900C91E0A27E
:10C02000E0901050E0500512C191800312C6BC127E
:10C03000C6C8901050E0242212B0D774FFF0A3F0CD
:10C0400012C6AE74FF12C1B8E4900FD880509010A1
:10C0500050E012C19112C1C4A2E1400512D81240B1
:10C0600011901050E0242A12C6BE12D84712D7F2FF
:10C070008014901050E0242A12C19312D847240E45
:10C0800012B0D712EE5E12D812500512D82E8003CD
:10C0900012C8AB12D847F812C186E0900EC212C186
:10C0A000C4A2E25006900EB512EE4890105012B0A5
:10C0B0001812D18C740185088285098312C1C45479
:10C0C000246424700912CB05900C70E08001E49088
:10C0D0000FD812C1C4A2E65029850882850983E0E1
:10C0E000440312979F7002A3E07005900C928006A3
:10C0F0008E828F83A3A312D15A8508828509831269
:10C10000CF1B850882850983E04428F01209D48A70
:10C110000C8B0D8C0E8D0F850882850983A3780CFE
:10C12000120EE48E828F83A312CF3412C1C4A2E315
:10C13000503A8E828F83A3A3A3A3A3A3A3A3121118
:10C14000DB8E828F83A3A3A3A3E0F990105212CBBE
:10C1500076AA08AB091209DA7402121015E9700CFC
:10C1600012C199F074BE900E5102BF6A7903120990
:10C17000B0120A4002BF6D12C17CE022F8EF340019
:10C18000F9888289832212C18A22128B28A3A3A351
:10C1900022242D12C6B87402228E828F83A3A3A3F9
:10C1A000A3A3A312F2627402900E5012A46FE09047
:10C1B0000E522212854BE022F0A3F0900C70E0901A
:10C1C0000EC2F022128ED6A3E022C082C083900E4F
:10C1D000BAE07025900EB5E0A2E2501D900FD8E0B5
:10C1E0007004900EC2E0FB12F3F912CD8EE06B608A
:10C1F0000812F3F912CD90EBF0900EB5E0C2E2F028
:10C20000900C91E0A2E0500C900EB5E0A2E4500436
:10C210007902800279011209B07402900E50F090F8
:10C220000FD712CF9B029D4AC082C083900C70E052
:10C2300012123E00030F40C21444C21948C24CC23D
:10C240007901800A79028006790380027900029DD3
:10C250004A74F5121069EAFEEBFF12C2B78E828FA4
:10C2600083A3A3A982AA8389088A09750A0078088A
:10C270001211C07C0B7D007AD47B0B12F3F31210E9
:10C28000158E828F83E07002A3E07003E480138E2A
:10C29000828F8312C7A57B0812BEC2E4900BF2F016
:10C2A0007401900C60F002C60DC082C08312C2B748
:10C2B000E4900C60029D49900EB7E0F0A3E054F7C3
:10C2C000F07A007B0812E7BA2274F6121069EAFECF
:10C2D000EBFF7B0080130A900BD412E45530E3028D
:10C2E00044F0FCEAC39C40130B12E44F30E30244D9
:10C2F000F0FAEBC39A50257A0080DC8B08EE250813
:10C30000F8EF3400F9742628F582E43912C5CC24FC
:10C31000D8F582E4340BF583E06C70BA7A008001C2
:10C320000A12E470FCEA9C5018EE242D12C3C1607E
:10C330001012C5CE24D5F582E4340BF583E06C7081
:10C34000DFEBC0E012E44F30E30244F0FBD0E0C387
:10C350009B5062EAC0E012E470FAD0E09A50569026
:10C360000BF2E0700E740112C8B77AEA7B0B120A66
:10C370006480426401703E8E828F83A3AC82AD8361
:10C380007AEA7B0B12C3B96027E4900BCB12C8B7D3
:10C390007ACC7B0B120A64EE242E1284B0900BDF51
:10C3A000F07402900BF2F07ACB7B0B1208FC800544
:10C3B00079B71208D202B508FB120A5EE922EE2410
:10C3C00016F582EF12848864FF22C082C083900B2E
:10C3D000F2E064027008900EBAE0F91208D2029DF1
:10C3E0004A74F7121069E9FEE4900C60F012C2B7CB
:10C3F0007410900BE0F0EE900BE1F07CCC7D0B7AAA
:10C40000E27B0B120A647AE07B0B0297EBC082C0DE
:10C4100083900C5FE0A2E25020C2E2F0A2E3500D54
:10C4200012CB6A7411900FDC12C43C800C900EBACF
:10C43000E0600612C4451208F0029D4AF07ADC7BE7
:10C440000F12042822900EB7E054FB12E7C97A04B9
:10C4500012E7B82274F5121069EAFEEBFF900EB6EF
:10C46000E06404600302C5B512C5C0600302C5B52F
:10C47000900C0DE0C3940A400302C5B5750A008014
:10C480002312C5B7850A0875090074037808120FCE
:10C49000ECE508240EFAE509340C12C3B860030277
:10C4A000C5B5050A900C0DE0FAE50AC39A40D274AE
:10C4B00005900E50F0900EC2E0900E5212C5F5900D
:10C4C0000E5312C5E77A557B0E120A64129C8B2418
:10C4D00011F582E912D14B50047C0F80027C0012CE
:10C4E000D16930E30244F012C9D5741312D12F7010
:10C4F00001EB600302C5B588828983A3A3A3A3A32C
:10C50000A312CD9AE82407FCE93400FD7A5D7B0E86
:10C5100012C9CC900E81F07B00800C0A900C03E0D5
:10C52000FCEAC39C40160B900E6712E45530E30200
:10C5300044F0FAEBC39A501F7A0080E08B08E508BC
:10C54000247AF582E4340E12C5CC2404F582E43456
:10C550000CF583E06C70C4900C03E0600E900E67E5
:10C5600012E45530E30244F06B604A12C5B7900CF8
:10C570000D12A0B274037808120FECE508240EFA2D
:10C58000E509340CFB120A64900C0DE00412CFA7ED
:10C59000900C0DE0640A6009E0FA900C7AE06A7091
:10C5A0001412C5D5900C5F12DBC2900C77E06005C9
:10C5B00014900C5EF08056EE2412FCEF3400FD2245
:10C5C000EE241AF582EF128488640322F583E0FCDE
:10C5D0008A08E50822900EB7E0F0A3E054FBF07A59
:10C5E000007B0412E7BA22E8F0A3E9F0EE2412FC83
:10C5F000EF3400FD22F0EE242A12C5FD22F582EF71
:10C600003400F583E0F8A3E0F9221210157F03024D
:10C6100010CF74F6121069900BF7E0A2E050047886
:10C620000F80027800FC7B007A0074705CC4C0E06C
:10C6300012CAFDD0E02C2412F912D8527002A3E0E5
:10C64000700A12CB6A79BE1208EA805F901050E03F
:10C6500012C6BC12C6C8900BF512EE5E900BF31218
:10C66000B00C12C6AE12D85812ED36A3A312D7EDF5
:10C6700074018E828F83A3A3A3A3A3F07CF77D0B09
:10C68000EE2406FAEF12C896900C0212C8A2900C83
:10C690000B12CB767A0412BEC0741112F2A9E4F028
:10C6A000A3F0900C5FE0D2E212F1F702B50890100F
:10C6B00050E0242B12C6B82212F2CB22242D12C62F
:10C6C000C22212F2CB74032212F2BA7402F0227464
:10C6D000F7121069E9FE7406900E50F0900C7AE0A3
:10C6E000C0E0900C0DE0FAD0E0C39A500474B7801B
:10C6F00008E0700474B88001EE900E51F0900C0DBB
:10C70000E0900E520297E8C082C08312F695640F43
:10C710007035900C5EE004F0900C5F12EE59900CB6
:10C720005EE0C0E0900C77E0FAD0E0C39A400D12D2
:10C73000CB6A900EBAE0F91208EA8017900C5FE01D
:10C74000A2E0500F1208F67AC27B0E79E112067A47
:10C750001208E4029D4AC082C083900C5E12C79A00
:10C76000900C77E0FAE89AE99400C365D033501D45
:10C77000900C72E07002A3E06013900C7212C7A5D7
:10C780007B0412BEC2900C5FE0C2E08006900C5F9A
:10C79000E0D2E0F0E0C2E1029D49E0F8740128082F
:10C7A000E43400F922E0FCA3E0FD7A002274F612E2
:10C7B0001069EAFEEBFF900EB6E06401600302C868
:10C7C0005F740312CB22900E53F0A3F07401900E0D
:10C7D0005512C8B77A567B0E120A648E828F83A3D5
:10C7E000A3A3A3A3A3A3A3A3E0A2E05004780F8074
:10C7F000027800FC7B007A0074705CC4C0E012CA4E
:10C80000FDD0E02C2413F912D8527002A3E070037B
:10C8100002C89312CAF0901050E0242212C8A71246
:10C82000C8AB12CB32740285088285098312CF27E8
:10C83000F0EE2409FCEF3400FDE5082407FAE509D1
:10C8400012C896EE241412849C12C8A2790712CE44
:10C85000DA12C1BA901052E4F0A312F1F7803474E6
:10C8600003900FDCF074FF900FDEF0900FDF12CF1B
:10C870000612C8B77AE27B0F120A6474B4900FDD17
:10C88000F0900C60E070097A507B0E12042880034F
:10C890001208CC02B50812CAE08A088B09A808A9B8
:10C8A0000922129763F02212D8082212C8AF22126E
:10C8B000F2C574FFF0A32212CF13AC82AD8322C065
:10C8C00082C08379011209B0900EBA12CD9A900CF1
:10C8D00060E070097A507B0E12042880031208CCA5
:10C8E000029D4A74F6121069EAFEEBFF900EB6E064
:10C8F0006401600302C9C912C5C0600302C9C9EE60
:10C900002430F582EF12EE4D400474FF8003E0C343
:10C9100033900EB1F0C0E0900C71E0FAD0E0C39A11
:10C92000500302C9C97404900E82F0EE2412F50877
:10C93000EF12E542AC08FD7A847B0E120A64E490A3
:10C940000E83F0AA08AB091209A4EA7001EB700E7D
:10C950001209AAE964FF700674B1900E83F0129C6C
:10C960008B128011A2E050047C0F80027C00F5083D
:10C970008E828F83A3A3A3A3E0FE7406550812D171
:10C98000815508C430E30244F012C9D574122AFA62
:10C99000E43BFBEA6E7001EB702FE82406FCE934FF
:10C9A00000FD7A8C7B0E12C9CC900EB0F0900C601A
:10C9B000E0700F900C76E060107A827B0E120428F3
:10C9C00080077A837B0E1208C602B5081209CE8A48
:10C9D000828B83E022FA3395E0FBEA2CFAEB3DFBF5
:10C9E0002274F6121069EAFEEBFF900EB6E06401C5
:10C9F000600302CAC48E828F83A3AA82AB8312090A
:10CA0000A4EA7001EB70131209AAE964FF700B121B
:10CA1000CB2074B012CAE702CAD712D145500478AD
:10CA20000F80027800FC7B007A0074705CC4C0E068
:10CA300012CAFDD0E02C2414F912D8527002A3E0DF
:10CA4000700302CADA12CAF012CEEEA3A3A3A3A304
:10CA5000A3A3A312CB2D900C91E0A2E0500F12CB18
:10CA600005900C9E12CEF6E8F0A3E98012850882AC
:10CA7000850983A3A3A3A3A3A374FEF0A374FFF06B
:10CA80007403850882850983A3A3A3A3A3F012CE10
:10CA9000E3240812CADDEE241612C17C12BB7C12FC
:10CAA000D197901039F079051209B08E828F83E00A
:10CAB000900EC2F0120A04742412F2A9E4F0A31238
:10CAC000F1F780167409900FDCF074FF900FDE12FE
:10CAD000CB19F07ADC7B0F12042802B508FAE509BD
:10CAE0003400FB1209C822900E51F07A507B0E22BE
:10CAF0001209C28E828F83A3AC82AD832274065C3E
:10CB0000C31328FC221208B4E9C4333354C0FA8595
:10CB10000882850983E04AF022F074B4900FDD2288
:10CB20007409900E50F074FF900E52F022A3E012A0
:10CB3000D83B12F2B1F508A3E0F509AA08FB1209E7
:10CB4000BC22C082C083900EBAE0700D900C7B12A4
:10CB5000CB767A0812BEC0800E12CB6A7409900E92
:10CB600050F074FF12CF9C029D4A79011209B01255
:10CB70000A0A2212EB8BE0FCA3E0FD2274F01210F3
:10CB8000698A0C8B0D900EB6E06405600302CD84BB
:10CB9000EA241AF582EB12C5C6600302CD848A82AC
:10CBA0008B83A3A3128C2B2415F582E50912D14B9C
:10CBB00050047A0F80027A00FE850C828B83A3A337
:10CBC000A3A3E0FC74065EC3132AFAE43400FB74EA
:10CBD000705EC430E30244F0F83395E0F9E82AF8D7
:10CBE000E93BF9741628F8E439F9E86C7001E9605A
:10CBF0000302CD84900EB7E054F712E7C97A081209
:10CC0000E79B7409900E5012CDA012CD9AE508242E
:10CC10000BFCE5093400FD7A537B0E1209CE900E11
:10CC200051E0600302CD7AE50C2412FAE50D12D131
:10CC3000387002E5836005E0F50A800B1209AAE965
:10CC4000F50A12E0D4E9F0E50A900E52F0900E5386
:10CC5000E0A2E0502B85088285098312D16212126E
:10CC600008010280CC6BCC72CC79CC12CD87740FCA
:10CC7000801912CD877414801212CD877419800B1D
:10CC8000900EC2E0C0E012CD87D0E0F0E875F02B46
:10CC9000A424A2FEE9340CFFE50C242AF582E50D5C
:10CCA00012EB7C12CF21E50C2412FCE50D3400FDC3
:10CCB000EE2404FAEF3400FB120A64900C91E0A217
:10CCC000E05005900C9E800D850882850983A3A302
:10CCD000A3A3A3A3A312B00CE50A75F02BA424A36D
:10CCE000F582E5F0340CF583EAF0A3EB12CDA0A3B6
:10CCF000A3A312A52612849A12CF21EE2424F508AC
:10CD0000EF12E5427C037D007900AA08FB12013492
:10CD1000750C6D750D0E750E00780C1211C0900E0D
:10CD20005D12E469AA08AB0912F3F3121015900E14
:10CD30005412A526242212849C12CF21900E53E077
:10CD4000C0E0EE241012849CD0E0F0900EC7780C66
:10CD5000120ED5EE242712849C780C120EE4EE24D9
:10CD600011F582EF12D373740390104FF0A90A12D9
:10CD70000A1C74FF90103AF0800A12CB6A7A507B3A
:10CD80000E1204280282C7A80AE875F02BA4A9F0A5
:10CD900024A5F582E9340CF58322E0900E51F022AF
:10CDA000F0850882850983A3A3A3A3A3A32274F615
:10CDB000121069EAFEEBFF900EB6E0640160030218
:10CDC000CEBD12C3BE600CE0FA900C6AE06A60034C
:10CDD00002CEBD7403900E5012CF41900E5212CF6E
:10CDE0000F12D15A900E5312CF217401900E55128A
:10CDF000D3A67A567B0E120A6412D1455004780FDE
:10CE000080027800FC7B007A0074705CC4C0E01281
:10CE1000CAFDD0E02C2416F912D8527002A3E0709B
:10CE20000302CED78E828F83E0700E12C3BE6009DC
:10CE3000EEFAEFFB120932800674FF900C6AF012D2
:10CE4000D7D9EE2403FCEF3400FD12CEEE12CB2D29
:10CE500012CB05740412CF2712CF4164FF60221257
:10CE6000F3FC12F10DA2E04018EE241612849C127D
:10CE7000D385E9340CF58312CEF6A3E8F0A3E9805C
:10CE800013850882850983A3A3A3A3A3A3A374FE88
:10CE9000F0A374FFF0E5082409FAE5093400FB79F2
:10CEA0005312067412CEE3240B12CADD790812CE97
:10CEB000DA12F2ACE412C1B8120A40801A7403907C
:10CEC0000FDC12CF41900FDEF0900FDF74FF12CF16
:10CED0000612CB1912C43C02B5081209B0741490A2
:10CEE0000EC122EE240BFCEF3400FDE5082212D720
:10CEF000FE8E828F832212C604850882850983A351
:10CF0000A3A3A3A3A322F0A3F07401900FE1221224
:10CF1000CF132212A46FA322A3A3A3A3A3A3A3A30B
:10CF2000A3E8F0A3E9F022A3A3A3A3A312A46F1282
:10CF3000CF34A322E0850882850983A3A3A3A3A3FA
:10CF400022F0EE241612848522C082C083900C6ADF
:10CF5000E064FF6018900EBAE0601C900C6A12F456
:10CF600050900C6A12EB7674FF900C6AF079011203
:10CF700009B012CFA08021E490104FF0900C6AE02D
:10CF8000F9120A1CE96011E490103AF07A027B0F62
:10CF900079E512067A120A22029D4AE0900E52F0BA
:10CFA000900EBAE0900E5112CAEA1204282274F2CE
:10CFB000121069EAFEEBFF900EB6E0640160030216
:10CFC000D0BE12C5C0600302D0BE900C60E0640108
:10CFD000700302D0BE900C91E0A2E0400302D0BEEC
:10CFE000129C8B2412F582E912D14B50047C0F80E5
:10CFF000027C0012D16930E30244F012C9D57414E6
:10D0000012D12F7001EB600302D0BE88828983A306
:10D01000A3A3A3A3A312D18C12D15E121208010202
:10D0200037D028D02DD032D0750A0F8010750A1451
:10D03000800B750A198006900C70E0F50AE8240848
:10D04000FCE93400FD7A8E7B0E1209CE8A0C8B0D22
:10D05000A80CA90D88828983E090103912D197908D
:10D060000EB3F0900C6AE064FF6005750BFF802042
:10D07000EE2412FAEF12D1387002E5836007E0F572
:10D080000B74B580071209AAE9F50BE4900E83F042
:10D090007408900E82F0E50B900EB212C5F5900E5A
:10D0A0008412C5E77A867B0E120A6474FF650B70E2
:10D0B0001074B1900E83F07A827B0E1204280284E1
:10D0C0006FE50B900C6AF0900E8EE0900C61F09082
:10D0D0000C62E508F0A3E509F0E50A900C64F09015
:10D0E0000E8F12D15A900C6512CF217A0080198AC6
:10D0F00082A882E824A8F582E4340EF583E0C0E03B
:10D10000E812D125D0E0F00A900E9812E473FBEA01
:10D110009B40DCEAC39403509E8A08E50812D1259F
:10D12000E4F00A80EE2467F582E4340CF583222AC9
:10D13000FAE43BFBEA6508223400FB1209A48A8268
:10D140008B83E58222EE240BF582EF128488A2E025
:10D1500022A3A3A3A3A3A3A3A3A312C604228882EA
:10D160008983E0C41313540322F50A8E828F83A3AC
:10D17000A3A3A3E0F5087406550A12D181550AC489
:10D1800022C3132CFCE43400FD747022E0F508A3E4
:10D19000E0F50922F0A3EBF088828983E02274F4A1
:10D1A00012106974FC120FFFEAFEEBFF900C6AE0AC
:10D1B000C0E012E0D4D0E0F0900C61E0A2E0502F8B
:10D1C000900C6A12F11F8E828F83A312B00CE82498
:10D1D0000CF582E912849F12EE71900C6212B00C71
:10D1E000E8128FFBE912849FEAF0A3EB02D2BF9012
:10D1F0000C9C12B00C900C6A12F3FC24AEF582E584
:10D20000F0340CF58312EE71740212104AAA82AB4C
:10D21000837950120674851882851983AA82AB839C
:10D2200079531206741208308A088B09A808A909D4
:10D23000851882851983E0687003A3E06960E6C3FE
:10D24000E894FEE994FF50DD750900AA09EA75F03B
:10D250002BA4ABF024A2F582EB340CF583E064FF41
:10D26000603BEA75F02BA424B0F582EB340CF58317
:10D27000E0687003A3E0697024740212104A12B0CF
:10D280000CE50975F02BA485F00824AEF582E508BD
:10D29000340CF583E06A7003A3E06B60090509E5CF
:10D2A00009C3940A40A5740A6509600302D2259057
:10D2B0000C6A12D385E5F0340CF583E8F0A3E9F0AD
:10D2C000900C61E0A2E0500D900C64E0C0E012D33D
:10D2D0008DD0E08012900C70E0C0E012D38DD0E0D1
:10D2E00012CF0F74FFF0A312D3A6900C6A12F3FCB6
:10D2F00024A6FAE5F0340CFB120A64900C6A12F1D1
:10D300001AE5F0340CFB900C9E12D39E12CF2090A5
:10D310000C61E0C0E0128920D0E0F0900EC77808E0
:10D32000120ED5EA2427F582EB12849F7808120E9C
:10D33000E412D36812D373900C6512A3EB2422F588
:10D3400082EB12849F12CF2175086775090C750A4C
:10D350000078081211C07C037D00EA2424FAEB1245
:10D36000D37C12101502804FEA2411F582EB22F5CE
:10D3700082E50912EB8BE4F022FAE50B3400FB1294
:10D38000012874032212F40024B0F58222900C6A62
:10D3900012F40024A5F582E5F0340CF5832212C6C0
:10D3A000048A828B8322F0EE2403FCEF3400FD22FA
:10D3B00074F412106974EA120FFF900C91E0A2E06D
:10D3C0005050790A1209B0900F907808120ED57457
:10D3D0000112104A7808120EE4740512104AE4F0A3
:10D3E000900C7DE0C0E0740612104AD0E0F07408A2
:10D3F00012104A7403F0741412104A74D9F0A37412
:10D400000FF07401900C6BF012104AAA82AB8312D9
:10D4100006D479011201B8900C91E0A2E0402012EC
:10D42000DE7C740D900E50F0E4900E51F074018586
:10D43000188285198312DBE47A507B0E120428745B
:10D440001602805174F012106974E9120FFFEAFE9F
:10D45000EBFF900EB6E0640A600302D62A8E828F3C
:10D4600083A3A3E0600302D539750A007A01802AFC
:10D470008E828F8312D1518A08E82508F582E9123D
:10D4800084B3C0E0850A08E82508F582E91284B370
:10D49000FBD0E0C39B50028A0A0A8E828F83A3A32B
:10D4A000A3A3A3A3A3A3E0FBEAC39B40C3E50A1283
:10D4B00012080001C2D4BAD4BED4740F800674140A
:10D4C00080027419900C70F0900F90780C120ED5A9
:10D4D000740212104A780C120EE4740612104A7488
:10D4E00001F0900C7DE0C0E0740712104AD0E0F02B
:10D4F000740912104A7405F07AA57B0012013A747F
:10D500001512104A12EE71741512104AE07002A33F
:10D51000E07017E4900C6BF0F91209B0740D900EE6
:10D5200050F074BE12CFA402D62A740212104AAA76
:10D5300082AB831206D402D62A12D62F12D64D649D
:10D54000FF7004A3E064FF60F07D00803A851882DC
:10D55000851983E0FAED75F021A4F8A9F08E828F89
:10D5600083A3A3A3A3A3A3A3A3A3E028FCA3E039BD
:10D570008C82F583A3A3A3A3A3A3A3A3A3E06A70B0
:10D5800003A3E06B60B30D8E828F83A3A3A3A3A339
:10D59000A3A3A3E0FAEDC39A40B38E828F83A3A323
:10D5A000A3A3A3A3A3A3E06D708F8E828F83A3A3F5
:10D5B000A3A3A3A3A3A3A3E07002A3E060108E82A1
:10D5C0008F83A3A3A3A3A3A3A3A3A312F25E85188F
:10D5D00082851983AA82AB83795012F5C112D15A80
:10D5E000900C9C12CF2112D62F12D63DC3E094F09E
:10D5F000A3E094FF50F0851882851983AA82AB833B
:10D60000795312F5C112D15A900C9E12CF217C9CF5
:10D610007D0C7A0279221203E07C9E7D0C7A0279DD
:10D62000231203E012094412094A74170282C41239
:10D630000830851882851983EAF0A3EB2212D641BF
:10D640002212D64522F08518828519832212D641EE
:10D65000E022C082C08312DBAC7A6C7B0F79461269
:10D66000067A7A6A7B0F794512067A7A6D7B0C7995
:10D670004112067A029D4A74F412106974DD120F89
:10D68000FF900C9C12D15A740412104A12CF2190B0
:10D690000EC77808120ED58518828519837808126E
:10D6A0000EE4900C70E0C0E0740612104AD0E0F076
:10D6B000740812104A740FF0740912104A740FF0B3
:10D6C000740A12104A7401F0740B12104AE4F074D8
:10D6D0000C12104AE4F0741512104AE4F07420128F
:10D6E000104AE412D6EE120596742302805112D627
:10D6F000F22212D645AA82AB832274F412106989F1
:10D7000008900EB6E06401700A7A527B1012097418
:10D71000E96028900EB6E06401600474B48002747D
:10D72000B2900FDDF0740E900FDCF0E508900FDE84
:10D73000F07ADC7B0F12042802D7D690105212D850
:10D74000217B007A006004790A8002790612D8529F
:10D750007002A3E07013740E900E50F0E508900E66
:10D7600052F074BE12CAE780CC12D7D9901052E0A2
:10D7700012D7F212D812500512D82E800312C8AB5D
:10D7800012F57A12D7ED74058E828F83A3A3A3A31B
:10D79000A312D8472411F812B47F602212EE44EE8F
:10D7A0002405F50AEF3400F50B780A1211C479014B
:10D7B00012F26C121015E9700512F25B809879066E
:10D7C0001209B090105212D7E3900EC2F0E5089003
:10D7D0000C6CF012F1F202805490105012B0101242
:10D7E00009C22212D7E8E02212B020A322E012F2EE
:10D7F0009D2212D7F6222404FCA3E03400FD9010F1
:10D8000050E0242212D80822FAA3E03400FB120AC6
:10D810006422901052E0241012D828A2E022900A2C
:10D82000CBE0241112D82822F812F2CCE02290107A
:10D8300052E0240C12D82812D83B22FAA3E0FB12A3
:10D84000F2C5EAF0A3EB2212F2ACE0227B007A00F0
:10D85000790F1205EA901050EAF0A3EBF090105007
:10D86000E022C082C08374FE120FFF8518828519E2
:10D8700083AA82AB83900C6CE0F9120974E97009F9
:10D8800012D8C4900C6C12EB7679011209B0740EA8
:10D89000900E50F0900C6C12CF9B02F55374F7125F
:10D8A000106974FE120FFFE9FE851882851983AA9C
:10D8B00082AB83120974E9700812D8C4EEF9120918
:10D8C0009E028EAC851882851983128B1E74FFF020
:10D8D0002274F512106974F8120FFFE9900EB4F07B
:10D8E000E4900EB5F07401900CA0F0747F900CA140
:10D8F000F0E4900BB2F012069812098CE4900C91AF
:10D90000F0900C9BF0900C9C74FFF0A3F0900C9E98
:10D91000F0A312D63DAC82AD837A0879011203E6FA
:10D92000E9702875086E75090F750A0078081211DC
:10D93000C07C087D00740312104AA982AA837B0070
:10D9400012012E7403121015E9603275080C750966
:10D9500078750A0078081211C07C087D00740312E3
:10D96000104AAA82AB8312F3F31210158518828530
:10D970001983AC82AD837A0879011203E012099809
:10D98000740802C60A74F612106974FD120FFFEAD9
:10D99000FEEBFF74805FF9E47001E9700302DA26A0
:10D9A000900EB412DBD012CF21E87001E9606E85D1
:10D9B00018828519831284A412123E000307D5D958
:10D9C00008E2D90DC8D910DA851882851983E0FAE2
:10D9D0001209EC803B851882851983E0FA12093E12
:10D9E000802E900EB6E0640A7026740D900E5012D0
:10D9F000DBF112CD9A700A740212104A740112DB24
:10DA0000E479011209B0900C6BE06004E412CFA736
:10DA1000851882851983AA82AB83120632EEFA74C6
:10DA2000806FFB02DB9C900EB7EEF0A3EFF0900E40
:10DA3000B7E0A2E05003120A4C900EB7E0548060A9
:10DA4000031209E0900EB7E054026005E4900EC1A5
:10DA5000F0900EB7E05404600B900EB6E0640470D2
:10DA6000031208F0900EB8E05404F9E47001E96084
:10DA700021900EB6E064047019900C5F12DBC2A214
:10DA8000E1500F1208F67AC27B0E79E112067A1283
:10DA900008E4900EB7E054086013900EB6E06405F9
:10DAA000700B12CB6A12CB2074B312CFA4900EB7B6
:10DAB000E05420602E900EB6E064016005E0640240
:10DAC000701612DBAC900EB512DBC764037009123E
:10DAD000089C7402900BB2F0900C6E12CB767A40D8
:10DAE00012BEC0900EB7E05440601E900EB5E0A28A
:10DAF000E45016900EB6E064016005E06402700622
:10DB000012E6FD12087812E70E900EB8E05401F903
:10DB1000E47001E96014900BB3E0700E900BB2E07A
:10DB2000640170067402F012089C900EB7E0541065
:10DB3000600312086C900EB8E05402F9E47001E939
:10DB40006018900C70E0F912DBA1F582E5F0340B5F
:10DB5000F583E4F0A3F0900BCAF0900EB8E05408FF
:10DB6000F9E47001E9600579B81208D2900EB8E0C6
:10DB70005410F9E47001E9601F90104FE0640360F5
:10DB80000AE064046005E06402700779B9120A3A99
:10DB90008006E070037401F07A007B00740302B524
:10DBA00005120896E975F007A424B5227A707B0C5B
:10DBB00079E112067A7A6D7B0F795212067A2290F9
:10DBC0006180E0D2E0F022E0D2E0F0900BB2E022FF
:10DBD000E0F912014C8A088B09A808A90985188266
:10DBE00085198322F0AC82AD837A00798312098093
:10DBF0002212DBF52212D645128B22A32274F512D3
:10DC00001069E9FEEAFFECFAEDFB74A02EC3941054
:10DC1000505F7C2E7D1A74A02EF50A850A087509BE
:10DC20000074027808120FECEC2508F582ED350936
:10DC300012DE717001E9604D850A087509007402F1
:10DC40007808120FECEC2508FCED3509FDE493F59E
:10DC500008740193F509750A0078081211C08C82C6
:10DC60008D83A3A3E493FC7D0012F3F312101580BF
:10DC70006774802EC3940950087C6E7D1A7480806E
:10DC80009779F4805574686E7025EFC3940A501B21
:10DC9000EF75F02BA424A2F508E5F0340CF5097516
:10DCA0000A0078081211C07C2B80BC79F9802B7493
:10DCB000846E700DEAFCEBFD7A0879011203E680B0
:10DCC0001774676E70BB900EB5E0A2E45004740147
:10DCD0008001E48A828B83F0790002C60DC082C085
:10DCE00083E9FD12EB436D7017ED75F02BA424A2B0
:10DCF000F8E9340CF98A828B8312CF2179008002F3
:10DD000079B2029D4A74F412106974F8120FFFE997
:10DD1000FE1209987901120668851882851983AC6C
:10DD200082AD837A0879011203E68518828519830A
:10DD3000AA82AB8379E212067A900F01E090619695
:10DD4000F07AA17B0C79E512067AEE607C12098CE0
:10DD50007F008F0875090074027808120FECE5083F
:10DD60002431F582E509341AF583E49360398F088C
:10DD700075090074027808120FECE508242EF5826C
:10DD8000E509341A12DE717001E9601B8F0875090C
:10DD90000074027808120FECE508242EF8E5093427
:10DDA0001A12E1481203E00FEFC3941040A47F0061
:10DDB000EFF912099E0FEFC3940A40F47C6D7D0CBD
:10DDC0007A007983120980801B900F947808120ED4
:10DDD000D5900C8D7808120E497C8D7D0C7A0479D3
:10DDE000061203E0E4900EB5F0900EB6F07A707B68
:10DDF0000C79E112067A900BB3E07022900BB2E03E
:10DE00006402701A12E7C37A1012E7A1F0A3E0547B
:10DE1000FDF07A007B0212E79D12075E800B900BEB
:10DE2000B2E06401700312DE92E4900BB2F01208CB
:10DE3000C074FF900C6AF079011201B8900C9BE05D
:10DE4000602A900C91E0A2E0501F7A9C7B0C7950E4
:10DE500012067A7A9E7B0C795312067A790A120995
:10DE6000B012094412094A800312DE7C7408028051
:10DE700051F583E493F8740193F9E8227A6D7B0FEE
:10DE8000795212067A900EB5E0D2E0F079011209CB
:10DE9000B022900EB7E0F0A3E054FEF07A007B01D0
:10DEA00012E7BA2274EC121069890B8A0AECFEEDB3
:10DEB000FF74A0250BC39410400302DFA875082E41
:10DEC00075091A74A0250BF51285120C750D0074D6
:10DED00002780C120FEC12E00312DE717001E9609F
:10DEE0004485120C750D007402780C120FECE508D5
:10DEF000250CF510E509350DF5118E0C8F0D750EFD
:10DF000000780C1211C0851082851183A3A3E493BD
:10DF1000FC7D00851082851183E493FA74019312CD
:10DF2000F3F212101585120C750D007402780C12A4
:10DF30000FEC12E003F583A3A3A3E49360347513FD
:10DF40000074027812120FECE5082512F510E509AD
:10DF50003513F511EEFCEFFD851082851183A3A327
:10DF6000E493FA851082851183A3A3A3E493F912A5
:10DF700003E07468650B704CE50AC3940A50418E47
:10DF80000C8F0D750E00780C1211C07C2B7D00E5F6
:10DF90000A8CF0A424A2FAE5F0340C12F3F2121069
:10DFA00015A90A12099E80567480250BC394095046
:10DFB0000B75086E75091A748002DEC579F480400D
:10DFC00079F9803C7461650B70051209FE802F742D
:10DFD00084650B701AEEFCEFFD7A0879011203E0FC
:10DFE000E97008EEFAEFFB79E2801079BE801174D7
:10DFF00088650B7009EEFAEFFB79E512067A790075
:10E0000002A679E508250CF582E509350D2274F2A2
:10E010001210698A088B098A828B83E012123E00F3
:10E02000040776E008ADE00C2FE00D6AE0AAE0EA14
:10E030002403F8EB3400F9E8FEE9FF8E828F8312A7
:10E04000B00C12062C850882850983A3E0900EBAD5
:10E0500012A46B12D15A900EBB12CF217A017B0011
:10E06000900EB4E0F912016A8040AE08AF09EE707C
:10E0700001EF6036802A750B0BAA0B7B0012013A68
:10E080008A0C8B0DAE0CAF0DEE7001EF601C750AA3
:10E090000078081211C0AC0B7D0012F3F3121015BA
:10E0A000EEFAEFFB900EB412913202846F750B0200
:10E0B00080C7C082C083901A0B7C6E7D0C742312C3
:10E0C0000F21FBEB12E0D474FFF00BEBC3940A407A
:10E0D000F2029D4A75F02BA424A2F582E5F0340CDF
:10E0E000F5832274F4121069EAFEEBFF89097508C2
:10E0F00000804B85080A750B007402780A120FEC39
:10E1000012E160A3A3A3E493603285080A750B00B3
:10E110007402780A120FEC12E16012DE737001E9EA
:10E12000601A85080A750B007402780A120FECEE6B
:10E13000250AF8EF350B12E1481203E60508E50859
:10E14000C3950940AE028054F9E493FC740193FD39
:10E15000A3A3E493FA88828983A3A3A3E493F92277
:10E16000EE250AF582EF350BF5832274F71210695C
:10E1700079107A2E7B1A12099279097A6E7B1A121B
:10E180000992750800E50812E1B61203E612E1CE25
:10E190001203E60508E508C3940A40E90297EE7405
:10E1A000F71210698908E912E1B61203E012E1CE14
:10E1B0001203E00297EE75F02BA424A2FEE5F034E2
:10E1C0000CFFEEFCEFFD7A2774242508F922EE24DB
:10E1D00027FCEF3400FD7A04742E2508F92274F729
:10E1E000121069EAFEEBFF750800A808E812EB3D83
:10E1F0006024EEFCEFFDE875F02BA424A6FAE934C8
:10E200000C12C3B86010E50875F02BA424A2FAE53F
:10E21000F0340CFB800D0508E508C3940A40CB7A66
:10E22000007B000297EEC082C0837900E912E0D43F
:10E23000E064FF600909E9C3940A40F079FF029D98
:10E240004A74F7121069E9FE900EB6E0FF74016F90
:10E250007005120872800574026F60F6EE900EB6BB
:10E26000F074016E705D900C91E0A2E050097A703C
:10E270007B0C79E112067A900BB2E07029900C9138
:10E28000E0A2E0507D7402900BB2F0E4900BB3F08A
:10E290007C15FDF97AB57B0B120134E4900BCAF0C2
:10E2A000900BB1F08059900BB312E70974026F70B4
:10E2B00043900BB2E064036005E06404704412080C
:10E2C0007E803F74026E703A900C91E0A2E050099B
:10E2D0007A707B0C79E112067A900BB312E709741D
:10E2E000016F7010900BB2E0640270167403F012AC
:10E2F000E305800EE0700B900BB2E0640270031235
:10E30000089C0297EE12E7C37A1012E7B812075E74
:10E3100022E9FA740F6A70047914801074146A7018
:10E32000047919800774196A7002790F0201077461
:10E33000F4121069EAFEEBFF742A8E828F83F012CA
:10E3400009D48A088B098C0A8D0B8E828F83A302D5
:10E350008009C082C083EA242DF582EB12849F7469
:10E3600003F0EA242AF582EB12849F7403029D498C
:10E3700074F1121069EAFEEBFF8C088D09900C9184
:10E3800012E45A900C9212E46112CF20750C94752D
:10E390000D0C750E00780C1211C07C077D00EE2468
:10E3A000030A0A0AEF12D37C121015850882850928
:10E3B0008312F1E6A3A3A3A3F0EE240BFEEF340037
:10E3C000FF850882850983E0A2E0501B750C7E75ED
:10E3D0000D0C780C1211C07C0F12F3ED121015EE1B
:10E3E000240FFEEF3400FF850882850983A3A982EC
:10E3F000AA83890C8A0D780C1211C08508828509C0
:10E400008312E46912F3EF121015850882850983DF
:10E4100012E547EE28FEEF3400FFE5082404F50C72
:10E42000E5093400F50D780C1211C074705AC4124D
:10E43000F3EC12101585088285098312E45530E348
:10E440000244F0F83395E0F9EE28FAEF028622EE66
:10E45000241312EB88E05470C422E08E828F83F084
:10E460002212C6048E828F832212E473FC7D002266
:10E47000900BD4E05406C3132274F11210698A0A77
:10E480008B0BECFEEDFF8E0C8F0D750E00780C12D1
:10E4900011C07C0B7D0012F3F3121015EE240BF566
:10E4A00008EF12E5428E828F83A3A3A3A3A3A3A3A5
:10E4B000A3A3A3E0A2E0502085080C85090D780CE9
:10E4C0001211C07C0F7D00E50A240B12D3791210C3
:10E4D00015E508240F12E53EEE240AFEEF3400FF96
:10E4E00085080C85090D780C1211C08E828F83125D
:10E4F000E469E50A241A12D3791210158E828F83EB
:10E5000012E547E5082812E53E85080CF50D780C64
:10E510001211C074705AC4FC7D00E50A241D12D388
:10E52000791210158E828F8312E45530E30244F085
:10E53000F83395E0F9E50828FAE509028622F5089E
:10E54000E5093400F50922E0FA74065AC313F822EB
:10E5500074F0121069900C8D780C120ED5900ECBC1
:10E560007808120ED5900C8D7808120E49900C8DFB
:10E570007808120ED574FF5508F874035509F9E8A8
:10E580007001E9700B7C8D7D0C7A0479061203E032
:10E59000AA0CAB0DAC0EAD0F0282C774EC12106961
:10E5A000EAFEEBFF8C128D138908741412104AE0F6
:10E5B000F510A3E0F51112EE447A0E7B1079E21209
:10E5C00006748E828F83A385820A85830B780C1252
:10E5D0000ED512EBA88E828F83E090101B12978FBE
:10E5E000780C120ED590101C780C120EE4E5122453
:10E5F00004FCE5133400FD7A207B10120A6412E655
:10E60000B8AA0AFB12022A750C28750D10780C1294
:10E6100011C4780A1211C4750A0D750B00780A121C
:10E6200011C4750A1B750B10780A1211C485080AEB
:10E63000750B00780A1211C4AC10AD117A0E7B1064
:10E640007904120242740A121015E97066750A28DC
:10E65000750B10780A1211C412E6B8780A1211C4A8
:10E6600085080A750B00780A1211C4AC10AD117A36
:10E670000E7B1079041202487406121015E9702FEF
:10E680007A008A82A882E82428F582E43410F5838F
:10E69000E0C0E0E8250AF8E43400F9E51028F58246
:10E6A000E51139F583D0E0F00AEAC3940440D37948
:10E6B000018002790002A679E5122412F50AE51319
:10E6C0003400F50B22C082C08312E706D2E4F0903A
:10E6D0000C91E0A2E0501D900EB6E0640170057947
:10E6E000021209B0900C74E07002A3E0600312E71C
:10E6F0000E1208787A6D7B0C795202D6717A6D7B96
:10E700000C795212067A900EB5E0C2E0F022900C1D
:10E710006E12C60475830C758274E0C398FCA3E086
:10E7200099FD7A207B00900EB4E0F91201E2227488
:10E73000F7121069EAFEEBFFEE7001EF700812E7C6
:10E74000A91209E08050900EB5E0C2E4F0D2E0F0EA
:10E75000900EB7E054BF12E7C97A4012E7A154DF28
:10E7600012E7C97A2012E79B7A6D7B0F7952120665
:10E770007A900EB6E06402700579011209B074FF58
:10E780006E700374FF6F700512E7A98009EEFCEF4D
:10E79000FD7A8012BEC079000297EE7B0012E7BAC4
:10E7A0002212E7B8900EB7E022900EB7E0547F1225
:10E7B000E7C97A8012E7B8227B00900EB4E0F91224
:10E7C00001E822900EB7E054EFF0A3E0F02274EAE3
:10E7D0001210698A0A8B0B12044C850A82850B83FE
:10E7E000A3A3A3A3E0C39402500302EB3A850A82D9
:10E7F000850B83A3A3E0F514A3E0F515851482F53A
:10E8000083E05403F50974016509700575080680F5
:10E810000E7402650970057508058003750808E027
:10E82000A2E5500A5418131313541FFA80027A00F9
:10E83000850A82850B83A3A3A3A3E0C39508500395
:10E8400002EB3AEA700302EB3AE50A241AF582E594
:10E850000B128712600302E968E50A2412F582E5CB
:10E860000B12849F12B00C12EB5F12CB737F00EF80
:10E8700012EB3D603CEF75F02BA424AEF582E93439
:10E880000CF583E06C7003A3E06D7025EF75F02B41
:10E89000A424B0F582E9340CF583E06A7003A3E0A8
:10E8A0006B700EEF75F02BA424A2FEE9340CFF80F0
:10E8B0000B0FEFC3940A40B77E007F00EE7001EFAC
:10E8C000700302E9AAEE242712849CC082C08385CB
:10E8D0001482851583A3780C120ED5D083D082784C
:10E8E0000C120C9A500302E9AA7402650960030233
:10E8F000EB3A851482851583E05404600302EB3AF9
:10E90000EE7001EF700302EB10EE24111284B06080
:10E910000E851482851583E05404700302EB10EE1B
:10E92000242712849CC082C083900F987810120E06
:10E93000D5D083D0827810120E9C851482851583E1
:10E94000A3C082C083900F98780C120ED5D083D0CC
:10E9500082780C120E9C7810790C120C4B7003020A
:10E96000EAE775080102EAEAE50A2412FAE50B343F
:10E9700000FB1209A48A0C8B0DAE0CAF0DEE7001DA
:10E98000EF602712EB5F12C3C47004A3E064FF7052
:10E990000302E8C512EB5F12EB7CE0687003A3E0B2
:10E9A00069700302E8C57E007F00851482851583A7
:10E9B000E05404700302E900850A82850B83A3A357
:10E9C000A3A3E0FA85080C7404250C12EB6850032D
:10E9D00002EB3AEE7001EF700302EB3AEE241112F3
:10E9E00084B0700302EB3AEE2404FCEF3400FD7AAD
:10E9F0000E7B10120A64851482851583A38582100C
:10EA0000858311780C120ED512EBA885148285151A
:10EA100083E090101BF0851082851183780C120E14
:10EA2000D590101C12EB907A207B1079E2120674BC
:10EA3000A808850A82850B83A3A3E028F50CA3E030
:10EA40003400F50D850A82850B83A3A3A3A3E0C33D
:10EA50009508F50812EB54AA0EFB12022A7510282D
:10EA600075111078101211C4780E1211C485080E99
:10EA7000750F00780E1211C4AC0CAD0D7A0E7B1020
:10EA8000790412024E7406121015E97047750E28AB
:10EA9000750F10780E1211C412EB54780E1211C4B7
:10EAA000750E0D750F00780E1211C4750E1B750FC3
:10EAB00010780E1211C485080E750F00780E121111
:10EAC000C4AC0CAD0D7A0E7B107904120254740A9A
:10EAD000121015E97064850A82850B83A3A3A3A392
:10EAE000E024FCF002E9097508008514828515838D
:10EAF000A3780C120ED5EE242712849C12EB90E51D
:10EB000008600D7402650960268E828F8312EB7691
:10EB100074016509600674036509700DEEFCEFFD74
:10EB2000AA0AAB0B1209F8801174026509700BEE8A
:10EB3000FCEFFDAA0AAB0B1209F20294E312EB43BD
:10EB400064FF2275F02BA4A9F024A2F582E9340C0D
:10EB5000F583E022EE2412F50EEF3400F50F22E5E6
:10EB60000A242AF582E50B22F8E43400F9EA98E455
:10EB700099C365D03322E0F912099E2212EB8B1261
:10EB8000A52A240C12EB8822F582EF3400F58322AB
:10EB900012EB942212EB99F022E50CF0A3E50DF0B4
:10EBA000A3E50EF0A3E50F2290101612EB94740566
:10EBB00090101AF02274F71210698A828B83A3A333
:10EBC000A3A3E0C39406500302ED338A828B83A390
:10EBD000A312B7FFE0121208010733EDECEBF2EBE2
:10EBE000F8EBFEEB04EC5EEC64ECC3EC12090802FB
:10EBF000ED331208DE02ED3312092C02ED33120957
:10EC00001A02ED338A828B83A3A3A3A3E064066078
:10EC10000302ED33EA241AF582EB12C5C660030243
:10EC2000ED33EC7001ED700302ED33EC2411F5824D
:10EC3000ED1284B360118A828B83A3A312ED37E0B7
:10EC4000A2E2400302ED33740F900E82129E31E077
:10EC5000900E83F07A827B0E12042802ED33120AA2
:10EC60001602ED33EC7001ED700302ED33900EB639
:10EC7000E06409600302ED3390104FE0640260032A
:10EC800002ED3312F02A600302ED338A828B831285
:10EC9000A8078E828F83E05404700302ED2AA3A399
:10ECA000A3A3A3A3E0600302ED2A8A828B83A3A31C
:10ECB000A3A3E0640B707312F04EEEFAEFFB120A9E
:10ECC0002E8070EC7001ED606A900EB6E064097001
:10ECD0006290104FE06404705A12F02A70558A82D4
:10ECE0008B83A3A3A3E0F97F008F82AC82EC12F2A6
:10ECF00051E0FEE82CF582E912F3446E70070FEF45
:10ED0000C3940440E488828983E05404601CA3A374
:10ED1000A3A3A3A3E070138A828B83A3A3A3A3E07E
:10ED2000640B7006EFC39404500479BA8002790032
:10ED3000120A3A0297EEF8A3128B292274F71210E6
:10ED400069EC7001ED700302EE418C828D83E090DE
:10ED50000E8312950712D15812D15E1212080102C9
:10ED600074ED68ED6CED70ED7E0F800A7E14800608
:10ED70007E1980027E007401900E82F0EA2430F544
:10ED800082EB12EE4D400474FF8003E0C333900E1B
:10ED90008812D197540364038A828B83A3A3700AD9
:10EDA000E0240812EE7724F88008E0240612EE77BB
:10EDB00024FA900E87F0EA2423F582EB1287127072
:10EDC00015EA241BF582EB12C3C47004A3E064FFB0
:10EDD000700474018001E4900E8912D1975404608C
:10EDE00006900E8912EE5988828983E054036403E9
:10EDF0007019900E8912EE4888828983A3A3A3A379
:10EE0000A3A312B00C900E8512EE7188828983A3A1
:10EE1000A3A3A3A3E0900E84F0EE601E900C70E01C
:10EE20006E6017900C91E0A2E3500FEE900C70F022
:10EE30007A807B001202F01209FE7A827B0E1204A5
:10EE4000280297EE8E828F83E0D2E2F0221284882D
:10EE5000C39400A2D265D03322E0D2E1F02212B0F6
:10EE600010901050E02422F8A3E03400F988828941
:10EE700083EAF0A3EBF022FCA3E03400FD900E8ABD
:10EE8000ECF0A3ED12BB8AA3A3A3E022C082C0834F
:10EE9000900EB5E0A2E050097A707B0C79E1120681
:10EEA0007A900BB2E064027014900BB4E0FA900C0C
:10EEB00070E06A600B12E30512087E800BE06008C8
:10EEC000900C70E0F9120884900BCAE0C3940350D0
:10EED00002E4F0029D4AC082C083900EB5E0A2E039
:10EEE000400F7A6D7B0F795212067A900EB512DBC5
:10EEF000C2029D4AC082C083900EB5E0A2E45003D6
:10EF000012E6FD7A707B0C79E102D67174F512106D
:10EF10006990104FE0600464017061900EBAE07077
:10EF20003390103AE0FA901039E06A701F7AA17BB2
:10EF30000C79E512067A740290104FF012F04E90A0
:10EF40000C7B12C7A57B1012BEC2804F90103AE016
:10EF500004F0801475083B750910750A00780812D2
:10EF600011C012F03612101590104FE064017007B6
:10EF700079B9120A3A8024120A22801FE0640370D1
:10EF800015900EBAE07008740490104FF080B090A5
:10EF90000EBAE0F980DCE0640260F402C60D74F59C
:10EFA000121069EC7001ED607E900EB6E06409709D
:10EFB0007690104FE06403706E12F02A70698A82B6
:10EFC0008B83A3A3A3A3E06457705C8A828B831214
:10EFD0009C8FFEE9FF8E828F83A3A3A3A3A3A3E04C
:10EFE000FA90103AE06A701675083B750910750AB8
:10EFF0000078081211C012F0361210158005E004D6
:10F000006A70248E828F83A3A3A3A3A3A3E090108E
:10F010003AF012F1DA90103AE0FA901039E06A70A2
:10F020000612F04E120A2802C60D8C828D83E0FC77
:10F03000901038E06C227C107D0090103812F400A3
:10F0400024B4FAE5F0340CFB120128740322900E6C
:10F05000B7E0F0A3E054EFF07A007B1012E7BA2299
:10F0600074F7121069E9FE901038F075F02BA412B5
:10F07000F10DA2E25008900C91E0A2E2400A79B0B2
:10F08000120A3A790002F10A90103812F11AE934A2
:10F090000CFB12D368128199F07C107D007900EA94
:10F0A0002412FAEB3400FB1201347C107D0079004D
:10F0B0007A3B7B1012013479091209B0900C91E06F
:10F0C000A2E04012EE75F02BA424AEFAE5F0340C69
:10F0D000FB795012067A901039E0F8740128FCE4AC
:10F0E0003400FDEC75F03CA4FCAAF075F03CEDA4F6
:10F0F0002AFD7A007B1012BEC290103812F11F90C8
:10F10000105212CF21120A0479010297EEA9F024BD
:10F11000B2F582E9340CF583E02212F129FA2212C9
:10F12000F129F8E5F0340CF922E075F02BA424A2C3
:10F130002274F01210697B007A00795712D852704D
:10F1400002A3E0700879BE120A3A02F1D712F27EE9
:10F1500074068E828F83A3A3A3A3A3F090103A1208
:10F16000F1E6F0EE2407F508EF12E5427AA07B0BFA
:10F1700012022A750A051201948A0C8B0D8C0E8DD1
:10F180000F850882850983780C120EE4900EBD78F5
:10F190000C120ED5850882850983A3A3A3A3A3A37C
:10F1A000A3A3780C120EE4900ECB780C120ED5901F
:10F1B0000EBD780C120E49AC08AD097AA07B0B127B
:10F1C0000230E508241012E53E150AE50A70A71280
:10F1D000F1DA749412F1F40282C7EE2407FAEF34E4
:10F1E00000FB120A3422E08E828F83A3A3A3A3A381
:10F1F000A3227414900EC1F0120A402274F6121069
:10F200006912D84C7002A3E0700779BE120A3A80E6
:10F210003D12F27E740712F349F50812072E850895
:10F2200082A882E812F251E9F012F32FE9F0050802
:10F23000E508C3940440E412F3601211C412F26AA8
:10F24000121015E9700512F25B80BF12F1F202B5DF
:10F2500008244BF582E43410F5832290105012F20A
:10F26000622212B48BFB120140227906901052E008
:10F27000FCA3E0FDEEFAEFFB1209DA740222901013
:10F2800050E0242D12C6C212F2BA740312F2ACE09E
:10F2900012D7F612C8AF12F2B112F29D22FEA3E00D
:10F2A000FFEEFAEFFB1209BC22900EC1F090105253
:10F2B00022F090105012B020E022F0901050E02484
:10F2C0002A12F2CB22901050E0242BF8A3E0340055
:10F2D000F9888289832274F61210698A088B0912D0
:10F2E000D84C7002A3E0700779BE120A3A803D1232
:10F2F000F27E740812F349FA8A82A882E50828F59A
:10F3000082E50912F344C0E012F32FD0E0F00AEADC
:10F31000C3940440E312F3601211C412F26A121093
:10F3200015E9700512F25B80BF12F1F202B508EE2A
:10F3300028F582EF12F338223400F583A3A3A3A3A8
:10F34000A3A3A32212F338E0228E828F83A3A3A368
:10F35000A3A3F0E48E828F83A3A3A3A3A3A3F0228D
:10F360008E828F83E0D2E2F0EE2405F508EF3400C0
:10F37000F50978082274F5121069EAFEEBFF901087
:10F380003812F3FC24B4F508E5F0340CF509750ADD
:10F390000078081211C07C107D007A3B7B1012F3BC
:10F3A000F31210157A008A82A882850A08EE2508D1
:10F3B0001284B0F50890103812F3FCFCE824B4FA7B
:10F3C000E4340CFBEC2AF582E5F03BF583E06508BC
:10F3D000F074012808E43400F97A107B00120F7CE5
:10F3E000050AE50AC3945040BD02C60DFC7D00EE3F
:10F3F000FAEFFB120128740322900FD712F40022B7
:10F40000E075F02BA42274F7121069E9FE12F04E99
:10F4100074B06E70047E008009EE600690103812A1
:10F42000F45090103812EB7612CB6A90104FE060D7
:10F430000964016005E06402700F7AA17B0C79E534
:10F4400012067A74FF900C6AF0EE900E510297E863
:10F4500012F129F582E5F0340CF58374FFF022C037
:10F4600082C08374FE120FFF900BB312EE59900B03
:10F47000B2E06402700312E305900C91E0A2E04058
:10F4800036901052E07002A3E0601B901052E0240E
:10F490000C12F562795012067A901052E024011293
:10F4A000F5627953800E900C9C74FFF0A3F07A9C67
:10F4B0007B0C795012067A7A787B0C794E12F558CB
:10F4C000A2E75016851882851983E4F0A312D6EEC0
:10F4D000795912F558C2E7F080097A797B0C79598D
:10F4E00012067A7AC27B0E79E112F558640470092B
:10F4F0007CE87D037A0212BEC0900EC1E064046015
:10F500000AE064146005E06424700712F569740170
:10F51000800412F569E4F0900EB9E0C0E09010505C
:10F5200012F573D0E0F0900EB9E004F0900EC1E057
:10F53000600964016005E06424700474028001E4E1
:10F54000900EC312F57AA3A3E0900EC4F090105071
:10F5500012F67A740202A24812067A900EC1E022D4
:10F56000E02AFAA3E03400FB22901050E0242F128E
:10F57000C6B822E0242E12C6B822F090105012B065
:10F580001C22C082C08374FF120FFF900EC1E06482
:10F59000047027E4851882851983F012F68885188F
:10F5A00082851983AA82AB83794E12F5C1AA82ABF8
:10F5B00083795912067A790180027900740102A2D6
:10F5C0004812067A85188285198322C082C08390EA
:10F5D0000EC3E0900EBB604BE07002A3E060599058
:10F5E0000EC1E064247006900EBAE0603D12F68809
:10F5F000900EBBE0240412B002900EC4128468E0A6
:10F60000C39AFA900EC412C8A2900EBB12F68112D1
:10F61000F56112EE6D900EC3E014F0900EBB12F681
:10F620007A8054E07002A3E0600E7ABB7B0E120673
:10F6300032900EBBE4F0A3F0900EB7E054FD12E759
:10F64000C97A0212E79B900BB3E0C2E1F0700B9015
:10F650000BB2E06402700312089C900EB6E024FD29
:10F66000C3940750121290BD2470F582E9340FF54F
:10F6700083129A04121054029D4A12B0101205E42B
:10F6800022E0240212D8282212F6957AC27B0E7943
:10F69000E112067A22900EC2E0F91209B6E9900E44
:10F6A000C2F022FFFFFFFFFFFFFFFFFFFFFFFFFF93
:10F6B000FFFFFFFFFFFFFFFFFFFFFFFFFFFFFFFF5A
:10F6C000FFFFFFFFFFFFFFFFFFFFFFFFFFFFFFFF4A
:10F6D000FFFFFFFFFFFFFFFFFFFFFFFFFFFFFFFF3A
:10F6E000FFFFFFFFFFFFFFFFFFFFFFFFFFFFFFFF2A
:020000040003F7
:10FFD000FFFFFFFFFFFFFFFFFFFFFFFFFFFF3AF302
:08FFE000851A8700020107FFEA
:040000050000008671
:00000001FF
