:020000040000FA
:100000000200DC0242B8FFFFFFFFFFFFFFFFFFFF20
:10001000FFFFFFFFFFFFFFFFFFFFFFFFFFFFFFFFF0
:10002000FFFFFFFFFFFFFFFFFFFFFF02B9D0FFFF52
:10003000FFFFFFFFFFFFFFFFFFFFFFFFFFFFFFFFD0
:10004000FFFFFF02C645FFFFFFFFFF02BF0BFFFFE1
:10005000FFFFFF0240AAFFFFFFFFFF02BF27FFFFD6
:10006000FFFFFF02BF38FFFFFFFFFF029F70FFFF90
:10007000FFFFFFFFFFFFFFFFFFFFFF029FD7FFFF15
:10008000FFFFFF0241B51200F0B900030200D6E401
:10009000791A7801B800028004F709D8FCE49001CD
:1000A000807877790C8002F0A3D8FCD9FA900CF60E
:1000B000AA82AB8390C6E278D379018015E493A33A
:1000C000AC82AD838A828B83F0A3AA82AB838C82BD
:1000D0008D83D8E9D9E712C3901200EB75D0007573
:1000E000813F75188075190102008600000080FBB1
:1000F000790122C3E498F8E499F91201348026C307
:10010000E49AFAE49BFBE920E7E9120134E498F869
:10011000E499F922C3E498F8E499F9120134E498D7
:10012000F8E499F9C3E49AFAE49BFB22EB20E7CFC9
:10013000E920E7E0B90010BB0008E88AF084F8AADB
:10014000F022E4FBC8FA22EB70227B10C833C8C946
:1001500033C9335007C39AC3DBF280069A50012A91
:10016000DBEAC833F4C8C933F4C9FA2275F008E4ED
:10017000C833C8C933C933C99AC99B5004C92AC9ED
:100180003BD5F0ECFBC833F4C8E4C9FA22080808F0
:10019000EAC0E0EBC0E086F0E7A4FA180986F0E7D1
:1001A000A42AFA180986F0E7A42AFA180986F0E7C3
:1001B000A42AFA1986F0E7A4FBE5F02AFA190886C2
:1001C000F0E7A42BFBE5F03AFA190886F0E7A42B38
:1001D000FBE5F03AFA18180986F0E7A4C5F02BFB06
:1001E000E43AFA1908E7C5F0C6A426F6E5F03BFBA9
:1001F000E43AFA1886F0E7A4F6E5F00826F6E43BC0
:1002000008F6E43A08F6D0E0FBD0E0FA222518C55B
:1002100082C0E0E51934FFC583C0E0E518C39582CC
:1002200024F9F8E4C5A8858319858218C5A8E8CE05
:10023000F0A3E520F0A37808E608F0A3DEFAEFF0DB
:10024000A3E58124FBF8E608F0A3E608F0A308087C
:10025000E608F0A3E608F0A315811581D0E0FED0F2
:10026000E0F815811581E8C0E0EEC0E022C0D0259D
:1002700018C582C0E0E51934FFC583C0E0E518C3A6
:10028000958224F310AF088583198582188008852C
:100290008319858218D2AFC8F0A3E9F0A3EAF0A3CE
:1002A000EBF0A37908E709F0A3D8FAECF0A3EDF09E
:1002B000A3EEF0A3EFF0A3D0E0F0A3D0E0F0A3D042
:1002C000E0F0A3E520F0A3E5F0F0A32285198385F3
:1002D0001882E0C0E0A3E0F9A3E0FAA3E0FBA37872
:1002E00008E0F608A3DFFAE0FCA3E0FDA3E0FEA32C
:1002F000E0FFA3E0C0E0A3E0C0E0A3E0F5D0A3E00E
:10030000F520A3E0A3F5F0E4C5A88583198582183C
:10031000C5A8D082D083D0E0F8D0E032851983859B
:100320001882E0A3FEE0A3F5207808E0A3F608DF3A
:10033000FAE0A3FFE0A3C0E0E0A3C0E0E0A3C0E0D8
:10034000E0A3C0E0E4C5A8858218858319C5A8D0BC
:1003500083D08222D083D082C5F0E493A3C5F0C3BA
:1003600095F0F5F0E493A3C395F04005E5F0048023
:1003700001E475F002A42582F582E5F03583F5836A
:10038000E493A3C0E0E493C0E02274028000CCC0F8
:10039000E0EDC0E0E518C39CCCAD1950011D10AFD5
:1003A000068C188D1980068C188D19D2AF12040393
:1003B000D0E0FDD0E0FC22D083D082CCC0E0E4933A
:1003C000A360061204431470FAE493A360061205B6
:1003D000131470FAD0E0FCE493A3C0E0E493C0E00F
:1003E00022CAC0E0E493A3C582CCC582C583CDC533
:1003F00083F0A3C582CCC582C583CDC583DAE5D0A1
:10040000E0CA22CAC0E0E0A3C582CCC582C583CDC4
:10041000C583F0A3C582CCC582C583CDC583DAE68A
:10042000D0E0CA227009080808226016181818C6F9
:10043000C333C608C633C608C633C608C633C6D5D6
:10044000E0EA22C0E0E493A3D39C5010E493A3C35A
:100450009C400AD0E0D0E0D0E00203D4A3A3A3D014
:10046000E0222518F58210AF08F518400215198012
:1004700008F51840021519D2AF851983227404803B
:100480000A74038006740280027401C0E0F404124E
:100490000462D0E012069622BB0102E722C082C0AD
:1004A0008389828A83BB0003E08002E493D083D0F7
:1004B0008222C0D0251810AF08F518500205198007
:1004C00008F51850020519D2AFD0D02260160808DE
:1004D00008C6C313C618C613C618C613C618C61353
:1004E000C6D5E0EA22C3E0C696F608A3E0C696F6B3
:1004F00008A3E0C696F608A3E0C696F622251810D3
:10050000AF08F518400215198008F51840021519B2
:10051000D2AF22C0E0E493A36C7009D0E0D0E0D069
:10052000E00203D4A3A3D0E022E76670100809E735
:1005300066700A0809E76670040809E76622E06643
:10054000701008A3E066700A08A3E066700408A3B0
:10055000E06622C3E09608A3E09608A3E09608A30D
:10056000E096A2D265D03322C3E096F008A3E096CD
:10057000F008A3E096F008A3E096F022C3E697F611
:100580000809E697F60809E697F60809E697F622BD
:10059000E026F608A3E036F608A3E036F608A3E066
:1005A00036F622700422600D18C6C333C608C6335F
:1005B000C6D5E0F41822E046F008A3E046F008A310
:1005C000E046F008A3E046F022E627F60809E63701
:1005D000F60809E637F60809E637F622E056F60887
:1005E000A3E056F608A3E056F608A3E056F622E08C
:1005F00026F008A3E036F008A3E036F008A3E036C2
:10060000F022C0E0E8C0E0E58124FCF8E6A2E7D0F3
:10061000E0F8D0E022E056F008A3E056F008A3E0AE
:1006200056F008A3E056F022E4C396F608E496F6E6
:1006300008E496F608E496F622C3E7960809E796DA
:100640000809E7960809E79622C6F4C608C6F4C664
:1006500008C6F4C608C6F4C622C3E09608A3E0960E
:1006600008A3E09608A3E09622E0F608A3E0F608C7
:10067000A3E0F608A3E0F622600C08C6C313C61870
:10068000C613C6D5E0F422E6F008A3E6F008A3E618
:10069000F008A3E6F022CAC0E0E6F0A308DAFAD038
:1006A000E0FA222518F582E43519F58322E473F582
:1006B00082EB120B48A2E222780812068702070E8C
:1006C000E82455F582E9340DF58322121E17E9124C
:1006D0000B4822E5A4851882851983F0E5A5C0E0C2
:1006E00074011206A3D0E0F0E5A6C0E07402120681
:1006F000A3D0E0F074031206A312071378081206C1
:1007000069AA08AB09AC0AAD0B74041204B27F04E9
:1007100002031CE4F0EAA2E792AF851882851983F0
:10072000229008F1123657120CED22F582EF120BCF
:1007300048A2E522900962E0FA900947E022F09091
:100740000947E0640F22A3A3E024F5C39412221208
:100750002B71900967124E197A147B0022C082C057
:10076000839008F1E07002A3E0600612365012BBDD
:10077000789008EE1214E474089008F0F09008F1F4
:10078000E4F0A3F090093DF09008F30228DA790331
:100790001A1AEFFB1219B3740222EE24020A0AEFAE
:1007A0003400FB8A828B831207AB22E024FFF8A37C
:1007B000E034FFF92274F112020DEAFEEBFF890822
:1007C000740F1206A3121C3E74111206A3120864C1
:1007D00012079A850F0D12087DE50E120883E508B1
:1007E00012086F90096112086C90096012086C85FC
:1007F0000B0D12087DE50AF088098A828B83E0C31D
:1008000095098E828F83A3A3A3A3121B9E12574523
:100810008C828D83A3A3A3A3A3A3A3A3E0640370EB
:1008200008EE240E1208538006EE240E12085C1205
:1008300015657409F0750AFF750BFF780A120485B7
:1008400012078E1204B2E97007EEFAEFFB1212FDE6
:100850000209ACF582EF1255B3740122F582EF1252
:1008600055B3E422E0F50AA3E0F50B22121E1C1298
:10087000087322F0E824FF18E934FFF922E50D8817
:10088000828983120873888289832274F112020D8F
:10089000EAFEEBFF890B8C0E8D0F750A00A2AFE408
:1008A00092E0F50CC2AF9008F4803F12096D50370A
:1008B00012097864037030EE24F9FEEF34FFFF85EF
:1008C0000882850983A3A3E02405FCA3E03400FD8E
:1008D000EEFAEFFB12C267EE24FF1EEF34FFFF7447
:1008E00010250AF50A150B120B0F1259A8E50B601B
:1008F00008E5087002E50970B2E50CA2E092AFA22B
:10090000AFE492E0F50CC2AF9008F4801B2402F82B
:10091000E50912158D1211B0120990122E8C1209D0
:1009200090050A150B120B0F1212E17002E5096017
:1009300025120978640270ED12096DE50840CE12A7
:100940001364E50912072E50DC7401850E82850FB1
:1009500083F0E50B70CFE50CA2E092AF8E828F831F
:10096000E50AF0EE24FFFAEF34FFFB803F121E157C
:10097000E509120B48A2E622850882850983A3A314
:100980001211CC12098722A3E01313543F540322FF
:10099000A3A3A3A3A3E08E828F83F0EE24FF1EEF18
:1009A00034FFFF22122B0C74041204B27F080203DE
:1009B0001C74EE12020D74F61204FD89128A108B5B
:1009C0000FE4851882851983F09008FAE0C3940833
:1009D00040057511078003E0F511E51133333354F9
:1009E000F8900946FAE02A2433F50A1217E270015A
:1009F000EB7003020AEDEA250AF8EB3400F9EA2469
:100A000002121E22125745900946E0FCFAC3E49AEE
:100A1000FAE49400FBE82AFEE93BFF900944120A3D
:100A2000FB780C120481127BFF1204B285188285B8
:100A30001983AC82AD83A911EE24FFFAEF34FFFBDA
:100A400012088B8A0C8B0DAE0CAF0DE4120996E5E3
:100A50000FC454F0C0E090093EE0C4333354C0C02A
:100A6000E0900940123F9513135480FAD0E04AFAFF
:100A7000D0E04A440F120996E510C454F045128E96
:100A8000828F83F0EEFA850A82850B83E0C39A8514
:100A90000882850983A3A3A3A3121E48EEF0A3EF47
:100AA000F0E508240E125B83E508240D125B8374C5
:100AB000091206A3E4F0F50AF50B780A120485740E
:100AC000031206A3121999AC82AD83AA08AB0912CE
:100AD00007941204B2851882851983E0600985089D
:100AE00082850983120B1CAA08AB0980047A007B5B
:100AF00000740A1204B27F0B02031CE0F50CA3E0A1
:100B0000F50D750E00227F0502031C12098822E5EF
:100B10000824FBF582E50934FFF58322A3A3120B19
:100B20005ED2E4F022A3A3A3E0FA88828983227F25
:100B30000602031C7AF47B0812A313740222120B20
:100B40004222EE2410F582EF3400F583E022A2E782
:100B5000023896122B0C740422A3120B5E2212117F
:100B6000D0E022EE240EF582EF1255B32234FFF5C9
:100B70000DEE240DF582EF120B4822EE240DF582C6
:100B8000EF120B48640122E0FEA3E0FFEE2274F5B1
:100B900012020D74F71204FDEAFEEBFF120C15E9C8
:100BA000F508704CEE240E120B7460447A0079093B
:100BB000120DE2EA7001EB603774081206A3120C02
:100BC0000212038A7508FF7509FF78081204858EE2
:100BD000828F83A3A3A3A3A3A3A3A3E0F974041206
:100BE00006A3AC82AD831207B574041204B2800D63
:100BF0008E828F83A3E508120DA3120D587409028B
:100C0000070B7402125E5E74FFF0A3120C0F221227
:100C100015A1A3A32274F212020DEAFEEBFF7508E0
:100C2000008E828F83A3A3A3A3A3A312074640032E
:100C30007508E88E828F83A3A3A3A3A3A3A3A3A372
:100C4000A3E0C3941040057508E880138E828F835B
:100C5000A3A3A3A3A3A3A3A3A3A3E0640F600B90E8
:100C6000091AE0540870037508E88E828F83A3A3E5
:100C7000A3A3A3A3A3A3A3A3E0C0E0EE240BF58248
:100C8000EF121F77D0E0C39A5008E0640F6003753D
:100C900008E8900960E064FF7004A3E064FF70035B
:100CA0007508EC7A237B0012BA729008F1127677FD
:100CB0009008F1E07002A3E060258E828F83A3A3E9
:100CC000A982AA83890C8A0D750E00780C12048102
:100CD0007C237D00123650127C051204B28003750D
:100CE000081AA908800239FB7F0702031C74F81256
:100CF000020DEAFEEBFF8E828F83A3A3A3A3A3A31F
:100D0000A3A3E09009471225CE900962F0EE240BD0
:100D1000120B74900942121599A3A3A3A3A3A3E0F5
:100D200090093EF0F9122F23E0600CEE2404121516
:100D30005AEE2406120D4D740190093D12073E60D3
:100D40000474018001E49008F3F0021F57FAEF34B5
:100D500000FB79E112216E2274F812020DEAFEEB1B
:100D6000FF8E828F83A3E07003120721742C121F61
:100D70005E021F5774F812020DEAFEEBFF9008F1B5
:100D8000E07002A3E0600D1236509008F1E4F0A389
:100D9000F012BB7874088E828F83120DA3126846FE
:100DA000021F57F0EEFAEFFB2274F712020D9009C2
:100DB0003DE060129008F3E0700C120DC9EA70017A
:100DC000EB60031212FD023B1D900942E0FB12078B
:100DD00034F91209B122120B486402227908121761
:100DE000852274F512020DE9FE2404F582E434C86C
:100DF000F583E493F508FA7B0012A0DFEA7001EBBB
:100E00006012120E3F125743E48A828B83A3A3A37E
:100E1000A3F080287A027B0012A0DFEA7001EB6069
:100E200017EE241AF582E434C8F583E4938A828BA2
:100E300083F0741AA31210767A007B0002070EEA80
:100E40002508F8EB3400F98A828B8322E9FDEAFC5D
:100E500074062DFAECA2E0501EEA75F00A84ABF09D
:100E6000EB6014740A2AC39BFAEBC3940540047424
:100E70000A2AFA740B2AFAEDC394134004781480FA
:100E8000027806E82AF8740928F8E43400F97A0AA6
:100E90007B0012012CE8F922C082C08374FE120488
:100EA000FD851882851983120FB212035400039135
:100EB0000FB90E130F910F380F900947E0640F60C0
:100EC000181216C4E97012851882851983123653D8
:100ED000900D79122E901206AD90096FE0C0E0855A
:100EE00018828519831234E5D0E0125E6A12753CCF
:100EF0007414125E6AFCA3E0FD7AF67B0812A2620B
:100F0000E5A8FAC2AF9008FC120FA979201215AB20
:100F1000027D6E90091CE0851882851983A37011EB
:100F200012753E740D125E6AFAA3E0FB12684680E9
:100F3000DF12753E741580BA1212EB60541212EB78
:100F4000141263FD120B59C0E085188285198312B3
:100F50003E12D0E0125E6A2402F8123A9424011282
:100F60007D7588828983120FB214C394095022853B
:100F70001882851983124909A3A3E0240AC0E085D9
:100F8000188285198312753DD0E0120FB604020E47
:100F9000F2851882851983AA82AB8312194A020F3F
:100FA00010E5A8FAC2AF9008FBE004F0EAA2E792CD
:100FB000AF22EAF0A3EB126401A3A3A3A3E02212E1
:100FC00016C4E96003792022790122C082C083120D
:100FD0005B99E0D2E00228DAC082C083121064126A
:100FE0000B81701112106B400C8A828B83A3E0F985
:100FF0001215BF806CEA121364EB120B77A2E65055
:10100000128A828B83A3E0F9900D7B122E90120638
:10101000AD804E121064120B81700912106B5004D7
:10102000743080368A828B83A3E0641B7004742240
:1010300080288A828B83A3E0700F121064120B77D2
:10104000240FF582E434C8800D121064120B77244B
:101050001AF582E434C8F583E4938A828B831210F4
:10106000760228DBEA240DF582EB22EA121364EB08
:10107000120B48A2E322F0900915E0F912A15E22BA
:1010800074F812020DE9FE9008FDE07002A3E06022
:101090003EEE70061211ADE48014741B6E70339036
:1010A00008FD121E3CE0640570EA1211ADEE123A22
:1010B00098FB120FD89008FDE0240E1212DB5003AB
:1010C0001220B29008FDE4F0A3F079101215AB02E3
:1010D0001F5774E96E600302117312603270381288
:1010E0007D95E960321211DD402D900969E0C0E084
:1010F0009008FDE02411123719D0E0F0900958E073
:10110000C0E01211C2A3A3D0E0F0900958E004F0AF
:10111000790112399C80B81260329008FD604CE071
:10112000240E1818181211E49008FDE04014241140
:10113000123A9114F074019009C9F09009C3E0F9D2
:1011400080D0240F123A93C2E71212F7240DF8123E
:101150003A946403700C9008FDE02410123A91D286
:10116000E2F01211B51206AD0210B51211B074E919
:101170000210AE74E16E7014127D95E970030210D6
:10118000AA1211DD50030210AA0210EA741C6E604C
:10119000030210AA9008FD123653900D81122E9072
:1011A0001206AD9008FDE4F0A3F00210CF9008FD08
:1011B0001211CCA3229008FD123657900D77121110
:1011C000CC229008FD1236631211CC221211D022CB
:1011D0001211D422E0F8A3E0F5838882229008FD62
:1011E000E0240EF812603DA2E22274F512020D75A1
:1011F0000A00750B00A2AFE492E0FEC2AF9008FDBA
:10120000E07002A3E06008EEA2E092AF0212BC9090
:101210000D7F122E901206ADE94410FA9008F4806A
:101220000985080A85090B120B0F1212E17002E5FD
:101230000960D41212C45A6A70E7780A120485ACA5
:1012400008AD09120B341204B29008FDE508F0A3B2
:10125000E5091212F71212D940659008FBE014F06C
:10126000EEA2E092AF9008FDE0240E181812364A64
:10127000E8FEE9FF8E828F83E0FA9008FDE0F81225
:1012800012F1F9120E4CE99008F8F0A3E412493576
:10129000A2E750189008FDE024121212CD122FEF91
:1012A0009008FDE024131212CD122F489008FD1271
:1012B00012D2A2E1B3E492E0F912399C02070E9037
:1012C00008FA8099121E15E509120B482212603C9B
:1012D000F922E0240F12603C22241012603CA2E7A5
:1012E00022E0F508A3E0F509E508228518828519B2
:1012F0008312490DA3E022F09008FDE02274F81259
:10130000020DEAFEEBFF12192FEE121364EF12101A
:10131000704009120B7B7004790280027905EEFCA3
:10132000EFFD7AF47B0812A392E9602FEEFAEFFB4F
:10133000900D7D122E901206ADEE240EF582EF1266
:1013400006B24008120FA11211EA8014EEFAEFFB68
:10135000900D75122E901206AD800574F11213696E
:10136000021F57E8240FF582228E828F83A3120D6D
:10137000A3120FD8221211EA2274F812020DEAFE0B
:10138000EBFF790090091AE05402700DEE242FF55E
:1013900082EF1206B2500279E890091AE0546070A8
:1013A0000CEE242F120B74A2E1500279E88E828F8A
:1013B00083A3A3A3A3E0C39475400279E8EE242D90
:1013C000120B747010EE242A120B74700879F51247
:1013D00015BF021F57E970F7EE240D120853F0EE07
:1013E000242F120B74C0E0120B63D0E0F0EE243017
:1013F000120B74C0E0EE2412120B66D0E0121E50E5
:10140000C0E0EE2413120B66D0E0F0EE242B120B9A
:101410006612038AEE2422FCEF3400FDEE242D1226
:101420000B74F91207941204B2E970A6EEFAEFFBFE
:101430001212FD809DC082C083740D8A828B83F05E
:101440001268460228DBC082C083E48A828B83F064
:10145000A3F0EA242F1206AF40119008FBE0C394DA
:1014600002401179F11215BF0228DB9008FAE0C39F
:10147000940250EF1217EE80EF74F412020D890CF3
:10148000EA24FCF582E434C7F583E493244AFE8918
:101490000A250AFAE43400FB12A0DFEA7001EB60CF
:1014A000158A828B83A3A3A3A3E50CF08E08120EEA
:1014B0003F12574380047A007B00020B06C082C0B3
:1014C00083E4900913F0900914F09009071214E4D2
:1014D0007402900909F09009101214E47401900943
:1014E000120228DA74ABF0A37415F02274F1120220
:1014F0000D1227291206697808790C12018D7808D7
:1015000012047D7A0A7B090209A474F512020D7493
:10151000CE1204FD900947E0640F6007742E121587
:101520004B80237A017B0912074F12013488088906
:1015300009750A00750B00780812047D7A017B0991
:10154000120B531204B2743202070B8518828519EC
:1015500083F0AA82AB831216D922FAEF3400FB790A
:101560005012216E22F0EE240D1255B0221204B258
:10157000021F57740202156DAA82AB8312A0B785B1
:101580001882851983AA82AB83126846223400F937
:10159000E8FAE9FB8A828B832212159D221215A19B
:1015A00022F08E828F83A3A3A3A32274F812020DCC
:1015B000E9FA7B00900915E0F912A3DF021F5774C6
:1015C000F512020D74F01204FDE9FE8A828B83E0AD
:1015D0002461F582E434C9F583E493C0E074011218
:1015E00006A3D0E0F0640B700DEE8A828B83A3F02B
:1015F000121E9A0216BFE070030216BF640C60034D
:101600000216AC74041206A3127677EA242EF58231
:10161000EB120B77C0E074031206A3D0E0121B9EFE
:10162000A3A3A3A3A3780812066974061206A378DD
:10163000081206878A828B8312596D740A1206A3D8
:10164000125745EA240EF582EB120B77A2E4500301
:10165000E4800E127536EB120B77FC900969E0C33B
:101660009C851882851983F0E0C0E0740C1206A3F3
:10167000D0E0F0EA2414F582EB120B77C0E0740D91
:101680001206A3D0E0F0EA2415F582EB120B77C026
:10169000E0740E1206A3D0E0F0EA2416F582EB12F5
:1016A0000B77C0E0740F1206A3D0E0F074021206AC
:1016B000A3EEF074011206A3AA82AB8312684674EB
:1016C0001002070BC082C08390091CE06403700401
:1016D0007901800279000228DB74F712020D90096B
:1016E0001C12177C2483F582E9340DF583125BBB51
:1016F000E0C2E7F0C333FCE82CF582E9120B69A3E2
:10170000E493FEC333FCE433FDEC2483F582ED3433
:101710000DF583E07002A3E06005EE90091CF08AED
:10172000828B83E0C333FCE433FDE82CF582E93D92
:10173000F583E493F508C4540FC333242BF582E4F6
:101740003409F5831223337001E970118A828B8387
:10175000E0C3940B502379181215BF801C740F55E9
:1017600008C333FCE82CF582E912085F93C0E074EB
:101770000193F583D0821206AD023B1DE0C333F81E
:10178000E433F9E82274F112020D74FE1204FD89AB
:101790000FEAFEEBFF1217F71217E27001EB60324F
:1017A0008A828B83E50FF0E4A3F08E0C8F0DF50E8B
:1017B000780C120481850F0AE50A121804EA240243
:1017C0000A0AEB125B901204B2AA08AB091217EED8
:1017D000800B851882851983E50F12181374020295
:1017E00009A9FA7B0012A0DF8A088B09EA22900976
:1017F00015E0F912A15E22E9244BF582E434C9F523
:1018000083E493222456F582E434C9F583E493FCFF
:101810007D0022F0791AAA82AB831215BF22C08202
:10182000C083E99009150228DA74F712020D74FEDC
:101830001204FDEAFEEBFFEE54207031803CE5A877
:10184000FCC2AF9008FCE014122FAB8A828B83128B
:1018500019139009181276771216D98518828519EE
:1018600083E0641560077A187B0912194A7AF67BBF
:101870000812A2BCEA7001EB70C474805FF9E470D6
:1018800001E97005801112191C900915E0F912A1E7
:10189000BDEA7001EB70EFEE54106005742D121567
:1018A0004BEEA2E05005742412154BEE5402600575
:1018B000742512154BEE54046005742612154BEE78
:1018C00054086005742812154BEE5440600C7401E6
:1018D0001206A3E4F0742C12154BEE5480600C74C5
:1018E000011206A3E4F0742F12154B900916E07054
:1018F00002A3E06017E5A8FCC2AF900916123653A8
:10190000900916E4F0A3122FAB12191C7A007B0089
:10191000023B18E0851882851983F022900918EAA5
:10192000F0A3EBF01216D97A187B0912194A22C0DB
:1019300082C083900918122A7A687002EB697007D6
:10194000900918E4F0A3F00228DB74F812020DA24B
:10195000AFE492E0F508C2AF8A828B83E07002A305
:10196000E060338A828B8312538CEC24FBF8ED34D5
:10197000FFF9900918122E96EC6E7002ED6F700749
:10198000900918E4F0A3F08A828B83E4F0A3F0E8D6
:10199000FAE9FB12BB78023892C082C083900960DA
:1019A000C3E094FEA3E094FF40047903800279022F
:1019B0000228DB74EB12020DEAFEEBFF8C108D1196
:1019C00074151206A3121C3E7508008C828D83A329
:1019D000A3A3A3A3A3A3A3E0F512E9A2E75008756C
:1019E0000AFF750BFF800690095C120864E9C2E7E4
:1019F000F513EE240E12072BEE5009240F120B667E
:101A000074088005240F12085C121BA4A2E2EE5099
:101A1000071255AA748080051255AA7410121BA4CF
:101A2000A2E45008EE241112085C800E900969E0CF
:101A3000C0E0EE2411120B66D0E0121BA4A2E0500D
:101A4000037508208E828F83A3A3E024FFF50CA3E7
:101A5000E0120B6DC39402E0400614121BAD740338
:101A60004508F508851314751500740E78141205D1
:101A7000A3E515F509740265137011900961121B35
:101A8000AC900960121B95121B91801974036513A9
:101A9000700F121B847C707D09AA0CFB12C2678038
:101AA000E6E5136028E5126014E50E650A7004E5AA
:101AB0000F650B700874404508F5088010850C828E
:101AC000850D83E50B121BC9E50A121BB385120AAB
:101AD000750B00740A780A1205A3E50B4509F50990
:101AE000740265127018851082851183A3121BACD5
:101AF000851082851183121B95121B918019740326
:101B00006512700F121B84AC10AD11AA0CFB12C22F
:101B10006780E6E5126010850C82850D83E50F1263
:101B20001BC9E50E121BB3A80CA90DE824FFF50C88
:101B3000E9120B6D700590094C8003900958E0FA8A
:101B400004F0EA88828983F0850C82850D83E5099B
:101B5000121BC9E508F0EE2404F8EF3400F9EE2476
:101B600002FAEF3400FBAC0C8A828B83121E1CFD40
:101B7000E02DC39C121B9EECF0A3E50DF079007FD5
:101B80000E02031CE50C24F9F50CE50D34FFF50DF0
:101B900022121BBC22E0850C82850D83F022F08A84
:101BA000828B8322F0EE240E120B4522E0850C82FC
:101BB000850D83121BB722F0121BBC22E50C24FFFB
:101BC000F50CE50D34FFF50D22121BB7850C82F5DF
:101BD000832274EF12020D890A8A0C8C088D098BFE
:101BE0000B74111206A3121C3EAA0B120DE28A10EE
:101BF0008B11A810A911E8FEE9FFE87001E960392E
:101C0000120B63E50B121565E50AF0780E120485D8
:101C1000AC08AD09A90C1207941204B2E9701AE5D8
:101C20000A1203540701321C2C1C2C1C120B3ED22E
:101C3000E5F0EEFAEFFB1212FD7F0A02031CE0F55D
:101C40000EA3E0F50F2274EF12020D8A088B09EC47
:101C5000FEEDFF74058A828B83121E508A828B836D
:101C6000A3A3F0EA2403121E22E0F510A3E0F5116D
:101C7000EE2424120B66780C120669E510127537F3
:101C8000E511120B6912739A124E00AA10AB1112D1
:101C9000C1E7850A82850B83121F6EFAA3E0FB88D9
:101CA000828983A3A3A3A3A3A3A3A3A3127677EEFE
:101CB000242E120B74C0E0E8121E17E9120B69D033
:101CC000E0121E43123717E4121E43240E1234DFB3
:101CD0007C0BFDF9850A82850B83E02416127D7545
:101CE00012A0B78E828F83A3A3A3A3A3A3E0C0E017
:101CF000850A82850B83121E3CD0E0121E58FAA37F
:101D0000E0FB850A82850B83122333240BFCE93424
:101D100000FD8A828B83E08C828D83F0A3E41243E2
:101D20000CE0F50B8C828D83E0F0A3E0450B121FD5
:101D300069FCA30A0AAB83A2E7E492E0C0E01213B5
:101D400063E9120B69D0E0F074075C6004780180ED
:101D500002780075F00374075CA428F8EA28FAEB0F
:101D60003400FBE5082405F8E509120E44121E1C98
:101D700012430C850882850983A3A3A3A3A3A3EA26
:101D80001259B0F50CF50A7407550AC333FC747088
:101D9000550CC430E30244F0F50A3395E0F50B74BA
:101DA00003780A1205A3E50A2CF8E50B3400F9EADA
:101DB00028F8EB39F985088285098312573C8E8211
:101DC0008F83121E2F127D73C3EA98EB9940278EE2
:101DD000828F83A3A3E0F8850882850983A3A3A348
:101DE000A3A3121E2FA3A3E0C39A28850882850906
:101DF00083A3A3A38016E4850882850983A3A3A3F4
:101E0000A3A3A3A3A3F0850882850983A3A3A3A307
:101E1000A3F0021C39E5082410F58222E0888289AB
:101E20008322F50AEB3400F50B850A82F58322A3A1
:101E3000A3A3A3E0FA8E828F83A3A322E0240D1232
:101E40004ECD22121E48E022F0850A82850B8322A5
:101E5000F0EE2431120B4522125731A3E0222279F1
:101E6000191215BF2274F812020DEAFEEBFF900959
:101E700016E07002A3E06010900916123653121E8D
:101E80005F7A167B0912194AEEFAEFFB12192F90AE
:101E90000916EEF0A3EFF0021F5774F812020D744A
:101EA000DE1204FDEAFEEBFF8E828F83E01203B7A1
:101EB000011E1FFD1E0303C11E05FD1E18C11E06C7
:101EC0001F74161206A3E4121F3B740B1206A3AA7A
:101ED00082AB8312C26774131206A374031220C369
:101EE00074021206A3125745740A1206A374021252
:101EF0001F3374141206A3E8F0A3E98010741612BD
:101F000006A3740180C174161206A37402F0740B48
:101F100085188285198312572DE0C0E074011206DE
:101F2000A3D0E0121F4974171206A3121578742269
:101F300002156DF090095C124E1922F0121F40221A
:101F4000EE2417FCEF3400FD22F07C0B7D007900BD
:101F5000221253001284A67F0102031C74298E8270
:101F60008F83120DA31216D922124314E022122BD2
:101F7000AF242A120B4522120B48FA2274F71202E0
:101F80000D74FE1204FDE9FEA2AFE492E0FFC2AFC1
:101F9000EE601C90C97A7C3F7D09743C1203E1120B
:101FA0002F18E9900958F0122F18E990094CF09079
:101FB0000D95E0701512385AE49009AEF09009BC06
:101FC000F01263CB12305312307253A7EF122C3A37
:101FD0001239171220B290093EE0F9122F23122372
:101FE000381220C3E8906174F0E912398A7508004C
:101FF000E508C333F8E433F91220A7E07002A3E048
:1020000060091220A7122E901206AD0508E508C33C
:10201000940740DC900916E07002A3E060077A168E
:102020007B0912194AE490091CF09007FDE0700248
:10203000A3E0601E800D851882851983AA82AB8378
:1020400012194A9009151263DC125745E87001E92C
:1020500070E4E490097BF080077AF47B081220CBCF
:102060009008F4E07002A3E070EF9008F6E07002D0
:10207000A3E060097AF67B081220CB80ED9008F48B
:10208000E4F0A3F09008FAF09008FBF09008FCF060
:1020900090093EF07A5F7B09795212216EEFA2E03F
:1020A00092AF7900023B18E8241DF582E93409F566
:1020B000832290096FE0F9122FEF90096EE0F91278
:1020C0002F4822F0900960124E192212A2BC8518E6
:1020D00082851983EAF0A3EB125F0912194A22F0F4
:1020E00090091AE4F0A3F0122E9C0228DBE9FA749E
:1020F000C02AC3941E500574C02AF92274202AC332
:1021000094065005743E2AF92279242274F41202AE
:102110000DEAFEEBFF1220EDE9F508742465087066
:102120000479F48046E5A8F50CC2AF750900740285
:1021300078081205A3E50824B6FAE50934C9FB8A34
:10214000828B83E493243FF508E43409F509750A8A
:102150000078081204818A828B83A3E493127BFEA9
:102160001204B2E50CA2E792AF7900020B0674F2FA
:1021700012020D8908EAFEEBFF74456508700B90AA
:102180000944EEF0A3EFF002230A1220EDE9FA8AE7
:102190000974246A700579F402230C890A750B000E
:1021A0007402780A1205A312231E7014890A750B93
:1021B000007402780A1205A312230F700302224D45
:1021C000890A750B007402780A1205A3E50A24B681
:1021D000FAE50B34C9FB8A828B83A3A3E493FC8AC0
:1021E000828B83A3A3A3E4936C700579FB02230C79
:1021F00074586508701B8E828F83E02471F8A3E009
:1022000034FFF9C3E89422E99464400579E8022395
:102210000C8E828F83E0C0E085090A750B00740282
:10222000780A1205A312231EFAD0E0C39A40DD8576
:10223000090A750B007402780A1205A312230FC055
:10224000E08E828F83E0FAD0E0C39A40BFE5A8F524
:102250000AC2AF85090C750D007402780C1205A333
:10226000E50C24B6F8E50D34C9F9E8FAE9FB8E0C63
:102270008F0D750E00780C1204818A828B83A3E483
:1022800093FC7D008A828B83E493243FFAE4340933
:10229000127C041204B2E50AA2E792AFE508120329
:1022A000B7000750BA2252D02253C022E0FB22E1ED
:1022B000E222E2EC22E502230A23122338022186DD
:1022C000900960122333906174F0E990617580ED9C
:1022D00090095FE07902600512381B802D123839B1
:1022E000802890096FE0F9122FEF801E79087C702A
:1022F0007D097A6A7B611242E2800F90096EE0F4F8
:1023000004F090096EE0F9122F487900020CE8E51C
:102310000A24B9F582E50B34C9F583E49322E50A72
:1023200024B8F582E50B34C9F583E493228E828FBD
:1023300083A3A3124E19E82290095C124E19E8906B
:102340006172F0E9906173222274F812020DE9FEC5
:1023500090097BE06E700479008034E0702F900962
:102360001CE0600464027025A2AFE492E0FFC2AFFB
:102370009009ADE070129009AFE0700C9009C2E0D6
:1023800070069009C1E0600AEFA2E092AF79E20224
:102390001F571238E5EE900D95F0EFA2E092AF5383
:1023A00094FEE594A2E240FA74016E60079061A584
:1023B000E0C2E2F0EE90097BF0809CC082C0839086
:1023C000097BE06005123917E4F00228DBC082C007
:1023D0008390092B746CF0A374C90220DFC082C003
:1023E0008390092D7446F0A374CAF090093174608B
:1023F000F0A374CAF0900933747CF0A374CA122459
:1024000019F0A3E012240EF012242B0228DBF09026
:10241000092F7486F0A374CA22F090091D74BDF0D0
:10242000A37414F090091AE0440122C082C0839082
:1024300009357450F0A374CAF09009377454F0A3AE
:1024400074CA1224480228D0F0900D8B74E9F0A3CE
:1024500074C8F090091F745DF0A37407222274F50C
:1024600012020D74078A828B831224B3124306A3CF
:10247000A31224B3A3A3124306A3A3A31224BDA3B0
:10248000A378081206698A828B83A3A3A3A3780882
:10249000120687E48A828B83A3A3A3A3A3A3A3A387
:1024A000F0EC2415F582ED120B69125BBB12573C60
:1024B00002070E1224BDA3A3A3A3A3A322F08C8220
:1024C0008D832274F512020DEAFEEBFFE490097D84
:1024D00012493AC39404400674E890097DF08E8254
:1024E0008F83A3A3A3A3A3A3A3E0C3940F40158E3C
:1024F000828F83A3A3A3A3A3A3E06403601574E85E
:1025000090097DF08E828F83A3A3A3A3A3A3E0648D
:1025100003700E90091AE0A2E0400674E890097D6D
:10252000F0EEFCEFFD7A7C7B0912245E8E828F83B5
:10253000A3A37808120669740A78081204CC9009DB
:102540009078081206878E828F83A3A3A3A3A3A3E8
:10255000A3E09009941225CE900995F0740A900991
:1025600096F090096FE0900997F090098D1214E4AD
:10257000740490098FF090097DE0704190097EE02D
:10258000600674EA90097DF090097EE0FA700774A5
:10259000019009AE801874036A7004740380F274A9
:1025A000029009AEF074FF906172F0906173F07464
:1025B000268E828F83F0790412381B800774298E4F
:1025C000828F83F0EEFAEFFB1216D902070E120C7F
:1025D0000FA3A3A3E02274F512020D74F71204FDF9
:1025E000EAFEEBFF90097EE0702B900996E0640A0A
:1025F0006023123072E9C0E0E0F8900985E028120B
:10260000364974F528F58274FF39F583D0E0F090EF
:102610000984E004F0900990780812066974017842
:10262000081204CC9009907808120687900996E069
:1026300004F0E508A2E04006E0C3941D40D7E06442
:102640001D605B7A967B0979E112216E90097EE02C
:10265000600464027009EEFAEFFB1226AA8042744D
:10266000081206A37402125E5A74FFF0A3F09009D8
:102670007EE06401700679087A80800479077A83A5
:102680007508FF7509FF78081204857B0074021233
:1026900006A3AC82AD831226A41204B28003121FDB
:1026A0005C020BFD121BD274022274F112020D7532
:1026B0000801750900750A00750B00900996E0780D
:1026C0000812042478081206499009807808120636
:1026D0001590097EE06403700F12272912066978AD
:1026E00008790C12018D8035750801750900750A8D
:1026F00000750B00900994E07808120424900CFCFB
:102700007808120590900DB0780C12066978087957
:102710000C12018D90097EE070031230627808126D
:10272000047D7A877B090209A490096A12273B7508
:102730000A00750B00900DB0780C22E0F5087509C1
:10274000002274F212020D74D41204FDEAFEEBFFB3
:1027500090097EE064026008E0640160030228449E
:10276000E490097DF0740B1206A3A882A983740378
:102770001206A312284C900995E0700302280E90CF
:102780000984E0C0E0900995E0FAD0E0C39A507E59
:102790009009851259A8900984E0F50A80338508CC
:1027A0008285098312596D74141206A3E0687003C0
:1027B000A3E0696013740B1206A3AC82AD83AA0870
:1027C000AB0912C176E96013150AE5082421126DE0
:1027D00059E50A70C9900984E07033740B1206A39E
:1027E000A982AA83890C8A0D750E00780C120481C7
:1027F0007C217D00900984E08CF0A4F8A9F0E50824
:1028000028FAE50939127C041204B2E004F09009B8
:1028100041E0600E74081206A3E07006900995E08E
:10282000700D851882851983AA82AB831268469041
:102830000995E0600F900984E0FA900995E06A70CC
:1028400003121F5C742C1204B2020CE8E8F0A3E936
:10285000F0EEFCEFFD851882851983AA82AB831206
:102860001C4622C082C08390097DE064E860267A1D
:10287000877B09122B711230537904123839900971
:102880007EE06403700690097DE060097A977B0919
:1028900079E112216E7A7C7B09021440C082C083E8
:1028A00074F51204FDEAFCEBFD851882851983AAF4
:1028B00082AB8312245E74011206A374FC1228C436
:1028C000740B8007125F09126846221204B2800B53
:1028D000F090091AE04402F0A3E0F0D083D0822205
:1028E00079071217852274F112020D90099CE4F009
:1028F000A3F0900998E07002A3E060379009981265
:10290000365FC082C083900D8D7808120669D0832F
:10291000D0827808120553501A1229F2122A051291
:1029200005535006122A051206879009981229FEAF
:1029300012574590099AE07002A3E090099C60301C
:10294000E07002A3E0601E90099A12365FC082C058
:102950008390099C122A08120669D083D0827808D5
:10296000120553501290099A1229FE1257458007FA
:10297000E07002A3E0607512365CC082C083900DE7
:102980008D7808120669D083D082780812055350DA
:102990005B90099C122A08120669A2AFE492E0FE3D
:1029A000C2AF9009A47808120687122CF278087931
:1029B0000C120639500874029009A8F0801C900C83
:1029C000F8780812053E70047403800274059009BB
:1029D000A8F09009A07808120669AA08AB09AC0A09
:1029E000AD0B124049EEA2E092AF8003122CD00250
:1029F00009AC122CA28A088B098C0A8D0B22124E6C
:102A00001990099C2290099812366378082274F173
:102A100012020D8A088B098C0A8D0B740F1206A303
:102A2000804C8A828B83A3A378081205EF90099CBF
:102A3000122A7A687002EB6970308A828B83A3A3B2
:102A4000C082C083900CF8780C120669D083D082C3
:102A5000780C1205535013900CF8780C1206698A02
:102A6000828B83A3A3780C1206878A828B8312360B
:102A700053EA7001EB70AB0209AC124E19EA2274F2
:102A8000F112020DEAFEEBFFA2AFE492E0F50CC2F8
:102A9000AFECFAEDFB8C828D838008AA0EAB0F8A17
:102AA000828B83121C3EE50E7002E50F60228E823F
:102AB0008F83A3A3C082C083850E82850F83A3A3C7
:102AC0007808120669D083D082780812055350CB5B
:102AD0008A828B83EEF0A3EF125736E50EF0A3E562
:102AE0000F1224BD122BAB687002EF69700312281D
:102AF000E6E50CA2E092AF0209ACEEFAEFFB122A77
:102B00007F0209AC122C197808790C2274F1120298
:102B10000DEAFEEBFF740F1206A378081206691285
:102B20002B041205C98E828F83A3A378081206870F
:102B30007C987D0980C474F812020DECF8EDF98CD4
:102B4000828D838004A882A98312538C8C828D830A
:102B5000E5827002E5836014EA65827003EB6583A9
:102B600070E3123653127673790180027900021FE6
:102B70005774F812020DEAFEEBFFA2AFE492E0F503
:102B800008C2AF7C987D09122B36E9700B7C9A7DC8
:102B900009EEFAEFFB122B3690099C122BAB6870F2
:102BA00002EF6970031228E6023892122BAF22E07E
:102BB000F8A3E0F9EE2274F112020D900998E0708A
:102BC00002A3E0700A90099AE07002A3E0603BE57E
:102BD000A8FEC2AF9009A47808120669122C15EE5F
:102BE000A2E792AF900CFC780C1205907808790C53
:102BF00012063950117808790C12057CAA08AB0925
:102C0000AC0AAD0B800C7A0180027A007B007C005C
:102C10007D000209AC122C1922122CA28A0C8B0DF9
:102C20008C0E8D0F22C082C08390099FE0640170DA
:102C30000479FE800279FF0228DB74F512020D741C
:102C4000019009A8F0900CF87808120669AA08AB60
:102C500009AC0AAD0B123FF7900DB4780812066963
:102C6000AA08AB09AC0AAD0B122C7D75A1EF4394F9
:102C700001E594A2E250FA43A71002070E74F51280
:102C8000020D8A088B098C0A8D0BE5A8FEC2AF9055
:102C900009A07808120687124049EEA2E792AF0217
:102CA000070E74F112020DE5A8FEC2AF124162EEEA
:102CB000A2E792AF9009A0780C120669780C790807
:102CC00012063940087A007B007C007D000209ACC6
:102CD00074F512020DE5A8FEC2AF74019009A8F0C8
:102CE0009009A07808120669AA08AB09AC0AAD0BD6
:102CF00080A5123FCB8A0C8B0D8C0E8D0F227F0C82
:102D000002031C74F112020DA2AFE492E0F508C2B6
:102D1000AF9009A8E0F509A2E04003022DE7900C6E
:102D2000F8780C120669AA0CAB0DAC0EAD0F123F71
:102D3000F7A2AFE492E0F50AC2AF90099A122E967C
:102D400090099812038A900D8D780C120669780C00
:102D5000120628AA0CAB0DAC0EAD0F122A0E74028F
:102D60001204B280378E828F83A3A3C082C0839067
:102D70000D8D780C120669D083D082780C12055321
:102D80004013900D8D780C1206698E828F83A3A359
:102D9000780C1205688E828F83122E96EE7001EFEA
:102DA00070C3900D8DC082900D91780C12066975DC
:102DB000830DD082780C12053E6023900D91780C23
:102DC000120669900D8D780C120687900D8D780C87
:102DD000120669AA0CAB0DAC0EAD0F122C7D122899
:102DE000E6E50AA2E092AFE509A2E1506B7401901A
:102DF00009A8F09009A0780C120669AA0CAB0DACDA
:102E00000EAD0F124049E508A2E092AF90099CE098
:102E10007002A3E0606790099CE07002A3E0605D2F
:102E20001229F212365C780C120669780C790812B5
:102E30000639404990099C120B87FAEFFB122E804D
:102E4000A3A3A3A3E0F98E828F83A3A3A3A3A3A329
:102E5000122E901206AD80BE7405650970197402B9
:102E60009009A8F09009A4780C120669AA0CAB0D81
:102E7000AC0EAD0F124049E508A2E092AF0209ACDA
:102E8000122B718E828F83A3A3A3A3228A828B83AA
:102E90001211CC22A3A3E0FEA3E0FF22C082C083D4
:102EA000123E217C00ECC333F8E433F9E82492F5B8
:102EB00082E934CAF583E493FA740193FB1206C0E5
:102EC0001276770CECC3941040DB740B9009ABF0D6
:102ED0009009AAF074329009ACF09009A9F0E4903E
:102EE00009C1F09009C0F09009AEF09009BCF090D3
:102EF00009B2F0A3F09009AD1231391234FB9009F8
:102F0000BDF09009BEF09009BFF09009C2F09009A1
:102F1000C9F0122C3A0228DB74F355B44404F5B41A
:102F2000A9BD22C082C083906180E0FAE96004D22A
:102F3000F08002C2F0A2F0E492E0C333C0E074FD7E
:102F40005AFAD0E04A0228DA74F812020DE9FE902B
:102F50007803E06495700678D279CA800478B679EF
:102F6000CA88828983E493C39EA2D265D03340137A
:102F7000A3E493FAEEC39AA2D265D03350088882B4
:102F80008983A3E493FEE5A8FCC2AF88828983E429
:102F900093C39E2402FAE82AF582E912085F93900F
:102FA00009AC122FAB122FB2021F57F0ECA2E7921E
:102FB000AF22C082C083A2AFE492E0FBC2AF90090F
:102FC000ACE0FA9009A9E06A601A9009AFE07014C9
:102FD0009009C2E0A2E7400C9009ACE09009A9F08A
:102FE000906190F0EB8001EAA2E092AF0228DB74DE
:102FF000F812020DE9FEA2AFE492E0FFC2AFEE903C
:1030000009ABF09009C2E07003123010EF0238945F
:10301000C082C083A2AFE492E0FBC2AF9009ABE0F4
:10302000FA9009AAE06A60239009ABE09009AAF03F
:10303000EBA2E092AF1238E575F005E0A424D4903D
:10304000618FF01230C41238798005EBA2E092AFA4
:103050000228DBC082C083E49009AEF012397A0204
:1030600028DAC082C08374809009CBF043A70102A4
:1030700028DBC082C08353A7FE9009CBE024B7F9B8
:103080001230860228DBE9FCC394AFA2D265D033AC
:1030900050047CAF800DECC3940BA2D265D03340BA
:1030A000027C0AECF83395E0F9745128F8E439F918
:1030B000E875F0FFA4F8AAF075F0FFE9A42AF97A00
:1030C0005B020E90C082C08374019009BEF090092B
:1030D000BDE070081230DFE49009BEF00228DBC0CA
:1030E00082C0839061A412771B7405906194F0757F
:1030F000E1ED75E1EDE5A8C2AF759B0075E9FBA2B6
:10310000E792AF9009B2E07002A3E060077AB27B69
:103110000912194A9009B2E4F0A3123139F090096A
:10312000ADE070069009AFE0600CE49009ADF0905E
:1031300009AFF012376F0228DB12313D22F09009FF
:10314000B07448F0A374312274F512020D74FE12AB
:1031500004FD74819009ADF09009C0E0600D9061AC
:1031600093E0A2E74010E0A2E6400BE49009ADF046
:1031700012376F0234CC9061E4E070179061A4E0E4
:10318000A2E4500FE0C2E4F0E0A2E35003123DAE2F
:10319000123BBD1234F59009AEE09009BBF0790402
:1031A0007AB47B0912431B9009B4E0547F24FD904C
:1031B00009B8F09009CAE070209009B8E0C3947D86
:1031C000500B9009B5E05407C39404400C75E1ED31
:1031D00075E1ED1237470234CC9009B5E05407642D
:1031E0000260030232AB9009BCE060030232AB79AB
:1031F00002851882851983AA82AB8312431BA2AF72
:10320000E492E0FFC2AF9009C2E06486600302323C
:10321000A3851882851983E024B7FE74011206A3E2
:10322000E0547FF508EEF9123086E9C0E09008FD21
:10323000E02414123719D0E01212F7123717E508FC
:103240001212F7241612371DF0EFA2E092AF7401AC
:103250001206A3E0A2E750469009B5E05410FE9094
:1032600009B7E0FFA2AFE492E0F508C2AF9009C24F
:10327000E0648670257487F0123D9AE508A2E0921A
:10328000AF9009C7E06F700EEE6007791B123C2A01
:103290008016790080F779E980F3E5088006123B13
:1032A000FB8005EFA2E092AF0231D39009C2E06447
:1032B000867003123BFB9009BBE060249009BCE0E0
:1032C000701E9009BBE06401700302337FE064026A
:1032D000600302336A9009B5E05407600302337F4C
:1032E0009009B6E0FA1313543F5403F50BEAC413E4
:1032F000135403F50A9009CAE070127401650A704C
:10330000030231CD7401650B70030231CD850A08CB
:103310001234D1C0E0850B081234D1FAD0E02AFE75
:10332000E50A600A9009B5E0A2E650021E1E900967
:10333000B8E0FA8E08740225081273714041E0C3A8
:103340009E24FE9009BAF09008FCE0C39402503528
:103350009009BAE0F8743228FAE43400FB12A0DFD6
:103360008A088B09A808A909801FE064036003028A
:1033700032E09009B5E05407640370030232E012B2
:1033800037980234CC780079009009B212373D703A
:1033900002A3E0700575E1E880E57F009009BCE0DC
:1033A000700A9009B5E054209009AFF09009AFE0A1
:1033B0006068A2AFE492E0F508C2AF9009B5E054AE
:1033C000076403703990091AE0540260199008FAF2
:1033D000E070219008FDE07002A3E060099008FD14
:1033E000E01212D9400E90099EE06012122C25E9DD
:1033F00064FE700A7F0490618AE0D2E280069061E8
:103400008AE0C2E21239717591FEA2E792AF906133
:10341000A41263CEE508A2E092AF9009B2E01237A1
:10342000221257439009BAE0C0E09009B212365F09
:10343000A3A3D0E0123741241A123719E50A123734
:10344000412423123719E50BF0123E069009B2E031
:1034500024241237197808120687123FB09009B257
:10346000E0242812766D9009B5E05407C0E0900979
:10347000B2123E12D0E0F09009B7E0C0E09009B27D
:10348000E02431123719D0E0F09009B5E05478C04B
:10349000E09009B6E0C4540F5403FAD0E04A4FC09C
:1034A000E09009B21234E5D0E0123741240F123413
:1034B000DFEE70051235CE80139009B9F0149061DB
:1034C00094F09009B07402F0A37435F0740202070E
:1034D0000BE50824B2F582E434CAF583E4932212A2
:1034E0004ECDE4F0221234E9221234ED2212366B72
:1034F000A3A3A3A3229061A4E0C2E0F0E49009AFEB
:10350000F02274F812020D74EC1204FD1237FBACB9
:1035100082AD839009B6120B0BFE60659009B2E094
:10352000242C123649851882851983E0FC74011217
:1035300006A3E0FBEC888289831259B0FA9009B2A5
:10354000E0242A12766D74036E701674021206A3BC
:10355000AC82AD839009B2E0241B1250C0740A8083
:103560001974021206A3E0FA74031206A3E0FB909A
:1035700009B2E0241B12766D74041206A3AC82AD6E
:10358000839009B612597EFE6030123735A2E640AC
:10359000111235C2242A12766DEC24020C0CED3483
:1035A00000FD74036E700B9009B2E024121250C03B
:1035B00080081235C2241212766D1235CE741402B0
:1035C000156D8C828D831236579009B2E0229009D6
:1035D000B0740DF0A37436F01235DC22C082C083C3
:1035E0009009BAE070117401906194F09009B07480
:1035F00071F0A374368013C394105003E0800274FA
:10360000109009B9F0E0149061940228DAC082C0E9
:10361000839009B9E0F99009B212365F123653125D
:10362000431B9009B2E024021236499009B9120BEB
:1036300028127D731276739009B9E0FA9009BAE006
:10364000C39AF01235DC0228DBF8A3E03400F9223B
:103650009008F112365722123AA0FB2290099C12D0
:103660003663221236672212366B221211D4A3A3BC
:103670002274F712020D7F0079027AB47B0912439B
:103680001B9009B5E05480F50870089009BCE0640F
:1036900002706D74029009ADF012389B9009B4E08D
:1036A00024B7FE9009B5E0547FF50990099EE060CB
:1036B0001090099FE07008906163E0A2E650027FDD
:1036C00004EF4508FA1237354AF0EEF9123086E970
:1036D000C0E09009B2127D86D0E01237412430124A
:1036E000371D123741242F123719E50912374112BD
:1036F0003722A3A312373DFAA3E0FB120E98800AEB
:103700001234F57AB27B0912194A9009B2E4F0A397
:10371000F012380E023B1D2415124ECD22124ECD52
:10372000EE222432F8A3E03400F99009B2123AA054
:10373000F5838A82229009B21234E9E022E8F0A3EC
:10374000E9F09009B2E022C082C083906193E0A2C8
:10375000E6500BE0A2E7400675E1ED75E1EDE4907F
:1037600009ADF09009AFE0700312376F0228DBC09B
:1037700082C08312389B122FB2A2AFE492E0FAC249
:10378000AF9009C2E0640270077483123AA5800505
:10379000EAA2E092AF0228DBC082C0839009B8E0C1
:1037A0007005123747801EC394105003E0800274E6
:1037B000109009B9F0E014906194F09009B074C8C9
:1037C000F0A37437F00228DBC082C08374F01204C7
:1037D000FD1237FB9009B9E0FA9009B8E0C39AF0FE
:1037E0006011C39410500FE09009B9F014906194E7
:1037F000F0800312380E74100228CB9009B9E0F95A
:10380000851882851983AA82AB8312431B22740513
:1038100090619412313DF01237472274F812020D74
:10382000E9FEE5A8FFC2AF9009C1E04EF01238CA28
:10383000EF020B4EA2E7022FEA74F812020DE9FE26
:10384000E5A8FBC2AF74FF6EFA9009C1E05AF0EB35
:10385000A2E792AF12389B021F57C082C083E5A82F
:10386000FAC2AFE49009C1F09009C012390CEAA283
:10387000E792AF1230C40228DB74F812020DA2AF37
:10388000E492E0FEC2AF9009C1E060031238CAEED4
:103890008002E508A2E092AF021F5774F812020DF1
:1038A000A2AFE492E0FEC2AF9009C1E070199009A6
:1038B000ADE0A2E740119009AFE0700B9009C2E0C3
:1038C000A2E740031238E5EE80CAC082C083A2AFEF
:1038D000E492E0FAC2AF9009C0E070067401F0759E
:1038E000E1E3022FE7C082C083A2AFE492E0FAC214
:1038F000AF9009C0E06012E412390CE5A8C2AF75C0
:103900009B0075E9FBA2E792AF022FE7F075E1EFAC
:1039100075E1ED75E1ED22C082C083900D95E06008
:103920004D439401E594A2E250FAE06402703790AE
:1039300061A512764E9009CAE0C394125013123951
:103940007AF0900960E0906174F0900961E01239BA
:103950008A740590619412397175E9FBA2E792AF00
:103960009061A312764EE4900D95F01238790228FA
:10397000DBF0E5A8C2AF759B002290095CE0906186
:1039800072F090095DE090617322906175F07908A2
:103990007C707D097A6A7B611242E22274F812021D
:1039A0000DE9FE74019009C2F0900D95E060087970
:1039B0001D123C2A023A87EE9009C3F06402701A85
:1039C000123B1175E1D975E10175E10975E1BA752F
:1039D000E10175E1C575E1D2803CE49009C612129F
:1039E000F7240EF8123A94A2E65005900979800364
:1039F00090095BE09009C4F09009C3E0701590094C
:103A000042E0600F9009C4E0C39403400474028054
:103A100001E0F0123AAC9009C9E070459008FD123F
:103A20007E8AFAA3E0F5838A82E054209009C812C6
:103A300059B3FAA3E0F5838A82A3A3E09009C712E1
:103A40003A98F5838A82A3120B251207A7888289E8
:103A50008374022AF075E1EE0AE0F5D9A31AEA7040
:103A6000F8A2AFE492E0FAC2AF9009ADE070109016
:103A700009AFE0700A74839009C2123AA5800874F5
:103A8000029009C2123A8A021F57F0EAA2E092AFEE
:103A90002208080812603D22F09008FD123AA02288
:103AA000E0FAA3E022123A8A123B222274F71202B1
:103AB0000D7508017509009009C4E078081205A386
:103AC000E50814C0E0122F18E9FAD0E05A9009C5B1
:103AD000F09009C3E07011123B1175E18175E1109E
:103AE00075E1D275E181800C123B1175E1B875E189
:103AF0008175E1B875E11075E1D275E1D975E10123
:103B000075E10975E1BA75E10175E1C575E1D2802C
:103B10000C123C7175E1BC2274021204B27F0202E5
:103B2000031C74F812020D1234F59009C3E064020C
:103B3000704D123CEEA2AFE492E0FEC2AF75C3003E
:103B4000E5A2E5A4FF740F5FFA740FC39AF508901D
:103B500061E2F012385A74019009C0F075E1E17524
:103B6000C300E5A2E5A46F600FE508C39402400816
:103B700074FF25089061E2F0EEA2E092AF8003129C
:103B80003B85021F57C082C0839009C3E070289014
:103B900008FFE07002A3E0600D9008FF122E901263
:103BA00006ADE9FA80027A009009C5E0C39A4007A1
:103BB000791C123C2A8003123C9F0228DB74F81205
:103BC000020DA2AFE492E0FEC2AF9009C2E06483AE
:103BD00070219009C8E0701274859009C2F0EEA2BD
:103BE000E092AF7900123C2A800E74869009C2F0F0
:103BF000123CFAEEA2E092AF021F5774F812020DC7
:103C0000A2AFE492E0FEC2AF9009C2E064867012F7
:103C10007487F0123D9AEEA2E092AF79E9123C2A45
:103C20008005EEA2E092AF021F5774F812020DE970
:103C3000FEE49009C9F09009C2F012389B122FB22D
:103C4000123010EEF9121080021F57C008E5A8FAD2
:103C5000C2AF75C300E5A2F508E5A3FBEAA2E792AF
:103C6000AFEBF9A8087A007B0212012CE8F9D00822
:103C700022C082C083759C0174019061E4F075E1FB
:103C8000E275E1FFE5A8C2AF759B007591EFA2E771
:103C900092AFE5A8C2AF759B007591F7023834C0AA
:103CA00082C0839009C5E09061E2F0E06003E01417
:103CB000F075A1FDA2AFE492E0FAC2AF75C300E5D2
:103CC000A2FBE5A3FC9009CAE0C394125008EB7074
:103CD00005EC70027B0175C3038BA28CA3EAA2E002
:103CE00092AF123CEE1238CA75E1E10228DB906116
:103CF000A4E0D2E4F0E0D2E3F02274F712020D1255
:103D00003C4BE9FF90093FE02F24ECFA75F0148456
:103D1000FE75F014A4CA9AFA0E74029061E4F0EEF3
:103D20009061E2F075A1FDA2AFE492E0FBC2AF7535
:103D3000C3038A08750900740978081205A3F8A955
:103D4000099009CAE0C394125009E47001E97003B4
:103D5000087900E8F5A2E9F5A3EBA2E092AF75E1DE
:103D6000E275E1FFE5A8C2AF759B007591EFA2E790
:103D700092AF75E1BC75E1B875E1D29061A4E0D273
:103D8000E4F075E1E1123C4BE9C39F500A9061E217
:103D9000E06E7003E014F0023B1DC082C0839061AE
:103DA000A4E0C2E4F075E1E275E1FF0228DB74F102
:103DB00012020D9061A4E0C2E3F0E5A8FEC2AF12CA
:103DC0003E06EEA2E792AF9009A0780C1206697841
:103DD0000C7908120639400A900CF8780C12066922
:103DE00080088A0C8B0D8C0E8D0F9008FD123E12F0
:103DF000780C120687123FB09008FD123E18A3A35C
:103E00001276770209AC123FE28A088B098C0A8D80
:103E10000B22125FFCA3A322123E1C221234EDA33C
:103E20002274F712020D74F01204FD74149061A94B
:103E3000F0743F9061ABF074F8906196F0748590E7
:103E400061A8F0745A9061ACF0E49061AEF0741522
:103E50009061B2F0E4906182F074109061B5F074FA
:103E60000E9061B6F074039061B7F074099061FA36
:103E7000F074FF9061E5F0439A01D2A843A9015381
:103E8000B9FE906249E09009CAF0E5A8C2AF75C3D7
:103E90000275A20075A328A2E792AF439401E594AE
:103EA000A2E250FA439408D2BA7448906189F012A1
:103EB00038CA906199E0A2E050F87A007C007B0853
:103EC000123F92C0E0ECC333FCD0E04CFC1BEB7023
:103ED000EF8A08E50824D2F582E43409F583ECF092
:103EE0000AEAC3941040D5780079007C10E8C33307
:103EF000F8E933F9123F9248F81CEC70F0E87001D1
:103F0000E9600A7480687003740369700478BE798C
:103F1000BAE8F5BCE9F5BC9009D0E07002A3E06016
:103F2000467A007C007B08123F92C0E0ECC333FC71
:103F3000D0E04CFC1BEB70EF8A0885188285198352
:103F4000E5822508F582E583120B69ECF00AEAC3E5
:103F5000941040CF851882851983AA82AB8390097B
:103F6000D0122E901206AD1238E57440906189F09F
:103F7000E0D2E5F0E4906164F0906165F0906166F4
:103F8000F0906167F0906168F0906169F0741002E0
:103F90003B1A9061A7E0A2E0E492E02274F355B4EA
:103FA0004404F5B4E5BDF9E5BC2400FAE439FB228C
:103FB000C008E5A8FAC2AF75C301E5A3FBE5A2F509
:103FC00008EAA2E792AFAA08D0082274F512020DFF
:103FD00074FC1204FDE5A8FAC2AF75C300E5A202A5
:103FE00006D374F512020D74FC1204FDE5A8FAC2A2
:103FF000AF75C3100206D374F512020D74FC1204DF
:10400000FD1240989009CC12415C120590851882EF
:1040100085198378081204E59009CC780812068780
:10402000E5A8FAC2AF75C300851882851983E0F54B
:10403000A474011206A3E0F5A574021206A3E0F52C
:10404000A6EAA2E792AF020709C082C08374FC12FD
:1040500004FD1240987A00A2AFE492E0FBC2AFE503
:10406000A7A2E450040A53A7EF75C33085188285D0
:104070001983E0F5A474011206A3E0F5A5740212F9
:1040800006A3E0F5A675A1EFEA600343A710EBA233
:10409000E092AF74040228CB851882851983EAF078
:1040A000A3EBF0A3ECF0A3EDF022C0E074F2120257
:1040B0006DA2AFE492E0FED2AFE5A7FAE5A1FBEA7C
:1040C0005B54106008122D0375A1EF802AEAA2E06C
:1040D000C0D0EBA2E092F0120602158182F05017D8
:1040E000906198E0FA9009CBE0C39AA2D265D033F0
:1040F0005002EAF075A1FE751A00EEA2E092AF7FC1
:10410000010202CC74F512020D74FC1204FDE5A745
:10411000A2E45045E5A1A2E4403FE5A8FAC2AF758C
:10412000C330E5A4851882851983F0E5A5C0E07445
:10413000011206A3D0E0F0E5A6C0E074021206A3C7
:10414000D0E0F074031206A312071312415C1206AA
:10415000595006122D0375A1EF020709124162782A
:104160000822123FCB8A088B098C0A8D0B2274F52A
:1041700012020D74FE1204FDE5A8FAC2AF75C30069
:10418000E5A2E5A4851882851983F0E5A5C0E07451
:10419000011206A3D0E0120714C082C0839009CC9C
:1041A0007808120669D083D082E02508FAA3E035AA
:1041B00009FB0234CCC0E074F212026DA2AFE492AB
:1041C000E0FED2AF9061A4E0FA759B00E5915A54ED
:1041D0000860097591F7123DAE02426EE5915A549E
:1041E00010606B7591EFE0C2E4F09061E4E070055F
:1041F000123BBD8079E06401704F74049009C2F0F5
:1042000012389B9009C6E004F090095AE0C0E09093
:1042100009C6E0FAD0E0C39A500779E1123C2A803F
:104220004D9009C41242AD900966124FB2500790EA
:1042300009C4E0048001E09009C4F0123AAC748330
:104240009009C2F0123B858025123BFB8020EAA238
:10425000E0C0D0E591A2E092F0120602158182F052
:10426000500C1234F89009ADE0700312376F906172
:10427000A3E0FAE5E95A540460309009BEE0701FEB
:1042800074019009BDF09009B0122E901206ADE4B1
:104290009009BDF09009BEE060051230DFE4F075D2
:1042A000E9FB906193E0A2E640D00240F7E0F874A9
:1042B000012808E43400F922C0E074F212026DA271
:1042C000AFE492E0FED2AF9061A5E0FAE5BF5A54A8
:1042D00004600C75BFFB9009BFE004F01230C4020B
:1042E00040F774F812020D8017198C828D831243E7
:1042F00006F0A3AA82AB838C828D83A3AC82AD83AC
:10430000E970E6021F57E08A828B8322124314AAC7
:1043100082AB8322F08A828B83A322C082C083E592
:10432000D98A828B83F0A3AA82AB8319E970F00249
:1043300028DB74F812020D9009E4E070369009E36E
:10434000E06402702E123072E9FF900AA1E0F912C7
:104350004614E9FEEFFA1244B59009E2E0C0E0909D
:104360000D4AE0FAD0E0C39A500C9009E2E004F064
:10437000124629021F57EE124409C0E0900D49E091
:10438000FAD0E0C39A40E9900AD1E060089009FBB6
:10439000E064037006900AA1E08045EE1245F11238
:1043A000597675830D758247C3E098A3E099402440
:1043B0009009FBE004F06403700B900D45124FBEB2
:1043C0007B021246469009FBE06403700CEEF91282
:1043D0004584800BE49009FBF0900AA1124F70E92C
:1043E000FA900AA1E06A6088900CE6E0A2E4500E20
:1043F00074049009E3F0EA9009E5F0024373EA904F
:104400000AA1F012446302437375F007A4A9F024D3
:10441000ECF582E93409F583E022C082C08390097B
:10442000E41263D364027003126B3A0228DBC08289
:10443000C0839009E3E0640170051266E0801BE030
:1044400064027005126B3A8011E0640470129009E6
:10445000E5E0900AA1F0F912448C74039009E3F0AE
:104460000228DBC082C08374019009E3F0900AA1A6
:10447000E0F912448C7AA17B0A79E112216E7C0169
:104480007D007A007B011246460228DB74F8120296
:104490000D89087900E9C0E0A9081263ADFAE5F0DA
:1044A0003409FB7C07E4FDD0E0F912A0B7E49009E1
:1044B000E2F0021F5774F512020DE9FDEAFCED75FA
:1044C000F007A4A9F012457F64FF7004A3E064FF25
:1044D0006010ED75F007A412457F2401F0A3E034CD
:1044E00000F0ED75F007A424E8F582E93409F583BE
:1044F000C082C083900DB87808120669D083D0823C
:1045000078081205DC900CF8780812053E600AED78
:1045100075F007A412440F14F0ED75F007A424E61B
:10452000FAE93409FBEA2402EB34000A0AFB8A8226
:104530008B837808120669740178081204248A8231
:104540008B837808120687900D4BE0C39C502DEDAD
:1045500075F007A424E6E934091A1AFB900CFC78DC
:10456000081206698A828B83A3A378081205B68A8B
:10457000828B83A3A3A3A3A3A3E004F002070E12DC
:1045800045F9E02274F812020DE9FBFC7D00EB6DA9
:104590006043124603C0E0EC124604FAD0E0C39A2E
:1045A0004031124603FEEC1244096E7028EC1245AD
:1045B000F1C082C083ED75F007A424E6F582E5F032
:1045C0003409F583125976D083D082C3E098A3E0F2
:1045D000995002EDFC0DEDC3940340B2EC700479E8
:1045E0000F800B74016C7004791480027919021F1A
:1045F0005775F007A41245F92224E6F582E934093B
:10460000F58322ED75F007A424ECF582E5F034097A
:10461000F583E022E9FA74146A70037901227419AF
:104620006A7003790222790022C082C083900AA1B5
:10463000E09009E5F07C027D007A101246441230C9
:10464000620228DB7B00900CE5E0F912B4AB227427
:10465000F512020DEAFEEBFF8E828F83A3A3A3A3C4
:10466000A3E0A2E6500575080880037508068E824F
:104670008F83A3A3A3A3E02508F98E828F83A3A32E
:10468000A3A3A3E0A2E35004740429F97B007A00F9
:104690001214798A0A8B0BA80AA90BE87001E97039
:1046A0000479BE801D8E828F8312573FAA088882AC
:1046B0008983A3A3E02A1236498E828F8312573D45
:1046C000790002070E74F112020DEAFEEBFFE4908E
:1046D0000C82127ABEF0A3F0900CE7E06401601443
:1046E000E06402600F74B4900C82F012491C1257FF
:1046F000C30209AC900D41780812066975830A75EA
:1047000082BE780812053E700474B680DA8E828FFD
:1047100083A3A3A3A3A3E05409640960118E828F2D
:1047200083A3A3A3A3A3A3E07002A3E0700474E88F
:1047300080B58E828F83A3A3A3A3A3E0A2E0402B26
:104740007A7E7B0E8E828F83E0F9126531E96004F8
:1047500074B28093A3A3A3A3A3E0A2E3500D900E91
:104760007E126035700574BD0246E7900C82E060F1
:10477000030246EB8E828F83E0900E0312493AF8D3
:10478000A3E0F9900E7C125745EE24051248FA5426
:1047900015900CF21259B3A2E05033900AC2E0A275
:1047A000E0900E7CE050051249148003124ED112A5
:1047B0004EDD900E7CE0242212371974FFF0A3F036
:1047C000124EC374FF12493FE4900E048050900EC5
:1047D0007CE012491412494BA2E1400512602640C8
:1047E00011900E7CE0242A124ED312605B126006F8
:1047F0008014900E7CE0242A12491612605B240E6D
:104800001237191276641260265005126042800336
:104810001250C412605BF8124909E0900CF312497F
:104820004BA2E25006900CE612764E900E7C1236A9
:104830005F1259A8740185088285098312494B5477
:10484000246424700912531B900AA1E08001E490B3
:104850000E0412494BA2E65029850882850983E09F
:104860004403121E587002A3E07005900AC380062C
:104870008E828F83A3A312597685088285098312BD
:10488000573F850882850983E04428F0126D6B8AC2
:104890000C8B0D8C0E8D0FA3780C1206878E828FD9
:1048A00083A3E0850882850983A3A3A3A3A3124958
:1048B0004BA2E3503A8E828F83A3A3A3A3A3A3A307
:1048C000A312038A8E828F83A3A3A3A3E0F9900E81
:1048D0007E12538CAA08AB09126DB674021204B290
:1048E000E9700C12491CF074BE900C820246EE79FD
:1048F00003126A79127C710246F11248FFE022F835
:10490000EF3400F9888289832212490D221211D6D0
:10491000A3A3A322242D124ECD7402228E828F8354
:10492000A3A3A3A3A3A3127A747402900C811249C7
:1049300035900C8322125736E022120C0FE022F041
:10494000A3F0900AA1E0900CF3F02212159DA3E0D1
:1049500022C082C083900CEBE07025900CE6E0A2B0
:10496000E2501D900E04E07004900CF3E0FB127C0A
:104970000B12559EE06B6008127C0B1255A0EBF0F9
:10498000900CE6E0C2E2F0900AC2E0A2E0500C9087
:104990000CE6E0A2E45004790280027901126A79FF
:1049A0007402900C81F0900E031257B70228DBC0FE
:1049B00082C083900AA1E01203B700030FC7491415
:1049C000CB4919CF49D3497901800A790280067908
:1049D00003800279000228DB74F612020DEAFEEB76
:1049E000FF124A428E828F83A3A3A982AA838908D9
:1049F0008A09750A0078081204817C0B7D007A050B
:104A00007B0A127C051204B28E828F83E07002A3AF
:104A1000E07003E480138E828F83124FBE7B0812F6
:104A20004646E4900A23F07401900A91F0024E2267
:104A3000124A3422C082C083124A42E4900A910290
:104A400028DA900CE8E0F0A3E054F7F07A007B0855
:104A5000126FC32274F712020DEAFEEBFF7B008097
:104A6000130A900A05126C7B30E30244F0FCEAC39F
:104A70009C40130B126C7530E30244F0FAEBC39ABE
:104A800050257A0080DC8B08EE2508F8EF3400F919
:104A9000742628F582E439124DE12409F582E434C4
:104AA0000AF583E06C70BA7A0080010A126C8FFC00
:104AB000EA9C5018EE242D124B4C6010124DE3244A
:104AC00006F582E4340AF583E06C70DFEBC0E01297
:104AD0006C7530E30244F0FBD0E0C39B5062EAC047
:104AE000E0126C8FFAD0E09A5056900A23E0700ED4
:104AF00074011250D07A1B7B0A12C2678042640193
:104B0000703E8E828F83A3AC82AD837A1B7B0A12A8
:104B10004B446027E49009FC1250D07AFD7B0912C7
:104B2000C267EE242E120B74900A10F07402900AE1
:104B300023F07AFC7B09124FC6800579B7124B6CC3
:104B4000023B1DFB12C226E922EE2416F582EF126B
:104B50000B4864FF22C082C083900A23E064027085
:104B600008900CEBE0F9124B6C0228DB74F812028F
:104B70000DE9FEE4900A91F0124A427410900A1175
:104B8000F0EE900A12F07CFD7D097A137B0A12C2C6
:104B9000677A117B0A021F5474F612020D900CE71B
:104BA000E06401703D8A088B09750A0078081204D8
:104BB000817C1A7D007A247B0A127C051204B2E4FF
:104BC000900A90F0900A3EF0900A8FF07904126AF1
:104BD00079740F900CF3F01276DC124F76124E2798
:104BE00080107406900E0812532FF0E4900E0A12F3
:104BF0004C5B024E22C082C083900CE7E0640470DC
:104C000028124DEA124C64900A90E0A2E25005D2BC
:104C1000E3F080157901126A797411900E08F01290
:104C200076F77A087B0E1284A60228DBC082C08346
:104C3000900A90E0A2E25020C2E2F0A2E3500D12EE
:104C400053807411900E08124C5B800C900CEBE0BA
:104C50006006124C64124F1C0228DBF07A087B0EAF
:104C60001284A622900CE8E054FB126FD27A041250
:104C70006FC12274F612020DEAFEEBFF900CE7E022
:104C800064046003024DCA124DD56003024DCA9000
:104C90000A3EE0C3940A4003024DCA750A0080230D
:104CA000124DCC850A08750900740378081205A313
:104CB000E508243FFAE509340A124B436003024D2C
:104CC000CA050AE0FAE50AC39A40D57405900C813A
:104CD000F0900CF3E0900C83124E0A900C84124D6D
:104CE000FC7A867B0C12C26712232D127537E912EB
:104CF000596750047C0F80027C0012598530E30212
:104D000044F01251EB741312594B7001EB60030223
:104D10004DCA88828983A3A3A3A3A3A31255B8E88D
:104D20002407FCE93400FD7A8E7B0C1251E2900CD2
:104D3000B2F07B00800C0A900A34E0FCEAC39C408D
:104D4000160B900C98126C7B30E30244F0FAEBC324
:104D50009A501F7A0080E08B08E50824ABF582E4C6
:104D6000340C124DE12435F582E4340AF583E06C0D
:104D700070C4900A34E0600E900C98126C7B30E3A3
:104D80000244F06B6044124DCC900A3E12273B74F3
:104D90000378081205A3E508243FFAE509340AFB65
:104DA00012C267E0041257C3E0640A6009E0FA9097
:104DB0000AABE06A7014124DEA900A901263CE902A
:104DC0000AA8E0600514900A8FF08056EE2412FCC9
:104DD000EF3400FD22EE241AF582EF120B48640333
:104DE00022F583E0FC8A08E50822900CE8E0F0A3B5
:104DF000E054FBF07A007B04126FC322E8F0A3E9D1
:104E0000F0EE2412FCEF3400FD22F0EE242A124EC4
:104E10001222F582EF3400F583E0F8A3E0F92212C4
:104E200004B27F0302031C74F712020D900A28E0FB
:104E3000A2E05004780F80027800FC7B007A0074B6
:104E4000705CC4C0E0125313D0E02C2412F912603D
:104E5000667002A3E0700A12538079BE124EE4809D
:104E60005F900E7CE0124ED1124EDD900A26127633
:104E700064900A24123653124EC312606C12753CB1
:104E8000A3A312600174018E828F83A3A3A3A3A3A3
:104E9000F07C287D0AEE2406FAEF1250AF900A3318
:104EA0001250BB900A3C12538C7A0412464474117F
:104EB000127ABBE4F0A3F0900A90E0D2E2127A09F1
:104EC000023B1D900E7CE0242B124ECD22127ADD87
:104ED00022242D124ED722127ADD740322127ACCAC
:104EE0007402F02274F812020DE9FE7406900C812F
:104EF000F0900AABE0C0E0900A3EE0FAD0E0C39A3E
:104F0000500474B78008E0700474B88001EE900C0F
:104F100082F0900A3EE0900C83021F51C082C08351
:104F2000124F6DE9F0640F7035900A8FE004F09035
:104F30000A9012765F900A8FE0C0E0900AA8E0FA2B
:104F4000D0E0C39A400D125380900CEBE0F9124E62
:104F5000E48017900A90E0A2E0500F124F767AF3A7
:104F60007B0C79E112216E124E270228DB900CF3A4
:104F7000E0F9126B4622C082C083900A8F1242ADC4
:104F8000900AA8124FB2501D900AA3E07002A3E04D
:104F90006013900AA3124FBE7B04124646900A90FB
:104FA000E0C2E08006900A90E0D2E0F0E0C2E102C8
:104FB00028DAE0FAE89AE99400C365D03322E0FCED
:104FC000A3E0FD7A002274F712020DEAFEEBFF90D7
:104FD0000CE7E064016003025078740312533890C8
:104FE0000C84F0A3F07401900C861250D07A877B69
:104FF0000C12C2678E828F83A3A3A3A3A3A3A3A330
:10500000A3E0A2E05004780F80027800FC7B007AD5
:105010000074705CC4C0E0125313D0E02C2413F968
:105020001260667002A3E070030250AC1253069047
:105030000E7CE024221250C01250C4125348740255
:1050400085088285098312574BF0EE2409FCEF3462
:1050500000FDE5082407FAE5091250AFEE2414120A
:105060000B661250BB79071256F8124941900E7E1A
:10507000E4F0A3127A0980347403900E08F074FFF0
:10508000900E0AF0900E0B1257241250D07A0E7B1D
:105090000E12C26774B4900E09F0900A91E0700984
:1050A0007A817B0C1284A68003124B55023B1D12A1
:1050B00052F68A088B09A808A90922121E1CF022A0
:1050C00012601C221250C822127AD774FFF0A32259
:1050D000125731AC82AD8322C082C0837901126A3B
:1050E00079900CEB1255B8900A91E070097A817BA7
:1050F0000C1284A68003124B550228DB74F71202AF
:105100000DEAFEEBFF900CE7E0640160030251DF63
:10511000124DD560030251DFEE2430F582EF127696
:1051200053400474FF8003E0C333900CE2F0C0E00E
:10513000900AA2E0FAD0E0C39A50030251DF74044F
:10514000900CB3F0EE2412F508EF126D5DAC08FD83
:105150007AB57B0C12C267E4900CB4F0AA08AB09D4
:10516000126A16EA7001EB700B126A5EE964FF7056
:105170000374B1F012232D1206CBA2E050047C0F71
:1051800080027C00F5088E828F83A3A3A3A3E0FE98
:105190007406550812599D5508C430E30244F012B4
:1051A00051EB74122AFAE43BFBEA6E7001EB702FAC
:1051B000E82406FCE93400FD7ABD7B0C1251E29034
:1051C0000CE1F0900A91E0700F900AA7E060107A6D
:1051D000B37B0C1284A680077AB47B0C124A54026B
:1051E0003B1D126C988A828B83E022FA3395E0FB98
:1051F000EA2CFAEB3DFB2274F712020DEAFEEBFFFC
:10520000900CE7E0640160030252DA8E828F83A380
:10521000AA82AB83126A16EA7001EB7013126A5EFF
:10522000E964FF700B12533674B01252FD0252ED56
:105230001259615004780F80027800FC7B007A00DC
:1052400074705CC4C0E0125313D0E02C2414F91223
:1052500060667002A3E070030252F0125306125708
:105260000CA3A3A3A3A3A3A3A3125343900AC2E036
:10527000A2E0500F12531B900ACF125714E8F0A36C
:10528000E98012850882850983A3A3A3A3A3A3743D
:10529000FEF0A374FFF07403850882850983A3A33D
:1052A000A3A3A3F012570124081252F3EE241612FE
:1052B00048FF1243061259B3900E65F07905126A41
:1052C000798E828F83E0900CF3F01276DC742412D6
:1052D0007ABBE4F0A3127A0980167409900E08F0E4
:1052E00074FF900E0A12532FF07A087B0E1284A6D8
:1052F000023B1DFAE5093400FB126B9922900C82E7
:10530000F07A817B0C22126B7B8E828F83A3AC821E
:10531000AD832274065CC31328FC221249AFE9C492
:10532000333354C0FA850882850983E04AF022F0BD
:1053300074B4900E09227409900C81F074FF900CE3
:1053400083F022A3E012604F127AC3F508A3E0F5C0
:1053500009AA08FB126B6022C082C083900CEBE0AC
:10536000700D900AAC12538C7A08124644800E12CB
:1053700053807409900C81F074FF1257B80228DB37
:105380007901126A791276F7221255B3E0FCA3E094
:10539000FD2274F112020D8A0C8B0D900CE7E06473
:1053A000056003025594EA241AF582EB124DDB6086
:1053B000030255948A828B83A3A31212E12415F56C
:1053C00082E50912596750047A0F80027A00FE853F
:1053D0000C828B83A3A3A3A3E0FC74065EC3132AF1
:1053E000FAE43400FB74705EC430E30244F0F83336
:1053F00095E0F9E82AF8E93BF9741628F8E439F958
:10540000E86C7001E96003025594900CE8E054F7F1
:10541000126FD27A08126FA47409900C811255BED3
:105420001255B8E508240BFCE5093400FD7A847BAD
:105430000C126C98E0600302558AE50C2412FAE520
:105440000D1259547002E5836005E0F50A800B12D5
:105450006A5EE9F50A12690CE9F0E50A900C83F03E
:10546000900C84E0A2E0502B8508828509831259B4
:105470007E120354010293547E5485548C54125569
:1054800097740F80191255977414801212559774DF
:1054900019800B900CF3E0C0E0125597D0E0F0E8D3
:1054A00075F02BA424D3FEE9340AFFE50C242AF579
:1054B00082E50D127385125745E50C2412FCE50DAB
:1054C0003400FDEE2404FAEF3400FB12C267900AA8
:1054D000C2E0A2E05005900ACF800D8508828509C0
:1054E00083A3A3A3A3A3A3A3123653E50A75F02BAA
:1054F000A424D4F582E5F0340AF583EAF0A3EB1294
:1055000055BEA3A3A3122BAB120B64125745EE2476
:1055100024F508EF126D5D7C037D007900AA08FB7D
:1055200012A0B7750C9E750D0C750E00780C120448
:1055300081900C8E126C88AA08AB09127C051204AB
:10554000B2900C85122BAB2422120B661257459099
:105550000C84E0C0E0EE1255AAD0E0F0900CF87890
:105560000C120669EE2427120B66780C120687EEE1
:10557000127537EF125B877403900E7BF0A90A1245
:10558000787174FF900E66F0800A1253807A817BE6
:105590000C1284A60209ACA80AE875F02BA4A9F0A5
:1055A00024D6F582E9340AF5832224101255B0225C
:1055B000F582EF3400F58322E0900C82F022F08532
:1055C0000882850983A3A3A3A3A3A32274F71202CD
:1055D0000DEAFEEBFF900CE7E0640160030256DB8E
:1055E000124B49600CE0FA900A9BE06A6003025695
:1055F000DB7403900C81125760900C8312572D12AC
:105600005976900C841257457401900C86125BC336
:105610007A877B0C12C2671259615004780F80029E
:105620007800FC7B007A0074705CC4C0E0125313F5
:10563000D0E02C2416F91260667002A3E070030219
:1056400056F58E828F83E0700E124B496009EEFA98
:10565000EFFB1259BA800674FF900A9BF0125FEDBF
:10566000EE2403FCEF3400FD12570C125343125387
:105670001B740412574B12576064FF6022127C0E99
:1056800012791FA2E04018EE2416120B66125BA2DC
:10569000E9340AF583125714A3E8F0A3E9801385CF
:1056A0000882850983A3A3A3A3A3A3A374FEF0A3E5
:1056B00074FFF0E5082409FAE5093400FB79531278
:1056C000210C125701240B1252F379081256F812CA
:1056D0007ABEE412493F127C71801A7403900E085E
:1056E000125760900E0AF0900E0B74FF125724129E
:1056F000532F124C5B023B1D126A797414900CF20A
:1057000022EE240BFCEF3400FDE508221260128E1D
:10571000828F8322124E19850882850983A3A3A351
:10572000A3A3A322F0A3F07401900E0D221257310F
:1057300022125736A322F08E828F8322A3A3A3A323
:10574000A3A3A3A3A3E8F0A3E9F022A3A3A3A3A385
:10575000124935850882850983A3A3A3A3A3A322A5
:10576000F0EE2416120B4522C082C083900A9BE003
:1057700064FF6015900CEBE06019900A9B127C624C
:10578000900A9B12737F74FFF07901126A791257A5
:10579000BC8021E4900E7BF0900A9BE0F9127871B6
:1057A000E96011E4900E66F07A4D7B0D79E51221E7
:1057B0006E1279430228DBE0900C83F0900CEBE052
:1057C000900C821253001284A62274F312020DEA86
:1057D000FEEBFF900CE7E0640160030258DA124D23
:1057E000D560030258DA900A91E064017003025810
:1057F000DA900AC2E0A2E040030258DA12232D2414
:1058000012F582E912596750047C0F80027C001265
:10581000598530E30244F01251EB741412594B7065
:1058200001EB60030258DA88828983A3A3A3A3A3B0
:10583000A31259A812597A1203540102535844581A
:1058400049584E58750A0F8010750A14800B750A56
:10585000198006900AA1E0F50AE82408FCE9340062
:10586000FD7ABF7B0C126C988A0C8B0DA80CA90DCD
:1058700088828983E0900E651259B3900CE4F09011
:105880000A9BE064FF6005750BFF8020EE2412FA8E
:10589000EF1259547002E5836007E0F50B74B58090
:1058A00007126A5EE9F50BE4900CB4F07408900CF2
:1058B000B3F0E50B900CE3124E0A900CB5124DFCC0
:1058C0007AB77B0C12C26774FF650B701074B190CD
:1058D0000CB4F07AB37B0C1284A6020B2FE50B906C
:1058E0000A9BF0900CBFE0900A92F0900A93E508B2
:1058F000F0A3E509F0E50A900A95F0900CC0125962
:1059000076900A961257457A0080198A82A882E812
:1059100024D9F582E4340CF583E0C0E0E812594163
:10592000D0E0F00A900CC9126C92FBEA9B40DCEAD2
:10593000C39403509E8A08E508125941E4F00A8096
:10594000EE2498F582E4340AF583222AFAE43BFB3C
:10595000EA6508223400FB126A168A828B83E5828C
:1059600022EE240BF582EF120B48A2E022A3A3A3A0
:10597000A3A3A3A3A3A3124E192288828983E0C400
:105980001313540322F50A8E828F83A3A3A3A3E0EB
:10599000F5087406550A12599D550AC422C3132CE2
:1059A000FCE43400FD747022E0F508A3E0F5092260
:1059B000F0A3EBF088828983E02274F512020D7463
:1059C000FC1204FDEAFEEBFF900A9BE0C0E01269C6
:1059D0000CD0E0F0900A92E0A2E05030900A9B12C6
:1059E00079318E828F83A3123653E8240CF582E935
:1059F000120B69127677900A93123653E8240EF54B
:105A000082E9120B69EAF0A3EB025ADC900ACD128C
:105A10003653900A9B127C0E24DFF582E5F0340A9F
:105A2000F58312767774021206A3AA82AB837950AB
:105A300012210C851882851983AA82AB83795312AF
:105A4000210C123F9C8A088B09A808A90985188295
:105A5000851983E0687003A3E06960E6C3E894FEFB
:105A6000E994FF50DD750900AA09EA75F02BA4AB93
:105A7000F024D3F582EB340AF583E064FF603BEA5F
:105A800075F02BA424E1F582EB340AF583E068700D
:105A900003A3E069702474021206A3123653E509C9
:105AA00075F02BA485F00824DFF582E508340AF5AB
:105AB00083E06A7003A3E06B60090509E509C394FC
:105AC0000A40A5740A65096003025A42900A9B12B3
:105AD0005BA2E5F0340AF583E8F0A3E9F0900A92BE
:105AE000E0A2E0500D900A95E0C0E0125BAAD0E081
:105AF0008012900AA1E0C0E0125BAAD0E012572DFC
:105B000074FFF0A3125BC3900A9B127C0E24D7FA99
:105B1000E5F0340AFB12C26712792CE5F0340AFB77
:105B2000900ACF125BBB125744900A92E0C0E01279
:105B30005B99D0E0F0900CF87808120669EA242707
:105B4000F582EB120B697808120687127536EB1294
:105B50005B87900A96122A7A2422F582EB120B694F
:105B600012574575089875090A750A0078081204D5
:105B7000817C037D00EA2424FAEB125B901204B2CC
:105B8000020709F582E5091255B3E4F022FAE50BA4
:105B90003400FB12A001740322EA121E17EB125507
:105BA000B322127C1224E1F58222900A9B127C120D
:105BB00024D6F582E5F0340AF58322124E198A8242
:105BC0008B8322F0EE2403FCEF3400FD2274F512E7
:105BD000020D74EA1204FD900AC2E0A2E05050796E
:105BE0000A126A79900DBC780812066974011206CF
:105BF000A3780812068774051206A3E4F0900AAE93
:105C0000E0C0E074061206A3D0E0F074081206A308
:105C10007403F074141206A37405F0A3740EF074E8
:105C200001900A9CF01206A3AA82AB831228E079A5
:105C30000112C541900AC2E0A2E040201266CA7477
:105C40000D900C81F0E4900C82F07401851882852F
:105C500019831263F07A817B0C1284A674160207F2
:105C60000B74F112020D74E91204FDEAFEEBFF90D1
:105C70000CE7E0640A6003025E478E828F83A3A371
:105C8000E06003025D56750A007A01802A8E828FD9
:105C90008312596D8A08E82508F582E9120B77C04E
:105CA000E0850A08E82508F582E9120B77FBD0E0C9
:105CB000C39B50028A0A0A8E828F83A3A3A3A3A345
:105CC000A3A3A3E0FBEAC39B40C3E50A120354006D
:105CD00001DF5CD75CDB5C740F8006741480027497
:105CE00019900AA1F0900DBC780C1206697402128A
:105CF00006A3780C12068774061206A37401F090AE
:105D00000AAEE0C0E074071206A3D0E0F0740912F6
:105D100006A37405F07AA57B0012A0DF74151206A5
:105D2000A312767774151206A3E07002A3E0701731
:105D3000E4900A9CF0F9126A79740D900C81F07469
:105D4000BE1257C0025E4774021206A3AA82AB833A
:105D50001228E0025E47125E4C125E6A64FF700415
:105D6000A3E064FF60F07D00803A85188285198386
:105D7000E0FAED75F021A4F8A9F08E828F83A3A339
:105D8000A3A3A3A3A3A3A3E028FCA3E0398C82F5DB
:105D900083A3A3A3A3A3A3A3A3A3E06A7003A3E085
:105DA0006B60B30D8E828F83A3A3A3A3A3A3A3A32E
:105DB000E0FAEDC39A40B38E828F83A3A3A3A3A37B
:105DC000A3A3A3E06D708F8E828F83A3A3A3A3A34D
:105DD000A3A3A3A3E07002A3E060108E828F83A32D
:105DE000A3A3A3A3A3A3A3A3127A708518828519E2
:105DF00083AA82AB83795012216E125976900ACD14
:105E0000125745125E4C125E5AC3E094F0A3E09420
:105E1000FF50F0851882851983AA82AB83795312CB
:105E2000216E125976900ACF1257457CCD7D0A7AA1
:105E300002792212909B7CCF7D0A7A0279231290FC
:105E40009B125E6F125E8E74170209A9123F9C8529
:105E50001882851983EAF0A3EB22125E5E22125E9D
:105E60006222F085188285198322125E5EE022127A
:105E700063B87A987B0D794612216E7A967B0D79FC
:105E80004512216E7A9E7B0A794112216E2274F5A9
:105E900012020D74DD1204FD900ACD1259767404BD
:105EA0001206A3125745900CF87808120669851857
:105EB000828519837808120687900AA1E0C0E074F1
:105EC000061206A3D0E0F074081206A3740FF07453
:105ED000091206A3740FF0740A1206A37401F07479
:105EE0000B1206A3E4F0740C1206A3E4F07415126E
:105EF00006A3E4F074201206A3E4125F05120DDC81
:105F0000742302070B125F0922125E62AA82AB831E
:105F10002274F512020D8908900CE7E06401700A02
:105F20007A7E7B0E126531E96025E06401600474BD
:105F3000B4800274B2900E09F0740E900E08F0E571
:105F400008900E0AF07A087B0E1284A6025FEA908F
:105F50000E7E1260357B007A006004790A80027937
:105F6000061260667002A3E07013740E900C81F04C
:105F7000E508900C83F074BE1252FD80CC125FEDE8
:105F8000900E7EE01260061260265005126042807C
:105F9000031250C4127D8D12600174058E828F83AE
:105FA000A3A3A3A3A312605B2411F8123A94602266
:105FB00012764AEE2405F50AEF3400F50B780A1242
:105FC00004857901127A7E1204B2E97005127A6DA5
:105FD00080987906126A79900E7E125FF7900CF322
:105FE000F0E508900A9DF0127A0402070E900E7CEC
:105FF000123657126B7B22125FFCE022123667A327
:1060000022E0127AAF2212600A222404FCA3E034B8
:1060100000FD900E7CE0242212601C22FAA3E034E2
:1060200000FB12C26722900E7EE0241012603CA298
:10603000E0229008FDE0241112603C22F8127ADE82
:10604000E022900E7EE0240C12603C12604F22FA97
:10605000A3E0FB127AD7EAF0A3EB22127ABEE02289
:106060007B007A00790F121479900E7CEAF0A3EB92
:10607000F0900E7CE022C082C08374FE1204FD8585
:106080001882851983AA82AB83900A9DE0F9126574
:1060900031E9700F8518828519831260DE900A9DA0
:1060A00012737F7901126A79740E900C81F0900A54
:1060B0009D1257B7027D6E74F812020D74FE120421
:1060C000FDE9FE851882851983AA82AB83126531AA
:1060D000E970081260DEEEF91269D7021573121129
:1060E000CC74FFF02274F612020D74F81204FDE96C
:1060F000900CE5F0E4900CE6F07401900AD1F07495
:106100007F900AD2F0E49009E3F01223DD1268EAEE
:10611000E4900AC2F0900ACCF0900ACD74FFF0A38C
:10612000F0900ACFF0A3125E5AAC82AD837A087960
:10613000011291C3E9702875089A75090D750A0056
:1061400078081204817C087D0074031206A3A982DA
:10615000AA837B0012A04774031204B2E9602F7572
:10616000080C750978750A0078081204817C087D8E
:106170000074031206A3AA82AB83127C051204B238
:10618000851882AC82AD837A08790112909B1269DE
:10619000A37408024E1F74F712020D74FD1204FD61
:1061A000EAFEEBFF74805FF9E47001E970030262BC
:1061B00037900CE51263DC125745E87001E9606E18
:1061C000851882851983120B5A1203B7000307E65C
:1061D0006108F3610DD9612162851882851983E018
:1061E000FA126FD7803B851882851983E0FA125C1A
:1061F00061802E900CE7E0640A7026740D900C818B
:106200001263FD1255B8700A74021206A3740112CB
:1062100063F07901126A79900A9CE06004E41257F5
:10622000C3851882851983AA82AB8312194AEEFAB4
:1062300074806FFB0263A8900CE8EEF0A3EFF0907F
:106240000CE8E0A2E05003127DD4E0548060031219
:106250006EDCE054026005E4900CF2F0900CE8E093
:106260005404600B900CE7E064047003124F1C9020
:106270000CE9E05404F9E47001E96021900CE7E0D6
:1062800064047019900A901263CEA2E1500F124F6D
:10629000767AF37B0C79E112216E124E27900CE88E
:1062A000E054086013900CE7E06405700B12538013
:1062B00012533674B31257C0900CE8E05420602B90
:1062C000900CE7E064016005E0640270131263B8AB
:1062D000900CE61263D3640370061246297402F030
:1062E000900A9F12538C7A40124644900CE8E05476
:1062F000406027900CE6E0A2E4501F900CE7E064B9
:10630000016005E06402700F7A9E7B0A79521221C7
:106310006E12771812442E126F17900CE9E0540198
:10632000F9E47001E960149009E4E0700E9009E36B
:10633000E0640170067402F0124629900CE8E05403
:10634000106003124332A3E05402F9E47001E960E3
:1063500018900AA1E0F91263ADF582E5F03409F571
:1063600083E4F0A3F09009FBF0900CE9E05408F905
:10637000E47001E9600579B8124B6CE05410F9E45F
:106380007001E9601F900E7BE06403600AE0640422
:106390006005E06402700779B9127C188006E0702D
:1063A000037401F07A007B007403023B1A12461456
:1063B000E975F007A424E6227AA17B0A79E112218B
:1063C0006E7A997B0D795212216E22906180E0D213
:1063D000E0F022E0D2E0F09009E3E022E0F912A13F
:1063E000BD8A088B09A808A9098518828519832206
:1063F000F0AC82AD837A0079831266F222126401D6
:1064000022125E621211D0A32274F612020DE9FE6E
:10641000EAFFECFAEDFB74A02EC39410505F7C10E1
:106420007DCB74A02EF50A850A08750900740278E0
:10643000081205A3EC2508F582ED35091266BF7038
:1064400001E9604D850A0875090074027808120593
:10645000A3EC2508FCED3509FDE493F508740193E0
:10646000F509750A0078081204818C828D83A3A334
:10647000E493FC7D00127C051204B2806774802EC8
:10648000C3940950087C507DCB7480809779F48048
:106490005574686E7025EFC3940A501BEF75F02B8E
:1064A000A424D3F508E5F0340AF509750A00780844
:1064B0001204817C2B80BC79F9802B74846E700D62
:1064C000EAFCEBFD7A0879011291C3801774676EBC
:1064D00070BB900CE6E0A2E4500474018001E48AF1
:1064E000828B83F07900024E2274F712020DE9FCD0
:1064F00074A02CC3941050257A107BCB74A02CF57B
:1065000008750900740278081205A3EA2508F582C7
:10651000EB3509F583A3A3E493F9023B1D74802CAA
:10652000C3940950087A507BCB748080D179008065
:10653000E9C082C083E9FD12734C6D7017ED75F0F0
:106540002BA424D3F8E9340AF98A828B83125745A5
:106550007900800279B20228DB74F512020D74F81A
:106560001204FDE9FE1269A37901121F7C851882CD
:10657000851983AC82AD837A0879011291C3AA820E
:10658000AB8379E212216E900D4CE0906196F07A27
:10659000D27B0A79E512216EEE607C1268EA7F00F8
:1065A0008F08750900740278081205A3E508241302
:1065B000F582E50934CBF583E49360398F087509DA
:1065C00000740278081205A3E5082410F582E50995
:1065D00034CB1266BF7001E9601B8F087509007427
:1065E0000278081205A3E5082410F8E50934CB1257
:1065F000698012909B0FEFC3941040A47F00EFF9C5
:106600001269D70FEFC3940A40F47C9E7D0A7A008A
:1066100079831266F2801B900DC07808120669908B
:106620000ABE78081205EF7CBE7D0A7A047906124C
:10663000909BE4900CE6F0900CE7F07AA17B0A794D
:10664000E112216E9009E4E070229009E3E0640217
:10665000701A126FCC7A10126FAAF0A3E054FDF0FA
:106660007A007B02126FA6123072800B9009E3E071
:10667000640170031266E0E49009E3F0124A347496
:10668000FF900A9BF0790112C541900ACCE0602A84
:10669000900AC2E0A2E0501F7ACD7B0A7950122105
:1066A0006E7ACF7B0A795312216E790A126A7912B7
:1066B0005E6F125E8E80031266CA740802070BF5C5
:1066C00083E493F8740193F9E8227A997B0D795267
:1066D00012216E900CE6E0D2E0F07901126A792284
:1066E000900CE8E0F0A3E054FEF07A007B01126F1A
:1066F000C32274ED12020D890B8A0AECFEEDFF74C1
:10670000A0250BC3941040030267EB7508107509B0
:10671000CB74A0250BF51285120C750D0074027850
:106720000C1205A3E508250CF582E509350D126666
:10673000BF7001E9604485120C750D007402780C7D
:106740001205A3E508250CF510E509350DF5118EA8
:106750000C8F0D750E00780C120481851082851146
:1067600083A3A3E493FC7D00851082851183E493C9
:10677000FA740193127C041204B2A3A3A3E49360FD
:1067800034751300740278121205A3E5082512F57A
:1067900010E5093513F511EEFCEFFD85108285112A
:1067A00083A3A3E493FA851082851183A3A3A3E4B2
:1067B00093F912909B7468650B704CE50AC3940AB8
:1067C00050418E0C8F0D750E00780C1204817C2BBD
:1067D0007D00E50A8CF0A424D3FAE5F0340A127C9B
:1067E000041204B2A90A1269D780567480250BC31B
:1067F0009409500B7508507509CB748002671379A2
:10680000F4804079F9803C7461650B7005127692D2
:10681000802F7484650B701AEEFCEFFD7A08790105
:1068200012909BE97008EEFAEFFB79E2801079BED6
:1068300080117488650B7009EEFAEFFB79E512217F
:106840006E7900022CFE74F312020D8A088B098AFD
:10685000828B83E01203B7000407AE6808E5680C7A
:1068600067680DA268E268EA2403F8EB3400F9E8EF
:10687000FEE9FF8E828F8312365312192F8508820C
:10688000850983A3E0900CEB125736125976900CD1
:10689000EC1257457A017B00900CE5E0F912A3DF7A
:1068A0008040AE08AF09EE7001EF6036802A750BAC
:1068B0000BAA0B7B0012A0DF8A0C8B0DAE0CAF0D68
:1068C000EE7001EF601C750A007808120481AC0BB1
:1068D0007D00127C051204B2EEFAEFFB900CE5127B
:1068E00017F1020B2F750B0280C7C082C08390CABC
:1068F000ED7C9F7D0A74231203E1FBEB12690C749B
:10690000FFF00BEBC3940A40F20228DB75F02BA4D6
:1069100024D3F582E5F0340AF5832274F512020DD2
:10692000EAFEEBFF8909750800804B85080A750BA4
:10693000007402780A1205A3126998A3A3A3E49332
:10694000603285080A750B007402780A1205A312DA
:1069500069981266C17001E9601A85080A750B0012
:106960007402780A1205A3EE250AF8EF350B1269B6
:10697000801291C30508E508C3950940AE02070ED1
:10698000F9E493FC740193FDA3A3E493FA8882894C
:1069900083A3A3A3E493F922EE250AF582EF350B36
:1069A000F5832274F812020D79107A107BCB1269EC
:1069B0001B79097A507BCB12691B750800E5081218
:1069C00069EE1291C3126A061291C30508E508C365
:1069D000940A40E9021F5774F812020D8908E9125F
:1069E00069EE12909B126A0612909B021F5775F077
:1069F0002BA424D3FEE5F0340AFFEEFCEFFD7A274A
:106A000074242508F922EE2427FCEF3400FD7A04D3
:106A1000742E2508F92274F812020DEAFEEBFF75B8
:106A20000800A808E81273466024EEFCEFFDE87544
:106A3000F02BA424D7FAE9340A124B436010E5087E
:106A400075F02BA424D3FAE5F0340AFB800D050879
:106A5000E508C3940A40CB7A007B00021F57C0822E
:106A6000C0837900E912690CE064FF600909E9C399
:106A7000940A40F079FF0228DB74F812020DE9FE57
:106A8000900CE7E0FF74016F700512441A800574E2
:106A9000026F60F6EEF074016E705D900AC2E0A2C3
:106AA000E050097AA17B0A79E112216E9009E3E0B6
:106AB0007029900AC2E0A2E0507D74029009E3F0D0
:106AC000E49009E4F07C15FDF97AE67B0912A0B7A1
:106AD000E49009FBF09009E2F080599009E4127704
:106AE0001B74026F70439009E3E064036005E06487
:106AF000047044124463803F74026E703A900AC27C
:106B0000E0A2E050097AA17B0A79E112216E900996
:106B1000E412771B74016F70109009E3E064027057
:106B2000167403F0126B3A800EE0700B9009E3E0EC
:106B300064027003124629021F57126FCC7A10129A
:106B40006FC112307222E9FA740F6A70037914224D
:106B500074146A700379192274196A7002790F2209
:106B600074F512020D8A828B83742AF0126D6B8A7F
:106B7000088B098C0A8D0BA30206B8C082C083EA79
:106B8000242DF582EB120B697403F0EA242AF582B6
:106B9000EB120B6974030228DA74F212020DEAFE9A
:106BA000EBFF8C088D09900AC2E08E828F83F090F3
:106BB0000AC3126C80125744750CC5750D0A750E08
:106BC00000780C1204817C077D00EE24030A0A0A77
:106BD000EF125B901204B28508828509831279F85E
:106BE000A3A3A3A3F0EE240BFEEF3400FF850882DD
:106BF000850983E0A2E0501B750CAF750D0A780C77
:106C00001204817C0F127BFF1204B2EE240FFEEF00
:106C10003400FF850882850983A3A982AA83890C91
:106C20008A0D780C120481850882850983126C888C
:106C3000127C011204B2126D62EE28FEEF3400FFE6
:106C4000E5082404F50CE5093400F50D780C120470
:106C50008174705AC4127BFE1204B28508828509C1
:106C600083126C7B30E30244F0F83395E0F9EE28B0
:106C7000FAEF020CE6EE24131255B0E05470C42271
:106C8000124E198E828F8322126C92FC7D0022900C
:106C90000A05E05406C3132274F212020D8A0A8B0D
:106CA0000BECFEEDFF8E0C8F0D750E00780C1204B0
:106CB000817C0B7D00127C051204B2EE240BF508DA
:106CC000EF126D5D8E828F83A3A3A3A3A3A3A3A3BF
:106CD000A3A3E0A2E0502085080C85090D780C12D2
:106CE00004817C0F7D00E50A240B125B8D1204B237
:106CF000E508240F126D59EE240AFEEF3400FF85DB
:106D0000080C85090D780C1204818E828F83126C19
:106D100088E50A241A125B8D1204B2126D62E5082E
:106D200028126D5985080CF50D780C1204817470C9
:106D30005AC4FC7D00E50A241D125B8D1204B28E3C
:106D4000828F83126C7B30E30244F0F83395E0F9D4
:106D5000E50828FAE509020CE6F508E5093400F52E
:106D60000922E0FA74065AC313F82274F112020DD4
:106D7000900ABE780C120669900CFC78081206691D
:106D8000900ABE78081205EF900ABE7808120669CC
:106D900074FF5508F874035509F9E87001E9700BA0
:106DA0007CBE7D0A7A04790612909BAA0CAB0DACCE
:106DB0000EAD0F0209AC74ED12020DEAFEEBFF8C72
:106DC000128D13890874131206A3E0F510A3E0F5E1
:106DD0001112764A7A3A7B0E79E212210CA385824F
:106DE0000A85830B780C1206691273A98E828F8331
:106DF000E0900E47121E48780C120669900E4878F3
:106E00000C120687E5122404FCE5133400FD7A4CCD
:106E10007B0E12C267126ECFAA0AFB12C50D750C4B
:106E200054750D0E780C120485780A120485750AC3
:106E30000D750B00780A120485750A47750B0E78DC
:106E40000A12048585080A750B00780A120485ACBD
:106E500010AD117A3A7B0E790412920E740A120464
:106E6000B2E97066750A54750B0E780A1204851221
:106E70006ECF780A12048585080A750B00780A120D
:106E80000485AC10AD117A3A7B0E790412953774F3
:106E9000061204B2E9702F7A008A82A882E824548C
:106EA000F582E4340EF583E0C0E0E8250AF8E43426
:106EB00000F9E51028F582E51139F583D0E0F00AF4
:106EC000EAC3940440D3790180027900022CFEE5E4
:106ED000122412F50AE5133400F50B22C082C08398
:106EE000127718D2E4F0900AC2E0A2E0501D900C94
:106EF000E7E0640170057902126A79900AA5E070F2
:106F000002A3E06003126F1712442E7A9E7B0A7967
:106F10005212216E0228DB900A9F124E1975830AC5
:106F20007582A5E0C398FCA3E099FD7A207B0090D0
:106F30000CE5E0F912B4AB2274F812020DEAFEEB94
:106F4000FFEE7001EF7008126FB2126EDC8050908D
:106F50000CE6E0C2E4F0D2E0F0900CE8E054BF129E
:106F60006FD27A40126FAA54DF126FD27A20126F5A
:106F7000A47A997B0D795212216E900CE7E064029D
:106F800070057901126A7974FF6E700374FF6F7077
:106F900005126FB28009EEFCEFFD7A80124644794B
:106FA00000021F577B00126FC322126FC1900CE8C2
:106FB000E022900CE8E0547F126FD27A80126FC109
:106FC000227B00900CE5E0F912B4CE22900CE8E0B0
:106FD00054EFF0A3E0F02274EB12020D8A0A8B0B3F
:106FE00012C37E850A82850B83A3A3A3A3E0C39467
:106FF000025003027343850A82850B83A3A3E0F545
:1070000014A3E0F515851482F583E05403F50974A3
:107010000165097005750806800E74026509700522
:107020007508058003750808E0A2E5500A54181396
:107030001313541FFA80027A00850A82850B83A3FA
:10704000A3A3A3E0C395085003027343EA700302AD
:107050007343E50A241AF582E50B120DD66003028C
:107060007171E50A2412F582E50B120B6912365391
:107070001273681253897F00EF127346603CEF75FC
:10708000F02BA424DFF582E9340AF583E06C700369
:10709000A3E06D7025EF75F02BA424E1F582E934AF
:1070A0000AF583E06A7003A3E06B700EEF75F02BB6
:1070B000A424D3FEE9340AFF800B0FEFC3940A40E7
:1070C000B77E007F00EE7001EF70030271B3EE2413
:1070D00027120B66C082C083851482851583A3782E
:1070E0000C120669D083D082780C12065950030224
:1070F00071B37402650960030273438514828515B8
:1071000083E054046003027343EE7001EF700302E6
:107110007319EE2411120B74600E85148285158389
:10712000E054047003027319EE2427120B66C08228
:10713000C083900DC47810120669D083D082781075
:107140001205DC851482851583A3C082C083900D4F
:10715000C4780C120669D083D082780C1205DC78D2
:1071600010790C12052970030272F0750801027281
:10717000F3E50A2412FAE50B3400FB126A168A0CB6
:107180008B0DAE0CAF0DEE7001EF6027127368121D
:107190004B4F7004A3E064FF70030270CE1273685B
:1071A000127385E0687003A3E06970030270CE7EFD
:1071B000007F00851482851583E0540470030271FA
:1071C00009850A82850B83A3A3A3A3E0FA85080C93
:1071D0007404250C1273715003027343EE7001EFB7
:1071E0007003027343EE2411120B74700302734395
:1071F000EE2404FCEF3400FD7A3A7B0E12C2678560
:107200001482851583A3858210858311780C12065C
:10721000691273A9851482851583E0900E47F08565
:107220001082851183780C120669900E48127391B2
:107230007A4C7B0E79E212210CA808850A82850B14
:1072400083A3A3E028F50CA3E03400F50D850A82A2
:10725000850B83A3A3A3A3E0C39508F50812735D70
:10726000AA0EFB12C50D75105475110E781012047C
:1072700085780E12048585080E750F00780E1204AD
:1072800085AC0CAD0D7A3A7B0E79041296F074063B
:107290001204B2E97047750E54750F0E780E120481
:1072A0008512735D780E120485750E0D750F0078CA
:1072B0000E120485750E47750F0E780E1204858523
:1072C000080E750F00780E120485AC0CAD0D7A3ADD
:1072D0007B0E79041298D0740A1204B2E9706485A6
:1072E0000A82850B83A3A3A3A3E024FCF0027112FE
:1072F000750800851482851583A3780C120669EE43
:107300002427120B66127391E508600D740265095B
:1073100060268E828F8312737F7401650960067404
:10732000036509700DEEFCEFFDAA0AAB0B12754266
:10733000801174026509700BEEFCEFFDAA0AAB0B1D
:107340001273B6021B7F12734C64FF2275F02BA4DC
:10735000A9F024D3F582E9340AF583E022EE241261
:10736000F50EEF3400F50F22E50A242AF582E50B2D
:1073700022F8E43400F9EA98E499C365D03322E0B6
:10738000F91269D7221255B3122BAF240C1255B043
:10739000221273952212739AF022E50CF0A3E50DE8
:1073A000F0A3E50EF0A3E50F22900E421273957440
:1073B00005900E46F02274F812020D8A828B83A388
:1073C000A3A3A3E0C3940650030275338A828B8380
:1073D000A3A3123E12E012035401073375ED73F3B9
:1073E00073F973FF7305745E746474C3741250FC94
:1073F000027533124C730275331257CA0275331279
:1074000053920275338A828B83A3A3A3A3E06406FD
:107410006003027533EA241AF582EB124DDB600338
:10742000027533EC7001ED7003027533EC127537A1
:10743000ED120B7760118A828B83A3A312753DE056
:10744000A2E24003027533740F900CB31224BDE026
:10745000900CB4F07AB37B0C1284A60275331277C9
:10746000B2027533EC7001ED7003027533900CE7D6
:10747000E064096003027533900E7BE064026003F0
:1074800002753312783B60030275338A828B831254
:107490002E948E828F83E05404700302752AA3A376
:1074A000A3A3A3A3E0600302752A8A828B83A3A30C
:1074B000A3A3E0640B707312785FEEFAEFFB127A0D
:1074C000E88070EC7001ED606A900CE7E064097090
:1074D00062900E7BE06404705A12783B70558A8289
:1074E0008B83A3A3A3E0F97F008F82AC82EC127A96
:1074F00063E0FEE82CF582E9127B566E70070FEF11
:10750000C3940440E488828983E05404601CA3A3EC
:10751000A3A3A3A3E070138A828B83A3A3A3A3E0F6
:10752000640B7006EFC39404500479BA80027900AA
:10753000127C18021F57EA2411F58222F8A31211B7
:10754000D72274F812020DEC7001ED700302764739
:107550008C828D83E0900CB4121B9E1259741259C8
:107560007A12035401027A756E75727576757E0F04
:10757000800A7E1480067E1980027E007401900CC1
:10758000B3F0EA2430F582EB127653400474FF80A6
:1075900003E0C333900CB91259B3540364038A82D5
:1075A0008B83A3A3700AE0240812767D24F8800858
:1075B000E0240612767D24FA900CB8F0EA2423F534
:1075C00082EB120DD67015EA241BF582EB124B4F9D
:1075D0007004A3E064FF700474018001E4900CBAAD
:1075E0001259B354046006900CBA12765F888289EF
:1075F00083E0540364037019900CBA12764E8882AB
:107600008983A3A3A3A3A3A3123653900CB6127627
:107610007788828983A3A3A3A3A3E0900CB5F0EE9F
:10762000601E900AA1E06E6017900AC2E0A2E350CB
:107630000FEE900AA1F07A807B0012B9B212769216
:107640007AB37B0C1284A6021F578E828F83E0D2FE
:10765000E2F022120B48C39400A2D265D03322E09C
:10766000D2E1F022123657900E7CE02422F8A3E0FB
:107670003400F988828983EAF0A3EBF022FCA3E0CE
:107680003400FD900CBBECF0A3ED124314A3A3A3B4
:10769000E022C082C083900CE6E0A2E050097AA10B
:1076A0007B0A79E112216E9009E3E0640270149084
:1076B00009E5E0FA900AA1E06A600B126B3A124405
:1076C00063800BE06008900AA1E0F912448C9009F5
:1076D000FBE0C394035002E4F00228DBC082C083C5
:1076E000900CE6E0A2E0400C7A997B0D79521221D1
:1076F0006E1263CE0228DBC082C083900CE6E0A24B
:10770000E4500C7A9E7B0A795212216E12771B7A12
:10771000A17B0A79E1026F11900CE6E0C2E0F02251
:1077200074F612020D900E7BE060046401706190AB
:107730000CEBE07033900E66E0FA900E65E06A7034
:107740001F7AD27B0A79E512216E7402900E7BF0CB
:1077500012785F900AAC124FBE7B10124646804FE3
:10776000900E66E004F0801475086775090E750ABE
:107770000078081204811278471204B2900E7BE060
:107780006401700779B9127C188024127943801F34
:10779000E064037015900CEBE070087404900E7BAD
:1077A000F080B0900CEBE0F980DCE0640260F40261
:1077B0004E2274F612020DEC7001ED607B900CE726
:1077C000E064097073900E7BE06403706B12783B89
:1077D00070668A828B83A3A3A3A3E0645770598A3F
:1077E000828B83122331FEE9FF8E828F83A3A3A3B2
:1077F000A3A3A3E0FA900E66E06A70167508677599
:10780000090E750A0078081204811278471204B232
:107810008005E0046A70218E828F83A3A3A3A3A3B3
:10782000A3E0900E66F01279ECE0FA900E65E06A43
:10783000700612785F127A0E024E228C828D83E0DF
:10784000FC900E64E06C227C107D00900E64127C33
:107850001224E5FAE5F0340AFB12A0017403229029
:107860000CE8E0F0A3E054EFF07A007B10126FC355
:107870002274F812020DE9FE900E64F075F02BA44C
:1078800012791FA2E25008900AC2E0A2E2400A79EF
:10789000B0127C18790002791C900E6412792CE9E0
:1078A000340AFB127536EB120856F07C107D007915
:1078B00000EA2412FAEB3400FB12A0B77C107D0022
:1078C00079007A677B0E12A0B77909126A79900A5B
:1078D000C2E0A2E04012EE75F02BA424DFFAE5F03E
:1078E000340AFB795012216E900E65E0F87401287D
:1078F000FCE43400FDEC75F03CA4FCAAF075F03C0F
:10790000EDA42AFD7A007B10124646900E6412798F
:1079100031900E7E1257451276DC7901021F57A96D
:10792000F024E3F582E9340AF583E02212793BFA88
:107930002212793BF8E5F0340AF922E075F02BA425
:1079400024D32274F112020D7B007A007957126061
:10795000667002A3E0700879BE127C180279E91201
:107960007A9074068E828F83A3A3A3A3A3F0900EB4
:10797000661279F8F0EE2407F508EF126D5D7AD201
:107980007B0912C50D750A0512C04A8A0C8B0D8C35
:107990000E8D0F850882850983780C120687900C5E
:1079A000EE780C120669850882850983A3A3A3A338
:1079B000A3A3A3A3780C120687900CFC780C1206E4
:1079C00069900CEE780C1205EFAC08AD097AD27B09
:1079D0000912C514E5082410126D59150AE50A703C
:1079E000A71279EC7494127A060209ACEE2407FA15
:1079F000EF3400FB127B8722E08E828F83A3A3A348
:107A0000A3A3A3227414900CF2F0127C712274F7D9
:107A100012020D1260607002A3E0700779BE127C42
:107A200018803D127A907407127B5BF508122F18AC
:107A3000850882A882E8127A63E9F0127B41E9F0B6
:107A40000508E508C3940440E4127B721204851211
:107A50007A7C1204B2E97005127A6D80BF127A0442
:107A6000023B1D2477F582E4340EF58322900E7CD0
:107A7000127A7422123AA0FB12A135227906900ED6
:107A80007EE0FCA3E0FDEEFAEFFB126DB67402227D
:107A9000900E7CE0242D124ED7127ACC7403127A09
:107AA000BEE012600A1250C8127AC3127AAF22FEE8
:107AB000A3E0FFEEFAEFFB126B6022900CF2F09065
:107AC0000E7E22F0900E7C123667E022F0900E7C43
:107AD000E0242A127ADD22900E7CE0242BF8A3E029
:107AE0003400F9888289832274F712020D8A088B88
:107AF000091260607002A3E0700779BE127C1880E2
:107B00003D127A907408127B5BFA8A82A882E5089B
:107B100028F582E509127B56C0E0127B41D0E0F0E7
:107B20000AEAC3940440E3127B72120485127A7C41
:107B30001204B2E97005127A6D80BF127A04023B1A
:107B40001DEE28F582EF127B4A223400F583A3A3B1
:107B5000A3A3A3A3A322127B4AE0228E828F83A336
:107B6000A3A3A3A3F0E48E828F83A3A3A3A3A3A3C1
:107B7000F0228E828F83E0D2E2F0EE2405F508EF4A
:107B80003400F50978082274F612020DEAFEEBFFC4
:107B9000900E64127C0E24E5F508E5F0340AF50930
:107BA000750A0078081204817C107D007A677B0ECC
:107BB000127C051204B27A008A82A882850A08EE35
:107BC0002508120B74F508900E64127C0EFCE82454
:107BD000E5FAE4340AFBEC2AF582E5F03BF583E0B4
:107BE0006508F074012808E43400F97A107B00126B
:107BF000012C050AE50AC3945040BD024E22FC7DCB
:107C000000EEFAEFFB12A001740322900E03127C27
:107C10001222E075F02BA42274F812020DE9FE1274
:107C2000785F74B06E70047E008009EE6006900E7E
:107C300064127C62900E6412737F125380900E7BEC
:107C4000E0600964016005E06402700F7AD27B0A8B
:107C500079E512216E74FF900A9BF0EE900C82027F
:107C60001F5112793BF582E5F0340AF58374FFF079
:107C700022C082C08374FE1204FD9009E412765F74
:107C80009009E3E064027003126B3A900AC2E0A22A
:107C9000E04036900E7EE07002A3E0601B900E7E06
:107CA000E0240C127D75795012216E900E7EE02436
:107CB00001127D757953800E900ACD74FFF0A3F008
:107CC0007ACD7B0A795012216E7AA97B0A794E12FD
:107CD000216E900CF2E0A2E7501A85188285198374
:107CE000E4F0A3125F05795912216E900CF2E0C204
:107CF000E7F080097AAA7B0A795912216E7AF37B20
:107D00000C79E112216EE0640470097CE87D037A4D
:107D100002124644900CF2E06404600AE0641460CD
:107D200005E064247007127D7C74018004127D7C60
:107D3000E4F0900CEAE0C0E0900E7C127D86D0E08A
:107D4000F0900CEAE004F0900CF2E060096401604D
:107D500005E06424700474028001E4900CF4127D48
:107D60008DA3A3E0900CF5F0900E7C127E8374023C
:107D70000228CBE02AFAA3E03400FB22900E7CE03C
:107D8000242F124ECD22E0242E124ECD22F0900E42
:107D90007C12366322C082C08374FF1204FD900CF3
:107DA000F2E064047027E4851882851983F0127E5E
:107DB00091851882851983AA82AB83794E12216E30
:107DC000AA82AB83795912216E79018002790074FD
:107DD000010228CBC082C083900CF4E0900CEC60D0
:107DE0004BE07002A3E06059900CF2E0642470064E
:107DF000900CEBE0603D127E91900CECE0240412BC
:107E00003649900CF5120B28E0C39AFA900CF51243
:107E100050BB900CEC127E8A127D74127673900C1B
:107E2000F4E014F0900CEC127E838054E07002A316
:107E3000E0600E7AEC7B0C12194A900CECE4F0A393
:107E4000F0900CE8E054FD126FD27A02126FA49009
:107E500009E4E0C2E1F0700B9009E3E06402700312
:107E6000124629900CE7E024FDC394075012121724
:107E70007C249CF582E9340DF583122E901206AD18
:107E80000228DB12365712144622E0240212603C0C
:107E900022124F6DE9F07AF37B0C79E112216E2208
:107EA00074F712020D74F71204FDE99008A0F012A5
:107EB0008942750808750900780812048574031250
:107EC00006A3AC82AD837AE87B07791F12C0627487
:107ED000021204B27A008A0874011206A3E5822510
:107EE00008F582E5831286C064FF70070AEAC3942E
:107EF0000840E3EAC39408501074011206A3AC8250
:107F0000AD837A0079841266F2E48518828519833C
:107F1000F0AC82AD837A0179701291C3E070167A69
:107F20009B7B901289D47401F0AC82AD83FA797096
:107F300012909B80077AC37B911289D4E49008BC8D
:107F4000F09008E2F074FF900E01F0127F56740971
:107F50001204B202818C7A019008A0E0F912C54B9C
:107F60002274F712020DEAFEEBFF74805FF9E470F1
:107F700001E9601A9008A0E0F912A1BDEA7001EBD6
:107F8000600312A135EEFA74806FFB02800EEEA240
:107F9000E0506A79011265597CCF7D087A007960DA
:107FA0001266F27CD17D087A0079641266F27CD583
:107FB0007D087A0079621266F274FF9008E0F09012
:107FC0000DF974E8F0A3740312801179631266F25C
:107FD000E4900DF9F07CF97D0DFA79661266F27481
:107FE0001E12801179691266F27401128011796C87
:107FF0001266F2125BCD74016EFAEF808D5402604E
:10800000099008E2E060031289367A007B00028161
:108010008CF07CF97D0D7A002274F112020D74FE51
:108020001204FD8908ECFEEDFF7509008A82858245
:108030000AE9C3949050367468650870067509B4EF
:1080400002811C7CF97D0D7A00126409E9F509753D
:108050000CF9750D0D750E00780C120481AC0A7DBB
:1080600000EEFAEF1289CD1204B202811CE9C3942A
:10807000AF5019750AC3750B91780A1204851281E5
:108080009174021204B2E9F50902811CE91203B7E6
:108090000007B0A980B1DC80B2E180C00981C10DC8
:1080A00081C21181C315811981E49008E1F0F50ABC
:1080B000851882851983AA82AB83A90A126531E9E2
:1080C00070069008E1E004F0050AE50AC3940A404E
:1080D000DF9008E1E08E828F83F080409008E0809E
:1080E000F3851882851983AA82AB839008E0E0F9B2
:1080F000126531E9FA8A097023851882851983E0AF
:10810000F50CA3E0F50D028055741280C8740A8046
:10811000C474CE80C0741080BC7509E8A9097402CB
:108120001204B27F0802031C74F712020DE9FEC3A9
:108130009490501074686E700479B4804F7A001275
:1081400066F28048EEC394AF501575089B75099090
:10815000780812048512819174021204B2802DEE07
:108160001203B701C0C3398103B03981B17481B240
:1081700081818A818C828D83E09008E0F079008093
:108180000B9008E0E0FA796880B579E87F02020395
:108190001C74EE12020D8A0D8C0A8D0B74121206DD
:1081A000A3E0F508A3E0F509890E750F00740278C5
:1081B0000E1205A3E50E24CCFEE50F34C7FFEE2416
:1081C00080F582EF34FDF583E493F9850882850913
:1081D000831206ADE50864C37004E509649170314B
:1081E000E9602EEE2482F582EF34FDF583E493F509
:1081F00008740193850810F51175120078101204A7
:1082000081AC0D7D00AA0AAB0B1289CE1204B279A3
:10821000007F0B02031C74F812020D74FF1204FDA0
:108220007AC37B911289D49008BDE01203540002F6
:10823000858238826B827982851882851983AC8227
:10824000AD837A007983126409E9FE7019E0601B3E
:1082500079001265599008D6E0A2E0402A7A007BA6
:1082600000126F38802112ACFB80267A017B0090CF
:1082700008A0E0F912A3DF80131289427A9B7B9059
:108280001289D480E67EE8EEF912ACFB7A00127F08
:108290005874011204B27F0102031CC082C083E43F
:1082A0009008A6F09008C4E0FC748F5C441090081D
:1082B000A6F07A00801312882AC0E0E824A7F5828D
:1082C000E43408F583D0E0F00A12882140E8740114
:1082D0009008AAF09008A274FFF0A3F09008A4F010
:1082E000A3F09008B1F09008D3E0F8A3E0F990086B
:1082F000BAE8F0A3E9F074019008B2F09008B3F086
:10830000128309124B980284939008BCF07AA27BE6
:108310000822C082C0839008BCE06401600AE06467
:10832000026005E0640370087404F0124BF5800FDE
:10833000E0640570057406F0800579B412AD34026E
:108340008493C082C0839008A27430F0A37475F047
:108350009008C4E0FC9008A4F07A00801312882AE8
:10836000C0E0E824A5F582E43408F583D0E0F00A03
:1083700012882140E87A008013128811C0E0E824B6
:10838000A8F582E43408F583D0E0F00A74705CC488
:1083900030E30244F0FBEAC39B40DE7AA27B081282
:1083A00049D8028493124A3022EEC0E0125F11D005
:1083B000E0FE2274EF12020D74FE1204FD89088A99
:1083C0000FECFEEDFF8B1074131206A3E0F5117491
:1083D000141206A3E0F50AA3E0F50B8518828519AF
:1083E00083AA82AB83126531E9FA8A097054E508E1
:1083F0009008A2F0E50F9008A3F09008A4EEF0A377
:10840000EFF0E5109008A7F0E5119008A612830C94
:1084100012464FE9FA8A097029850A0C850B0D75F9
:108420000E00780C120481AC117D009008AAE0FACD
:10843000A3E01289CD1204B274071283091246C553
:10844000800AE49008BCF0A90912ADED7402120490
:10845000B27F0A02031C74F812020DE912035400E1
:10846000017A84678474847AFF7BFF126F3812AEBE
:10847000B10282967A007B0080F179E880F0126F79
:108480003812AECC22C082C0837A00127F587900A5
:1084900012AEF8D083D08222C082C083127F567978
:1084A0000012AF1380ED74F312020D74FE1204FD7E
:1084B000EAFEEBFF9008E3E07002A3E06011900891
:1084C000E3E0F8A3E0F58388821206AD0286A68E6B
:1084D000828F83A3858208858309EE2402F8EF3416
:1084E00000F9880A890B8E828F83E01203540110F1
:1084F000A6864D8640863185A68663856985A686D3
:108500001E86B785A686A686A68614853686248608
:1085100083856F859008D6E0A2E040077A007B0053
:10852000126F38850882850983E0F912ACFB028658
:10853000A6900E01E064FF70030286A688828983FC
:10854000E0FA900E01E06A60030286A6900E02E057
:10855000FB900E011286B212AD5074FF900E01F026
:108560000286A61286DE0286A612877A0286A69068
:1085700008BCE0640460030286A6E4F0F912AD349E
:108580000286A6850882850983E0F50C701D7CE8CB
:108590007D037A027B009008A0E0F912B4ABE9FAFF
:1085A0008A0C700774019008E280B47BFF7AFFA9FF
:1085B0000C12AD500286A69008BCE06405600AE08B
:1085C0006406704C750D018003750D00E41286C6BB
:1085D0007029851882851983AA82AB838882898352
:1085E000E0F9126531E9701CEE241D1286BDFB8591
:1085F0000A82850B83E0FA790080067BFF7AFF7997
:108600002212AD18E50D70030286A6792402857D3D
:10861000E4F07BFF7AFF79B412AD180286A61288C7
:108620003A0286A6850882850983E0F912AD9DE0AD
:10863000F91260B7807088821286B012AD6B8066C6
:10864000E49008BC1286C6F912ADED80598E828F77
:1086500083A3A3A3A3A3A3A3A312038A8E828F83BE
:10866000A3A3A3A3A3E0F50D780D1204898E828F36
:1086700083A3A3A3A3A3A3A3E0F50D780D120489FC
:108680008E828F83A3A3A3A3A3A3E0FB8E828F83F9
:10869000A3A3A3E0FCA3E0FD850A821286B012AE7C
:1086A0000974041204B274021204B27F0602031C9D
:1086B0008983E0FA850882850983E0F922F582EF53
:1086C0003400F583E022F0850882850983E022C02A
:1086D00082C0839008E3EAF0A3EBF002849374F67F
:1086E00012020D9008BCE0640160030287708A8268
:1086F0008B83A3A882A983E070727E0080080CECB3
:10870000C39406402E0EEA2417F582EB12892CFC46
:10871000EE9C50588E08EA2508FCEB3400FD7427C7
:108720002CF582E43DF583E0FD74FE2DC3940E50DC
:108730003B7C008C08E50824BEF582E43408F58310
:10874000E0FF6D600574FF6F70B488088909750AD1
:108750000078081204817C317D007AC87B0D128973
:10876000CE1204B274029008BCF08009740380F643
:10877000E0640260F77F0302031CC082C08390089C
:10878000BCE064027073900DC9E09008A2F0900DF7
:10879000CAE0F8A3E0F99008ABE8F0A3E9F07CCCDC
:1087A0007D0D7AA37B0812C267128920800C128883
:1087B0002AC0E0128915D0E0F00A12882140EF7A31
:1087C00000800C128811C0E012890AD0E0F00A740F
:1087D000705CC430E30244F0FBEAC39B40E59008C0
:1087E000D6E0A2E2500474248001E49008B8F0744A
:1087F000051283091251F78015E064016005E064F9
:1088000003700BE4F07BFF7AFF792112AD1802842C
:10881000938A82A882E824C8F582E43408F583E0CC
:108820002274065CC313FBEA9B228A82A882E82496
:10883000C5F582E43408F583E02274F712020DEAEC
:10884000FEEBFFEE24301286BDFA9008B8F08A08DD
:10885000EE2416F582EF12892C601A9008E2E0608F
:1088600014EE24261286BDF50974FF6A700474B1F3
:108870008005E4800274B49008A2F07A027B009034
:1088800008A0E0F912B4CE128920800C12882AC008
:10889000E0128915D0E0F00A12882140EF7A0080BA
:1088A0000C128811C0E012890AD0E0F00A74705CE2
:1088B000C430E30244F0FBEAC39B40E58E828F8321
:1088C000A3A3E0F8A3E0F99008A3E8F0A3E9F0EE91
:1088D0002404FCEF3400FD7AA57B0812C2677AA25B
:1088E0007B081255CC9008A2E07013E508900E01A9
:1088F000F0E509900E02F0E49008E2F0800990089B
:10890000E2E0600312893602818CE824B1F582E44A
:108910003408F58322E824AEF582E43408F5832296
:108920009008C4E0FC9008ADF07A00223400F58392
:10893000E05406C31322E4F07BFF7AFF792312ADE3
:10894000502274F612020D74019008BDF0740F905D
:1089500008D6F07C067D0079007ABE7B0812A0B7AD
:1089600074029008BEF074129008C4F0740190086C
:10897000C5F09008C8F09008CF7410F0A3E4F09010
:1089800008D1744AF0A37401F09008D77407F0A3DB
:10899000E4F075084E75090DF50A78081204817A1D
:1089A0004E7B0D129FFD8A088B0974012508FCE49B
:1089B0003509FD7AD97B081289CE1204B29008D30A
:1089C0007464F0A3E4F09008D5F0028775FB12A060
:1089D0000174032274F612020DEAFEEBFF750A0021
:1089E000850A08750900740278081205A3E50824B1
:1089F000CCF8E50934C7F988828983A3A3E493FC02
:108A0000740193FD88828983A3E493FA8882898321
:108A1000E493F98E828F831206AD050AE50AC394AA
:108A20000C40BD02877574F512020D74FC1204FD32
:108A30007E00E4900812F090080FF07F1D75080486
:108A4000750900780812048574021206A3AC82AD81
:108A5000837A007B00EF1290251204B2851882C041
:108A600082C083900D3D7808120669D083D0827849
:108A70000812053E701690080FE0600DF9128B8FFA
:108A8000EFF9128B8FE4F08029EF80FA8518828548
:108A90001983C082C083900CF87808120669D083CD
:108AA000D082780812053E7004EFFE8005EFF912BF
:108AB0008B8F0FEFC3941F408490080FE07026EE59
:108AC0007018791D128AF49008107404F0A3E4F071
:108AD000900812E0601979008017F0128BE1EEF92E
:108AE000128DDA800AEE6004F9128B32128BE17972
:108AF00001028CCE74F512020D74FC1204FDE9FE25
:108B0000900D3D78081206698518828519837808CA
:108B1000120687851882851983AC82AD837A007B23
:108B20000012902C900812E07005EE90080FF002F1
:108B30008CCE74F512020D74FF1204FD89087916AB
:108B400012C69BE96006900812E060087401900864
:108B500012F08036A90812C14E7E007F00750A010E
:108B6000750B00780A12048574021206A3AC82AD5C
:108B700083EEFAEFFBA9081290261204B285188240
:108B8000E064FF70C7128BD540D37401028CD0749F
:108B9000F512020D74FF1204FD89087E007F007536
:108BA0000A01750B00780A12048574021206A3AC40
:108BB00082AD83EEFAEFFBA9081290261204B2856B
:108BC0001882E064FF6007A908128B328005128BBF
:108BD000D540CC80B5EE24010EEF3400FFC39408DD
:108BE0002274F512020D74FC1204FD7EFC7F0775E1
:108BF0000804750900780812048574021206A3128D
:108C000090191204B2851882851983C082C083909E
:108C10000D417808120669D083D082780812053E8B
:108C20007011EE24FCFEEF34FFFFC3EE9404EF94CA
:108C30000050BC1291B8E8F0A3E9F0028CCE74F5B4
:108C400012020D74FC1204FD8909EAFEEBFF8C0888
:108C5000EE24FCFEEF34FFFFC3EE9404EF940040DB
:108C600069750A04750B00780A12048574021206ED
:108C7000A3AC82AD83EEFAEFFBA909129026120491
:108C8000B274021206A3E0F8A3E0F98518828519F0
:108C90008385080AE0650A7002A3E0700AEEC398B3
:108CA000FAEF9400FB8027748059FBE47001EB70AD
:108CB0009F740428FAE439FBC3EE9AEF9B4008EE58
:108CC000C398128F6D809012BBEF7A007B00740402
:108CD0001204B27F0402031C74ED12020D74FC1224
:108CE00004FD890AEAFEEBFF8C0B74171206A3E061
:108CF000F50EA3E0F50F74191206A3E0F50CA3E03E
:108D0000F50D85188285198374FFF0A3F0A80E7401
:108D100080450FF974021206A3E8F0A3E9F0E82EEB
:108D2000F508E50F3FF509851882851983AC82ADFA
:108D300083AA08FBA90A12902C74021206A3128DB2
:108D4000BF7402780E120678E50EF510900812E056
:108D5000704E750F00780E120485AC0CAD0D8E0EA2
:108D60008F0F7402780E120678850A12F5137409B3
:108D700078121205A3250EFAE513350FFB12C0DC9D
:108D800074021204B2E510F50E780E120489AC0CD0
:108D9000AD0DEEFAEFFBA90A128F8274011204B234
:108DA000850B0CE50C851882851983F0A37480125D
:108DB0008DC5128DBF74041204B27F0C02031CE037
:108DC000F0A3E0547FF0851882851983AC82AD83CF
:108DD000AA08AB09A90A12902C2274EB12020D7496
:108DE000F81204FD8910750DFF741D65107005756E
:108DF0000C1E8003750C1D750A04750B009008107D
:108E0000E024FCFEA3E08005EE24FCFEEF34FFFF2F
:108E1000C3EE9404EF94005003028F49900812E0CF
:108E20006003028F637508047509007808120485D1
:108E300074021206A3AC82AD83EEFAEFFBA9101206
:108E400090261204B2851882E064FF7004A3E064E7
:108E5000FF703574021206A3E0F8A3E0F97480599C
:108E6000FBE47001EB70A1740428F8E439F9C3EE57
:108E700098EF99400D74021206A3128F79128F6D2C
:108E8000808D12BBEF028F63851882851983A3E062
:108E90005480F9E47001E970DC85188285198385B6
:108EA0000D08E065087002A3E060CA851882851984
:108EB00083E0F50DFCAA0AAB0BA90C128C3EEA70FC
:108EC00001EB70B174021206A3128F79F508EF99C5
:108ED000F50988148915750E00750F007512047553
:108EE0001300781212048574061206A3AC82AD83B7
:108EF000E50E2508FAE50F35091290201204B27428
:108F0000041206A3AC82AD83E50E250AFAE50F35FF
:108F10000BFBA90C12902CE50E2404F50EE50F3482
:108F200000F50FC3E514950EE515950F50AE7402CC
:108F30001206A3E02404F8A3E03400F9E50A28F5BA
:108F40000AE50B39F50B028E75A90C128AF490080C
:108F500012E0700A900810E50AF0A3E50BF0A910E2
:108F6000128B3274081204B27F0E02031CF8EF99C0
:108F7000F974FC28FE74FF3922E0F8A3E0F9EEC38F
:108F8000982274F112020D74FC1204FD890FEAFE9E
:108F9000EBFF8C0A8D0B74131206A3E0F509801405
:108FA000EE2404FEEF3400FFE50A2404F50AE50B85
:108FB0003400F50B85090874FF2508F509E50860FC
:108FC0004E750C04750D00780C120485740212069F
:108FD000A3AC82AD83EEFAEFFBA90F129026120428
:108FE000B2850A0C850B0D750E00780C1204817C7D
:108FF000047D0074031206A3A982AA837B0012A039
:109000004774031204B2E970977401900812F07467
:10901000041204B27F0802031CAC82AD83EEFAEFA7
:10902000FB90080FE0F912C06274022274F212027F
:109030000D890E8A088B09ECFEEDFF900812E07096
:109040004B750A01750B00780A1204858A0A8B0B8E
:109050007402780A120678890CF50D7409780C12DE
:1090600005A3250AFAE50D350BFB12C0DC740212CC
:1090700004B2750A01780A120489EEFCEFFDAA0811
:10908000AB09A90E128F8274011204B27F0702038A
:109090001C128A26E9700312BBEF2274F112020D32
:1090A00074FB1204FD89098A088C0A8D0BAC091225
:1090B00091F98A0C8B0DAE0CAF0DEE7001EF605084
:1090C000750E00803B750C01750D00780C1204853F
:1090D00074021206A31290191204B285188285191F
:1090E00083E0FA850E0CE50A250CF582E50B3400C9
:1090F000F583E06A701AEE24010EEF3400FF050ECE
:10910000E50EC3950840BEE508650E70030291B1F7
:1091100085080C7403250CF8E43400F97A047B000C
:1091200012012C880C890D7402780C1205A3AE0C68
:10913000AF0D900810E02EF8A3E03FF9740428F872
:10914000E439F9C3E89401E994084036900CF878C2
:109150000C12066974011206A3E50CF0A3E50DF0EC
:10916000A3E50EF0A3E50FF074011206A3AC82ADE7
:10917000837A007B0090080FE0F912902CE0F9123E
:109180008DDA780A1204858E0A8F0B780A1204850C
:10919000AC09129200128CD874041204B290081216
:1091A000E06004790A800C1291B8E028F0A3E0395D
:1091B000F07900740502901174042EF8E43FF990E0
:1091C00008102274F512020D890A8A0BECFEEDFFDD
:1091D000AC0A1291F9EA7001EB6019850B08750968
:1091E000007808120485EEFCEFFD1290211204B203
:1091F00079008002790A028CD3129200128C3E22EE
:10920000900810E0FAA3E0FB90080FE0F92274E95F
:1092100012020D74ED1204FDE9851882851983F0A0
:1092200074011206A3ECF0A3EDF0742A1206A31247
:1092300096D4742C1206A3E0F516A3E0F517742E4D
:109240001206A3E0FEA3E0FF851882851983E07073
:109250000302952B74031206A37401F0EE7001EF64
:1092600060037441F0851882851983E024FE33334E
:1092700054FCFC74031206A3E04C1298C51204813E
:109280007C0D7D0074071206A3AA82AB831296EAB6
:109290001204B274111206A3E511F074121206A39F
:1092A000E510F07C107D00790074321206A312964E
:1092B000DC12A0B7750820750900C3EE940FEF9477
:1092C00000402D74F22EF874FF3FF974F058F874D2
:1092D0002028F508E439F509EE24F2540F600478EB
:1092E0001080027800E50828F508E5093400F50942
:1092F000E510540FF50F60047A1080027A0074F0C4
:109300005510F874FF5511F9EA28F8E439F9E50821
:1093100028F508E50939F509AA08FB12BA728A147A
:109320008B15EA7001EB7005791002952D7403120C
:1093300006A3A982AA83890C8A0D750E00780C12E7
:1093400004817C107D00AA141296EA1204B2E5147E
:109350002410F50AE5153400F50BEF850A82850B1C
:1093600083F0A3EEF0A385820A85830B85160C8516
:10937000170DC3940FEF9400400B780C1204817CFE
:109380000E7D0080167C0E7D007900AA0AAB0B12C0
:10939000A0B7780C120481EEFCEFFD1296E61204E1
:1093A000B2E50A240EF50AE50B3400F50BC3EE9482
:1093B0000FEF9400500302943AEE24F2FEEF34FFD4
:1093C000FF8E128F137404781212067885120C85A2
:1093D000130DEE540FFE7404780C1205A3850C12C5
:1093E0008F13E516240EF50CE5173400F50D780CF7
:1093F000120481AC12AD131296E61204B2E50A25EE
:1094000012F50AE50B3513F50BEE602E7C107D008E
:109410007900AA0AAB0B12A0B7E5162512F8E517DA
:109420003513F9740E28F50CE439F50D780C120497
:10943000811296E21204B21296C1740478101206D8
:109440007885100C85110DAE0F7404780C1205A3ED
:10945000850C10850D1174011206A31296CE12040C
:1094600081AC10AD111296E61204B2E50A2510F592
:109470000AE50B3511F50BEE602B7C107D007900B1
:10948000AA0AAB0B12A0B774011206A3E02510F5CF
:109490000CA3E03511F50D780C1204811296E2123E
:1094A00004B21296C1E50AC39514F8E50B9515F9B7
:1094B000E865087003E96509600312BBEF1298B410
:1094C00043B350E5B374321206A31296DC1296B47D
:1094D00085140A85150B7404780812067874FF2524
:1094E00008F50C74FF3509F50D800AAA0AAB0B12BA
:1094F000C46D1296C1A80CA90D74FF28F50C74FF59
:1095000039F50DE87001E970E21298B485B3B37AC9
:109510000FEA1A70FCAC0AAD0B74321206A3129655
:10952000DC12C488AA14AB1512BB7879007413122C
:1095300004B27F1002031C74EA12020D74DE1204DE
:10954000FD851882851983ECF0A3EDF0EAFEEBFFB0
:1095500074381206A3E0F508A3E0F509743C12067E
:10956000A31296D485100CF50D750E00780C12041C
:1095700081E9FC7D0074151206A3AA82AB831296C2
:10958000EA1204B274021206A37401F08E0C8F0D5D
:10959000780C1204817C0D7D0074061206A3AA8249
:1095A000AB831296EA1204B274111206A3E4F074AB
:1095B000101206A3E4F085080A85090B7404780AE2
:1095C000120678AE0AAF0BE508540FF50F6008EEEF
:1095D00024010EEF3400FF8E0A8F0B7404780A12F8
:1095E00005A3AA0AAB0B12BA728A0A8B0BEA7001A6
:1095F000EB700579100296AA851882851983129658
:10960000CE120481AC08AD091296EA1204B2E50F3D
:10961000601BF50C7410C3950CFCE49400FD7900FC
:10962000E50A2508FAE50B3509FB12A0B71298AB3D
:109630001206A31298A11206A3AC82AD83AA10ABA6
:109640001112C4B41298BA1206A37401F074021273
:1096500006A3AA82AB831296B4850A0C850B0D80F3
:109660000EAC0AAD0BAA0AAB0B12C4B41296C1EE33
:10967000F8EFF974FF281E74FF39FFE87001E970F4
:10968000E0850C14850D157516007814120481AC54
:1096900008AD0974031206A31296DC1296EA1204AE
:1096A000B2AA0CAB0D12BB78790074221204B27FFF
:1096B0000F02031C1296B82212C4F853B3F8E5B394
:1096C00022E50A2410F50AE50B3400F50B22129866
:1096D00099780C22E0F510A3E0F51122E0FAA3E05E
:1096E000FB22EEFC7D00AA0AAB0B12A00174032240
:1096F00074EA12020D74DE1204FD890F8C128D13B0
:1097000074381206A3E0FE74021206A374011298C4
:10971000C51204817C0D7D0074061206A3AA82ABDB
:10972000831296EA1204B274111206A3E4F07410C4
:109730001206A3E4F0EEC3950FF50AC4540FFE7FA2
:1097400000740F550A60010E7C107D0079007412C0
:109750001206A3AA82AB8312A0B7850A08E51225D8
:1097600008F8E5133400F9851882851983E8F0A319
:10977000E9F0850F828582108518828519831298F9
:10978000998F0E780C120481AC107D0074151206AE
:10979000A3AA82AB831296EA1204B21298AB120605
:1097A000A31298A11206A3AC82AD83743C1206A347
:1097B0001296DC12C4B48E088F097404780812055E
:1097C000A385080C85090DAA0CAB0D12BA728A1478
:1097D0008B158A088B09EA7001EB700579100298E5
:1097E00096AC0CAD0D790012A0B785120C85130D47
:1097F000780C120481AC0A7D00AA08AB091296EA23
:109800001204B21298BA1206A37401F0740212067E
:10981000A3AA82AB8312C4F874F855B34402F5B31B
:1098200085080C85090D8017AC08AD09AA08AB099D
:1098300012C4B4E5082410F508E5093400F509EE72
:10984000F8EFF974FF281E74FF39FFE87001E97022
:10985000D77516007814120481AC0A7D00AA12ABE9
:10986000131296EA1204B2AA0CAB0D12BB78743C28
:109870001206A3E0F508A3E0F509750A00780812BE
:109880000481AC107D0074031206A31296DC1296BC
:10989000EA1204B279000296AAE0F50CA3E0F50DF5
:1098A00022AA82AB831296B87412221298B443B3E0
:1098B0002074022253B38FE5B3221298B443B3301D
:1098C000E5B3741122F08A088B09750A0078082222
:1098D00074EF12020D8908ECFEEDFF74111206A35D
:1098E000E0F874131206A31296D474151206A3E0BE
:1098F000F50EA3E0F50F74171206A31298997419C8
:109900001206A3E0F50AA3E0F50BE9700779007FE2
:109910000A02031CE8C39508F509780A1204857841
:109920000C120485780E12048578101204858509BE
:109930000C750D00780C12048512920E740A120434
:10994000B2E970CB7A0080010AEAC3950850C0AC36
:109950000974012CF5098A0CE50A250CF582E50B42
:109960003400F583E0FB8C0CEE250CF582EF34001F
:10997000F583E06B60D27901809574F812020D7462
:10998000E31204FDE99007FFF07401900802F0FA79
:1099900012C54B7401851882851983F01206A374D1
:1099A00004F074021206A3E4F074031206A37430E8
:1099B000F0A3E4F0740A1206A37480F0A3E4F07438
:1099C000121206A37480F0A3E4F074051206A374C7
:1099D00006F074161206A37401F0741B1206A37429
:1099E0006EF0A3749BF0851882851983AA82AB83DD
:1099F000790012AA61741D1204B27F0102031C7463
:109A0000F112020D8A0A8B0B7480550BF9E4700178
:109A1000E9706F7440550BF9E47001E97003029A24
:109A2000CC129BF9AA0A7440650BFB029AE27420DF
:109A30006A7048E0541FF07980129CDB8A0E8B0F0D
:109A4000A80EA90FE8FEE9FFE87001E9602D750E88
:109A500000780C1204817C807D0012A00174031236
:109A600004B2EEFAEFFB12AABC8E828F83A3E054FD
:109A70001F4460F0EEFAEFFB129B90AA08AB0912AC
:109A8000A1359007FFE0F912A1BD8A088B09EA70A1
:109A900001EB60318A828B83E0640170DEA3A3E076
:109AA000F50CA3E0F50D850C82F583A3E054E0FAF4
:109AB00074406A6003029A2EE0541FF0AA0CAB0DAA
:109AC00012AB6480B6AA0A7480029A287420550BDF
:109AD000F9E47001E960077420650BFB80047A00EB
:109AE0007B007F0802031C74F212020D8A088B09A6
:109AF0008A828B83E0F9129CDB8A0A8B0BA80AA965
:109B00000BE8FEE9FFE87001E9604FE08E828F8389
:109B1000129B65E0541F44408E828F83129B5FE04E
:109B20008E828F83A3129B5FA3A982AA83890C8A4A
:109B30000D750E00780C120481850882850983E07A
:109B4000FC7D00EE2403FAEF3400FB12A001740345
:109B50001204B2EEFAEFFB129B907F0702031CA3E4
:109B6000129B65A322F0850882850983A32274F8DD
:109B700012020DEA1203B7010102859B0204859BC4
:109B8000108A9B8D9B129D068003129BF90299FA05
:109B900074F712020DEAFEEBFF8E828F83E024033E
:109BA000F508900802E0D2E1F0129BEEA908EEFA67
:109BB000EFFB129F11EE2508F582EF3400F583E9E3
:109BC000F0EE24FF1EEF34FFFF74FE8E828F83F0D1
:109BD000EEFCEFFD129BDA029D017A007B0812A2D7
:109BE000627A007B409007FFE0F912A3DF227A013E
:109BF0009007FFE0F912C54B2274F712020D90088E
:109C000005E07002A3E06003029C9A7A007B0812D0
:109C1000A2BC8A088B09A808A909900805E8F0A346
:109C2000E9F0900807E8F0A3E9F0E87001E9606A5C
:109C3000E0F5838882E070489008037401F0A3E4A3
:109C4000F0900803E0FCA3E0FD900807129ECB799A
:109C50000012AA838A088B09AC08AD09900803C3D7
:109C6000E09CF0A3E09DF0900803E07002A3E07098
:109C700046900805129EE7900805E4F0A3F080598D
:109C8000900808129EF5E0F8740528F8E43400F90D
:109C9000900803E8F0A3E9F0800A900805E070025C
:109CA000A3E06026900803C3E09481A3E094004001
:109CB000907C807D008092900807E02CF8A3E03D26
:109CC000F9900807E8F0A3E980B3900802E0C2E148
:109CD000F0E070057A00129BF0802674F712020DF6
:109CE000E9FE8E0874052508FAE43400FB129FCDC6
:109CF0007002E5836007A3AA82AB8380047A007BAD
:109D0000007F0202031C74F712020D74FF1204FD9F
:109D1000E9FE803590080D129ED17401F0129EDA92
:109D200090080DE02404FAA3E03400FB88828983C4
:109D3000EAF0A3EB129F0BC0E088828983129ED1C8
:109D4000D0E0F07401900809F0EEF912AA9AEA70D6
:109D500001EB607D7C017D00851882851983AA82D4
:109D6000AB83EEF912AA70129EDAE8FAE9FB9008CA
:109D700009E01203540005499D859DD99DED9D94F0
:109D80009D099E8A9E851882851983E064FE70B9BC
:109D9000740380B1851882851983E064FE60AAE0AF
:109DA00090080AF0E490080C129F0BF8740728FA48
:109DB000E43400FB12A0DF90080DEAF0A3EBF09072
:109DC000080DE07002A3E06003029D14E49008090E
:109DD000F074011204B2029D01851882851983E096
:109DE000C0E0129EEED0E0F07402029D458518821C
:109DF000851983E0C0E0129EEEA3D0E0129F0B70A5
:109E000003029E857404029D45851882851983E0AE
:109E1000C0E090080CE0F88A828B83129EFCD0E0B0
:109E2000F090080CE004F0EEF912AA9AEAFFE0F8CC
:109E300090080DE0FAA3E0F5838A82A3A3129EFCAA
:109E4000AA82AB8390080AE0C398FCE49400FD8FDB
:109E500008C3EC9508ED9400A2D265D0334010AC55
:109E6000087D00EEF912AA7090080CE02F8009EE30
:109E7000F912AA70E090080CF0E0FA90080AE06A83
:109E80006003029D497405029D45851882851983EA
:109E9000E090080B129F0B2403F98A828B83129E99
:109EA000CB129F11E9FA90080BE06A90080D700D33
:109EB000129ECB9007FFE0F912A15E800A129EE786
:109EC0007A007B20129BE5E4029D45E0FAA3E0FBCB
:109ED00022E0F8A3E0F58388822290080DE02402B6
:109EE000F8A3E03400F922129ECB12A135228A8217
:109EF0008B83E0F8A3E0F5838882A322E028FAA30D
:109F0000E034008A82F583A3A3A322F090080AE03C
:109F10002274F812020DE9FD79007C00800E8A821D
:109F20008B83E0C969F90CA3AA82AB83ECC39D4083
:109F3000ED0299FAC082C083900802E0C2E0F0E02E
:109F400070057A00129BF05386BFE5A8C2AF53FD9F
:109F5000FB43FD0853F3FB438F04438C0143AB04E5
:109F6000D2BD7589F0C2C5A2E792AFD083D082225C
:109F7000C0E074F112026DA2AFE492E0FED2AFE550
:109F800089A2E2503B900802E0D2E0F0751A00C2CC
:109F9000BD53ABFB53FDFB43FD0843F30CE5F3431B
:109FA0008640129BEE7A017B00129FCD7002E58302
:109FB0006009E4F0AC82AD83129BDA758900C2C5FA
:109FC000751A00EEA2E092AF7F020202CC12A0DF6F
:109FD0008A828B83E582223274F712020D74055552
:109FE000867011790012AA9AEA7001EB7006900847
:109FF00002E06004790180027900029D0112C6C46A
:10A000002274F612020DEAFEEBFF740A1206A31286
:10A01000A254A3E0A908AA09FB8E828F83800D12A7
:10A020000498F0E9240109EA3400FAA3ECFEEDFFFC
:10A0300074FF2E1C74FF3FFDEE7001EF70E1AA82E9
:10A04000AB837F0302031C74EE12020D741212061E
:10A05000A3E0F510A3E0F511A3E0F51289088A0941
:10A060008B0A85100C85110DECF8EDF974FF281C96
:10A0700074FF39FDE87001E96036A908AA09AB0A46
:10A08000E92401F508EA3400F509850C10850D1165
:10A09000E50C2401F50CE50D3400F50D120498FED5
:10A0A000A910AA11AB121204986E60BC790080024C
:10A0B00079017F0B02031C74F712020DE9FE8C0874
:10A0C0008D097808120485EEFC7D0012C66C7402BE
:10A0D0001204B202A30EA2E092AF7F0102031C742D
:10A0E000F712020DEAFEEBFFEE7001EF70067A0048
:10A0F0007B00803E74052EFAE43FFB12BA728A0898
:10A100008B09A808A909E87001E960E288828983BF
:10A11000E4F0A3F088828983A3A3EEF0A3EFF074A8
:10A12000FF88828983A3A3A3A3F0E82405FAE93476
:10A1300000FB02A30EC082C083EA7001EB700479B9
:10A1400005801612A1AF60047904800DEA24FBFAA1
:10A15000EB34FFFB12BB787900D083D0822274F8F5
:10A1600012020DE9FEEA7001EB70047905803D9062
:10A170000D3CE0FCE9C39C400712A1357903802C1B
:10A1800012A381E07002A3E0700512A1AF60051276
:10A19000A13580D7EEF0EAFCEBFD7A807B0112A2BC
:10A1A000627A007B80EEF912A3DF790002A0DAEA7E
:10A1B00024FFF582EB34FFF583E064FF2274F31291
:10A1C000020D890B750C00750D007E007F00A2AF9B
:10A1D000E492E0F50AC2AF9001808017EE7001EFC3
:10A1E000700685080C85090DE50824FBF582E50954
:10A1F00012A38712A254E5087002E5096025E5085C
:10A2000024FFF582E50912A387E0650B70CEEE709E
:10A2100001EF7006AE08AF0980CE7A007B8012A3F2
:10A22000DF800D7A007B8012A41EEE7001EF6015B6
:10A23000780C120485EEFCEFFD7A807B0112A313EB
:10A2400074021204B2E50AA2E092AFEEFAEFFB7FCD
:10A250000602031CE0F508A3E0F50922E0FAA3E0FA
:10A26000FB2274F812020DA2AFE492E0FEC2AFEC42
:10A2700024FBF582ED12A387E4F0A3F012A2B170E3
:10A2800001E970098A828B83801012A38C12A2A329
:10A290007002A3E08882898370F0ECF0A3EDF0EE09
:10A2A00002A0D6E824FBF8E934FFF988828983E02C
:10A2B000228A828B83E0F8A3E0F9E82274F7120285
:10A2C0000DEAFCEBFD7A007B00A2AFE492E0F5081A
:10A2D000C2AF8C828D8312A2B57001E9602AE8FAC0
:10A2E000E9FBEA24FBF8EB12A2A8FEA3E0FF8C82B4
:10A2F0008D83EEF0A3EFF088828983E4F0A3F0EA87
:10A3000024FF12A38474FFF0E508A2E092AF7F025D
:10A3100002031C74F612020D740A1206A312A38C17
:10A32000A2AFE492E0F50AC2AFEC24FBFEED34FFED
:10A33000FF8A828B8312A254EC65087003ED6509D5
:10A340008E828F83700D12A38C8A828B83E8F0A398
:10A35000E9801012A25CE824FBF582E912A387EAE7
:10A36000F0A3EBF08E828F83E4F0A3F0EC24FFF5F2
:10A3700082ED12A38774FFF0E50AA2E092AF02A07B
:10A3800042EA24FBF582EB34FFF58322E0F8A3E0F8
:10A39000F92274F712020DE9FE750800A2AFE492EB
:10A3A000E0FFC2AF12A2B17001E970108A828B8304
:10A3B000801BEE60208882898312A38C1E12A2A3C8
:10A3C0007002A3E070ECEE600C88828983ECF0A34D
:10A3D000EDF0750801EFA2E092AFA90802A30E7498
:10A3E000F812020DE9FD900D3CE0FCE9C39C5029F8
:10A3F000E5A8FEC2AFEDC333F8E433F99007FDE002
:10A4000028FCA3E0398C82F583E04AF0A3E04BF00E
:10A41000EEA2E792AF79008002790302A0DA74F825
:10A4200012020DE9FE900D3CE0FCE9C39C501EE5D4
:10A43000A8FFC2AFEAF4FCEBF4FDEE12A5465CF017
:10A44000A3E05DF0EFA2E792AF790080027903020A
:10A45000A0DAE9FA74FF6A7005D2AF7900227907B1
:10A4600022E9FA74FF6A7005C2AF790022790722E7
:10A47000C082C08312B9EC900180E4F0A3F012B363
:10A480008F12C52D12C3F612BA4E790002A159746B
:10A49000F512020D750800751A0112BF4912C63077
:10A4A000E50812A5467002A3E0700D0508900D3C6A
:10A4B000E0FAE508C39A40E8900D3CE0FAE508C3ED
:10A4C0009A505BE5A8FCC2AFE508C333FEE433FF56
:10A4D0009007FDE02EF8A3E03FF98882898312A25D
:10A4E0005C88828983E4F0A3F0ECA2E792AFA9082C
:10A4F000EE2430F582EF340DF58312A53D1206AD42
:10A50000E5A8FDC2AF9007FDE02EFCA3E03F8C82E2
:10A51000F583E04AF0A3E04BF0EDA2E792AFA2AFE3
:10A52000400312BBEF900D3CE06508600302A49469
:10A53000E51A700302A49412C59502A494E0F8A34E
:10A54000E0F583888222C333F8E433F99007FDE015
:10A5500028FAA3E0398A82F583E022C082C08353BF
:10A56000FF3FE5FF85FFFF53F1FE43F30CE5F35397
:10A57000F2F3E5F275868075C48074709005C0F0C2
:10A5800074C19005C1F09005C2E0541FF0740F90A3
:10A5900005C4F0744A9005C5F074709005B6F07467
:10A5A000C19005B7F09005BAE0541FF074CE900545
:10A5B000BCF09005BDE0540F4410F074059005B850
:10A5C000F074EE9005B9F074809005BBF0E490054E
:10A5D000BAF074129005BD02AA05C082C083EA24B5
:10A5E0001BF582EB3400F583E0F8A3E0F99007FA5D
:10A5F000E8F0A3E9F08A828B83A3E0FC74036C602B
:10A600000574046C700575C2D8800375C23BE012F6
:10A61000035400033AA61EA625A62CA633A675C58C
:10A62000087423801A75C5097412801375C50A74DD
:10A6300009800C75C50A7406800575C50B740390F6
:10A6400007F6F08A828B83A3A3E0600D75C44243B2
:10A65000F310C28543FD20800375C4029070C1E0F1
:10A660009005EEF0A3E4F075D1F775D608FC7D01F6
:10A6700074FF65C2F97AEE7B0512A0B7438640E409
:10A680009007F9F09007F802AA0574F712020D7806
:10A6900000790080338A828B83E508F0A3AA82AB1D
:10A6A0008385C20874FF6508F50912A6E6E4F0A3E5
:10A6B000E509F09006EEE004F0C394804002E4F077
:10A6C000E8240108E93400F9C3E89CE99D500C1224
:10A6D000A6E6E0F508A3E065C260BAC285E8FAE93B
:10A6E000FB7F0202031C9006EEE0C333FEE433FF5F
:10A6F000EE24EEF582EF3405F5832274F112020D9B
:10A70000EAFEEBFF12A9932CF8E43DF9C3E894812B
:10A71000E9940040077A007B0002A7BBE5A8FAC2D3
:10A72000AF9007F412A7E1EAA2E792AF7A007B00AC
:10A73000801A12A7C0C0E085080A750B007407785C
:10A740000A1205A312A7CAD0E012A7F0C3EA9CEB35
:10A750009D40DFA2AFE492E0F508C2AF9007F4E0BD
:10A76000650F6039E508A2E092AF12A7E17A007B9D
:10A7700000801A12A7C0C0E085080A750B00740794
:10A78000780A1205A312A7CAD0E012A7F0C3EA9C68
:10A79000EB9D40DFA2AFE492E0F508C2AF850F82E7
:10A7A000A882E812AA3DE50EF012AA3AE0700674FB
:10A7B000019007F9F0E508A2E092AF7F0802031CC0
:10A7C000EE2AF582EF3BF583E022850E0CE50C24A2
:10A7D000F2F8E43406F9E50A28F582E50B39F58349
:10A7E00022E0F50FF58285820812AA41E0F50E22DB
:10A7F000F0050EEA24010AEB3400FB2274F7120282
:10A800000D7E009006EEE0FA12A9F0600302A8990E
:10A810008A82AC82ECF87900E8FAE9FBEAC333FA01
:10A82000EB33FBEA24EEF582EB12A9FC701012A9BF
:10A83000E0400478007900EC687001E970DA900675
:10A84000F0E0FC9006EFE0FAE86A7001E9600FE8DA
:10A85000F0EC7006E5959006F1F074C68020EC608F
:10A86000219006F1E0FAE595C39AFAC39C500E9048
:10A8700006F0E0C39AF0E5959006F18004E49006B6
:10A88000F0F012A9A68A088B09A808A909C3E894C0
:10A8900070E99400400A0E8024E49006F0F0801DD8
:10A8A000C3E89430E9940040060E0ED285800EE88D
:10A8B0007001E960089006F0E070027E049007F5F0
:10A8C000E06006E4F0EED2E4FE9007F8E0601DE5FB
:10A8D00095FB9007F6E0C0E09007F7E0FAEBC39A2B
:10A8E000FAD0E0C39A5005E49007F8F09007F9E039
:10A8F00060589007F8E07052E49007F912A9971297
:10A9000005A3E50824F2E50934069005BE12A997CF
:10A910001205A3E50824F29005BF12AA4F9005C3C3
:10A92000F09005C2E054E0F09007F4E0E06401F03C
:10A93000A2AFE492E0FAC2AF75D61000E5D6A2E469
:10A9400050F975D1EF75D7108023A2AFE492E0FAE9
:10A95000C2AF12A9936016E5D6A2E44010E5D1A2D9
:10A96000E4400AEAA2E092AF12AA0B8005EAA2E054
:10A9700092AFEE601B9007FAE0F8A3E0F9888289B5
:10A9800083E5827002E5836007EEFA79001206AD76
:10A9900002A6E112AA5422F09007F4E0F508750926
:10A9A000007407780822C082C0837A007B0090067A
:10A9B000EEE012A9F0702778007900E8FCE9FDECE0
:10A9C000C333FCED33FDEC24EEF582ED12A9FC70EF
:10A9D00008EA24010AEB3400FB12A9E040DD8026DE
:10A9E000E8240108E93400F9C3E89480E9940022DE
:10A9F000C333F8E433F9E824EEF582E93405F5834E
:10AA0000A3E065C222F0D083D08222C082C08375C9
:10AA1000D1EF9007F4E0F812AA3AE4F0740190073D
:10AA2000F5F0E5959007F7F074019007F812AA4F3A
:10AA3000600674019007F9F080CC74016812AA4195
:10AA40002212AA452224F2F582E43407F58322F08B
:10AA500012AA54229007F4E012AA45E02212A55B44
:10AA600022EEC0E0E9700312A5DA7900D0E0FE2200
:10AA7000EEC0E0E9700512A68A80047A007B00D05F
:10AA8000E0FE22EEC0E0E9700512A6FB80047A0029
:10AA90007B00D0E0FE2212A7FC22EEC0E0E97005A8
:10AAA00012A9A680047A007B00D0E0FE22C082C0FA
:10AAB0008374019008E7F0D083D0822274F71202E9
:10AAC0000DEAFEEBFF8E828F83A3E0FA740A6A70B0
:10AAD0006FEE2404F8EF3400F9EE2403FAEF3400AB
:10AAE000FB8A088E828F83A3A3E01203B7000301C1
:10AAF000FAAA0212AB1229AB50AB88828983E00418
:10AB00008E828F83F0E8FCE912AB55128019E9F0D0
:10AB1000803EEE2405FCEF340012AB55128128E98B
:10AB2000F074018E828F8380E68A828B83E0F91233
:10AB3000C363EAF0A3EBF074028E828F83F080107F
:10AB4000740B6A700BEEFA12B201E9600312ACD515
:10AB50007F0202031CFD88828983E0FA8508828BCC
:10AB600083E0F92274F712020DEAFEEBFF8E828F6A
:10AB700083A3E0FA740A6A600302ACC38E828F83F7
:10AB8000A3A3E01203540310D2ACACABC4ABE6AB4E
:10AB900046AC63AC79AC90AC98ACB5ACD5AB56AC2C
:10ABA000D2ACD2ACD2ACA2ACD2AC9DAC9008E7E0B7
:10ABB000640270077A007B001286CF7401F0128263
:10ABC0001602ACD29008E7E06401600302ACD21236
:10ABD000829B02ACD29008E7E06401600302ACD231
:10ABE00012831202ACD29008E7E06401600302AC69
:10ABF000D2EE2409F508EF3400F50978081204852F
:10AC00008E828F83A3A3A3A3A3A3A3A3E0F50878B5
:10AC1000081204898E828F83A3A3A3A3A3A3A3E016
:10AC2000FB8E828F83A3A3A3A3A3E0FC8E828F83DA
:10AC3000A3A3A3A3A3A3E0FD12ACE31283B3740305
:10AC40001204B202ACD29008E7E06401600302ACE7
:10AC5000D2128342807C9008E7E064017074128312
:10AC6000A5806F9008E7E0640170678E828F83A3F0
:10AC7000A3A3E0F912845680599008E7E0640170BC
:10AC8000518E828F8312ACEEA3E0FB12847E804251
:10AC9000129F34128485803A128498803512C289BA
:10ACA00080308E828F83A3A3A3A3A3E0FB12ACE327
:10ACB00012C291801D8E828F83A3A3A3E0F9128319
:10ACC000A9800F740B6A700A12ACD5EEFAEFFB1272
:10ACD000B03902AB5074029008E7F07A2E7BAF12C5
:10ACE00086CF228E828F83A312ACEEE0F922A3A33B
:10ACF000A3E0FA8E828F83A3A3A32274F812020D1D
:10AD0000747D1204FD74011206A3740AF074021219
:10AD100006A37401F002AEE874F812020D747D12FD
:10AD200004FD74011206A3740AF074021206A374DF
:10AD30000202ADB974F812020D747D1204FD7401A3
:10AD40001206A3740AF074021206A3740C02AEE594
:10AD500074F812020D747D1204FD74011206A374BE
:10AD60000AF074021206A37404804E74F812020DE5
:10AD7000747D1204FD74011206A3740AF0740212A9
:10AD800006A3740AF07402851882851983F074038F
:10AD90001206A3E9F074041206A3EA803874F812CC
:10ADA000020D747D1204FD74011206A3740AF0747E
:10ADB000021206A3740B02AEE5F0740385188285B7
:10ADC0001983F01206A3E9F074041206A3EAF074E2
:10ADD000051206A3EBF0851882851983AA82AB833E
:10ADE000129AE774831204B27F0102031C74F812F2
:10ADF000020D747D1204FD74011206A3740AF0742E
:10AE0000021206A3740302AEE574F212020D747D01
:10AE10001204FDEAFF8B0874911206A3E0FB749202
:10AE20001206A3E0FA74931206A3E0F50CA3E0F572
:10AE30000D74011206A3740AF074021206A37405BD
:10AE4000F074072A851882851983F074031206A30B
:10AE5000E9F074041206A3EFF074051206A3ECF0F7
:10AE600074061206A3EDF074071206A3E508F07449
:10AE7000081206A3EBF074091206A3EAF0750E009F
:10AE8000780C120481EAFC7D00740D1206A3AA82DC
:10AE9000AB8312A00174031204B285188285198352
:10AEA000AA82AB83129AE774831204B27F0702036B
:10AEB0001C74F812020D747D1204FD74011206A3B5
:10AEC000740AF074021206A37406801974F8120250
:10AED0000D747D1204FD74011206A3740AF074024D
:10AEE0001206A37407F07401851882851983F07423
:10AEF000031206A3E902ADD574F812020D747D1297
:10AF000004FD74011206A3740AF074021206A374FD
:10AF10000880D274F812020D747D1204FD740112BF
:10AF200006A3740AF074021206A3740980B774F2BF
:10AF300012020DEAFEEBFF740C90081412B1DF64EC
:10AF400001600302AFCFEE2405F508EF3400F509E8
:10AF5000850882F583E0FA8A0A7407250AF8E43442
:10AF600000F9E89481E99400400302B03474072AA0
:10AF700012B1DC900815F08E828F83A3A982AA8378
:10AF8000890C8A0D750E00780C1204817C077D00F7
:10AF90007A167B0812B1E61204B28E828F83A3A3C5
:10AFA000A3A3A3A3A3A3E0F50CA3E0F50D780C12D3
:10AFB0000481850882850983E0FC7D007A1D7B0879
:10AFC00012B1E61204B27A137B08129AE780657513
:10AFD0000B00E50BC333F8E433F9E824B4F8E934A3
:10AFE000C7F988828983E493FA8E828F83E06A703E
:10AFF0003A88828983A3E493FAC39481502DEA901E
:10B000000813F08E088F09750A0078081204818AE7
:10B010000874012508FCE43400FD7A157B0812B1A0
:10B02000E61204B27A137B08129AE7050BE50BC30C
:10B03000940C409E7F0702031C74F212020D8A08D2
:10B040008B09EA2402F8EB3400F9740C900814F030
:10B05000E82402FAE93400FB8A0A8B0B8882898390
:10B06000A3AE82AF8388828983E0120354010ED994
:10B07000B18FB0E9B0F3B003B14DB157B160B17861
:10B08000B18CB1B2B1B7B1C2B1CDB1D6B1FDB08E54
:10B090000C8F0D750E00780C1204817C067D007AF1
:10B0A000967B0812B1E61204B27A967B0812464FDC
:10B0B000E9600302B1D9E5082409F508E50934007F
:10B0C000F509750A00780812048190089AE0FC7D61
:10B0D0000090089EE0FAA3E0FB12B1E61204B27AF7
:10B0E000967B081246C502B1D9EEFAEFFB124B98D7
:10B0F00002B1D9EEFAEFFB124FC602B1D9124BF5ED
:10B1000002B1D98E828F83E0F91264E9E9FA7407FB
:10B11000900815F074042A90081312B1ECF0EA902C
:10B120000819F060187C1A7D08850A82850B83E077
:10B13000FA8E828F83E0F9126409E9800274F49038
:10B140000816F07A137B08129AE702B1D9EEFAEFEB
:10B15000FB1251F702B1D9EEFAEFFB1255CC807910
:10B160008E828F83E0F9126559740A900815F07485
:10B1700001900813F0E480C7740B900815F0740177
:10B1800012B1DCFAA3E0FB126F3880AE74039008B2
:10B1900013F0740C900815F0E82404FCE912B37461
:10B1A0008E828F83E0F91266F2E990081612B1ECF4
:10B1B0008090125BCD80228E828F83E0F9125F1126
:10B1C00080178E828F83E0F91260B7800CEEFAEF61
:10B1D000FB1249D88003124A3002B034900813F0B1
:10B1E0008E828F83E02212A001740322F08E828F60
:10B1F00083E0900817F0850A82850B83E090081899
:10B200002274EE12020DEAFEEBFFEE2402F508EFC7
:10B210003400F509A808F9751200EE2403F50AEFC9
:10B220003400F50B8E828F83A3858210858311E80D
:10B230002402F50EE93400F50F88828983A3858204
:10B240000C85830D88828983E012035404056DB355
:10B250005CB26DB36DB3D6B2FAB225B3850C8285FC
:10B260000D83E0F91264E9E9FC850E82850F83E025
:10B27000FD850A82850B83A3A882A983850C82851C
:10B280000D83E088828983F0E50A2402FAE50B3415
:10B2900000FBED8A828B83F0EC850A82850B83A309
:10B2A000A3A3F074042C12B3807407850882850967
:10B2B00083F0EC601DE50A2404FCE50B12B37488EE
:10B2C000828983E0F9126409E9850A82850B830289
:10B2D000B36C74F480F3850C82850D83E0F91265FC
:10B2E0005912B37E740A850882850983F0E4850AC1
:10B2F00082850B83F07512018073850C82850D8326
:10B30000E0F8A3E0F9880C890D12B37E740B850870
:10B3100082850983F0AA0CAB0D126F38E9850A8289
:10B32000850B838047850C82850D83E0F50C850EA7
:10B3300082850F83E0F50DE82404FCE93400FDAAC2
:10B340000DA90C1266F2E9FA740312B380740C852D
:10B350000882850983F0EA850A82850B83F0A3E5DC
:10B360000CF0850A82850B83A3A3E50DF0A9127F5B
:10B370000B02031C3400FD8A828B83E0FA227401E5
:10B380008E828F83F0746C851082851183F0227415
:10B39000F512020D900CF87808120669900599785C
:10B3A0000812068702B50474F312020D8908EAFE3A
:10B3B000EBFF8C0A8D0B12B44FEA7001EB600F8A21
:10B3C000828B83A3A3E50AF0A3E50BF080727A09D0
:10B3D0007B0012BA72EA7001EB60618A828B83A3F0
:10B3E000A3A3A3A3A3E50812B445EEF0A3EFF08A4C
:10B3F000828B83A3A3E50AF0A3E50BF08A828B83FB
:10B40000E4F0A312B445A3A3A3F0A3F0900597E042
:10B410007002A3E09005977006EAF0A3EB80ACE021
:10B42000FCA3E08003E8FCE9FD8C828D8312B697D3
:10B43000E87001E970EF8C828D8380DD7A007B00FB
:10B440007F0602031CF08A828B83A3A3A3A322742A
:10B45000F812020D90059780048C828D83E0FCA386
:10B46000E0FDEC7001ED601F8C828D83A3A3A3A38C
:10B47000E06A7003A3E06B70E08C828D83A3A3A3CA
:10B48000A3A3A3E06970D2ECFAEDFB7F0102031CD9
:10B49000C082C083EA7001EB600C8A828B83A3A315
:10B4A000A3A3E4F0A3F0D083D0822274F712020D9C
:10B4B000E5A8FFC2AF12B3A7EFA2E792AFEA70010F
:10B4C000EB60047900800279087F0202031C74F5A6
:10B4D00012020DA2AFE492E0F509C2AF12B44F8A96
:10B4E0000A8B0BAE0AAF0BEE7001EF600312B49043
:10B4F000E509A2E092AFEE7001EF600479008002EE
:10B50000790680007F0402031C74EC12020D8A0A83
:10B510008B0BE5A8FAC2AF850A0C8B0D750E007572
:10B520000F00900599780C1205EFEAA2E792AF9010
:10B530000597E07002A3E0700302B692900597E0D1
:10B54000F508A3E0F509750C00750D007E007F007D
:10B55000A2AFE492E0F514C2AFE5082404F512E5C9
:10B56000093400F513E5082402F50EE5093400F569
:10B570000F850E82F58312B697C3E50A98E50B99FD
:10B58000850E82850F834006E4F0A3F08017C3E0A8
:10B59000950AF0A3E0950BF0850E82850F83E0708D
:10B5A00002A3E0704EE5082407F510E5093400F524
:10B5B00011851082F583E07002A3E060508512824D
:10B5C000851383E0FAA3E0FBEA7001EB603F850896
:10B5D00082850983A3A3A3A3A3A3E0F912A3DF8514
:10B5E000108285118312B697850E82850F83E8F04D
:10B5F000A3E9F0850E82850F83E07002A3E0600D61
:10B60000851282851383E07002A3E0702B85088287
:10B6100085098312B697E50C7002E50D700590055B
:10B62000978006850C82850D83E8F0A3E9F0AE08CB
:10B63000AF098E828F83800C85080C85090D8508E3
:10B6400082850983E0F508A3E0F509E514A2E092FC
:10B65000AFEE7001EF60308E828F83A3A3E07002A3
:10B66000A3E0701C8E828F83A3A3A3A3E0FAA3E0C0
:10B67000FB8E828F83A3A3A3A3A3A3E0F912A3DF6E
:10B68000EEFAEFFB12BB78E5087002E509600302F1
:10B69000B54C7F0D02031CE0F8A3E0F922C082C084
:10B6A00083900597E07002A3E0602F90059712B693
:10B6B000977AFF7BFF88828983A3A3E0FCA3E0FD48
:10B6C000C3EC9AED9B5004ECFAEDFB88828983125F
:10B6D000B697E87001E9600680DB7A007B0002B46F
:10B6E000A674F112020D900CF87808120669900504
:10B6F000CC78081206878A088B09750A00750B003A
:10B70000900D04780C1206697808790C12018D905E
:10B710000D087808120590740578081204CC900C76
:10B72000F8780812053E701D122BB68A088B098C1A
:10B730000A8D0B900CF8780812053E702E74039059
:10B7400005C7F0804A122BB68A0C8B0D8C0E8D0F1C
:10B75000900CF8780C12053E60117808790C1206EE
:10B760003950088A088B098C0A8D0B74029005C722
:10B77000F0900D0C780C120669780C7908120639D5
:10B78000500D900CF8780812053E600302B83DA2F7
:10B79000AF400312BBEFC2AF129FD8E9600302B8FB
:10B7A0003F7902122349E9600302B83F12C6E090D4
:10B7B0000CF8780812053E6028900D10780C1206DF
:10B7C00069780C79081206394008900D147808122F
:10B7D0000669AA08AB09AC0AAD0B12B856C2C7D2AB
:10B7E000AD53BEFCE5BE9005C7E045BEF5BEE5AD78
:10B7F000A2E050FAE5A8FEE5B8FFE59AF50853A8DF
:10B8000020E5A853B820E5B8539A12E59AD2AF12B2
:10B81000E7F8C2AF8EA88FB885089AC2AD12B934C6
:10B820008A088B098C0A8D0B9005CC78081205EFDD
:10B8300012C6E11223BBD2AF124104800DC2AFAADF
:10B8400008AB09AC0AAD0B12B8E880057404120409
:10B85000B27F0802031C74F112020D74FC1204FD85
:10B860008A088B098C0A8D0BE595851882851983CA
:10B87000F0E596C0E074011206A3D0E0F0E597C0B1
:10B88000E074021206A3D0E0F074031206A3E4F001
:10B89000851882851983780C1206699005C8780C82
:10B8A000120687900D18780C1206697808790C1228
:10B8B000018D740678081204CC900D1C78081205CE
:10B8C0009085188285198378081205EF7402120694
:10B8D000A3E0F59774011206A3E0F596851882851A
:10B8E0001983E0F59502B84C74F112020D8A088BA9
:10B8F000098C0A8D0B900CF8780812053E60289090
:10B900000D10780C120669780C7908120639400877
:10B91000900D147808120669AA08AB09AC0AAD0BA1
:10B9200012B856C2C7D2AD53BEFCE5BED2AF12E7C5
:10B93000F802B85174F112020D74FC1204FDE59581
:10B94000851882851983F0E596C0E074011206A37C
:10B95000D0E0F0E597C0E074021206A3D0E0F074E6
:10B96000031206A37401F0851882851983780812E2
:10B9700006699005C878081204E5900D2078081231
:10B980000590900D2478081205DC900D28780C1293
:10B9900006697808790C12018D900D2C7808120533
:10B9A00090740C78081204CCAA08AB09AC0AFD020A
:10B9B000B84C80080000000000000000EAF8EBF935
:10B9C00074FF281A74FF39FBE87001E970E622223F
:10B9D000C0E0C0D0EAC0E0E5A8D2AFC2C7751A0087
:10B9E000A2E792AFD0E0FAD0D0D0E032C082C083DC
:10B9F000900CF6E024FEF8A3E03403F988828983F2
:10BA0000E4F0A3F0900CF6E0F8A3E0F583888274EC
:10BA1000E8F0A3E4F0900CF6E024E8F8A3E03400AA
:10BA2000F9888289837416F0A37403F090018CE87E
:10BA3000F0A3E9F07A007B0012BA7290018EEAF06E
:10BA4000A3EBF0900CF612BA64D083D08222C082AD
:10BA5000C083E5A8FAC2AF90018E12BA64EAA2E7E9
:10BA600092AF80E5E0F8A3E0F990018CE8F0A3E95B
:10BA7000F02274F412020D7C007D008C0BEA24028B
:10BA80000A0AEB3400FBA2AFE492E0F50AC2AFC3AE
:10BA9000EA9411EB9400500590018C800390018E84
:10BAA000E0F8A3E0F988828983E0FEA3E0FF7480D8
:10BAB0005FF509E47002E509600974806FFF750B9A
:10BAC000008074E50B606288828983E0F508A3E05A
:10BAD000F5098C828D83E02508F0A3E03509F08C10
:10BAE000828D83C3E09AA3E09B404CECF8EDF9888B
:10BAF000828983E0FEA3E0FFE87001E9606BC3EE9A
:10BB00009AFEEF9BFFC3EE9404EF94004047E82AAF
:10BB1000F582E93BF583EEF0A3EFF074804BFB88F0
:10BB2000828983EAF0A3EB8036C3EE9AEF9B50C87C
:10BB3000750B01E8FCE9FDE82EF8E93FF9888289F8
:10BB400083E0FEA3E0FFEE7001EF600302BAAE787F
:10BB5000007900801488828983E0F0A3E04480F0BB
:10BB6000E824020808E93400F9E50AA2E092AFE807
:10BB7000FAE9FB7F0502031C74F812020DEAFEEBE2
:10BB8000FFA2AFE492E0F508C2AFEEF8EFF9C3E828
:10BB90009490E994014009C3E89490E99405400326
:10BBA00012BBEFEE24FE1E1EEF34FFFF8E828F834A
:10BBB000A3E05480F9E47001E9700312BBEF8E82B8
:10BBC0008F83E0F0A3E0547FF090018CE0F8A3E0D5
:10BBD000F9C3EE98EF99500CEEF8EFF990018CE86C
:10BBE000F0A3E9F0E508A2E092AF7F0102031C1286
:10BBF000BBF32274F512020D74F61204FDC2AF53AA
:10BC0000BEFBE59DA2E650FA0078F8790100E82431
:10BC1000FF18E934FFF9E87001E970F175C6807426
:10BC200080659E70FA43BE047408906270F043FD14
:10BC30008043FF017480906234F0D287D2A0D28713
:10BC40008017D2870B74086B600302BD287B000C41
:10BC5000ECC39406500302BD28D2877A0080060AFE
:10BC6000740A6A606E900CF87808120669740612FD
:10BC700006A378081206878012900CFC780812063A
:10BC80006974061206A378081205EF74061206A35B
:10BC9000C082C083900D007808120669D083D082DC
:10BCA000780812065940D2A2875004C2878002D277
:10BCB00087A2A05004C2A08002D2A090059DE0609F
:10BCC0000CE4F0740A1204B27F0402031CA2925026
:10BCD0008E8088D287D2A0D287D28778007900A2BE
:10BCE0009240047800790012BD8840F39061A3E08F
:10BCF000C0E074041206A3D0E0F09061A4E0C0E0BC
:10BD000074051206A3D0E0F09009C2E0C0E074020E
:10BD10001206A3D0E0F09009ADE0C0E07403120673
:10BD2000A3D0E0F07B007C00A29240FCC287C2A0BE
:10BD3000C287EB7004C2878002D28778007900A2A4
:10BD40009240047800790012BD8840F3D287D2A0D7
:10BD5000D287D2877508017509007407C39B7808DC
:10BD60001205A3C0088C08851882851983E58225F1
:10BD700008F582E5833400F583D0E0FAE05A7003D9
:10BD800002BC42C28702BC44E8240108E93400F93D
:10BD9000C3E894F4E99401A2D265D0332274F81276
:10BDA000020DE9FE8A08EBFF12BEBA24D8F582E53F
:10BDB000F03405F58312BDCEE5827002E58360099B
:10BDC000EFFBAA08EEF91206AD7F0102031CE0F8B2
:10BDD000A3E0F98882898322C082C083E9120354D8
:10BDE0000003F8BDECBDF8BDF0BDF4BD7901800ADB
:10BDF000790280067900800279038057C082C0836F
:10BE0000790312BEA57033E5E4A2E5500C53E4DFDC
:10BE10007B027A02790312BD9DE5E4A2E6500C5341
:10BE2000E4BF7B027A04790312BD9DE5E4A2E750EA
:10BE30002253E47F7B027A088014790312BE9F703C
:10BE400012E5E4A2E4500C53E4EF7B047A01790399
:10BE500012BD9DD083D08222C082C083790012BEE1
:10BE6000A57021A2D9500EE5D875D8407B027A0280
:10BE7000790012BD9DA2DA5024E5D875D8407B0226
:10BE80007A048014790012BE9F7012A2D8500EE579
:10BE9000D875D8407B047A01790012BD9D80B41218
:10BEA000BEAB64042212BEAB64022212BEBA24D41A
:10BEB000F582E5F03405F583E02212BDD8E975F08E
:10BEC0000AA422C082C083790212BEA57021A2DC1E
:10BED000500EE5D875D8407B027A02790212BD9DDA
:10BEE000A2DD5024E5D875D8407B027A048014790D
:10BEF0000212BE9F7012A2DB500EE5D875D8407BAF
:10BF0000047A01790212BD9D02BE53C0E074F212A0
:10BF1000026DE5A8FED2AF12BDFC751A00EEA2E7D5
:10BF200092AF7F010202CCC0E074F212026DE5A86C
:10BF3000FED2AF12BE5880E2C0E074F212026DE58C
:10BF4000A8FED2AF12BEC380D174F512020D7E00DE
:10BF50007F0012416E8A088B09AC08AD09900182FE
:10BF6000E06C7003A3E06D700302C038900182E0C2
:10BF7000F8A3E0F9ECC398F508ED99F50990018272
:10BF8000ECF0A3ED801FE5082404F508E50934E092
:10BF9000F509EE243CFEEF340AFF900184E024040E
:10BFA000F0A3E03400F0C3E50894FDE509941F50C8
:10BFB000D5740378081205A3900184E02508FCA33A
:10BFC000E03509FDECF8EDF97A197B0012013488AF
:10BFD000088909EE2508FEEF3509FFECF8EDF97A3E
:10BFE000197B00120134900184EAF0A3EBF0EE70AB
:10BFF00001EF6044900186E02EF0A3E03FF0900155
:10C0000086C3E094E9A3E09403402612C03D1201E8
:10C010003488088909750A00750B00900188780832
:10C020001205EF12C03D120134900186EAF0A3EB35
:10C03000F0EEFAEFFB12B5097F0402031C900186B3
:10C04000E0F8A3E0F97AE87B032274F512020D9080
:10C0500001887808120669AA08AB09AC0AAD0B8002
:10C06000D72274F512020D8908740B1206A3E0FEA4
:10C07000A3E0FF740F5508F50A750B00740B780ADE
:10C080001205A32AF874803BF9E428E50B39F9E599
:10C09000C7F509E508C4540FC0E074F855C7FAD0D5
:10C0A000E04AF5C7801C88828983E08C828D83F00A
:10C0B00088828983A3A882A9838C828D83A3AC8282
:10C0C000AD83EEFAEFFB74FF2A1E74FF3BFFEA70AC
:10C0D00001EB70D28509C77F0402031C74F71202BA
:10C0E0000D74091206A3E0F508A3E0F509ED90052B
:10C0F0009EF0EC90059FF074629005A0F074739030
:10C1000005A1F09005A2E0541FF0E508333354FC7C
:10C110009005A3F074067808120678E5089005A249
:10C12000F074129005A4F074429005A5F075D1FE4C
:10C1300075D601EA906271F0EB906272F0906270D5
:10C14000E0D2E1F0E0A2E740FB7F0202031CC082E4
:10C15000C083E9C333906272F07A02906270E0D2D9
:10C16000E0F0E0A2E740FB906272E004F01AEA70AF
:10C17000EAD083D0822274F812020D12C1CA600480
:10C18000790080358A828B83A3A3A3A3A3A3A3A34F
:10C19000E060ED64028A828B83700E12C1BE700370
:10C1A000A3E06970DB79018010A3A3A3A3A3A3A3D9
:10C1B000A3E0640370CA12C2267F0102031CE0F8E8
:10C1C000A3E0F98C828D83E068228A828B83A3A30B
:10C1D000A3A3A3A3A3A3E0FE8C828D83A3A3A3A305
:10C1E000A3A3A3A3E06E2274F812020D8C828D83A8
:10C1F000A3A3A3A3A3A3A3A3E0FE8A828B83A3A3E9
:10C20000A3A3A3A3A3A3F074036E700512C2678057
:10C21000128C828D83E0F8A3E0F98A828B83E8F0A8
:10C22000A3E9F002C1B974F712020D750808EAFE1D
:10C23000EBFF8E828F83A3AA82AB83ECF8EDF988A3
:10C24000828983A3AC82AD838E828F83E0FE888255
:10C250008983E06E6004790080081508E50870CED7
:10C2600079017F0202031C74F612020D8C088D09FD
:10C27000750A0078081204817C087D0012A0017400
:10C28000031204B27F0302031CC2AF75C90B008006
:10C29000FD74F812020D74FD1204FD74021206A35F
:10C2A000EAF074011206A3EBF0E9FE74026E70244A
:10C2B0007401851882851983F0F912C3567401122E
:10C2C00006A3AA82AB8379E112216E9008E5E4F01F
:10C2D000A3F08078E4851882851983F0790112C370
:10C2E0005674021206A3AC82AD837A007988126676
:10C2F000F274011206A3AA82AB8379E112216EEED9
:10C30000701FE5A8FAC2AF906189E054FCF0E0D25A
:10C31000E1F0E49061BAF074409061BBF074018088
:10C320001674016E7026E5A8FAC2AF906189E054D8
:10C33000FCF0E04403F0E49061BCF075E1FF75E1CE
:10C34000D975E1D275E1E1EAA2E792AF7403120474
:10C35000B27F0102031C121F7CAA82AB83795212A6
:10C36000216E22C082C0839008E5E0FAA3E0FBE9D9
:10C3700060079008E5E4F0A3F0D083D08222C08269
:10C38000C0839008E5E02401F0A3E03400F080E9E8
:10C3900079FF12A46153BEFBE59DA2E650FA007836
:10C3A000F8790100E824FF18E934FFF9E87001E9A1
:10C3B00070F175C6807480659E70FA43BE0474087F
:10C3C000906270F043FD8043FF017480906234F00E
:10C3D00012C5CA1290911223CD12AAAD12A470797F
:10C3E000FF12A452790112C54112A48F7A007B007A
:10C3F00022D083D08222C082C0837A0C7B0012BA02
:10C40000729007FDEAF0A3EBF07C0C7D007900123E
:10C41000A0B7790012181E79011260E57902127E28
:10C42000A0790312997A74049007FCF0790512C57B
:10C43000BC80BE74F712020DEAFEEBFF74805FF958
:10C44000E47001E9700C7A007B007F0202031C1289
:10C45000A1359007FFE0F912A1BDEA7001EB70EF82
:10C46000EEFA74806FFB80E2D083D08222C082C05B
:10C470008343B3017C108A828B83E0F5B1A3AA8247
:10C48000AB831CEC70F080E074F812020D43B30132
:10C490007E1012C4E970FB7C0FEC1C70FC7C10E574
:10C4A000B28A828B83F0A3AA82AB831CEC70F07FEC
:10C4B0000102031C74F712020D43B3017F047E04D2
:10C4C00012C4E970FB7E0F8E081EE50870F97E0429
:10C4D000E5B28A828B83F0A3AA82AB831EEE70F052
:10C4E0001FEF70DA7F0202031C8C828D83E0F5B1AE
:10C4F000A3AC82AD831EEE2274F855B34406F5B3A7
:10C5000012C46D2274F855B3440480F22212C5247B
:10C5100012C5042212C52453B3F8E5B3ECFAEDFBBF
:10C5200012C4882253B38FE5B343B34022C082C004
:10C5300083E4900596F0900590F0A3F0D083D0822C
:10C5400022C082C083E990059680F074F712020D34
:10C55000E9FE900D3CE0FBE9C39B40047903803089
:10C56000750801750900EE78081205A3AC08AD093D
:10C57000EA7011ECF4F8EDF4F9900590E058F0A3AE
:10C58000E0598009900590E04CF0A3E04DF079006F
:10C590007F0202031C74F712020D900596E0601AE8
:10C5A000900590E07002A3E07010E5A8FEC2AF1203
:10C5B000B69DEEA2E792AF12B6E180D4C082C083EE
:10C5C000E99005C6F0D083D0822212C63412C06131
:10C5D00012C50C12AA5D2274F712020DEAFEEBFFDF
:10C5E00074805FF9E47001E9601B9005C680031256
:10C5F000A135E0F912A1BDEA7001EB70F2EEFA7418
:10C60000806FFB8026EE5402600674026EFA801B77
:10C61000EEA2E05004740180F35404600A12B9CF12
:10C6200074046EFAEF80DB7A007B007F0202031C49
:10C6300012AA96227405F5D575D49E7405F5D375A6
:10C64000D2A6D2B822C0E074F212026DA2AFE49278
:10C65000E0FED2AFC2C0E5D1A2E4500312AA0B752E
:10C660001A00EEA2E092AF7F010202CC74F812022F
:10C670000D74081206A3E0F8A3E0F98A828B838088
:10C6800003ECF0A3E8FEE9FF74FF2E1874FF3FF9F6
:10C69000EE7001EF70EB7F0102031C74F812020DC3
:10C6A000E9FEE49061A6F0EE906264F07A027B000D
:10C6B00012B9B2E0FA7401F0EAA2E6E492E0F97F7E
:10C6C0000102031CC082C0838A828B838001A3E0A5
:10C6D00070FCE582C39AFAE5839BFBD083D082226B
:10C6E000222290010000000001000000005800001C
:10C6F000640000001F0000002D000000975118008A
:10C70000965118009F020000EFFFFFFF110000008C
:10C71000FFFFFF007D000000FF0F00002918966159
:10C72000617FFF9933C4D7C50600001000FFFFFFEB
:10C73000FF60EA3075102019F8E7544920496E630C
:10C7400000030003000300030003000300030003D1
:10C7500000030005000A00140028004F009E00009E
:10C76000005E1E5E1E5E1E5E1ECB0FBF0F5E1E2590
:10C77000C80000000087C8000000000C0000000C8A
:10C780000002CE010201FFFFFFFFFFFFFFFF514943
:10C790002C4C58537660D8506857207730000000F2
:10C7A00000000C0000000080008010020004000067
:10C7B00000FCFFFF0202030D042F053106020831C1
:10C7C00009260D010E020F01100911007101BD08AB
:10C7D0000F01D6087206BE087301C4087403C508A9
:10C7E0007507C8087602CF087702D1081002D7086B
:10C7F0001107D9087802D3087901D5080005150D6D
:10C800000910080400383C3E363B3B352B432C30A6
:10C810003016181920231A1C1E3030301718192111
:10C82000301B1D1F300300710030016000110070CB
:10C830000031022003500480001000610000001449
:10C8400000630073007200620043000000130006E2
:10C8500000000000000400120000000000000000C2
:10C860000004000400370037003C024400000000D0
:10C870000000000000650000003500810000000598
:10C8800000000083000000010371030103010301A4
:10C890000301030103220302030103100300030049
:10C8A000030003000300030003000342030003240A
:10C8B00003060300030003040312032503230325D7
:10C8C00003230304030403000300030003440300E1
:10C8D00003000323030003650321003503810300E4
:10C8E0000305030003000300030304710402046052
:10C8F000041104700402040204010402041004611F
:10C900000400041404630473047204620443040006
:10C9100004130406040004000404041204000400C8
:10C9200004000400045104640000040004000444F2
:10C9300004000400040004000465040004350481BC
:10C940000464000504000483040004000349484211
:10C950004D18172505020001191618161615230380
:10C96000000C0E020B040B0A0708000F5E1E5F1E70
:10C97000651E79139A1E75133514360001000600E2
:10C9800000000F0000000000000000000000000098
:10C9900003FFFF00000403FFFF0000FFFF0FF4018F
:10C9A0000005C4040320000100000B00000000008B
:10C9B00000000003010F00013636010100010201F1
:10C9C0000001030100010401060605020000070141
:10C9D00000340801000F090401010D0100FF0E08D9
:10C9E000000017020000190100FF1A0100011B01DD
:10C9F00000FE1C0100081D0200001F0100012001B3
:10CA00000001210200002301000F24020000260182
:10CA1000000127010008280200FF2A0100072B015E
:10CA200002402C0100002D0100012E0100012F0108
:10CA300000FF30010B1C310800003A0100083B01E7
:10CA4000000F2F01000048235D245D245E1E5D243D
:10CA50008E0B580D5D245D24A90D5D24740D5D249D
:10CA60005D245D245D245D245D245D245D245D24BE
:10CA70005D245D245D245D240A15EC145D245D2491
:10CA80005D245D245D24C32463289C28D625422789
:10CA9000AA26030003000400080010001F003E0047
:10CAA0007B00F600EC01D703AF075D0FB91E713DA7
:10CAB000000000BE040A03EAF5E5D5D5C5B5A59585
:10CAC0009585857575656555554545353525251516
:10CAD000150504ECECDCCCCCBCACAC9C8C8C7C7C2C
:10CAE0006C6C5C5C4C4C4C3C3C2C2C1C0CFFFF0FCD
:10CAF000FFC80000000001040303640006000000FA
:10CB00000000000000000000000000000100000024
:10CB10009F0A0202A10A0100A20A0103A30A020459
:10CB2000A50A0205BE0A0406A70A010700000100C3
:10CB300000002B00A80A0108A90A0109AA0A010A93
:10CB4000AB0A010BAC0A020CAE0A010DAF0A0F0EC4
:10CB5000C20A010FC30A0210C50A0711CC0A01213B
:10CB600000000800CD0A0222CF0A0223D10A0100E8
:10CB7000D20A0100FFFFFFFFFFFFFFFFFFFFFFFFE4
:10CB8000FFFFFFFFFFFFFFFFFFFFFFFFFFFFFFFFB5
:10CB9000FFFFFFFFFFFFFFFFFFFFFFFFFFFFFFFFA5
:10CBA000FFFFFFFFFFFFFFFFFFFFFFFFFFFFFFFF95
:10CBB000FFFFFFFFFFFFFFFFFFFFFFFFFFFFFFFF85
:10E7F000FFFFFFFFFFFFAF14851A870022FFFFFF17
:10F80000FFFFFFFFFFFFFFFFFFFFFFFFFFFFFFFF08
:10F81000FFFFFFFFFFFFFFFFFFFFFFFFFFFFFFFFF8
:10F82000FFFFFFFFFFFFFFFFFFFFFFFFFFFFFFFFE8
:10F83000FFFFFFFFFFFFFFFFFFFFFFFFFFFFFFFFD8
:04000005000000DC1B
:00000001FF
