:020000040000FA
:100000000209F40202C8FFFFFFFFFFFFFFFFFFFF2F
:10001000FFFFFFFFFFFFFFFFFFFFFFFFFFFFFFFFF0
:10002000FFFFFFFFFFFFFFFFFFFFFF0207D1FFFF03
:10003000FFFFFFFFFFFFFFFFFFFFFFFFFFFFFFFFD0
:10004000FFFFFF02070BFFFFFFFFFF020640FFFF5E
:10005000FFFFFF020158FFFFFFFFFF02065CFFFFEB
:10006000FFFFFF02066DFFFFFFFFFF02040CFFFF13
:10007000FFFFFFFFFFFFFFFFFFFFFF020486FFFF01
:10008000FFFFFF0201B2910100000000010000002B
:1000900000580000640000001F0000002D00000058
:1000A00097511800965118009F020000EFFFFFFFC4
:1000B00011000000FFFFFF007D000000FF0F0000A7
:1000C000B40D0811F20B500B440B780A0600001017
:1000D00000FFFFFFFF60EA3075102019F8E7544970
:1000E00020496E63000300030003000300030003C4
:1000F0000003000300030005000A00140028004F5D
:10010000009E000000DE0DDE0DDE0DDE0D420D3C1A
:100110000DDE0D8E14000000002C14000000000CF9
:100120000000000C0002CE010201FFFFFFFFFFFFF5
:10013000FFFF3C107810B410F610A210C610B611D4
:100140003000000000000C00000000800080100261
:100150000004000000FCFFFFC0E074F2120553A28F
:10016000AFE492E0FED2AFE5A7FAE5A1FBEA5B546B
:10017000106008120EB075A1EF802AEAA2E0C0D08C
:10018000EBA2E092F0120954158182F050179061B1
:1001900098E0FA9009CCE0C39AA2D265D03350021D
:1001A000EAF075A1FE751A00EEA2E092AF7F01029F
:1001B00005B2C0E074F2120553A2AFE492E0FED2A1
:1001C000AF9061A4E0FA759B00E5915A540860096C
:1001D0007591F7120FB2020281E5915A5410607BBB
:1001E0007591EFE0C2E4F09061E4E07006120F82D6
:1001F000020281E06401705E74049009C3F0120F82
:10020000529009C7E004F090095BE0C0E09009C794
:10021000E0FAD0E0C39A500779E1120F8E80629025
:1002200009C5E0F874012808E43400F9900967E092
:10023000FAE89AE99400C365D03350079009C5E005
:10024000048001E09009C5F0120F7074839009C317
:10025000F0120F7C802B120F888026EAA2E0C0D01B
:10026000E591A2E092F0120954158182F05012E05B
:10027000C2E0F0E49009B0F09009AEE07003120F14
:10028000289061A3E0FAE5E95A540460389009BF68
:10029000E0702774019009BEF09009B1E0F8A3E086
:1002A000F5838882121338E49009BEF09009BFE00C
:1002B0006008120EFEE49009BFF075E9FB906193AF
:1002C000E0A2E640C80201A5C0E074F2120553A204
:1002D000AFE492E0FED2AF9061A5E0FAE5BF5A54D8
:1002E00004600C75BFFB9009C0E004F0120EF80228
:1002F00001A5C3E498F8E499F91203338026C3E416
:100300009AFAE49BFBE920E7E9120333E498F8E466
:1003100099F922C3E498F8E499F9120333E498F8C0
:10032000E499F9C3E49AFAE49BFB22EB20E7CFE9D6
:1003300020E7E0B90010BB0008E88AF084F8AAF0D2
:1003400022E4FBC8FA22EB70227B10C833C8C93301
:10035000C9335007C39AC3DBF280069A50012ADBE7
:10036000EAC833F4C8C933F4C9FA2275F008E4C8FE
:1003700033C8C933C933C99AC99B5004C92AC93B78
:10038000D5F0ECFBC833F4C8E4C9FA22080808EA3F
:10039000C0E0EBC0E086F0E7A4FA180986F0E7A415
:1003A0002AFA180986F0E7A42AFA180986F0E7A4C1
:1003B0002AFA1986F0E7A4FBE5F02AFA190886F074
:1003C000E7A42BFBE5F03AFA190886F0E7A42BFB2B
:1003D000E5F03AFA18180986F0E7A4C5F02BFBE41B
:1003E0003AFA1908E7C5F0C6A426F6E5F03BFBE4A7
:1003F0003AFA1886F0E7A4F6E5F00826F6E43B089A
:10040000F6E43A08F6D0E0FBD0E0FA22C0E074F15E
:10041000120553A2AFE492E0FED2AFE589A2E2500A
:1004200058900803E0D2E0F0751A00C2BD53ABFB50
:1004300053FDFB43FD0843F30CE5F34386407A018B
:10044000900800E0F912126A7A017B001213128AF6
:10045000828B83E5827002E5836019E4F0AC82ADA3
:10046000837A017B081212FA7A007B40900800E040
:10047000F91212E2758900C2C5751A00EEA2E09267
:10048000AF7F020205B2322518C582C0E0E51934FB
:10049000FFC583C0E0E518C3958224F8F8E4C5A839
:1004A000858319858218C5A8E8CEF0A3E520F0A3BE
:1004B0007808E608F0A3DEFAEFF0A3E58124FAF865
:1004C000E608F0A3E608F0A3E608F0A30808E608AB
:1004D000F0A3E608F0A315811581D0E0FED0E0F886
:1004E000158115811581E8C0E0EEC0E022121335B8
:1004F000B9000302053DE4791A7801B800028004CE
:10050000F709D8FCE49001817878790C8002F0A397
:10051000D8FCD9FA900CF8AA82AB8390008678D3E5
:1005200079018015E493A3AC82AD838A828B83F03A
:10053000A3AA82AB838C828D83D8E9D9E77582F632
:1005400075835C74001207B3758230758313740071
:100550001207B3C0D02518C582C0E0E51934FFC525
:1005600083C0E0E518C3958224F310AF0885831992
:100570008582188008858319858218D2AFC8F0A3B8
:10058000E9F0A3EAF0A3EBF0A37908E709F0A3D818
:10059000FAECF0A3EDF0A3EEF0A3EFF0A3D0E0F0BF
:1005A000A3D0E0F0A3D0E0F0A3E520F0A3E5F0F0C5
:1005B000A322851983851882E0C0E0A3E0F9A3E0B7
:1005C000FAA3E0FBA37808E0F608A3DFFAE0FCA3B7
:1005D000E0FDA3E0FEA3E0FFA3E0C0E0A3E0C0E0F5
:1005E000A3E0F5D0A3E0F520A3E0A3F5F0E4C5A8CF
:1005F000858319858218C5A8D082D083D0E0F8D031
:10060000E032851983851882E0A3FEE0A3F5207807
:1006100008E0A3F608DFFAE0A3FFE0A3C0E0E0A350
:10062000C0E0E0A3C0E0E0A3C0E0E0A3C0E0E4C518
:10063000A8858218858319C5A8D083D0820207B9FE
:10064000C0E074F2120553E5A8FED2AF120ADE75BF
:100650001A00EEA2E792AF7F010205B2C0E074F289
:10066000120553E5A8FED2AF120AE480E2C0E0749E
:10067000F2120553E5A8FED2AF120AEA80D1D08368
:10068000D082C5F0E493A3C5F0C395F0F5F0E493F0
:10069000A3C395F04005E5F0048001E475F002A4E1
:1006A0002582F582E5F03583F583E493A3C0E0E489
:1006B00093C0E02274028000CCC0E0EDC0E0E518F9
:1006C000C39CCCAD1950011D10AF068C188D19803C
:1006D000068C188D19D2AF120754D0E0FDD0E0FC83
:1006E00022D083D082CCC0E0E493A36006120794AA
:1006F0001470FAE493A3600612089E1470FAD0E016
:10070000FCE493A3C0E0E493C0E022C0E074F212E2
:100710000553A2AFE492E0FED2AFC2C0E5D1A2E49D
:100720005003120B14751A00EEA2E092AF7F010283
:1007300005B2CAC0E0E493A3C582CCC582C583CD0F
:10074000C583F0A3C582CCC582C583CDC583DAE558
:10075000D0E0CA22CAC0E0E0A3C582CCC582C5836E
:10076000CDC583F0A3C582CCC582C583CDC583DA50
:10077000E6D0E0CA22700908080822601618181886
:10078000C6C333C608C633C608C633C608C633C692
:10079000D5E0EA22C0E0E493A3D39C5010E493A3F5
:1007A000C39C400AD0E0D0E0D0E00206FEA3A3A3A1
:1007B000D0E022C09FF59FE473D09F22D083D082E7
:1007C000C09FE493C0E0740193C0E0740293F59F6E
:1007D00022C0E0C0D0EAC0E0E5A8D2AFC2C7751A17
:1007E00000A2E792AFD0E0FAD0D0D0E0327404801B
:1007F0000A74038006740280027401C0E0F40412DB
:100800000808D0E0120A31222518F58210AF08F549
:1008100018400215198008F51840021519D2AF8545
:10082000198322C0D0251810AF08F51850020519F9
:100830008008F51850020519D2AFD0D022BB0102B2
:10084000E722C082C08389828A83BB0003E08002E2
:10085000E493D083D082226016080808C6C313C66A
:1008600018C613C618C613C618C613C6D5E0EA22A2
:10087000C3E0C696F608A3E0C696F608A3E0C696BF
:10088000F608A3E0C696F622251810AF08F5184022
:100890000215198008F51840021519D2AF22C0E0E0
:1008A000E493A36C7009D0E0D0E0D0E00206FEA390
:1008B000A3D0E022E066701008A3E066700A08A3E7
:1008C000E066700408A3E06622C3E09608A3E09601
:1008D00008A3E09608A3E096A2D265D03322E7668B
:1008E00070100809E766700A0809E76670040809CD
:1008F000E76622C3E096F008A3E096F008A3E0962E
:10090000F008A3E096F022C3E697F60809E697F60A
:100910000809E697F60809E697F622E627F6080999
:10092000E637F60809E637F60809E637F622E02644
:10093000F608A3E036F608A3E036F608A3E036F69C
:1009400022E056F608A3E056F608A3E056F608A300
:10095000E056F622C0E0E8C0E0E58124FCF8E6A21B
:10096000E7D0E0F8D0E022700422600D18C6C3334F
:10097000C608C633C6D5E0F41822E056F008A3E056
:1009800056F008A3E056F008A3E056F022E046F047
:1009900008A3E046F008A3E046F008A3E046F022F2
:1009A000E026F008A3E036F008A3E036F008A3E064
:1009B00036F022E4C396F608E496F608E496F608C4
:1009C000E496F622C6F4C608C6F4C608C6F4C608FD
:1009D000C6F4C622C3E7960809E7960809E7960811
:1009E00009E79622C3E09608A3E09608A3E09608DC
:1009F000A3E0962275D000758140751881751901A4
:100A0000000204EDE0F608A3E0F608A3E0F608A370
:100A1000E0F622E6F008A3E6F008A3E6F008A3E675
:100A2000F022600C08C6C313C618C613C6D5E0F47E
:100A300022CAC0E0E6F0A308DAFAD0E0FA222518CC
:100A4000F582E43519F583221207BC165F00120700
:100A5000BCEE2A001207BC172E001207BCD02F00D4
:100A60001207BCB031001207BC605F001207BC6304
:100A70005E001207BC735E001207BC855E001207A1
:100A8000BCDE5E001207BCC357001207BCC657008D
:100A90001207BC4058001207BCB258001207BC73C2
:100AA0005F001207BC765F001207BCF87F001207D8
:100AB000BCA34F001207BC1851001207BCAA51007A
:100AC0001207BCF651001207BC7452001207BC9307
:100AD00052001207BC5356001207BC8E5600120774
:100AE000BCB256001207BC1057001207BC7B57005F
:100AF0001207BCF43D001207BC733E001207BC2372
:100B00003F001207BC943F001207BC95400012073B
:100B1000BC3F42001207BC9E42001207BCF84200D4
:100B20001207BC0143001207BC1043001207BC238C
:100B300043001207BC3943001207BC4243001207AE
:100B4000BC605D001207BC9D5D001207BC5A3200FC
:100B50001207BCDF32001207BCC733001207BC54B7
:100B600034001207BC7634001207BCD234001207DE
:100B7000BCBD35001207BCEE35001207BC043800BE
:100B80001207BC2738001207BC6338001207BCE10B
:100B900022001207BCB823001207BCF6230012077C
:100BA000BC5624001207BCAB24001207BC08250069
:100BB0001207BCA225001207BCAA26001207BC55CA
:100BC00028001207BCFF28001207BC642900120786
:100BD000BC7829001207BCA32A001207BCF2470008
:100BE0001207BCFD48001207BCC54A001207BC3200
:100BF00017001207BCFF17001207BCBA1800120733
:100C0000BCC919001207BC321A001207BCB71A007F
:100C10001207BC421B001207BCB91B001207BCE93B
:100C20001B001207BC4C1C001207BC561C0012070C
:100C3000BC611C001207BC041D001207BC2C1D0067
:100C40001207BC3D1D001207BC4D1D001207BC5B06
:100C50001D001207BC8A1F001207BC991F00120753
:100C6000BC3520001207BCF520001207BCFD210096
:100C70001207BC8F22001207BC075B001207BC0FD3
:100C80005B001207BCE75B001207BC045C001207A4
:100C9000BC5543001207BC6643001207BC25440044
:100CA0001207BCBF45001207BCDC45001207BCF8A8
:100CB00045001207BC1446001207BC2F460012075D
:100CC000BC6146001207BCB146001207BCCD46000D
:100CD0001207BC7547001207BC9047001207BCBC46
:100CE00047001207BCD747001207BC9A80011207C1
:100CF000BCF280011207BCBE81011207BCCC82018C
:100D00001207BCCA84011207BC5185011207BC2915
:100D100086011207BC9486011207BCB08601120737
:100D2000BCE586011207BC1887011207BC218701A8
:100D30001207BC8B87011207BCD987011207BC00C0
:100D400089011207BC1389011207BC3089011207FF
:100D5000BCD289011207BC3C8B011207BC478C0135
:100D60001207BCB78C011207BCC18C011207BC7DF5
:100D70008D011207BC8E8D011207BCC18D011207B7
:100D8000BC058E011207BC348E011207BC528E01C5
:100D90001207BCE48E011207BCF88E011207BC00DA
:100DA00090011207BC1590011207BCC690011207F2
:100DB000BC5F91011207BC6A91011207BC7F9201CE
:100DC0001207BC9A92011207BCE992011207BC03F8
:100DD00093011207BC1E95011207BC9295011207E0
:100DE000BCA597011207BCA897011207BCB49701D4
:100DF0001207BCF397011207BCCA98011207BC493D
:100E00009A011207BC6A9A011207BCCC9A01120718
:100E1000BCA69C011207BCA99C011207BC1B9D012A
:100E20001207BC2F9D011207BC519D011207BCBACD
:100E30005C001207BCCF9D011207BCD29D011207B6
:100E4000BC379E011207BC4A9F011207BC21A001BA
:100E50001207BCB9A0011207BCE0A1011207BC191E
:100E6000A2011207BC4EA2011207BC57A201120731
:100E7000BC7FA3011207BCA954001207BC87A401C0
:100E80001207BCB1A4011207BCECA4011207BC31CB
:100E9000A5011207BCA0A5011207BCB5A501120748
:100EA000BCF8A5011207BC1DA6011207BC4BA60188
:100EB0001207BC7EA6011207BC0FA8011207BC9A3C
:100EC000A8011207BCA7A8011207BCCCA8011207F1
:100ED000BC51A9011207BC8EA9011207BCAFA90120
:100EE0001207BCF5A9011207BC04AA011207BC1421
:100EF000AA011207BC2DAA011207BC6BAA01120796
:100F0000BC86AA011207BCEFAA011207BCB5AE014C
:100F10001207BC95AF011207BCC6AF011207BC2A6D
:100F2000B0011207BC12B1011207BC3AB10112079D
:100F3000BC63B1011207BC93B1011207BCE6B10159
:100F40001207BC04B2011207BC25B2011207BC444F
:100F5000B2011207BC66B2011207BC95B2011207BA
:100F6000BCB0B2011207BCE2B2011207BC87B301E8
:100F70001207BC97B4011207BC0DB5011207BC7073
:100F8000B5011207BCA8B5011207BCE6B5011207EE
:100F9000BC15B6011207BC36B6011207BC5EB6011D
:100FA0001207BC8CB6011207BCE7B6011207BC875A
:100FB000B7011207BC9BB7011207BC0EB80112079C
:100FC000BC89B9011207BC9FB9011207BCBAB901AB
:100FD0001207BCD1B9011207BCE6B9011207BC4E19
:100FE000BA011207BCAFBA011207BC11BB0112074C
:100FF000BC58BB011207BC91BB011207BCA8BB01C6
:101000001207BC92BC011207BCA6BC011207BCDBD4
:10101000BC011207BC04BD011207BC2DBD011207A3
:10102000BCFCBD011207BC8CBE011207BCA5BE01F1
:101030001207BCCBBE011207BC41BF011207BCCADC
:10104000C1011207BC28C2011207BC51C20112071C
:10105000BCA9C2011207BCB3C2011207BCD3C201B2
:101060001207BCD4C3011207BCEBC3011207BC17A3
:10107000C4011207BC74C4011207BCABC40112073F
:10108000BCF2C4011207BCB0C6011207BC6DC70197
:101090001207BCA5C7011207BCF4C7011207BC4B5D
:1010A000C8011207BC5DC9011207BC81C901120742
:1010B000BC7FCA011207BCE0CB011207BC1ACC01ED
:1010C0001207BC4CCE011207BCE7CF011207BC4C83
:1010D000D0011207BC3CD2011207BC4ED40112074A
:1010E000BCE2D4011207BCF0D6011207BC15D7012F
:1010F0001207BC98D7011207BC00D9011207BC3BEC
:10110000D9011207BC6FD9011207BC23DA011207FB
:10111000BC9BDC011207BC7BDD011207BCC3DD01F7
:101120001207BCEBDD011207BC8ADF011207BCF419
:10113000E0011207BC98E1011207BCC9E1011207E6
:10114000BC51E2011207BC85E2011207BCC4E201F6
:101150001207BC0CE3011207BC27E3011207BCF71E
:10116000E3011207BC15E4011207BC38E4011207C1
:10117000BC56E4011207BC5FE5011207BC36E6016C
:101180001207BC81E6011207BCABE7011207BC15D0
:10119000E8011207BCB4E8011207BC9BEC0112077E
:1011A000BC22EE011207BC72EF011207BCBCEF01BA
:1011B0001207BCDAEF011207BCF2EF011207BC8480
:1011C000F0011207BC46F1011207BC17F201120729
:1011D000BCE2F2011207BCBCF3011207BC5BF401D4
:1011E0001207BCECF4011207BC45F5011207BC68FC
:1011F000F6011207BCB1F6011207BCF45900120740
:10120000BC655A001207BCA45A001207BCE55A007C
:101210001207BCE75E001207BC425F001207BCADBC
:101220005C001207BC695C001207BC3D5C00120741
:10123000BC165C001207BC5F4F001207BCD14D000A
:101240001207BC964D001207BC734D001207BC5626
:101250004D001207BC154D001207BC6D4C00120763
:10126000BC554C001207BC3C5E001207BCF25D008E
:101270001207BCE85D001207BCD25D001207BC2457
:1012800054001207BC1E53001207BCFA520012078A
:10129000BC9652001207BC9B54001207BCD75C00DE
:1012A0001207BCCA5C001207BCDD59001207BCDC87
:1012B00058001207BC283D001207BCF0A30112071A
:1012C000BC093D001207BCF73C001207BCE53C001E
:1012D0001207BCB13C001207BCC75C001207BC88F7
:1012E00038001207BC723C001207BC253C001207F4
:1012F000BCA63B001207BC4F3B001207BCF53A00EE
:101300001207BC503A001207BCF139001207BCCAE0
:1013100039001207BC7439001207BC4C390012079F
:10132000BCDC38001207BC9638001207BC9E9D0139
:1013300000000080FB790122E473000136360101D0
:10134000000102010001030100010401060605027B
:101350000000070100340801000F090401010D011C
:1013600000FF0E08000017020000190100FF1A011B
:1013700000011B0100FE1C0100081D0200001F01EE
:10138000000120010001210200002301000F2402BE
:1013900000002601000127010008280200FF2A01A1
:1013A00000072B0102402C0100002D0100012E013D
:1013B00000012F0100FF30010B1C310800003A0131
:1013C00000083B01000F2F01000003047104020418
:1013D00060041104700402040204010402041004F5
:1013E000610400041404630473047204620443047B
:1013F000000413040604000400040404120400049E
:10140000000400040004510464000004000400040B
:1014100044040004000400040004650400043504CE
:1014200081046400050400048304000401037103C3
:10143000010301030103010301032203020301036A
:101440001003000300030003000300030003000374
:1014500042030003240306030003000304031203F2
:1014600025032303250323030403040300030003CC
:10147000000344030003000323030003650321006A
:101480003503810300030503000300030003030089
:10149000710030016000110070003102200350041F
:1014A00080001000610000001400630073007200EF
:1014B000620043000000130006000000000004006A
:1014C00012000000000000000000040004003700CB
:1014D00037003C02440000000000000000006500EE
:1014E00000003500810000000500000083000000BE
:1014F000A10A0202A30A0100A40A0103A50A020428
:10150000A70A0205C00A0406A90A01070000010093
:1015100000002B00AA0A0108AB0A0109AC0A010A63
:10152000AD0A010BAE0A020CB00A010DB10A0F0E92
:1015300036000100060000000F000000000000005F
:1015400000000000000003FFFF00000403FFFF0095
:1015500000FFFF0FF4010005C40403200001000098
:101560000B000000000000000003010F7101BE0825
:101570000F01D7087206BF087301C5087403C608B7
:101580007507C9087602D0087702D2081002D80879
:101590001107DA087802D4087901D608C40A010FC5
:1015A000C50A0210C70A0711CE0A0121000008006F
:1015B000CF0A0222D10A0223D30A0100D40A010071
:1015C000FFFF0FFFC80000000001040303640006D2
:1015D000000000000000000000000000000000010A
:1015E000000000030003000400080010001F003E7C
:1015F000007B00F600EC01D703AF075D0FB91E7149
:101600003D000003EAF5E5D5D5C5B5A595958585D9
:1016100075756565555545453535252515150532CD
:101620000E320E320E320E320E320E320E320E32BA
:101630000E320E320E320E8A0D840D04ECECDCCC30
:10164000CCBCACAC9C8C8C7C7C6C6C5C5C4C4C4C9A
:101650003C3C2C2C1C0C0BF4F5E5D5C5B5A5A5958B
:10166000857575656555554545453525251515051A
:101670000202030D042F05310602083109260D016F
:101680000E020F0110091100DE0DE40DEA0D660DCA
:10169000F00D600D6C0D140AE5D5C5B5A5A59585B1
:1016A0008575653E0E560E5C0E440E500E4A0E3287
:1016B0000E320E1E0D320E180D320E303017181964
:1016C00021301B1D1F300C0E020B040B0A070800F3
:1016D0000F000119161816161523030000383C3E9A
:1016E000363B3B352B432C00034948424D18172508
:1016F0000502303016181920231A1C1E30320E3203
:101700000E320E320E320E0E0E320E320EDE0D3252
:101710000E0005150D091008040316961656163B03
:10172000163B163B1600FA06F600000D120D00BE21
:10173000040A74F612048774F7120888E99008A165
:10174000F0120C6A75080875090078081207F5741C
:1017500003120A3EAC82AD837AE87B07792F120A26
:101760008A74021208237A008A087401120A3EE57C
:10177000822508F582E583121F7B64FF70070AEA61
:10178000C3940840E3EAC3940850107401120A3E5F
:10179000AC82AD837A007984121126E485188285A3
:1017A0001983F0AC82AD837A017970120BD485185D
:1017B00082851983E0701C7ACE7B0B120C70740149
:1017C000851882851983F0AC82AD83FA7970120B8B
:1017D000CE80077AD47B0B120C70E49008BDF09099
:1017E00008E3F074FF900E03F01217F47409120866
:1017F00023021A2D7A019008A1E0F912126A2274CC
:10180000F6120487EAFEEBFF74805FF9E47001E9E9
:10181000601A9008A1E0F9121300EA7001EB60036E
:1018200012130CEEFA74806FFB0218ACEEA2E050BB
:101830006A79011211207CD07D087A00796012113A
:10184000267CD27D087A0079641211267CD67D0828
:101850007A00796212112674FF9008E1F0900DFB76
:1018600074E8F0A374031218B27963121126E4909D
:101870000DFBF07CFB7D0DFA7966121126741E12A9
:1018800018AF796912112674011218AF796C121110
:10189000261210D874016EFAEF808D540260099000
:1018A00008E3E060031221F17A007B00021A2D9018
:1018B0000DFBF07CFB7D0D7A002274F0120487741E
:1018C000FE1208888908ECFEEDFF7509008A828502
:1018D000820AE9C3949050367468650870067509E9
:1018E000B40219BD7CFB7D0D7A0012110EE9F509D9
:1018F000750CFB750D0D750E00780C1207F1AC0A16
:101900007D00EEFAEF1222881208230219BDE9C306
:1019100094AF5019750AD4750B0B780A1207F5129B
:101920000C047402120823E9F5090219BDE9120634
:10193000E10007B04A19B17D19B28219C0AA19C1D4
:10194000AE19C2B219C3B619BA19E49008E2F0F59B
:101950000A851882851983AA82AB83A90A12111AF3
:10196000E970069008E2E004F0050AE50AC3940A6B
:1019700040DF9008E2E08E828F83F080409008E1A3
:1019800080F3851882851983AA82AB839008E1E0F1
:10199000F912111AE9FA8A097023851882851983C8
:1019A000E0F50CA3E0F50D0218F6741280C8740A75
:1019B00080C474CE80C0741080BC7509E8A9097415
:1019C000021208237F0802060274F6120487E9FE59
:1019D000C39490501074686E700479B4804F7A008C
:1019E0001211268048EEC394AF50157508CE7509C4
:1019F0000B78081207F5120C047402120823802DCC
:101A0000EE1206E101C0C3DA1903B0DA19B1151AF2
:101A1000B2221A2B1A8C828D83E09008E1F07900B3
:101A2000800B9008E1E0FA796880B579E87F0202DE
:101A3000060274ED1204878A0D8C0A8D0B74131242
:101A40000A3EE0F508A3E0F509890E750F0074025F
:101A5000780E120967E50E246CFEE50F3415FFEED3
:101A60002480F582EF34FDF583E493F985088285BF
:101A70000983121338E50864D47004E509640B7017
:101A800031E9602EEE2482F582EF34FDF583E49394
:101A9000F508740193850810F5117512007810127D
:101AA00007F1AC0D7D00AA0AAB0B122289120823A4
:101AB00079007F0B02060274F712048774FF120884
:101AC000887AD47B0B120C709008BEE012067E0060
:101AD000022C1BD91A121B201B851882851983AC76
:101AE00082AD837A00798312110EE9FE701F85188A
:101AF00082851983E0601B79001211209008D7E0DD
:101B0000A2E0402A7A007B0012118C8021120CA0E6
:101B100080267A017B009008A1E0F91212E280137E
:101B2000120C6A7ACE7B0B120C7080E67EE8EEF91E
:101B3000120CA07A001217F674011208237F01021A
:101B40000602C082C083E49008A7F09008C5E0FCBC
:101B5000748F5C44109008A7F07A0080131220E57F
:101B6000C0E0E824A8F582E43408F583D0E0F00A68
:101B70001220DC40E874019008ABF09008A374FFD9
:101B8000F0A3F09008A5F0A3F09008B2F09008D46C
:101B9000E0F8A3E0F99008BBE8F0A3E9F074019045
:101BA00008B3F09008B4F0121BB012106C021D368E
:101BB0009008BDF07AA37B0822C082C0839008BD44
:101BC000E06401600AE064026005E0640370087488
:101BD00004F0121072800FE0640570057406F08046
:101BE0000579B4120CAC021D36C082C0839008A3E4
:101BF0007430F0A37475F09008C5E0FC9008A5F06F
:101C00007A0080131220E5C0E0E824A6F582E434CF
:101C100008F583D0E0F00A1220DC40E87A00801357
:101C20001220CCC0E0E824A9F582E43408F583D082
:101C3000E0F00A74705CC430E30244F0FBEAC39B3A
:101C400040DE7AA37B08121048021D36C082C08392
:101C500012104E021D3674F71204871210F0021B88
:101C60003D74EE12048774FE12088889088A0FEC0E
:101C7000FEEDFF8B107414120A3EE0F5117415127C
:101C80000A3EE0F50AA3E0F50B851882851983AAC0
:101C900082AB8312111AE9FA8A097054E508900898
:101CA000A3F0E50F9008A4F09008A5EEF0A3EFF0E4
:101CB000E5109008A8F0E5119008A7121BB31210C8
:101CC00030E9FA8A097029850A0C850B0D750E001A
:101CD000780C1207F1AC117D009008ABE0FAA3E09C
:101CE0001222881208237407121BB0121036800AC1
:101CF000E49008BDF0A909120CC474021208237FF5
:101D00000A02060274F7120487E912067E0001280F
:101D10001D151D221D7AFF7BFF12118C120CD002A3
:101D20001B3D7A007B0080F179E880F0C082C0839F
:101D300012118C120CD6D083D0820207B9C082C097
:101D4000837A001217F67900120CDC80E9C082C099
:101D5000831217F47900120CE280DB74F21204870C
:101D600074FE120888EAFEEBFF9008E4E07002A31C
:101D7000E060119008E4E0F8A3E0F5838882121394
:101D800038021F618E828F83A3858208858309EEC6
:101D90002402F8EF3400F9880A890B8E828F83E0E1
:101DA00012067E0110611F081FFB1EE61D611F1831
:101DB0001E1E1E611FD31E6C1E611F611F611FC985
:101DC0001DF11ED91E381E241E9008D7E0A2E04047
:101DD000077A007B0012118C850882850983E0F95F
:101DE000120CA0021F61900E03E064FF7003021F3B
:101DF0006188828983E0FA900E03E06A6003021F23
:101E000061900E04E0FB900E03121F6D120CB27471
:101E1000FF900E03F0021F61120C58021F61120C9A
:101E20005E021F619008BDE064046003021F61E46C
:101E3000F0F9120CAC021F61850882850983E0F578
:101E40000C701D7CE87D037A027B009008A1E0F90C
:101E5000121246E9FA8A0C700774019008E380B404
:101E60007BFF7AFFA90C120CB2021F619008BDE043
:101E70006405600AE06406704C750D018003750D01
:101E800000E4121F817029851882851983AA82AB0C
:101E90008388828983E0F912111AE9701CEE241DEF
:101EA000121F78FB850A82850B83E0FA7900800691
:101EB0007BFF7AFF7922120CA6E50D7003021F61E9
:101EC0007924021E32E4F07BFF7AFF79B4120CA66B
:101ED000021F61120C64021F61850882850983E07C
:101EE000F9120CBE850882850983E0F91210FC8086
:101EF000708882121F6B120CB88066E49008BD12C5
:101F00001F81F9120CC480598E828F83A3A3A3A3CF
:101F1000A3A3A3A31206B48E828F83A3A3A3A3A318
:101F2000E0F50D780D1207F98E828F83A3A3A3A38A
:101F3000A3A3A3E0F50D780D1207F98E828F83A37A
:101F4000A3A3A3A3A3E0FB8E828F83A3A3A3E0FCA0
:101F5000A3E0FD850A82121F6B120CCA74041208DA
:101F60002374021208237F060206028983E0FA85A1
:101F70000882850983E0F922F582EF3400F583E0D9
:101F800022F0850882850983E022C082C083900800
:101F9000E4EAF0A3EBF0021D3674F5120487900812
:101FA000BDE06401600302202B8A828B83A3A88298
:101FB000A983E070727E0080080CECC39406402E6A
:101FC0000EEA2417F582EB1221E7FCEE9C50588EA6
:101FD00008EA2508FCEB3400FD74272CF582E43D6B
:101FE000F583E0FD74FE2DC3940E503B7C008C08FD
:101FF000E50824BFF582E43408F583E0FF6D600551
:1020000074FF6F70B488088909750A007808120790
:10201000F17C317D007ACA7B0D122289120823746B
:10202000029008BDF08009740380F6E0640260F756
:102030007F03020602C082C0839008BDE064027084
:1020400073900DCBE09008A3F0900DCCE0F8A3E0E6
:10205000F99008ACE8F0A3E9F07CCE7D0D7AA47B82
:102060000812120A1221DB800C1220E5C0E01221B6
:10207000D0D0E0F00A1220DC40EF7A00800C122071
:10208000CCC0E01221C5D0E0F00A74705CC430E32B
:102090000244F0FBEAC39B40E59008D7E0A2E2507F
:1020A0000474248001E49008B9F07405121BB01286
:1020B00010AE8015E064016005E06403700BE4F08D
:1020C0007BFF7AFF7921120CA6021D368A82A88234
:1020D000E824C9F582E43408F583E02274065CC381
:1020E00013FBEA9B228A82A882E824C6F582E434A4
:1020F00008F583E02274F6120487EAFEEBFFEE2473
:1021000030121F78FA9008B9F08A08EE2416F5828A
:10211000EF1221E7601A9008E3E06014EE24261223
:102120001F78F50974FF6A700474B18005E48002B9
:1021300074B49008A3F07A027B009008A1E0F91231
:1021400012401221DB800C1220E5C0E01221D0D019
:10215000E0F00A1220DC40EF7A00800C1220CCC0A4
:10216000E01221C5D0E0F00A74705CC430E3024490
:10217000F0FBEAC39B40E58E828F83A3A3E0F8A324
:10218000E0F99008A4E8F0A3E9F0EE2404FCEF34B1
:1021900000FD7AA67B0812120A7AA37B081210C0EF
:1021A0009008A3E07013E508900E03F0E509900E87
:1021B00004F0E49008E3F080099008E3E060031283
:1021C00021F1021A2DE824B2F582E43408F58322C5
:1021D000E824AFF582E43408F583229008C5E0FCDA
:1021E0009008AEF07A00223400F583E05406C31361
:1021F00022E4F07BFF7AFF7923120CB22274F512ED
:10220000048774019008BEF0740F9008D7F07C0624
:102210007D0079007ABF7B0812131874029008BF02
:10222000F074129008C5F074019008C6F09008C9C7
:10223000F09008D07410F0A3E4F09008D2744AF043
:10224000A37401F09008D87407F0A3E4F075085067
:1022500075090DF50A78081207F17A507B0D1212F4
:10226000DC8A088B0974012508FCE43509FD7ADA5B
:102270007B081222891208239008D47464F0A3E426
:10228000F09008D6F0022030FB121324740322745D
:10229000F5120487EAFEEBFF750A00850A08750946
:1022A0000074027808120967E508246CF8E509341F
:1022B00015F988828983A3A3E493FC740193FD88B4
:1022C000828983A3E493FA88828983E493F98E82D6
:1022D0008F83121338050AE50AC3940C40BD02200F
:1022E0003074F412048774FC1208887E00E49008AD
:1022F00013F0900810F07F2D750804750900780818
:102300001207F57402120A3EAC82AD837A007B009C
:10231000EF1228F8120823851882851983C082C01D
:1023200083900D3F7808120A04D083D08278081277
:1023300008B47019900810E06010F9120B9EEFF9C4
:10234000120B9EE4900810F08029EF80FA85188225
:10235000851983C082C083900CFA7808120A04D0D1
:1023600083D08278081208B47004EFFE8005EFF97C
:10237000120B9E0FEFC3942F50030222F890081007
:10238000E07026EE7018792D120B929008117404EB
:10239000F0A3E4F0900813E0601979008017F012C0
:1023A0000BA4EEF9120BB6800AEE6004F9120B983A
:1023B000120BA4790102259874F412048774FC129C
:1023C0000888E9FE900D3F7808120A048518828576
:1023D00019837808120A13851882851983AC82AD97
:1023E000837A007B00120BC2900813E07005EE9018
:1023F0000810F002259874F412048774FF120888FC
:1024000089087916120A48E96006900813E0600806
:102410007401900813F08039A908120A967E007F93
:1024200000750A01750B00780A1207F57402120A8A
:102430003EAC82AD83EEFAEFFBA9081228F9120830
:1024400023851882851983E064FF70C412249F409D
:10245000D0740102259A74F412048774FF1208885C
:1024600089087E007F00750A01750B00780A120743
:10247000F57402120A3EAC82AD83EEFAEFFBA908B6
:102480001228F9120823851882851983E064FF60F9
:1024900007A908120B98800512249F40C980B2EE4C
:1024A00024010EEF3400FFC394082274F412048751
:1024B00074FC1208887EFC7F077508047509007893
:1024C000081207F57402120A3E1228EC120823853E
:1024D0001882851983C082C083900D437808120A40
:1024E00004D083D08278081208B47011EE24FCFE68
:1024F000EF34FFFFC3EE9404EF940050BC122A980F
:10250000E8F0A3E9F002259874F412048774FC1231
:1025100008888909EAFEEBFF8C08EE24FCFEEF3404
:10252000FFFFC3EE9404EF94004069750A04750B35
:1025300000780A1207F57402120A3EAC82AD83EEEF
:10254000FAEFFBA9091228F91208237402120A3EB5
:10255000E0F8A3E0F985188285198385080AE0650B
:102560000A7002A3E0700AEEC398FAEF9400FB80B1
:1025700027748059FBE47001EB709F740428FAE41F
:1025800039FBC3EE9AEF9B4008EEC39812284080B7
:10259000901212947A007B0074041208237F0402C4
:1025A000060274EC12048774FC120888890AEAFE99
:1025B000EBFF8C0B7418120A3EE0F50EA3E0F50F4A
:1025C000741A120A3EE0F50CA3E0F50D8518828519
:1025D000198374FFF0A3F0A80E7480450FF97402FC
:1025E000120A3EE8F0A3E9F0E82EF508E50F3FF502
:1025F00009851882851983AC82AD83AA08FBA90AD4
:10260000120BC27402120A3E12268F7402780E1246
:102610000A22E50EF510900813E0704E750F007851
:102620000E1207F5AC0CAD0D8E0E8F0F7402780EE6
:10263000120A22850A12F513740978121209672505
:102640000EFAE513350FFB120A907402120823E507
:1026500010F50E780E1207F9AC0CAD0DEEFAEFFB8B
:10266000A90A120BBC7401120823850B0CE50C851A
:102670001882851983F0A3748012269585188285A7
:10268000198312268F74041208237F0C020602E0BD
:10269000F0A3E0547FF0851882851983AC82AD8366
:1026A000AA08AB09A90A120BC22274EA12048774A1
:1026B000F81208888910750DFF742D651070057566
:1026C0000C2E8003750C2D750A04750B00900811F3
:1026D000E024FCFEA3E08005EE24FCFEEF34FFFFC7
:1026E000C3EE9404EF9400500302281C900813E0FA
:1026F000600302283675080475090078081207F58A
:102700007402120A3EAC82AD83EEFAEFFBA91012FE
:1027100028F9120823851882851983E064FF700464
:10272000A3E064FF70357402120A3EE0F8A3E0F9FA
:10273000748059FBE47001EB709E740428F8E4394E
:10274000F9C3EE98EF99400D7402120A3E12284C1C
:10275000122840808A121294022836851882851920
:1027600083A3E05480F9E47001E970DC8518828568
:102770001983850D08E065087002A3E060CA85181A
:1027800082851983E0F50DFCAA0AAB0BA90C120B8C
:10279000AAEA7001EB70B17402120A3E12284CF5DD
:1027A00008EF99F50988148915750E00750F0075E5
:1027B000120475130078121207F57406120A3EAC63
:1027C00082AD83E50E2508FAE50F35091228F312CC
:1027D00008237404120A3EAC82AD83E50E250AFA82
:1027E000E50F350BFBA90C120BC2E50E2404F50E08
:1027F000E50F3400F50FC3E514950EE515950F5060
:10280000AE7402120A3EE02404F8A3E03400F9E5B5
:102810000A28F50AE50B39F50B022748A90C120B1B
:1028200092900813E0700A900811E50AF0A3E50BF6
:10283000F0A910120B9874081208237F0E020602EA
:10284000F8EF99F974FC28FE74FF3922E0F8A3E050
:10285000F9EEC3982274F012048774FC1208888978
:102860000FEAFEEBFF8C0A8D0B7414120A3EE0F5A2
:10287000098014EE2404FEEF3400FFE50A2404F579
:102880000AE50B3400F50B85090874FF2508F509E6
:10289000E508604E750C04750D00780C1207F57490
:1028A00002120A3EAC82AD83EEFAEFFBA90F1228AA
:1028B000F9120823850A0C850B0D750E00780C1291
:1028C00007F17C047D007403120A3EA982AA837B6F
:1028D0000012131E7403120823E970977401900804
:1028E00013F074041208237F08020602AC82AD8341
:1028F000EEFAEFFB900810E0F9120A8A74022274D3
:10290000F1120487890E8A088B09ECFEEDFF90080E
:1029100013E0704B750A01750B00780A1207F58AEF
:102920000A8B0B7402780A120A22890CF50D7409BD
:10293000780C120967250AFAE50D350BFB120A908F
:102940007402120823750A01780A1207F9EEFCEFE7
:10295000FDAA08AB09A90E120BBC74011208237F53
:1029600007020602C082C083120B8CE970031212A8
:1029700094D083D0820207B974F012048774FB12DA
:10298000088889098A088C0A8D0BAC09122AD98A11
:102990000C8B0DAE0CAF0DEE7001EF6050750E009C
:1029A000803B750C01750D00780C1207F57402124E
:1029B0000A3E1228EC120823851882851983E0FA52
:1029C000850E0CE50A250CF582E50B3400F583E055
:1029D0006A701AEE24010EEF3400FF050EE50EC3F7
:1029E000950840BEE508650E7003022A9185080C23
:1029F0007403250CF8E43400F97A047B0012032BED
:102A0000880C890D7402780C120967AE0CAF0D901A
:102A10000811E02EF8A3E03FF9740428F8E439F92E
:102A2000C3E89401E994084039900CFA780C120A32
:102A3000047401120A3EE50CF0A3E50DF0A3E50EC7
:102A4000F0A3E50FF07401120A3EAC82AD837A0068
:102A50007B00900810E0F9120BC2900810E0F91208
:102A60000BB6780A1207F58E0A8F0B780A1207F553
:102A7000AC09122AE0120BB0740412082390081358
:102A8000E06004790A800C122A98E028F0A3E0396B
:102A9000F0790074050228E474042EF8E43FF990FC
:102AA00008112274F4120487890A8A0BECFEEDFFE8
:102AB000AC0A122AD9EA7001EB6019850B08750976
:102AC0000078081207F5EEFCEFFD1228F412082337
:102AD00079008002790A02259D122AE0120BAA22AF
:102AE000900811E0FAA3E0FB900810E0F92274E8E6
:102AF00012048774ED120888E9851882851983F01D
:102B00007401120A3EECF0A3EDF0742B120A3E128F
:102B10002FB4742D120A3EE0F516A3E0F517742FBA
:102B2000120A3EE0FEA3E0FF851882851983E0705B
:102B300003022E0B7403120A3E7401F0EE7001EFD3
:102B400060037441F0851882851983E024FE3333D5
:102B500054FCFC7403120A3EE04C1231A51207F13A
:102B60007C0D7D007407120A3EAA82AB83122FCA25
:102B70001208237411120A3EE511F07412120A3E73
:102B8000E510F07C107D0079007433120A3E122F9C
:102B9000BC121318750820750900C3EE940FEF944A
:102BA00000402D74F22EF874FF3FF974F058F87459
:102BB0002028F508E439F509EE24F2540F60047872
:102BC0001080027800E50828F508E5093400F509C9
:102BD000E510540FF50F60047A1080027A0074F04B
:102BE0005510F874FF5511F9EA28F8E439F9E508A9
:102BF00028F508E50939F509AA08FB1212828A149A
:102C00008B15EA7001EB70057910022E0D7403121A
:102C10000A3EA982AA83890C8A0D750E00780C12CF
:102C200007F17C107D00AA14122FCA120823E514A4
:102C30002410F50AE5153400F50BEF850A82850BA3
:102C400083F0A3EEF0A385820A85830B85160C859D
:102C5000170DC3940FEF9400400B780C1207F17C12
:102C60000E7D0080167C0E7D007900AA0AAB0B1247
:102C70001318780C1207F1EEFCEFFD122FC61208A4
:102C800023E50A240EF50AE50B3400F50BC3EE9498
:102C90000FEF94005003022D1AEE24F2FEEF34FFE2
:102CA000FF8E128F1374047812120A2285120C857B
:102CB000130DEE540FFE7404780C120967850C1284
:102CC0008F13E516240EF50CE5173400F50D780C7E
:102CD0001207F1AC12AD13122FC6120823E50A2514
:102CE00012F50AE50B3513F50BEE602E7C107D0016
:102CF0007900AA0AAB0B121318E5162512F8E5178E
:102D00003513F9740E28F50CE439F50D780C12071B
:102D1000F1122FC2120823122FA174047810120A84
:102D20002285100C85110DAE0F7404780C12096702
:102D3000850C10850D117401120A3E122FAE120778
:102D4000F1AC10AD11122FC6120823E50A2510F5BB
:102D50000AE50B3511F50BEE602B7C107D00790038
:102D6000AA0AAB0B1213187401120A3EE02510F5E3
:102D70000CA3E03511F50D780C1207F1122FC212D9
:102D80000823122FA1E50AC39514F8E50B9515F950
:102D9000E865087003E96509600312129412319422
:102DA00043B350E5B37433120A3E122FBC122F9472
:102DB00085140A85150B74047808120A2274FF25FD
:102DC00008F50C74FF3509F50D800AAA0AAB0B1241
:102DD000122E122FA1A80CA90D74FF28F50C74FF58
:102DE00039F50DE87001E970E212319485B3B37AD8
:102DF0000FEA1A70FCAC0AAD0B7433120A3E122FA4
:102E0000BC121228AA14AB1512127C79007413128A
:102E100008237F1002060274E912048774DE120888
:102E200088851882851983ECF0A3EDF0EAFEEBFFAC
:102E30007439120A3EE0F508A3E0F509743D120A60
:102E40003E122FB485100CF50D750E00780C12078C
:102E5000F1E9FC7D007415120A3EAA82AB83122FA1
:102E6000CA1208237402120A3E7401F08E0C8F0DF0
:102E7000780C1207F17C0D7D007406120A3EAA82BE
:102E8000AB83122FCA1208237411120A3EE4F074A5
:102E900010120A3EE4F085080A85090B7404780ACA
:102EA000120A22AE0AAF0BE508540FF50F6008EEC8
:102EB00024010EEF3400FF8E0A8F0B7404780A127F
:102EC0000967AA0AAB0B1212828A0A8B0BEA7001FD
:102ED000EB70057910022F8A851882851983122FCD
:102EE000AE1207F1AC08AD09122FCA120823E50F84
:102EF000601BF50C7410C3950CFCE49400FD790084
:102F0000E50A2508FAE50B3509FB12131812318B77
:102F1000120A3E123181120A3EAC82AD83AA10AB76
:102F20001112122212319A120A3E7401F074021226
:102F30000A3EAA82AB83122F94850A0C850B0D8062
:102F40000EAC0AAD0BAA0AAB0B121222122FA1EE85
:102F5000F8EFF974FF281E74FF39FFE87001E9707B
:102F6000E0850C14850D1575160078141207F1AC68
:102F700008AD097403120A3E122FBC122FCA1208A0
:102F800023AA0CAB0D12127C790074221208237F45
:102F90000F020602122F982212121C53B3F8E5B347
:102FA00022E50A2410F50AE50B3400F50B22123154
:102FB00079780C22E0F510A3E0F51122E0FAA3E005
:102FC000FB22EEFC7D00AA0AAB0B12132474032231
:102FD00074E912048774DE120888890F8C128D132D
:102FE0007439120A3EE0FE7402120A3E7401123174
:102FF000A51207F17C0D7D007406120A3EAA82AB71
:1030000083122FCA1208237411120A3EE4F07410BE
:10301000120A3EE4F0EEC3950FF50AC4540FFE7F8A
:1030200000740F550A60010E7C107D007900741247
:10303000120A3EAA82AB83121318850A08E51225EC
:1030400008F8E5133400F9851882851983E8F0A3A0
:10305000E9F0850F828582108518828519831231E7
:10306000798F0E780C1207F1AC107D007415120ADE
:103070003EAA82AB83122FCA12082312318B120A86
:103080003E123181120A3EAC82AD83743D120A3E7B
:10309000122FBC1212228E088F09740478081209AC
:1030A0006785080C85090DAA0CAB0D1212828A14D3
:1030B0008B158A088B09EA7001EB700579100231D3
:1030C00076AC0CAD0D790012131885120C85130D1A
:1030D000780C1207F1AC0A7D00AA08AB09122FCABE
:1030E00012082312319A120A3E7401F07402120A75
:1030F0003EAA82AB8312121C74F855B34402F5B396
:1031000085080C85090D8017AC08AD09AA08AB0924
:10311000121222E5082410F508E5093400F509EE3D
:10312000F8EFF974FF281E74FF39FFE87001E970A9
:10313000D775160078141207F1AC0A7D00AA12ABFD
:1031400013122FCA120823AA0CAB0D12127C743D65
:10315000120A3EE0F508A3E0F509750A00780812A6
:1031600007F1AC107D007403120A3E122FBC122F1F
:10317000CA1208237900022F8AE0F50CA3E0F50DAE
:1031800022AA82AB83122F9874122212319443B375
:103190002074022253B38FE5B32212319443B3302B
:1031A000E5B3741122F08A088B09750A00780822A9
:1031B00074EE1204878908ECFEEDFF7412120A3EC9
:1031C000E0F87414120A3E122FB47416120A3EE08C
:1031D000F50EA3E0F50F7418120A3E123179741A35
:1031E000120A3EE0F50AA3E0F50BE9700779007FCB
:1031F0000A020602E8C39508F509780A1207F5786D
:103200000C1207F5780E1207F578101207F58509EC
:103210000C750D00780C1207F5120A4E740A12088C
:1032200023E970CB7A0080010AEAC3950850C0AC4C
:103230000974012CF5098A0CE50A250CF582E50BC9
:103240003400F583E0FB8C0CEE250CF582EF3400A6
:10325000F583E06B60D27901809574F7120487746E
:10326000E3120888E9900800F07401900803F0FA6E
:1032700012126A7401851882851983F0120A3E744D
:1032800004F07402120A3EE4F07403120A3E743031
:10329000F0A3E4F0740A120A3E7480F0A3E4F07420
:1032A00012120A3E7480F0A3E4F07405120A3E7410
:1032B00006F07416120A3E7401F0741B120A3E7472
:1032C0005CF0A3740BF0851882851983AA82AB8306
:1032D0007900120B20741D1208237F01020602746C
:1032E000F01204878A0A8B0B7480550BF9E4700185
:1032F000E9706F7440550BF9E47001E97003023313
:10330000AC120B68AA0A7440650BFB0233C274202E
:103310006A7048E0541FF07980120B6E8A0E8B0F92
:10332000A80EA90FE8FEE9FFE87001E9602D750E0F
:1033300000780C1207F17C807D00121324740312B4
:103340000823EEFAEFFB120C948E828F83A3E054D5
:103350001F4460F0EEFAEFFB120B62AA08AB0912F1
:10336000130C900800E0F91213008A088B09EA7028
:1033700001EB60318A828B83E0640170DEA3A3E0FD
:10338000F50CA3E0F50D850C82F583A3E054E0FA7B
:1033900074406A600302330EE0541FF0AA0CAB0DB8
:1033A000120C9A80B6AA0A74800233087420550B56
:1033B000F9E47001E960077420650BFB80047A0072
:1033C0007B007F0802060274F11204878A088B09C9
:1033D0008A828B83E0F9120B6E8A0A8B0BA80AA9EA
:1033E0000BE8FEE9FFE87001E96055850882850970
:1033F00083E08E828F8312344BE0541F44408E82D0
:103400008F83123445E08E828F83A3123445A3A9A3
:1034100082AA83890C8A0D750E00780C1207F1853B
:103420000882850983E0FC7D00EE2403FAEF340076
:10343000FB1213247403120823EEFAEFFB120B6243
:103440007F07020602A312344BA322F0850882856F
:103450000983A32274F7120487EA1206E10101022C
:103460006B3402046B341070347334120B748003A9
:10347000120B680232DA74F6120487EAFEEBFF8E52
:10348000828F83E02403F508900803E0D2E1F07A0C
:10349000011235B4A908EEFAEFFB120B7AEE2508FB
:1034A000F582EF3400F583E9F0EE24FF1EEF34FFE0
:1034B000FF74FE8E828F83F0EEFCEFFD7A017B08B5
:1034C0001212FA7A007B40900800E0F91212E20230
:1034D00035E974F6120487900806E07002A3E060F4
:1034E000030235737A017B081212F48A088B09A84B
:1034F00008A909900806E8F0A3E9F0900808E8F0A8
:10350000A3E9F0E87001E9606AE0F5838882E07081
:10351000489008047401F0A3E4F0900804E0FCA3D0
:10352000E0FD9008081237BE7900120B2C8A088B38
:1035300009AC08AD09900804C3E09CF0A3E09DF03D
:10354000900804E07002A3E070469008061237DA93
:10355000900806E4F0A3F080579008091237E8E0DD
:10356000F8740528F8E43400F9900804E8F0A3E9B9
:10357000F0800A900806E07002A3E060269008043C
:10358000C3E09481A3E0940040907C807D00809211
:10359000900808E02CF8A3E03DF9900808E8F0A3B3
:1035A000E980B3900803E0C2E1F0E070031235B2A5
:1035B00080377A00900800E0F912126A2274F6123D
:1035C0000487E9FE8E0874052508FAE43400FB122E
:1035D00013128A828B83E5827002E5836007A3AAB7
:1035E00082AB8380047A007B007F0202060274F6BD
:1035F00012048774FF120888E9FE803590080E12C5
:1036000037C47401F01237CD90080EE02404FAA3F9
:10361000E03400FB88828983EAF0A3EB1237FEC016
:10362000E0888289831237C4D0E0F0740190080AE0
:10363000F0EEF9120B38EA7001EB607D7C017D0041
:10364000851882851983AA82AB83EEF9120B2612A4
:1036500037CDE8FAE9FB90080AE012067E00053152
:10366000366D36C136D5367C36F1367837851882D8
:10367000851983E064FE70B9740380B18518828572
:103680001983E064FE60AAE090080BF0E490080D56
:103690001237FEF8740728FAE43400FB1213129074
:1036A000080EEAF0A3EBF090080EE07002A3E060D1
:1036B000030235FCE490080AF07401120823023575
:1036C000E9851882851983E0C0E01237E1D0E0F087
:1036D000740202362D851882851983E0C0E0123706
:1036E000E1A3D0E01237FE70030237737404023690
:1036F0002D851882851983E0C0E090080DE0F88AD6
:10370000828B831237EFD0E0F090080DE004F0EEEA
:10371000F9120B38EAFF90080DE0F890080EE0FA75
:10372000A3E0F5838A82A3A31237EFAA82AB83902A
:10373000080BE0C398FCE49400FD8F08C3EC9508E7
:10374000ED9400A2D265D0334010AC087D00EEF9B4
:10375000120B2690080DE02F800CEEF9120B26902C
:10376000080BE090080DF0E0FA90080BE06A6003A7
:10377000023631740502362D851882851983E09052
:10378000080C1237FE2403F98A828B831237BE128B
:103790000B7AE9FA90080CE06A90080E700D123767
:1037A000BE900800E0F9121306800F1237DA7A0093
:1037B0007B20900800E0F91212E2E402362DE0FAD4
:1037C000A3E0FB22E0F8A3E0F58388822290080EB4
:1037D000E02402F8A3E03400F9221237BE12130CE1
:1037E000228A828B83E0F8A3E0F5838882A322E01B
:1037F00028FAA3E034008A82F583A3A3A322F090E1
:10380000080BE02274F7120487E9FD79007C008040
:103810000E8A828B83E0C969F90CA3AA82AB83EC80
:10382000C39D40ED0232DAC082C083900803E0C23B
:10383000E0F0E070031235B25386BFE5A8C2AF5383
:10384000FDFB43FD0853F3FB438F04438C0143AB63
:1038500004D2BD7589F0C2C5A2E792AFD083D082F1
:103860000207B974F6120487740555867011790041
:10387000120B38EA7001EB7006900803E0600479DF
:1038800001800279000235E9C082C083121216D08D
:1038900083D0820207B974F5120487EAFEEBFF7445
:1038A0000B120A3E123AE7A3E0A908AA09FB8E828E
:1038B0008F83800D12083DF0E9240109EA3400FAF3
:1038C000A3ECFEEDFF74FF2E1C74FF3FFDEE7001B4
:1038D000EF70E1AA82AB837F0302060274ED12044B
:1038E000877413120A3EE0F510A3E0F511A3E0F58A
:1038F0001289088A098B0A85100C85110DECF8EDE8
:10390000F974FF281C74FF39FDE87001E96036A9DD
:1039100008AA09AB0AE92401F508EA3400F509858B
:103920000C10850D11E50C2401F50CE50D3400F5A6
:103930000D12083DFEA910AA11AB1212083D6E60CF
:10394000BC7900800279017F0B02060274F6120432
:1039500087E9FE8C088D0978081207F5EEFC7D00DA
:103960001212107402120823023BA1A2E092AF7F50
:103970000102060274F6120487EAFEEBFFEE700104
:10398000EF70067A007B00803E74052EFAE43FFB60
:103990001212828A088B09A808A909E87001E96057
:1039A000E288828983E4F0A3F088828983A3A3EE6E
:1039B000F0A3EFF074FF88828983A3A3A3A3F0E8A8
:1039C0002405FAE93400FB023BA1C082C083EA70FF
:1039D00001EB700479058016123A42600479048084
:1039E0000DEA24FBFAEB34FFFB12127C790002385B
:1039F0008F74F7120487E9FEEA7001EB7004790511
:103A0000803D900D3EE0FCE9C39C400712130C7909
:103A100003802C123C14E07002A3E07005123A42BD
:103A2000600512130C80D7EEF0EAFCEBFD7A817B87
:103A3000011212FA7A007B80EEF91212E27900028A
:103A4000396FEA24FFF582EB34FFF583E064FF224F
:103A500074F2120487890B750C00750D007E007FCF
:103A600000A2AFE492E0F50AC2AF9001818017EEA8
:103A70007001EF700685080C85090DE50824FBF53B
:103A800082E509123C1A123AE7E5087002E509607E
:103A900025E50824FFF582E509123C1AE0650B7064
:103AA000CEEE7001EF7006AE08AF0980CE7A007BD3
:103AB000801212E2800D7A007B801212D0EE70012B
:103AC000EF6015780C1207F5EEFCEFFD7A817B01B3
:103AD0001212EE7402120823E50AA2E092AFEEFA87
:103AE000EFFB7F06020602E0F508A3E0F50922E0FD
:103AF000FAA3E0FB2274F7120487A2AFE492E0FE7F
:103B0000C2AFEC24FBF582ED123C1AE4F0A3F012F4
:103B10003B447001E970098A828B838010123C1F3C
:103B2000123B367002A3E08882898370F0ECF0A328
:103B3000EDF0EE02396BE824FBF8E934FFF98882F6
:103B40008983E0228A828B83E0F8A3E0F9E822747B
:103B5000F6120487EAFCEBFD7A007B00A2AFE49248
:103B6000E0F508C2AF8C828D83123B487001E9609A
:103B70002AE8FAE9FBEA24FBF8EB123B3BFEA3E060
:103B8000FF8C828D83EEF0A3EFF088828983E4F0CE
:103B9000A3F0EA24FF123C1774FFF0E508A2E092BC
:103BA000AF7F0202060274F5120487740B120A3EFC
:103BB000123C1FA2AFE492E0F50AC2AFEC24FBFE78
:103BC000ED34FFFF8A828B83123AE7EC65087003BD
:103BD000ED65098E828F83700D123C1F8A828B8364
:103BE000E8F0A3E98010123AEFE824FBF582E9122D
:103BF0003C1AEAF0A3EBF08E828F83E4F0A3F0ECA2
:103C000024FFF582ED123C1A74FFF0E50AA2E0925F
:103C1000AF0238D7EA24FBF582EB34FFF58322E0CC
:103C2000F8A3E0F92274F6120487E9FE750800A2F1
:103C3000AFE492E0FFC2AF123B447001E970108A1A
:103C4000828B83801BEE602088828983123C1F1E3A
:103C5000123B367002A3E070ECEE600C8882898320
:103C6000ECF0A3EDF0750801EFA2E092AFA9080215
:103C70003BA174F7120487E9FD900D3EE0FCE9C317
:103C80009C5029E5A8FEC2AFEDC333F8E433F990A8
:103C900007FEE028FCA3E0398C82F583E04AF0A31C
:103CA000E04BF0EEA2E792AF79008002790302398F
:103CB0006F74F7120487E9FE900D3EE0FCE9C39CA7
:103CC000501EE5A8FFC2AFEAF4FCEBF4FDEE123D96
:103CD000DF5CF0A3E05DF0EFA2E792AF7900800235
:103CE000790302396FE9FA74FF6A7006D2AF79007E
:103CF000800279070207B9E9FA74FF6A7006C2AF59
:103D00007900800279070207B9C082C08312128E3F
:103D1000900181E4F0A3F012125E121276120B3EB3
:103D2000121288790002388F74F412048775080023
:103D3000751A011212AC120A7EE508123DDF7002FC
:103D4000A3E0700D0508900D3EE0FAE508C39A4027
:103D5000E8900D3EE0FAE508C39A505BE5A8FCC286
:103D6000AFE508C333FEE433FF9007FEE02EF8A36F
:103D7000E03FF988828983123AEF88828983E4F0F0
:103D8000A3F0ECA2E792AFA908EE2432F582EF345B
:103D90000DF583123DD6121338E5A8FDC2AF90078A
:103DA000FEE02EFCA3E03F8C82F583E04AF0A3E026
:103DB0004BF0EDA2E792AFA2AF4003121294900D28
:103DC0003EE065086003023D2DE51A7003023D2DBB
:103DD000121264023D2DE0F8A3E0F583888222C32D
:103DE00033F8E433F99007FEE028FAA3E0398A8239
:103DF000F583E022C082C08353FF3FE5FF85FFFFCC
:103E000053F1FE43F30CE5F353F2F3E5F2758680CC
:103E100075C48074709005C1F074C19005C2F090B3
:103E200005C3E0541FF0740F9005C5F0744A900567
:103E3000C6F074709005B7F074C19005B8F09005A5
:103E4000BBE0541FF074CE9005BDF09005BEE05469
:103E50000F4410F074059005B9F074EF9005BAF0B6
:103E600074809005BCF0E49005BBF074129005BE20
:103E70000242F0C082C083EA241BF582EB3400F5D5
:103E800083E0F8A3E0F99007FBE8F0A3E9F08A8269
:103E90008B83A3E0FC74036C600574046C7005757F
:103EA000C2D8800375C23BE012067E0003D33EB742
:103EB0003EBE3EC53ECC3E75C5087423801A75C50E
:103EC000097412801375C50A7409800C75C50A74CB
:103ED00006800575C50B74039007F7F08A828B8303
:103EE000A3A3E0600D75C44243F310C28543FD20D7
:103EF000800375C4029070C1E09005EFF0A3E4F078
:103F000075D1F775D608FC7D0174FF65C2F97AEFAB
:103F10007B05121318438640E49007FAF09007F9E6
:103F20000242F074F61204877800790080338A82A6
:103F30008B83E508F0A3AA82AB8385C20874FF6572
:103F400008F509123F7FE4F0A3E509F09006EFE0E1
:103F500004F0C394804002E4F0E8240108E934004E
:103F6000F9C3E89CE99D500C123F7FE0F508A3E0FF
:103F700065C260BAC285E8FAE9FB7F0202060290D8
:103F800006EFE0C333FEE433FFEE24EFF582EF34B7
:103F900005F5832274F0120487EAFEEBFF12422C2F
:103FA0002CF8E43DF9C3E89481E9940040077A00D5
:103FB0007B00024054E5A8FAC2AF9007F512407AA0
:103FC000EAA2E792AF7A007B00801A124059C0E063
:103FD00085080A750B007407780A12096712406396
:103FE000D0E0124089C3EA9CEB9D40DFA2AFE4928F
:103FF000E0F508C2AF9007F5E0650F6039E508A26B
:10400000E092AF12407A7A007B00801A124059C0C9
:10401000E085080A750B007407780A1209671240D8
:1040200063D0E0124089C3EA9CEB9D40DFA2AFE47D
:1040300092E0F508C2AF850F82A882E81242D0E56F
:104040000EF01242CDE0700674019007FAF0E50818
:10405000A2E092AF7F08020602EE2AF582EF3BF55E
:1040600083E022850E0CE50C24F3F8E43406F9E530
:104070000A28F582E50B39F58322E0F50FF58285F4
:1040800082081242D4E0F50E22F0050EEA24010A5D
:10409000EB3400FB2274F61204877E009006EFE0FA
:1040A000FA12428960030241328A82AC82ECF879CA
:1040B00000E8FAE9FBEAC333FAEB33FBEA24EFF555
:1040C00082EB124295701012427940047800790018
:1040D000EC687001E970DA9006F1E0FC9006F0E01F
:1040E000FAE86A7001E9600FE8F0EC7006E5959077
:1040F00006F2F074C68020EC60219006F2E0FAE54A
:1041000095C39AFAC39C500E9006F1E0C39AF0E56D
:10411000959006F28004E49006F1F0120B0E8A08E6
:104120008B09A808A909C3E89470E99400400A0E15
:104130008024E49006F1F0801DC3E89430E99400F7
:1041400040060E0ED285800EE87001E960089006E8
:10415000F1E070027E049007F6E06006E4F0EED233
:10416000E4FE9007F9E0601DE595FB9007F7E0C0DD
:10417000E09007F8E0FAEBC39AFAD0E0C39A500552
:10418000E49007F9F09007FAE060589007F9E070C2
:1041900052E49007FA124230120967E50824F3E569
:1041A0000934069005BF124230120967E50824F36E
:1041B0009005C01242E29005C4F09005C3E054E0BF
:1041C000F09007F5E0E06401F0A2AFE492E0FAC2FB
:1041D000AF75D61000E5D6A2E450F975D1EF75D7CA
:1041E000108023A2AFE492E0FAC2AF12422C601614
:1041F000E5D6A2E44010E5D1A2E4400AEAA2E092AA
:10420000AF120B148005EAA2E092AFEE601B90079C
:10421000FBE0F8A3E0F988828983E5827002E583F8
:104220006007EEFA7900121338023F7A1242E72251
:10423000F09007F5E0F5087509007407780822C0CA
:1042400082C0837A007B009006EFE01242897027DB
:1042500078007900E8FCE9FDECC333FCED33FDECBC
:1042600024EFF582ED1242957008EA24010AEB343E
:1042700000FB12427940DD8078E8240108E934002F
:10428000F9C3E89480E9940022C333F8E433F9E8F1
:1042900024EFF582E93405F583A3E065C222C082EC
:1042A000C08375D1EF9007F5E0F81242CDE4F074C9
:1042B000019007F6F0E5959007F8F074019007F982
:1042C0001242E2600674019007FAF08024740168DB
:1042D0001242D4221242D82224F3F582E43407F5A4
:1042E0008322F01242E7229007F5E01242D8E02242
:1042F000F0D083D0820207B9C082C083120AF08056
:10430000F074F7120487E97003120AF6790080242A
:1043100074F7120487E97005120AFC80047A007BA6
:1043200000801174F7120487E97005120B028004F3
:104330007A007B007F01020602C082C083120B0854
:1043400080AF74F7120487E97005120B0E80047AAF
:10435000007B0080DFC082C08374019008E8F0D049
:1043600083D0820207B974F6120487EAFEEBFF8E4F
:10437000828F83A3E0FA740A6A6003024401EE2488
:1043800004F8EF3400F9EE2403FAEF3400FB8A0856
:104390008B098E828F83A3A3E01206E1000301A99B
:1043A0004302C74312E443114488828983E0048EA8
:1043B000828F83F0E8FCE9124416120BF8E98508B5
:1043C00082850983F0804AEE2405FCEF3400124414
:1043D00016120BFEE9850882850983F074018E822E
:1043E0008F8380E08A828B83E0F9120C82850882B9
:1043F000850983EAF0A3EBF074028E828F83F0804C
:1044000010740B6A700BEEFA120BE6E960031245AA
:10441000997F02020602FD88828983E0FA8508827C
:104420008B83E0F92274F6120487EAFEEBFF8E829A
:104430008F83A3E0FA740A6A60030245878E828F35
:1044400083A3A3E012067E031096456D448844AA18
:10445000440A4527453D4554455C45794599441AEC
:10446000459645964596456645964561459008E8CA
:10447000E0640270077A007B00120C52740190080D
:10448000E8F0120C0A0245969008E8E06401600327
:10449000024596120C100245969008E8E06401600F
:1044A00003024596120C160245969008E8E0640156
:1044B0006003024596EE2409F508EF3400F509780B
:1044C000081207F58E828F83A3A3A3A3A3A3A3A39C
:1044D000E0F50878081207F98E828F83A3A3A3A3BF
:1044E000A3A3A3E0FB8E828F83A3A3A3A3A3E0FCDB
:1044F0008E828F83A3A3A3A3A3A3E0FD1245A712DB
:104500000C2E74031208230245969008E8E064011B
:104510006003024596120C1C807C9008E8E0640160
:104520007074120C22806F9008E8E0640170678E4E
:10453000828F83A3A3A3E0F9120C3480599008E87A
:10454000E0640170518E828F831245B2A3E0FB12AA
:104550000C3A8042120B80120C40803A120C4680BA
:1045600035120C7680308E828F83A3A3A3A3A3E0A1
:10457000FB1245A7120C7C801D8E828F83A3A3A300
:10458000E0F9120C28800F740B6A700A124599EE3C
:10459000FAEFFB120BE002441174029008E8F07A83
:1045A000DA7B0B120C52228E828F83A31245B2E06B
:1045B000F922A3A3A3E0FA8E828F83A3A3A322747C
:1045C000F7120487747D1208887401120A3E740A77
:1045D000F07402120A3E7401F00247AC74F7120440
:1045E00087747D1208887401120A3E740AF07402FE
:1045F000120A3E740202467D74F7120487747D121B
:1046000008887401120A3E740AF07402120A3E7499
:104610000C0247A974F7120487747D12088874018C
:10462000120A3E740AF07402120A3E7404804E7438
:10463000F7120487747D1208887401120A3E740A06
:10464000F07402120A3E740AF07402851882851909
:1046500083F07403120A3EE9F07404120A3EEA8001
:104660003874F7120487747D1208887401120A3EA8
:10467000740AF07402120A3E740B0247A9F0740324
:10468000851882851983F0120A3EE9F07404120A33
:104690003EEAF07405120A3EEBF085188285198314
:1046A000AA82AB83120B5674831208237F01020681
:1046B0000274F7120487747D1208887401120A3E8E
:1046C000740AF07402120A3E74030247A974F112CC
:1046D0000487747D120888EAFF8B087492120A3EE0
:1046E000E0FB7493120A3EE0FA7494120A3EE0F57D
:1046F0000CA3E0F50D7401120A3E740AF074021264
:104700000A3E7405F074072A851882851983F074AF
:1047100003120A3EE9F07404120A3EEFF074051227
:104720000A3EECF07406120A3EEDF07407120A3EDF
:10473000E508F07408120A3EEBF07409120A3EEA2A
:10474000F0750E00780C1207F1EAFC7D00740D1272
:104750000A3EAA82AB83121324740312082385181D
:1047600082851983AA82AB83120B567483120823A5
:104770007F0702060274F7120487747D120888749A
:1047800001120A3E740AF07402120A3E740680197D
:1047900074F7120487747D1208887401120A3E743B
:1047A0000AF07402120A3E7407F0740185188285BB
:1047B0001983F07403120A3EE902469974F7120451
:1047C00087747D1208887401120A3E740AF074021C
:1047D000120A3E740880D274F7120487747D12089E
:1047E000887401120A3E740AF07402120A3E7409B7
:1047F00080B774F1120487EAFEEBFF740C90081581
:10480000124AA364016003024893EE2405F508EF01
:104810003400F509850882F583E0FA8A0A740725D1
:104820000AF8E43400F9E89481E99400400302486E
:10483000F874072A124AA0900816F08E828F83A37C
:10484000A982AA83890C8A0D750E00780C1207F1D3
:104850007C077D007A177B08124AAA1208238E82F1
:104860008F83A3A3A3A3A3A3A3A3E0F50CA3E0F5C5
:104870000D780C1207F1850882850983E0FC7D0024
:104880007A1E7B08124AAA1208237A147B08120B9C
:10489000568065750B00E50BC333F8E433F9E82463
:1048A00070F8E93416F988828983E493FA8E828F4E
:1048B00083E06A703A88828983A3E493FAC394817F
:1048C000502DEA900814F08E088F09750A007808B8
:1048D0001207F18A0874012508FCE43400FD7A16F9
:1048E0007B08124AAA1208237A147B08120B560579
:1048F0000BE50BC3940C409E7F0702060274F11275
:1049000004878A088B09EA2402F8EB3400F9740C56
:10491000900815F0E82402FAE93400FB8A0A8B0BB0
:1049200088828983A3AE82AF8388828983E012065E
:104930007E010E9D4A5349AD49B749C749114A1BEB
:104940004A244A3C4A504A764A7B4A864A914A9AC5
:104950004AC1498E0C8F0D750E00780C1207F17C40
:10496000067D007A977B08124AAA1208237A977B61
:1049700008121030E96003024A9DE5082409F50891
:10498000E5093400F509750A0078081207F1900866
:104990009BE0FC7D0090089FE0FAA3E0FB124AAA8E
:1049A0001208237A977B08121036024A9DEEFAEF1E
:1049B000FB12106C024A9DEEFAEFFB12109C024AA9
:1049C0009D121072024A9D8E828F83E0F91211149B
:1049D000E9FA7407900816F074042A900814124A31
:1049E000B0F0EA90081AF060187C1B7D08850A82F6
:1049F000850B83E0FA8E828F83E0F912110EE98035
:104A00000274F4900817F07A147B08120B56024ACD
:104A10009DEEFAEFFB1210AE024A9DEEFAEFFB128A
:104A200010C080798E828F83E0F9121120740A9071
:104A30000816F07401900814F0E480C7740B900815
:104A400016F07401124AA0FAA3E0FB12118C80AE9A
:104A50007403900814F0740C900816F0E82404FC19
:104A6000E9124C3A8E828F83E0F9121126E9900800
:104A700017124AB080901210D880228E828F83E065
:104A8000F91210F080178E828F83E0F91210FC80EB
:104A90000CEEFAEFFB121048800312104E0248F899
:104AA000900814F08E828F83E02212132474032264
:104AB000F08E828F83E0900818F0850A82850B8340
:104AC000E09008192274EB1204878A088B09EA2403
:104AD00002F50AEB3400F50BA80AF9751400EA2474
:104AE00003F512EB3400F5138A828B83A3858210C1
:104AF000858311E82402F50EE93400F50F888289D8
:104B000083A3AE82AF83EA2403F50CEB3400F50DEA
:104B100088828983E012067E0405334C284B334C8F
:104B2000334C9E4BC24BF14B8E828F83E0F91211B6
:104B300014E9FC850E82850F83E0FD850C82850DCE
:104B400083A3A882A9838E828F83E088828983F0E1
:104B5000E50C2402FAE50D3400FBED8A828B83F02C
:104B6000EC850C82850D83A3A3A3F074042C124C56
:104B7000447407850A82850B83F0EC601DE50C24E4
:104B800004FCE50D124C3A88828983E0F912110E7B
:104B9000E9850C82850D83024C3274F480F38E8299
:104BA0008F83E0F91211207401124C44740A850AB3
:104BB00082850B83F0E4851282851383F0751401DE
:104BC00080718E828F83E0F8A3E0F9880C890D74E0
:104BD000018A828B83124C4A740B850A82850B836F
:104BE000F0AA0CAB0D12118CE9851282851383801B
:104BF000418E828F83E0FE850E82850F83E0FFE881
:104C00002404FCE93400FDEFFAEEF9121126E9FA6A
:104C10007403124C44740C850A82850B83F0EA8578
:104C20000C82850D83F0EEA3F0EF850C82850D8359
:104C3000A3A3F0A9147F0D0206023400FD8A828B23
:104C400083E0FA22850882850983F0746C851082DE
:104C5000851183F02274F4120487900CFA780812FC
:104C60000A0490059A7808120A13024DCC74F212C5
:104C700004878908EAFEEBFF8C0A8D0B121252EAB8
:104C80007001EB600F8A828B83A3A3E50AF0A3E592
:104C90000BF080727A097B00121282EA7001EB60DD
:104CA000618A828B83A3A3A3A3A3A3E508124D0B60
:104CB000EEF0A3EFF08A828B83A3A3E50AF0A3E5CD
:104CC0000BF08A828B83E4F0A3124D0BA3A3A3F015
:104CD000A3F0900598E07002A3E09005987006EAB2
:104CE000F0A3EB80ACE0FCA3E08003E8FCE9FD8CE2
:104CF000828D83124F59E87001E970EF8C828D83A9
:104D000080DD7A007B007F06020602F08A828B83B8
:104D1000A3A3A3A32274F712048790059880048CA0
:104D2000828D83E0FCA3E0FDEC7001ED601F8C82BE
:104D30008D83A3A3A3A3E06A7003A3E06B70E08C50
:104D4000828D83A3A3A3A3A3A3E06970D2ECFAEDA1
:104D5000FB7F01020602C082C083EA7001EB600C97
:104D60008A828B83A3A3A3A3E4F0A3F0D083D08291
:104D70000207B974F6120487E5A8FFC2AF121258F1
:104D8000EFA2E792AFEA7001EB600479008002794C
:104D9000087F0202060274F4120487A2AFE492E0D4
:104DA000F509C2AF1212528A0A8B0BAE0AAF0BEE94
:104DB0007001EF600312124CE509A2E092AFEE70B1
:104DC00001EF600479008002790680007F0402060A
:104DD0000274EB1204878A0E8B0FE5A8FAC2AF8526
:104DE0000E088B09750A00750B0090059A78081259
:104DF00009A0EAA2E792AF900598E07002A3E070E4
:104E000003024F54900598E0F508A3E0F5097E00F1
:104E10007F00A2AFE492E0F514C2AFE5082404F5E8
:104E200012E5093400F513E5082402F50CE5093410
:104E300000F50D850C82F583124F59C3E50E98E5F8
:104E40000F99850C82850D834006E4F0A3F080174E
:104E5000C3E0950EF0A3E0950FF0850C82850D83DD
:104E6000E07002A3E0704EE5082407F510E5093470
:104E700000F511851082F583E07002A3E060508593
:104E80001282851383E0FAA3E0FBEA7001EB603F36
:104E9000850882850983A3A3A3A3A3A3E0F9121223
:104EA000E2851082851183124F59850C82850D830E
:104EB000E8F0A3E9F0850C82850D83E07002A3E0A1
:104EC000600D851282851383E07002A3E0702B854C
:104ED0000882850983124F59E50A7002E50B7005B7
:104EE0009005988006850A82850B83E8F0A3E9F097
:104EF000AE08AF098E828F83800C85080A85090B66
:104F0000850882850983E0F508A3E0F509E514A288
:104F1000E092AFEE7001EF60308E828F83A3A3E04A
:104F20007002A3E0701C8E828F83A3A3A3A3E0FA78
:104F3000A3E0FB8E828F83A3A3A3A3A3A3E0F91214
:104F400012E2EEFAEFFB12127CE5087002E509604E
:104F500003024E0E7F0D020602E0F8A3E0F922C024
:104F600082C083900598E07002A3E0602F900598BE
:104F7000124F597AFF7BFF88828983A3A3E0FCA3A9
:104F8000E0FDC3EC9AED9B5004ECFAEDFB888289BE
:104F900083124F59E87001E9600680DB7A007B00DC
:104FA000024D6C74F0120487900CFA7808120A040F
:104FB0009005CD7808120A138A088B09750A0075C6
:104FC0000B00900D06780C120A047808790C120375
:104FD0008C900D0A780812092E740578081208576B
:104FE000900CFA78081208B4701D120E8C8A088B87
:104FF000098C0A8D0B900CFA78081208B4702E7484
:10500000039005C8F0804A120E8C8A0C8B0D8C0E12
:105010008D0F900CFA780C1208B460117808790C96
:105020001209D450088A088B098C0A8D0B740290DF
:1050300005C8F0900D0E780C120A04780C7908124D
:1050400009D4500D900CFA78081208B4600302508D
:10505000FFA2AF4003121294C2AF120B86E96003A5
:105060000251017902120E14E96003025101120A81
:105070009C900CFA78081208B46028900D12780CF5
:10508000120A04780C79081209D44008900D167899
:1050900008120A04AA08AB09AC0AAD0B120AB4C282
:1050A000C7D2AD53BEFCE5BE9005C8E045BEF5BE17
:1050B000E5ADA2E050FAE5A8FEE5B8FFE59AF508EF
:1050C00053A820E5A853B820E5B8539A12E59AD220
:1050D000AF120AA8C2AF8EA88FB885089AC2AD12C7
:1050E0000AC08A088B098C0A8D0B9005CD780812AE
:1050F00009A0120AA2120E1AD2AF120FE2800DC23C
:10510000AFAA08AB09AC0AAD0B120ABA8005740449
:105110001208237F0802060274F012048774FC123E
:1051200008888A088B098C0A8D0BE595851882857D
:105130001983F0E596C0E07401120A3ED0E0F0E574
:1051400097C0E07402120A3ED0E0F07403120A3EE7
:10515000E4F0851882851983780C120A049005C939
:10516000780C120A13900D1A780C120A0478087938
:105170000C12038C74067808120857900D1E7808DC
:1051800012092E85188285198378081209A07402E5
:10519000120A3EE0F5977401120A3EE0F596851872
:1051A00082851983E0F59502510E74F01204878A06
:1051B000088B098C0A8D0B900CFA78081208B460E1
:1051C00028900D12780C120A04780C79081209D470
:1051D0004008900D167808120A04AA08AB09AC0A18
:1051E000AD0B120AB4C2C7D2AD53BEFCE5BED2AFFE
:1051F000120AA802511374F012048774FC12088872
:10520000E595851882851983F0E596C0E074011252
:105210000A3ED0E0F0E597C0E07402120A3ED0E00A
:10522000F07403120A3E7401F085188285198378A0
:1052300008120A049005C97808120870900D2278A7
:105240000812092E900D267808120941900D2A782F
:105250000C120A047808790C12038C900D2E780831
:1052600012092E740C7808120857AA08AB09AC0A68
:10527000FD02510E80080000000000000000EAF866
:10528000EBF974FF281A74FF39FBE87001E970E646
:105290000207B90207B9C082C083900CF8E024FE6F
:1052A000F8A3E03403F988828983E4F0A3F0900C3A
:1052B000F8E0F8A3E0F583888274E8F0A3E4F090C6
:1052C0000CF8E024E8F8A3E03400F98882898374BC
:1052D00016F0A37403F090018DE8F0A3E9F07A00D2
:1052E0007B0012128290018FEAF0A3EBF0900CF891
:1052F000125310D083D0820207B9C082C083E5A8C0
:10530000FAC2AF90018F125310EAA2E792AF80E386
:10531000E0F8A3E0F990018DE8F0A3E9F02274F33E
:105320001204877C007D008C0BEA24020A0AEB340D
:1053300000FBA2AFE492E0F50AC2AFC3EA9411EB1E
:105340009400500590018D800390018FE0F8A3E058
:10535000F988828983E0FEA3E0FF74805FF509E4A9
:105360007002E509600974806FFF750B008074E5B9
:105370000B606288828983E0F508A3E0F5098C82DE
:105380008D83E02508F0A3E03509F08C828D83C37E
:10539000E09AA3E09B404CECF8EDF988828983E029
:1053A000FEA3E0FFE87001E9606BC3EE9AFEEF9B9D
:1053B000FFC3EE9404EF94004047E82AF582E93BEE
:1053C000F583EEF0A3EFF074804BFB88828983EACB
:1053D000F0A3EB8036C3EE9AEF9B50C8750B01E843
:1053E000FCE9FDE82EF8E93FF988828983E0FEA315
:1053F000E0FFEE7001EF600302535A7800790080FD
:105400001488828983E0F0A3E04480F0E824020855
:1054100008E93400F9E50AA2E092AFE8FAE9FB7F77
:105420000502060274F7120487EAFEEBFFA2AFE45E
:1054300092E0F508C2AFEEF8EFF9C3E89491E99471
:10544000014009C3E89491E994054003121294EED7
:1054500024FE1E1EEF34FFFF8E828F83A3E0548054
:10546000F9E47001E970031212948E828F83E0F0E8
:10547000A3E0547FF090018DE0F8A3E0F9C3EE982B
:10548000EF99500CEEF8EFF990018DE8F0A3E9F0F8
:10549000E508A2E092AF7F01020602C082C083123B
:1054A0000E74D083D0820207B974F412048774F6A4
:1054B000120888C2AF53BEFBE59DA2E650FA007801
:1054C000F8790100E824FF18E934FFF9E87001E9F0
:1054D00070F175C6807480659E70FA43BE047408CE
:1054E000906270F043FD8043FF017480906234F05D
:1054F000D287D2A0D2878017D2870B74086B600343
:105500000255DE7B000CECC3940650030255DED23C
:10551000877A0080060A740A6A606E900CFA78082E
:10552000120A047406120A3E7808120A13801290B6
:105530000CFE7808120A047406120A3E7808120952
:10554000A07406120A3EC082C083900D0278081231
:105550000A04D083D08278081209E440D2A287508E
:1055600004C2878002D287A2A05004C2A08002D2C7
:10557000A090059EE0600CE4F0740A1208237F04FA
:10558000020602A292508E8088D287D2A0D287D201
:105590008778007900A29240047800790012563E84
:1055A00040F39061A3E0C0E07404120A3ED0E0F042
:1055B0009061A4E0C0E07405120A3ED0E0F09009CA
:1055C000C3E0C0E07402120A3ED0E0F09009AEE001
:1055D000C0E07403120A3ED0E0F07B007C00A2928F
:1055E00040FCC287C2A0C287EB7004C2878002D28F
:1055F0008778007900A29240047800790012563E24
:1056000040F3D287D2A0D287D287750801750900EE
:105610007407C39B7808120967C0088C0885188234
:10562000851983E5822508F582E5833400F583D06A
:10563000E0FAE05A70030254F8C2870254FAE824F0
:105640000108E93400F9C3E894F4E99401A2D265B1
:10565000D0332274F7120487E9FE8A08EBFF125751
:105660007224D9F582E5F03405F583125684E5827B
:105670007002E5836009EFFBAA08EEF91213387F88
:1056800001020602E0F8A3E0F98882898322C08241
:10569000C083E912067E0003AE56A256AE56A65649
:1056A000AA567901800A790280067900800279037E
:1056B0008057C082C083790312575D7033E5E4A23E
:1056C000E5500C53E4DF7B027A027903120AD2E53B
:1056D000E4A2E6500C53E4BF7B027A047903120A79
:1056E000D2E5E4A2E7502253E47F7B027A088014DB
:1056F00079031257577012E5E4A2E4500C53E4EF1B
:105700007B047A017903120AD2D083D0820207B9CE
:10571000C082C083790012575D7021A2D9500EE576
:10572000D875D8407B027A027900120AD2A2DA50E8
:1057300024E5D875D8407B027A048014790012578A
:10574000577012A2D8500EE5D875D8407B047A0164
:105750007900120AD280B21257636404221257638E
:1057600064022212577224D5F582E5F03405F583E0
:10577000E022120AD8E975F00AA422C082C0837917
:105780000212575D7021A2DC500EE5D875D8407B1F
:10579000027A027902120AD2A2DD5024E5D875D825
:1057A000407B027A04801479021257577012A2DBF0
:1057B000500EE5D875D8407B047A017902120AD2DE
:1057C0000257090207B974F41204878908740C128D
:1057D0000A3EE0FEA3E0FF740F5508F50A750B00C2
:1057E000740B780A1209672AF874803BF9E428E5FB
:1057F0000B39F9E5C7F509E508C4540FC0E074F8A2
:1058000055C7FAD0E04AF5C7801C88828983E08CAE
:10581000828D83F088828983A3A882A9838C828D5C
:1058200083A3AC82AD83EEFAEFFB74FF2A1E74FFF4
:105830003BFFEA7001EB70D28509C77F04020602C4
:1058400074F6120487740A120A3EE0F508A3E0F524
:1058500009ED90059FF0EC9005A0F074629005A111
:10586000F074739005A2F09005A3E0541FF0E508D2
:10587000333354FC9005A4F074067808120A22E52C
:10588000089005A3F074129005A5F074429005A647
:10589000F075D1FE75D601EA906271F0EB906272FC
:1058A000F0906270E0D2E1F0E0A2E740FB7F0202FC
:1058B0000602C082C083E9C333906272F07A02901C
:1058C0006270E0D2E0F0E0A2E740FB906272E00498
:1058D000F01AEA70EAD083D0820207B974F4120495
:1058E000877E007F00120FE88A088B09AC08AD099B
:1058F000900183E06C7003A3E06D70030259CB90BC
:105900000183E0F8A3E0F9ECC398F508ED99F509F7
:10591000900183ECF0A3ED801FE5082404F508E571
:105920000934E0F509EE243CFEEF340AFF900185CE
:10593000E02404F0A3E03400F0C3E50894FDE50999
:10594000941F50D574037808120967900185E025EB
:1059500008FCA3E03509FDECF8EDF97A197B00129B
:10596000033388088909EE2508FEEF3509FFECF8B6
:10597000EDF97A197B00120333900185EAF0A3EB6D
:10598000F0EE7001EF6044900187E02EF0A3E03F5D
:10599000F0900187C3E094E9A3E0940340261259F4
:1059A000D012033388088909750A00750B0090012D
:1059B0008978081209A01259D0120333900187EA9E
:1059C000F0A3EBF0EEFAEFFB12123A7F04020602AC
:1059D000900187E0F8A3E0F97AE87B032274F412DF
:1059E00004879001897808120A04AA08AB09AC0A56
:1059F000AD0B80D774F7120487125A4860047900FF
:105A000080358A828B83A3A3A3A3A3A3A3A3E0606F
:105A1000ED64028A828B83700E125A3C7003A3E0FD
:105A20006970DB79018010A3A3A3A3A3A3A3A3E0C0
:105A3000640370CA1212047F01020602E0F8A3E0B8
:105A4000F98C828D83E068228A828B83A3A3A3A32F
:105A5000A3A3A3A3E0FE8C828D83A3A3A3A3A3A3EC
:105A6000A3A3E06E2274F71204878C828D83A3A314
:105A7000A3A3A3A3A3A3E0FE8A828B83A3A3A3A3D0
:105A8000A3A3A3A3F074036E700512120A80128CF4
:105A9000828D83E0F8A3E0F98A828B83E8F0A3E9A2
:105AA000F0025A3774F6120487750808EAFEEBFF15
:105AB0008E828F83A3AA82AB83ECF8EDF98882896A
:105AC00083A3AC82AD838E828F83E0FE888289833C
:105AD000E06E6004790080081508E50870CE790151
:105AE0007F0202060274F51204878C088D09750A7C
:105AF0000078081207F17C087D0012132474031249
:105B000008237F03020602C2AF75C90B0080FD7433
:105B1000F712048774FD1208887402120A3EEAF034
:105B20007401120A3EEBF0E9FE74026E70247401F7
:105B3000851882851983F0F9125BD47401120A3E2C
:105B4000AA82AB8379E1120E089008E6E4F0A3F094
:105B50008078E4851882851983F07901125BD4740A
:105B600002120A3EAC82AD837A0079881211267443
:105B700001120A3EAA82AB8379E1120E08EE701F71
:105B8000E5A8FAC2AF906189E054FCF0E0D2E1F000
:105B9000E49061BAF074409061BBF07401801674B7
:105BA000016E7026E5A8FAC2AF906189E054FCF05E
:105BB000E04403F0E49061BCF075E1FF75E1D97554
:105BC000E1D275E1E1EAA2E792AF74031208237F04
:105BD00001020602120DF6851882851983AA82AB8E
:105BE000837952120E0822C082C0839008E6E0FA40
:105BF000A3E0FBE960079008E6E4F0A3F0D083D0CF
:105C0000820207B9C082C0839008E6E02401F0A3B5
:105C1000E03400F080E7C082C08343B3017C108A87
:105C2000828B83E0F5B1A3AA82AB831CEC70F08079
:105C300005F5B312122ED083D0820207B974F71281
:105C4000048743B3017E10125C9E70FB7C0FEC1C3A
:105C500070FC7C10E5B28A828B83F0A3AA82AB83AE
:105C60001CEC70F07F0102060274F612048743B345
:105C7000017F047E04125C9E70FB7E0F8E081EE581
:105C80000870F97E04E5B28A828B83F0A3AA82AB06
:105C9000831EEE70F01FEF70DA7F020206028C8224
:105CA0008D83E0F5B1A3AC82AD831EEE22C082C02D
:105CB0008374F855B34406025C31C082C08374F823
:105CC00055B34404025C310207B9C082C083125C40
:105CD000ED120E2C025C36C082C083125CED53B311
:105CE000F8E5B3ECFAEDFB121228025C3653B38FE1
:105CF000E5B343B3402279FF1212C453BEFBE59DC6
:105D0000A2E650FA0078F8790100E824FF18E93497
:105D1000FFF9E87001E970F175C6807480659E70C6
:105D2000FA43BE047408906270F043FD8043FF01A3
:105D30007480906234F0120A72120BC8120E201294
:105D40000C8E1212BE79FF1212CA79011212701251
:105D500012B27A007B000207B9D083D0820207B961
:105D6000C082C0837A0C7B001212829007FEEAF098
:105D7000A3EBF07C0C7D0079001213187900120D52
:105D8000AE79011211027902120BEC7903120B4A5F
:105D900074049007FDF07905120A6C80BC74F61249
:105DA0000487EAFEEBFF74805FF9E47001E9700C90
:105DB0007A007B007F0202060212130C900800E0BA
:105DC000F9121300EA7001EB70EFEEFA74806FFBCA
:105DD00080E2C082C083E4900597F0900591F0A323
:105DE000F0D083D0820207B9C082C083E9900597C2
:105DF00080EE74F6120487E9FE900D3EE0FBE9C3E5
:105E00009B400479038030750801750900EE78081D
:105E1000120967AC08AD09EA7011ECF4F8EDF4F979
:105E2000900591E058F0A3E0598009900591E04C6D
:105E3000F0A3E04DF079007F0202060274F612042E
:105E400087900597E0601A900591E07002A3E070DA
:105E500010E5A8FEC2AF121234EEA2E792AF120A0A
:105E6000AE80D4C082C083E99005C7F0D083D082D1
:105E70000207B9C082C083120A66120A841212D6BF
:105E8000120B1A80E774F6120487EAFEEBFF7480A7
:105E90005FF9E47001E9601B800312130C9005C7E1
:105EA000E0F9121300EA7001EB70EFEEFA74806F04
:105EB000FB8026EE5402600674026EFA801BEEA28E
:105EC000E05004740180F35404600A120ACC740494
:105ED0006EFAEF80DB7A007B007F02020602C0824E
:105EE000C083120B32808574F71204877409120A7A
:105EF0003EE0F8A3E0F98A828B838003ECF0A3E80C
:105F0000FEE9FF74FF2E1874FF3FF9EE7001EF7089
:105F1000EB7F0102060274F7120487E9FEE4906148
:105F2000A6F0EE906264F07A027B00120AC69062DC
:105F300064E0FA7401F0EAA2E6E492E0F97F01027B
:105F40000602C082C0838A828B838001A3E070FC3A
:105F5000E582C39AFAE5839BFBD083D0820207B91E
:105F60007405F5D575D49F7405F5D375D2A7D2B84D
:105F70000207B90207B90207B9FFFFFFFFFFFFFFE2
:105F8000FFFFFFFFFFFFFFFFFFFFFFFFFFFFFFFF21
:105F9000FFFFFFFFFFFFFFFFFFFFFFFFFFFFFFFF11
:105FA000FFFFFFFFFFFFFFFFFFFFFFFFFFFFFFFF01
:105FB000FFFFFFFFFFFFFFFFFFFFFFFFFFFFFFFFF1
:107FF000FFFFFFFFFFFFC42F851A87000207B9FFAD
:10800000F582EB128488A2E2227808120A13028019
:108010005412892BE912848822E5A48518828519D7
:1080200083F0E5A5C0E07401120A3ED0E0F0E5A6B9
:10803000C0E07402120A3ED0E0F07403120A3E124D
:1080400080597808120A04AA08AB09AC0AAD0B746F
:10805000041208237F04020602E4F0EAA2E792AFCA
:10806000851882851983229008F212B010120D0C27
:1080700022900963E0FA900948E022F0900948E074
:10808000640F22A3A3E024F5C3941222120E86905B
:10809000096812C6A27A147B0022C082C0839008AD
:1080A000F2E07002A3E0600612B00912127C9008A0
:1080B000EF128E2C74089008F1F09008F2E4F0A30F
:1080C000F090093EF09008F4029D4979031A1AEFE6
:1080D000FB120DCC740222EE24020A0AEF3400FBDC
:1080E0008A828B831280E822E024FFF8A3E034FF29
:1080F000F92274F0120487EAFEEBFF89087410126B
:108100000A3E12958A7412120A3EE0F50AA3E0F5BF
:108110000B1280D7850F0D1281B0E50E1281B6E5E6
:10812000081281A290096212819F90096112819FB9
:10813000850B0D1281B0E50AF088098A828B83E0F5
:10814000C395098E828F83A3A3A3A312950712CF91
:10815000BF8C828D83A3A3A3A3A3A3A3A3E06403E3
:108160007008EE240E1281968008EE128FFBEF123B
:1081700090B8128E9E7409F0750AFF750BFF780A8D
:108180001207F51280CB120823E97007EEFAEFFB15
:10819000120D5A0282C7F582EF12EC71740122129D
:1081A00097631281A622F0E824FF18E934FFF92230
:1081B000E50D888289831281A6888289832274F0E2
:1081C000120487EAFEEBFF890B8C0E8D0F750A00F7
:1081D000A2AFE492E0F50CC2AF9008F580351282B0
:1081E0009C502D1282A7640370261294E8850882A1
:1081F000850983A3A3E02405FCA3E03400FDEEFA87
:10820000EFFB12120A1294F17410250AF50A150BED
:1082100012844612D22AE50B6008E5087002E509CF
:1082200070BCE50CA2E092AFA2AFE492E0F50CC204
:10823000AF9008F5801B2402F8E509128EC6128B58
:1082400002128425129A00128425050A150B128445
:1082500046128C2B7002E50960251282A764027019
:10826000ED12829CE50840CE129502E50912829635
:1082700050DC7401850E82850F83F0E50B70CFE52D
:108280000CA2E092AF8E828F83E50AF0EE24FFFA13
:10829000EF34FFFB8031128488A2E522128929E5A0
:1082A00009128488A2E622850882850983A3A31285
:1082B0008B1E1282B622A3E01313543F54032212E2
:1082C0000E7A74041208237F0802060274ED120469
:1082D0008774F612088889128A108B0FE485188239
:1082E000851983F09008FBE0C394084005751107D9
:1082F0008003E0F511E51133333354F8900947FA60
:10830000E02A2433F50A1291237001EB70030284F2
:108310000CEA250AF8EB3400F9EA240212976912F4
:10832000CFBF900947E0FCFAC3E49AFAE49400FB5B
:10833000E82AFEE93BFF90094512841A780C1207DF
:10834000F112F4D3120823851882851983AC82AD0B
:1083500083A911EE24FFFAEF34FFFB120CF48A0C10
:108360008B0DAE0CAF0DE412842BE50FC454F0C09E
:10837000E090093FE0C4333354C0C0E0900941129B
:10838000B98213135480FAD0E04AFAD0E04A440F7D
:1083900012842BE510C454F045128E828F83F0EEC8
:1083A000FA850A82850B83E0C39A85088285098352
:1083B000A3A3A3A312978FEEF0A3EFF0E508240E7A
:1083C00012D40DE508240D12D40D7409120A3EE4EE
:1083D000F0F50AF50B780A1207F57403120A3EAE9F
:1083E00082AF83120DC6EEFCEFFDAA08AB09128026
:1083F000D1120823851882851983E06009850882D7
:1084000085098312845CAA08AB0980047A007B008A
:10841000740A1208237F0B020602E0F50CA3E0F5B4
:108420000D750E0022A3A3A3A3A3E08E828F831257
:10843000843322F0EE24FF1EEF34FFFF227F05027B
:1084400006021282B722E50824FBF582E50934FF13
:10845000F58322128929E50912848822A3A31284B4
:10846000A8D2E4F022A3A3A3E0FA88828983227F22
:10847000060206027AF57B081212EE7402221284BA
:108480008222EE2410F582EF3400F583E022A2E789
:1084900002B261120E7A740422EE240EF582EF12FB
:1084A000EC7122A31284A822128B22E022EE240B6C
:1084B000F582EF12848822EE240DF582EF12848873
:1084C000640122E0FEA3E0FFEE2274F4120487743C
:1084D000F7120888EAFEEBFF120D06E9F508704C6A
:1084E000EE240E1284B060447A007909120D2AEA53
:1084F0007001EB60377408120A3E12853E1206B412
:108500007508FF7509FF78081207F58E828F83A31F
:10851000A3A3A3A3A3A3A3E0F97404120A3EAC820D
:10852000AD83120CEE7404120823800D8E828F83AB
:10853000A3E5081286DF120D12740902805174023D
:1085400012D6DF74FFF0A312854B22128EDAA3A39A
:108550002274F1120487EAFEEBFF7508008E828F09
:1085600083A3A3A3A3A3A312808340037508E88E6B
:10857000828F83A3A3A3A3A3A3A3A3A3A3E0C394D2
:108580001040057508E880138E828F83A3A3A3A3F0
:10859000A3A3A3A3A3A3E0640F600B90091BE05463
:1085A0000870037508E88E828F83A3A3A3A3A3A3F7
:1085B000A3A3A3A3E0C0E0EE240BF582EF1298C5BD
:1085C000D0E0C39A5008E0640F60037508E8900992
:1085D00061E064FF7004A3E064FF70037508EC7A47
:1085E000237B001212829008F212EF579008F2E0FB
:1085F0007002A3E060258E828F83A3A3A982AA8341
:10860000890C8A0D750E00780C1207F17C237D0011
:1086100012B00912F4D9120823800375081AA908A8
:10862000800239FB7F0702060274F7120487EAFE14
:10863000EBFF8E828F83A3A3A3A3A3A3A3A3E090A6
:108640000948129F42900963F01284AD90094312C9
:108650008ED2A3A3A3A3A3A3E090093FF0F9120E27
:10866000C290093FE0600CEE2404128E93EE2406C3
:10867000128689740190093E12807B600474018027
:1086800001E49008F4F00297EEFAEF3400FB79E190
:10869000120E082274F7120487EAFEEBFF8E828F17
:1086A00083A3E07003128067742C1298AC0297EEDB
:1086B00074F7120487EAFEEBFF9008F2E07002A361
:1086C000E0600D12B0099008F2E4F0A3F012127C01
:1086D00074088E828F831286DF12112C0297EEF0BF
:1086E000EEFAEFFB2274F612048790093EE0601266
:1086F0009008F4E0700C128705EA7001EB60031239
:108700000D5A02B508900943E0FB128071F9120C72
:10871000FA22128488640222C082C0837908029AF5
:108720003574F4120487E9FE24DCF582E43416F58E
:1087300083E493F508FA7B00121312EA7001EB60F0
:108740001212877E12CFBDE48A828B83A3A3A3A3D8
:10875000F080287A027B00121312EA7001EB601796
:10876000EE24BBF582E43416F583E4938A828B838E
:10877000F0741AA31289C87A007B00028054EA259B
:1087800008F8EB3400F98A828B8322E9FDEAFC7455
:10879000062DFAECA2E0501EEA75F00A84ABF0EB6D
:1087A0006014740A2AC39BFAEBC394054004740A4C
:1087B0002AFA740B2AFAEDC3941340047814800249
:1087C0007806E82AF8740928F8E43400F97A0A7B74
:1087D0000012032BE8F90207B9C082C08374FE12AD
:1087E00008888518828519831288F312067E000393
:1087F000D288FA875488D2887988900948E0640F33
:108800006018120D9CE9701285188285198312B0C8
:108810000C900D7B129A04121338900970E0C0E09E
:1088200085188285198312AE91D0E012D6EB12EE34
:108830001C741412D6EBFCA3E0FD7AF77B0812122D
:10884000FAE5A8FAC2AF9008FD1288EA7920120D65
:108850009002F63990091DE0851882851983A3706E
:108860001112EE1E740D12D6EBFAA3E0FB12112CBE
:1088700080DF12EE1E741580BA128C356054128C93
:10888000351412DC8F1284A3C0E085188285198309
:1088900012B7FFD0E012D6EB2402F812B47F240105
:1088A00012F648888289831288F314C394095022EF
:1088B00085188285198312C186A3A3E0240AC0E02B
:1088C00085188285198312EE1DD0E01288F7040204
:1088D0008833851882851983AA82AB83120DC00262
:1088E0008851E5A8FAC2AF9008FCE004F0EAA2E7DC
:1088F00092AF22EAF0A3EB12DC93A3A3A3A3E0229E
:10890000C082C083120D9CE9600479208002790145
:10891000029D4AC082C083128920E0D2E0029D49B4
:10892000EA12892BEB12EC7122E5082410F5822261
:10893000C082C0831294FA1284BD70111289BC40A7
:108940000C8A828B83A3E0F9120D96806CEA129553
:1089500002EB1284B3A2E650128A828B83A3E0F961
:10896000900D7D129A04121338804E1294FA1284DC
:10897000BD70091289BC5004743080368A828B83A2
:10898000A3E0641B7004742280288A828B83A3E096
:10899000700F1294FA1284B324F2F582E434168034
:1089A0000D1294FA1284B324BBF582E43416F583D5
:1089B000E4938A828B831289C8029D4AEA240FF5C8
:1089C00082EB128488A2E322F0900916E0F91213D8
:1089D000062274F7120487E9FE9008FEE07002A3F5
:1089E000E0603EEE7006128AFFE48014741B6E7025
:1089F000339008FE129783E0640570EA128AFFEE56
:108A000012B483FB120D489008FEE0240E128C2550
:108A10005003129A089008FEE4F0A3F07910120DAA
:108A2000900297EE74E96E6003028AC512D8BC709A
:108A3000381211ECE96032128B2F402D90096AE058
:108A4000C0E09008FEE0241112B0D7D0E0F0900909
:108A500059E0C0E0128B14A3A3D0E0F0900959E0D4
:108A600004F07901120F6A80B812D8BC9008FE6039
:108A70004CE0240E181818128B369008FEE04014B3
:108A8000241112B47C14F074019009CAF09009C446
:108A9000E0F980D0240F12B47EC2E7128C41240D7D
:108AA000F812B47F6403700C9008FEE0241012B436
:108AB0007CD2E2F0128B07121338028A07128B0263
:108AC00074E9028A0074E16E70141211ECE970030B
:108AD0000289FC128B2F50030289FC028A3C741C11
:108AE0006E60030289FC9008FE12B00C900D831298
:108AF0009A041213389008FEE4F0A3F0028A219041
:108B000008FE128B1EA3229008FE12B010900D7961
:108B1000128B1E229008FE12B01C128B1E22128B8A
:108B20002222128B2622E0F8A3E0F583888222908D
:108B300008FEE0240EF812D8C7A2E22274F4120450
:108B400087750A00750B00A2AFE492E0FEC2AF90F9
:108B500008FEE07002A3E06008EEA2E092AF028C93
:108B60000F900D81129A04121338E94410FA9008FC
:108B7000F5800985080A85090B128446128C2B7032
:108B800002E50960D41284535A6A70E7780A120722
:108B9000F5AC08AD091284741208239008FEE508AC
:108BA000F0A3E509128C41128C2340669008FCE08A
:108BB00014F0EEA2E092AF9008FEE0240E18181216
:108BC000B003E8FEE9FF8E828F83E0FA9008FEE0B2
:108BD000F8128C3BF9120D30E99008F9F0A3E41279
:108BE000A46BE0A2E750189008FEE02412128C1744
:108BF000120ED49008FEE02413128C17120EC890A7
:108C000008FE128C1CA2E1B3E492E0F9120F6A0292
:108C100080549008FB809812D8C6F922E0240F12E5
:108C2000D8C622241012D8C6A2E722E0F508A3E095
:108C3000F509E5082285188285198312C18AA3E007
:108C400022F09008FEE02274F7120487EAFEEBFFA0
:108C5000120DBA129501EF1289C240091284B77041
:108C600004790280027905EEFCEFFD7AF57B0812AB
:108C700012E8E9602EEEFAEFFB900D7F129A0412D3
:108C80001338EE128FFBEF12800340081288E212B5
:108C90000D548014EEFAEFFB900D77129A04121324
:108CA00038800574F1128CAB0297EE8E828F83A30D
:108CB0001286DF120D4822C082C083120D54029D1D
:108CC0004A74F7120487EAFEEBFF790090091BE073
:108CD0005402700DEE242FF582EF128003500279BA
:108CE000E890091BE05460700CEE242F1284B0A2AF
:108CF000E1500279E88E828F83A3A3A3A3E0C394FB
:108D000075400279E8EE242D1284B07010EE242A0A
:108D10001284B0700879F5120D960297EEE970F79B
:108D2000EE240D128196F0EE242F1284B0C0E012D2
:108D30008499D0E0F0EE24301284B0C0E0EE24122A
:108D400012849CD0E0129797C0E0EE241312849C0A
:108D5000D0E0F0EE242B12849C1206B4EE2422FC08
:108D6000EF3400FDEE242D1284B0F91280D11208E8
:108D700023E970A6EEFAEFFB120D5A809DC082C067
:108D800083740D8A828B83F012112C029D4AC0825B
:108D9000C083E48A828B83F0A3F0EA242F12800040
:108DA00040119008FCE0C39402401179F1120D9635
:108DB000029D4A9008FBE0C3940250EF12912F806D
:108DC000EF74F3120487890CEA2411F582E4341756
:108DD000F583E493244AFE890A250AFAE43400FB69
:108DE000121312EA7001EB60158A828B83A3A3A38E
:108DF000A3E50CF08E0812877E12CFBD80047A00A6
:108E00007B0002843DC082C083E4900914F0900985
:108E100015F0900908128E2C740290090AF090093E
:108E200011128E2C7401900913029D497490F0A3C5
:108E3000740DF02274F012048712A0A0120A0478B4
:108E400008790C12038C78081207ED7A0B7B090263
:108E500082BF74F412048774CE120888900948E027
:108E6000640F6007742E12927080237A027B0912BD
:108E7000808C12033388088909750A00750B007805
:108E8000081207ED7A027B091284931208237432C8
:108E9000028051FAEF3400FB7950120E0822F0EEF6
:108EA000240D12EC6E221208230297EE7402028E39
:108EB000A6AA82AB83121318851882851983AA8209
:108EC000AB8312112C223400F9E8FAE9FB8A828B79
:108ED0008322128ED622128EDA22F08E828F83A304
:108EE000A3A3A32274F7120487E9FA7B0090091662
:108EF000E0F91212E20297EE74F412048774F01291
:108F00000888E9FE8A828B83E024C6F582E4341661
:108F1000F583E493C0E07401120A3ED0E0F0640BE4
:108F2000700DEE8A828B83A3F0120DF0028FF5E0B4
:108F30007003028FF5640C6003028FE27404120A5E
:108F40003E12EF57EA242EF582EB1284B3C0E07490
:108F500003120A3ED0E0129507A3A3A3A3A37808A7
:108F6000120A047406120A3E7808120A138A828BC7
:108F70008312D1EF740A120A3E12CFBF128FFAEB9E
:108F80001284B3A2E45003E4800D12D4061284B319
:108F9000FC90096AE0C39C851882851983F0E0C0C3
:108FA000E0740C120A3ED0E0F0EA2414F582EB12D1
:108FB00084B3C0E0740D120A3ED0E0F0EA2415F547
:108FC00082EB1284B3C0E0740E120A3ED0E0F0EAE5
:108FD0002416F582EB1284B3C0E0740F120A3ED05F
:108FE000E0F07402120A3EEEF07401120A3EAA8208
:108FF000AB8312112C7410028051EA240EF58222E8
:10900000C082C08390091DE064037004790180026E
:109010007900029D4A74F612048790091D1290BDD2
:109020002485F582E9340DF58312D43CE0C2E7F0E3
:10903000C333FCE82CF582E912849FA3E493FEC3BA
:1090400033FCE433FDEC2485F582ED340DF583E04B
:109050007002A3E06005EE90091DF08A828B83E028
:10906000C333FCE433FDE82CF582E93DF583E4935A
:10907000F508C4540FC333242CF582E43409F58376
:10908000129C917001E970118A828B83E0C3940B6A
:1090900050207918120D968019740F5508C333FCAF
:1090A000E82C1290B593C0E0740193F583D082123E
:1090B000133802B508F582E912EC71E422E0C333FB
:1090C000F8E433F9E82274F012048774FE12088879
:1090D000890FEAFEEBFF1291381291237001EB60C9
:1090E000328A828B83E50FF0E4A3F08E0C8F0DF5AE
:1090F0000E780C1207F1850F0AE50A129145EA2451
:10910000020A0AEB12D41A120823AA08AB09129118
:109110002F800B851882851983E50F1291547402F4
:109120000282C4FA7B001213128A088B09EA229089
:109130000916E0F912130622E924E7F582E4341651
:10914000F583E4932224D1F582E43416F583E49385
:10915000FC7D0022F0791AAA82AB83120D9622C000
:1091600082C083E9900916029D4974F6120487743F
:10917000FE120888EAFEEBFFEE54207031803CE5D9
:10918000A8FCC2AF9008FDE01412A94A8A828B8322
:1091900012925490091912EF57120DA28518828568
:1091A0001983E0641560077A197B09120DC07AF7FC
:1091B0007B081212F4EA7001EB70C474805FF9E46A
:1091C0007001E97005801112925D900916E0F912A4
:1091D0001300EA7001EB70EFEE54106005742D126D
:1091E0009270EEA2E050057424129270EE54026068
:1091F000057425129270EE54046005742612927064
:10920000EE540860057428129270EE5440600C749D
:1092100001120A3EE4F0742C129270EE5480600C3D
:109220007401120A3EE4F0742F129270900917E054
:109230007002A3E06017E5A8FCC2AF90091712B056
:109240000C900917E4F0A312A94A12925D7A007BF0
:109250000002B503E0851882851983F02290091970
:10926000EAF0A3EBF0120DA27A197B09120DC022CD
:10927000851882851983F0AA82AB83120DA222C0C1
:1092800082C08390091912A3EB687002EB69700722
:10929000900919E4F0A3F0029D4A74F7120487A222
:1092A000AFE492E0F508C2AF8A828B83E07002A33C
:1092B000E060338A828B8312CC14EC24FBF8ED340B
:1092C000FFF990091912A809EC6E7002ED6F700792
:1092D000900919E4F0A3F08A828B83E4F0A3F0E80C
:1092E000FAE9FB12127C02B25DC082C08390096170
:1092F000C3E094FEA3E094FF400479038002790266
:10930000029D4A74EA1204878A088B098C108D1119
:109310007416120A3E12958A750A008C828D83A3F8
:10932000A3A3A3A3A3A3A3E0F512E9A2E7500875A2
:109330000CFF750DFF800A90095DE0F50CA3E0F5C8
:109340000DE9C2E7F513128FFAEB128296EA500B81
:10935000129502EB12849F74088007129502EB129B
:1093600090B812950DA2E2EA50071289217480800C
:1093700005128921741012950DA2E4500812D4062A
:109380001290B8800E90096AE0C0E012D4061284F0
:109390009FD0E012950DA2E05003750A208A828BBF
:1093A00083A3A3E024FFFEA3E034FFFF1294FA128C
:1093B00084B3C39402E040061412842B7403450A5C
:1093C000F50A851314751500740E7814120967E5F3
:1093D00015F50B74026513701190096212842A90BE
:1093E000096112E5401294F1801A7403651370103C
:1093F0001294E87C717D09EEFAEFFB12120A80E507
:10940000E5136026E5126014E50E650C7004E50FA7
:10941000650D70087440450AF50A800E8E828F83B0
:10942000E50D129516E50C12842F85120C750D00B2
:10943000740A780C120967E50D450BF50B7402658B
:1094400012701785108285118312842985108285F8
:10945000118312E5401294F1801A740365127010A2
:109460001294E8AC10AD11EEFAEFFB12120A80E58F
:10947000E512600E8E828F83E50F129516E50E12AF
:10948000842FEEF8EFF9E824FF1EE934FFFFE5082A
:10949000240DF582E5091284B3700590094D80030F
:1094A000900959E0FA04F0EA8882898312A46BE5F6
:1094B0000B129516E50AF0E5082404F8E5093400D6
:1094C000F9E5082402FAE5093400FBEEFC8A828BF8
:1094D00083129763FDE02DC39C129507EEF0A3EF76
:1094E000F079007F0E020602EE24F9FEEF34FFFF52
:1094F00022EE24FF1EEF34FFFF22EA240DF582EB5B
:1095000022EE240FF58222F08A828B8322F0128FC2
:10951000FAEB128488221284338E828F832274EEB7
:10952000120487890A8A0C8C088D098B0B7412121D
:109530000A3E12958AAA0B120D2A8A108B11A810C6
:10954000A911E8FEE9FFE87001E96039128499E5A4
:109550000B128E9EE50AF0780E1207F5AC08AD09E5
:10956000A90C1280D1120823E9701AE50A12067EAE
:1095700007017E957895789512847ED2E5F0EEFA13
:10958000EFFB120D5A7F0A020602E0F50EA3E0F58A
:109590000F2274EE1204878A088B09ECFEEDFF742B
:1095A000058A828B831297978A828B83A3A3F0EA22
:1095B0002403129769E0F510A3E0F511EE242412BC
:1095C000849C780C120A04E5102411F582E511122E
:1095D000849F12EC7F12C689AA10AB111211FE856E
:1095E0000A82850B831298BCFAA3E0FB88828983E8
:1095F000A3A3A3A3A3A3A3A3A312EF57EE242E1206
:1096000084B0C0E0E812892BE912849FD0E0129761
:109610008A12B0D5E412978A240E12AE8B7C0BFD11
:10962000F9850A82850B83E0241612F64812131876
:109630008E828F83A3A3A3A3A3A3E0C0E0850A82A5
:10964000850B83129783D0E012979FFAA3E0FB85E6
:109650000A82850B83129C91240BFCE93400FD8A5D
:10966000828B83E08C828D83F0A3E412BB82E0F5D1
:109670000B8C828D83E0F0A3E0450B1298B7FCA31E
:109680000A0AAB83A2E7E492E0C0E0E8129502E99F
:1096900012849FD0E0F074075C6004780180027847
:1096A0000075F00374075CA428F8EA28FAEB34008C
:1096B000FBE5082405F8E50912878312976312BBBE
:1096C00082850882850983A3A3A3A3A3A3EA12D258
:1096D00032F50CF50A7407550AC333FC7470550C47
:1096E000C430E30244F0F50A3395E0F50B740378D7
:1096F0000A120967E50A2CF8E50B3400F9EA28F8A4
:10970000EB39F985088285098312CFB68E828F8363
:1097100012977612F646C3EA98EB9940278E828F0D
:1097200083A3A3E0F8850882850983A3A3A3A3A349
:10973000129776A3A3E0C39A28850882850983A39C
:10974000A3A38016E4850882850983A3A3A3A3A30A
:10975000A3A3A3F0850882850983A3A3A3A3A3F0F1
:10976000029585E08882898322F50AEB3400F50BA7
:10977000850A82F58322A3A3A3A3E0FA8E828F83B6
:10978000A3A322E0240D12C7562212978FE022F0E5
:10979000850A82850B8322F0EE2431128485221201
:1097A000CFB1A3E0220207B9C082C0837919120D9C
:1097B00096029D4A74F7120487EAFEEBFF900917A0
:1097C000E07002A3E0601090091712B00C120DE4D3
:1097D0007A177B09120DC0EEFAEFFB120DBA900951
:1097E00017EEF0A3EFF0800612CB88120C4C7F012D
:1097F00002060274F712048774DE120888EAFEEB90
:10980000FF8E828F83E01206E1011E1F569803032C
:109810001A98055698181A985F987416120A3EE41A
:10982000129894740B120A3EAA82AB8312120A7425
:1098300013120A3E7403129A197402120A3E12CFCE
:10984000BF740A120A3E740212988C7414120A3EF3
:10985000E8F0A3E980107416120A3E740180C17406
:1098600016120A3E7402F0740B8518828519831251
:10987000CFADE0C0E07401120A3ED0E01298A274AD
:1098800017120A3E128EB17422028EA6F090095D64
:1098900012C6A222F012989922EE2417FCEF34008F
:1098A000FD22F07C0B7D0079002274298E828F834B
:1098B0001286DF120DA22212BB8AE02212A52A24F0
:1098C0002A12848522128488FA2274F6120487747C
:1098D000FE120888E9FEA2AFE492E0FFC2AFEE609C
:1098E0001C9015307C407D09743C120732120EBC6E
:1098F000E9900959F0120EBCE990094DF0900D97CE
:10990000E07015120F46E49009AFF09009BDF01217
:10991000DC5D120EE0120EEC53A7EF120E98120F40
:1099200064129A0890093FE0F9120EC2129C961236
:109930009A19E8906174F0E912B375750800E508AA
:10994000C333F8E433F91299F5E07002A3E060093B
:109950001299F5129A041213380508E508C3940702
:1099600040DC900917E07002A3E060077A177B09DA
:10997000120DC0E490091DF09007FEE07002A3E014
:10998000601E800D851882851983AA82AB83120D13
:10999000C090091612DC6E12CFBFE87001E970E4C6
:1099A000E490097CF080077AF57B08129A219008F0
:1099B000F5E07002A3E070EF9008F7E07002A3E01A
:1099C00060097AF77B08129A2180ED9008F5E4F09F
:1099D000A3F09008FBF09008FCF09008FDF09009CF
:1099E0003FF07A607B097952120E08EFA2E092AF45
:1099F000790002B503E8241EF582E93409F58322D3
:109A00008A828B83128B1E22900970E0F9120ED489
:109A100090096FE0F9120EC822F090096112C6A2F7
:109A2000221212F4851882851983EAF0A3EB12D76B
:109A300090120DC022120DA8029D4AF090091BE45D
:109A4000F0A3F0120EB6029D4AE9FA74C02AC3943C
:109A50001E500674C02AF9800E74202AC394065042
:109A600004743E80F079240207B974F3120487EA83
:109A7000FEEBFF120DFCE9F508742465087004790B
:109A8000F48046E5A8F50CC2AF75090074027808A9
:109A9000120967E508243AFAE5093413FB8A828B38
:109AA00083E4932440F508E43409F509750A007845
:109AB000081207F18A828B83A3E49312F4D212086E
:109AC00023E50CA2E792AF790002843D74F1120401
:109AD000878908EAFEEBFF74456508700B9009451D
:109AE000EEF0A3EFF0029C68120DFCE9FA8A09740B
:109AF000246A700579F4029C6A890A750B00740265
:109B0000780A120967129C7C7014890A750B00741C
:109B100002780A120967129C6D7003029BAB890AD6
:109B2000750B007402780A120967E50A243AFAE50F
:109B30000B3413FB8A828B83A3A3E493FC8A828B6E
:109B400083A3A3A3E4936C700579FB029C6A745809
:109B50006508701B8E828F83E02471F8A3E034FFC8
:109B6000F9C3E89422E99464400579E8029C6A8E7E
:109B7000828F83E0C0E085090A750B007402780AC1
:109B8000120967129C7CFAD0E0C39A40DD85090A6D
:109B9000750B007402780A120967129C6DC0E08E82
:109BA000828F83E0FAD0E0C39A40BFE5A8F50AC2ED
:109BB000AF85090C750D007402780C120967E50C6D
:109BC000243AF8E50D3413F9E8FAE9FB8E0C8F0D11
:109BD000750E00780C1207F18A828B83A3E493FC44
:109BE0007D008A828B83E4932440FAE4340912F4E2
:109BF000D8120823E50AA2E792AFE5081206E100B1
:109C00000750189C522E9C531E9CE0599CE1409C8E
:109C1000E24A9CE5609C689C129C96029AE490093A
:109C200061129C91906174F0E990617580ED9009EA
:109C300060E079026005120F3A802D120F408028F3
:109C4000900970E0F9120ED4801E79087C717D09AC
:109C50007A6A7B61120FEE800F90096FE0F404F0D6
:109C600090096FE0F9120EC87900028624E50A24F3
:109C70003DF582E50B3413F583E49322E50A243C99
:109C8000F582E50B3413F583E493228E828F83A350
:109C9000A312C6A2E82290095D12C6A2E8906172E2
:109CA000F0E9906173220207B974F7120487E9FEA4
:109CB00090097CE06E700479008034E0702F900988
:109CC0001DE0600464027025A2AFE492E0FFC2AF21
:109CD0009009AEE070129009B0E0700C9009C3E0FA
:109CE00070069009C2E0600AEFA2E092AF79E2024A
:109CF00097EE120F5EEE900D97F0EFA2E092AF5349
:109D000094FEE594A2E240FA74016E60079061A5AA
:109D1000E0C2E2F0EE90097CF0809CC082C08390AB
:109D2000097CE06008120F64E490097CF0801BC09D
:109D300082C08390092C7488F0A37416029A3BF0B9
:109D400090091BE04402F0A3E0F0D083D082020728
:109D5000B9C082C08390092E7407F0A37417F090E5
:109D60000932741FF0A37416F090093474FDF0A347
:109D70007416129D8CF0A3E0129D81F012132A80BC
:109D8000C9F090093074A3F0A3741622F090091E54
:109D9000747EF0A3740DF090091BE0440122C08290
:109DA000C083900936742AF0A37417F090093874B0
:109DB000AFF0A37416129DBA8085F0900D8D74CA11
:109DC000F0A37413F090092074E8F0A3740C22023D
:109DD00007B974F412048774078A828B83129E2752
:109DE00012BB7CA3A3129E27A3A312BB7CA3A3A395
:109DF000129E31A3A37808120A048A828B83A3A33C
:109E0000A3A37808120A13E48A828B83A3A3A3A3D3
:109E1000A3A3A3A3F0EC2415F582ED12849F12D422
:109E20003C12CFB6028054129E31A3A3A3A3A3A3D6
:109E300022F08C828D832274F4120487EAFEEBFFF9
:109E4000E490097E12C1B3C39404400674E89009FB
:109E50007EF08E828F83A3A3A3A3A3A3A3E0C394C6
:109E60000F40158E828F83A3A3A3A3A3A3E0640353
:109E7000601574E890097EF08E828F83A3A3A3A35C
:109E8000A3A3E06403700E90091BE0A2E0400674F7
:109E9000E890097EF0EEFCEFFD7A7D7B09120E382A
:109EA0008E828F83A3A37808120A04740A7808129A
:109EB00008579009917808120A138E828F83A3A302
:109EC000A3A3A3A3A3E0900995129F42900996F043
:109ED000740A900997F0900970E0900998F0900941
:109EE0008E128E2C7404900990F090097EE07041DF
:109EF00090097FE0600674EA90097EF090097FE0A7
:109F0000FA700774019009AF801874036A700474C2
:109F10000380F274029009AFF074FF906172F090C8
:109F20006173F074268E828F83F07904120F3A8069
:109F30000774298E828F83F0EEFAEFFB120DA202D6
:109F4000805412854BA3A3A3E02274F412048774F7
:109F5000F7120888EAFEEBFF90097FE0702E900967
:109F600097E0640A6026120EECE9C0E0900997E0E1
:109F7000F8900986E02812B00274F528F58274FF83
:109F800039F583D0E0F0900985E004F090099178EC
:109F900008120A0474017808120857900991780889
:109FA000120A13900997E004F0E508A2E04006E0E9
:109FB000C3941D40D7E0641D605B7A977B0979E10B
:109FC000120E0890097FE0600464027009EEFAEF57
:109FD000FB120E4A80427408120A3E740212D6DB4B
:109FE00074FFF0A3F090097FE06401700679087AAD
:109FF00080800479077A837508FF7509FF78081255
:10A0000007F57B007402120A3EAC82AD8312A01BDE
:10A0100012082380031298AA028539120DD2740205
:10A020002274F0120487750801750900750A00751D
:10A030000B00900997E0780812077578081209C498
:10A04000900981780812097A90097FE06403700F03
:10A0500012A0A0120A047808790C12038C803575BE
:10A060000801750900750A00750B00900995E078E4
:10A0700008120775900CFE780812092E900DB27820
:10A080000C120A047808790C12038C90097FE07096
:10A0900003120EE678081207ED7A887B090282BF68
:10A0A00090096B12A0B2750A00750B00900DB27882
:10A0B0000C22E0F5087509002274F112048774D4AB
:10A0C000120888EAFEEBFF90097FE064026008E076
:10A0D0006401600302A1C1E490097EF0740B120ACE
:10A0E0003EA882A9837403120A3E12A1C990099660
:10A0F000E0700302A18B900985E0C0E0900996E032
:10A10000FAD0E0C39A400302A18B90098612D22AAA
:10A11000900985E0F50A803385088285098312D18C
:10A12000EF7414120A3EE0687003A3E069601374D0
:10A130000B120A3EAC82AD83AA08AB091211F8E9F2
:10A140006013150AE508242112E624E50A70C99077
:10A150000985E07036740B120A3EA982AA83890C25
:10A160008A0D750E00780C1207F17C217D00900994
:10A1700085E08CF0A4F8A9F0E50828FAE509391281
:10A18000F4D8120823900985E004F0900942E060B9
:10A190000E7408120A3EE07006900996E0700D8574
:10A1A0001882851983AA82AB8312112C900996E03C
:10A1B000600F900985E0FA900996E06A70031298A2
:10A1C000AA742C120823028624E8F0A3E9F0EEFC1E
:10A1D000EFFD851882851983AA82AB83120DD822E0
:10A1E000C082C08390097EE064E860267A887B099B
:10A1F000120E86120EE07904120F4090097FE0647F
:10A2000003700690097EE060097A987B0979E11273
:10A210000E087A7D7B09028D88C082C08374F51296
:10A220000888EAFCEBFD851882851983AA82AB8336
:10A23000120E387401120A3E74FC12A241740B8093
:10A240000712D79012112C22120823029D4AC082B5
:10A25000C0837907029A3574F012048790099DE44F
:10A26000F0A3F0900999E07002A3E060379009999B
:10A2700012B018C082C083900D8F7808120A04D0E3
:10A2800083D08278081208C9501A12A36312A376E9
:10A290001208C9500612A376120A1390099912A344
:10A2A0006F12CFBF90099BE07002A3E090099D6000
:10A2B00030E07002A3E0601E90099B12B018C082CB
:10A2C000C08390099D12A379120A04D083D08278AA
:10A2D000081208C9501290099B12A36F12CFBF80B9
:10A2E00007E07002A3E0607512B015C082C08390D1
:10A2F0000D8F7808120A04D083D08278081208C91A
:10A30000505B90099D12A379120A04A2AFE492E077
:10A31000FEC2AF9009A57808120A1312A66D78083C
:10A32000790C1209D4500874029009A9F0801C908D
:10A330000CFA78081208B470047403800274059053
:10A3400009A9F09009A17808120A04AA08AB09AC7F
:10A350000AAD0B120FDCEEA2E092AF8003120EAA40
:10A360000282C7120EA48A088B098C0A8D0B221256
:10A37000C6A290099D2290099912B01C78082274F7
:10A38000F01204878A088B098C0A8D0B7410120A4C
:10A390003E804C8A828B83A3A378081209A090097F
:10A3A0009D12A3EB687002EB6970308A828B83A3E5
:10A3B000A3C082C083900CFA780C120A04D083D018
:10A3C00082780C1208C95013900CFA780C120A0407
:10A3D0008A828B83A3A3780C120A138A828B83123E
:10A3E000B00CEA7001EB70AB0282C712C6A2EA227F
:10A3F00074F0120487EAFEEBFFA2AFE492E0F50CE2
:10A40000C2AFECFAEDFB8C828D838008AA0EAB0FF5
:10A410008A828B8312958AE50E7002E50F60228E88
:10A42000828F83A3A3C082C083850E82850F83A3FE
:10A43000A37808120A04D083D08278081208C95081
:10A44000CB8A828B83EEF0A3EF12A46BE50EF0A310
:10A45000E50F129E3112A526687002EF6970031293
:10A460000E68E50CA2E092AF0282C712A46F22F040
:10A470008E828F8322EEFAEFFB1212B80282C7128D
:10A48000A5947808790C2274F0120487EAFEEBFF99
:10A490007410120A3E7808120A0412A47F12091BD3
:10A4A0008E828F83A3A37808120A137C997D09807A
:10A4B000C474F7120487ECF8EDF98C828D83800464
:10A4C000A882A98312CC148C828D83E5827002E568
:10A4D000836014EA65827003EB658370E312B00C4D
:10A4E00012EF537901800279000297EE74F712049B
:10A4F00087EAFEEBFFA2AFE492E0F508C2AF7C99D9
:10A500007D09120E80E9700B7C9B7D09EEFAEFFB52
:10A51000120E8090099D12A526687002EF697003E3
:10A52000120E6802B25D12A52A22E0F8A3E0F9EE4D
:10A530002274F0120487900999E07002A3E0700A77
:10A5400090099BE07002A3E0603BE5A8FEC2AF90DB
:10A5500009A57808120A0412A590EEA2E792AF901E
:10A560000CFE780C12092E7808790C1209D45011BF
:10A570007808790C120907AA08AB09AC0AAD0B8060
:10A580000C7A0180027A007B007C007D000282C789
:10A5900012A59422120EA48A0C8B0D8C0E8D0F2204
:10A5A000C082C0839009A0E06401700479FE80023B
:10A5B00079FF029D4A74F412048774019009A9F08E
:10A5C000900CFA7808120A04AA08AB09AC0AAD0B81
:10A5D000120FD6900DB67808120A04AA08AB09AC7F
:10A5E0000AAD0B120E9E75A1EF439401E594A2E211
:10A5F00050FA43A71002805474F41204878A088B1F
:10A60000098C0A8D0BE5A8FEC2AF9009A17808124B
:10A610000A13120FDCEEA2E792AF02805474F0121C
:10A620000487E5A8FEC2AF12BA42EEA2E792AF904D
:10A6300009A1780C120A04780C79081209D4400890
:10A640007A007B007C007D000282C774F4120487CC
:10A65000E5A8FEC2AF74019009A9F09009A178089D
:10A66000120A04AA08AB09AC0AAD0B80A5120FCAE6
:10A670008A0C8B0D8C0E8D0F227F0C02060274F05B
:10A68000120487A2AFE492E0F508C2AF9009A9E0F6
:10A69000F509A2E0400302A762900CFA780C120AB6
:10A6A00004AA0CAB0DAC0EAD0F120FD6A2AFE49204
:10A6B000E0F50AC2AF90099B12A809900999120609
:10A6C000B4900D8F780C120A04780C1209B3AA0CFE
:10A6D000AB0DAC0EAD0F120E6E7402120823803754
:10A6E0008E828F83A3A3C082C083900D8F780C12BB
:10A6F0000A04D083D082780C1208C94013900D8FC1
:10A70000780C120A048E828F83A3A3780C1208F3AC
:10A710008E828F8312A809EE7001EF70C3900D8FA7
:10A72000C082900D93780C120A0475830DD0827844
:10A730000C1208B46023900D93780C120A04900D4B
:10A740008F780C120A13900D8F780C120A04AA0C41
:10A75000AB0DAC0EAD0F120E9E120E68E50AA2E014
:10A7600092AFE509A2E1506B74019009A9F090093C
:10A77000A1780C120A04AA0CAB0DAC0EAD0F120F8F
:10A78000DCE508A2E092AF90099DE07002A3E060D2
:10A790006790099DE07002A3E0605D12A36312B0B0
:10A7A00015780C120A04780C79081209D4404990E3
:10A7B000099D1284C3FAEFFB12A7FBA3A3A3A3E096
:10A7C000F98E828F83A3A3A3A3A3A3129A041213C7
:10A7D0003880BE74056509701974029009A9F0905B
:10A7E00009A5780C120A04AA0CAB0DAC0EAD0F1221
:10A7F0000FDCE508A2E092AF0282C7120E868E82BD
:10A800008F83A3A3A3A322A3A3E0FEA3E0FF22C000
:10A8100082C083120FB87C00ECC333F8E433F9E84C
:10A8200024E3F582E93415F583E493FA740193FB8C
:10A8300012A88B12EF570CECC3941040DB740B90F2
:10A8400009ACF09009ABF074329009ADF09009AA10
:10A85000F0E49009C2F09009C1F09009AFF09009BE
:10A86000BDF09009B3F0A3F09009AE12AAE012B1C6
:10A87000019009BEF09009BFF09009C0F09009C3A3
:10A88000F09009CAF0120E98029D4AE812A8902290
:10A890002457F582E9340DF5832274F355B444044A
:10A8A000F5B4A9BD0207B9C082C083906180E0FA07
:10A8B000E96004D2F08002C2F0A2F0E492E0C33377
:10A8C000C0E074FD5AFAD0E04A029D4974F71204C0
:10A8D00087E9FE907803E064959009E3700FE0C487
:10A8E000540FC333241FF582E43417800DE0C454A1
:10A8F0000FC3332419F582E43417F583E493F87415
:10A900000193F988828983E493C39EA2D265D033F0
:10A910004013A3E493FAEEC39AA2D265D033500851
:10A9200088828983A3E493FEE5A8FCC2AF8882896C
:10A9300083E493C39E2402FAE82A1290B593900907
:10A94000AD12A94A120ECE0297EEF0ECA2E792AF3A
:10A9500022C082C083A2AFE492E0FBC2AF9009ADF7
:10A96000E0FA9009AAE06A601A9009B0E0701490C9
:10A9700009C3E0A2E7400C9009ADE09009AAF0906D
:10A980006190F0EB8001EAA2E092AF029D4A74F779
:10A99000120487E9FEA2AFE492E0FFC2AFEE900995
:10A9A000ACF09009C3E07003120EDAEF02B25FC0A0
:10A9B00082C083A2AFE492E0FBC2AF9009ACE0FAA0
:10A9C0009009ABE06A60269009ACE09009ABF0EB2F
:10A9D000A2E092AF120F5E75F0059009ABE0A424DF
:10A9E000D490618FF0120EF8120F4C8005EBA2E0AC
:10A9F00092AF029D4AC082C083E49009AFF012B3C7
:10AA000065029D49C082C08374809009CCF043A741
:10AA100001029D4AC082C08353A7FE12AEA19009D5
:10AA2000CCFAE02A24B7F9120EF2029D4AE9FCC3DF
:10AA300094AFA2D265D03350047CAF800DECC394A8
:10AA40000BA2D265D03340027C0AECF83395E0F9D2
:10AA5000745128F8E439F9E875F0FFA4F8AAF07504
:10AA6000F0FFE9A42AF97A5B0287CFC082C0837421
:10AA7000019009BFF09009BEE07008120EFEE4904C
:10AA800009BFF0029D4AC082C0839061A412E7EF23
:10AA90007405906194F075E1ED75E1EDE5A8C2AF44
:10AAA000759B0075E9FBA2E792AF9009B3E07002D5
:10AAB000A3E060077AB37B09120DC09009B3E4F0FC
:10AAC000A312AAE0F09009AEE070069009B0E06031
:10AAD0000CE49009AEF09009B0F0120F28029D4AE4
:10AAE00012AAE422F09009B17404F0A3740F227446
:10AAF000F412048774FE12088874819009AEF090F5
:10AB000009C1E0600D906193E0A2E74010E0A2E689
:10AB1000400BE49009AEF0120F2802AE789061E489
:10AB2000E070179061A4E0A2E4500FE0C2E4F0E00E
:10AB3000A2E35003120FB2120F8212B0FB9009AFC2
:10AB4000E09009BCF079047AB57B09120FF4900902
:10AB5000B5E0547F24FD9009B9F09009CBE0702056
:10AB60009009B9E0C3947D500B9009B6E05407C337
:10AB70009404400C75E1ED75E1ED120F2202AE7800
:10AB80009009B6E054076402600302AC579009BD17
:10AB9000E0600302AC577902851882851983AA8286
:10ABA000AB83120FF4A2AFE492E0FFC2AF9009C3EF
:10ABB000E06486600302AC4F12AEA185188285194D
:10ABC00083FAE02A24B7FE7401120A3EE0547FF5AE
:10ABD00008EEF9120EF2E9C0E09008FEE02414122B
:10ABE000B0D7D0E0128C4112B0D5E508128C4124C8
:10ABF0001612B0DBF0EFA2E092AF7401120A3EE051
:10AC0000A2E750469009B6E05410FE9009B8E0FF64
:10AC1000A2AFE492E0F508C2AF9009C3E064867089
:10AC2000257487F0120FACE508A2E092AF9009C836
:10AC3000E06F700EEE6007791B120F8E80167900A0
:10AC400080F779E980F3E5088006120F888005EF28
:10AC5000A2E092AF02AB7A9009C3E064867003125F
:10AC60000F889009BCE060249009BDE0701E900937
:10AC7000BCE06401700302AD2BE06402600302AD2E
:10AC8000169009B6E05407600302AD2B9009B7E0B7
:10AC9000FA1313543F5403F50BEAC413135403F58A
:10ACA0000A9009CBE070127401650A700302AB745C
:10ACB0007401650B700302AB74850A0812AE7DC087
:10ACC000E0850B0812AE7DFAD0E02AFEE50A600AA4
:10ACD0009009B6E0A2E650021E1E9009B9E0FA8E75
:10ACE000087402250812EC4E4041E0C39E24FE90F9
:10ACF00009BBF09008FDE0C3940250359009BBE019
:10AD0000F8743228FAE43400FB1213128A088B0913
:10AD1000A808A909801FE06403600302AC8C9009B5
:10AD2000B6E054076403700302AC8C120F2E02AE1F
:10AD300078780079009009B312B1087002A3E0702E
:10AD40000575E1E880E57F009009BDE0700A900993
:10AD5000B6E054209009B0F09009B0E06068A2AF6E
:10AD6000E492E0F508C2AF9009B6E05407640370BE
:10AD70003990091BE0540260199008FBE0702190A3
:10AD800008FEE07002A3E060099008FEE0128C2348
:10AD9000400E90099FE06012120E92E964FE700A64
:10ADA0007F0490618AE0D2E2800690618AE0C2E28C
:10ADB00012B35C7591FEA2E792AF9061A412DC60C1
:10ADC000E508A2E092AF9009B3E012B0E012CFBD67
:10ADD0009009BBE0C0E09009B312B018A3A3D0E083
:10ADE00012B10C241A12B0D7E50A12B10C242312A6
:10ADF000B0D7E50BF012B7F39009B3E0242412B0FA
:10AE0000D77808120A13120FC49009B3E02428124D
:10AE1000EF4D9009B6E05407C0E09009B312B7FFB8
:10AE2000D0E0F09009B8E0C0E09009B3E02431121E
:10AE3000B0D7D0E0F09009B6E05478C0E09009B700
:10AE4000E0C4540F5403FAD0E04A4FC0E09009B375
:10AE500012AE91D0E012B10C240F12AE8BEE700541
:10AE600012AF8780139009BAF014906194F09009A2
:10AE7000B1740AF0A3740FF07402028051E5082443
:10AE80002EF582E43417F583E4932212C756E4F0DA
:10AE90002212AE952212AE992212B024A3A3A3A32C
:10AEA000229009E3E0F8740F582425F582E4341762
:10AEB000F583E4932274F712048774EC1208881265
:10AEC000B1C6851882851983AC82AD839009B7120B
:10AED0008442FE60659009B3E0242C12B00285180C
:10AEE00082851983E0FC7401120A3EE0FBEC888243
:10AEF000898312D232FA9009B3E0242A12EF4D74FA
:10AF0000036E70167402120A3EAC82AD839009B3D0
:10AF1000E0241B12C945740A80197402120A3EE02B
:10AF2000FA7403120A3EE0FB9009B3E0241B12EF0F
:10AF30004D7404120A3EAC82AD839009B712D20060
:10AF4000FE603012B0F3A2E6401112AF7B242A1249
:10AF5000EF4DEC24020C0CED3400FD74036E700B0D
:10AF60009009B3E0241212C945800812AF7B241265
:10AF700012EF4D12AF877414028EA68C828D83124D
:10AF8000B0109009B3E0229009B17416F0A3740FC9
:10AF9000F0120F1022C082C0839009BBE0701174C0
:10AFA00001906194F09009B1741CF0A3740F8013A8
:10AFB000C394105003E0800274109009BAF0E014BA
:10AFC000906194029D49C082C0839009BAE0F990D3
:10AFD00009B312B01812B00C120FF49009B3E024A8
:10AFE0000212B0029009BA12846812F64612EF53A8
:10AFF0009009BAE0FA9009BBE0C39AF0120F100270
:10B000009D4AF8A3E03400F9229008F212B0102211
:10B0100012B48BFB2290099D12B01C2212B0202288
:10B0200012B02422128B26A3A32274F61204877F67
:10B030000079027AB57B09120FF49009B6E05480CA
:10B04000F50870089009BDE06402707274029009FE
:10B05000AEF0120F5212AEA19009B5FAE02A24B751
:10B06000FE9009B6E0547FF50990099FE0601090CA
:10B0700009A0E07008906163E0A2E650027F04EF4F
:10B080004508FA12B0F34AF0EEF9120EF2E9C0E008
:10B090009009B312F659D0E012B10C243012B0DB93
:10B0A00012B10C242F12B0D7E50912B10C12B0E086
:10B0B000A3A312B108FAA3E0FB120D36800A12B066
:10B0C000FB7AB37B09120DC09009B3E4F0A3F01230
:10B0D000B1D902B508241512C7562212C756EE225E
:10B0E0002432F8A3E03400F99009B312B48BF5834D
:10B0F0008A82229009B312AE95E0229061A4E0C248
:10B10000E0F0E49009B0F022E8F0A3E9F09009B390
:10B11000E022C082C083906193E0A2E6500BE0A2DF
:10B12000E7400675E1ED75E1EDE49009AEF09009B8
:10B13000B0E07003120F28029D4AC082C083120F34
:10B1400052120ECEA2AFE492E0FAC2AF9009C3E071
:10B1500064027007748312B4908005EAA2E092AF93
:10B16000029D4AC082C0839009B9E07005120F2287
:10B17000801EC394105003E0800274109009BAF04E
:10B18000E014906194F09009B17434F0A3740FF05E
:10B19000029D4AC082C08374F012088812B1C69022
:10B1A00009BAE0FA9009B9E0C39AF06011C39410AB
:10B1B000500FE09009BAF014906194F0800312B13E
:10B1C000D9741002A2489009BAE0F985188285194D
:10B1D00083AA82AB83120FF422740590619412AAA1
:10B1E000E4F0120F222274F7120487E9FEE5A8FFAB
:10B1F000C2AF9009C2E04EF0120F58EF02848EA247
:10B20000E702A98974F7120487E9FEE5A8FBC2AF3B
:10B2100074FF6EFA9009C2E05AF0EBA2E792AF1207
:10B220000F520297EEC082C083E5A8FAC2AFE49045
:10B2300009C2F09009C112B2D7EAA2E792AF120E8A
:10B24000F8029D4A74F7120487A2AFE492E0FEC2AE
:10B25000AF9009C2E06003120F58EE8002E508A229
:10B26000E092AF0297EE74F7120487A2AFE492E087
:10B27000FEC2AF9009C2E070199009AEE0A2E740AB
:10B28000119009B0E0700B9009C3E0A2E7400312EF
:10B290000F5EEE80CAC082C083A2AFE492E0FAC221
:10B2A000AF9009C1E070067401F075E1E302A98670
:10B2B000C082C083A2AFE492E0FAC2AF9009C1E0BD
:10B2C0006012E412B2D7E5A8C2AF759B0075E9FB26
:10B2D000A2E792AF02A986F075E1EF75E1ED75E1A5
:10B2E000ED22C082C083900D97E0606D439401E52C
:10B2F00094A2E250FAE0640270579061A512EF2E1A
:10B300009009E3E054F0601874689061EBF074FB0E
:10B31000906244F0746A9061ECF074FC906247F0C3
:10B320009009CBE0C39412501312B365F0900961F9
:10B33000E0906174F0900962E012B3757405906159
:10B340009412B35C75E9FBA2E792AF9061A312EF90
:10B350002EE4900D97F0120F4C029D4AF0E5A8C222
:10B36000AF759B002290095DE0906172F090095EDC
:10B37000E090617322906175F079087C717D097AA3
:10B380006A7B61120FEE2274F7120487E9FE7401E2
:10B390009009C3F0900D97E06008791D120F8E029E
:10B3A000B472EE9009C4F06402701A12B4FC75E134
:10B3B000D975E10175E10975E1BA75E10175E1C57C
:10B3C00075E1D2803CE49009C7128C41240EF8123A
:10B3D000B47FA2E6500590097A800390095CE09062
:10B3E00009C5F09009C4E07015900943E0600F9022
:10B3F00009C5E0C39403400474028001E0F0120F19
:10B40000709009CAE070459008FE12F767FAA3E051
:10B41000F5838A82E054209009C912D235FAA3E05C
:10B42000F5838A82A3A3E09009C812B483F5838AC6
:10B4300082A31284651280E48882898374022AF0D0
:10B4400075E1EE0AE0F5D9A31AEA70F8A2AFE4922A
:10B45000E0FAC2AF9009AEE070109009B0E0700A57
:10B4600074839009C312B490800874029009C312C7
:10B47000B4750297EEF0EAA2E092AF220808081233
:10B48000D8C722F09008FE12B48B22E0FAA3E02283
:10B4900012B475120F762274F612048775080175BE
:10B4A00009009009C5E07808120967E50814C0E0B2
:10B4B000120EBCE9FAD0E05A9009C6F09009C4E037
:10B4C000701112B4FC75E18175E11075E1D275E17E
:10B4D00081800C12B4FC75E1B875E18175E1B87535
:10B4E000E11075E1D275E1D975E10175E10975E108
:10B4F000BA75E10175E1C575E1D2800C120F9A753C
:10B50000E1BC2274021208237F0202060274F712C1
:10B51000048712B0FB9009C4E06402704D12B6DBE0
:10B52000A2AFE492E0FEC2AF75C300E5A2E5A4FFBE
:10B53000740F5FFA740FC39AF5089061E2F0120F6E
:10B540004674019009C1F075E1E175C300E5A2E51B
:10B55000A46F600FE508C39402400874FF250890AB
:10B5600061E2F0EEA2E092AF8003120F7C0297EE50
:10B57000C082C0839009C4E07028900900E0700286
:10B58000A3E0600D900900129A04121338E9FA80C2
:10B59000027A009009C6E0C39A4007791C120F8E08
:10B5A0008003120FA0029D4A74F7120487A2AFE431
:10B5B00092E0FEC2AF9009C3E0648370219009C994
:10B5C000E0701274859009C3F0EEA2E092AF7900AA
:10B5D000120F8E800E74869009C3F0120FA6EEA291
:10B5E000E092AF0297EE74F7120487A2AFE492E004
:10B5F000FEC2AF9009C3E0648670127487F0120F28
:10B60000ACEEA2E092AF79E9120F8E8005EEA2E0D7
:10B6100092AF0297EE74F7120487E9FEE49009CA2C
:10B62000F09009C3F0120F52120ECE120EDAEEF99C
:10B63000120D4E0297EEC008E5A8FAC2AF75C3001E
:10B64000E5A2F508E5A3FBEAA2E792AFEBF9A808AB
:10B650007A007B0212032BE8F9D0080207B9C082F6
:10B66000C083759C0174019061E4F075E1E275E1BD
:10B67000FFE5A8C2AF759B007591EFA2E792AFE519
:10B68000A8C2AF759B007591F702B1FFC082C0835D
:10B690009009C6E09061E2F0E06003E014F075A16B
:10B6A000FDA2AFE492E0FAC2AF75C300E5A2FBE5EC
:10B6B000A3FC9009CBE0C394125008EB7005EC702A
:10B6C000027B0175C3038BA28CA3EAA2E092AF12A6
:10B6D000B6DB120F5875E1E1029D4A9061A4E0D2F9
:10B6E000E4F0E0D2E3F02274F6120487120F94E93A
:10B6F000FF900940E02F24ECFA75F01484FE75F0F9
:10B7000014A4CA9AFA0E74029061E4F0EE9061E219
:10B71000F075A1FDA2AFE492E0FBC2AF75C3038A4E
:10B720000875090074097808120967F8A9099009D1
:10B73000CBE0C394125009E47001E970030879006A
:10B74000E8F5A2E9F5A3EBA2E092AF75E1E275E1BD
:10B75000FFE5A8C2AF759B007591EFA2E792AF75A8
:10B76000E1BC75E1B875E1D29061A4E0D2E4F07576
:10B77000E1E1120F94E9C39F500A9061E2E06E701C
:10B7800003E014F002B508C082C0839061A4E0C257
:10B79000E4F075E1E275E1FF029D4A74F01204875E
:10B7A0009061A4E0C2E3F0E5A8FEC2AF12B7F3EEE9
:10B7B000A2E792AF9009A1780C120A04780C7908DC
:10B7C0001209D4400A900CFA780C120A0480088AF4
:10B7D0000C8B0D8C0E8D0F9008FE12B7FF780C129B
:10B7E0000A13120FC49008FE12B805A3A312EF5754
:10B7F0000282C7120FD08A088B098C0A8D0B221285
:10B80000D886A3A32212B8092212AE99A32274F6F5
:10B8100012048774F012088874149061A9F0743FC0
:10B820009061ABF074F8906196F074859061A8F027
:10B83000745A9061ACF0E49061AEF074159061B20E
:10B84000F0E4906182F074109061B5F0740E906134
:10B85000B6F074039061B7F074099061FAF074FF68
:10B860009061E5F0439A01D2A843A90153B9FE9033
:10B870006249E09009CBF0E5A8C2AF75C30275A29A
:10B880000075A328A2E792AF439401E594A2E25089
:10B89000FA439408D2BA7448906189F0120F589014
:10B8A0006199E0A2E050F87A007C007B0812B97F31
:10B8B000C0E0ECC333FCD0E04CFC1BEB70EF8A081B
:10B8C000E50824D3F582E43409F583ECF00AEAC3F1
:10B8D000941040D5780079007C10E8C333F8E93340
:10B8E000F912B97F48F81CEC70F0E87001E9600AC1
:10B8F0007480687003740369700478BE79BAE8F5DF
:10B90000BCE9F5BC9009D1E07002A3E060467A0082
:10B910007C007B0812B97FC0E0ECC333FCD0E04C64
:10B92000FC1BEB70EF8A08851882851983E5822558
:10B9300008F582E58312849FECF00AEAC394104074
:10B94000CF851882851983AA82AB839009D1129A78
:10B9500004121338120F5E7440906189F0E0D2E552
:10B96000F0E4906164F0906165F0906166F0906140
:10B9700067F0906168F0906169F0741002B505900D
:10B9800061A7E0A2E0E492E02274F355B44404F528
:10B99000B4E5BDF9E5BC2400FAE439FB0207B9C0FF
:10B9A00008E5A8FAC2AF75C301E5A3FBE5A2F50857
:10B9B000EAA2E792AFAA0802B65974F41204877497
:10B9C000FC120888E5A8FAC2AF75C300E5A20280A0
:10B9D0001974F412048774FC120888E5A8FAC2AF3F
:10B9E00075C31002801974F412048774FC1208885D
:10B9F00012BA9D9009CDC082C08312BA42D083D0C2
:10BA000082780812092E8518828519837808120811
:10BA1000709009CD7808120A13E5A8FAC2AF75C371
:10BA200000851882851983E0F5A47401120A3EE0AE
:10BA3000F5A57402120A3EE0F5A6EAA2E792AF026B
:10BA4000804F120FCA8A088B098C0A8D0B22C08284
:10BA5000C08374FC12088812BA9D7A00A2AFE492E7
:10BA6000E0FBC2AFE5A7A2E450040A53A7EF75C3F9
:10BA700030851882851983E0F5A47401120A3EE02E
:10BA8000F5A57402120A3EE0F5A675A1EFEA60037F
:10BA900043A710EBA2E092AF740402A2488518827B
:10BAA000851983EAF0A3EBF0A3ECF0A3EDF0227488
:10BAB000F412048774FC120888E5A7A2E4504FE54D
:10BAC000A1A2E44049E5A8FAC2AF75C330E5A48558
:10BAD0001882851983F0E5A5C0E07401120A3ED0F2
:10BAE000E0F0E5A6C0E07402120A3ED0E0F0740374
:10BAF000120A3E128059C082C08312BA42D083D04B
:10BB00008278081209E45006120EB075A1EF028087
:10BB10004F74F412048774FE120888E5A8FAC2AFC5
:10BB200075C300E5A2E5A4851882851983F0E5A513
:10BB3000C0E07401120A3ED0E012805AC082C08375
:10BB40009009CD7808120A04D083D082E02508FA43
:10BB5000A3E03509FB02AE7874F712048780171949
:10BB60008C828D8312BB7CF0A3AA82AB838C828DE6
:10BB700083A3AC82AD83E970E60297EEE08A828B04
:10BB8000832212BB8AAA82AB8322F08A828B83A390
:10BB900022C082C083E5D98A828B83F0A3AA82ABBC
:10BBA0008319E970F0029D4A74F71204879009E640
:10BBB000E070369009E5E06402702E120EECE9FFA9
:10BBC000900AA3E0F9121024E9FEEFFA121018907F
:10BBD00009E4E0C0E0900D4CE0FAD0E0C39A500CCC
:10BBE0009009E4E004F012102A0297EEEE12BC81F4
:10BBF000C0E0900D4BE0FAD0E0C39A40E9900AD340
:10BC0000E060089009FDE064037006900AA3E080FC
:10BC100047EE12BE6912D1F875830D758249C3E0F3
:10BC200098A3E09940249009FDE004F06403700BB0
:10BC3000900D4712C8437B0212BEC29009FDE0641A
:10BC400003700CEEF912101E800DE49009FDF090C7
:10BC50000AA3E0F912115CE9FA900AA3E06A60868F
:10BC6000900CE8E0A2E4500E74049009E5F0EA902C
:10BC700009E7F002BBE9EA900AA3F012100C02BB3C
:10BC8000E975F007A4A9F024EEF582E93409F583FB
:10BC9000E022C082C0839009E612DC656402700372
:10BCA00012E3EB029D4AC082C0839009E5E0640183
:10BCB000700512DF78801BE06402700512E3EB80F0
:10BCC00011E0640470129009E7E0900AA3F0F91201
:10BCD000101274039009E5F0029D4AC082C083747B
:10BCE000019009E5F0900AA3E0F91210127AA37B03
:10BCF0000A79E1120E087C017D007A007B0112BEF8
:10BD0000C2029D4A74F712048789087900E9C0E0ED
:10BD1000A90812DC3FFAE5F03409FB7C07E4FDD00A
:10BD2000E0F9121318E49009E4F00297EE74F412AB
:10BD30000487E9FDEAFCED75F007A4A9F012BDF750
:10BD400064FF7004A3E064FF6010ED75F007A412B7
:10BD5000BDF72401F0A3E03400F0ED75F007A42452
:10BD6000EAF582E93409F583C082C083900DBA7880
:10BD700008120A04D083D0827808120941900CFA84
:10BD800078081208B4600AED75F007A412BC871495
:10BD9000F0ED75F007A424E8FAE93409FBEA24027F
:10BDA000EB34000A0AFB8A828B837808120A047437
:10BDB0000178081207758A828B837808120A13901B
:10BDC0000D4DE0C39C502DED75F007A424E8E93437
:10BDD000091A1AFB900CFE7808120A048A828B83D7
:10BDE000A3A3780812098D8A828B83A3A3A3A3A39C
:10BDF000A3E004F002805412BE71E02274F7120432
:10BE000087E9FBFC7D00EB6D604312BE7BC0E0EC7C
:10BE100012BE7CFAD0E0C39A403112BE7BFEEC1217
:10BE2000BC816E7028EC12BE69C082C083ED75F0D3
:10BE300007A424E8F582E5F03409F58312D1F8D09F
:10BE400083D082C3E098A3E0995002EDFC0DEDC3CE
:10BE5000940340B2EC7004790F800B74016C700491
:10BE60007914800279190297EE75F007A412BE7159
:10BE70002224E8F582E93409F58322ED75F007A460
:10BE800024EEF582E5F03409F583E022E9FA741432
:10BE90006A70047901800B74196A70047902800257
:10BEA00079000207B9C082C083900AA3E09009E735
:10BEB000F07C027D007A1012BEC0120EE6029D4A8E
:10BEC0007B00900CE7E0F91212462274F41204870A
:10BED000EAFEEBFF8E828F83A3A3A3A3A3E0A2E6D7
:10BEE000500575080880037508068E828F83A3A30A
:10BEF000A3A3E02508F98E828F83A3A3A3A3A3E0C5
:10BF0000A2E35004740429F97B007A00120D788AA8
:10BF10000A8B0BA80AA90BE87001E9700479BE80AE
:10BF20001D8E828F8312CFB9AA0888828983A3A32A
:10BF3000E02A12B0028E828F8312CFB7790002807E
:10BF40005474F0120487EAFEEBFFE4900C8412F3C1
:10BF500092F0A3F0900CE9E064016014E0640260E8
:10BF60000F74B4900C84F012C19912D0450282C7AC
:10BF7000900D437808120A0475830A7582C0780808
:10BF80001208B4700474B680DA8E828F83A3A3A3E0
:10BF9000A3A3E05409640960118E828F83A3A3A335
:10BFA000A3A3A3E07002A3E0700474E880B58E82BE
:10BFB0008F83A3A3A3A3A3E0A2E0402F7A807B0EEC
:10BFC0008E828F83E0F912111AE9600474B28093B3
:10BFD0008E828F83A3A3A3A3A3E0A2E3500D900EB0
:10BFE0008012D8BF700574BD02BF63900C84E060FE
:10BFF0000302BF678E828F83E0900E0512C1B3F8F3
:10C00000A3E0F9900E7E12CFBFEE240512C1775443
:10C0100015900CF412D235A2E05033900AC4E0A27D
:10C02000E0900E7EE0500512C191800312C75A12B3
:10C03000C766900E7EE0242212B0D774FFF0A3F002
:10C0400012C74C74FF12C1B8E4900E068050900ED7
:10C050007EE012C19112C1C4A2E1400512D8B040E5
:10C0600011900E7EE0242A12C75C12D8E512D890F7
:10C070008014900E7EE0242A12C19312D8E5240E7B
:10C0800012B0D712EF4412D8B0500512D8CC8003AA
:10C0900012C94912D8E5F812C186E0900CF512C118
:10C0A000C4A2E25006900CE812EF2E900E7E12B061
:10C0B0001812D22A740185088285098312C1C454DA
:10C0C000246424700912CBA3900AA3E08001E490B9
:10C0D0000E0612C1C4A2E65029850882850983E0B4
:10C0E000440312979F7002A3E07005900AC5800672
:10C0F0008E828F83A3A312D1F885088285098312CB
:10C10000CFB9850882850983E04428F012117A8A24
:10C110000C8B0D8C0E8D0F850882850983A3780CFE
:10C12000120A138E828F83A312CFD212C1C4A2E34C
:10C13000503A8E828F83A3A3A3A3A3A3A3A3120623
:10C14000B48E828F83A3A3A3A3E0F9900E8012CCB8
:10C1500014AA08AB091211807402120823E9700CAA
:10C1600012C199F074BE900C8402BF6A7903121157
:10C17000561211E602BF6D12C17CE022F8EF3400C6
:10C18000F9888289832212C18A22128B28A3A3A351
:10C1900022242D12C7567402228E828F83A3A3A35A
:10C1A000A3A3A312F3487402900C8312A46FE0902F
:10C1B0000C852212854BE022F0A3F0900AA3E090B8
:10C1C0000CF5F022128ED6A3E022C082C083900C20
:10C1D000EDE07025900CE8E0A2E2501D900E06E024
:10C1E0007004900CF5E0FB12F4DF12CE2CE06B60D3
:10C1F0000812F4DF12CE2EEBF0900CE8E0C2E2F071
:10C20000900AC4E0A2E0500C900CE8E0A2E45004D4
:10C210007902800279011211567402900C83F09019
:10C220000E0512D039029D4AC082C083900AA3E055
:10C230001206E100030F40C21444C21948C24CC2A6
:10C240007901800A79028006790380027900029DD3
:10C250004A74F5120487EAFEEBFF12C2C18E828F88
:10C2600083A3A3A982AA8389088A09750A0078088A
:10C270001207F17C0B7D007A077B0A12F4D91208B1
:10C28000238E828F83E07002A3E07003E480138E1C
:10C29000828F8312C8437B0812BEC2E4900A25F045
:10C2A0007401900A93F002C6ABC082C0831210548E
:10C2B000029D4AC082C08312C2C1E4900A93029DCB
:10C2C00049900CEAE0F0A3E054F7F07A007B081202
:10C2D000E8A02274F6120487EAFEEBFF7B008013CD
:10C2E0000A900A0712E53B30E30244F0FCEAC39CE3
:10C2F00040130B12E53530E30244F0FAEBC39A50D9
:10C30000257A0080DC8B08EE2508F8EF3400F974FC
:10C310002628F582E43912C66A240BF582E4340A31
:10C32000F583E06C70BA7A0080010A12E556FCEAE7
:10C330009C5018EE242D12C3CB601012C66C24083A
:10C34000F582E4340AF583E06C70DFEBC0E012E5BF
:10C350003530E30244F0FBD0E0C39B5062EAC0E01A
:10C3600012E556FAD0E09A5056900A25E0700E7405
:10C370000112C9557A1D7B0A12120A8042640170AB
:10C380003E8E828F83A3AC82AD837A1D7B0A12C35B
:10C39000C36027E49009FE12C9557AFF7B09121287
:10C3A0000AEE242E1284B0900A12F07402900A252C
:10C3B000F07AFE7B0912109C800579B71210660294
:10C3C000B508FB121204E922EE2416F582EF12845E
:10C3D0008864FF22C082C083900A25E0640270084E
:10C3E000900CEDE0F9121066029D4A74F712048772
:10C3F000E9FEE4900A93F012C2C17410900A13F09F
:10C40000EE900A14F07CFF7D097A157B0A12120A5D
:10C410007A137B0A0297EB74F5120487900CE9E01B
:10C420006401703D8A088B09750A0078081207F1CB
:10C430007C1A7D007A267B0A12F4D9120823E49034
:10C440000A92F0900A40F0900A91F0790412115685
:10C45000740F900CF5F01211AA121096121084802D
:10C46000107406900E0A12CBB7F0E4900E0C12C4B2
:10C47000DA02C6ABC082C083900CE9E06404702885
:10C4800012C67312C4E3900A92E0A2E25005D2E30E
:10C49000F0801579011211567411900E0AF01211E4
:10C4A000B07A0A7B0E120C4C029D4AC082C0839067
:10C4B0000A92E0A2E25020C2E2F0A2E3500D12CCB8
:10C4C000087411900E0A12C4DA800C900CEDE06032
:10C4D0000612C4E3121090029D4AF07A0A7B0E12F3
:10C4E0000C4C22900CEAE054FB12E8AF7A0412E8FC
:10C4F0009E2274F5120487EAFEEBFF900CE9E064DB
:10C5000004600302C65312C65E600302C653900A5B
:10C5100040E0C3940A400302C653750A0080231208
:10C52000C655850A0875090074037808120967E57D
:10C53000082441FAE509340A12C3C2600302C65353
:10C54000050A900A40E0FAE50AC39A40D2740590C1
:10C550000C83F0900CF5E0900C8512C693900C863D
:10C5600012C6857A887B0C12120A129C8B2411F554
:10C5700082E912D1E950047C0F80027C0012D207BC
:10C5800030E30244F012CA73741312D1CD7001EB80
:10C59000600302C65388828983A3A3A3A3A3A31223
:10C5A000CE38E82407FCE93400FD7A907B0C12CAEF
:10C5B0006A900CB4F07B00800C0A900A36E0FCEA2A
:10C5C000C39C40160B900C9A12E53B30E30244F0FA
:10C5D000FAEBC39A501F7A0080E08B08E50824AD7F
:10C5E000F582E4340C12C66A2437F582E4340AF585
:10C5F00083E06C70C4900A36E0600E900C9A12E5ED
:10C600003B30E30244F06B604A12C655900A401278
:10C61000A0B274037808120967E5082441FAE50915
:10C62000340AFB12120A900A40E00412D045900A24
:10C6300040E0640A6009E0FA900AADE06A70141202
:10C64000C673900A9212DC60900AAAE0600514900A
:10C650000A91F08056EE2412FCEF3400FD22EE2405
:10C660001AF582EF128488640322F583E0FC8A08BD
:10C67000E50822900CEAE0F0A3E054FBF07A007B9E
:10C680000412E8A022E8F0A3E9F0EE2412FCEF3453
:10C6900000FD22F0EE242A12C69B22F582EF340020
:10C6A000F583E0F8A3E0F9221208237F03020602D3
:10C6B00074F6120487900A2AE0A2E05004780F80F2
:10C6C000027800FC7B007A0074705CC4C0E012CB7E
:10C6D0009BD0E02C2412F912D8F07002A3E0700A6B
:10C6E00012CC0879BE12108A805F900E7EE012C7CD
:10C6F0005A12C766900A2812EF44900A2612B00C0C
:10C7000012C74C12D8F612EE1CA3A312D88B7401D8
:10C710008E828F83A3A3A3A3A3F07C2A7D0AEE2499
:10C7200006FAEF12C934900A3512C940900A3E1237
:10C73000CC147A0412BEC0741112F38FE4F0A3F08B
:10C74000900A92E0D2E212F2DD02B508900E7EE08D
:10C75000242B12C7562212F3B122242D12C76022B5
:10C7600012F3B174032212F3A07402F02274F712D0
:10C770000487E9FE7406900C83F0900AADE0C0E0F7
:10C78000900A40E0FAD0E0C39A500474B78008E001
:10C79000700474B88001EE900C84F0900A40E09030
:10C7A0000C850297E8C082C08312F77B640F703556
:10C7B000900A91E004F0900A9212EF3F900A91E003
:10C7C000C0E0900AAAE0FAD0E0C39A400D12CC086B
:10C7D000900CEDE0F912108A8017900A92E0A2E026
:10C7E000500F1210967AF57B0C79E1120E08121098
:10C7F00084029D4AC082C083900A9112C838900A70
:10C80000AAE0FAE89AE99400C365D033501D900A73
:10C81000A5E07002A3E06013900AA512C8437B0450
:10C8200012BEC2900A92E0C2E08006900A92E0D264
:10C83000E0F0E0C2E1029D49E0F874012808E43428
:10C8400000F922E0FCA3E0FD7A002274F6120487CE
:10C85000EAFEEBFF900CE9E06401600302C8FD749E
:10C860000312CBC0900C86F0A3F07401900C8812D8
:10C87000C9557A897B0C12120A8E828F83A3A3A3D7
:10C88000A3A3A3A3A3A3E0A2E05004780F8002789F
:10C8900000FC7B007A0074705CC4C0E012CB9BD0BB
:10C8A000E02C2413F912D8F07002A3E0700302C93F
:10C8B0003112CB8E900E7EE0242212C94512C94956
:10C8C00012CBD0740285088285098312CFC5F0EEA1
:10C8D0002409FCEF3400FDE5082407FAE50912C934
:10C8E00034EE241412849C12C940790712CF7812B6
:10C8F000C1BA900E80E4F0A312F2DD80347403908C
:10C900000E0AF074FF900E0CF0900E0D12CFA412D0
:10C91000C9557A107B0E12120A74B4900E0BF09067
:10C920000A93E070097A837B0C120C4C800312107E
:10C930006002B50812CB7E8A088B09A808A90922D3
:10C94000129763F02212D8A62212C94D2212F3AB1D
:10C9500074FFF0A32212CFB1AC82AD8322C082C09B
:10C96000837901121156900CED12CE38900A93E0A3
:10C9700070097A837B0C120C4C8003121060029DAC
:10C980004A74F6120487EAFEEBFF900CE9E06401BA
:10C99000600302CA6712C65E600302CA67EE2430F3
:10C9A000F582EF12EF33400474FF8003E0C333904D
:10C9B0000CE4F0C0E0900AA4E0FAD0E0C39A50037F
:10C9C00002CA677404900CB5F0EE2412F508EF1259
:10C9D000E628AC08FD7AB77B0C12120AE4900CB67C
:10C9E000F0AA08AB0912114AEA7001EB700E12119D
:10C9F00050E964FF700674B1900CB6F0129C8B1273
:10CA00008011A2E050047C0F80027C00F5088E8229
:10CA10008F83A3A3A3A3E0FE7406550812D21F556B
:10CA200008C430E30244F012CA7374122AFAE43BD9
:10CA3000FBEA6E7001EB702FE82406FCE93400FD80
:10CA40007ABF7B0C12CA6A900CE3F0900A93E070F4
:10CA50000F900AA9E060107AB57B0C120C4C80078D
:10CA60007AB67B0C12105A02B5081211748A828BA6
:10CA700083E022FA3395E0FBEA2CFAEB3DFB2274CB
:10CA8000F6120487EAFEEBFF900CE9E06401600314
:10CA900002CB628E828F83A3AA82AB8312114AEAF1
:10CAA0007001EB7013121150E964FF700B12CBBED2
:10CAB00074B012CB8502CB7512D1E35004780F808D
:10CAC000027800FC7B007A0074705CC4C0E012CB7A
:10CAD0009BD0E02C2414F912D8F07002A3E070036C
:10CAE00002CB7812CB8E12CF8CA3A3A3A3A3A3A3B4
:10CAF000A312CBCB900AC4E0A2E0500F12CBA390BC
:10CB00000AD112CF94E8F0A3E98012850882850942
:10CB100083A3A3A3A3A3A374FEF0A374FFF07403E1
:10CB2000850882850983A3A3A3A3A3F012CF812440
:10CB30000812CB7BEE241612C17C12BB7C12D235BC
:10CB4000900E67F079051211568E828F83E0900C5B
:10CB5000F5F01211AA742412F38FE4F0A312F2DD9F
:10CB600080167409900E0AF074FF900E0C12CBB769
:10CB7000F07A0A7B0E120C4C02B508FAE509340073
:10CB8000FB12116E22900C84F07A837B0C2212111E
:10CB9000688E828F83A3AC82AD832274065CC3133C
:10CBA00028FC22121042E9C4333354C0FA850882AB
:10CBB000850983E04AF022F074B4900E0B227409C8
:10CBC000900C83F074FF900C85F022A3E012D8D96A
:10CBD00012F397F508A3E0F509AA08FB12116222E7
:10CBE000C082C083900CEDE0700D900AAE12CC14A0
:10CBF0007A0812BEC0800E12CC087409900C83F023
:10CC000074FF12D03A029D4A79011211561211B0E6
:10CC10002212EC71E0FCA3E0FD2274F01204878A7A
:10CC20000C8B0D900CE9E06405600302CE22EA242F
:10CC30001AF582EB12C664600302CE228A828B83CD
:10CC4000A3A3128C2B2415F582E50912D1E9500417
:10CC50007A0F80027A00FE850C828B83A3A3A3A3A4
:10CC6000E0FC74065EC3132AFAE43400FB74705EC1
:10CC7000C430E30244F0F83395E0F9E82AF8E93BE0
:10CC8000F9741628F8E439F9E86C7001E9600302D8
:10CC9000CE22900CEAE054F712E8AF7A0812E8814D
:10CCA0007409900C8312CE3E12CE38E508240BFC9A
:10CCB000E5093400FD7A867B0C121174900C84E037
:10CCC000600302CE18E50C2412FAE50D12D1D670DD
:10CCD00002E5836005E0F50A800B121150E9F50AC0
:10CCE00012E1BAE9F0E50A900C85F0900C86E0A21A
:10CCF000E0502B85088285098312D20012067E013E
:10CD0000021ECD09CD10CD17CD12CE25740F80197E
:10CD100012CE257414801212CE257419800B900C3B
:10CD2000F5E0C0E012CE25D0E0F0E875F02BA424A9
:10CD3000D5FEE9340AFFE50C242AF582E50D12EC54
:10CD40006212CFBFE50C2412FCE50D3400FDEE2489
:10CD500004FAEF3400FB12120A900AC4E0A2E05079
:10CD600005900AD1800D850882850983A3A3A3A31A
:10CD7000A3A3A312B00CE50A75F02BA424D6F58268
:10CD8000E5F0340AF583EAF0A3EB12CE3EA3A3A3A9
:10CD900012A52612849A12CFBFEE2424F508EF12B2
:10CDA000E6287C037D007900AA08FB121318750C95
:10CDB000A0750D0C750E00780C1207F1900C9012F6
:10CDC000E54FAA08AB0912F4D9120823900C871278
:10CDD000A526242212849C12CFBF900C86E0C0E0CE
:10CDE000EE241012849CD0E0F0900CFA780C120A19
:10CDF00004EE242712849C780C120A13EE2411F5F9
:10CE000082EF12D4117403900E7DF0A90A1211C2A0
:10CE100074FF900E68F0800A12CC087A837B0C12A3
:10CE20000C4C0282C7A80AE875F02BA4A9F024D8FC
:10CE3000F582E9340AF58322E0900C84F022F08533
:10CE40000882850983A3A3A3A3A3A32274F61204D3
:10CE500087EAFEEBFF900CE9E06401600302CF5B20
:10CE600012C3C8600CE0FA900A9DE06A600302CF2A
:10CE70005B7403900C8312CFDF900C8512CFAD1240
:10CE8000D1F8900C8612CFBF7401900C8812D44454
:10CE90007A897B0C12120A12D1E35004780F8002B7
:10CEA0007800FC7B007A0074705CC4C0E012CB9BFD
:10CEB000D0E02C2416F912D8F07002A3E07003021F
:10CEC000CF758E828F83E0700E12C3C86009EEFAB0
:10CED000EFFB1210D2800674FF900A9DF012D877F3
:10CEE000EE2403FCEF3400FD12CF8C12CBCB12CB1F
:10CEF000A3740412CFC512CFDF64FF602212F4E2E4
:10CF000012F1F3A2E04018EE241612849C12D423EE
:10CF1000E9340AF58312CF94A3E8F0A3E9801385DE
:10CF20000882850983A3A3A3A3A3A3A374FEF0A3EC
:10CF300074FFF0E5082409FAE5093400FB7953127F
:10CF40000E0212CF81240B12CB7B790812CF7812FC
:10CF5000F392E412C1B81211E6801A7403900E0A1B
:10CF600012CFDF900E0CF0900E0D74FF12CFA412B2
:10CF7000CBB712C4DA02B5081211567414900CF42F
:10CF800022EE240BFCEF3400FDE5082212D89C8E23
:10CF9000828F832212C6A2850882850983A3A3A358
:10CFA000A3A3A322F0A3F07401900E0F2212CFB11D
:10CFB0002212A46FA322A3A3A3A3A3A3A3A3A3E8C2
:10CFC000F0A3E9F022A3A3A3A3A312A46F12CFD2CC
:10CFD000A322E0850882850983A3A3A3A3A322F04B
:10CFE000EE241612848522C082C083900A9DE064DC
:10CFF000FF6018900CEDE0601C900A9D12F53690D1
:10D000000A9D12EC5C74FF900A9DF0790112115692
:10D0100012D03E8021E4900E7DF0900A9DE0F9123E
:10D0200011C2E96011E4900E68F07A4F7B0D79E54A
:10D03000120E081211C8029D4AE0900C85F0900C67
:10D04000EDE0900C8412CB88120C4C2274F2120486
:10D0500087EAFEEBFF900CE9E06401600302D15C1B
:10D0600012C65E600302D15C900A93E06401700313
:10D0700002D15C900AC4E0A2E0400302D15C129CA1
:10D080008B2412F582E912D1E950047C0F80027CD6
:10D090000012D20730E30244F012CA73741412D1A2
:10D0A000CD7001EB600302D15C88828983A3A3A3C6
:10D0B000A3A3A312D22A12D1FC12067E0102D5D05C
:10D0C000C6D0CBD0D0D0750A0F8010750A14800B53
:10D0D000750A198006900AA3E0F50AE82408FCE91D
:10D0E0003400FD7AC17B0C1211748A0C8B0DA80CD4
:10D0F000A90D88828983E0900E6712D235900CE6E4
:10D10000F0900A9DE064FF6005750BFF8020EE241F
:10D1100012FAEF12D1D67002E5836007E0F50B74C6
:10D12000B58007121150E9F50BE4900CB6F07408C5
:10D13000900CB5F0E50B900CE512C693900CB7126D
:10D14000C6857AB97B0C12120A74FF650B701074D5
:10D15000B1900CB6F07AB57B0C120C4C02846FE5E2
:10D160000B900A9DF0900CC1E0900A94F0900A9503
:10D17000E508F0A3E509F0E50A900A97F0900CC2E3
:10D1800012D1F8900A9812CFBF7A0080198A82A82B
:10D1900082E824DBF582E4340CF583E0C0E0E81299
:10D1A000D1C3D0E0F00A900CCB12E559FBEA9B40CA
:10D1B000DCEAC39403509E8A08E50812D1C3E4F068
:10D1C0000A80EE249AF582E4340AF583222AFAE4EE
:10D1D0003BFBEA6508223400FB12114A8A828B83EA
:10D1E000E58222EE240BF582EF128488A2E022A3CE
:10D1F000A3A3A3A3A3A3A3A312C6A2228882898365
:10D20000E0C41313540322F50A8E828F83A3A3A3D1
:10D21000A3E0F5087406550A12D21F550AC422C3AA
:10D22000132CFCE43400FD747022E0F508A3E0F553
:10D230000922F0A3EBF088828983E02274F41204BF
:10D240008774FC120888EAFEEBFF900A9DE0C0E0BC
:10D2500012E1BAD0E0F0900A94E0A2E0502F900AD8
:10D260009D12F2058E828F83A312B00CE8240CF578
:10D2700082E912849F12EF57900A9512B00CE812BF
:10D280008FFBE912849FEAF0A3EB02D35D900ACFF3
:10D2900012B00C900A9D12F4E224E1F582E5F0341C
:10D2A0000AF58312EF577402120A3EAA82AB837901
:10D2B00050120E02851882851983AA82AB83795396
:10D2C000120E02120FBE8A088B09A808A909851838
:10D2D00082851983E0687003A3E06960E6C3E8947F
:10D2E000FEE994FF50DD750900AA09EA75F02BA448
:10D2F000ABF024D5F582EB340AF583E064FF603BA4
:10D30000EA75F02BA424E3F582EB340AF583E06898
:10D310007003A3E06970247402120A3E12B00CE597
:10D320000975F02BA485F00824E1F582E508340A9C
:10D33000F583E06A7003A3E06B60090509E509C3A2
:10D34000940A40A5740A6509600302D2C3900A9D3D
:10D3500012D423E5F0340AF583E8F0A3E9F0900A4B
:10D3600094E0A2E0500D900A97E0C0E012D42BD0D8
:10D37000E08012900AA3E0C0E012D42BD0E012CFDC
:10D38000AD74FFF0A312D444900A9D12F4E224D9A4
:10D39000FAE5F0340AFB12120A900A9D12F200E537
:10D3A000F0340AFB900AD112D43C12CFBE900A94FA
:10D3B000E0C0E0128920D0E0F0900CFA7808120A60
:10D3C00004EA2427F582EB12849F7808120A1312CC
:10D3D000D40612D411900A9812A3EB2422F582EB02
:10D3E00012849F12CFBF75089A75090A750A0078D2
:10D3F000081207F17C037D00EA2424FAEB12D41A08
:10D4000012082302804FEA2411F582EB22F582E50F
:10D410000912EC71E4F022FAE50B3400FB1213243C
:10D4200074032212F4E624E3F58222900A9D12F49A
:10D43000E624D8F582E5F0340AF5832212C6A28AE2
:10D44000828B8322F0EE2403FCEF3400FD2274F47F
:10D4500012048774EA120888900AC4E0A2E05050CF
:10D46000790A121156900DBE7808120A047401123E
:10D470000A3E7808120A137405120A3EE4F0900A74
:10D48000B0E0C0E07406120A3ED0E0F07408120A60
:10D490003E7403F07414120A3E7407F0A3740EF085
:10D4A0007401900A9EF0120A3EAA82AB83120E62A9
:10D4B0007901121270900AC4E0A2E0402012DF62EB
:10D4C000740D900C83F0E4900C84F0740185188244
:10D4D00085198312DC827A837B0C120C4C74160241
:10D4E000805174F012048774E9120888EAFEEBFF99
:10D4F000900CE9E0640A600302D6C88E828F83A391
:10D50000A3E0600302D5D7750A007A01802A8E82D3
:10D510008F8312D1EF8A08E82508F582E91284B3D7
:10D52000C0E0850A08E82508F582E91284B3FBD03B
:10D53000E0C39B50028A0A0A8E828F83A3A3A3A30F
:10D54000A3A3A3A3E0FBEAC39B40C3E50A12067EA4
:10D55000000160D558D55CD5740F80067414800224
:10D560007419900AA3F0900DBE780C120A0474028C
:10D57000120A3E780C120A137406120A3E7401F065
:10D58000900AB0E0C0E07407120A3ED0E0F07409DF
:10D59000120A3E7405F07AA57B001213127415125C
:10D5A0000A3E12EF577415120A3EE07002A3E070B3
:10D5B00017E4900A9EF0F9121156740D900C83F046
:10D5C00074BE12D04202D6C87402120A3EAA82ABBE
:10D5D00083120E6202D6C812D6CD12D6EB64FF704B
:10D5E00004A3E064FF60F07D00803A85188285190D
:10D5F00083E0FAED75F021A4F8A9F08E828F83A361
:10D60000A3A3A3A3A3A3A3A3E028FCA3E0398C8234
:10D61000F583A3A3A3A3A3A3A3A3A3E06A7003A377
:10D62000E06B60B30D8E828F83A3A3A3A3A3A3A3F8
:10D63000A3E0FAEDC39A40B38E828F83A3A3A3A382
:10D64000A3A3A3A3E06D708F8E828F83A3A3A3A354
:10D65000A3A3A3A3A3E07002A3E060108E828F8334
:10D66000A3A3A3A3A3A3A3A3A312F3448518828512
:10D670001983AA82AB83795012F6A712D1F8900AC7
:10D68000CF12CFBF12D6CD12D6DBC3E094F0A3E009
:10D6900094FF50F0851882851983AA82AB83795351
:10D6A00012F6A712D1F8900AD112CFBF7CCF7D0A13
:10D6B0007A027922120BCE7CD17D0A7A027923126A
:10D6C0000BCE1210E41210EA74170282C4120FBEBD
:10D6D000851882851983EAF0A3EB2212D6DF221285
:10D6E000D6E322F08518828519832212D6DFE02244
:10D6F000C082C08312DC4A7A9A7B0D7946120E08EA
:10D700007A987B0D7945120E087AA07B0A7941122E
:10D710000E08029D4A74F412048774DD1208889082
:10D720000ACF12D1F87404120A3E12CFBF900CFA3D
:10D730007808120A048518828519837808120A135A
:10D74000900AA3E0C0E07406120A3ED0E0F074082C
:10D75000120A3E740FF07409120A3E740FF0740A34
:10D76000120A3E7401F0740B120A3EE4F0740C12BB
:10D770000A3EE4F07415120A3EE4F07420120A3EE8
:10D78000E412D78C120D24742302805112D79022F8
:10D7900012D6E3AA82AB832274F41204878908901C
:10D7A0000CE9E06401700A7A807B0E12111AE960BC
:10D7B00028900CE9E06401600474B4800274B290B3
:10D7C0000E0BF0740E900E0AF0E508900E0CF07A35
:10D7D0000A7B0E120C4C02D874900E8012D8BF7BBC
:10D7E000007A006004790A8002790612D8F070028B
:10D7F000A3E07013740E900C83F0E508900C85F094
:10D8000074BE12CB8580CC12D877900E80E012D8EF
:10D810009012D8B0500512D8CC800312C94912F624
:10D820006012D88B74058E828F83A3A3A3A3A31247
:10D83000D8E52411F812B47F602212EF2AEE2405F5
:10D84000F50AEF3400F50B780A1207F5790112F3A7
:10D8500052120823E9700512F341809879061211DB
:10D8600056900E8012D881900CF5F0E508900A9F32
:10D87000F012F2D8028054900E7E12B0101211688D
:10D880002212D886E02212B020A322E012F38322D3
:10D8900012D894222404FCA3E03400FD900E7EE014
:10D8A000242212D8A622FAA3E03400FB12120A2284
:10D8B000900E80E0241012D8C6A2E0229008FEE06C
:10D8C000241112D8C622F812F3B2E022900E80E0A2
:10D8D000240C12D8C612D8D922FAA3E0FB12F3AB5B
:10D8E000EAF0A3EB2212F392E0227B007A00790F98
:10D8F000120D78900E7EEAF0A3EBF0900E7EE022FF
:10D90000C082C08374FE120888851882851983AA94
:10D9100082AB83900A9FE0F912111AE9700912D9BB
:10D9200062900A9F12EC5C7901121156740E900CF1
:10D9300083F0900A9F12D03902F63974F7120487E7
:10D9400074FE120888E9FE851882851983AA82ABC5
:10D950008312111AE9700812D962EEF91211440209
:10D960008EAC851882851983128B1E74FFF0227489
:10D97000F512048774F8120888E9900CE7F0E49037
:10D980000CE8F07401900AD3F0747F900AD4F0E4AC
:10D990009009E5F0120E26121132E4900AC4F090BC
:10D9A0000ACEF0900ACF74FFF0A3F0900AD1F0A352
:10D9B00012D6DBAC82AD837A087901120BD4E97000
:10D9C0002875089C75090D750A0078081207F17C06
:10D9D000087D007403120A3EA982AA837B001213F9
:10D9E0001E7403120823E9603275080C75097875F6
:10D9F0000A0078081207F17C087D007403120A3EC1
:10DA0000AA82AB8312F4D912082385188285198360
:10DA1000AC82AD837A087901120BCE12113E7408E4
:10DA200002C6A874F612048774FD120888EAFEEB99
:10DA3000FF74805FF9E47001E9700302DAC4900CAE
:10DA4000E712DC6E12CFBFE87001E9606E851882C4
:10DA50008519831284A41206E100030773DA088093
:10DA6000DA0D66DAAEDA851882851983E0FA1211CA
:10DA700092803B851882851983E0FA1210DE802E91
:10DA8000900CE9E0640A7026740D900C8312DC8F10
:10DA900012CE38700A7402120A3E740112DC8279C6
:10DAA00001121156900A9EE06004E412D0458518D8
:10DAB00082851983AA82AB83120DC0EEFA74806F3F
:10DAC000FB02DC3A900CEAEEF0A3EFF0900CEAE0F7
:10DAD000A2E050031211F2900CEAE05480600312AD
:10DAE0001186900CEAE054026005E4900CF4F0908A
:10DAF0000CEAE05404600B900CE9E064047003123B
:10DB00001090900CEBE05404F9E47001E96021906E
:10DB10000CE9E064047019900A9212DC60A2E150F2
:10DB20000F1210967AF57B0C79E1120E0812108410
:10DB3000900CEAE054086013900CE9E06405700B67
:10DB400012CC0812CBBE74B312D042900CEAE0544F
:10DB500020602E900CE9E064016005E0640270161C
:10DB600012DC4A900CE812DC656403700912102A7A
:10DB700074029009E5F0900AA112CC147A4012BE0A
:10DB8000C0900CEAE05440601E900CE8E0A2E45023
:10DB900016900CE9E064016005E06402700612E78B
:10DBA000E312100612E7F4900CEBE05401F9E47074
:10DBB00001E960149009E6E0700E9009E5E0640167
:10DBC00070067402F012102A900CEAE05410600300
:10DBD000120FFA900CEBE05402F9E47001E96018BE
:10DBE000900AA3E0F912DC3FF582E5F03409F583F1
:10DBF000E4F0A3F09009FDF0900CEBE05408F9E498
:10DC00007001E9600579B8121066900CEBE05410D1
:10DC1000F9E47001E9601F900E7DE06403600AE0A2
:10DC200064046005E06402700779B91211E08006AF
:10DC3000E070037401F07A007B00740302B50512F2
:10DC40001024E975F007A424E8227AA37B0A79E17D
:10DC5000120E087A9B7B0D7952120E082290618079
:10DC6000E0D2E0F022E0D2E0F09009E5E022E0F935
:10DC70001213008A088B09A808A90985188285193A
:10DC80008322F0AC82AD837A0079831211262212AE
:10DC9000DC932212D6E3128B22A32274F51204879E
:10DCA000E9FEEAFFECFAEDFB74A02EC39410505F7E
:10DCB0007CF07D1474A02EF50A850A08750900749D
:10DCC000027808120967EC2508F582ED350912DFA4
:10DCD000577001E9604D850A0875090074027808DB
:10DCE000120967EC2508FCED3509FDE493F508748D
:10DCF0000193F509750A0078081207F18C828D836B
:10DD0000A3A3E493FC7D0012F4D912082380677466
:10DD1000802EC3940950087C9C7D1574808097796F
:10DD2000F4805574686E7025EFC3940A501BEF752C
:10DD3000F02BA424D5F508E5F0340AF509750A009E
:10DD400078081207F17C2B80BC79F9802B74846EE3
:10DD5000700DEAFCEBFD7A087901120BD480177480
:10DD6000676E70BB900CE8E0A2E45004740180017F
:10DD7000E48A828B83F0790002C6AB74F6120487C2
:10DD8000E9FC74A02CC3941050257AF07B1474A085
:10DD90002CF50875090074027808120967EA25084D
:10DDA000F582EB3509F583A3A3E493F902B5087472
:10DDB000802CC3940950087A9C7B15748080D1799B
:10DDC0000080E9C082C083E9FD12EC296D7017ED77
:10DDD00075F02BA424D5F8E9340AF98A828B8312D2
:10DDE000CFBF7900800279B2029D4A74F412048791
:10DDF00074F8120888E9FE12113E7901120DF685B9
:10DE00001882851983AC82AD837A087901120BD40C
:10DE1000851882851983AA82AB8379E2120E089055
:10DE20000D4EE0906196F07AD47B0A79E5120E08E7
:10DE3000EE607C1211327F008F0875090074027841
:10DE400008120967E50824F3F582E5093414F5831F
:10DE5000E49360398F087509007402780812096725
:10DE6000E50824F0F582E509341412DF577001E962
:10DE7000601B8F0875090074027808120967E508AD
:10DE800024F0F8E509341412E22E120BCE0FEFC382
:10DE9000941040A47F00EFF91211440FEFC3940ACD
:10DEA00040F47CA07D0A7A007983121126801B90B1
:10DEB0000DC27808120A04900AC078081209A07CE2
:10DEC000C07D0A7A047906120BCEE4900CE8F0903B
:10DED0000CE9F07AA37B0A79E1120E089009E6E0DA
:10DEE00070229009E5E06402701A12E8A97A101213
:10DEF000E887F0A3E054FDF07A007B0212E8831279
:10DF00000EEC800B9009E5E06401700312DF78E409
:10DF10009009E5F012105474FF900A9DF0790112F7
:10DF20001270900ACEE0602A900AC4E0A2E0501F6E
:10DF30007ACF7B0A7950120E087AD17B0A79531274
:10DF40000E08790A1211561210E41210EA80031218
:10DF5000DF627408028051F583E493F8740193F949
:10DF6000E8227A9B7B0D7952120E08900CE8E0D2E1
:10DF7000E0F0790112115622900CEAE0F0A3E0548F
:10DF8000FEF07A007B0112E8A02274EC120487896B
:10DF90000B8A0AECFEEDFF74A0250BC3941040031E
:10DFA00002E08E7508F075091474A0250BF5128532
:10DFB000120C750D007402780C12096712E0E91258
:10DFC000DF577001E9604485120C750D007402780A
:10DFD0000C120967E508250CF510E509350DF5115A
:10DFE0008E0C8F0D750E00780C1207F1851082854E
:10DFF0001183A3A3E493FC7D00851082851183E443
:10E0000093FA74019312F4D812082385120C750D3B
:10E01000007402780C12096712E0E9F583A3A3A348
:10E02000E493603475130074027812120967E508EE
:10E030002512F510E5093513F511EEFCEFFD8510FD
:10E0400082851183A3A3E493FA851082851183A3AB
:10E05000A3A3E493F9120BCE7468650B704CE50A28
:10E06000C3940A50418E0C8F0D750E00780C120768
:10E07000F17C2B7D00E50A8CF0A424D5FAE5F03480
:10E080000A12F4D8120823A90A1211448056748087
:10E09000250BC39409500B75089C750915748002F3
:10E0A000DFAB79F4804079F9803C7461650B7005D1
:10E0B0001211A4802F7484650B701AEEFCEFFD7AA8
:10E0C000087901120BCEE97008EEFAEFFB79E280D5
:10E0D0001079BE80117488650B7009EEFAEFFB7938
:10E0E000E5120E08790002A679E508250CF582E50F
:10E0F00009350D2274F21204878A088B098A828BF3
:10E1000083E01206E10004075CE10893E10C15E1ED
:10E110000D50E190E1EA2403F8EB3400F9E8FEE960
:10E12000FF8E828F8312B00C120DBA85088285098A
:10E1300083A3E0900CED12A46B12D1F8900CEE12B8
:10E14000CFBF7A017B00900CE7E0F91212E2804029
:10E15000AE08AF09EE7001EF6036802A750B0BAA8E
:10E160000B7B001213128A0C8B0DAE0CAF0DEE70F0
:10E1700001EF601C750A0078081207F1AC0B7D00F6
:10E1800012F4D9120823EEFAEFFB900CE712913249
:10E1900002846F750B0280C7C082C0839015C07C5B
:10E1A000A17D0A7423120732FBEB12E1BA74FFF06F
:10E1B0000BEBC3940A40F2029D4A75F02BA424D5C0
:10E1C000F582E5F0340AF5832274F4120487EAFE3E
:10E1D000EBFF8909750800804B85080A750B0074F0
:10E1E00002780A12096712E246A3A3A3E4936032FD
:10E1F00085080A750B007402780A12096712E24654
:10E2000012DF597001E9601A85080A750B00740263
:10E21000780A120967EE250AF8EF350B12E22E1282
:10E220000BD40508E508C3950940AE028054F9E413
:10E2300093FC740193FDA3A3E493FA88828983A3DA
:10E24000A3A3E493F922EE250AF582EF350BF583BB
:10E250002274F712048779107AF07B14121138793E
:10E26000097A9C7B15121138750800E50812E29CAA
:10E27000120BD412E2B4120BD40508E508C3940AB9
:10E2800040E90297EE74F71204878908E912E29CCC
:10E29000120BCE12E2B4120BCE0297EE75F02BA445
:10E2A00024D5FEE5F0340AFFEEFCEFFD7A27742456
:10E2B0002508F922EE2427FCEF3400FD7A04742EA1
:10E2C0002508F92274F7120487EAFEEBFF750800AF
:10E2D000A808E812EC236024EEFCEFFDE875F02BB3
:10E2E000A424D9FAE9340A12C3C26010E50875F013
:10E2F0002BA424D5FAE5F0340AFB800D0508E508C7
:10E30000C3940A40CB7A007B000297EEC082C083A0
:10E310007900E912E1BAE064FF600909E9C3940AEF
:10E3200040F079FF029D4A74F7120487E9FE900CD1
:10E33000E9E0FF74016F7005121000800574026F30
:10E3400060F6EE900CE9F074016E705D900AC4E026
:10E35000A2E050097AA37B0A79E1120E089009E540
:10E36000E07029900AC4E0A2E0507D74029009E5B3
:10E37000F0E49009E6F07C15FDF97AE87B091213C8
:10E3800018E49009FDF09009E4F080599009E61234
:10E39000E7EF74026F70439009E5E064036005E005
:10E3A0006404704412100C803F74026E703A900A3C
:10E3B000C4E0A2E050097AA37B0A79E1120E08902A
:10E3C00009E612E7EF74016F70109009E5E064024E
:10E3D00070167403F012E3EB800EE0700B9009E509
:10E3E000E06402700312102A0297EE12E8A97A1074
:10E3F00012E89E120EEC22E9FA740F6A7004791486
:10E40000801074146A70047919800774196A700294
:10E41000790F0207B974F4120487EAFEEBFF742A3D
:10E420008E828F83F012117A8A088B098C0A8D0BE9
:10E430008E828F83A3028009C082C083EA242DF5D7
:10E4400082EB12849F7403F0EA242AF582EB128493
:10E450009F7403029D4974F1120487EAFEEBFF8C5E
:10E46000088D09900AC412E540900AC512E54712CA
:10E47000CFBE750CC7750D0A750E00780C1207F12A
:10E480007C077D00EE24030A0A0AEF12D41A120850
:10E490002385088285098312F2CCA3A3A3A3F0EEFF
:10E4A000240BFEEF3400FF850882850983E0A2E09B
:10E4B000501B750CB1750D0A780C1207F17C0F1208
:10E4C000F4D3120823EE240FFEEF3400FF850882F8
:10E4D000850983A3A982AA83890C8A0D780C120767
:10E4E000F185088285098312E54F12F4D5120823BD
:10E4F00085088285098312E62DEE28FEEF3400FFA1
:10E50000E5082404F50CE5093400F50D780C120734
:10E51000F174705AC412F4D2120823850882850956
:10E520008312E53B30E30244F0F83395E0F9EE283E
:10E53000FAEF028622EE241312EC6EE05470C4222D
:10E54000E08E828F83F02212C6A28E828F832212E7
:10E55000E559FC7D0022900A07E05406C31322749B
:10E56000F11204878A0A8B0BECFEEDFF8E0C8F0DE7
:10E57000750E00780C1207F17C0B7D0012F4D91295
:10E580000823EE240BF508EF12E6288E828F83A372
:10E59000A3A3A3A3A3A3A3A3A3E0A2E05020850861
:10E5A0000C85090D780C1207F17C0F7D00E50A241B
:10E5B0000B12D417120823E508240F12E624EE24C8
:10E5C0000AFEEF3400FF85080C85090D780C120750
:10E5D000F18E828F8312E54FE50A241A12D41712A6
:10E5E00008238E828F8312E62DE5082812E6248503
:10E5F000080CF50D780C1207F174705AC4FC7D00FC
:10E60000E50A241D12D4171208238E828F8312E587
:10E610003B30E30244F0F83395E0F9E50828FAE5E9
:10E6200009028622F508E5093400F50922E0FA74AA
:10E63000065AC313F82274F0120487900AC0780CAB
:10E64000120A04900CFE7808120A04900AC0780896
:10E650001209A0900AC07808120A0474FF5508F83D
:10E6600074035509F9E87001E9700B7CC07D0A7AE2
:10E67000047906120BCEAA0CAB0DAC0EAD0F0282C4
:10E68000C774EC120487EAFEEBFF8C128D13890825
:10E690007414120A3EE0F510A3E0F51112EF2A7A85
:10E6A0003C7B0E79E2120E028E828F83A385820A52
:10E6B00085830B780C120A0412EC8E8E828F83E015
:10E6C000900E4912978F780C120A04900E4A780C1B
:10E6D000120A13E5122404FCE5133400FD7A4E7B84
:10E6E0000E12120A12E79EAA0AFB1212A0750C560D
:10E6F000750D0E780C1207F5780A1207F5750A0DDC
:10E70000750B00780A1207F5750A49750B0E780A21
:10E710001207F585080A750B00780A1207F5AC1088
:10E72000AD117A3C7B0E7904120A4E740A1208234A
:10E73000E97066750A56750B0E780A1207F512E72E
:10E740009E780A1207F585080A750B00780A1207E9
:10E75000F5AC10AD117A3C7B0E7904120A547406A4
:10E76000120823E9702F7A008A82A882E82456F5DD
:10E7700082E4340EF583E0C0E0E8250AF8E43400D2
:10E78000F9E51028F582E51139F583D0E0F00AEAC1
:10E79000C3940440D379018002790002A679E5127E
:10E7A0002412F50AE5133400F50B22C082C083124F
:10E7B000E7ECD2E4F0900AC4E0A2E0501D900CE92E
:10E7C000E0640170057902121156900AA7E0700208
:10E7D000A3E0600312E7F41210067AA07B0A7952D4
:10E7E00002D70F7AA07B0A7952120E08900CE8E04B
:10E7F000C2E0F022900AA112C6A275830A7582A710
:10E80000E0C398FCA3E099FD7A207B00900CE7E040
:10E81000F91212462274F7120487EAFEEBFFEE703B
:10E8200001EF700812E88F1211868050900CE8E01A
:10E83000C2E4F0D2E0F0900CEAE054BF12E8AF7A04
:10E840004012E88754DF12E8AF7A2012E8817A9B01
:10E850007B0D7952120E08900CE9E0640270057984
:10E860000112115674FF6E700374FF6F700512E889
:10E870008F8009EEFCEFFD7A8012BEC0790002970E
:10E88000EE7B0012E8A02212E89E900CEAE02290B3
:10E890000CEAE0547F12E8AF7A8012E89E227B00F7
:10E8A000900CE7E0F912124022900CEAE054EFF0ED
:10E8B000A3E0F02274EA1204878A0A8B0B120C88F8
:10E8C000850A82850B83A3A3A3A3E0C3940250030C
:10E8D00002EC20850A82850B83A3A3E0F514A3E054
:10E8E000F515851482F583E05403F5097401650973
:10E8F0007005750806800E740265097005750805B7
:10E900008003750808E0A2E5500A54181313135445
:10E910001FFA80027A00850A82850B83A3A3A3A332
:10E92000E0C39508500302EC20EA700302EC20E5F6
:10E930000A241AF582E50B128712600302EA4EE5FB
:10E940000A2412F582E50B12849F12B00C12EC45DA
:10E9500012CC117F00EF12EC23603CEF75F02BA47A
:10E9600024E1F582E9340AF583E06C7003A3E06DDD
:10E970007025EF75F02BA424E3F582E9340AF583C2
:10E98000E06A7003A3E06B700EEF75F02BA424D542
:10E99000FEE9340AFF800B0FEFC3940A40B77E00F4
:10E9A0007F00EE7001EF700302EA90EE24271284DC
:10E9B0009CC082C083851482851583A3780C120ABB
:10E9C00004D083D082780C1209E4500302EA9074D8
:10E9D000026509600302EC20851482851583E054EA
:10E9E00004600302EC20EE7001EF700302EBF6EE20
:10E9F00024111284B0600E851482851583E05404BE
:10EA0000700302EBF6EE242712849CC082C0839030
:10EA10000DC67810120A04D083D0827810120941F2
:10EA2000851482851583A3C082C083900DC6780C9F
:10EA3000120A04D083D082780C1209417810790C24
:10EA40001208DE700302EBCD75080102EBD0E50A77
:10EA50002412FAE50B3400FB12114A8A0C8B0DAE1E
:10EA60000CAF0DEE7001EF602712EC4512C3CE70B3
:10EA700004A3E064FF700302E9AB12EC4512EC6200
:10EA8000E0687003A3E069700302E9AB7E007F00D9
:10EA9000851482851583E05404700302E9E6850A33
:10EAA00082850B83A3A3A3A3E0FA85080C74042535
:10EAB0000C12EC4E500302EC20EE7001EF700302DA
:10EAC000EC20EE24111284B0700302EC20EE24043A
:10EAD000FCEF3400FD7A3C7B0E12120A851482850D
:10EAE0001583A3858210858311780C120A0412EC19
:10EAF0008E851482851583E0900E49F085108285FD
:10EB00001183780C120A04900E4A12EC767A4E7B2E
:10EB10000E79E2120E02A808850A82850B83A3A350
:10EB2000E028F50CA3E03400F50D850A82850B83FF
:10EB3000A3A3A3A3E0C39508F50812EC3AAA0EFB21
:10EB40001212A075105675110E78101207F5780E76
:10EB50001207F585080E750F00780E1207F5AC0C3C
:10EB6000AD0D7A3C7B0E7904120A5A740612082302
:10EB7000E97047750E56750F0E780E1207F512ECF8
:10EB80003A780E1207F5750E0D750F00780E120704
:10EB9000F5750E49750F0E780E1207F585080E757E
:10EBA0000F00780E1207F5AC0CAD0D7A3C7B0E7998
:10EBB00004120A60740A120823E97064850A8285C7
:10EBC0000B83A3A3A3A3E024FCF002E9EF750800E4
:10EBD000851482851583A3780C120A04EE2427126B
:10EBE000849C12EC76E508600D7402650960268E3F
:10EBF000828F8312EC5C74016509600674036509F9
:10EC0000700DEEFCEFFDAA0AAB0B12119E80117481
:10EC1000026509700BEEFCEFFDAA0AAB0B1211980E
:10EC20000294E312EC2964FF2275F02BA4A9F024CE
:10EC3000D5F582E9340AF583E022EE2412F50EEFD1
:10EC40003400F50F22E50A242AF582E50B22F8E4C8
:10EC50003400F9EA98E499C365D03322E0F912113F
:10EC6000442212EC7112A52A240C12EC6E22F582B9
:10EC7000EF3400F5832212EC7A2212EC7FF022E5C9
:10EC80000CF0A3E50DF0A3E50EF0A3E50F22900E26
:10EC90004412EC7A7405900E48F02274F71204873F
:10ECA0008A828B83A3A3A3A3E0C39406500302EE3E
:10ECB000198A828B83A3A312B7FFE012067E010795
:10ECC00019EED2ECD8ECDEECE4ECEAEC44ED4AEDE3
:10ECD000A9ED1210A802EE1912107E02EE19121000
:10ECE000CC02EE191210BA02EE198A828B83A3A30A
:10ECF000A3A3E06406600302EE19EA241AF582EB8E
:10ED000012C664600302EE19EC7001ED700302EEAE
:10ED100019EC2411F582ED1284B360118A828B8381
:10ED2000A3A312EE1DE0A2E2400302EE19740F90BD
:10ED30000CB5129E31E0900CB6F07AB57B0C120C3B
:10ED40004C02EE191211BC02EE19EC7001ED7003C9
:10ED500002EE19900CE9E06409600302EE19900ECE
:10ED60007DE06402600302EE1912F110600302EE0E
:10ED7000198A828B8312A8078E828F83E0540470D5
:10ED80000302EE10A3A3A3A3A3A3E0600302EE106B
:10ED90008A828B83A3A3A3A3E0640B707312F13464
:10EDA000EEFAEFFB1211D48070EC7001ED606A9006
:10EDB0000CE9E064097062900E7DE06404705A1200
:10EDC000F11070558A828B83A3A3A3E0F97F008F93
:10EDD00082AC82EC12F337E0FEE82CF582E912F403
:10EDE0002A6E70070FEFC3940440E488828983E0A1
:10EDF0005404601CA3A3A3A3A3A3E070138A828B73
:10EE000083A3A3A3A3E0640B7006EFC39404500490
:10EE100079BA800279001211E00297EEF8A3128B02
:10EE2000292274F7120487EC7001ED700302EF27BA
:10EE30008C828D83E0900CB612950712D1F612D118
:10EE4000FC12067E01025AEE4EEE52EE56EE7E0F98
:10EE5000800A7E1480067E1980027E007401900C68
:10EE6000B5F0EA2430F582EB12EF33400474FF80F2
:10EE700003E0C333900CBB12D235540364038A827F
:10EE80008B83A3A3700AE0240812EF5D24F88008A6
:10EE9000E0240612EF5D24FA900CBAF0EA2423F580
:10EEA00082EB1287127015EA241BF582EB12C3CE97
:10EEB0007004A3E064FF700474018001E4900CBC52
:10EEC00012D23554046006900CBC12EF3F88828940
:10EED00083E0540364037019900CBC12EF2E8882F7
:10EEE0008983A3A3A3A3A3A312B00C900CB812EF21
:10EEF0005788828983A3A3A3A3A3E0900CB7F0EE65
:10EF0000601E900AA3E06E6017900AC4E0A2E3506E
:10EF10000FEE900AA3F07A807B00120AC61211A4A9
:10EF20007AB57B0C120C4C0297EE8E828F83E0D266
:10EF3000E2F022128488C39400A2D265D03322E08A
:10EF4000D2E1F02212B010900E7EE02422F8A3E06D
:10EF50003400F988828983EAF0A3EBF022FCA3E075
:10EF60003400FD900CBDECF0A3ED12BB8AA3A3A36B
:10EF7000E022C082C083900CE8E0A2E050097AA3AE
:10EF80007B0A79E1120E089009E5E06402701490A2
:10EF900009E7E0FA900AA3E06A600B12E3EB1210B3
:10EFA0000C800BE06008900AA3E0F912101290099F
:10EFB000FDE0C394035002E4F0029D4AC082C08386
:10EFC000900CE8E0A2E0400F7A9B7B0D7952120E84
:10EFD00008900CE812DC60029D4AC082C083900C4D
:10EFE000E8E0A2E4500312E7E37AA37B0A79E102A6
:10EFF000D70F74F5120487900E7DE06004640170F1
:10F0000061900CEDE07033900E68E0FA900E67E0CE
:10F010006A701F7AD47B0A79E5120E087402900E8A
:10F020007DF012F134900AAE12C8437B1012BEC2BA
:10F03000804F900E68E004F0801475086975090E21
:10F04000750A0078081207F112F11C120823900EBD
:10F050007DE06401700779B91211E080241211C8B3
:10F06000801FE064037015900CEDE070087404904C
:10F070000E7DF080B0900CEDE0F980DCE064026081
:10F08000F402C6AB74F5120487EC7001ED607E905B
:10F090000CE9E064097076900E7DE06403706E12F6
:10F0A000F11070698A828B83A3A3A3A3E0645770D5
:10F0B0005C8A828B83129C8FFEE9FF8E828F83A3F2
:10F0C000A3A3A3A3A3E0FA900E68E06A70167508E4
:10F0D0006975090E750A0078081207F112F11C1201
:10F0E00008238005E0046A70248E828F83A3A3A383
:10F0F000A3A3A3E0900E68F012F2C0900E68E0FAAD
:10F10000900E67E06A700612F1341211CE02C6AB9F
:10F110008C828D83E0FC900E66E06C227C107D007A
:10F12000900E6612F4E624E7FAE5F0340AFB1213B7
:10F1300024740322900CEAE0F0A3E054EFF07A008C
:10F140007B1012E8A02274F7120487E9FE900E6685
:10F15000F075F02BA412F1F3A2E25008900AC4E07B
:10F16000A2E2400A79B01211E0790002F1F0900EAB
:10F170006612F200E9340AFB12D406128199F07C7F
:10F18000107D007900EA2412FAEB3400FB12131808
:10F190007C107D0079007A697B0E121318790912B0
:10F1A0001156900AC4E0A2E04012EE75F02BA424A0
:10F1B000E1FAE5F0340AFB7950120E08900E67E090
:10F1C000F8740128FCE43400FDEC75F03CA4FCAAC2
:10F1D000F075F03CEDA42AFD7A007B1012BEC290BF
:10F1E0000E6612F205900E8012CFBF1211AA79019D
:10F1F0000297EEA9F024E5F582E9340AF583E022CE
:10F2000012F20FFA2212F20FF8E5F0340AF922E0B6
:10F2100075F02BA424D52274F01204877B007A00A9
:10F22000795712D8F07002A3E0700879BE1211E08D
:10F2300002F2BD12F36474068E828F83A3A3A3A38C
:10F24000A3F0900E6812F2CCF0EE2407F508EF124E
:10F25000E6287AD37B091212A0750A051212A68A33
:10F260000C8B0D8C0E8D0F850882850983780C120E
:10F270000A13900CF0780C120A0485088285098321
:10F28000A3A3A3A3A3A3A3A3780C120A13900CFE19
:10F29000780C120A04900CF0780C1209A0AC08AD9E
:10F2A000097AD37B0912129AE508241012E6241574
:10F2B0000AE50A70A712F2C0749412F2DA0282C749
:10F2C000EE2407FAEF3400FB1211DA22E08E828F6F
:10F2D00083A3A3A3A3A3A3227414900CF4F012118C
:10F2E000E62274F612048712D8EA7002A3E07007CF
:10F2F00079BE1211E0803D12F364740712F42FF509
:10F3000008120EBC850882A882E812F337E9F012D1
:10F31000F415E9F00508E508C3940440E412F44646
:10F320001207F512F350120823E9700512F3418019
:10F33000BF12F2D802B5082479F582E4340EF583C1
:10F3400022900E7E12F3482212B48BFB12130C2271
:10F350007906900E80E0FCA3E0FDEEFAEFFB1211BF
:10F3600080740222900E7EE0242D12C76012F3A05A
:10F37000740312F392E012D89412C94D12F397124B
:10F38000F38322FEA3E0FFEEFAEFFB12116222905C
:10F390000CF4F0900E8022F0900E7E12B020E0224D
:10F3A000F0900E7EE0242A12F3B122900E7EE0242B
:10F3B0002BF8A3E03400F9888289832274F61204C2
:10F3C000878A088B0912D8EA7002A3E0700779BE19
:10F3D0001211E0803D12F364740812F42FFA8A824D
:10F3E000A882E50828F582E50912F42AC0E012F4A3
:10F3F00015D0E0F00AEAC3940440E312F446120781
:10F40000F512F350120823E9700512F34180BF1280
:10F41000F2D802B508EE28F582EF12F41E2234006D
:10F42000F583A3A3A3A3A3A3A32212F41EE0228E19
:10F43000828F83A3A3A3A3A3F0E48E828F83A3A3CD
:10F44000A3A3A3A3F0228E828F83E0D2E2F0EE2466
:10F4500005F508EF3400F50978082274F5120487E1
:10F46000EAFEEBFF900E6612F4E224E7F508E5F001
:10F47000340AF509750A0078081207F17C107D003E
:10F480007A697B0E12F4D91208237A008A82A88244
:10F49000850A08EE25081284B0F508900E6612F46D
:10F4A000E2FCE824E7FAE4340AFBEC2AF582E5F012
:10F4B0003BF583E06508F074012808E43400F97A2C
:10F4C000107B0012032B050AE50AC3945040BD02CD
:10F4D000C6ABFC7D00EEFAEFFB12132474032290FE
:10F4E0000E0512F4E622E075F02BA42274F7120444
:10F4F00087E9FE12F13474B06E70047E008009EE6C
:10F500006006900E6612F536900E6612EC5C12CC18
:10F5100008900E7DE0600964016005E06402700FF0
:10F520007AD47B0A79E5120E0874FF900A9DF0EEFA
:10F53000900C840297E812F20FF582E5F0340AF598
:10F540008374FFF022C082C08374FE120888900981
:10F55000E612EF3F9009E5E06402700312E3EB90DE
:10F560000AC4E0A2E04036900E80E07002A3E060A2
:10F570001B900E80E0240C12F6487950120E089071
:10F580000E80E0240112F6487953800E900ACF7461
:10F59000FFF0A3F07ACF7B0A7950120E087AAB7B8A
:10F5A0000A794E12F63EA2E7501685188285198315
:10F5B000E4F0A312D78C795912F63EC2E7F0800925
:10F5C0007AAC7B0A7959120E087AF57B0C79E11234
:10F5D000F63E640470097CE87D037A0212BEC09096
:10F5E0000CF4E06404600AE064146005E0642470D4
:10F5F0000712F64F7401800412F64FE4F0900CEC01
:10F60000E0C0E0900E7E12F659D0E0F0900CECE0F5
:10F6100004F0900CF4E0600964016005E06424707B
:10F620000474028001E4900CF612F660A3A3E0904B
:10F630000CF7F0900E7E12F760740202A248120ED0
:10F6400008900CF4E022E02AFAA3E03400FB2290B8
:10F650000E7EE0242F12C75622E0242E12C7562217
:10F66000F0900E7E12B01C22C082C08374FF12087C
:10F6700088900CF4E064047027E48518828519836F
:10F68000F012F76E851882851983AA82AB83794EB2
:10F6900012F6A7AA82AB837959120E08790180026B
:10F6A0007900740102A248120E0885188285198318
:10F6B00022C082C083900CF6E0900CEE604BE070AC
:10F6C00002A3E06059900CF4E064247006900CED05
:10F6D000E0603D12F76E900CEEE0240412B0029050
:10F6E0000CF7128468E0C39AFA900CF712C94090A4
:10F6F0000CEE12F76712F64712EF53900CF6E01477
:10F70000F0900CEE12F7608054E07002A3E0600EFF
:10F710007AEE7B0C120DC0900CEEE4F0A3F0900C8E
:10F72000EAE054FD12E8AF7A0212E8819009E6E0BF
:10F73000C2E1F0700B9009E5E06402700312102A38
:10F74000900CE9E024FDC3940750121290BD249E52
:10F75000F582E9340DF583129A04121338029D4A9A
:10F7600012B010120D7222E0240212D8C62212F733
:10F770007B7AF57B0C79E1120E0822900CF5E0F90A
:10F7800012115CE9900CF5F022FFFFFFFFFFFFFF75
:10F79000FFFFFFFFFFFFFFFFFFFFFFFFFFFFFFFF79
:10F7A000FFFFFFFFFFFFFFFFFFFFFFFFFFFFFFFF69
:10F7B000FFFFFFFFFFFFFFFFFFFFFFFFFFFFFFFF59
:10F7C000FFFFFFFFFFFFFFFFFFFFFFFFFFFFFFFF49
:020000040001F9
:04000005000009F4FA
:00000001FF
