:020000040000FA
:10000000020086021407FFFFFFFFFFFFFFFFFFFF55
:10001000FFFFFFFFFFFFFFFFFFFFFFFFFFFFFFFFF0
:10002000FFFFFFFFFFFFFFFFFFFFFF021163FFFF67
:10003000FFFFFF0211B9FFFFFFFFFFFFFFFFFFFF01
:10004000FFFFFFFFFFFFFFFFFFFFFF02117CFFFF2E
:10005000FFFFFF021297FFFFFFFFFF021195FFFF57
:10006000FFFFFF0211A6FFFFFFFFFF0211B7FFFF17
:10007000FFFFFFFFFFFFFFFFFFFFFF0211B8FFFFC2
:10008000FFFFFF0212F175D0007581407518807571
:1000900019010002009B00000080FB12011FB90043
:1000A000030200EBE4791A7801B800028004F70932
:1000B000D8FCE490018078C5790C8002F0A3D8FCCC
:1000C000D9FA900D44AA82AB8390143178BB7901A0
:1000D0008015E493A3AC82AD838A828B83F0A3AABC
:1000E00082AB838C828D83D8E9D9E775827F758353
:1000F0006874001201017582967583007400120104
:1001000001C09FF59FE473D09F22D083D082C09F0F
:10011000E493C0E0740193C0E0740293F59F2279E8
:10012000012212010A3C410012010A46410012015B
:100130000A8C410012010AFC410012010A2442000B
:1001400012010A7A420012010AA5420012010A04B1
:10015000430012010AA9430012010A0344001201DC
:100160000A5A440012010AD9440012010A26450025
:1001700012010A65450012010A99450012010AABF5
:10018000450012010ABD450012010ADC45001201BA
:100190000A45650012010A46660012010A6C5C00FD
:1001A00012010AD05C0012010AF45C0012010AFA82
:1001B0005D0012010A796A0012010A8F6A001201B9
:1001C0000A996A0012010A77560012010A8F560036
:1001D00012010A37570012010A78570012010A95D6
:1001E000570012010AB8570012010AF15700120114
:1001F0000A7F590012010A4C6B0012010A5D6B0064
:1002000012010A99610012010ADD610012010AFE61
:10021000610012010A42620012010AAC620012017E
:100220000AB6620012010AC8620012010A715E0079
:1002300012010A7F5E0012010A7F2C0012010ABE21
:100240002F0012010A6F310012010A7733001201E8
:100250000AB46B0012010AF7690012010A076A006A
:1002600012010A1F6A0012010A706A0012010A27AD
:10027000640012010A2A640012010AA66400120135
:100280000A18650012010A07530012010A155300EB
:1002900012010A95530012010A5C540012010A125D
:1002A000560012010AE36A0012010A2960001201D5
:1002B0000A64600012010A88600012010AE6600008
:1002C00012010A51610012010A97590012010A47EE
:1002D0005A0012010A845A0012010AC45A0012017B
:1002E0000A975B0012010AD85B0012010AFF5B004B
:1002F00012010A125C0012010A275C0012010A3581
:100300005C0012010AE2680012010A1F6900120172
:100310000A533B0012010AD83B0012010AC03C00FC
:1003200012010A4D3D0012010A6F3D0012010AC080
:100330003D0012010A923E0012010ABB3E0012016A
:100340000A07410012010A2A410012010A72240020
:1003500012010A49250012010A87250012010AE745
:10036000250012010A3C260012010A9926001201FA
:100370000A33270012010A3B280012010AE629006D
:1003800012010A902A0012010AF52A0012010A0934
:100390002B0012010A342C0012010A304B0012010A
:1003A0000A3B4C0012010A034E0012010AE3180036
:1003B00012010AA2190012010A5D1A0012010A6C48
:1003C0001B0012010AD51B0012010A5A1C0012015F
:1003D0000AD91C0012010A501D0012010A801D00DA
:1003E00012010AE31D0012010AED1D0012010AFAB2
:1003F0001D0012010A9D1E0012010AC51E001201F5
:100400000AD61E0012010AE11E0012010AEC1E00AB
:1004100012010A1B210012010A2A210012010AC638
:10042000210012010A86220012010A8E2300120105
:100430000A20240012010A70670012010A7867007E
:1004400012010A50680012010A6D680012010A9335
:10045000460012010AA4460012010A634700120175
:100460000AFD480012010A1A490012010A36490021
:1004700012010A52490012010A6D490012010A9F35
:10048000490012010AEF490012010A0B4A00120149
:100490000AB34A0012010ACE4A0012010AFA4A00BF
:1004A00012010A154B0012010A54690012010A8652
:1004B000690012010ABE690012010AC06900120136
:1004C0000AC2690012010AD3690012010AD5690043
:1004D00012010A0B630012010A81630012010A92E1
:1004E000630012010AD8630012010A1064001201AD
:1004F0000A934F0012010AE84F0012010A09500046
:1005000012010A67520012010AA1520012010AC523
:10051000520012010A776B0012010A2934001201FD
:100520000A19350012010A04360012010A153600B4
:1005300012010A26360012010A7B360012010A0750
:10054000380012010A68390012010AA339001201A9
:100550000A713A0012010AD33A0012010A9A800184
:1005600012010AF2800112010ABE810112010ACCB5
:10057000820112010ACA840112010A518501120185
:100580000A29860112010A94860112010AB0860125
:1005900012010AE5860112010A18870112010A21D7
:1005A000870112010A8B870112010AD98701120102
:1005B0000A00890112010A13890112010A30890116
:1005C00012010AD2890112010A3C8B0112010A4769
:1005D0008C0112010AB78C0112010AC18C011201AF
:1005E0000A7D8D0112010A8E8D0112010AC18D0151
:1005F00012010A058E0112010A348E0112010A52FB
:100600008E0112010AE48E0112010AF88E01120114
:100610000A00900112010A15900112010AC6900108
:1006200012010A5F910112010A6A910112010A7F07
:10063000920112010A9A920112010AE99201120131
:100640000A03930112010A1E950112010A929501F3
:1006500012010AA5970112010AA8970112010AB412
:10066000970112010AF3970112010ACA98011201B7
:100670000A499A0112010A6A9A0112010ACC9A01E6
:1006800012010AA69C0112010AA99C0112010ACBBF
:100690009C0112010A189D0112010A499D011201D3
:1006A0000A4C9D0112010AB19D0112010AC49E016A
:1006B00012010A9B9F0112010A33A00112010A5A7A
:1006C000A10112010A93A10112010AC8A10112019C
:1006D0000AD1A10112010AF9A20112010A6AA301B9
:1006E00012010A01A40112010A2BA40112010A66D7
:1006F000A40112010AB7A40112010ACCA40112013B
:100700000A0FA50112010A34A50112010A62A5010E
:1007100012010A95A50112010A26A70112010AB1C8
:10072000A70112010ABEA70112010AE3A7011201E3
:100730000A68A80112010AA5A80112010AC6A801A7
:1007400012010A0CA90112010A1BA90112010A2BAC
:10075000A90112010A44A90112010A82A901120188
:100760000A9DA90112010A06AA0112010ACCAD01D3
:1007700012010AACAE0112010ADDAE0112010A41FA
:10078000AF0112010A29B00112010A51B001120190
:100790000A7AB00112010AAAB00112010AFDB001E1
:1007A00012010A1BB10112010A3CB10112010A5BDC
:1007B000B10112010A7DB10112010AACB1011201AD
:1007C0000AC7B10112010AF9B10112010A9EB20170
:1007D00012010AAEB30112010A24B40112010A8700
:1007E000B40112010ABFB40112010AFDB4011201E1
:1007F0000A2CB50112010A4DB50112010A75B501A5
:1008000012010AA3B50112010AFEB50112010A9EE6
:10081000B60112010AB2B60112010A25B70112018E
:100820000AA0B80112010AB6B80112010AD1B80132
:1008300012010AE8B80112010AFDB80112010A65A5
:10084000B90112010AC6B90112010A0DBA01120159
:100850000A46BA0112010A5DBA0112010A47BB0138
:1008600012010A5BBB0112010A90BB0112010AB915
:10087000BB0112010AE2BB0112010AB1BC01120163
:100880000A41BD0112010A5ABD0112010A80BD01CF
:1008900012010AF6BD0112010A7FC00112010ADD30
:1008A000C00112010A06C10112010A5EC101120152
:1008B0000A68C10112010A88C10112010A89C20134
:1008C00012010AA0C20112010ACCC20112010A29B6
:1008D000C30112010A60C30112010AA7C301120178
:1008E0000A65C50112010A22C60112010A5AC6018F
:1008F00012010AA9C60112010A00C70112010A1257
:10090000C80112010A36C80112010A34C9011201D4
:100910000A95CA0112010ACFCA0112010A01CD01CA
:1009200012010A9CCE0112010A01CF0112010AF143
:10093000D00112010A03D30112010A97D301120157
:100940000AA5D50112010ACAD50112010A4DD60124
:1009500012010AB5D70112010AF0D70112010A24C7
:10096000D80112010AD8D80112010A50DB01120184
:100970000A30DC0112010A78DC0112010AA0DC0154
:1009800012010A3FDE0112010AA9DF0112010A4D1C
:10099000E00112010A7EE00112010A06E1011201E2
:1009A0000A3AE10112010A79E10112010AC1E101E9
:1009B00012010ADCE10112010AACE20112010ACAC9
:1009C000E20112010AEDE20112010A0BE301120138
:1009D0000A14E40112010AEBE40112010A36E501EE
:1009E00012010A60E60112010ACAE60112010A694F
:1009F000E70112010A50EB0112010AD7EC011201C2
:100A00000A27EE0112010A71EE0112010A8FEE01AE
:100A100012010AA7EE0112010A39EF0112010AFBC5
:100A2000EF0112010ACCF00112010A97F101120143
:100A30000A71F20112010A10F30112010AA1F30175
:100A400012010AFAF30112010A1DF50112010A66E8
:100A5000F50112010A5D660012010ACE660012015C
:100A60000A0D670012010A4E670012010A1D6B0091
:100A700012010A966B0012011001020000205104BD
:100A8000B1160900010203010902430002010080BE
:100A900019090400000102020100052400100104EC
:100AA0002402020524060001052401000107058235
:100AB0000340004009040100020A00000007058409
:100AC0000240000107050402400001040309042458
:100AD0000354006500780061007300200049006E37
:100AE0000073007400720075006D0065006E007484
:100AF000007300220343004300320035003300310D
:100B0000002000520065006D006F00540049002075
:100B1000004E0050000803300030003100910A0000
:100B200000B40A0000E76670100809E766700A085A
:100B300009E76670040809E76622E066701008A3FA
:100B4000E066700A08A3E066700408A3E06622C3AA
:100B5000E09608A3E09608A3E09608A3E096A2D248
:100B600065D03322C3E7960809E7960809E7960897
:100B700009E79622C3E09608A3E09608A3E096084A
:100B8000A3E09622BB0102E722C082C08389828A49
:100B900083BB0003E08002E493D083D08222BB00B9
:100BA0000EC082C0838A838982F0D083D08222BB28
:100BB0000101F722080808EAC0E0EBC0E086F0E790
:100BC000A4FA180986F0E7A42AFA180986F0E7A41F
:100BD0002AFA180986F0E7A42AFA1986F0E7A4FB96
:100BE000E5F02AFA190886F0E7A42BFBE5F03AFABB
:100BF000190886F0E7A42BFBE5F03AFA18180986E5
:100C0000F0E7A4C5F02BFBE43AFA1908E7C5F0C6F3
:100C1000A426F6E5F03BFBE43AFA1886F0E7A4F6E2
:100C2000E5F00826F6E43B08F6E43A08F6D0E0FBE7
:100C3000D0E0FA22E4CFC0E0E4CEC0E0E4CDC0E0F2
:100C4000E4CCC0E075F020C3E633F608E633F608DE
:100C5000E633F608E633F6181818EC33FCED33FDEE
:100C6000EE33FEEF33FFC3EC9709ED9709EE9709DA
:100C7000EF97191919400FFFEC97FC09ED97FD0943
:100C8000EE97FE191906D5F0BEECF709EDF709EE5F
:100C9000F709EFF7191919D0E0FCD0E0FDD0E0FE1C
:100CA000D0E0FF22E4C396F608E496F608E496F650
:100CB00008E496F622C6F4C608C6F4C608C6F4C60A
:100CC00008C6F4C6226016080808C6C313C618C6AC
:100CD00013C618C613C618C613C6D5E0EA22700993
:100CE000080808226016181818C6C333C608C63389
:100CF000C608C633C608C633C6D5E0EA22E627F6DC
:100D00000809E637F60809E637F60809E637F62255
:100D1000E026F608A3E036F608A3E036F608A3E0DE
:100D200036F622E026F008A3E036F008A3E036F01D
:100D300008A3E036F022C3E0C696F608A3E0C69604
:100D4000F608A3E0C696F608A3E0C696F622C3E02E
:100D500096F008A3E096F008A3E096F008A3E096CA
:100D6000F022E056F608A3E056F608A3E056F6088F
:100D7000A3E056F622E056F008A3E056F008A3E000
:100D800056F008A3E056F022E046F008A3E046F053
:100D900008A3E046F008A3E046F022E0F608A3E04E
:100DA000F608A3E0F608A3E0F622E6F008A3E6F0D2
:100DB00008A3E6F008A3E6F022CAC0E0E6F0A30824
:100DC000DAFAD0E0FA22CAC0E0E0A3C582CCC5823C
:100DD000C583CDC583F0A3C582CCC582C583CDC5EF
:100DE00083DAE6D0E0CA22CAC0E0E493A3C582CC8D
:100DF000C582C583CDC583F0A3C582CCC582C5831A
:100E0000CDC583DAE5D0E0CA22C3E498F8E499F9C5
:100E1000120E4A8026C3E49AFAE49BFBE920E7E934
:100E2000120E4AE498F8E499F922C3E498F8E49998
:100E3000F9120E4AE498F8E499F9C3E49AFAE49BAB
:100E4000FB22EB20E7CFE920E7E0B90010BB000868
:100E5000E88AF084F8AAF022E4FBC8FA22EB7022B8
:100E60007B10C833C8C933C9335007C39AC3DBF2F8
:100E700080069A50012ADBEAC833F4C8C933F4C9A2
:100E8000FA2275F008E4C833C8C933C933C99AC90E
:100E90009B5004C92AC93BD5F0ECFBC833F4C8E425
:100EA000C9FA22600C08C6C313C618C613C6D5E01B
:100EB000F422700422600D18C6C333C608C633C6B8
:100EC000D5E0F41822251810AF08F51840021519BE
:100ED0008008F51840021519D2AF22C0D02518108D
:100EE000AF08F518500205198008F51850020519C9
:100EF000D2AFD0D0222518F58210AF08F5184002E5
:100F000015198008F51840021519D2AF85198322EA
:100F10002518F582E43519F58322E473C0E0E8C0B2
:100F2000E0E58124FCF8E6A2E7D0E0F8D0E0222555
:100F300018C582C0E0E51934FFC583C0E0E518C3D9
:100F4000958224F8F8E4C5A8858319858218C5A878
:100F5000E8CEF0A3E520F0A37808E608F0A3DEFAD7
:100F6000EFF0A3E58124FAF8E608F0A3E608F0A381
:100F7000E608F0A30808E608F0A3E608F0A3158148
:100F80001581D0E0FED0E0F8158115811581E8C00B
:100F9000E0EEC0E022851983851882E0A3FEE0A37D
:100FA000F5207808E0A3F608DFFAE0A3FFE0A3C08D
:100FB000E0E0A3C0E0E0A3C0E0E0A3C0E0E0A3C0A5
:100FC000E0E4C5A8858218858319C5A8D083D0829E
:100FD000020107C0D02518C582C0E0E51934FFC55D
:100FE00083C0E0E518C3958224F310AF0885831908
:100FF0008582188008858319858218D2AFC8F0A32E
:10100000E9F0A3EAF0A3EBF0A37908E709F0A3D88D
:10101000FAECF0A3EDF0A3EEF0A3EFF0A3D0E0F034
:10102000A3D0E0F0A3D0E0F0A3E520F0A3E5F0F03A
:10103000A322851983851882E0C0E0A3E0F9A3E02C
:10104000FAA3E0FBA37808E0F608A3DFFAE0FCA32C
:10105000E0FDA3E0FEA3E0FFA3E0C0E0A3E0C0E06A
:10106000A3E0F5D0A3E0F520A3E0A3F5F0E4C5A844
:10107000858319858218C5A8D082D083D0E0F8D0A6
:10108000E0327404800A74038006740280027401E2
:10109000C0E0F404120EF5D0E0120DB92274038002
:1010A0000474028000CCC0E0EDC0E0E518C39CCC25
:1010B000AD1950011D10AF068C188D1980068C18C3
:1010C0008D19D2AF120DC6D0E0FDD0E0FC22D08346
:1010D000D082C5F0E493A3C5F0C395F0F5F0E49396
:1010E000A3C395F04005E5F0048001E475F002A487
:1010F0002582F582E5F03583F583E493A3C0E0E42F
:1011000093C0E022D083D082CCC0E0E493A36006F9
:1011100012112E1470FAE493A3600612114D14708C
:10112000FAD0E0FCE493A3C0E0E493C0E022C0E086
:10113000E493A3D39C5010E493A3C39C400AD0E053
:10114000D0E0D0E0021121A3A3A3D0E022C0E0E4CC
:1011500093A36C7009D0E0D0E0D0E0021121A3A3EA
:10116000D0E022C0E0C0D0EAC0E0E5A8D2AFC2C75C
:10117000A2E792AFD0E0FAD0D0D0E032C0E074F273
:10118000120FD3E5A8FED2AF1202B4EEA2E792AFDF
:101190007F01021032C0E074F2120FD3E5A8FED234
:1011A000AF1202BA80E5C0E074F2120FD3E5A8FED8
:1011B000D2AF1202C080D43232C0E074ED120FD32D
:1011C000A2AFE492E0FCD2AF7480659E70FA740323
:1011D00090620FF0E0A2E750FB906206E0F50A741F
:1011E00006550A7006E58BA2E55042E50AA2E250D8
:1011F00033900930E0F8A3E0E890620B12128B7490
:10120000047808120EA3E50890620712128B740985
:101210007808120EA3E508543E906209F09062012E
:10122000E0D2E0F0E50AD2E1F50AE48014E50AA292
:10123000E0501290620FE0C2E1F0E0A2E740FB74E0
:1012400001900932F0906202E0F50C906204E0F542
:1012500008750D007404780C120EB2E50C450AFAFC
:10126000AB0D75090074097808120EB2EAF8E509A9
:101270004BF990092EE048F0A3E049F0758B00C2CD
:10128000E8ECA2E092AF7F06021032F0900930E065
:10129000F508A3E0F50922C0E074F2120FD3A2AF63
:1012A000E492E0FED2AFE5A7FAE5A1FBEA5B5410B9
:1012B000600812071075A1EF802AEAA2E0C0D0EB07
:1012C000A2E092F0120F1C158182F05017906198E5
:1012D000E0FA900A18E0C39AA2D265D0335002EA2D
:1012E000F075A1FE751A00EEA2E092AF7F01021028
:1012F00032C0E074F2120FD3A2AFE492E0FED2AF9C
:101300009061A4E0FA759B00E5915A540860097554
:1013100091F71208120213C0E5915A5410607B75C0
:1013200091EFE0C2E4F09061E4E070061207E2029F
:1013300013C0E06401705E7404900A0FF01207B2EB
:10134000900A13E004F09009A7E0C0E0900A13E0CF
:10135000FAD0E0C39A500779E11207EE8062900A52
:1013600011E0F874012808E43400F99009B3E0FAB8
:10137000E89AE99400C365D0335007900A11E0045D
:101380008001E0900A11F01207D07483900A0FF0E8
:101390001207DC802B1207E88026EAA2E0C0D0E525
:1013A00091A2E092F0120F1C158182F05012E0C25F
:1013B000E0F0E49009FCF09009FAE070031207886D
:1013C0009061A3E0FAE5E95A54046038900A0BE012
:1013D00070277401900A0AF09009FDE0F8A3E0F587
:1013E000838882120F1AE4900A0AF0900A0BE060D8
:1013F0000812075EE4900A0BF075E9FB906193E038
:10140000A2E640C80212E4C0E074F2120FD3A2AF09
:10141000E492E0FED2AF9061A5E0FAE5BF5A540431
:10142000600C75BFFB900A0CE004F0120758021222
:10143000E49001000000000100000000580000647A
:10144000000000FFFFFFFF00C2010026066209B096
:1014500003140308036002060000100060EA307500
:10146000102019F8E7544920496E6300760A1D0BD5
:101470001D0B1D0B1D0B250B0300030003000300B8
:101480000300030003000300030005000A0014002A
:1014900028004F009E0000005006500650065006DF
:1014A000B405AE0550065C1500000000BE15000036
:1014B00000000C0000000C0002CE010201FFFFFF43
:1014C000FFFFFFFFFF9608D2080E095009FC082015
:1014D00009100A3000000000000C0000000080002D
:1014E0008010020004000000FCFFFF0202030D0454
:1014F0002F05310602083109260D010E020F0110D9
:101500000911007101D7080F01F0087206D808739D
:1015100001DE087403DF087507E2087602E9087740
:1015200002EB081002F1081107F3087802ED0879C0
:1015300001EF080005150D0910080400383C3E367F
:101540003B3B352B432C303016181920231A1C1E18
:1015500030303017181921301B1D1F300300710067
:10156000300160001100700031022003500480003F
:10157000100061000000140063007300720062003C
:1015800043000000130006000000000004001200E9
:1015900000000000000000000400040037003700D5
:1015A0003C02440000000000000000006500000054
:1015B00035008100000005000000830000000103E9
:1015C0007103010301030103010301032203020369
:1015D00001031003000300030003000300030003E2
:1015E0000003420300032403060300030003040373
:1015F0001203250323032503230304030403000329
:1016000000030003440300030003230300036503F6
:1016100021003503810300030503000300030003D9
:10162000030471040204600411047004020402043F
:10163000010402041004610400041404630473042C
:10164000720462044304000413040604000400044A
:1016500004041204000400040004000451046400A3
:101660000004000400044404000400040004000416
:101670006504000435048104640005040004830447
:10168000000400034948424D1817250502000119BE
:1016900016181616152303000C0E020B040B0A076E
:1016A00008000F500656065C06D8056206D205DE15
:1016B0000536000100060000000F000000000000D9
:1016C0000000000000000003FFFF00000403FFFF14
:1016D0000000FFFF0FF4010005C404032000010017
:1016E000000B000000000000000003010F000136A5
:1016F000360101000102010001030100010401069D
:101700000605020000070100340801000F0904016A
:10171000010D0100FF0E0800001702000019010072
:10172000FF1A0100011B0100FE1C0100081D020040
:10173000001F01000120010001210200002301001F
:101740000F240200002601000127010008280200E2
:10175000FF2A0100072B0102402C0100002D01008F
:10176000012E0100012F0100FF30010B1C31080088
:10177000003A0100083B01000F2F0100008006988D
:1017800006980650069806720584059806980690F5
:101790000598068A05980698069806980698069869
:1017A000069806980698069806980698069806FCE5
:1017B00005F60598069806980698069806A406BCAD
:1017C00006C206AA06B606B0060300030004000817
:1017D0000010001F003E007B00F600EC01D703AFB5
:1017E000075D0FB91E713D000000BE040A03EAF553
:1017F000E5D5D5C5B5A595958585757565655555A9
:10180000454535352525151505140AE5D5C5B5A574
:10181000A595858575650BF4F5E5D5C5B5A5A595A3
:101820008575756565555545454535252515150558
:1018300004ECECDCCCCCBCACAC9C8C8C7C7C6C6CC0
:101840005C5C4C4C4C3C3C2C2C1C0C301830183044
:1018500018ED170918161800FA06F600FFFF0FFF1B
:10186000C80000000001040303640006000000003B
:10187000000000000000000000000001000000ED7A
:101880000A0202EF0A0100F00A0103F10A0204F35E
:101890000A02050C0B0406F50A010700000100000E
:1018A000002B00F60A0108F70A0109F80A010AF9F3
:1018B0000A010BFA0A020CFC0A010DFD0A0F0E10B8
:1018C0000B010F110B0210130B07111A0B01210052
:1018D0000008001B0B02221D0B02231F0B0100201E
:1018E0000B010074F6120F2F74F7120EC5E9900861
:1018F000BAF0120428750808750900780812108AD1
:101900007403120F10AC82AD837AE87B0F793F121B
:1019100002727402120EDB7A008A087401120F1030
:10192000E5822508F582E58312210C64FF70070A21
:10193000EAC3940840E3EAC3940850107401120FFC
:1019400010AC82AD837A007984120980E485188214
:10195000851983F0AC82AD837A0179701203928588
:101960001882851983E0701C7A8C7B0312042E7414
:1019700001851882851983F0AC82AD83FA797012E3
:10198000038C80077A927B0312042EE49008D6F031
:101990009008FCF074FF900E37F07409120EDB0211
:1019A0001BD074F6120F2FEAFEEBFF74805FF9E490
:1019B0007001E9601A9008BAE0F912014CEA70016E
:1019C000EB6003120140EEFA74806FFB021A4FEED7
:1019D000A2E0506A790112097A7CE97D087A0079DF
:1019E000601209807CEB7D087A0079641209807CA2
:1019F000EF7D087A00796212098074FF9008FAF08E
:101A0000900E2F74E8F0A37403121A55796312092B
:101A100080E4900E2FF07C2F7D0EFA7966120980FB
:101A2000741E121A5279691209807401121A5279BD
:101A30006C12098012093274016EFAEF808D540223
:101A400060099008FCE060031223827A007B0002A8
:101A50001BD0900E2FF07C2F7D0E7A002274F01296
:101A60000F2F74FE120EC58908ECFEEDFF750900FC
:101A70008A8285820AE9C39490503674686508703A
:101A8000067509B4021B607C2F7D0E7A001209686E
:101A9000E9F509750C2F750D0E750E00780C1210F6
:101AA00086AC0A7D00EEFAEF122419120EDB021B3F
:101AB00060E9C394AF5019750A92750B03780A1246
:101AC000108A1203C27402120EDBE9F509021B60D0
:101AD000E91211040007B0ED1AB1201BB2251BC09A
:101AE0004D1BC1511BC2551BC3591B5D1BE4900804
:101AF000FBF0F50A851882851983AA82AB83A90AAF
:101B0000120974E970069008FBE004F0050AE50A82
:101B1000C3940A40DF9008FBE08E828F83F0804000
:101B20009008FA80F3851882851983AA82AB839086
:101B300008FAE0F9120974E9FA8A09702385188213
:101B4000851983E0F50CA3E0F50D021A9974128053
:101B5000C8740A80C474CE80C0741080BC7509E853
:101B6000A9097402120EDB7F08020F9574F6120F9A
:101B70002FE9FEC39490501074686E700479B4809D
:101B80004F7A001209808048EEC394AF5015750853
:101B90008C750903780812108A1203C27402120E9F
:101BA000DB802DEE12110401C0C37D1B03B07D1B31
:101BB000B1B81BB2C51BCE1B8C828D83E09008FA96
:101BC000F07900800B9008FAE0FA796880B579E83E
:101BD0007F02020F9574ED120F2F8A0D8C0A8D0B68
:101BE0007413120F10E0F508A3E0F509890E750FC4
:101BF000007402780E120EB2E50E2403FEE50F34D7
:101C000015FFEE2480F582EF34FDF583E493F9852A
:101C10000882850983120F1AE50864927004E509A9
:101C200064037031E9602EEE2482F582EF34FDF515
:101C300083E493F508740193850810F5117512007B
:101C40007810121086AC0D7D00AA0AAB0B12241A74
:101C5000120EDB79007F0B020F9574F7120F2F74B1
:101C6000FF120EC57A927B0312042E9008D7E01261
:101C700010CE0002D51C7C1CB51CC91C85188285A1
:101C80001983AC82AD837A007983120968E9FE700A
:101C90001D851882851983E0601B790012097A90EE
:101CA00008F0E0A2E040077A007B001209E6EEF9B6
:101CB00012045E800C7A017B009008BAE0F91201F0
:101CC0006A7401120EDB021DF51204287A8C7B0364
:101CD00012042E80E07EE880D5C082C083E49008A4
:101CE000C0F09008DEE0FC748F5C44109008C0F0F7
:101CF0007A008013122276C0E0E824C1F582E43431
:101D000008F583D0E0F00A12226D40E874019008D3
:101D1000C4F09008BC74FFF0A3F09008BEF0A3F0EC
:101D20009008CBF09008EDE0F8A3E0F99008D4E833
:101D3000F0A3E9F074019008CCF09008CDF0121DEA
:101D4000471208C6021ECF9008D6F07ABC7B082244
:101D5000C082C0839008D6E06401600AE06402603B
:101D600005E0640370087404F01208CC800FE0648E
:101D70000570057406F0800579B412046A021ECF5E
:101D8000C082C0839008BC7430F0A37475F09008D2
:101D9000DEE0FC9008BEF07A008013122276C0E0EC
:101DA000E824BFF582E43408F583D0E0F00A12227B
:101DB0006D40E87A00801312225DC0E0E824C2F58D
:101DC00082E43408F583D0E0F00A74705CC430E338
:101DD0000244F0FBEAC39B40DE7ABC7B081208A2F7
:101DE000021ECFC082C0831208A8021ECF74F71251
:101DF0000F2F12094A7F01020F9574EE120F2F74F4
:101E0000FE120EC589088A0FECFEEDFF8B107414CC
:101E1000120F10E0F5117415120F10E0F50AA3E08F
:101E2000F50B851882851983AA82AB83120974E9A0
:101E3000FA8A097054E5089008BCF0E50F9008BDD7
:101E4000F09008BEEEF0A3EFF0E5109008C1F0E5C9
:101E5000119008C0121D4A12088AE9FA8A097029ED
:101E6000850A0C850B0D750E00780C121086AC11CE
:101E70007D009008C4E0FAA3E0122419120EDB746E
:101E800007121D47120890800AE49008D6F0A909AD
:101E90001204827402120EDB7F0A020F9574F7128D
:101EA0000F2FE91210CE0001C11EAE1EBB1E7AFF1D
:101EB0007BFF1209E612048E021DF57A007B00807A
:101EC000F179E880F0C082C0831209E6120494D050
:101ED00083D082020107C082C083790012049A80F5
:101EE000EEC082C08379001204A080E374F2120F66
:101EF0002F74FE120EC5EAFEEBFF9008FDE07002A3
:101F0000A3E060119008FDE0F8A3E0F58388821259
:101F10000F1A0220F28E828F83A38582088583099F
:101F2000EE2402F8EF3400F9880A890B8E828F8341
:101F3000E01210CE0110F22099208C20771FF220A1
:101F4000A91FAF1FF2206420FD1FF220F220F22013
:101F50005A1F82206A20C91FB51F9008F0E0A2E036
:101F600040077A007B001209E6850882850983E034
:101F7000F912045E0220F2900E37E064FF70030253
:101F800020F288828983E0FA900E37E06A600302CB
:101F900020F2900E38E0FB900E371220FE120470F3
:101FA00074FF900E37F00220F21204160220F21293
:101FB000041C0220F29008D6E0640460030220F2C0
:101FC000E4F0F912046A0220F2850882850983E0B0
:101FD000F50C701D7CE87D037A027B009008BAE066
:101FE000F91201DCE9FA8A0C700774019008FC8090
:101FF000B47BFF7AFFA90C1204700220F29008D67D
:10200000E06405600AE06406704C750D018003759C
:102010000D00E41221127029851882851983AA8285
:10202000AB8388828983E0F9120974E9701CEE247D
:102030001D122109FB850A82850B83E0FA79008055
:10204000067BFF7AFF7922120464E50D70030220FB
:10205000F27924021FC3E4F07BFF7AFF79B4120403
:10206000640220F21204220220F28508828509838C
:10207000E0F912047C850882850983E0F91209568B
:10208000807088821220FC1204768066E49008D664
:10209000122112F912048280598E828F83A3A3A386
:1020A000A3A3A3A3A31210A18E828F83A3A3A3A390
:1020B000A3E0F50D780D12108E8E828F83A3A3A35B
:1020C000A3A3A3A3E0F50D780D12108E8E828F834B
:1020D000A3A3A3A3A3A3E0FB8E828F83A3A3A3E068
:1020E000FCA3E0FD850A821220FC1204887404120D
:1020F0000EDB7402120EDB7F06020F958983E0FA75
:10210000850882850983E0F922F582EF3400F583A2
:10211000E022F0850882850983E022C082C0839096
:1021200008FDEAF0A3EBF0021ECF74F5120F2F901A
:1021300008D6E0640160030221BC8A828B83A3A8D5
:1021400082A983E070727E0080080CECC394064084
:102150002E0EEA2417F582EB122378FCEE9C5058E1
:102160008E08EA2508FCEB3400FD74272CF582E488
:102170003DF583E0FD74FE2DC3940E503B7C008C36
:1021800008E50824D8F582E43408F583E0FF6D60A3
:102190000574FF6F70B488088909750A0078081201
:1021A00010867C317D007AFE7B0D12241A120EDB24
:1021B00074029008D6F08009740380F6E06402602F
:1021C000F77F03020F95C082C0839008D6E06402B7
:1021D0007073900DFFE09008BCF0900E00E0F8A343
:1021E000E0F99008C5E8F0A3E9F07C027D0E7ABD25
:1021F0007B08120A6412236C800C122276C0E01253
:102200002361D0E0F00A12226D40EF7A00800C12B8
:10221000225DC0E0122356D0E0F00A74705CC43036
:10222000E30244F0FBEAC39B40E59008F0E0A2E241
:10223000500474248001E49008D2F07405121D4704
:102240001209088015E064016005E06403700BE486
:10225000F07BFF7AFF7921120464021ECF8A82A8E4
:1022600082E824E2F582E43408F583E02274065C17
:10227000C313FBEA9B228A82A882E824DFF582E46A
:102280003408F583E02274F6120F2FEAFEEBFFEE1E
:102290002430122109FA9008D2F08A08EE2416F5AB
:1022A00082EF122378601A9008FCE06014EE242676
:1022B000122109F50974FF6A700474B18005E48085
:1022C0000274B49008BCF07A027B009008BAE0F97E
:1022D0001201E212236C800C122276C0E0122361FC
:1022E000D0E0F00A12226D40EF7A00800C12225DDD
:1022F000C0E0122356D0E0F00A74705CC430E302F0
:1023000044F0FBEAC39B40E58E828F83A3A3E0F8F1
:10231000A3E0F99008BDE8F0A3E9F0EE2404FCEF97
:102320003400FD7ABF7B08120A647ABC7B0812096C
:102330001A9008BCE07013E508900E37F0E509909C
:102340000E38F0E49008FCF080099008FCE060038F
:10235000122382021BD0E824CBF582E43408F583F3
:1023600022E824C8F582E43408F583229008DEE0F0
:10237000FC9008C7F07A00223400F583E05406C3CD
:102380001322E4F07BFF7AFF79231204702274F5A4
:10239000120F2F74019008D7F0740F9008F0F07CA2
:1023A000067D0079007AD87B081201347402900807
:1023B000D8F074129008DEF074019008DFF09008F5
:1023C000E2F09008E97410F0A3E4F09008EB744A8E
:1023D000F0A37401F09008F17407F0A3E4F075081D
:1023E0007875090DF50A78081210867A787B0D1237
:1023F00001228A088B0974012508FCE43509FD7A5D
:10240000F37B0812241A120EDB9008ED7464F0A31B
:10241000E4F09008EFF00221C1FB120128740322BE
:1024200074F5120F2FEAFEEBFF750A00850A087596
:10243000090074027808120EB2E5082403F8E509D1
:102440003415F988828983A3A3E493FC740193FD76
:1024500088828983A3E493FA88828983E493F98E3E
:10246000828F83120F1A050AE50AC3940C40BD023D
:1024700021C174F4120F2F74FC120EC57E00E4907B
:10248000082CF0900829F07F3D7508047509007844
:102490000812108A7402120F10AC82AD837A007B8E
:1024A00000EF122A89120EDB851882851983C082FB
:1024B000C083900D6B7808120D9BD083D082780872
:1024C000120B3A7019900829E06010F912035CEFC2
:1024D000F912035CE4900829F08029EF80FA85184E
:1024E00082851983C082C083900D467808120D9BA7
:1024F000D083D0827808120B3A7004EFFE8005EF8B
:10250000F912035C0FEFC3943F5003022489900833
:1025100029E07026EE7018793D12035090082A7455
:1025200004F0A3E4F090082CE0601979008017F023
:10253000120362EEF9120374800AEE6004F91203CA
:1025400056120362790102272974F4120F2F74FCCA
:10255000120EC5E9FE900D6B7808120D9B8518824E
:102560008519837808120DAA851882851983AC8293
:10257000AD837A007B0012038090082CE07005EE9A
:10258000900829F002272974F4120F2F74FF120EFD
:10259000C58908794E1201FAE9600690082CE060BE
:1025A00008740190082CF08039A90812027E7E0080
:1025B0007F00750A01750B00780A12108A740212E6
:1025C0000F10AC82AD83EEFAEFFBA908122A8A1233
:1025D0000EDB851882851983E064FF70C4122630F3
:1025E00040D0740102272B74F4120F2F74FF120EC7
:1025F000C589087E007F00750A01750B00780A12F4
:10260000108A7402120F10AC82AD83EEFAEFFBA9B0
:1026100008122A8A120EDB851882851983E064FF6E
:102620006007A908120356800512263040C980B2FF
:10263000EE24010EEF3400FFC394102274F4120F45
:102640002F74FC120EC57EFC7F0F750804750900FF
:10265000780812108A7402120F10122A7D120EDBF3
:10266000851882851983C082C083900D5678081220
:102670000D9BD083D0827808120B3A7011EE24FCA7
:10268000FEEF34FFFFC3EE9404EF940050BC122C15
:1026900029E8F0A3E9F002272974F4120F2F74FC43
:1026A000120EC58909EAFEEBFF8C08EE24FCFEEF52
:1026B00034FFFFC3EE9404EF94004069750A04757B
:1026C0000B00780A12108A7402120F10AC82AD83CC
:1026D000EEFAEFFBA909122A8A120EDB7402120F1E
:1026E00010E0F8A3E0F985188285198385080AE0CF
:1026F000650A7002A3E0700AEEC398FAEF9400FB3B
:102700008027748059FBE47001EB709F740428FAF1
:10271000E439FBC3EE9AEF9B4008EEC3981229D12F
:10272000809012022A7A007B007404120EDB7F0470
:10273000020F9574EC120F2F74FC120EC5890AEA71
:10274000FEEBFF8C0B7418120F10E0F50EA3E0F5F2
:102750000F741A120F10E0F50CA3E0F50D85188226
:1027600085198374FFF0A3F0A80E7480450FF974E7
:1027700002120F10E8F0A3E9F0E82EF508E50F3F8C
:10278000F509851882851983AC82AD83AA08FBA957
:102790000A1203807402120F101228207402780E9D
:1027A000120EA3E50EF51090082CE0704E750F0088
:1027B000780E12108AAC0CAD0D8E0E8F0F7402784D
:1027C0000E120EA3850A12F513740A7812120EB2B5
:1027D000250EFAE513350FFB1202787402120EDB98
:1027E000E510F50E780E12108EAC0CAD0DEEFAEF72
:1027F000FBA90A12037A7401120EDB850B0CE50C9F
:10280000851882851983F0A3748012282685188282
:102810008519831228207404120EDB7F0C020F9599
:10282000E0F0A3E0547FF0851882851983AC82AD77
:1028300083AA08AB09A90A1203802274EA120F2F97
:1028400074F8120EC58910750DFF743D6510700582
:10285000750C3E8003750C3D750A04750B009008DD
:102860002AE024FCFEA3E08005EE24FCFEEF34FF0A
:10287000FFC3EE9404EF940050030229AD90082C9E
:10288000E060030229C77508047509007808121072
:102890008A7402120F10AC82AD83EEFAEFFBA9101E
:1028A000122A8A120EDB851882851983E064FF7074
:1028B00004A3E064FF70357402120F10E0F8A3E087
:1028C000F9748059FBE47001EB709E740428F8E4FD
:1028D00039F9C3EE98EF99400D7402120F101229C6
:1028E000DD1229D1808A12022A0229C78518828521
:1028F0001983A3E05480F9E47001E970DC85188243
:10290000851983850D08E065087002A3E060CA851B
:102910001882851983E0F50DFCAA0AAB0BA90C12ED
:102920000368EA7001EB70B17402120F101229DD16
:10293000F508EF99F50988148915750E00750F00D3
:10294000751204751300781212108A7406120F1093
:10295000AC82AD83E50E2508FAE50F3509122A840D
:10296000120EDB7404120F10AC82AD83E50E250A43
:10297000FAE50F350BFBA90C120380E50E2404F5D4
:102980000EE50F3400F50FC3E514950EE515950F10
:1029900050AE7402120F10E02404F8A3E03400F9E2
:1029A000E50A28F50AE50B39F50B0228D9A90C121E
:1029B000035090082CE0700A90082AE50AF0A3E57D
:1029C0000BF0A9101203567408120EDB7F0E020FD3
:1029D00095F8EF99F974FC28FE74FF3922E0F8A30A
:1029E000E0F9EEC3982274F0120F2F74FC120EC59A
:1029F000890FEAFEEBFF8C0A8D0B7414120F10E0A6
:102A0000F5098014EE2404FEEF3400FFE50A2404E7
:102A1000F50AE50B3400F50B85090874FF2508F568
:102A200009E508604E750C04750D00780C12108ACB
:102A30007402120F10AC82AD83EEFAEFFBA90F12F5
:102A40002A8A120EDB850A0C850B0D750E00780C98
:102A50001210867C047D007403120F10A982AA83D1
:102A60007B0012012E7403120EDBE9709774019043
:102A7000082CF07404120EDB7F08020F95AC82ADB7
:102A800083EEFAEFFB900829E0F912027274022239
:102A900074F1120F2F890E8A088B09ECFEEDFF905E
:102AA000082CE0704B750A01750B00780A12108A29
:102AB0008A0A8B0B7402780A120EA3890CF50D7426
:102AC0000A780C120EB2250AFAE50D350BFB12023C
:102AD000787402120EDB750A01780A12108EEEFC71
:102AE000EFFDAA08AB09A90E12037A7401120EDBDE
:102AF0007F07020F95C082C08312034AE970031258
:102B0000022AD083D08202010774F0120F2F74FBC7
:102B1000120EC589098A088C0A8D0BAC09122C6A21
:102B20008A0C8B0DAE0CAF0DEE7001EF6050750E80
:102B300000803B750C01750D00780C12108A740230
:102B4000120F10122A7D120EDB851882851983E080
:102B5000FA850E0CE50A250CF582E50B3400F583A9
:102B6000E06A701AEE24010EEF3400FF050EE50E48
:102B7000C3950840BEE508650E7003022C22850847
:102B80000C7403250CF8E43400F97A047B00120E6F
:102B900042880C890D7402780C120EB2AE0CAF0D87
:102BA00090082AE02EF8A3E03FF9740428F8E439ED
:102BB000F9C3E89401E994104039900D46780C125D
:102BC0000D9B7401120F10E50CF0A3E50DF0A3E5C9
:102BD0000EF0A3E50FF07401120F10AC82AD837AF2
:102BE000007B00900829E0F9120380900829E0F9A1
:102BF000120374780A12108A8E0A8F0B780A121048
:102C00008AAC09122C7112036E7404120EDB900848
:102C10002CE06004790A800C122C29E028F0A3E053
:102C200039F079007405022A7574042EF8E43FF92E
:102C300090082A2274F4120F2F890A8A0BECFEEDF9
:102C4000FFAC0A122C6AEA7001EB6019850B08755B
:102C50000900780812108AEEFCEFFD122A85120E88
:102C6000DB79008002790A02272E122C7112036888
:102C70002290082AE0FAA3E0FB900829E0F92274E8
:102C8000E8120F2F74ED120EC5E98518828519839D
:102C9000F07401120F10ECF0A3EDF0742B120F1072
:102CA000E0F510A3E0F511742D120F10E0F516A356
:102CB000E0F517742F120F10E0FEA3E0FF851882D5
:102CC000851983E07003022FAA7403120F10740198
:102CD000F0EE7001EF60037441F08518828519836E
:102CE000E024FE333354FCFC7403120F10E04C124A
:102CF000335B1210867C0D7D007407120F10AA82C0
:102D0000AB83123169120EDB7411120F10E511F052
:102D10007412120F10E510F07C107D0079007433EE
:102D2000120F10E0FAA3E0FB1201347508207509B8
:102D300000C3EE940FEF9400402D74F22EF874FF50
:102D40003FF974F058F8742028F508E439F509EED5
:102D500024F2540F6004781080027800E50828F50A
:102D600008E5093400F509E510540FF50F60047A01
:102D70001080027A0074F05510F874FF5511F9EACA
:102D800028F8E439F9E50828F508E50939F509AA2C
:102D900008FB1201A68A148B15EA7001EB70057905
:102DA00010022FAC7403120F10A982AA83890C8A17
:102DB0000D750E00780C1210867C107D00AA14127E
:102DC0003169120EDBE5142410F50AE5153400F51F
:102DD0000BEF850A82850B83F0A3EEF0A385820AB0
:102DE00085830B85160C85170DC3940FEF94004057
:102DF0000B780C1210867C0E7D0080167C0E7D00F8
:102E00007900AA0AAB0B120134780C121086EEFC82
:102E1000EFFD123165120EDBE50A240EF50AE50B13
:102E20003400F50BC3EE940FEF9400407BEE24F2D8
:102E3000FEEF34FFFF8E0C8F0D7404780C120EA37E
:102E4000EE540FFE7404780C120EB2850C128F1320
:102E5000E516240EF50CE5173400F50D780C12106C
:102E600086AC12AD13123165120EDBE50A2512F5A0
:102E70000AE50B3513F50BEE602E7C107D00790012
:102E8000AA0AAB0B120134E5162512F8E517351323
:102E9000F9740E28F50CE439F50D780C1210861231
:102EA0003161120EDB122FB174047810120EA3A838
:102EB00010A911AE0F880C890D7404780C120EB293
:102EC000850C10850D117401120F10E0F50CA3E0B4
:102ED000F50D780C121086AC10AD11123165120E82
:102EE000DBE50A2510F50AE50B3511F50BEE602B35
:102EF0007C107D007900AA0AAB0B12013474011218
:102F00000F10E02510F50CA3E03511F50D780C122B
:102F10001086123161120EDB122FB1E50AC395142F
:102F2000F8E50B9515F9E865087003E96509600394
:102F300012022A12333243B350E5B37433120F1026
:102F4000E0FAA3E0FB120206780812108A78141245
:102F5000108A7C107D007437120F1012334C120E41
:102F6000DB53B3F8E5B374047808120EA374FF259D
:102F700008F874FF3509F9800943B301E5B3A2E30A
:102F800050FAE8FAE9FB74FF2A1874FF3BF9EA707B
:102F900001EB70E512333285B3B343B301E5D1A23F
:102FA000E250FAAA14AB151201AC79007413023185
:102FB00059E50A2410F50AE50B3400F50B2274E8F4
:102FC000120F2F74E0120EC5EAFEEBFF8C168D1760
:102FD0007438120F10E0F508A3E0F509743C120FE5
:102FE00010E0F512A3E0F51385120CF50D750E0037
:102FF000780C121086E9FC7D007413120F10AA825F
:10300000AB83123169120EDB740185188285198336
:10301000F08E0C8F0D780C1210867C0D7D007404E0
:10302000120F10AA82AB83123169120EDB740F12D9
:103030000F10E4F0740E120F10E4F085080A8509F1
:103040000B7404780A120EA3AE0AAF0BE508540FF6
:10305000F50F6008EE24010EEF3400FF8E0C8F0D8B
:103060007404780C120EB2850C0A850D0BAA0AABFB
:103070000B1201A68A108B11EA7001EB7005791012
:1030800002315785160C85170D780C121086AC0886
:10309000AD09123169120EDBE50F601BF50C7410DF
:1030A000C3950CFCE49400FD7900E5102508FAE5D1
:1030B000113509FB120134123338750C10750D00EF
:1030C000780C12108A7412120F1085820C85830DF1
:1030D000780C12108A7C107D00AA12AB13123355A3
:1030E000120EDB12331EE5D1A2E250FAEE7001EFB0
:1030F0006043123327120F10123366780A12108AB7
:10310000781012108AAC0AAD0BAA10AB111233550D
:10311000120EDB53B3F8E5B3800943B301E5B3A264
:10312000E350FAEEF8EFF974FF281E74FF39FFE858
:103130007001E970E585100C85110D780C12108670
:10314000AC08AD09AA16AB17123169120EDBAA1032
:10315000AB111201AC79007420120EDB7F10020F4C
:1031600095EEFC7D00AA0AAB0B12012874032274B1
:10317000E8120F2F74E0120EC5890F8C148D157490
:1031800038120F10E0FE74018518828519831233FE
:103190005B1210867C0D7D007404120F10AA82ABA6
:1031A00083123169120EDB740F120F10E4F0740EEB
:1031B000120F10E4F0EEC3950FF50CC4540FFE7F10
:1031C00000740F550C60010E7C107D007900EC122C
:1031D0000F10AA82AB83120134850C08E514250870
:1031E000F516E5153400F517850F828582128516D0
:1031F00008F5097808121086AC127D007413120FBE
:1032000010AA82AB83123169120EDB1233387508B3
:10321000108F09780812108A7412120F1085820814
:10322000858309780812108A7C107D007440120F83
:103230001012334C120EDB12331EE5D1A2E250FA0B
:103240008E0A8F0B7404780A120EB2850A08850B59
:1032500009AA08AB091201A68A0A8B0BEA7001EBD6
:103260007005791002331BAC08AD097900120134E6
:10327000850C8285821085140C85150D8F0E780CB7
:10328000121086AC10123163120EDBEE7001E46096
:1032900046123327120F10123366780812108A78FC
:1032A0000A12108AAC08AD09AA0AAB0B12335512E8
:1032B0000EDB74F855B34402F5B3800943B301E55E
:1032C000B3A2E350FAEEF8EFF974FF281E74FF3949
:1032D000FFE87001E970E5850A0C850B0D780C128A
:1032E0001086AC107D00AA14AB15123169120EDBEA
:1032F000AA0AAB0B1201AC743C120F10E0F508A344
:10330000E0F509750A007808121086AC127D00AA53
:1033100016AB17123169120EDB790002315753B325
:10332000F8E5B343B3012212333243B330E5B3744B
:103330000F2253B38FE5B32212333243B3208518E3
:1033400082851983AA82AB8312020622E0FAA3E0E7
:10335000FB12335522120212740422F08A088B09E0
:10336000750A007808227401F0851882851983AAED
:1033700082AB831202062274EE120F2F8908ECFE34
:10338000EDFF7412120F10E0F87414120F10E0F534
:1033900010A3E0F5117416120F10E0F50EA3E0F57E
:1033A0000F7418120F10E0F50CA3E0F50D741A124B
:1033B0000F10E0F50AA3E0F50BE9700779007F0A2A
:1033C000020F95E8C39508F509780A12108A780C5F
:1033D00012108A780E12108A781012108A85090C41
:1033E000750D00780C12108A120236740A120EDB68
:1033F000E970CB7A0080010AEAC3950850C0AC0995
:1034000074012CF5098A0CE50A250CF582E50B34CC
:1034100000F583E0FB8C0CEE250CF582EF3400F513
:1034200083E06B60D27901809574F6120F2F9009BA
:1034300026E07002A3E0701C90092812380174FF86
:1034400059FBE47001EB700C90092AE064027002F1
:10345000A3E0600474048058900924E01210CE8028
:103460000254346934B734C734E870E890091EE078
:103470006004780180027800900933E8F0A3E4F05A
:1034800090091DE0600A900933E04402F0A3E4F0E3
:10349000900912E06404601C90091F7433F0A37457
:1034A00009F0A3E4F09009227402F0A3E4F074019F
:1034B000900912F0023B4E90090BE0640470959065
:1034C0000933E4F0A380C8E8547FF50890090BE0C5
:1034D00064047080E508C394064003023454E50890
:1034E000240BF582E43409F583E854806018A3A323
:1034F000A3A3A3A3A3E0640370047801800278006F
:10350000900933E88086E582240CF582E583340057
:10351000F583E0640370E780E174F6120F2FE9FE93
:1035200090092AE07002A3E0701290090BE0640495
:103530006015900928E07002A3E0600B7404900904
:1035400012F07901023B4E900924E0541F1210CE74
:1035500000023C355A3562357A35900926E064011F
:103560006004790080DEEE90091DF060047905802A
:103570000279067A001204CA80C8900928E0547FB4
:10358000FA900926E070DBEAC3940650AFEA906235
:103590000EF0240BF8E43409F9900928E054806017
:1035A0002CEE6004741080027440906211F0EE60A2
:1035B0000474038001E488828983A3A3A3A3A3A343
:1035C000A3F0EE6004790880317907802DEE600465
:1035D000742080027480906214F0EE6004740380A2
:1035E00001E4C0E0E8240CF582E93400F583D0E082
:1035F000F0EE6004790A800279091204CAE490624C
:103600000E023541C082C083790012051EE97003A5
:103610001204BE805FC082C083790112051EE9706A
:10362000031204C4804EC082C083900928E0700257
:10363000A3E0701E90092AE07002A3E070149009C4
:1036400026123801748058FA74FF59FBEA7001EBB6
:1036500060077404900912801AE8906200F09009E3
:103660000B6009E06402700C74038007E06403706F
:10367000037402F0D083D08202010774F2120F2F7C
:10368000900926E0FAA3E01210CE0102DE3694364D
:10369000A736D7361204D61237E0120B84900922CF
:1036A000F0A3E4F002379C79001204DC1237E0E961
:1036B00024020909EA3400FA120B84FC1919E0FA11
:1036C000E92403090909EA3400FA120B84F9EC90A1
:1036D0000922F0A3E980CCEAF91204E880B9900944
:1036E0001FE4F0A3F0A3F0F50B900D83E0FAA3E044
:1036F000FB02377675090074037808120EB2EA25CA
:1037000008F8EB3509F99009261237F7E493C0E081
:10371000EFFCD0E06C705DA3E4936E7057900928C5
:103720001237F7A3A3E493C0E0EFFCD0E06C704441
:1037300088828983A3A3A3E4936E703888828983E7
:10374000A3A3A3A3E493F508740193F50990091FBB
:10375000E508F0A3E509F0A37480F088828983A3CB
:10376000A3A3A3A3A3E493F8740193F9900922E817
:10377000F0A3E9F0050B850B08900D85123801E8E0
:10378000C39AF50CE99BF50D7403780C120EA3C3D4
:10379000E508950CE4950D50030236F490091FE0FE
:1037A000FCA3E0FDA3E0FEEC4D4E70047404802702
:1037B000900912E06404602390092AE0FAA3E0FB78
:1037C000900922123801C3EA98EB99500890092217
:1037D000EAF0A3EBF07401900912F07F06020F9556
:1037E00090091FEAF0A3EBF0A37480F090091FE0AA
:1037F000F9A3E0FA7B8022E0FEA3E0FF88828983C0
:1038000022E0F8A3E0F92274ED120F2FEA2404F568
:1038100008EB3400F509850882F583E4936026906F
:103820000D87123801E8FEE98007EE2404FEEF342C
:1038300000FF8E828F83E493F8740193F9EA687035
:1038400002EB6970E5750A0080407490906214F094
:10385000741012395C7003750B408E828F83A3A3A2
:10386000A3E49355106006E50BD2E0F50BE50B9051
:103870006215F0EA906213F0EC240CF582ED34004E
:10388000F583E4F090620EF0050A850882850983CD
:10389000E493FAE50AC39A40030239577A0079059E
:1038A0001204D08A0EEA7001EB60DDEA2402F8EB24
:1038B0003400F9880C890D8882F583E493540FF560
:1038C0001290620EF0750B008A828B83A3A3A3A3D0
:1038D000E4932407F510A3E4933400F511740378FE
:1038E00010120EA3AA10851210E510240BF8E43470
:1038F00009F9E8FCE9FD751001751100E512781071
:10390000120EB2E50E2403F8EB3400F9850C828523
:103910000D83E493A2E7400302384A744890621191
:10392000F0740812395C7003750B408E828F83A38C
:10393000A3E49355106006E50BD2E0F50BE50B9080
:103940006212F0EA906210F0E48C828D83A3A3A34C
:10395000A3A3A3A30238837F0B020F95F08882896B
:1039600083E4935403640122C082C083900926E05B
:103970007002A3E07016900928E07002A3E0700CBA
:1039800090092AE064017002A3E060047404800CD2
:1039900090091F740CF0A37409123AC3900912F035
:1039A00002367474F3120F2F90090BE06402601F4B
:1039B000900928E07002A3E0701590092AE07002D7
:1039C000A3E0700B900927E0F9E47001E960097445
:1039D00004900912F0023A6C7A0079011204CA903C
:1039E0000926E060727A00F91204DC8A088B09EA81
:1039F0007001EB605A740490090BF0900926E09076
:103A0000090CF0750C00850882850983A3A3A3A384
:103A1000E493FAE50CC39A504C850C0AE50A240D90
:103A2000F8E43409F9E8FEE9FFE48E828F83F07A46
:103A30000079041204D08A828B83A3A3A3E493FCAD
:103A40008E828F83E06C70E712053C050C80B774A2
:103A500004900912F0800E90090CF0740390090B89
:103A6000F0F91205007A0079021204CA7F05020FEC
:103A70009574F5120F2F90090BE06404701E9009E5
:103A800024E064817016900926E07002A3E0700CB7
:103A900090092AE064017002A3E060047404801AB3
:103AA000900928E0240DF508A3E03409F5099009F0
:103AB0001FE508F0A3E509123AC3900912F07F034D
:103AC000020F95F0A3E4F09009227401F0A3E4F052
:103AD00074012274F6120F2F90090BE06404701227
:103AE000900924E06401700A90092AE07002A3E0C2
:103AF00060087404900912F08054900926E0FB904D
:103B00000928E0FA90090CE0F91204E28A088B090E
:103B1000AE08AF09EE7001EF60D8900928E0FA799D
:103B2000031204CA900926E0C0E0900928E0240DA1
:103B3000F8A3E03409F988828983D0E0F0EEFAEF47
:103B4000FB12053C900928E0FA79041204CA7F02AE
:103B5000020F9574F7120F2F74E3120EC5E9900847
:103B600019F0740190081CF0FA1201BE7401851856
:103B700082851983F0120F107404F07402120F1072
:103B8000E4F07403120F107430F0A3E4F0740A121E
:103B90000F107480F0A3E4F07412120F107480F010
:103BA000A3E4F07405120F107406F07416120F10CF
:103BB0007401F0741B120F107420F0A37403F085CD
:103BC0001882851983AA82AB8379021202E4741DDC
:103BD000120EDB7F01020F9574F0120F2F8A0A8BF1
:103BE0000B7480550BF9E47001E9706F7440550B4C
:103BF000F9E47001E97003023CA512032CAA0A74CF
:103C000040650BFB023CBB74206A7048E0541FF017
:103C100079801203328A0E8B0FA80EA90FE8FEE9F5
:103C2000FFE87001E9602D750E00780C1210867C9B
:103C3000807D001201287403120EDBEEFAEFFB12F6
:103C400004528E828F83A3E0541F4460F0EEFAEF9B
:103C5000FB120326AA08AB09120140900819E0F9EB
:103C600012014C8A088B09EA7001EB60318A828B61
:103C700083E0640170DEA3A3E0F50CA3E0F50D85FD
:103C80000C82F583A3E054E0FA74406A6003023CBE
:103C900007E0541FF0AA0CAB0D12045880B6AA0A14
:103CA0007480023C017420550BF9E47001E960074F
:103CB0007420650BFB80047A007B007F08020F955F
:103CC00074F1120F2F8A088B098A828B83E0F91214
:103CD00003328A0A8B0BA80AA90BE8FEE9FFE870F9
:103CE00001E96055850882850983E08E828F831201
:103CF0003D44E0541F44408E828F83123D3EE08E4F
:103D0000828F83A3123D3EA3A982AA83890C8A0DC8
:103D1000750E00780C121086850882850983E0FCF8
:103D20007D00EE2403FAEF3400FB12012874031225
:103D30000EDBEEFAEFFB1203267F07020F95A312AC
:103D40003D44A322F0850882850983A32274F712DB
:103D50000F2FEA121104010102643D0204643D10B8
:103D6000693D6C3D120338800312032C023BD3746F
:103D7000F6120F2FEAFEEBFF8E828F83E02403F50D
:103D800008F912033EEE2508F582EF3400F583E9C9
:103D9000F0EE24FF1EEF34FFFF74FE8E828F83F05F
:103DA000EEFCEFFD123DAC7F02020F957A1A7B0804
:103DB0001201527A007B40900819E0F912016A2240
:103DC00074F6120F2F90081FE07002A3E060030248
:103DD0003E607A1A7B081201588A088B09A808A944
:103DE0000990081FE8F0A3E9F0900821E8F0A3E9A2
:103DF000F0E87001E96069E0F5838882E07047903F
:103E0000081D7401F0A3E4F090081DE0FCA3E0FDA0
:103E10009008211240B779021202F08A088B09AC8F
:103E200008AD0990081DC3E09CF0A3E09DF0900848
:103E30001DE07002A3E0704590081F1240DD90085D
:103E40001FE4F0A380489008221240EBE0F87405CC
:103E500028F8E43400F990081DE8F0A3E9F0800A9E
:103E600090081FE07002A3E0602590081DC3E09455
:103E700081A3E0940040917C807D00809390082194
:103E8000E02CF8A3E03DF9900821E8F0A3E9F00266
:103E90003DA774F6120F2FE9FE8E0874052508FA67
:103EA000E43400FB1240BD7002E5836007A3AA82E0
:103EB000AB8380047A007B00023DA774F6120F2FBB
:103EC00074FF120EC5E9FE90081CE0A2E0406012EB
:103ED00002FCEA7001EB7003023FB790081CE0D2CD
:103EE000E0F07A017B001240BD7002E5836040E49F
:103EF000F0AC82AD83123DAC80359008271240C7EC
:103F00007401F01240D0900827E02404FAA3E034B2
:103F100000FB88828983EAF0A3EB124101C0E088AC
:103F20008289831240C7D0E0F07401900823F0EE3C
:103F3000F91202FCEA7001EB607D7C017D008518BE
:103F400082851983AA82AB83EEF91202EA1240D06D
:103F5000E8FAE9FB900823E01210CE00052F3F6B32
:103F60003FBF3FD33F7A3FEF3F76408518828519A8
:103F700083E064FE70B9740380B18518828519836B
:103F8000E064FE60AAE0900824F0E4900826124164
:103F900001F8740728FAE43400FB12013A9008276C
:103FA000EAF0A3EBF0900827E07002A3E0600302C0
:103FB0003EFAE4900823F07401120EDB023DA7855F
:103FC0001882851983E0C0E01240E4D0E0F074026A
:103FD000023F2B851882851983E0C0E01240E4A3DC
:103FE000D0E012410170030240717404023F2B853E
:103FF0001882851983E0C0E0900826E0F88A828B59
:10400000831240F2D0E0F0900826E004F0EEF912BE
:1040100002FCEAFF900826E0F8900827E0FAA3E007
:10402000F5838A82A3A31240F2AA82AB839008246C
:10403000E0C398FCE49400FD8F08C3EC9508ED9470
:1040400000A2D265D0334010AC087D00EEF9120218
:10405000EA900826E02F800CEEF91202EA9008247C
:10406000E0900826F0E0FA900824E06A6003023F3E
:104070002F7405023F2B851882851983E09008254F
:104080001241012403F98A828B831240B712033E46
:10409000E9FA900825E06A900827700D1240B79061
:1040A0000819E0F9120146800A1240DD7A007B20EF
:1040B000123DB7E4023F2BE0FAA3E0FB2212013AE3
:1040C0008A828B83E58222E0F8A3E0F5838882224E
:1040D000900827E02402F8A3E03400F9221240B748
:1040E000120140228A828B83E0F8A3E0F583888264
:1040F000A322E028FAA3E034008A82F583A3A3A3D5
:1041000022F0900824E02274F7120F2FE9FD7900C5
:104110007C00800E8A828B83E0C969F90CA3AA8295
:10412000AB83ECC39D40ED023BD3C082C0839008BB
:104130001CE0C2E0F0D083D082020107C082C083BD
:10414000120A7002429E74F5120F2FEAFEEBFF7402
:104150000B120F1012439BA3E0A908AA09FB8E8241
:104160008F83800D120B84F0E9240109EA3400FAF0
:10417000A3ECFEEDFF74FF2E1C74FF3FFDEE7001FB
:10418000EF70E1AA82AB837F03020F9574ED120FEB
:104190002F7413120F10E0F510A3E0F511A3E0F552
:1041A0001289088A098B0A85100C85110DECF8ED2F
:1041B000F974FF281C74FF39FDE87001E96036A925
:1041C00008AA09AB0AE92401F508EA3400F50985D3
:1041D0000C10850D11E50C2401F50CE50D3400F5EE
:1041E0000D120B84FEA910AA11AB12120B846E6083
:1041F000BC7900800279017F0B020F9574F6120FD3
:104200002FE9FE8C088D09780812108AEEFC7D00DB
:10421000120A6A7402120EDB024455A2E092AF7FCA
:1042200001020F9574F6120F2FEAFEEBFFEE7001FC
:10423000EF70067A007B00803E74052EFAE43FFBA7
:104240001201A68A088B09A808A909E87001E9608B
:10425000E288828983E4F0A3F088828983A3A3EEB5
:10426000F0A3EFF074FF88828983A3A3A3A3F0E8EF
:104270002405FAE93400FB024455C082C083EA7089
:1042800001EB7004790580161242F660047904800F
:104290000DEA24FBFAEB34FFFB1201AC7900D0836A
:1042A000D08202010774F7120F2FE9FEEA7001EBCA
:1042B00070047905803D900D6AE0FCE9C39C4007DD
:1042C0001201407903802C1244C8E07002A3E07010
:1042D000051242F6600512014080D7EEF0EAFCEBD1
:1042E000FD7A807B011201527A007B80EEF9120187
:1042F0006A790002421FEA24FFF582EB34FFF5835E
:10430000E064FF2274F2120F2F890B750C00750DFB
:10431000007E007F00A2AFE492E0F50AC2AF9001F8
:10432000808017EE7001EF700685080C85090DE599
:104330000824FBF582E5091244CE12439BE5087080
:1043400002E5096025E50824FFF582E5091244CE5F
:10435000E0650B70CEEE7001EF7006AE08AF09801D
:10436000CE7A007B8012016A800D7A007B80120178
:1043700070EE7001EF6015780C12108AEEFCEFFD04
:104380007A807B0112015E7402120EDBE50AA2E064
:1043900092AFEEFAEFFB7F06020F95E0F508A3E07F
:1043A000F50922E0FAA3E0FB2274F7120F2FA2AF67
:1043B000E492E0FEC2AFEC24FBF582ED1244CEE4C1
:1043C000F0A3F01243F87001E970098A828B8380B0
:1043D000101244D31243EA7002A3E08882898370EA
:1043E000F0ECF0A3EDF0EE02421BE824FBF8E93418
:1043F000FFF988828983E0228A828B83E0F8A3E038
:10440000F9E82274F6120F2FEAFCEBFD7A007B002C
:10441000A2AFE492E0F508C2AF8C828D831243FC18
:104420007001E9602AE8FAE9FBEA24FBF8EB1243A1
:10443000EFFEA3E0FF8C828D83EEF0A3EFF0888285
:104440008983E4F0A3F0EA24FF1244CB74FFF0E583
:1044500008A2E092AF7F02020F9574F5120F2F743D
:104460000B120F101244D3A2AFE492E0F50AC2AFD0
:10447000EC24FBFEED34FFFF8A828B8312439BEC1E
:1044800065087003ED65098E828F83700D1244D329
:104490008A828B83E8F0A3E980101243A3E824FB0F
:1044A000F582E91244CEEAF0A3EBF08E828F83E42A
:1044B000F0A3F0EC24FFF582ED1244CE74FFF0E59A
:1044C0000AA2E092AF024187EA24FBF582EB34FFB7
:1044D000F58322E0F8A3E0F92274F6120F2FE9FE2B
:1044E000750800A2AFE492E0FFC2AF1243F870017A
:1044F000E970108A828B83801BEE6020888289831A
:104500001244D31E1243EA7002A3E070ECEE600C7A
:1045100088828983ECF0A3EDF0750801EFA2E092A8
:10452000AFA90802445574F7120F2FE9FD900D6AE8
:10453000E0FCE9C39C5029E5A8FEC2AFEDC333F807
:10454000E433F9900817E028FCA3E0398C82F58366
:10455000E04AF0A3E04BF0EEA2E792AF79008002D0
:10456000790302421F74F7120F2FE9FE900D6AE0E3
:10457000FCE9C39C501EE5A8FFC2AFEAF4FCEBF4D3
:10458000FDEE12467E5CF0A3E05DF0EFA2E792AF95
:1045900079008002790302421FE9FA74FF6A70060B
:1045A000D2AF790080027907020107E9FA74FF6A45
:1045B0007006C2AF790080027907020107C082C08D
:1045C0008312019A900180E4F0A3F01201C4120159
:1045D000B21203021201A0790002429E74F6120F79
:1045E0002F75080012018E120266E50812467E70D1
:1045F00002A3E0700D0508900D6AE0FAE508C39A81
:1046000040E8900D6AE0FAE508C39A505BE5A8FC23
:10461000C2AFE508C333FEE433FF900817E02EF87D
:10462000A3E03FF9888289831243A388828983E4C7
:10463000F0A3F0ECA2E792AFA908EE245EF582EFBA
:10464000340DF583124675120F1AE5A8FDC2AF901E
:104650000817E02EFCA3E03F8C82F583E04AF0A32C
:10466000E04BF0EDA2E792AFA2AF50030245E1129A
:10467000022A0245E1E0F8A3E0F583888222C333F1
:10468000F8E433F9900817E028FAA3E0398A82F5B4
:1046900083E022C082C0837401900901F0D083D0EE
:1046A0008202010774F6120F2FEAFEEBFF8E828F53
:1046B00083A3E0FA740A6A600302473FEE2404F819
:1046C000EF3400F9EE2403FAEF3400FB8A088B097B
:1046D0008E828F83A3A3E0121104000301E7460238
:1046E00005471222474F4788828983E0048E828FD4
:1046F00083F0E8FCE91247541203B6E98508828585
:104700000983F0804AEE2405FCEF3400124754126E
:1047100003BCE9850882850983F074018E828F834A
:1047200080E08A828B83E0F9120440850882850943
:1047300083EAF0A3EBF074028E828F83F080107412
:104740000B6A700BEEFA1203A4E960031248D77FDC
:1047500002020F95FD88828983E0FA8508828B83A7
:10476000E0F92274F6120F2FEAFEEBFF8E828F83A0
:10477000A3E0FA740A6A60030248C58E828F83A39D
:10478000A3E01210CE0310D448AB47C647E8474811
:104790004865487B4892489A48B748D7475848D414
:1047A00048D448D448A448D4489F48900901E064BC
:1047B0000270077A007B001204107401900901F066
:1047C0001203C80248D4900901E064016003024862
:1047D000D41203CE0248D4900901E06401600302C0
:1047E00048D41203D40248D4900901E06401600364
:1047F0000248D4EE2409F508EF3400F509780812D0
:10480000108A8E828F83A3A3A3A3A3A3A3A3E0F5FF
:1048100008780812108E8E828F83A3A3A3A3A3A36C
:10482000A3E0FB8E828F83A3A3A3A3A3E0FC8E82CD
:104830008F83A3A3A3A3A3A3E0FD1248E51203EC77
:104840007403120EDB0248D4900901E06401600396
:104850000248D41203DA807C900901E0640170748C
:104860001203E0806F900901E0640170678E828F0F
:1048700083A3A3A3E0F91203F28059900901E06435
:104880000170518E828F831248F0A3E0FB1203F86F
:1048900080421203441203FE803A1204048035124F
:1048A000043480308E828F83A3A3A3A3A3E0FB12E2
:1048B00048E512043A801D8E828F83A3A3A3E0F9FA
:1048C0001203E6800F740B6A700A1248D7EEFAEFF3
:1048D000FB12039E02474F7402900901F07A987B05
:1048E00003120410228E828F83A31248F0E0F92273
:1048F000A3A3A3E0FA8E828F83A3A3A32274F7124B
:104900000F2F747D120EC57401120F10740AF0740B
:1049100002120F107401F0024AEA74F7120F2F749A
:104920007D120EC57401120F10740AF07402120F7A
:104930001074020249BB74F7120F2F747D120EC55A
:104940007401120F10740AF07402120F10740C022A
:104950004AE774F7120F2F747D120EC57401120FFF
:1049600010740AF07402120F107404804E74F7125F
:104970000F2F747D120EC57401120F10740AF0749B
:1049800002120F10740AF07402851882851983F0E0
:104990007403120F10E9F07404120F10EA803874D7
:1049A000F7120F2F747D120EC57401120F10740AC6
:1049B000F07402120F10740B024AE7F074038518AA
:1049C00082851983F0120F10E9F07404120F10EAB7
:1049D000F07405120F10EBF0851882851983AA82F6
:1049E000AB8312031A7483120EDB7F01020F9574DE
:1049F000F7120F2F747D120EC57401120F10740A76
:104A0000F07402120F107403024AE774F1120F2FB0
:104A1000747D120EC5EAFF8B087492120F10E0FB32
:104A20007493120F10E0FA7494120F10E0F50CA3B7
:104A3000E0F50D7401120F10740AF07402120F10D9
:104A40007405F074072A851882851983F07403129F
:104A50000F10E9F07404120F10EFF07405120F102C
:104A6000ECF07406120F10EDF07407120F10E50849
:104A7000F07408120F10EBF07409120F10EAF075C1
:104A80000E00780C121086EAFC7D00740D120F10D7
:104A9000AA82AB831201287403120EDB851882856B
:104AA0001983AA82AB8312031A7483120EDB7F0769
:104AB000020F9574F7120F2F747D120EC574011238
:104AC0000F10740AF07402120F107406801974F734
:104AD000120F2F747D120EC57401120F10740AF09C
:104AE0007402120F107407F07401851882851983FF
:104AF000F07403120F10E90249D774F7120F2F74E4
:104B00007D120EC57401120F10740AF07402120F98
:104B100010740880D274F7120F2F747D120EC574B2
:104B200001120F10740AF07402120F10740980B78A
:104B300074F1120F2FEAFEEBFF740C90082E124D49
:104B4000E164016003024BD1EE2405F508EF340067
:104B5000F509850882F583E0FA8A0A7407250AF8C0
:104B6000E43400F9E89481E994004003024C36747F
:104B7000072A124DDE90082FF08E828F83A3A98220
:104B8000AA83890C8A0D750E00780C1210867C079A
:104B90007D007A307B08124DE8120EDB8E828F8307
:104BA000A3A3A3A3A3A3A3A3E0F50CA3E0F50D780F
:104BB0000C121086850882850983E0FC7D007A3717
:104BC0007B08124DE8120EDB7A2D7B0812031A8047
:104BD00065750B00E50BC333F8E433F9E824EBF813
:104BE000E93414F988828983E493FA8E828F83E012
:104BF0006A703A88828983A3E493FAC39481502D22
:104C0000EA90082DF08E088F09750A0078081210B6
:104C1000868A0874012508FCE43400FD7A2F7B089D
:104C2000124DE8120EDB7A2D7B0812031A050BE5F4
:104C30000BC3940C409E7F07020F9574F1120F2F47
:104C40008A088B09EA2402F8EB3400F9740C900806
:104C50002EF0E82402FAE93400FB8A0A8B0B8882E2
:104C60008983A3AE82AF8388828983E01210CE014C
:104C70000EDB4D914CEB4CF54C054D4F4D594D62B3
:104C80004D7A4D8E4DB44DB94DC44DCF4DD84DFFDD
:104C90004C8E0C8F0D750E00780C1210867C067DE4
:104CA000007AB07B08124DE8120EDB7AB07B081256
:104CB000088AE96003024DDBE5082409F508E509E7
:104CC0003400F509750A0078081210869008B4E0DF
:104CD000FC7D009008B8E0FAA3E0FB124DE8120E4C
:104CE000DB7AB07B08120890024DDBEEFAEFFB1284
:104CF00008C6024DDBEEFAEFFB1208F6024DDB129E
:104D000008CC024DDB8E828F83E0F912096EE9FA3E
:104D1000740790082FF074042A90082D124DEEF0BD
:104D2000EA900833F060187C347D08850A82850B90
:104D300083E0FA8E828F83E0F9120968E9800274B9
:104D4000F4900830F07A2D7B0812031A024DDBEE46
:104D5000FAEFFB120908024DDBEEFAEFFB12091A1B
:104D600080798E828F83E0F912097A740A90082F75
:104D7000F0740190082DF0E480C7740B90082FF0B8
:104D80007401124DDEFAA3E0FB1209E680AE740353
:104D900090082DF0740C90082FF0E82404FCE91220
:104DA0004F788E828F83E0F9120980E990083012E3
:104DB0004DEE809012093280228E828F83E0F912AC
:104DC000094A80178E828F83E0F9120956800CEE13
:104DD000FAEFFB1208A280031208A8024C369008D2
:104DE0002DF08E828F83E022120128740322F08E30
:104DF000828F83E0900831F0850A82850B83E090F2
:104E000008322274EB120F2F8A088B09EA2402F56C
:104E10000AEB3400F50BA80AF9751400EA2403F52F
:104E200012EB3400F5138A828B83A385821085836D
:104E300011E82402F50EE93400F50F88828983A376
:104E4000AE82AF83EA2403F50CEB3400F50D8882C3
:104E50008983E01210CE0405714F664E714F714F79
:104E6000DC4E004F2F4F8E828F83E0F912096EE9DE
:104E7000FC850E82850F83E0FD850C82850D83A362
:104E8000A882A9838E828F83E088828983F0E50CD3
:104E90002402FAE50D3400FBED8A828B83F0EC8569
:104EA0000C82850D83A3A3A3F074042C124F82748B
:104EB00007850A82850B83F0EC601DE50C2404FC59
:104EC000E50D124F7888828983E0F9120968E98537
:104ED0000C82850D83024F7074F480F38E828F8371
:104EE000E0F912097A7401124F82740A850A8285E8
:104EF0000B83F0E4851282851383F07514018071B1
:104F00008E828F83E0F8A3E0F9880C890D74018A02
:104F1000828B83124F88740B850A82850B83F0AADB
:104F20000CAB0D1209E6E985128285138380418E50
:104F3000828F83E0FE850E82850F83E0FFE82404E4
:104F4000FCE93400FDEFFAEEF9120980E9FA740386
:104F5000124F82740C850A82850B83F0EA850C82DD
:104F6000850D83F0EEA3F0EF850C82850D83A3A35E
:104F7000F0A9147F0D020F953400FD8A828B83E027
:104F8000FA22850882850983F0746C851082851168
:104F900083F022C082C0837A0079011204DC8A8205
:104FA0008B83A3A3A3A3A3A3A3E493A2E6500474B7
:104FB000018001E490091EF0E490091DF074806501
:104FC0009E70FA740390620FF0E0A2E750FB53F476
:104FD000FED29043FE01758B00C2E843AC20439A99
:104FE00002D083D082020107C082C083740290097C
:104FF0000BF0E490090CF0900912F079031205000F
:1050000090092CE4F0A3F080D874F5120F2F906271
:105010000EE0FEE4F0906211E0F50AA2E4501E7486
:1050200080F07407900912F090092CE07002A3E060
:105030006006125239120F1AE4900912F0E50AA222
:10504000E2500BE4906211F0900912F0807A90091E
:1050500012E0FA74026A705C906216E0FF90091F19
:1050600012109DEFF97A207B621205067403120E6E
:10507000DB8F0890092212522E125245E07002A3D3
:10508000E06004744080027448906211F09009223C
:10509000E07002A3E0701590092CE07002A3E060BC
:1050A00006125239120F1AE4900912F0EE90620EB5
:1050B000F00252E774066A7006125239120F1A9003
:1050C0000912E060030251C8E50AA2E050DE75084B
:1050D00024750909750A00780812108679087A2063
:1050E0007B621205067403120EDB90092CE4F0A318
:1050F000F0900924E054E012110400060010512041
:10510000A251408451805151A0B251C093517C5161
:10511000900925E01211040005014251033D51059B
:105120002A510947510B4C517C51120530900912FC
:10513000E0640460030251C274600251C412052A83
:1051400080EB12052480E612054880E112055480A8
:10515000DC900925E01211040004006851066D512D
:105160000872510A77517C5112051880C012053619
:1051700080BB12054280B612054E80B174049009BE
:1051800012F080B490092C74B2F0A37404F01204ED
:10519000B2809A90092C74B8F0A37404F01204B889
:1051A000808B90092C74A6F0A37404F01204A6025C
:1051B000512D90092C74ACF0A37404F01204AC02CD
:1051C000512D7440906211F0900912E0FA74016A56
:1051D000704B750A02900922E0F8A3E0F9C3E89445
:1051E00020E994005007E8FF750A0A80027F2090AA
:1051F000091F12109DEFF97A207B6212050C7403CF
:10520000120EDB8F0812524512522EE50A906211DF
:10521000F0EFC3942040030250AC02509774056A2B
:1052200060030250AC125239120F1A0250ACC3E0A4
:105230009508F0A3E09400F02290092CE0F8A3E098
:10524000F58388822290091FE0F9A3E0FAA3E0FB2E
:10525000E92508F9EA3400FA90091FE9F0A3EAF019
:10526000A3EBF09009222274F6120F2F7A008A081D
:10527000E5082413F582E43409F583E9F00AEAC36A
:10528000940540EA7A008A08E5082418F582E43497
:1052900009F583E9F00AEAC3940540EA7F02020FA8
:1052A0009574F5120F2FEAFCEBFDE9FE740B120F5B
:1052B000101252F7600D8C828D83E0120B9E1252F9
:1052C000EC70F3802274F5120F2FEAFCEBFDE9FE7F
:1052D000740B120F101252F7600D120B848C828D1A
:1052E00083F01252EC70F37F03020F95E924010959
:1052F000EA3400FA1EEE22E0F508A3E0F509A3E087
:10530000A908AA09FBEE22C082C0837A00790F1295
:10531000028A02566B74F5120F2F89088A0AEA1264
:1053200011040100014A5303023353044053084A55
:10533000538B537CE87D037B057A01120290804BEE
:105340007CE87D037B057A3280F175090153080FF3
:105350007ECA7F05801DE06401F0E0FAA90912020F
:105360009CE5096208E509C333F509EE2409FEEF5F
:105370003400FFE5086014E509550860E874086525
:105380000A8E828F8360CFE50A80CE9005C8E0F94F
:105390007F03020F9574EE120F2F89088A0B8B0A78
:1053A0008C108D11E97003025452EB7003025452B9
:1053B000EC7001ED7003025452EBC394644003029D
:1053C000544E75090153080F7ECA7F05806EE509AA
:1053D0005508605A9005C8E05509FA9005C9E04A99
:1053E000F0E48E828F83F0A3A3A3E510F0A3E51170
:1053F000F08E828F83A3A3E50AF08E828F83A3E5CC
:105400000BF0700774048E828F83F01201EE8E828F
:105410008F83A3A3A3A3A3EAF0A3EBF0A3ECF0A3D1
:10542000EDF08E828F83E0D2E1F0E5096208E509B4
:10543000C333F509EE2409FEEF3400FFE508708E52
:105440007A027B009005C7E0F912016A80097A01AF
:1054500080027A0012028A7F0A020F9574E8120F06
:105460002F74FF120EC57E007F00751601740F8524
:105470001882851983F07514CA7515059005EEE03C
:105480006003025608851882851983E0551670035B
:105490000255DA851482851583E0A2E140030255A6
:1054A000D01201EE8A0C8B0D8C0E8D0F8514828527
:1054B0001583A3A3A3A3A37808120D9B7808790CE6
:1054C000120B6450030255A8851482851583A3A38B
:1054D000E0FA851482851583E0A2E0502E7464C33F
:1054E0009AF517E0C2E0F07A00A91612029C851422
:1054F00082851583E0A2E2401EA3E014F0701885B7
:105500001482851583E06402F0800C8A17D2E0F0E3
:105510007A01A91612029C851482851583E0A2E106
:105520005061851708750900750A00750B00A3A363
:10553000A3E0F510A3E0F5117512007513007808CB
:105540007910120BB4900D527810120D9B780879D7
:1055500010120C348508108509117512007513009E
:10556000780C7910120CFD851482851583A3A3A3F2
:10557000A3A3E50CF0A3E50DF0A3E50EF0A3E50F62
:10558000F080327508007509009005C9E055166075
:10559000047A0180027A00A91612028A74FF651645
:1055A000FA9005C9E05A80D8E508C3950CF508E5DE
:1055B00009950DF509EE7001EF6011E5087002E53F
:1055C00009600DC3E5089EE5099F5004AE08AF09C8
:1055D000851882851983E06516F0E516C333F51644
:1055E000E5142409F514E5153400F515E06003020F
:1055F0005485EE7001EF6010EEFCEFFD7A027B0047
:105600009005C7E0F91201DC7401120EDB7F100275
:105610000F95C082C083E9A2E0500B74016A700448
:10562000C2808002D280E9A2E1500B74016A70044A
:10563000D2918002C291E9A2E2500B74016A700417
:10564000C2808002D280E9A2E3500B74016A700428
:10565000D2918005C291EA60079005C8E0498009AF
:1056600074FF69FB9005C8E05B8004E49005EEF0F0
:10567000D083D08202010774F4120F2F900D467868
:1056800008120D9B9005997808120DAA0257EC7428
:10569000F2120F2F8908EAFEEBFF8C0A8D0B120124
:1056A000D0EA7001EB600F8A828B83A3A3E50AF036
:1056B000A3E50BF080727A097B001201A6EA700163
:1056C000EB60618A828B83A3A3A3A3A3A3E5081243
:1056D000572DEEF0A3EFF08A828B83A3A3E50AF0A7
:1056E000A3E50BF08A828B83E4F0A312572DA3A3CA
:1056F000A3F0A3F0900597E07002A3E090059770E7
:1057000006EAF0A3EB80ACE0FCA3E08003E8FCE950
:10571000FD8C828D83125979E87001E970EF8C82DB
:105720008D8380DD7A007B007F06020F95F08A82F0
:105730008B83A3A3A3A32274F7120F2F9005978046
:10574000048C828D83E0FCA3E0FDEC7001ED601F12
:105750008C828D83A3A3A3A3E06A7003A3E06B7084
:10576000E08C828D83A3A3A3A3A3A3E06970D2ECF2
:10577000FAEDFB7F01020F95C082C083EA7001EB56
:10578000600C8A828B83A3A3A3A3E4F0A3F0D0834D
:10579000D08202010774F6120F2FE5A8FFC2AF12E4
:1057A00001CAEFA2E792AFEA7001EB6004790080D2
:1057B0000279087F02020F9574F4120F2FA2AFE452
:1057C00092E0F509C2AF1201D08A0A8B0BAE0AAF84
:1057D0000BEE7001EF60031201D6E509A2E092AF73
:1057E000EE7001EF60047900800279067F04020FF9
:1057F0009574EB120F2F8A0E8B0FE5A8FAC2AF85B6
:105800000E088B09750A00750B009005997808122F
:105810000D23EAA2E792AF900597E07002A3E07033
:1058200003025974900597E0F508A3E0F5097E009E
:105830007F00A2AFE492E0F514C2AFE5082404F5BE
:1058400012E5093400F513E5082402F50CE50934E6
:1058500000F50D850C82F583125979C3E50E98E5A4
:105860000F99850C82850D834006E4F0A3F0801724
:10587000C3E0950EF0A3E0950FF0850C82850D83B3
:10588000E07002A3E0704EE5082407F510E5093446
:1058900000F511851082F583E07002A3E060508569
:1058A0001282851383E0FAA3E0FBEA7001EB603F0C
:1058B000850882850983A3A3A3A3A3A3E0F912010A
:1058C0006A851082851183125979850C82850D8332
:1058D000E8F0A3E9F0850C82850D83E07002A3E077
:1058E000600D851282851383E07002A3E0702B8522
:1058F0000882850983125979E50A7002E50B700563
:105900009005978006850A82850B83E8F0A3E9F06D
:10591000AE08AF098E828F83800C85080A85090B3B
:10592000850882850983E0F508A3E0F509E514A25E
:10593000E092AFEE7001EF60308E828F83A3A3E020
:105940007002A3E0701C8E828F83A3A3A3A3E0FA4E
:10595000A3E0FB8E828F83A3A3A3A3A3A3E0F912EA
:10596000016AEEFAEFFB1201ACE5087002E509608E
:105970000302582E7F0D020F95E0F8A3E0F9227480
:10598000F4120F2F9005997808120D9BAA08AB0905
:10599000AC0AAD0B0257EC74F7120F2F90092EE0F2
:1059A000F8A3E0E85404600D90092EE054FBF0A346
:1059B000E0F01204F490092EE0F8A3E0E85410603F
:1059C0000D90092EE054EFF0A3E0F01204FA9009D4
:1059D0002EE0F8A3E0E8A2E0501490092EE054FE77
:1059E000F0A3E0F090092EE054FDF0A3E0F01202E5
:1059F000D890620EE0FE7404F0906211E0A2E040E4
:105A000044900710E0FA90070FE06A7013900813B3
:105A1000E070327401F07A10125B7E120F1A80254A
:105A20007A4090070F125AB9E0906228F090070F61
:105A3000E004F0FB900710E06B60041AEA70E37476
:105A400001906211F0803374F7120F2FE9FE790094
:105A5000801590060D125B8CE08A828B83F0900695
:105A60000DE004125AAE0990060DE0FC90060EE01F
:105A70006C6005E9C39E40DA8005EE90620EF07F0F
:105A800001020F95C082C08380188A828B83E0C098
:105A9000E0900710125AB9D0E0125AAE900710E009
:105AA00004F0E91970E4E4900813F0025C2EF08A27
:105AB000828B83A3AA82AB8322E02411F582E43493
:105AC00007F5832274F7120F2F90620EE0FE740424
:105AD000F0906214E0A2E0504BE5A8FAC2AF9062E9
:105AE00016E0FB906217E0EBFFEAA2E792AF8015A9
:105AF000906228E0C0E090060E125B8CD0E0F0903F
:105B0000060EE004F08F081FE50870E4E4906214CC
:105B1000F0900811E07006E595900812F074C690B8
:105B200008118026900811E06021900812E0FAE543
:105B300095C39AFA900811E0FBEAC39B500BE0C3AF
:105B40009AF0E5959008128001E4F090060DE0FAD5
:105B500090060EE0C39AFFC3943040047A02800B93
:105B6000EF6018900811E070127A04900814E07049
:105B700002A3E06006125B7E120F1A025A7A7900C5
:105B8000900814E0F8A3E0F583888222E0240FF562
:105B900082E43406F5832274F4120F2F900D5A78A4
:105BA00008120D9B9009027808120DAAE4900906CC
:105BB000F0900907F07408900908F01204EE7AFFDB
:105BC0007BFF12051253F4FED29043FE0174019044
:105BD0000813F07F04020F95C082C08390060EE088
:105BE00090060DF0EA241BF582EB3400F583E0F813
:105BF000A3E0F9900814E8F0A3E9F07900802F748D
:105C0000F7120F2FECF91202CC8908AA087B0002C8
:105C10005A7F74F7120F2FECFEEDFFEEF91202D24D
:105C2000EEFAEFFB025A7FC082C0831202C6D08315
:105C3000D082020107C082C08390060EE0C0E090CF
:105C4000060DE0FAD0E0C39A400C90060EE0C39A2D
:105C5000FAE494008013E0F8E4C398F87401940027
:105C6000F990060EE028FAE439FB80C2C082C083B6
:105C7000900D44E024FEF8A3E03403F98882898380
:105C8000E4F0A3F0900D44E0F8A3E0F5838882747B
:105C9000E8F0A3E4F0900D44E024E8F8A3E0340039
:105CA000F9888289837416F0A37403F090018CE85C
:105CB000F0A3E9F07A007B001201A690018EEAF0D1
:105CC000A3EBF0900D44125CE6D083D08202010772
:105CD000C082C083E5A8FAC2AF90018E125CE6EAEA
:105CE000A2E792AF80E3E0F8A3E0F990018CE8F03E
:105CF000A3E9F02274F3120F2F7C007D008C0BEAD5
:105D000024020A0AEB3400FBA2AFE492E0F50AC2D7
:105D1000AFC3EA9411EB9400500590018C8003907E
:105D2000018EE0F8A3E0F988828983E0FEA3E0FF1A
:105D300074805FF509E47002E509600974806FFF03
:105D4000750B008074E50B606288828983E0F5083A
:105D5000A3E0F5098C828D83E02508F0A3E03509E6
:105D6000F08C828D83C3E09AA3E09B404CECF8ED6D
:105D7000F988828983E0FEA3E0FFE87001E9606BA7
:105D8000C3EE9AFEEF9BFFC3EE9404EF94004047EE
:105D9000E82AF582E93BF583EEF0A3EFF074804B3F
:105DA000FB88828983EAF0A3EB8036C3EE9AEF9BEF
:105DB00050C8750B01E8FCE9FDE82EF8E93FF988C9
:105DC000828983E0FEA3E0FFEE7001EF6003025DD5
:105DD0003078007900801488828983E0F0A3E04461
:105DE00080F0E824020808E93400F9E50AA2E0920C
:105DF000AFE8FAE9FB7F05020F9574F7120F2FEA5F
:105E0000FEEBFFA2AFE492E0F508C2AFEEF8EFF9C7
:105E1000C3E89490E994014009C3E89490E994059B
:105E2000400312022AEE24FE1E1EEF34FFFF8E8274
:105E30008F83A3E05480F9E47001E9700312022A11
:105E40008E828F83E0F0A3E0547FF090018CE0F825
:105E5000A3E0F9C3EE98EF99500CEEF8EFF990013A
:105E60008CE8F0A3E9F0E508A2E092AF7F01020F11
:105E700095C082C083120230D083D08202010774A1
:105E8000F4120F2F74F6120EC5C2AF53BEFBE59D80
:105E9000A2E650FA0078F8790100E824FF18E93406
:105EA000FFF9E87001E970F175C6807480659E7035
:105EB000FA43BE047408906270F0D28043FD01C2C0
:105EC0009143FE02D280C291D280C2918019D280C9
:105ED0000B74086B6003025FB47B000CECC3940688
:105EE0005003025FB4D2807A0080060A740A6A60A6
:105EF0006E900D467808120D9B7406120F107808EC
:105F0000120DAA8012900D4A7808120D9B74061289
:105F10000F107808120D237406120F10C082C08370
:105F2000900D4E7808120D9BD083D0827808120B0A
:105F30007440D2A2805004C2808002D280A29150CC
:105F400004C2918002D29190059EE0600CE4F0744E
:105F50000A120EDB7F04020F95A292508E8088D227
:105F600080C291D280C29178007900A292400478D8
:105F700000790012601440F39061A3E0C0E0740463
:105F8000120F10D0E0F09061A4E0C0E07405120F91
:105F900010D0E0F0900A0FE0C0E07402120F10D0B1
:105FA000E0F09009FAE0C0E07403120F10D0E0F0C6
:105FB0007B007C00A29240FCC280D291C280EB7038
:105FC00004D2918002C29178007900A292400478B4
:105FD00000790012601440F3D280C291D280C29145
:105FE0007508017509007407C39B7808120EB2C0CA
:105FF000088C08851882851983E5822508F582E5D5
:10600000833400F583D0E0FAE05A7003025ECEC21A
:1060100080025ED0E8240108E93400F9C3E894F472
:10602000E99401A2D265D0332274F7120F2FE9FE52
:106030008A08EBFF12614824F7F582E5F03405F594
:106040008312605AE5827002E5836009EFFBAA08BB
:10605000EEF9120F1A7F01020F95E0F8A3E0F9881C
:1060600082898322C082C083E91210CE000384603B
:10607000786084607C6080607901800A79028006A3
:106080007900800279038057C082C083790312614E
:10609000337033E5E4A2E5500C53E4DF7B027A026F
:1060A00079031202A8E5E4A2E6500C53E4BF7B0298
:1060B0007A0479031202A8E5E4A2E7502253E47FB0
:1060C0007B027A088014790312612D7012E5E4A234
:1060D000E4500C53E4EF7B047A0179031202A8D058
:1060E00083D082020107C082C083790012613370BD
:1060F00021A2D9500EE5D875D8407B027A027900EA
:106100001202A8A2DA5024E5D875D8407B027A049E
:106110008014790012612D7012A2D8500EE5D87546
:10612000D8407B047A0179001202A880B21261394A
:1061300064042212613964022212614824F3F58258
:10614000E5F03405F583E0221202AEE975F00AA409
:1061500022C082C08379021261337021A2DC500E0A
:10616000E5D875D8407B027A0279021202A8A2DD36
:106170005024E5D875D8407B027A04801479021245
:10618000612D7012A2DB500EE5D875D8407B047AE1
:106190000179021202A80260DFC082C0837470908D
:1061A00005A9F074B19005AAF09005ABE0541FF07A
:1061B000741D9005ADF074429005AEF074709005BA
:1061C000AFF074B29005B0F09005B3E0541FF074D6
:1061D0001E9005B5F074129005B6F08040C082C0E4
:1061E0008312622400E5D6A2E150F974F855B34455
:1061F00006F5B343B301E5B3A2E350FA801FC082B2
:10620000C08312622400E5D6A2E150F974F855B3B8
:106210004404F5B343B301E5B3A2E350FAD083D00D
:1062200082020107EB9005A7F0EA9005A8F0741030
:106230009005ACF09005ABE054E0F075D1FD75D65B
:10624000022274F6120F2F740A120F10E0FEA3E060
:10625000FF740C120F10E0F8A3E0F9EF9005A7F01F
:10626000EE9005A8F0E89005ACF0E9F89005ABE0F9
:1062700054E048F0EB9005B1F0EA9005B2F0EC90F4
:1062800005B4F0EDFC9005B3E054E04CF075D1FDA1
:1062900075D60200E5D6A2E150F975D1FB75D6049A
:1062A00000E5D6A2E250F97F02020F95C082C083BA
:1062B00012020002621DC082C08353B38FE5B34354
:1062C000B34012020C02621D74F4120F2F8C088D61
:1062D00009750A10750B00780A12108A78081210D6
:1062E0008A7C107D00AA08AB091202127404120EF7
:1062F000DB53B3F8E5B343B301E5D1A2E250FA7F33
:1063000004020F95D083D08202010774F7120F2F79
:10631000E9FCEAFD7A007B0080081890090AE01287
:106320006366900909E0F8A3E0F9900D81E06870D8
:1063300003A3E069602B900909E0240108A3E0347D
:1063400000F988828983E4936C700E900909E0FA61
:10635000A3E0FB181263668008E4936D70BCED60E7
:10636000B97F01020F95F5838882E493F8900909BB
:10637000E028F8A3E03400F9900909E8F0A3E9F077
:1063800022C082C0831263C77A0079011204D0024E
:10639000630474F6120F2FE9FEEAFF1263C7800E42
:1063A0008A828B83A3A3A3A3A3E4936E60147A00D1
:1063B00079021204D0EA7001EB6007EE70E2EF1F81
:1063C00070EC7F02020F95900D7FE0F8A3E0F9904A
:1063D0000909E8F0A3E9F02274F4120F2FEAFF8B09
:1063E000087A001204DC7A0279041204D0EA7001FF
:1063F000EB60188A828B83A3A3E4936F70E88A8290
:106400008B83A3A3A3E493650870DB7F04020F953D
:1064100074F6120F2FE9FE1263C77A007903120493
:10642000D0EE1E70F5809B02010774F4120F2F89C5
:1064300008740C120F10E0FEA3E0FF74075508F576
:106440000A750B00740C780A120EB22AF874803B9D
:10645000F9E428E50B39F9E5C7F509E50813131345
:10646000541FC0E074F855C7FAD0E04AF5C7801C45
:1064700088828983E08C828D83F088828983A3A8B7
:1064800082A9838C828D83A3AC82AD83EEFAEFFB6D
:1064900074FF2A1E74FF3BFFEA7001EB70D285097E
:1064A000C77F04020F9574F6120F2F740A120F1093
:1064B000E0F508A3E0F509ED90059FF0EC9005A04C
:1064C000F074629005A1F074739005A2F09005A39A
:1064D000E0541FF0E508333354FC9005A4F0740633
:1064E0007808120EA3E5089005A3F074129005A594
:1064F000F074429005A6F075D1FE75D601EA90625F
:1065000071F0EB906272F0906270E0D2E1F0E0A284
:10651000E740FB7F02020F95C082C083E93333540A
:10652000FC906272F07A02906270E0D2E0F0E0A239
:10653000E740FB906272E02402F01AEA70E9D0832F
:10654000D08202010774F4120F2F7E007F00120820
:10655000428A088B09AC08AD09900182E06C700397
:10656000A3E06D7003026634900182E0F8A3E0F9C5
:10657000ECC398F508ED99F509900182ECF0A3EDD4
:10658000801FE5082404F508E50934E0F509EE2448
:106590003CFEEF340AFF900184E02404F0A3E034D1
:1065A00000F0C3E50894FDE509941F50D574037805
:1065B00008120EB2900184E02508FCA3E03509FD25
:1065C000ECF8EDF97A197B00120E4A88088909EE79
:1065D0002508FEEF3509FFECF8EDF97A197B00127A
:1065E0000E4A900184EAF0A3EBF0EE7001EF6044F4
:1065F000900186E02EF0A3E03FF0900186C3E09486
:10660000E9A3E094034026126639120E4A880889ED
:1066100009750A00750B009001887808120D231285
:106620006639120E4A900186EAF0A3EBF0EEFAEF1B
:10663000FB1201E87F04020F95900186E0F8A3E0C9
:10664000F97AE87B032274F4120F2F9001887808FE
:10665000120D9BAA08AB09AC0AAD0B80D774F712D8
:106660000F2F1266B16004790080358A828B83A374
:10667000A3A3A3A3A3A3A3E060ED64028A828B83F8
:10668000700E1266A57003A3E06970DB79018010BB
:10669000A3A3A3A3A3A3A3A3E0640370CA120A5EE7
:1066A0007F01020F95E0F8A3E0F98C828D83E0680A
:1066B000228A828B83A3A3A3A3A3A3A3A3E0FE8C1C
:1066C000828D83A3A3A3A3A3A3A3A3E06E2274F745
:1066D000120F2F8C828D83A3A3A3A3A3A3A3A3E054
:1066E000FE8A828B83A3A3A3A3A3A3A3A3F0740313
:1066F0006E7005120A6480128C828D83E0F8A3E02C
:10670000F98A828B83E8F0A3E9F00266A074F6129E
:106710000F2F750808EAFEEBFF8E828F83A3AA82F3
:10672000AB83ECF8EDF988828983A3AC82AD838ECC
:10673000828F83E0FE88828983E06E600479008026
:10674000081508E50870CE79017F02020F9574F5EF
:10675000120F2F8C088D09750A0078081210867C9C
:10676000087D001201287403120EDB7F03020F95CF
:10677000C2AF75C90B0080FD74F7120F2F74FD12A4
:106780000EC57402120F10EAF07401120F10EBF034
:10679000E9FE74026E70247401851882851983F0F5
:1067A000F912683D7401120F10AA82AB8379E112CD
:1067B000067A9008FFE4F0A3F08078E485188285DB
:1067C0001983F0790112683D7402120F10AC82AD8A
:1067D000837A0079881209807401120F10AA82ABA3
:1067E0008379E112067AEE701FE5A8FAC2AF9061D4
:1067F00089E054FCF0E0D2E1F0E49061BAF074403A
:106800009061BBF07401801674016E7026E5A8FAE1
:10681000C2AF906189E054FCF0E04403F0E4906181
:10682000BCF075E1FF75E1D975E1D275E1E1EAA24D
:10683000E792AF7403120EDB7F01020F9512066818
:10684000851882851983AA82AB83795212067A222F
:10685000C082C0839008FFE0FAA3E0FBE9600790E4
:1068600008FFE4F0A3F0D083D082020107C082C009
:10687000839008FFE02401F0A3E03400F080E77982
:10688000FF12017C53BEFBE59DA2E650FA0078F8AA
:10689000790100E824FF18E934FFF9E87001E97094
:1068A000F175C6807480659E70FA43BE04740890CA
:1068B0006270F0D28043FD01C29143FE0212025A7F
:1068C00012038612068612044C12018279FF12010D
:1068D000761201887A007B00020107D083D0820201
:1068E0000107C082C0837A0C7B001201A6900817B2
:1068F000EAF0A3EBF07C0C7D007900120134790002
:10690000120620790112095C79021203AA79031296
:10691000030E7404900816F0790512025480BC74BA
:10692000F6120F2FEAFEEBFF74805FF9E47001E9C5
:10693000700C7A007B007F02020F951201409008D4
:1069400019E0F912014CEA7001EB70EFEEFA748075
:106950006FFB80E2C082C083900925E0FA74226A4E
:10696000700A900912E0701C7402801774206A701B
:106970000D900912E0700D1269B074028002740467
:10698000900912F08046C082C083900925E06421FE
:106990007016900912E070161269B09009227407FF
:1069A000F0A3E4F0740180027404900912F0801CDA
:1069B00090091F7402F0A37409F0A3E4F02280028E
:1069C0008000C082C0837404900912F0D083D0820A
:1069D00002010780EDC082C083E91210CE0109F5E3
:1069E00069F569F569F569F569F569F569F569F5B7
:1069F00069F569F56980D5C082C083E99005C7F063
:106A0000D083D082020107C082C0831201F4120237
:106A10004E12026C1202181202841202DE80E1741D
:106A2000F6120F2FEAFEEBFF74805FF9E47001E9C4
:106A3000601B80031201409005C7E0F912014CEA87
:106A40007001EB70EFEEFA74806FFB801EEE540263
:106A5000600A12029674026EFAEF80EEEEA2E05027
:106A60000674016EFA80047A007B007F02020F95A3
:106A7000C082C0831202F68087C082C083E4900582
:106A800096F0900590F0A3F0D083D082020107C069
:106A900082C083E990059680EE74F6120F2FE9FE0E
:106AA000900D6AE0FBE9C39B4004790380307508D0
:106AB00001750900EE7808120EB2AC08AD09EA7053
:106AC00011ECF4F8EDF4F9900590E058F0A3E059DA
:106AD0008009900590E04CF0A3E04DF079007F0232
:106AE000020F95EBC313FBEA13FAEAF8EBF974FF14
:106AF00028FA74FF39FB7400687003740069601A27
:106B00000000000000000000000000000000000085
:106B1000000000000000000080D002010774F7129E
:106B20000F2F7409120F10E0F8A3E0F98A828B830B
:106B30008003ECF0A3E8FEE9FF74FF2E1874FF3F1A
:106B4000F9EE7001EF70EB7F01020F95C082C083F8
:106B5000748090059DF0D083D082020107E9FA7518
:106B6000B60FE5B4A2E750FAEAC395BB5004790129
:106B700080027900020107C082C08390092EE4F0F0
:106B8000A3F0900930EAF0A3EBF0E4900932F0D0E2
:106B900083D082020107C082C0838A828B838001F6
:106BA000A3E070FCE582C39AFAE5839BFBD083D017
:106BB000820201077405F5D575D49F7405F5D37568
:106BC000D2A7020107FFFFFFFFFFFFFFFFFFFFFF4D
:106BD000FFFFFFFFFFFFFFFFFFFFFFFFFFFFFFFFC5
:106BE000FFFFFFFFFFFFFFFFFFFFFFFFFFFFFFFFB5
:106BF000FFFFFFFFFFFFFFFFFFFFFFFFFFFFFFFFA5
:106C0000FFFFFFFFFFFFFFFFFFFFFFFFFFFFFFFF94
:10800000F582EB128488A2E2227808120DAA02807F
:108010005412892BE912848822E5A48518828519D7
:1080200083F0E5A5C0E07401120F10D0E0F0E5A6E2
:10803000C0E07402120F10D0E0F07403120F10129F
:1080400080597808120D9BAA08AB09AC0AAD0B74D5
:1080500004120EDB7F04020F95E4F0EAA2E792AF70
:108060008518828519832290093E12AF2712057E5A
:10807000229009AFE0FA900994E022F0900994E090
:10808000640F22A3A3E024F5C39412221206EC90FD
:1080900009B412C5577A147B0022C082C0839009AC
:1080A0003EE07002A3E0600612AF201201AC90091E
:1080B0003B128E2C740890093DF090093EE4F0A329
:1080C000F090098AF0900940029CC379031A1AEFD4
:1080D000FB12063E740222EE24020A0AEF3400FB71
:1080E0008A828B831280E822E024FFF8A3E034FF29
:1080F000F92274F0120F2FEAFEEBFF8908741012B8
:108100000F1012958A7412120F10E0F50AA3E0F511
:108110000B1280D7850F0D1281B0E50E1281B6E5E6
:10812000081281A29009AE12819F9009AD12819F21
:10813000850B0D1281B0E50AF088098A828B83E0F5
:10814000C395098E828F83A3A3A3A312950712CE92
:10815000748C828D83A3A3A3A3A3A3A3A3E064032E
:108160007008EE240E1281968008EE128FFBEF123B
:1081700090B8128E9E7409F0750AFF750BFF780A8D
:1081800012108A1280CB120EDBE97007EEFAEFFBB9
:108190001205CC0282C7F582EF12EB26740122127F
:1081A00097631281A622F0E824FF18E934FFF92230
:1081B000E50D888289831281A6888289832274F0E2
:1081C000120F2FEAFEEBFF890B8C0E8D0F750A0044
:1081D000A2AFE492E0F50CC2AF9009418035128263
:1081E0009C502D1282A7640370261294E8850882A1
:1081F000850983A3A3E02405FCA3E03400FDEEFA87
:10820000EFFB120A641294F17410250AF50A150B9B
:1082100012844612D0DFE50B6008E5087002E5091C
:1082200070BCE50CA2E092AFA2AFE492E0F50CC204
:10823000AF900941801B2402F8E509128EC6128B0B
:1082400002128425129A00128425050A150B128445
:1082500046128C2B7002E50960251282A764027019
:10826000ED12829CE50840CE129502E50912829635
:1082700050DC7401850E82850F83F0E50B70CFE52D
:108280000CA2E092AF8E828F83E50AF0EE24FFFA13
:10829000EF34FFFB8031128488A2E522128929E5A0
:1082A00009128488A2E622850882850983A3A31285
:1082B0008B1E1282B622A3E01313543F54032212E2
:1082C00006E07404120EDB7F08020F9574ED120FA6
:1082D0002F74F6120EC589128A108B0FE48518824E
:1082E000851983F0900947E0C3940840057511078C
:1082F0008003E0F511E51133333354F8900993FA14
:10830000E02A2433F50A1291237001EB70030284F2
:108310000CEA250AF8EB3400F9EA240212976912F4
:10832000CE74900993E0FCFAC3E49AFAE49400FB5B
:10833000E82AFEE93BFF90099112841A780C12108A
:108340008612F388120EDB851882851983AC82AD04
:1083500083A911EE24FFFAEF34FFFB1205668A0CA5
:108360008B0DAE0CAF0DE412842BE50FC454F0C09E
:10837000E090098BE0C4333354C0C0E090098D1203
:10838000B89913135480FAD0E04AFAD0E04A440F67
:1083900012842BE510C454F045128E828F83F0EEC8
:1083A000FA850A82850B83E0C39A85088285098352
:1083B000A3A3A3A312978FEEF0A3EFF0E508240E7A
:1083C00012D2C2E508240D12D2C27409120F10E4B1
:1083D000F0F50AF50B780A12108A7403120F10AE2A
:1083E00082AF83120638EEFCEFFDAA08AB091280BB
:1083F000D1120EDB851882851983E0600985088219
:1084000085098312845CAA08AB0980047A007B008A
:10841000740A120EDB7F0B020F95E0F50CA3E0F55A
:108420000D750E0022A3A3A3A3A3E08E828F831257
:10843000843322F0EE24FF1EEF34FFFF227F05027B
:108440000F951282B722E50824FBF582E50934FF77
:10845000F58322128929E50912848822A3A31284B4
:10846000A8D2E4F022A3A3A3E0FA88828983227F22
:1084700006020F957A417B0912015E740222128472
:108480008222EE2410F582EF3400F583E022A2E789
:1084900002B1781206E0740422EE240EF582EF1287
:1084A000EB2622A31284A822128B22E022EE240BB8
:1084B000F582EF12848822EE240DF582EF12848873
:1084C000640122E0FEA3E0FFEE2274F4120F2F7489
:1084D000F7120EC5EAFEEBFF120578E9F508704CBD
:1084E000EE240E1284B060447A00790912059CEAE9
:1084F0007001EB60377408120F1012853E1210A144
:108500007508FF7509FF780812108A8E828F83A381
:10851000A3A3A3A3A3A3A3E0F97404120F10AC8236
:10852000AD831205607404120EDB800D8E828F8382
:10853000A3E5081286DF12058474090280517402D3
:1085400012D59474FFF0A312854B22128EDAA3A3E6
:108550002274F1120F2FEAFEEBFF7508008E828F56
:1085600083A3A3A3A3A3A312808340037508E88E6B
:10857000828F83A3A3A3A3A3A3A3A3A3A3E0C394D2
:108580001040057508E880138E828F83A3A3A3A3F0
:10859000A3A3A3A3A3A3E0640F600B900967E05417
:1085A0000870037508E88E828F83A3A3A3A3A3A3F7
:1085B000A3A3A3A3E0C0E0EE240BF582EF1298C5BD
:1085C000D0E0C39A5008E0640F60037508E8900992
:1085D000ADE064FF7004A3E064FF70037508EC7AFB
:1085E000237B001201A690093E12EE0C90093EE09A
:1085F0007002A3E060258E828F83A3A3A982AA8341
:10860000890C8A0D750E00780C1210867C237D0073
:1086100012AF2012F38E120EDB800375081AA90820
:10862000800239FB7F07020F9574F7120F2FEAFEC5
:10863000EBFF8E828F83A3A3A3A3A3A3A3A3E090A6
:108640000994129EBC9009AFF01284AD90098F126C
:108650008ED2A3A3A3A3A3A3E090098BF0F91207E2
:108660002290098BE0600CEE2404128E93EE240617
:10867000128689740190098A12807B6004740180DB
:1086800001E4900940F00297EEFAEF3400FB79E143
:1086900012067A2274F7120F2FEAFEEBFF8E828FFA
:1086A00083A3E07003128067742C1298AC0297EEDB
:1086B00074F7120F2FEAFEEBFF90093EE07002A361
:1086C000E0600D12AF2090093EE4F0A3F01201AC7F
:1086D00074088E828F831286DF1209860297EEF06D
:1086E000EEFAEFFB2274F6120F2F90098AE0601267
:1086F000900940E0700C128705EA7001EB600312EC
:1087000005CC02B41F90098FE0FB128071F91205AD
:108710006C22128488640222C082C0837908029A83
:108720003574F4120F2FE9FE243BF582E43415F57D
:1087300083E493F508FA7B0012013AEA7001EB60DA
:108740001212877E12CE72E48A828B83A3A3A3A324
:10875000F080287A027B0012013AEA7001EB601780
:10876000EE2451F582E43415F583E4938A828B83F9
:10877000F0741AA31289C87A007B00028054EA259B
:1087800008F8EB3400F98A828B8322E9FDEAFC7455
:10879000062DFAECA2E0501EEA75F00A84ABF0EB6D
:1087A0006014740A2AC39BFAEBC394054004740A4C
:1087B0002AFA740B2AFAEDC3941340047814800249
:1087C0007806E82AF8740928F8E43400F97A0A7B74
:1087D00000120E42E8F9020107C082C08374FE1243
:1087E0000EC58518828519831288F31210CE0003F6
:1087F000D288FA875488D2887988900994E0640FE7
:10880000601812060EE9701285188285198312AF5E
:1088100023900DAF129A04120F1A9009BCE0C0E029
:1088200085188285198312ADA8D0E012D5A012EC6C
:10883000D1741412D5A0FCA3E0FD7A437B09120188
:1088400052E5A8FAC2AF9009491288EA79201206C7
:108850000202F4EE900969E0851882851983A370FD
:108860001112ECD3740D12D5A0FAA3E0FB12098605
:1088700080DF12ECD3741580BA128C356054128CE0
:10888000351412DB441284A3C0E085188285198355
:1088900012B716D0E012D5A02402F812B396240124
:1088A00012F4FD888289831288F314C3940950223C
:1088B00085188285198312C03BA3A3E0240AC0E077
:1088C00085188285198312ECD2D0E01288F7040251
:1088D0008833851882851983AA82AB8312063202F7
:1088E0008851E5A8FAC2AF900948E004F0EAA2E78F
:1088F00092AF22EAF0A3EB12DB48A3A3A3A3E022EA
:10890000C082C08312060EE96004792080027901DA
:10891000029CC4C082C083128920E0D2E0029CC3C2
:10892000EA12892BEB12EB2622E5082410F58222AD
:10893000C082C0831294FA1284BD70111289BC40A7
:108940000C8A828B83A3E0F9120608806CEA1295E8
:1089500002EB1284B3A2E650128A828B83A3E0F961
:10896000900DB1129A04120F1A804E1294FA1284CA
:10897000BD70091289BC5004743080368A828B83A2
:10898000A3E0641B7004742280288A828B83A3E096
:10899000700F1294FA1284B32446F582E4341580E1
:1089A0000D1294FA1284B32451F582E43415F58340
:1089B000E4938A828B831289C8029CC4EA240FF54F
:1089C00082EB128488A2E322F0900962E0F912019E
:1089D000462274F7120F2FE9FE90094AE07002A3B5
:1089E000E0603EEE7006128AFFE48014741B6E7025
:1089F0003390094A129783E0640570EA128AFFEE09
:108A000012B39AFB1205BA90094AE0240E128C2583
:108A10005003129A0890094AE4F0A3F07910120664
:108A2000020297EE74E96E6003028AC512D7717074
:108A300038120A46E96032128B2F402D9009B6E0B9
:108A4000C0E090094AE0241112AFEED0E0F09009A6
:108A5000A5E0C0E0128B14A3A3D0E0F09009A5E03C
:108A600004F079011207CA80B812D77190094A60E0
:108A70004CE0240E181818128B3690094AE0401466
:108A8000241112B39314F07401900A16F0900A1096
:108A9000E0F980D0240F12B395C2E7128C41240D67
:108AA000F812B3966403700C90094AE0241012B3D4
:108AB00093D2E2F0128B07120F1A028A07128B026E
:108AC00074E9028A0074E16E7014120A46E97003B8
:108AD0000289FC128B2F50030289FC028A3C741C11
:108AE0006E60030289FC90094A12AF23900DB71201
:108AF0009A04120F1A90094AE4F0A3F0028A219016
:108B0000094A128B1EA32290094A12AF27900DAD7D
:108B1000128B1E2290094A12AF33128B1E22128B27
:108B20002222128B2622E0F8A3E0F583888222908D
:108B3000094AE0240EF812D77CA2E22274F4120F44
:108B40002F750A00750B00A2AFE492E0FEC2AF9051
:108B5000094AE07002A3E06008EEA2E092AF028C46
:108B60000F900DB5129A04120F1AE94410FA9009E9
:108B700041800985080A85090B128446128C2B70E6
:108B800002E50960D41284535A6A70E7780A121019
:108B90008AAC08AD09128474120EDB90094AE5080C
:108BA000F0A3E509128C41128C234066900948E03D
:108BB00014F0EEA2E092AF90094AE0240E181812C9
:108BC000AF1AE8FEE9FF8E828F83E0FA90094AE04F
:108BD000F8128C3BF91205A2E9900945F0A3E412C2
:108BE000A3E5E0A2E7501890094AE02412128C177E
:108BF00012073490094AE02413128C1712072890A8
:108C0000094A128C1CA2E1B3E492E0F91207CA02ED
:108C10008054900947809812D77BF922E0240F12E4
:108C2000D77B22241012D77BA2E722E0F508A3E02D
:108C3000F509E5082285188285198312C03FA3E053
:108C400022F090094AE02274F7120F2FEAFEEBFFA0
:108C500012062C129501EF1289C240091284B770D6
:108C600004790280027905EEFCEFFD7A417B09125E
:108C70000164E9602EEEFAEFFB900DB3129A041234
:108C80000F1AEE128FFBEF12800340081288E212D7
:108C900005C68014EEFAEFFB900DAB129A04120F8A
:108CA0001A800574F1128CAB0297EE8E828F83A32B
:108CB0001286DF1205BA22C082C0831205C6029C4A
:108CC000C474F7120F2FEAFEEBFF7900900967E0FA
:108CD0005402700DEE242FF582EF128003500279BA
:108CE000E8900967E05460700CEE242F1284B0A263
:108CF000E1500279E88E828F83A3A3A3A3E0C394FB
:108D000075400279E8EE242D1284B07010EE242A0A
:108D10001284B0700879F51206080297EEE970F730
:108D2000EE240D128196F0EE242F1284B0C0E012D2
:108D30008499D0E0F0EE24301284B0C0E0EE24122A
:108D400012849CD0E0129797C0E0EE241312849C0A
:108D5000D0E0F0EE242B12849C1210A1EE2422FC11
:108D6000EF3400FDEE242D1284B0F91280D1120EE2
:108D7000DBE970A6EEFAEFFB1205CC809DC082C045
:108D800083740D8A828B83F0120986029CC4C08290
:108D9000C083E48A828B83F0A3F0EA242F12800040
:108DA0004011900948E0C39402401179F11206087D
:108DB000029CC4900947E0C3940250EF12912F80A7
:108DC000EF74F3120F2F890CEA2433F582E4341583
:108DD000F583E493244AFE890A250AFAE43400FB69
:108DE00012013AEA7001EB60158A828B83A3A3A378
:108DF000A3E50CF08E0812877E12CE7280047A00F2
:108E00007B0002843DC082C083E4900960F0900939
:108E100061F0900954128E2C7402900956F090095A
:108E20005D128E2C740190095F029CC37402F0A342
:108E30007406F02274F0120F2F12A01A120D9B78F4
:108E400008790C120BB478081210827A577B090249
:108E500082BF74F4120F2F74CE120EC5900994E0E5
:108E6000640F6007742E12927080237A4E7B091271
:108E7000808C120E4A88088909750A00750B0078E3
:108E8000081210827A4E7B09128493120EDB743220
:108E9000028051FAEF3400FB795012067A22F0EE8C
:108EA000240D12EB2322120EDB0297EE7402028EC7
:108EB000A6AA82AB83120134851882851983AA82FF
:108EC000AB83120986223400F9E8FAE9FB8A828B27
:108ED0008322128ED622128EDA22F08E828F83A304
:108EE000A3A3A32274F7120F2FE9FA7B0090096263
:108EF000E0F912016A0297EE74F4120F2F74F01267
:108F00000EC5E9FE8A828B83E02498F582E434164C
:108F1000F583E493C0E07401120F10D0E0F0640B0D
:108F2000700DEE8A828B83A3F0120662028FF5E049
:108F30007003028FF5640C6003028FE27404120F59
:108F40001012EE0CEA242EF582EB1284B3C0E0740A
:108F500003120F10D0E0129507A3A3A3A3A37808D0
:108F6000120D9B7406120F107808120DAA8A828BBC
:108F70008312D0A4740A120F1012CE74128FFAEB5F
:108F80001284B3A2E45003E4800D12D2BB1284B366
:108F9000FC9009B6E0C39C851882851983F0E0C077
:108FA000E0740C120F10D0E0F0EA2414F582EB12FA
:108FB00084B3C0E0740D120F10D0E0F0EA2415F570
:108FC00082EB1284B3C0E0740E120F10D0E0F0EA0E
:108FD0002416F582EB1284B3C0E0740F120F10D088
:108FE000E0F07402120F10EEF07401120F10AA825A
:108FF000AB831209867410028051EA240EF5822296
:10900000C082C083900969E0640370047901800222
:109010007900029CC474F6120F2F9009691290BD5A
:1090200024B9F582E9340DF58312D2F1E0C2E7F0FC
:10903000C333FCE82CF582E912849FA3E493FEC3BA
:1090400033FCE433FDEC24B9F582ED340DF583E017
:109050007002A3E06005EE900969F08A828B83E0DC
:10906000C333FCE433FDE82CF582E93DF583E4935A
:10907000F508C4540FC3332478F582E43409F5832A
:10908000129C917001E970118A828B83E0C3940B6A
:10909000502079181206088019740F5508C333FC44
:1090A000E82C1290B593C0E0740193F583D082123E
:1090B0000F1A02B41FF582E912EB26E422E0C33353
:1090C000F8E433F9E82274F0120F2F74FE120EC583
:1090D000890FEAFEEBFF1291381291237001EB60C9
:1090E000328A828B83E50FF0E4A3F08E0C8F0DF5AE
:1090F0000E780C121086850F0AE50A129145EA24B3
:10910000020A0AEB12D2CF120EDBAA08AB091291A7
:109110002F800B851882851983E50F1291547402F4
:109120000282C4FA7B0012013A8A088B09EA229073
:109130000962E0F912014622E92482F582E434163C
:10914000F583E49322248DF582E43416F583E493C9
:10915000FC7D0022F0791AAA82AB8312060822C095
:1091600082C083E9900962029CC374F6120F2F74C7
:10917000FE120EC5EAFEEBFFEE54207031803CE596
:10918000A8FCC2AF900949E01412A8618A828B83BF
:1091900012925490096512EE0C12061485188285FD
:1091A0001983E0641560077A657B091206327A43F9
:1091B0007B09120158EA7001EB70C474805FF9E416
:1091C0007001E97005801112925D900962E0F91258
:1091D000014CEA7001EB70EFEE54106005742D1233
:1091E0009270EEA2E050057424129270EE54026068
:1091F000057425129270EE54046005742612927064
:10920000EE540860057428129270EE5440600C749D
:1092100001120F10E4F0742C129270EE5480600C66
:109220007401120F10E4F0742F129270900963E031
:109230007002A3E06017E5A8FCC2AF90096312AF0B
:1092400023900963E4F0A312A86112925D7A007B77
:109250000002B41AE0851882851983F0229009650E
:10926000EAF0A3EBF01206147A657B0912063222AB
:10927000851882851983F0AA82AB8312061422C056
:1092800082C08390096512A365687002EB6970075C
:10929000900965E4F0A3F0029CC474F7120F2FA2AA
:1092A000AFE492E0F508C2AF8A828B83E07002A33C
:1092B000E060338A828B8312CAC9EC24FBF8ED3458
:1092C000FFF990096512A720EC6E7002ED6F700730
:1092D000900965E4F0A3F08A828B83E4F0A3F0E8C0
:1092E000FAE9FB1201AC02B174C082C0839009ADEF
:1092F000C3E094FEA3E094FF400479038002790266
:10930000029CC474EA120F2F8A088B098C108D11ED
:109310007416120F1012958A750A008C828D83A321
:10932000A3A3A3A3A3A3A3E0F512E9A2E7500875A2
:109330000CFF750DFF800A9009A9E0F50CA3E0F57C
:109340000DE9C2E7F513128FFAEB128296EA500B81
:10935000129502EB12849F74088007129502EB129B
:1093600090B812950DA2E2EA50071289217480800C
:1093700005128921741012950DA2E4500812D2BB77
:109380001290B8800E9009B6E0C0E012D2BB1284F1
:109390009FD0E012950DA2E05003750A208A828BBF
:1093A00083A3A3E024FFFEA3E034FFFF1294FA128C
:1093B00084B3C39402E040061412842B7403450A5C
:1093C000F50A851314751500740E7814120EB2E5A3
:1093D00015F50B7402651370119009AE12842A9072
:1093E00009AD12E3F51294F1801A7403651370103D
:1093F0001294E87CBD7D09EEFAEFFB120A6480E569
:10940000E5136026E5126014E50E650C7004E50FA7
:10941000650D70087440450AF50A800E8E828F83B0
:10942000E50D129516E50C12842F85120C750D00B2
:10943000740A780C120EB2E50D450BF50B7402653B
:1094400012701785108285118312842985108285F8
:10945000118312E3F51294F1801A740365127010EF
:109460001294E8AC10AD11EEFAEFFB120A6480E53D
:10947000E512600E8E828F83E50F129516E50E12AF
:10948000842FEEF8EFF9E824FF1EE934FFFFE5082A
:10949000240DF582E5091284B370059009998003C3
:1094A0009009A5E0FA04F0EA8882898312A3E5E531
:1094B0000B129516E50AF0E5082404F8E5093400D6
:1094C000F9E5082402FAE5093400FBEEFC8A828BF8
:1094D00083129763FDE02DC39C129507EEF0A3EF76
:1094E000F079007F0E020F95EE24F9FEEF34FFFFB6
:1094F00022EE24FF1EEF34FFFF22EA240DF582EB5B
:1095000022EE240FF58222F08A828B8322F0128FC2
:10951000FAEB128488221284338E828F832274EEB7
:10952000120F2F890A8A0C8C088D098B0B7412126A
:109530000F1012958AAA0B12059C8A108B11A81085
:10954000A911E8FEE9FFE87001E96039128499E5A4
:109550000B128E9EE50AF0780E12108AAC08AD0947
:10956000A90C1280D1120EDBE9701AE50A1210CE96
:1095700007017E957895789512847ED2E5F0EEFA13
:10958000EFFB1205CC7F0A020F95E0F50EA3E0F584
:109590000F2274EE120F2F8A088B09ECFEEDFF7478
:1095A000058A828B831297978A828B83A3A3F0EA22
:1095B0002403129769E0F510A3E0F511EE242412BC
:1095C000849C780C120D9BE5102411F582E5111294
:1095D000849F12EB3412C53EAA10AB11120A5885B3
:1095E0000A82850B831298BCFAA3E0FB88828983E8
:1095F000A3A3A3A3A3A3A3A3A312EE0CEE242E1252
:1096000084B0C0E0E812892BE912849FD0E0129761
:109610008A12AFECE412978A240E12ADA27C0BFDE5
:10962000F9850A82850B83E0241612F4FD120134B9
:109630008E828F83A3A3A3A3A3A3E0C0E0850A82A5
:10964000850B83129783D0E012979FFAA3E0FB85E6
:109650000A82850B83129C91240BFCE93400FD8A5D
:10966000828B83E08C828D83F0A3E412BA37E0F51D
:109670000B8C828D83E0F0A3E0450B1298B7FCA31E
:109680000A0AAB83A2E7E492E0C0E0E8129502E99F
:1096900012849FD0E0F074075C6004780180027847
:1096A0000075F00374075CA428F8EA28FAEB34008C
:1096B000FBE5082405F8E50912878312976312BABF
:1096C00037850882850983A3A3A3A3A3A3EA12D0A5
:1096D000E7F50CF50A7407550AC333FC7470550C92
:1096E000C430E30244F0F50A3395E0F50B740378D7
:1096F0000A120EB2E50A2CF8E50B3400F9EA28F854
:10970000EB39F985088285098312CE6B8E828F83AF
:1097100012977612F4FBC3EA98EB9940278E828F5A
:1097200083A3A3E0F8850882850983A3A3A3A3A349
:10973000129776A3A3E0C39A28850882850983A39C
:10974000A3A38016E4850882850983A3A3A3A3A30A
:10975000A3A3A3F0850882850983A3A3A3A3A3F0F1
:10976000029585E08882898322F50AEB3400F50BA7
:10977000850A82F58322A3A3A3A3E0FA8E828F83B6
:10978000A3A322E0240D12C60B2212978FE022F031
:10979000850A82850B8322F0EE2431128485221201
:1097A000CE66A3E022020107C082C08379191206A7
:1097B00008029CC474F7120F2FEAFEEBFF900963B6
:1097C000E07002A3E0601090096312AF2312065606
:1097D0007A637B09120632EEFAEFFB12062C90092F
:1097E00063EEF0A3EFF0800612CA3D12040A7F0177
:1097F000020F9574F7120F2F74DE120EC5EAFEEBFE
:10980000FF8E828F83E0121104011E1F56980303FE
:109810001A98055698181A985F987416120F10E443
:10982000129894740B120F10AA82AB83120A6474FC
:1098300013120F107403129A197402120F1012CE21
:1098400074740A120F10740212988C7414120F1090
:10985000E8F0A3E980107416120F10740180C1742F
:1098600016120F107402F0740B851882851983127A
:10987000CE62E0C0E07401120F10D0E01298A27422
:1098800017120F10128EB17422028EA6F09009A941
:1098900012C55722F012989922EE2417FCEF3400DB
:1098A000FD22F07C0B7D0079002274298E828F834B
:1098B0001286DF1206142212BA3FE02212A4A42458
:1098C0002A12848522128488FA2274F6120F2F74C9
:1098D000FE120EC5E9FEA2AFE492E0FFC2AFEE6059
:1098E0001C9016B17C8C7D09743C120DE712071C8C
:1098F000E99009A5F012071CE9900999F0900DCBA9
:10990000E070151207A6E49009FBF0900A09F01226
:10991000DB1212074012074C53A7EF1206F812078A
:10992000C4129A0890098BE0F9120722129C961231
:109930009A19E8906174F0E912B28C750800E50894
:10994000C333F8E433F91299F5E07002A3E060093B
:109950001299F5129A04120F1A0508E508C3940724
:1099600040DC900963E07002A3E060077A637B0942
:10997000120632E4900969F0900817E07002A3E043
:10998000601E800D851882851983AA82AB8312061A
:109990003290096212DB2312CE74E87001E970E4A0
:1099A000E49009C8F080077A417B09129A21900956
:1099B00041E07002A3E070EF900943E07002A3E081
:1099C00060097A437B09129A2180ED900941E4F005
:1099D000A3F0900947F0900948F0900949F09009E8
:1099E0008BF07AAC7B09795212067AEFA2E092AF43
:1099F000790002B41AE8246AF582E93409F5832271
:109A00008A828B83128B1E229009BCE0F9120734E4
:109A10009009BBE0F912072822F09009AD12C55752
:109A200022120158851882851983EAF0A3EB12D619
:109A3000451206322212061A029CC4F0900967E40D
:109A4000F0A3F0120716029CC4E9FA74C02AC3946A
:109A50001E500674C02AF9800E74202AC394065042
:109A600004743E80F0792402010774F3120F2FEA88
:109A7000FEEBFF12066EE9F50874246508700479A0
:109A8000F48046E5A8F50CC2AF75090074027808A9
:109A9000120EB2E50824EDFAE5093416FB8A828B32
:109AA00083E493248CF508E43409F509750A0078F9
:109AB000081210868A828B83A3E49312F387120E16
:109AC000DBE50CA2E792AF790002843D74F1120F3E
:109AD0002F8908EAFEEBFF74456508700B90099129
:109AE000EEF0A3EFF0029C6812066EE9FA8A0974A0
:109AF000246A700579F4029C6A890A750B00740265
:109B0000780A120EB2129C7C7014890A750B0074CC
:109B100002780A120EB2129C6D7003029BAB890A86
:109B2000750B007402780A120EB2E50A24EDFAE50C
:109B30000B3416FB8A828B83A3A3E493FC8A828B6B
:109B400083A3A3A3E4936C700579FB029C6A745809
:109B50006508701B8E828F83E02471F8A3E034FFC8
:109B6000F9C3E89422E99464400579E8029C6A8E7E
:109B7000828F83E0C0E085090A750B007402780AC1
:109B8000120EB2129C7CFAD0E0C39A40DD85090A1D
:109B9000750B007402780A120EB2129C6DC0E08E32
:109BA000828F83E0FAD0E0C39A40BFE5A8F50AC2ED
:109BB000AF85090C750D007402780C120EB2E50C1D
:109BC00024EDF8E50D3416F9E8FAE9FB8E0C8F0D5B
:109BD000750E00780C1210868A828B83A3E493FCA6
:109BE0007D008A828B83E493248CFAE4340912F397
:109BF0008D120EDBE50AA2E792AFE5081211040010
:109C00000750189C522E9C531E9CE0599CE1409C8E
:109C1000E24A9CE5609C689C129C96029AE490093A
:109C2000AD129C91906174F0E990617580ED90099E
:109C3000ACE07902600512079A802D1207A08028F7
:109C40009009BCE0F9120734801E79087CBD7D09BB
:109C50007A6A7B61120848800F9009BBE0F404F037
:109C60009009BBE0F91207287900028624E50A244E
:109C7000F0F582E50B3416F583E49322E50A24EF30
:109C8000F582E50B3416F583E493228E828F83A34D
:109C9000A312C557E8229009A912C557E89061722E
:109CA000F0E990617322020107C082C083900978B5
:109CB00074A3F0A37416029A3BF0900967E0440283
:109CC000F0A3E0F0D083D082020107C082C083906D
:109CD000097A747DF0A37417F090097E7497F0A34D
:109CE0007417F090098074B3F0A37417129D06F0F6
:109CF000A3E0129CFBF012069280C9F090097C74DC
:109D0000BDF0A3741722F090096A74F0F0A37405F3
:109D1000F0900967E0440122C082C08390098274F8
:109D200087F0A37417F0900984748BF0A374171252
:109D30009D348085F0900DC17420F0A37416F090CE
:109D4000096C745AF0A374052202010774F4120F0F
:109D50002F74078A828B83129DA112BA31A3A3129A
:109D60009DA1A3A312BA31A3A3A3129DABA3A37871
:109D700008120D9B8A828B83A3A3A3A37808120DDC
:109D8000AAE48A828B83A3A3A3A3A3A3A3A3F0EC37
:109D90002415F582ED12849F12D2F112CE6B02804F
:109DA00054129DABA3A3A3A3A3A322F08C828D8303
:109DB0002274F4120F2FEAFEEBFFE49009CA12C0DE
:109DC00068C39404400674E89009CAF08E828F83B9
:109DD000A3A3A3A3A3A3A3E0C3940F40158E828FD4
:109DE00083A3A3A3A3A3A3E06403601574E890096D
:109DF000CAF08E828F83A3A3A3A3A3A3E0640370FE
:109E00000E900967E0A2E0400674E89009CAF0EEFF
:109E1000FCEFFD7AC97B0912069E8E828F83A3A375
:109E20007808120D9B740A7808120CC59009DD7829
:109E300008120DAA8E828F83A3A3A3A3A3A3A3E0DA
:109E40009009E1129EBC9009E2F0740A9009E3F0D7
:109E50009009BCE09009E4F09009DA128E2C7404A9
:109E60009009DCF09009CAE070419009CBE06006EF
:109E700074EA9009CAF09009CBE0FA700774019077
:109E800009FB801874036A7004740380F2740290F2
:109E900009FBF074FF906172F0906173F074268E8C
:109EA000828F83F0790412079A800774298E828F3B
:109EB00083F0EEFAEFFB12061402805412854BA3D6
:109EC000A3A3E02274F4120F2F74F7120EC5EAFE5A
:109ED000EBFF9009CBE0702E9009E3E0640A602666
:109EE00012074CE9C0E09009E3E0F89009D2E028BD
:109EF00012AF1974F528F58274FF39F583D0E0F0BC
:109F00009009D1E004F09009DD7808120D9B7401EE
:109F10007808120CC59009DD7808120DAA9009E3A3
:109F2000E004F0E508A2E04006E0C3941D40D7E05D
:109F3000641D605B7AE37B0979E112067A9009CBB4
:109F4000E0600464027009EEFAEFFB1206B0804292
:109F50007408120F10740212D59074FFF0A3F090E1
:109F600009CBE06401700679087A80800479077A69
:109F7000837508FF7509FF780812108A7B00740248
:109F8000120F10AC82AD83129F95120EDB8003126C
:109F900098AA02853912064474022274F0120F2F17
:109FA000750801750900750A00750B009009E3E05A
:109FB0007808120CDE7808120CB59009CD780812DA
:109FC0000D759009CBE06403700F12A01A120D9B5F
:109FD0007808790C120BB480357508017509007585
:109FE0000A00750B009009E1E07808120CDE900D74
:109FF0004A7808120D10900DE6780C120D9B780827
:10A00000790C120BB49009CBE07003120746780864
:10A010001210827AD47B090282BF9009B712A02C59
:10A02000750A00750B00900DE6780C22E0F50875B6
:10A0300009002274F1120F2F74D4120EC5EAFEEB40
:10A04000FF9009CBE064026008E06401600302A1B4
:10A050003BE49009CAF0740B120F10A882A9837414
:10A0600003120F1012A1439009E2E0700302A10550
:10A070009009D1E0C0E09009E2E0FAD0E0C39A4054
:10A080000302A1059009D212D0DF9009D1E0F50AB0
:10A09000803385088285098312D0A47414120F10AE
:10A0A000E0687003A3E0696013740B120F10AC82B8
:10A0B000AD83AA08AB09120A52E96013150AE50834
:10A0C000242112E4D9E50A70C99009D1E0703674F0
:10A0D0000B120F10A982AA83890C8A0D750E0078C5
:10A0E0000C1210867C217D009009D1E08CF0A4F840
:10A0F000A9F0E50828FAE5093912F38D120EDB9074
:10A1000009D1E004F090098EE0600E7408120F107F
:10A11000E070069009E2E0700D851882851983AA27
:10A1200082AB831209869009E2E0600F9009D1E0CA
:10A13000FA9009E2E06A70031298AA742C120EDBFE
:10A14000028624E8F0A3E9F0EEFCEFFD8518828595
:10A150001983AA82AB8312064A22C082C083900967
:10A16000CAE064E860267AD47B091206EC12074044
:10A1700079041207A09009CBE0640370069009CA25
:10A18000E060097AE47B0979E112067A7AC97B09F1
:10A19000028D88C082C08374F5120EC5EAFCEBFD07
:10A1A000851882851983AA82AB8312069E740112D8
:10A1B0000F1074FC12A1BB740B800712D645120954
:10A1C0008622120EDB029CC4C082C0837907029AE9
:10A1D0003574F0120F2F9009E9E4F0A3F09009E52F
:10A1E000E07002A3E060379009E512AF2FC082C093
:10A1F00083900DC37808120D9BD083D0827808120B
:10A200000B4F501A12A2DD12A2F0120B4F50061281
:10A21000A2F0120DAA9009E512A2E912CE749009DB
:10A22000E7E07002A3E09009E96030E07002A3E08B
:10A23000601E9009E712AF2FC082C0839009E91217
:10A24000A2F3120D9BD083D0827808120B4F5012CC
:10A250009009E712A2E912CE748007E07002A3E031
:10A26000607512AF2CC082C083900DC37808120DA8
:10A270009BD083D0827808120B4F505B9009E91273
:10A28000A2F3120D9BA2AFE492E0FEC2AF9009F1DF
:10A290007808120DAA12A5847808790C120B645064
:10A2A0000874029009F5F0801C900D467808120B96
:10A2B0003A70047403800274059009F5F09009ED7A
:10A2C0007808120D9BAA08AB09AC0AAD0B12083C2A
:10A2D000EEA2E092AF800312070A0282C7120704BF
:10A2E0008A088B098C0A8D0B2212C5579009E92226
:10A2F0009009E512AF3378082274F0120F2F8A0804
:10A300008B098C0A8D0B7410120F10804C8A828B73
:10A3100083A3A37808120D239009E912A36568703E
:10A3200002EB6970308A828B83A3A3C082C08390C2
:10A330000D46780C120D9BD083D082780C120B4FF7
:10A340005013900D46780C120D9B8A828B83A3A329
:10A35000780C120DAA8A828B8312AF23EA7001EB6C
:10A3600070AB0282C712C557EA2274F0120F2FEAAF
:10A37000FEEBFFA2AFE492E0F50CC2AFECFAEDFB0E
:10A380008C828D838008AA0EAB0F8A828B831295F4
:10A390008AE50E7002E50F60228E828F83A3A3C030
:10A3A00082C083850E82850F83A3A37808120D9B3C
:10A3B000D083D0827808120B4F50CB8A828B83EEE9
:10A3C000F0A3EF12A3E5E50EF0A3E50F129DAB128B
:10A3D000A4A0687002EF6970031206CEE50CA2E03B
:10A3E00092AF0282C712A3E922F08E828F8322EEFF
:10A3F000FAEFFB1206DA0282C712A4AB7808790CD6
:10A400002274F0120F2FEAFEEBFF7410120F107877
:10A4100008120D9B12A3F9120CFD8E828F83A3A349
:10A420007808120DAA7CE57D0980C474F7120F2FFD
:10A43000ECF8EDF98C828D838004A882A98312CA7E
:10A44000C98C828D83E5827002E5836014EA65829F
:10A450007003EB658370E312AF2312EE087901807D
:10A460000279000297EE74F7120F2FEAFEEBFFA2BB
:10A47000AFE492E0F508C2AF7CE57D091206E6E99B
:10A48000700B7CE77D09EEFAEFFB1206E69009E916
:10A4900012A4A0687002EF6970031206CE02B174B4
:10A4A00012A4A422E0F8A3E0F9EE221207048A0C19
:10A4B0008B0D8C0E8D0F22C082C0839009ECE0645E
:10A4C00001700479FE800279FF029CC474F4120FBB
:10A4D0002F74019009F5F0900D467808120D9BAA93
:10A4E00008AB09AC0AAD0B120836900DEA780812D9
:10A4F0000D9BAA08AB09AC0AAD0B1206FE75A1EFC5
:10A50000439401E594A2E250FA43A71002805474E8
:10A51000F4120F2F8A088B098C0A8D0BE5A8FEC256
:10A52000AF9009ED7808120DAA12083CEEA2E7924E
:10A53000AF02805474F0120F2FE5A8FEC2AF12B91B
:10A5400059EEA2E792AF9009ED780C120D9B780CB2
:10A550007908120B6440087A007B007C007D0002C1
:10A5600082C774F4120F2FE5A8FEC2AF74019009E0
:10A57000F5F09009ED7808120D9BAA08AB09AC0A1A
:10A58000AD0B80A512082A8A0C8B0D8C0E8D0F2224
:10A590007F0C020F9574F0120F2FA2AFE492E0F53A
:10A5A00008C2AF9009F5E0F509A2E0400302A679E0
:10A5B000900D46780C120D9BAA0CAB0DAC0EAD0F96
:10A5C000120836A2AFE492E0F50AC2AF9009E71292
:10A5D000A7209009E51210A1900DC3780C120D9BD5
:10A5E000780C120CA4AA0CAB0DAC0EAD0F1206D455
:10A5F0007402120EDB80378E828F83A3A3C082C0C9
:10A6000083900DC3780C120D9BD083D082780C12EE
:10A610000B4F4013900DC3780C120D9B8E828F83CD
:10A62000A3A3780C120D4E8E828F8312A720EE709A
:10A6300001EF70C3900DC3C082900DC7780C120D4E
:10A640009B75830DD082780C120B3A6023900DC756
:10A65000780C120D9B900DC3780C120DAA900DC3AF
:10A66000780C120D9BAA0CAB0DAC0EAD0F1206FEB2
:10A670001206CEE50AA2E092AFE509A2E1506B74A2
:10A68000019009F5F09009ED780C120D9BAA0CAB26
:10A690000DAC0EAD0F12083CE508A2E092AF900998
:10A6A000E9E07002A3E060679009E9E07002A3E0CE
:10A6B000605D12A2DD12AF2C780C120D9B780C7924
:10A6C00008120B6440499009E91284C3FAEFFB12A7
:10A6D000A712A3A3A3A3E0F98E828F83A3A3A3A3AE
:10A6E000A3A3129A04120F1A80BE7405650970198B
:10A6F00074029009F5F09009F1780C120D9BAA0CE8
:10A70000AB0DAC0EAD0F12083CE508A2E092AF0213
:10A7100082C71206EC8E828F83A3A3A3A322A3A3D6
:10A72000E0FEA3E0FF22C082C0831208187C00EC88
:10A73000C333F8E433F9E824C9F582E93417F58323
:10A74000E493FA740193FB12A7A212EE0C0CECC373
:10A75000941040DB740B9009F8F09009F7F0743214
:10A760009009F9F09009F6F0E4900A0EF0900A0DC5
:10A77000F09009FBF0900A09F09009FFF0A3F09027
:10A7800009FA12A9F712B018900A0AF0900A0BF011
:10A79000900A0CF0900A0FF0900A16F01206F802D8
:10A7A0009CC4E812A7A722248BF582E9340DF58317
:10A7B0002274F355B44404F5B4A9BD020107C08264
:10A7C000C083906180E0FAE96004D2F08002C2F0B8
:10A7D000A2F0E492E0C333C0E074FD5AFAD0E04A3C
:10A7E000029CC374F7120F2FE9FE907803E0649582
:10A7F000900A2F700FE0C4540FC333244BF582E44A
:10A800003418800DE0C4540FC3332451F582E4346E
:10A8100018F583E493F8740193F988828983E493AB
:10A82000C39EA2D265D0334013A3E493FAEEC39A39
:10A83000A2D265D033500888828983A3E493FEE5D1
:10A84000A8FCC2AF88828983E493C39E2402FAE8FD
:10A850002A1290B5939009F912A86112072E029757
:10A86000EEF0ECA2E792AF22C082C083A2AFE492E6
:10A87000E0FBC2AF9009F9E0FA9009F6E06A601ACD
:10A880009009FCE07014900A0FE0A2E7400C9009D8
:10A89000F9E09009F6F0906190F0EB8001EAA2E017
:10A8A00092AF029CC474F7120F2FE9FEA2AFE4929C
:10A8B000E0FFC2AFEE9009F8F0900A0FE0700312CB
:10A8C000073AEF02B176C082C083A2AFE492E0FB08
:10A8D000C2AF9009F8E0FA9009F7E06A60269009A3
:10A8E000F8E09009F7F0EBA2E092AF1207BE75F026
:10A8F000059009F7E0A424D490618FF01207581254
:10A9000007AC8005EBA2E092AF029CC4C082C0837A
:10A91000E49009FBF012B27C029CC3C082C0837435
:10A9200080900A18F043A701029CC4C082C08353E0
:10A93000A7FE12ADB8900A18FAE02A24B7F9120758
:10A9400052029CC4E9FCC394AFA2D265D033500438
:10A950007CAF800DECC3940BA2D265D03340027C57
:10A960000AECF83395E0F9745128F8E439F9E87500
:10A97000F0FFA4F8AAF075F0FFE9A42AF97A5B02C7
:10A9800087CFC082C0837401900A0BF0900A0AE05E
:10A99000700812075EE4900A0BF0029CC4C082C0EB
:10A9A000839061A412E6A47405906194F075E1EDC2
:10A9B00075E1EDE5A8C2AF759B0075E9FBA2E792D2
:10A9C000AF9009FFE07002A3E060077AFF7B0912F5
:10A9D00006329009FFE4F0A312A9F7F09009FAE01B
:10A9E00070069009FCE0600CE49009FAF09009FC14
:10A9F000F0120788029CC412A9FB22F09009FD7492
:10AA000064F0A374072274F4120F2F74FE120EC5A3
:10AA100074819009FAF0900A0DE0600D906193E066
:10AA2000A2E74010E0A2E6400BE49009FAF012071A
:10AA30008802AD8F9061E4E070179061A4E0A2E419
:10AA4000500FE0C2E4F0E0A2E35003120812120734
:10AA5000E212B0129009FBE0900A08F079047A0142
:10AA60007B0A12084E900A01E0547F24FD900A05EB
:10AA7000F0900A17E07020900A05E0C3947D500B17
:10AA8000900A02E05407C39404400C75E1ED75E1AF
:10AA9000ED12078202AD8F900A02E0540764026053
:10AAA0000302AB6E900A09E0600302AB6E79028587
:10AAB0001882851983AA82AB8312084EA2AFE49252
:10AAC000E0FFC2AF900A0FE06486600302AB66123B
:10AAD000ADB8851882851983FAE02A24B7FE74017F
:10AAE000120F10E0547FF508EEF9120752E9C0E0AA
:10AAF00090094AE0241412AFEED0E0128C4112AF5C
:10AB0000ECE508128C41241612AFF2F0EFA2E092AD
:10AB1000AF7401120F10E0A2E75046900A02E05411
:10AB200010FE900A04E0FFA2AFE492E0F508C2AF85
:10AB3000900A0FE0648670257487F012080CE5080F
:10AB4000A2E092AF900A14E06F700EEE6007791BDE
:10AB50001207EE8016790080F779E980F3E5088026
:10AB6000061207E88005EFA2E092AF02AA91900AD0
:10AB70000FE0648670031207E8900A08E0602490F2
:10AB80000A09E0701E900A08E06401700302AC42FA
:10AB9000E06402600302AC2D900A02E054076003F7
:10ABA00002AC42900A03E0FA1313543F5403F50B2E
:10ABB000EAC413135403F50A900A17E070127401E3
:10ABC000650A700302AA8B7401650B700302AA8BDD
:10ABD000850A0812AD94C0E0850B0812AD94FAD036
:10ABE000E02AFEE50A600A900A02E0A2E650021E90
:10ABF0001E900A05E0FA8E087402250812EB034045
:10AC000041E0C39E24FE900A07F0900949E0C394F6
:10AC1000025035900A07E0F8743228FAE43400FB59
:10AC200012013A8A088B09A808A909801FE0640369
:10AC3000600302ABA3900A02E054076403700302AE
:10AC4000ABA312078E02AD8F780079009009FF1236
:10AC5000B01F7002A3E0700575E1E880E57F009009
:10AC60000A09E0700A900A02E054209009FCF09072
:10AC700009FCE06068A2AFE492E0F508C2AF900A78
:10AC800002E0540764037039900967E054026019C8
:10AC9000900947E0702190094AE07002A3E0600942
:10ACA00090094AE0128C23400E9009EBE0601212EA
:10ACB00006F2E964FE700A7F0490618AE0D2E280C5
:10ACC0000690618AE0C2E212B2737591FEA2E79229
:10ACD000AF9061A412DB15E508A2E092AF9009FFE6
:10ACE000E012AFF712CE72900A07E0C0E09009FFC1
:10ACF00012AF2FA3A3D0E012B023241A12AFEEE5B7
:10AD00000A12B023242312AFEEE50BF012B70A901B
:10AD100009FFE0242412AFEE7808120DAA120824CD
:10AD20009009FFE0242812EE02900A02E05407C0C6
:10AD3000E09009FF12B716D0E0F0900A04E0C0E0FE
:10AD40009009FFE0243112AFEED0E0F0900A02E06B
:10AD50005478C0E0900A03E0C4540F5403FAD0E0E2
:10AD60004A4FC0E09009FF12ADA8D0E012B02324F2
:10AD70000F12ADA2EE700512AE9E8013900A06F07F
:10AD800014906194F09009FD746AF0A37407F07454
:10AD900002028051E50824E9F582E43417F583E4E2
:10ADA000932212C60BE4F02212ADAC2212ADB022F7
:10ADB00012AF3BA3A3A3A322900A2FE0F8740F586D
:10ADC0002457F582E43418F583E4932274F7120FC4
:10ADD0002F74EC120EC512B0DD851882851983AC74
:10ADE00082AD83900A03128442FE60659009FFE001
:10ADF000242C12AF19851882851983E0FC74011286
:10AE00000F10E0FBEC8882898312D0E7FA9009FFEB
:10AE1000E0242A12EE0274036E70167402120F10F0
:10AE2000AC82AD839009FFE0241B12C7FA740A803C
:10AE3000197402120F10E0FA7403120F10E0FB9065
:10AE400009FFE0241B12EE027404120F10AC82AD55
:10AE500083900A0312D0B5FE603012B00AA2E64019
:10AE60001112AE92242A12EE02EC24020C0CED34E4
:10AE700000FD74036E700B9009FFE0241212C7FAF4
:10AE8000800812AE92241212EE0212AE9E741402C8
:10AE90008EA68C828D8312AF279009FFE022900945
:10AEA000FD7476F0A37407F012077022C082C0838D
:10AEB000900A07E070117401906194F09009FD749C
:10AEC0007CF0A374078013C394105003E0800274D5
:10AED00010900A06F0E014906194029CC3C082C0F6
:10AEE00083900A06E0F99009FF12AF2F12AF2312E8
:10AEF000084E9009FFE0240212AF19900A0612844E
:10AF00006812F4FB12EE08900A06E0FA900A07E0D5
:10AF1000C39AF0120770029CC4F8A3E03400F9222F
:10AF200090093E12AF272212B3A2FB229009E91228
:10AF3000AF332212AF372212AF3B22128B26A3A3CC
:10AF40002274F6120F2F7F0079027A017B0A120811
:10AF50004E900A02E05480F5087008900A09E064F7
:10AF600002707274029009FAF01207B212ADB89032
:10AF70000A01FAE02A24B7FE900A02E0547FF5099C
:10AF80009009EBE060109009ECE07008906163E0DC
:10AF9000A2E650027F04EF4508FA12B00A4AF0EE2A
:10AFA000F9120752E9C0E09009FF12F50ED0E01245
:10AFB000B023243012AFF212B023242F12AFEEE5EB
:10AFC0000912B02312AFF7A3A312B01FFAA3E0FB3C
:10AFD0001205A8800A12B0127AFF7B09120632907D
:10AFE00009FFE4F0A3F012B0F002B41F241512C65A
:10AFF0000B2212C60BEE222432F8A3E03400F990A3
:10B0000009FF12B3A2F5838A82229009FF12ADAC28
:10B01000E0229061A4E0C2E0F0E49009FCF022E8B4
:10B02000F0A3E9F09009FFE022C082C08390619311
:10B03000E0A2E6500BE0A2E7400675E1ED75E1ED18
:10B04000E49009FAF09009FCE07003120788029C72
:10B05000C4C082C0831207B212072EA2AFE492E0EE
:10B06000FAC2AF900A0FE064027007748312B3A7AC
:10B070008005EAA2E092AF029CC4C082C083900A1D
:10B0800005E07005120782801EC394105003E08013
:10B09000027410900A06F0E014906194F09009FD9B
:10B0A0007494F0A37407F0029CC4C082C08374F04F
:10B0B000120EC512B0DD900A06E0FA900A05E0C350
:10B0C0009AF06011C39410500FE0900A06F01490AB
:10B0D0006194F0800312B0F0741002A1C2900A06CD
:10B0E000E0F9851882851983AA82AB8312084E2263
:10B0F000740590619412A9FBF01207822274F71272
:10B100000F2FE9FEE5A8FFC2AF900A0EE04EF01245
:10B1100007B8EF02848EA2E702A8A074F7120F2FDF
:10B12000E9FEE5A8FBC2AF74FF6EFA900A0EE05A82
:10B13000F0EBA2E792AF1207B20297EEC082C08393
:10B14000E5A8FAC2AFE4900A0EF0900A0D12B1EE33
:10B15000EAA2E792AF120758029CC474F7120F2FAD
:10B16000A2AFE492E0FEC2AF900A0EE060031207C5
:10B17000B8EE8002E508A2E092AF0297EE74F712F3
:10B180000F2FA2AFE492E0FEC2AF900A0EE070195A
:10B190009009FAE0A2E740119009FCE0700B900AD8
:10B1A0000FE0A2E740031207BEEE80CAC082C08350
:10B1B000A2AFE492E0FAC2AF900A0DE0700674010B
:10B1C000F075E1E302A89DC082C083A2AFE492E0E3
:10B1D000FAC2AF900A0DE06012E412B1EEE5A8C227
:10B1E000AF759B0075E9FBA2E792AF02A89DF075D1
:10B1F000E1EF75E1ED75E1ED22C082C083900DCBEA
:10B20000E0606D439401E594A2E250FAE0640270BC
:10B21000579061A512EDE3900A2FE054F060187486
:10B22000689061EBF074FB906244F0746A9061EC9A
:10B23000F074FC906247F0900A17E0C39412501328
:10B2400012B27CF09009ADE0906174F09009AEE02C
:10B2500012B28C740590619412B27375E9FBA2E787
:10B2600092AF9061A312EDE3E4900DCBF01207AC26
:10B27000029CC4F0E5A8C2AF759B00229009A9E02A
:10B28000906172F09009AAE090617322906175F06C
:10B2900079087CBD7D097A6A7B611208482274F7BF
:10B2A000120F2FE9FE7401900A0FF0900DCBE060B1
:10B2B00008791D1207EE02B389EE900A10F06402BD
:10B2C000701A12B41375E1D975E10175E10975E1E0
:10B2D000BA75E10175E1C575E1D2803CE4900A13CD
:10B2E000128C41240EF812B396A2E650059009C6BE
:10B2F00080039009A8E0900A11F0900A10E0701500
:10B3000090098FE0600F900A11E0C3940340047429
:10B31000028001E0F01207D0900A16E07045900913
:10B320004A12F61CFAA3E0F5838A82E05420900AC0
:10B330001512D0EAFAA3E0F5838A82A3A3E0900A6B
:10B340001412B39AF5838A82A31284651280E4886A
:10B3500082898374022AF075E1EE0AE0F5D9A31A16
:10B36000EA70F8A2AFE492E0FAC2AF9009FAE07096
:10B37000109009FCE0700A7483900A0F12B3A78042
:10B38000087402900A0F12B38C0297EEF0EAA2E062
:10B3900092AF2208080812D77C22F090094A12B313
:10B3A000A222E0FAA3E02212B38C1207D62274F68E
:10B3B000120F2F750801750900900A11E078081224
:10B3C0000EB2E50814C0E012071CE9FAD0E05A906A
:10B3D0000A12F0900A10E0701112B41375E1817531
:10B3E000E11075E1D275E181800C12B41375E1B8FA
:10B3F00075E18175E1B875E11075E1D275E1D97536
:10B40000E10175E10975E1BA75E10175E1C575E123
:10B41000D2800C1207FA75E1BC227402120EDB7F97
:10B4200002020F9574F7120F2F12B012900A10E05B
:10B430006402704D12B5F2A2AFE492E0FEC2AF75A5
:10B44000C300E5A2E5A4FF740F5FFA740FC39AF579
:10B45000089061E2F01207A67401900A0DF075E100
:10B46000E175C300E5A2E5A46F600FE508C394028F
:10B47000400874FF25089061E2F0EEA2E092AF80F0
:10B48000031207DC0297EEC082C083900A10E070BE
:10B490002890094CE07002A3E0600D90094C129ACC
:10B4A00004120F1AE9FA80027A00900A12E0C39A95
:10B4B0004007791C1207EE8003120800029CC47436
:10B4C000F7120F2FA2AFE492E0FEC2AF900A0FE096
:10B4D00064837021900A15E070127485900A0FF051
:10B4E000EEA2E092AF79001207EE800E7486900A09
:10B4F0000FF0120806EEA2E092AF0297EE74F71278
:10B500000F2FA2AFE492E0FEC2AF900A0FE0648674
:10B5100070127487F012080CEEA2E092AF79E91273
:10B5200007EE8005EEA2E092AF0297EE74F7120FDD
:10B530002FE9FEE4900A16F0900A0FF01207B212FB
:10B54000072E12073AEEF91205C00297EEC008E581
:10B55000A8FAC2AF75C300E5A2F508E5A3FBEAA20D
:10B56000E792AFEBF9A8087A007B02120E42E8F9E5
:10B57000D008020107C082C083759C0174019061EC
:10B58000E4F075E1E275E1FFE5A8C2AF759B0075D7
:10B5900091EFA2E792AFE5A8C2AF759B007591F756
:10B5A00002B116C082C083900A12E09061E2F0E01E
:10B5B0006003E014F075A1FDA2AFE492E0FAC2AF1F
:10B5C00075C300E5A2FBE5A3FC900A17E0C3941243
:10B5D0005008EB7005EC70027B0175C3038BA28CE5
:10B5E000A3EAA2E092AF12B5F21207B875E1E10248
:10B5F0009CC49061A4E0D2E4F0E0D2E3F02274F6BF
:10B60000120F2F1207F4E9FF90098CE02F24ECFAB7
:10B6100075F01484FE75F014A4CA9AFA0E740290A0
:10B6200061E4F0EE9061E2F075A1FDA2AFE492E07A
:10B63000FBC2AF75C3038A08750900740978081244
:10B640000EB2F8A909900A17E0C394125009E470E9
:10B6500001E97003087900E8F5A2E9F5A3EBA2E09F
:10B6600092AF75E1E275E1FFE5A8C2AF759B007589
:10B6700091EFA2E792AF75E1BC75E1B875E1D290A8
:10B6800061A4E0D2E4F075E1E11207F4E9C39F5050
:10B690000A9061E2E06E7003E014F002B41FC08211
:10B6A000C0839061A4E0C2E4F075E1E275E1FF02BD
:10B6B0009CC474F0120F2F9061A4E0C2E3F0E5A8DF
:10B6C000FEC2AF12B70AEEA2E792AF9009ED780C76
:10B6D000120D9B780C7908120B64400A900D467885
:10B6E0000C120D9B80088A0C8B0D8C0E8D0F90090F
:10B6F0004A12B716780C120DAA12082490094A12A1
:10B70000B71CA3A312EE0C0282C71208308A088B62
:10B71000098C0A8D0B2212D73BA3A32212B7202239
:10B7200012ADB0A32274F6120F2F74F0120EC5746E
:10B73000149061A9F0743F9061ABF074F890619639
:10B74000F074859061A8F0745A9061ACF0E4906157
:10B75000AEF074159061B2F0E4906182F0741090D4
:10B7600061B5F0740E9061B6F074039061B7F07437
:10B77000099061FAF074FF9061E5F0439A01D2A854
:10B7800043A90153B9FE906249E0900A17F0E5A879
:10B79000C2AF75C30275A20075A328A2E792AF439A
:10B7A0009401E594A2E250FA439408D2BA74489006
:10B7B0006189F01207B8906199E0A2E050F87A0030
:10B7C0007C007B0812B896C0E0ECC333FCD0E04CA0
:10B7D000FC1BEB70EF8A08E508241FF582E4340AAD
:10B7E000F583ECF00AEAC3941040D5780079007C28
:10B7F00010E8C333F8E933F912B89648F81CEC7036
:10B80000F0E87001E9600A7480687003740369707D
:10B810000478BE79BAE8F5BCE9F5BC900A1DE07081
:10B8200002A3E060467A007C007B0812B896C0E074
:10B83000ECC333FCD0E04CFC1BEB70EF8A0885189E
:10B8400082851983E5822508F582E58312849FECC1
:10B85000F00AEAC3941040CF851882851983AA8222
:10B86000AB83900A1D129A04120F1A1207BE74407D
:10B87000906189F0E0D2E5F0E4906164F090616558
:10B88000F0906166F0906167F0906168F090616996
:10B89000F0741002B41C9061A7E0A2E0E492E022F0
:10B8A00074F355B44404F5B4E5BDF9E5BC2400FADD
:10B8B000E439FB020107C008E5A8FAC2AF75C3016D
:10B8C000E5A3FBE5A2F508EAA2E792AFAA0802B554
:10B8D0007074F4120F2F74FC120EC5E5A8FAC2AFF3
:10B8E00075C300E5A202801974F4120F2F74FC12C4
:10B8F0000EC5E5A8FAC2AF75C31002801974F41220
:10B900000F2F74FC120EC512B9B4900A19C082C070
:10B910008312B959D083D0827808120D108518820D
:10B920008519837808120D36900A197808120DAA25
:10B93000E5A8FAC2AF75C300851882851983E0F5C2
:10B94000A47401120F10E0F5A57402120F10E0F5B7
:10B95000A6EAA2E792AF02804F12082A8A088B0952
:10B960008C0A8D0B22C082C08374FC120EC512B9E2
:10B97000B47A00A2AFE492E0FBC2AFE5A7A2E45024
:10B98000040A53A7EF75C330851882851983E0F543
:10B99000A47401120F10E0F5A57402120F10E0F567
:10B9A000A675A1EFEA600343A710EBA2E092AF7483
:10B9B0000402A1C2851882851983EAF0A3EBF0A3E3
:10B9C000ECF0A3EDF02274F4120F2F74FE120EC5EA
:10B9D000E5A8FAC2AF75C300E5A2E5A48518828583
:10B9E0001983F0E5A5C0E07401120F10D0E01280B9
:10B9F0005AC082C083900A197808120D9BD083D058
:10BA000082E02508FAA3E03509FB02AD8F74F71236
:10BA10000F2F8017198C828D8312BA31F0A3AA825E
:10BA2000AB838C828D83A3AC82AD83E970E60297F1
:10BA3000EEE08A828B832212BA3FAA82AB8322F085
:10BA40008A828B83A322C082C083E5D98A828B83BA
:10BA5000F0A3AA82AB8319E970F0029CC474F712B8
:10BA60000F2F900A32E07036900A31E06402702E97
:10BA700012074CE9FF900AEFE0F912087EE9FEEFA9
:10BA8000FA120872900A30E0C0E0900D74E0FAD02B
:10BA9000E0C39A500C900A30E004F0120884029738
:10BAA000EEEE12BB36C0E0900D73E0FAD0E0C39A20
:10BAB00040E9900B1FE06008900A49E064037006BB
:10BAC000900AEFE08047EE12BD1E12D0AD75830DD7
:10BAD000758271C3E098A3E0994024900A49E0047C
:10BAE000F06403700B900D6F12C6F87B0212BD77E5
:10BAF000900A49E06403700CEEF9120878800DE4B6
:10BB0000900A49F0900AEFE0F91209B6E9FA900AB2
:10BB1000EFE06A6086900D34E0A2E4500E74049069
:10BB20000A31F0EA900A33F002BA9EEA900AEFF086
:10BB300012086602BA9E75F007A4A9F0243AF582AD
:10BB4000E9340AF583E022C082C083900A3212DB16
:10BB50001A6402700312E2A0029CC4C082C08390E7
:10BB60000A31E06401700512DE2D801BE064027072
:10BB70000512E2A08011E064047012900A33E09094
:10BB80000AEFF0F912086C7403900A31F0029CC4B9
:10BB9000C082C0837401900A31F0900AEFE0F9127C
:10BBA000086C7AEF7B0A79E112067A7C017D007AD3
:10BBB000007B0112BD77029CC474F7120F2F890815
:10BBC0007900E9C0E0A90812DAF4FAE5F0340AFBDA
:10BBD0007C07E4FDD0E0F9120134E4900A30F00271
:10BBE00097EE74F4120F2FE9FDEAFCED75F007A44F
:10BBF000A9F012BCAC64FF7004A3E064FF6010ED18
:10BC000075F007A412BCAC2401F0A3E03400F0ED01
:10BC100075F007A42436F582E9340AF583C082C0A2
:10BC200083900DEE7808120D9BD083D08278081295
:10BC30000D62900D467808120B3A600AED75F00718
:10BC4000A412BB3C14F0ED75F007A42434FAE934D7
:10BC50000AFBEA2402EB34000A0AFB8A828B83780F
:10BC600008120D9B74017808120CDE8A828B83788F
:10BC700008120DAA900D75E0C39C502DED75F007CC
:10BC8000A42434E9340A1A1AFB900D4A7808120DDC
:10BC90009B8A828B83A3A37808120D888A828B8368
:10BCA000A3A3A3A3A3A3E004F002805412BD26E043
:10BCB0002274F7120F2FE9FBFC7D00EB6D6043123D
:10BCC000BD30C0E0EC12BD31FAD0E0C39A40311271
:10BCD000BD30FEEC12BB366E7028EC12BD1EC08269
:10BCE000C083ED75F007A42434F582E5F0340AF53D
:10BCF0008312D0ADD083D082C3E098A3E0995002E4
:10BD0000EDFC0DEDC3940340B2EC7004790F800B91
:10BD100074016C70047914800279190297EE75F041
:10BD200007A412BD26222434F582E9340AF58322C1
:10BD3000ED75F007A4243AF582E5F0340AF583E0C6
:10BD400022E9FA74146A70047901800B74196A701C
:10BD500004790280027900020107C082C083900A40
:10BD6000EFE0900A33F07C027D007A1012BD75126C
:10BD70000746029CC47B00900D33E0F91201DC22DF
:10BD800074F4120F2FEAFEEBFF8E828F83A3A3A31E
:10BD9000A3A3E0A2E6500575080880037508068E87
:10BDA000828F83A3A3A3A3E02508F98E828F83A3A8
:10BDB000A3A3A3A3E0A2E35004740429F97B007AAF
:10BDC000001205EA8A0A8B0BA80AA90BE87001E9A0
:10BDD000700479BE801D8E828F8312CE6EAA088871
:10BDE000828983A3A3E02A12AF198E828F8312CE99
:10BDF0006C790002805474F0120F2FEAFEEBFFE41E
:10BE0000900CD012F247F0A3F0900D35E064016081
:10BE100014E06402600F74B4900CD0F012C04E12A3
:10BE2000CEFA0282C7900D567808120D9B75830BCF
:10BE300075820C7808120B3A700474B680DA8E8220
:10BE40008F83A3A3A3A3A3E05409640960118E8286
:10BE50008F83A3A3A3A3A3A3E07002A3E070047441
:10BE6000E880B58E828F83A3A3A3A3A3E0A2E040C2
:10BE70002F7AB47B0E8E828F83E0F9120974E96009
:10BE80000474B280938E828F83A3A3A3A3A3E0A2A2
:10BE9000E3500D900EB412D774700574BD02BE1835
:10BEA000900CD0E0600302BE1C8E828F83E0900E67
:10BEB0003912C068F8A3E0F9900EB212CE74EE24E5
:10BEC0000512C02C5415900D4012D0EAA2E0503358
:10BED000900B10E0A2E0900EB2E0500512C0468038
:10BEE0000312C60F12C61B900EB2E0242212AFEE50
:10BEF00074FFF0A3F012C60174FF12C06DE4900E3F
:10BF00003A8050900EB2E012C04612C079A2E140D1
:10BF10000512D7654011900EB2E0242A12C6111204
:10BF2000D79A12D7458014900EB2E0242A12C04846
:10BF300012D79A240E12AFEE12EDF912D765500502
:10BF400012D781800312C7FE12D79AF812C03BE0C5
:10BF5000900D4112C079A2E25006900D3412EDE32B
:10BF6000900EB212AF2F12D0DF74018508828509BE
:10BF70008312C07954246424700912CA58900AEFBD
:10BF8000E08001E4900E3A12C079A2E650298508BB
:10BF900082850983E0440312979F7002A3E0700535
:10BFA000900B1180068E828F83A3A312D0AD8508DB
:10BFB0008285098312CE6E850882850983E0442834
:10BFC000F01209D48A0C8B0D8C0E8D0F850882859A
:10BFD0000983A3780C120DAA8E828F83A312CE87B9
:10BFE00012C079A2E3503A8E828F83A3A3A3A3A3A6
:10BFF000A3A3A31210A18E828F83A3A3A3A3E0F90E
:10C00000900EB412CAC9AA08AB091209DA74021256
:10C010000EDBE9700C12C04EF074BE900CD002BE64
:10C020001F79031209B0120A4002BE2212C031E089
:10C0300022F8EF3400F9888289832212C03F22124D
:10C040008B28A3A3A322242D12C60B7402228E8256
:10C050008F83A3A3A3A3A3A312F1FD7402900CCF1B
:10C0600012A3E9E0900CD12212854BE022F0A3F05C
:10C07000900AEFE0900D41F022128ED6A3E022C08C
:10C0800082C083900D39E07025900D34E0A2E2501B
:10C090001D900E3AE07004900D41E0FB12F39412F3
:10C0A000CCE1E06B600812F39412CCE3EBF0900D5E
:10C0B00034E0C2E2F0900B10E0A2E0500C900D349E
:10C0C000E0A2E450047902800279011209B07402FE
:10C0D000900CCFF0900E3912CEEE029CC4C082C0FC
:10C0E00083900AEFE012110400030FF5C014F9C0A9
:10C0F00019FDC001C17901800A79028006790380A7
:10C10000027900029CC474F5120F2FEAFEEBFF12B5
:10C11000C1768E828F83A3A3A982AA8389088A0904
:10C12000750A0078081210867C0B7D007A537B0A12
:10C1300012F38E120EDB8E828F83E07002A3E0700A
:10C1400003E480138E828F8312C6F87B0812BD77BA
:10C15000E4900A71F07401900ADFF002C560C082B9
:10C16000C0831208AE029CC4C082C08312C176E4B0
:10C17000900ADF029CC3900D36E0F0A3E054F7F084
:10C180007A007B0812E7552274F6120F2FEAFEEBB5
:10C19000FF7B0080130A900A5312E3F030E302445D
:10C1A000F0FCEAC39C40130B12E3EA30E30244F0D4
:10C1B000FAEBC39A50257A0080DC8B08EE2508F84C
:10C1C000EF3400F9742628F582E43912C51F24578C
:10C1D000F582E4340AF583E06C70BA7A0080010AD3
:10C1E00012E40BFCEA9C5018EE242D12C280601061
:10C1F00012C5212454F582E4340AF583E06C70DF23
:10C20000EBC0E012E3EA30E30244F0FBD0E0C39B72
:10C210005062EAC0E012E40BFAD0E09A5056900A5D
:10C2200071E0700E740112C80A7A697B0A120A64FE
:10C2300080426401703E8E828F83A3AC82AD837A8C
:10C24000697B0A12C2786027E4900A4A12C80A7A07
:10C250004B7B0A120A64EE242E1284B0900A5EF020
:10C260007402900A71F07A4A7B0A1208F680057906
:10C27000B71208C002B41FFB120A5EE922EE2416B0
:10C28000F582EF12848864FF22C082C083900A7115
:10C29000E064027008900D39E0F91208C0029CC4F5
:10C2A00074F7120F2FE9FEE4900ADFF012C17674E2
:10C2B00010900A5FF0EE900A60F07C4B7D0A7A6184
:10C2C0007B0A120A647A5F7B0A0297EB74F5120FFD
:10C2D0002F900D35E06401703D8A088B09750A00C6
:10C2E00078081210867C1A7D007A727B0A12F38E0F
:10C2F000120EDBE4900ADEF0900A8CF0900ADDF07A
:10C3000079041209B0740F900D41F0120A0412085A
:10C31000F01208DE80107406900E3E12CA6CF0E433
:10C32000900E4012C38F02C560C082C083900D354D
:10C33000E06404702812C52812C398900ADEE0A2B7
:10C34000E25005D2E3F0801579011209B074119022
:10C350000E3EF0120A0A7A3E7B0E12040A029CC4B8
:10C36000C082C083900ADEE0A2E25020C2E2F0A2C6
:10C37000E3500D12CABD7411900E3E12C38F800C93
:10C38000900D39E0600612C3981208EA029CC4F0CE
:10C390007A3E7B0E12040A22900D36E054FB12E71F
:10C3A000647A0412E7532274F5120F2FEAFEEBFFB2
:10C3B000900D35E06404600302C50812C5136003E4
:10C3C00002C508900A8CE0C3940A400302C50875B0
:10C3D0000A00802312C50A850A08750900740378CB
:10C3E00008120EB2E508248DFAE509340A12C27764
:10C3F000600302C508050A900A8CE0FAE50AC39AB0
:10C4000040D27405900CCFF0900D41E0900CD11209
:10C41000C548900CD212C53A7AD47B0C120A641229
:10C420009C8B2411F582E912D09E50047C0F80026F
:10C430007C0012D0BC30E30244F012C928741312FD
:10C44000D0827001EB600302C50888828983A3A3B0
:10C45000A3A3A3A312CCEDE82407FCE93400FD7AE2
:10C46000DC7B0C12C91F900D00F07B00800C0A9041
:10C470000A82E0FCEAC39C40160B900CE612E3F043
:10C4800030E30244F0FAEBC39A501F7A0080E08B4D
:10C4900008E50824F9F582E4340C12C51F2483F55D
:10C4A00082E4340AF583E06C70C4900A82E0600E86
:10C4B000900CE612E3F030E30244F06B604A12C5E0
:10C4C0000A900A8C12A02C74037808120EB2E508A8
:10C4D000248DFAE509340AFB120A64900A8CE00400
:10C4E00012CEFA900A8CE0640A6009E0FA900AF928
:10C4F000E06A701412C528900ADE12DB15900AF665
:10C50000E0600514900ADDF08056EE2412FCEF3452
:10C5100000FD22EE241AF582EF128488640322F5CE
:10C5200083E0FC8A08E50822900D36E0F0A3E05491
:10C53000FBF07A007B0412E75522E8F0A3E9F0EE65
:10C540002412FCEF3400FD22F0EE242A12C5502202
:10C55000F582EF3400F583E0F8A3E0F922120EDB58
:10C560007F03020F9574F6120F2F900A76E0A2E077
:10C570005004780F80027800FC7B007A0074705CB5
:10C58000C4C0E012CA50D0E02C2412F912D7A57012
:10C5900002A3E0700A12CABD79BE1208E4805F905F
:10C5A0000EB2E012C60F12C61B900A7412EDF9907B
:10C5B0000A7212AF2312C60112D7AB12ECD1A3A399
:10C5C00012D74074018E828F83A3A3A3A3A3F07C10
:10C5D000767D0AEE2406FAEF12C7E9900A8112C7A7
:10C5E000F5900A8A12CAC97A0412BD75741112F242
:10C5F00044E4F0A3F0900ADEE0D2E212F19202B439
:10C600001F900EB2E0242B12C60B2212F2662224D7
:10C610002D12C6152212F26674032212F25574020C
:10C62000F02274F7120F2FE9FE7406900CCFF090F1
:10C630000AF9E0C0E0900A8CE0FAD0E0C39A500416
:10C6400074B78008E0700474B88001EE900CD0F0EC
:10C65000900A8CE0900CD10297E8C082C08312F659
:10C6600030640F7035900ADDE004F0900ADE12EDC0
:10C67000F4900ADDE0C0E0900AF6E0FAD0E0C39A58
:10C68000400D12CABD900D39E0F91208E4801790F0
:10C690000ADEE0A2E0500F1208F07A417B0D79E14A
:10C6A00012067A1208DE029CC4C082C083900ADDA2
:10C6B00012C6ED900AF6E0FAE89AE99400C365D054
:10C6C00033501D900AF1E07002A3E06013900AF16C
:10C6D00012C6F87B0412BD77900ADEE0C2E0800645
:10C6E000900ADEE0D2E0F0E0C2E1029CC3E0F87420
:10C6F000012808E43400F922E0FCA3E0FD7A0022DE
:10C7000074F6120F2FEAFEEBFF900D35E064016026
:10C710000302C7B2740312CA75900CD2F0A3F0746E
:10C7200001900CD412C80A7AD57B0C120A648E824E
:10C730008F83A3A3A3A3A3A3A3A3A3E0A2E0500476
:10C74000780F80027800FC7B007A0074705CC4C0B3
:10C75000E012CA50D0E02C2413F912D7A57002A31E
:10C76000E0700302C7E612CA43900EB2E024221220
:10C77000C7FA12C7FE12CA8574028508828509832A
:10C7800012CE7AF0EE2409FCEF3400FDE508240710
:10C79000FAE50912C7E9EE241412849C12C7F57950
:10C7A0000712CE2D12C06F900EB4E4F0A312F192D6
:10C7B00080347403900E3EF074FF900E40F0900EA3
:10C7C0004112CE5912C80A7A447B0E120A6474B41C
:10C7D000900E3FF0900ADFE070097ACF7B0C1204D4
:10C7E0000A80031208BA02B41F12CA338A088B09DE
:10C7F000A808A90922129763F02212D75B2212C857
:10C80000022212F26074FFF0A32212CE66AC82AD57
:10C810008322C082C08379011209B0900D3912CCF5
:10C82000ED900ADFE070097ACF7B0C12040A8003D6
:10C830001208BA029CC474F6120F2FEAFEEBFF90A6
:10C840000D35E06401600302C91C12C513600302C8
:10C85000C91CEE2430F582EF12EDE8400474FF802D
:10C8600003E0C333900D30F0C0E0900AF0E0FAD05E
:10C87000E0C39A500302C91C7404900D01F0EE2429
:10C8800012F508EF12E4DDAC08FD7A037B0D120A05
:10C8900064E4900D02F0AA08AB091209A4EA700141
:10C8A000EB700E1209AAE964FF700674B1900D02D4
:10C8B000F0129C8B128011A2E050047C0F80027C4D
:10C8C00000F5088E828F83A3A3A3A3E0FE74065510
:10C8D0000812D0D45508C430E30244F012C92874B9
:10C8E000122AFAE43BFBEA6E7001EB702FE8240693
:10C8F000FCE93400FD7A0B7B0D12C91F900D2FF05F
:10C90000900ADFE0700F900AF5E060107A017B0D6D
:10C9100012040A80077A027B0D1208B402B41F12B7
:10C9200009CE8A828B83E022FA3395E0FBEA2CFA67
:10C93000EB3DFB2274F6120F2FEAFEEBFF900D3554
:10C94000E06401600302CA178E828F83A3AA82ABC0
:10C95000831209A4EA7001EB70131209AAE964FFBB
:10C96000700B12CA7374B012CA3A02CA2A12D09853
:10C970005004780F80027800FC7B007A0074705CB1
:10C98000C4C0E012CA50D0E02C2414F912D7A5700C
:10C9900002A3E0700302CA2D12CA4312CE41A3A320
:10C9A000A3A3A3A3A3A312CA80900B10E0A2E050FC
:10C9B0000F12CA58900B1D12CE49E8F0A3E980125D
:10C9C000850882850983A3A3A3A3A3A374FEF0A370
:10C9D00074FFF07403850882850983A3A3A3A3A32E
:10C9E000F012CE36240812CA30EE241612C03112CC
:10C9F000BA3112D0EA900E9BF079051209B08E82FE
:10CA00008F83E0900D41F0120A04742412F244E482
:10CA1000F0A312F19280167409900E3EF074FF900C
:10CA20000E4012CA6CF07A3E7B0E12040A02B41F4A
:10CA3000FAE5093400FB1209C822900CD0F07ACF35
:10CA40007B0C221209C28E828F83A3AC82AD83221B
:10CA500074065CC31328FC2212089CE9C4333354C7
:10CA6000C0FA850882850983E04AF022F074B49008
:10CA70000E3F227409900CCFF074FF900CD1F0227D
:10CA8000A3E012D78E12F24CF508A3E0F509AA082C
:10CA9000FB1209BC22C082C083900D39E0700D905A
:10CAA0000AFA12CAC97A0812BD75800E12CABD747C
:10CAB00009900CCFF074FF12CEEF029CC4790112E2
:10CAC00009B0120A0A2212EB26E0FCA3E0FD227450
:10CAD000F0120F2F8A0C8B0D900D35E0640560036A
:10CAE00002CCD7EA241AF582EB12C519600302CCF6
:10CAF000D78A828B83A3A3128C2B2415F582E50998
:10CB000012D09E50047A0F80027A00FE850C828B30
:10CB100083A3A3A3A3E0FC74065EC3132AFAE43440
:10CB200000FB74705EC430E30244F0F83395E0F922
:10CB3000E82AF8E93BF9741628F8E439F9E86C704A
:10CB400001E9600302CCD7900D36E054F712E76498
:10CB50007A0812E7367409900CCF12CCF312CCEDA0
:10CB6000E508240BFCE5093400FD7AD27B0C1209A0
:10CB7000CE900CD0E0600302CCCDE50C2412FAE597
:10CB80000D12D08B7002E5836005E0F50A800B1270
:10CB900009AAE9F50A12E06FE9F0E50A900CD1F074
:10CBA000900CD2E0A2E0502B85088285098312D038
:10CBB000B51210CE0102D3CBBECBC5CBCCCB12CCA1
:10CBC000DA740F801912CCDA7414801212CCDA7471
:10CBD00019800B900D41E0C0E012CCDAD0E0F0E813
:10CBE00075F02BA42421FEE9340BFFE50C242AF573
:10CBF00082E50D12EB1712CE74E50C2412FCE50D44
:10CC00003400FDEE2404FAEF3400FB120A64900BAA
:10CC100010E0A2E05005900B1D800D85088285096B
:10CC200083A3A3A3A3A3A3A312AF23E50A75F02BA9
:10CC3000A42422F582E5F0340BF583EAF0A3EB128D
:10CC4000CCF3A3A3A312A4A012849A12CE74EE2450
:10CC500024F508EF12E4DD7C037D007900AA08FBCF
:10CC6000120134750CEC750D0C750E00780C121059
:10CC700086900CDC12E404AA08AB0912F38E120EA3
:10CC8000DB900CD312A4A0242212849C12CE7490A8
:10CC90000CD2E0C0E0EE241012849CD0E0F0900DA5
:10CCA00046780C120D9BEE242712849C780C120DF2
:10CCB000AAEE2411F582EF12D2C67403900EB1F0E1
:10CCC000A90A120A1C74FF900E9CF0800A12CABDB9
:10CCD0007ACF7B0C12040A0282C7A80AE875F02BEF
:10CCE000A4A9F02424F582E9340BF58322E0900C0A
:10CCF000D0F022F0850882850983A3A3A3A3A3A370
:10CD00002274F6120F2FEAFEEBFF900D35E064015E
:10CD1000600302CE1012C27D600CE0FA900AE9E0D6
:10CD20006A600302CE107403900CCF12CE94900C64
:10CD3000D112CE6212D0AD900CD212CE747401908A
:10CD40000CD412D2F97AD57B0C120A6412D0985006
:10CD500004780F80027800FC7B007A0074705CC459
:10CD6000C0E012CA50D0E02C2416F912D7A57002E8
:10CD7000A3E0700302CE2A8E828F83E0700E12C26F
:10CD80007D6009EEFAEFFB12092C800674FF900A11
:10CD9000E9F012D72CEE2403FCEF3400FD12CE4153
:10CDA00012CA8012CA58740412CE7A12CE9464FF4A
:10CDB000602212F39712F0A8A2E04018EE24161297
:10CDC000849C12D2D8E9340BF58312CE49A3E8F043
:10CDD000A3E98013850882850983A3A3A3A3A3A342
:10CDE000A374FEF0A374FFF0E5082409FAE5093402
:10CDF00000FB795312067412CE36240B12CA307916
:10CE00000812CE2D12F247E412C06D120A40801AA9
:10CE10007403900E3E12CE94900E40F0900E41742A
:10CE2000FF12CE5912CA6C12C38F02B41F1209B07E
:10CE30007414900D4022EE240BFCEF3400FDE50845
:10CE40002212D7518E828F832212C5578508828580
:10CE50000983A3A3A3A3A3A322F0A3F07401900EBC
:10CE6000432212CE662212A3E9A322A3A3A3A3A363
:10CE7000A3A3A3A3E8F0A3E9F022A3A3A3A3A3126F
:10CE8000A3E912CE87A322E0850882850983A3A3A4
:10CE9000A3A3A322F0EE241612848522C082C083AD
:10CEA000900AE9E064FF6018900D39E0601C900A78
:10CEB000E912F3EB900AE912EB1174FF900AE9F022
:10CEC00079011209B012CEF38021E4900EB1F090F6
:10CED0000AE9E0F9120A1CE96011E4900E9CF07A6C
:10CEE000777B0D79E512067A120A22029CC4E09043
:10CEF0000CD1F0900D39E0900CD012CA3D12040A0A
:10CF00002274F2120F2FEAFEEBFF900D35E0640160
:10CF1000600302D01112C513600302D011900ADF22
:10CF2000E06401700302D011900B10E0A2E0400316
:10CF300002D011129C8B2412F582E912D09E50046B
:10CF40007C0F80027C0012D0BC30E30244F012C996
:10CF500028741412D0827001EB600302D011888211
:10CF60008983A3A3A3A3A3A312D0DF12D0B112106D
:10CF7000CE01028ACF7BCF80CF85CF750A0F80107C
:10CF8000750A14800B750A198006900AEFE0F50AFD
:10CF9000E82408FCE93400FD7A0D7B0D1209CE8AE5
:10CFA0000C8B0DA80CA90D88828983E0900E9B1232
:10CFB000D0EA900D32F0900AE9E064FF6005750B4D
:10CFC000FF8020EE2412FAEF12D08B7002E583600E
:10CFD00007E0F50B74B580071209AAE9F50BE49098
:10CFE0000D02F07408900D01F0E50B900D3112C5A3
:10CFF00048900D0312C53A7A057B0D120A6474FF3E
:10D00000650B701074B1900D02F07A017B0D120463
:10D010000A02846FE50B900AE9F0900D0DE0900A8A
:10D02000E0F0900AE1E508F0A3E509F0E50A900ACE
:10D03000E3F0900D0E12D0AD900AE412CE747A0097
:10D0400080198A82A882E82427F582E4340DF583CA
:10D05000E0C0E0E812D078D0E0F00A900D1712E4BA
:10D060000EFBEA9B40DCEAC39403509E8A08E50865
:10D0700012D078E4F00A80EE24E6F582E4340AF572
:10D0800083222AFAE43BFBEA6508223400FB1209FA
:10D09000A48A828B83E58222EE240BF582EF128430
:10D0A00088A2E022A3A3A3A3A3A3A3A3A312C5576B
:10D0B0002288828983E0C41313540322F50A8E82E6
:10D0C0008F83A3A3A3A3E0F5087406550A12D0D456
:10D0D000550AC422C3132CFCE43400FD747022E012
:10D0E000F508A3E0F50922F0A3EBF088828983E03C
:10D0F0002274F4120F2F74FC120EC5EAFEEBFF909F
:10D100000AE9E0C0E012E06FD0E0F0900AE0E0A2AF
:10D11000E0502F900AE912F0BA8E828F83A312AFEB
:10D1200023E8240CF582E912849F12EE0C900AE1A8
:10D1300012AF23E8128FFBE912849FEAF0A3EB02FF
:10D14000D212900B1B12AF23900AE912F397242DF1
:10D15000F582E5F0340BF58312EE0C7402120F1019
:10D16000AA82AB837950120674851882851983AA26
:10D1700082AB83795312067412081E8A088B09A8A1
:10D1800008A909851882851983E0687003A3E069FE
:10D1900060E6C3E894FEE994FF50DD750900AA0932
:10D1A000EA75F02BA4ABF02421F582EB340BF58368
:10D1B000E064FF603BEA75F02BA4242FF582EB348A
:10D1C0000BF583E0687003A3E06970247402120F0A
:10D1D0001012AF23E50975F02BA485F008242DF576
:10D1E00082E508340BF583E06A7003A3E06B600905
:10D1F0000509E509C3940A40A5740A65096003029C
:10D20000D178900AE912D2D8E5F0340BF583E8F032
:10D21000A3E9F0900AE0E0A2E0500D900AE3E0C03C
:10D22000E012D2E0D0E08012900AEFE0C0E012D22B
:10D23000E0D0E012CE6274FFF0A312D2F9900AE9B6
:10D2400012F3972425FAE5F0340BFB120A64900AD6
:10D25000E912F0B5E5F0340BFB900B1D12D2F11280
:10D26000CE73900AE0E0C0E0128920D0E0F0900D8B
:10D27000467808120D9BEA2427F582EB12849F78EA
:10D2800008120DAA12D2BB12D2C6900AE412A365EC
:10D290002422F582EB12849F12CE747508E675097C
:10D2A0000A750A0078081210867C037D00EA24249F
:10D2B000FAEB12D2CF120EDB02804FEA2411F58274
:10D2C000EB22F582E50912EB26E4F022FAE50B34B5
:10D2D00000FB12012874032212F39B242FF58222F3
:10D2E000900AE912F39B2424F582E5F0340BF583D0
:10D2F0002212C5578A828B8322F0EE2403FCEF347E
:10D3000000FD2274F4120F2F74EA120EC5900B1058
:10D31000E0A2E05050790A1209B0900DF27808129C
:10D320000D9B7401120F107808120DAA7405120FCC
:10D3300010E4F0900AFCE0C0E07406120F10D0E098
:10D34000F07408120F107403F07414120F10743B71
:10D35000F0A3740EF07401900AEAF0120F10AA8282
:10D36000AB831206C879011201B8900B10E0A2E05D
:10D37000402012DE17740D900CCFF0E4900CD0F02A
:10D38000740185188285198312DB377ACF7B0C12E2
:10D39000040A741602805174F0120F2F74E9120EF1
:10D3A000C5EAFEEBFF900D35E0640A600302D57D0F
:10D3B0008E828F83A3A3E0600302D48C750A007A67
:10D3C00001802A8E828F8312D0A48A08E82508F56E
:10D3D00082E91284B3C0E0850A08E82508F582E9ED
:10D3E0001284B3FBD0E0C39B50028A0A0A8E828F5C
:10D3F00083A3A3A3A3A3A3A3A3E0FBEAC39B40C36C
:10D40000E50A1210CE000115D40DD411D4740F808A
:10D4100006741480027419900AEFF0900DF2780CE3
:10D42000120D9B7402120F10780C120DAA740612C2
:10D430000F107401F0900AFCE0C0E07407120F10A6
:10D44000D0E0F07409120F107405F07AA57B001279
:10D45000013A7415120F1012EE0C7415120F10E031
:10D460007002A3E07017E4900AEAF0F91209B074B0
:10D470000D900CCFF074BE12CEF702D57D7402125F
:10D480000F10AA82AB831206C802D57D12D5821274
:10D49000D5A064FF7004A3E064FF60F07D00803AD3
:10D4A000851882851983E0FAED75F021A4F8A9F0BA
:10D4B0008E828F83A3A3A3A3A3A3A3A3A3E028FC8B
:10D4C000A3E0398C82F583A3A3A3A3A3A3A3A3A35F
:10D4D000E06A7003A3E06B60B30D8E828F83A3A319
:10D4E000A3A3A3A3A3A3E0FAEDC39A40B38E828FB4
:10D4F00083A3A3A3A3A3A3A3A3E06D708F8E828FA6
:10D5000083A3A3A3A3A3A3A3A3A3E07002A3E060A8
:10D51000108E828F83A3A3A3A3A3A3A3A3A312F11B
:10D52000F9851882851983AA82AB83795012F55C3C
:10D5300012D0AD900B1B12CE7412D58212D590C3AF
:10D54000E094F0A3E094FF50F0851882851983AA37
:10D5500082AB83795312F55C12D0AD900B1D12CEC5
:10D56000747C1B7D0B7A02792212038C7C1D7D0B4F
:10D570007A02792312038C12093E120944741702AD
:10D5800082C412081E851882851983EAF0A3EB2253
:10D5900012D5942212D59822F085188285198322FB
:10D5A00012D594E022C082C08312DAFF7ACE7B0DBE
:10D5B000794612067A7ACC7B0D794512067A7AEC96
:10D5C0007B0A794112067A029CC474F4120F2F74FC
:10D5D000DD120EC5900B1B12D0AD7404120F101289
:10D5E000CE74900D467808120D9B8518828519839C
:10D5F0007808120DAA900AEFE0C0E07406120F102E
:10D60000D0E0F07408120F10740FF07409120F10AC
:10D61000740FF0740A120F107401F0740B120F10D3
:10D62000E4F0740C120F10E4F07415120F10E4F013
:10D630007420120F10E412D6411205967423028052
:10D640005112D6452212D598AA82AB832274F412C5
:10D650000F2F8908900D35E06401700A7AB47B0EB3
:10D66000120974E96028900D35E06401600474B417
:10D67000800274B2900E3FF0740E900E3EF0E508FA
:10D68000900E40F07A3E7B0E12040A02D729900ECB
:10D69000B412D7747B007A006004790A800279069C
:10D6A00012D7A57002A3E07013740E900CCFF0E5B2
:10D6B00008900CD1F074BE12CA3A80CC12D72C90CC
:10D6C0000EB4E012D74512D765500512D7818003FA
:10D6D00012C7FE12F51512D74074058E828F83A3F0
:10D6E000A3A3A3A312D79A2411F812B3966022120F
:10D6F000EDDFEE2405F50AEF3400F50B780A121081
:10D700008A790112F207120EDBE9700512F1F68038
:10D710009879061209B0900EB412D736900D41F0E8
:10D72000E508900AEBF012F18D028054900EB212CF
:10D73000AF271209C22212D73BE02212AF37A32231
:10D74000E012F2382212D749222404FCA3E034006C
:10D75000FD900EB2E0242212D75B22FAA3E034003F
:10D76000FB120A6422900EB4E0241012D77BA2E0D0
:10D770002290094AE0241112D77B22F812F267E0C6
:10D7800022900EB4E0240C12D77B12D78E22FAA37B
:10D79000E0FB12F260EAF0A3EB2212F247E0227BF8
:10D7A000007A00790F1205EA900EB2EAF0A3EBF0CE
:10D7B000900EB2E022C082C08374FE120EC585189E
:10D7C00082851983AA82AB83900AEBE0F91209746F
:10D7D000E9700912D817900AEB12EB1179011209BE
:10D7E000B0740E900CCFF0900AEB12CEEE02F4EE75
:10D7F00074F7120F2F74FE120EC5E9FE851882858C
:10D800001983AA82AB83120974E9700812D817EE43
:10D81000F912099E028EAC851882851983128B1E1F
:10D8200074FFF02274F5120F2F74F8120EC5E990F0
:10D830000D33F0E4900D34F07401900B1FF0747F01
:10D84000900B20F0E4900A31F012068C12098CE45F
:10D85000900B10F0900B1AF0900B1B74FFF0A3F0DC
:10D86000900B1DF0A312D590AC82AD837A0879019C
:10D87000120392E970287508D075090D750A0078B1
:10D88000081210867C087D007403120F10A982AA6A
:10D89000837B0012012E7403120EDBE960327508DF
:10D8A0000C750978750A0078081210867C087D00CE
:10D8B0007403120F10AA82AB8312F38E120EDB8553
:10D8C0001882851983AC82AD837A08790112038CA2
:10D8D000120998740802C55D74F6120F2F74FD12B8
:10D8E0000EC5EAFEEBFF74805FF9E47001E9700396
:10D8F00002D979900D3312DB2312CE74E87001E95E
:10D90000606E8518828519831284A41211040003A5
:10D910000728D90835D90D1BD963D98518828519EF
:10D9200083E0FA1209EC803B851882851983E0FABE
:10D93000120938802E900D35E0640A7026740D901F
:10D940000CCF12DB4412CCED700A7402120F10746B
:10D950000112DB3779011209B0900AEAE06004E4B1
:10D9600012CEFA851882851983AA82AB83120632F9
:10D97000EEFA74806FFB02DAEF900D36EEF0A3EF53
:10D98000F0900D36E0A2E05003120A4C900D36E004
:10D99000548060031209E0900D36E054026005E403
:10D9A000900D40F0900D36E05404600B900D35E082
:10D9B000640470031208EA900D37E05404F9E4702F
:10D9C00001E96021900D35E064047019900ADE12BF
:10D9D000DB15A2E1500F1208F07A417B0D79E112BC
:10D9E000067A1208DE900D36E054086013900D356B
:10D9F000E06405700B12CABD12CA7374B312CEF77D
:10DA0000900D36E05420602E900D35E064016005E5
:10DA1000E06402701612DAFF900D3412DB1A640310
:10DA200070091208847402900A31F0900AED12CA4B
:10DA3000C97A4012BD75900D36E05440601E900DBD
:10DA400034E0A2E45016900D35E064016005E06416
:10DA500002700612E69812086012E6A9900D37E0EF
:10DA60005401F9E47001E96014900A32E0700E90FC
:10DA70000A31E0640170067402F0120884900D36D9
:10DA8000E054106003120854900D37E05402F9E49A
:10DA90007001E96018900AEFE0F912DAF4F582E516
:10DAA000F0340AF583E4F0A3F0900A49F0900D37C2
:10DAB000E05408F9E47001E9600579B81208C090F3
:10DAC0000D37E05410F9E47001E9601F900EB1E0E9
:10DAD0006403600AE064046005E06402700779B9D9
:10DAE000120A3A8006E070037401F07A007B007439
:10DAF0000302B41C12087EE975F007A42434227ACC
:10DB0000EF7B0A79E112067A7ACF7B0D7952120601
:10DB10007A22906180E0D2E0F022E0D2E0F0900A38
:10DB200031E022E0F912014C8A088B09A808A90902
:10DB300085188285198322F0AC82AD837A007983BF
:10DB40001209802212DB482212D598128B22A322BE
:10DB500074F5120F2FE9FEEAFFECFAEDFB74A02E2C
:10DB6000C39410505F7C7F7D1874A02EF50A850A3F
:10DB70000875090074027808120EB2EC2508F582C7
:10DB8000ED350912DE0C7001E9604D850A08750952
:10DB90000074027808120EB2EC2508FCED3509FD80
:10DBA000E493F508740193F509750A0078081210DA
:10DBB000868C828D83A3A3E493FC7D0012F38E12E6
:10DBC0000EDB806774802EC3940950087CBF7D18DB
:10DBD0007480809779F4805574686E7025EFC394D3
:10DBE0000A501BEF75F02BA42421F508E5F0340B47
:10DBF000F509750A0078081210867C2B80BC79F92B
:10DC0000802B74846E700DEAFCEBFD7A08790112AA
:10DC10000392801774676E70BB900D34E0A2E450DD
:10DC20000474018001E48A828B83F0790002C5606C
:10DC300074F6120F2FE9FC74A02CC3941050257AAF
:10DC40007F7B1874A02CF5087509007402780812FF
:10DC50000EB2EA2508F582EB3509F583A3A3E49318
:10DC6000F902B41F74802CC3940950087ABF7B1842
:10DC7000748080D1790080E9C082C083E9FD12EA16
:10DC8000DE6D7017ED75F02BA42421F8E9340BF943
:10DC90008A828B8312CE747900800279B2029CC48E
:10DCA00074F4120F2F74F8120EC5E9FE1209987958
:10DCB00001120668851882851983AC82AD837A08C3
:10DCC0007901120392851882851983AA82AB837920
:10DCD000E212067A900D76E0906196F07A207B0B46
:10DCE00079E512067AEE607C12098C7F008F087548
:10DCF000090074027808120EB2E5082482F582E564
:10DD0000093418F583E49360398F087509007402AB
:10DD10007808120EB2E508247FF582E5093418125E
:10DD2000DE0C7001E9601B8F087509007402780829
:10DD3000120EB2E508247FF8E509341812E0E31268
:10DD4000038C0FEFC3941040A47F00EFF912099EDB
:10DD50000FEFC3940A40F47CEC7D0A7A00798312B9
:10DD60000980801B900DF67808120D9B900B0C78A3
:10DD700008120D237C0C7D0B7A04790612038CE4C7
:10DD8000900D34F0900D35F07AEF7B0A79E11206B0
:10DD90007A900A32E07022900A31E06402701A121E
:10DDA000E75E7A1012E73CF0A3E054FDF07A007BC6
:10DDB0000212E73812074C800B900A31E0640170C0
:10DDC0000312DE2DE4900A31F01208AE74FF900ABF
:10DDD000E9F079011201B8900B1AE0602A900B105B
:10DDE000E0A2E0501F7A1B7B0B795012067A7A1D55
:10DDF0007B0B795312067A790A1209B012093E1286
:10DE00000944800312DE177408028051F583E493FD
:10DE1000F8740193F9E8227ACF7B0D795212067AD1
:10DE2000900D34E0D2E0F079011209B022900D3665
:10DE3000E0F0A3E054FEF07A007B0112E755227473
:10DE4000EC120F2F890B8A0AECFEEDFF74A0250B54
:10DE5000C39410400302DF4375087F75091874A04E
:10DE6000250BF51285120C750D007402780C120E3C
:10DE7000B212DF9E12DE0C7001E9604485120C754F
:10DE80000D007402780C120EB2E508250CF510E5B1
:10DE900009350DF5118E0C8F0D750E00780C1210D2
:10DEA00086851082851183A3A3E493FC7D008510F1
:10DEB00082851183E493FA74019312F38D120EDBC1
:10DEC00085120C750D007402780C120EB212DF9ED2
:10DED000F583A3A3A3E4936034751300740278124E
:10DEE000120EB2E5082512F510E5093513F511EE0D
:10DEF000FCEFFD851082851183A3A3E493FA8510BE
:10DF000082851183A3A3A3E493F912038C7468653B
:10DF10000B704CE50AC3940A50418E0C8F0D750EA0
:10DF200000780C1210867C2B7D00E50A8CF0A4246E
:10DF300021FAE5F0340B12F38D120EDBA90A120957
:10DF40009E80567480250BC39409500B7508BF75CD
:10DF50000918748002DE6079F4804079F9803C749D
:10DF600061650B70051209FE802F7484650B701AB1
:10DF7000EEFCEFFD7A08790112038CE97008EEFAE5
:10DF8000EFFB79E2801079BE80117488650B70090F
:10DF9000EEFAEFFB79E512067A790002A590E50822
:10DFA000250CF582E509350D2274F2120F2F8A082F
:10DFB0008B098A828B83E012110400040711E008A8
:10DFC00048E00CCADF0D05E045E0EA2403F8EB3435
:10DFD00000F9E8FEE9FF8E828F8312AF2312062C30
:10DFE000850882850983A3E0900D3912A3E512D03C
:10DFF000AD900D3A12CE747A017B00900D33E0F9AA
:10E0000012016A8040AE08AF09EE7001EF60368001
:10E010002A750B0BAA0B7B0012013A8A0C8B0DAEF2
:10E020000CAF0DEE7001EF601C750A00780812103D
:10E0300086AC0B7D0012F38E120EDBEEFAEFFB9036
:10E040000D3312913202846F750B0280C7C082C0FB
:10E050008390185C7CED7D0A7423120DE7FBEB12B4
:10E06000E06F74FFF00BEBC3940A40F2029CC4759E
:10E07000F02BA42421F582E5F0340BF5832274F40F
:10E08000120F2FEAFEEBFF8909750800804B850807
:10E090000A750B007402780A120EB212E0FBA3A3F9
:10E0A000A3E493603285080A750B007402780A12A3
:10E0B0000EB212E0FB12DE0E7001E9601A85080A4A
:10E0C000750B007402780A120EB2EE250AF8EF35CD
:10E0D0000B12E0E31203920508E508C3950940AE70
:10E0E000028054F9E493FC740193FDA3A3E493FA32
:10E0F00088828983A3A3A3E493F922EE250AF582FB
:10E10000EF350BF5832274F7120F2F79107A7F7B8E
:10E110001812099279097ABF7B18120992750800C2
:10E12000E50812E15112039212E169120392050807
:10E13000E508C3940A40E90297EE74F7120F2F899D
:10E1400008E912E15112038C12E16912038C029763
:10E15000EE75F02BA42421FEE5F0340BFFEEFCEF6E
:10E16000FD7A2774242508F922EE2427FCEF3400D9
:10E17000FD7A04742E2508F92274F7120F2FEAFE97
:10E18000EBFF750800A808E812EAD86024EEFCEF5F
:10E19000FDE875F02BA42425FAE9340B12C2776050
:10E1A00010E50875F02BA42421FAE5F0340BFB8070
:10E1B0000D0508E508C3940A40CB7A007B0002975E
:10E1C000EEC082C0837900E912E06FE064FF60096D
:10E1D00009E9C3940A40F079FF029CC474F7120F56
:10E1E0002FE9FE900D35E0FF74016F700512085A9B
:10E1F000800574026F60F6EE900D35F074016E705C
:10E200005D900B10E0A2E050097AEF7B0A79E112F1
:10E21000067A900A31E07029900B10E0A2E0507D60
:10E220007402900A31F0E4900A32F07C15FDF97A1C
:10E23000347B0A120134E4900A49F0900A30F080ED
:10E2400059900A3212E6A474026F7043900A31E0CA
:10E2500064036005E064047044120866803F740241
:10E260006E703A900B10E0A2E050097AEF7B0A79C9
:10E27000E112067A900A3212E6A474016F701090CF
:10E280000A31E0640270167403F012E2A0800EE01E
:10E29000700B900A31E0640270031208840297EE5A
:10E2A00012E75E7A1012E75312074C22E9FA740F54
:10E2B0006A70047914801074146A700479198007E4
:10E2C00074196A7002790F02010774F4120F2FEAB1
:10E2D000FEEBFF742A8E828F83F01209D48A088B9A
:10E2E000098C0A8D0B8E828F83A3028009C082C0A5
:10E2F00083EA242DF582EB12849F7403F0EA242A2A
:10E30000F582EB12849F7403029CC374F1120F2FE9
:10E31000EAFEEBFF8C088D09900B1012E3F5900BD1
:10E320001112E3FC12CE73750C13750D0B750E00F4
:10E33000780C1210867C077D00EE24030A0A0AEF8F
:10E3400012D2CF120EDB85088285098312F181A3D8
:10E35000A3A3A3F0EE240BFEEF3400FF8508828513
:10E360000983E0A2E0501B750CFD750D0A780C12B4
:10E3700010867C0F12F388120EDBEE240FFEEF34B2
:10E3800000FF850882850983A3A982AA83890C8A54
:10E390000D780C12108685088285098312E4041218
:10E3A000F38A120EDB85088285098312E4E2EE28E7
:10E3B000FEEF3400FFE5082404F50CE5093400F510
:10E3C0000D780C12108674705AC412F387120EDB8B
:10E3D00085088285098312E3F030E30244F0F833C4
:10E3E00095E0F9EE28FAEF028622EE241312EB23D1
:10E3F000E05470C422E08E828F83F02212C5578EC3
:10E40000828F832212E40EFC7D0022900A53E05496
:10E4100006C3132274F1120F2F8A0A8B0BECFEED48
:10E42000FF8E0C8F0D750E00780C1210867C0B7D04
:10E430000012F38E120EDBEE240BF508EF12E4DD72
:10E440008E828F83A3A3A3A3A3A3A3A3A3A3E0A2CA
:10E45000E0502085080C85090D780C1210867C0F81
:10E460007D00E50A240B12D2CC120EDBE508240F46
:10E4700012E4D9EE240AFEEF3400FF85080C85096A
:10E480000D780C1210868E828F8312E404E50A2424
:10E490001A12D2CC120EDB8E828F8312E4E2E508D0
:10E4A0002812E4D985080CF50D780C1210867470CA
:10E4B0005AC4FC7D00E50A241D12D2CC120EDB8E5C
:10E4C000828F8312E3F030E30244F0F83395E0F9F1
:10E4D000E50828FAE509028622F508E5093400F581
:10E4E0000922E0FA74065AC313F82274F0120F2FAF
:10E4F000900B0C780C120D9B900D4A7808120D9B16
:10E50000900B0C7808120D23900B0C7808120D9BC1
:10E5100074FF5508F874035509F9E87001E9700BA8
:10E520007C0C7D0B7A04790612038CAA0CAB0DAC23
:10E530000EAD0F0282C774EC120F2FEAFEEBFF8CB8
:10E54000128D1389087414120F10E0F510A3E0F572
:10E550001112EDDF7A707B0E79E21206748E828FD3
:10E5600083A385820A85830B780C120D9B12EB43E3
:10E570008E828F83E0900E7D12978F780C120D9B08
:10E58000900E7E780C120DAAE5122404FCE51334DB
:10E5900000FD7A827B0E120A6412E653AA0AFB126D
:10E5A000021E750C8A750D0E780C12108A780A12EC
:10E5B000108A750A0D750B00780A12108A750A7D8B
:10E5C000750B0E780A12108A85080A750B00780AF6
:10E5D00012108AAC10AD117A707B0E7904120236DB
:10E5E000740A120EDBE97066750A8A750B0E780ADA
:10E5F00012108A12E653780A12108A85080A750BDF
:10E6000000780A12108AAC10AD117A707B0E790472
:10E6100012023C7406120EDBE9702F7A008A82A87F
:10E6200082E8248AF582E4340EF583E0C0E0E82530
:10E630000AF8E43400F9E51028F582E51139F5838C
:10E64000D0E0F00AEAC3940440D379018002790053
:10E6500002A590E5122412F50AE5133400F50B2209
:10E66000C082C08312E6A1D2E4F0900B10E0A2E0D9
:10E67000501D900D35E06401700579021209B090CB
:10E680000AF3E07002A3E0600312E6A91208607AC0
:10E69000EC7B0A795202D5C47AEC7B0A79521206D5
:10E6A0007A900D34E0C2E0F022900AED12C5577561
:10E6B000830A7582F3E0C398FCA3E099FD7A207B7E
:10E6C00000900D33E0F91201DC2274F7120F2FEAEB
:10E6D000FEEBFFEE7001EF700812E7441209E080D4
:10E6E00050900D34E0C2E4F0D2E0F0900D36E054EA
:10E6F000BF12E7647A4012E73C54DF12E7647A20E5
:10E7000012E7367ACF7B0D795212067A900D35E0FA
:10E710006402700579011209B074FF6E700374FF12
:10E720006F700512E7448009EEFCEFFD7A8012BDA0
:10E730007579000297EE7B0012E7552212E753909D
:10E740000D36E022900D36E0547F12E7647A801295
:10E75000E753227B00900D33E0F91201E222900D85
:10E7600036E054EFF0A3E0F02274EA120F2F8A0A89
:10E770008B0B120446850A82850B83A3A3A3A3E017
:10E78000C39402500302EAD5850A82850B83A3A3B2
:10E79000E0F514A3E0F515851482F583E05403F544
:10E7A00009740165097005750806800E7402650913
:10E7B00070057508058003750808E0A2E5500A5445
:10E7C00018131313541FFA80027A00850A82850BEE
:10E7D00083A3A3A3A3E0C39508500302EAD5EA707C
:10E7E0000302EAD5E50A241AF582E50B12871260C6
:10E7F0000302E903E50A2412F582E50B12849F1255
:10E80000AF2312EAFA12CAC67F00EF12EAD8603CC0
:10E81000EF75F02BA4242DF582E9340BF583E06C21
:10E820007003A3E06D7025EF75F02BA4242FF58203
:10E83000E9340BF583E06A7003A3E06B700EEF75AB
:10E84000F02BA42421FEE9340BFF800B0FEFC394BF
:10E850000A40B77E007F00EE7001EF700302E945C9
:10E86000EE242712849CC082C08385148285158380
:10E87000A3780C120D9BD083D082780C120B7450AD
:10E880000302E94574026509600302EAD585148232
:10E89000851583E05404600302EAD5EE7001EF7041
:10E8A0000302EAABEE24111284B0600E8514828557
:10E8B0001583E05404700302EAABEE242712849C13
:10E8C000C082C083900DFA7810120D9BD083D08245
:10E8D0007810120D62851482851583A3C082C083CF
:10E8E000900DFA780C120D9BD083D082780C120D0B
:10E8F000627810790C120B25700302EA8275080108
:10E9000002EA85E50A2412FAE50B3400FB1209A499
:10E910008A0C8B0DAE0CAF0DEE7001EF602712EA82
:10E92000FA12C2837004A3E064FF700302E860126D
:10E93000EAFA12EB17E0687003A3E069700302E8DB
:10E94000607E007F00851482851583E05404700387
:10E9500002E89B850A82850B83A3A3A3A3E0FA8523
:10E96000080C7404250C12EB03500302EAD5EE7078
:10E9700001EF700302EAD5EE24111284B070030295
:10E98000EAD5EE2404FCEF3400FD7A707B0E120A07
:10E9900064851482851583A3858210858311780C84
:10E9A000120D9B12EB43851482851583E0900E7D3A
:10E9B000F0851082851183780C120D9B900E7E12CB
:10E9C000EB2B7A827B0E79E2120674A808850A8204
:10E9D000850B83A3A3E028F50CA3E03400F50D8597
:10E9E0000A82850B83A3A3A3A3E0C39508F50812AD
:10E9F000EAEFAA0EFB12021E75108A75110E78102E
:10EA000012108A780E12108A85080E750F00780E83
:10EA100012108AAC0CAD0D7A707B0E790412024292
:10EA20007406120EDBE97047750E8A750F0E780EAC
:10EA300012108A12EAEF780E12108A750E0D750FF9
:10EA400000780E12108A750E7D750F0E780E12105A
:10EA50008A85080E750F00780E12108AAC0CAD0D69
:10EA60007A707B0E7904120248740A120EDBE97088
:10EA700064850A82850B83A3A3A3A3E024FCF00290
:10EA8000E8A4750800851482851583A3780C120DFF
:10EA90009BEE242712849C12EB2BE508600D740278
:10EAA000650960268E828F8312EB117401650960FF
:10EAB0000674036509700DEEFCEFFDAA0AAB0B129C
:10EAC00009F8801174026509700BEEFCEFFDAA0ACB
:10EAD000AB0B1209F20294E312EADE64FF2275F036
:10EAE0002BA4A9F02421F582E9340BF583E022EE72
:10EAF0002412F50EEF3400F50F22E50A242AF582E0
:10EB0000E50B22F8E43400F9EA98E499C365D033C0
:10EB100022E0F912099E2212EB2612A4A4240C1260
:10EB2000EB2322F582EF3400F5832212EB2F221221
:10EB3000EB34F022E50CF0A3E50DF0A3E50EF0A315
:10EB4000E50F22900E7812EB2F7405900E7CF022C8
:10EB500074F7120F2F8A828B83A3A3A3A3E0C3941D
:10EB600006500302ECCE8A828B83A3A312B716E071
:10EB70001210CE0107CEEC87EB8DEB93EB99EB9F58
:10EB8000EBF9EBFFEB5EEC12090202ECCE1208D8B7
:10EB900002ECCE12092602ECCE12091402ECCE8A47
:10EBA000828B83A3A3A3A3E06406600302ECCEEAF6
:10EBB000241AF582EB12C519600302ECCEEC700149
:10EBC000ED700302ECCEEC2411F582ED1284B360FB
:10EBD000118A828B83A3A312ECD2E0A2E24003024B
:10EBE000ECCE740F900D01129DABE0900D02F07A07
:10EBF000017B0D12040A02ECCE120A1602ECCEECD6
:10EC00007001ED700302ECCE900D35E064096003F5
:10EC100002ECCE900EB1E06402600302ECCE12EF83
:10EC2000C5600302ECCE8A828B8312A71E8E828F70
:10EC300083E05404700302ECC5A3A3A3A3A3A3E041
:10EC4000600302ECC58A828B83A3A3A3A3E0640BB9
:10EC5000707312EFE9EEFAEFFB120A2E8070EC707F
:10EC600001ED606A900D35E064097062900EB1E0CC
:10EC70006404705A12EFC570558A828B83A3A3A3D4
:10EC8000E0F97F008F82AC82EC12F1ECE0FEE82C20
:10EC9000F582E912F2DF6E70070FEFC3940440E4CF
:10ECA00088828983E05404601CA3A3A3A3A3A3E0E8
:10ECB00070138A828B83A3A3A3A3E0640B7006EF77
:10ECC000C39404500479BA80027900120A3A029778
:10ECD000EEF8A3128B292274F7120F2FEC7001EDBE
:10ECE000700302EDDC8C828D83E0900D021295079B
:10ECF00012D0AB12D0B11210CE01020FED03ED070E
:10ED0000ED0BED7E0F800A7E1480067E1980027E58
:10ED1000007401900D01F0EA2430F582EB12EDE869
:10ED2000400474FF8003E0C333900D0712D0EA540F
:10ED30000364038A828B83A3A3700AE0240812EE83
:10ED40001224F88008E0240612EE1224FA900D0630
:10ED5000F0EA2423F582EB1287127015EA241BF5E2
:10ED600082EB12C2837004A3E064FF70047401801C
:10ED700001E4900D0812D0EA54046006900D0812C8
:10ED8000EDF488828983E0540364037019900D08C0
:10ED900012EDE388828983A3A3A3A3A3A312AF23C5
:10EDA000900D0412EE0C88828983A3A3A3A3A3E091
:10EDB000900D03F0EE601E900AEFE06E6017900B6E
:10EDC00010E0A2E3500FEE900AEFF07A807B001281
:10EDD00002A21209FE7A017B0D12040A0297EE8E3E
:10EDE000828F83E0D2E2F022128488C39400A2D200
:10EDF00065D03322E0D2E1F02212AF27900EB2E0CC
:10EE00002422F8A3E03400F988828983EAF0A3EB96
:10EE1000F022FCA3E03400FD900D09ECF0A3ED120C
:10EE2000BA3FA3A3A3E022C082C083900D34E0A226
:10EE3000E050097AEF7B0A79E112067A900A31E014
:10EE400064027014900A33E0FA900AEFE06A600BF3
:10EE500012E2A0120866800BE06008900AEFE0F969
:10EE600012086C900A49E0C394035002E4F0029C3B
:10EE7000C4C082C083900D34E0A2E0400F7ACF7B03
:10EE80000D795212067A900D3412DB15029CC4C023
:10EE900082C083900D34E0A2E4500312E6987AEF2A
:10EEA0007B0A79E102D5C474F5120F2F900EB1E000
:10EEB000600464017061900D39E07033900E9CE045
:10EEC000FA900E9BE06A701F7A207B0B79E51206A0
:10EED0007A7402900EB1F012EFE9900AFA12C6F8B5
:10EEE0007B1012BD77804F900E9CE004F08014756B
:10EEF000089D75090E750A00780812108612EFD168
:10EF0000120EDB900EB1E06401700779B9120A3A73
:10EF10008024120A22801FE064037015900D39E0EE
:10EF200070087404900EB1F080B0900D39E0F98053
:10EF3000DCE0640260F402C56074F5120F2FEC701F
:10EF400001ED607E900D35E064097076900EB1E0C1
:10EF50006403706E12EFC570698A828B83A3A3A3CA
:10EF6000A3E06457705C8A828B83129C8FFEE9FF5A
:10EF70008E828F83A3A3A3A3A3A3E0FA900E9CE0A9
:10EF80006A701675089D75090E750A0078081210CA
:10EF90008612EFD1120EDB8005E0046A70248E82A7
:10EFA0008F83A3A3A3A3A3A3E0900E9CF012F175FB
:10EFB000900E9CE0FA900E9BE06A700612EFE91248
:10EFC0000A2802C5608C828D83E0FC900E9AE06C6A
:10EFD000227C107D00900E9A12F39B2433FAE5F008
:10EFE000340BFB120128740322900D36E0F0A3E0ED
:10EFF00054EFF07A007B1012E7552274F7120F2FAE
:10F00000E9FE900E9AF075F02BA412F0A8A2E2503F
:10F0100008900B10E0A2E2400A79B0120A3A790097
:10F0200002F0A5900E9A12F0B5E9340BFB12D2BB98
:10F03000128199F07C107D007900EA2412FAEB34F9
:10F0400000FB1201347C107D0079007A9D7B0E124A
:10F05000013479091209B0900B10E0A2E04012EEE1
:10F0600075F02BA4242DFAE5F0340BFB7950120631
:10F070007A900E9BE0F8740128FCE43400FDEC75F6
:10F08000F03CA4FCAAF075F03CEDA42AFD7A007BCC
:10F090001012BD77900E9A12F0BA900EB412CE7480
:10F0A000120A0479010297EEA9F02431F582E934BD
:10F0B0000BF583E02212F0C4FA2212F0C4F8E5F056
:10F0C000340BF922E075F02BA424212274F0120FE6
:10F0D0002F7B007A00795712D7A57002A3E0700841
:10F0E00079BE120A3A02F17212F21974068E828FF8
:10F0F00083A3A3A3A3A3F0900E9C12F181F0EE24AE
:10F1000007F508EF12E4DD7A1F7B0A12021E750A6A
:10F11000051201948A0C8B0D8C0E8D0F850882854B
:10F120000983780C120DAA900D3C780C120D9B856A
:10F130000882850983A3A3A3A3A3A3A3A3780C1286
:10F140000DAA900D4A780C120D9B900D3C780C1274
:10F150000D23AC08AD097A1F7B0A120224E50824AE
:10F160001012E4D9150AE50A70A712F17574941209
:10F17000F18F0282C7EE2407FAEF3400FB120A3443
:10F1800022E08E828F83A3A3A3A3A3A3227414904F
:10F190000D40F0120A402274F6120F2F12D79F7002
:10F1A00002A3E0700779BE120A3A803D12F2197488
:10F1B0000712F2E4F50812071C850882A882E812FB
:10F1C000F1ECE9F012F2CAE9F00508E508C394048D
:10F1D00040E412F2FB12108A12F205120EDBE97003
:10F1E0000512F1F680BF12F18D02B41F24ADF58235
:10F1F000E4340EF58322900EB212F1FD2212B3A276
:10F20000FB120140227906900EB4E0FCA3E0FDEE73
:10F21000FAEFFB1209DA740222900EB2E0242D12EA
:10F22000C61512F255740312F247E012D74912C8FC
:10F230000212F24C12F23822FEA3E0FFEEFAEFFBCC
:10F240001209BC22900D40F0900EB422F0900EB244
:10F2500012AF37E022F0900EB2E0242A12F26622BA
:10F26000900EB2E0242BF8A3E03400F98882898361
:10F270002274F6120F2F8A088B0912D79F7002A3EF
:10F28000E0700779BE120A3A803D12F21974081232
:10F29000F2E4FA8A82A882E50828F582E50912F2EA
:10F2A000DFC0E012F2CAD0E0F00AEAC3940440E3FF
:10F2B00012F2FB12108A12F205120EDBE97005122F
:10F2C000F1F680BF12F18D02B41FEE28F582EF1225
:10F2D000F2D3223400F583A3A3A3A3A3A3A32212F2
:10F2E000F2D3E0228E828F83A3A3A3A3A3F0E48EA4
:10F2F000828F83A3A3A3A3A3A3F0228E828F83E094
:10F30000D2E2F0EE2405F508EF3400F50978082282
:10F3100074F5120F2FEAFEEBFF900E9A12F397246A
:10F3200033F508E5F0340BF509750A00780812107A
:10F33000867C107D007A9D7B0E12F38E120EDB7A96
:10F34000008A82A882850A08EE25081284B0F50892
:10F35000900E9A12F397FCE82433FAE4340BFBEC9A
:10F360002AF582E5F03BF583E06508F07401280892
:10F37000E43400F97A107B00120E42050AE50AC354
:10F38000945040BD02C560FC7D00EEFAEFFB120117
:10F3900028740322900E3912F39B22E075F02BA4FF
:10F3A0002274F7120F2FE9FE12EFE974B06E7004A9
:10F3B0007E008009EE6006900E9A12F3EB900E9A92
:10F3C00012EB1112CABD900EB1E060096401600534
:10F3D000E06402700F7A207B0B79E512067A74FFE5
:10F3E000900AE9F0EE900CD00297E812F0C4F58292
:10F3F000E5F0340BF58374FFF022C082C08374FE05
:10F40000120EC5900A3212EDF4900A31E0640270D7
:10F410000312E2A0900B10E0A2E04036900EB4E0A0
:10F420007002A3E0601B900EB4E0240C12F4FD798E
:10F430005012067A900EB4E0240112F4FD79538044
:10F440000E900B1B74FFF0A3F07A1B7B0B7950120C
:10F45000067A7AF77B0A794E12F4F3A2E750168502
:10F460001882851983E4F0A312D641795912F4F376
:10F47000C2E7F080097AF87B0A795912067A7A4154
:10F480007B0D79E112F4F3640470097CE87D037A62
:10F490000212BD75900D40E06404600AE0641460DF
:10F4A00005E06424700712F5047401800412F50469
:10F4B000E4F0900D38E0C0E0900EB212F50ED0E00E
:10F4C000F0900D38E004F0900D40E06009640160B8
:10F4D00005E06424700474028001E4900D4212F58A
:10F4E00015A3A3E0900D43F0900EB212F61574022E
:10F4F00002A1C212067A900D40E022E02AFAA3E0AF
:10F500003400FB22900EB2E0242F12C60B22E0241E
:10F510002E12C60B22F0900EB212AF3322C082C060
:10F520008374FF120EC5900D40E064047027E485DB
:10F530001882851983F012F623851882851983AA0B
:10F5400082AB83794E12F55CAA82AB83795912069D
:10F550007A790180027900740102A1C212067A85CB
:10F56000188285198322C082C083900D42E0900DDD
:10F570003A604BE07002A3E06059900D40E06424D3
:10F580007006900D39E0603D12F623900D3AE024AC
:10F590000412AF19900D43128468E0C39AFA900DDB
:10F5A0004312C7F5900D3A12F61C12F4FC12EE0845
:10F5B000900D42E014F0900D3A12F6158054E07070
:10F5C00002A3E0600E7A3A7B0D120632900D3AE407
:10F5D000F0A3F0900D36E054FD12E7647A0212E7D2
:10F5E00036900A32E0C2E1F0700B900A31E064021A
:10F5F0007003120884900D35E024FDC39407501267
:10F600001290BD24D2F582E9340DF583129A0412CA
:10F610000F1A029CC412AF271205E422E024021242
:10F62000D77B2212F6307A417B0D79E112067A22DD
:10F63000900D41E0F91209B6E9900D41F022FFFF6B
:10F64000FFFFFFFFFFFFFFFFFFFFFFFFFFFFFFFFCA
:10F65000FFFFFFFFFFFFFFFFFFFFFFFFFFFFFFFFBA
:10F66000FFFFFFFFFFFFFFFFFFFFFFFFFFFFFFFFAA
:10F67000FFFFFFFFFFFFFFFFFFFFFFFFFFFFFFFF9A
:020000040003F7
:10FFD000FFFFFFFFFFFFFFFFFFFFFFFFFFFF8EE9B8
:08FFE000FFFFFFFFFFFFFFFF21
:040000050000008671
:00000001FF
