:020000040000FA
:100000000200DC02474AFFFFFFFFFFFFFFFFFFFF89
:10001000FFFFFFFFFFFFFFFFFFFFFFFFFFFFFFFFF0
:10002000FFFFFFFFFFFFFFFFFFFFFF02BE62FFFFBB
:10003000FFFFFFFFFFFFFFFFFFFFFFFFFFFFFFFFD0
:10004000FFFFFF02CAB8FFFFFFFFFF02C1EFFFFF84
:10005000FFFFFF02453CFFFFFFFFFF02C20BFFFF58
:10006000FFFFFF02C21CFFFFFFFFFF02A402FFFF12
:10007000FFFFFFFFFFFFFFFFFFFFFF02A469FFFF7E
:10008000FFFFFF0246471200F0B900030200D6E46A
:10009000791A7801B800028004F709D8FCE49001CD
:1000A000807877790C8002F0A3D8FCD9FA900CF60E
:1000B000AA82AB839006AF78D379018015E493A32D
:1000C000AC82AD838A828B83F0A3AA82AB838C82BD
:1000D0008D83D8E9D9E712C80B1200EB75D00075F3
:1000E000813F75188075190102008600000080FBB1
:1000F000790122C3E498F8E499F91201348026C307
:10010000E49AFAE49BFBE920E7E9120134E498F869
:10011000E499F922C3E498F8E499F9120134E498D7
:10012000F8E499F9C3E49AFAE49BFB22EB20E7CFC9
:10013000E920E7E0B90010BB0008E88AF084F8AADB
:10014000F022E4FBC8FA22EB70227B10C833C8C946
:1001500033C9335007C39AC3DBF280069A50012A91
:10016000DBEAC833F4C8C933F4C9FA2275F008E4ED
:10017000C833C8C933C933C99AC99B5004C92AC9ED
:100180003BD5F0ECFBC833F4C8E4C9FA22080808F0
:10019000EAC0E0EBC0E086F0E7A4FA180986F0E7D1
:1001A000A42AFA180986F0E7A42AFA180986F0E7C3
:1001B000A42AFA1986F0E7A4FBE5F02AFA190886C2
:1001C000F0E7A42BFBE5F03AFA190886F0E7A42B38
:1001D000FBE5F03AFA18180986F0E7A4C5F02BFB06
:1001E000E43AFA1908E7C5F0C6A426F6E5F03BFBA9
:1001F000E43AFA1886F0E7A4F6E5F00826F6E43BC0
:1002000008F6E43A08F6D0E0FBD0E0FA222518C55B
:1002100082C0E0E51934FFC583C0E0E518C39582CC
:1002200024F9F8E4C5A8858319858218C5A8E8CE05
:10023000F0A3E520F0A37808E608F0A3DEFAEFF0DB
:10024000A3E58124FBF8E608F0A3E608F0A308087C
:10025000E608F0A3E608F0A315811581D0E0FED0F2
:10026000E0F815811581E8C0E0EEC0E022C0D0259D
:1002700018C582C0E0E51934FFC583C0E0E518C3A6
:10028000958224F310AF088583198582188008852C
:100290008319858218D2AFC8F0A3E9F0A3EAF0A3CE
:1002A000EBF0A37908E709F0A3D8FAECF0A3EDF09E
:1002B000A3EEF0A3EFF0A3D0E0F0A3D0E0F0A3D042
:1002C000E0F0A3E520F0A3E5F0F0A32285198385F3
:1002D0001882E0C0E0A3E0F9A3E0FAA3E0FBA37872
:1002E00008E0F608A3DFFAE0FCA3E0FDA3E0FEA32C
:1002F000E0FFA3E0C0E0A3E0C0E0A3E0F5D0A3E00E
:10030000F520A3E0A3F5F0E4C5A88583198582183C
:10031000C5A8D082D083D0E0F8D0E032851983859B
:100320001882E0A3FEE0A3F5207808E0A3F608DF3A
:10033000FAE0A3FFE0A3C0E0E0A3C0E0E0A3C0E0D8
:10034000E0A3C0E0E4C5A8858218858319C5A8D0BC
:1003500083D08222D083D082C5F0E493A3C5F0C3BA
:1003600095F0F5F0E493A3C395F04005E5F0048023
:1003700001E475F002A42582F582E5F03583F5836A
:10038000E493A3C0E0E493C0E02274028000CCC0F8
:10039000E0EDC0E0E518C39CCCAD1950011D10AFD5
:1003A000068C188D1980068C188D19D2AF12040393
:1003B000D0E0FDD0E0FC22D083D082CCC0E0E4933A
:1003C000A360061204431470FAE493A360061205B6
:1003D000131470FAD0E0FCE493A3C0E0E493C0E00F
:1003E00022CAC0E0E493A3C582CCC582C583CDC533
:1003F00083F0A3C582CCC582C583CDC583DAE5D0A1
:10040000E0CA22CAC0E0E0A3C582CCC582C583CDC4
:10041000C583F0A3C582CCC582C583CDC583DAE68A
:10042000D0E0CA227009080808226016181818C6F9
:10043000C333C608C633C608C633C608C633C6D5D6
:10044000E0EA22C0E0E493A3D39C5010E493A3C35A
:100450009C400AD0E0D0E0D0E00203D4A3A3A3D014
:10046000E0222518F58210AF08F518400215198012
:1004700008F51840021519D2AF851983227404803B
:100480000A74038006740280027401C0E0F404124E
:100490000462D0E012069622BB0102E722C082C0AD
:1004A0008389828A83BB0003E08002E493D083D0F7
:1004B0008222C0D0251810AF08F518500205198007
:1004C00008F51850020519D2AFD0D02260160808DE
:1004D00008C6C313C618C613C618C613C618C61353
:1004E000C6D5E0EA22C3E0C696F608A3E0C696F6B3
:1004F00008A3E0C696F608A3E0C696F622251810D3
:10050000AF08F518400215198008F51840021519B2
:10051000D2AF22C0E0E493A36C7009D0E0D0E0D069
:10052000E00203D4A3A3D0E022E76670100809E735
:1005300066700A0809E76670040809E76622E06643
:10054000701008A3E066700A08A3E066700408A3B0
:10055000E06622C3E09608A3E09608A3E09608A30D
:10056000E096A2D265D03322C3E096F008A3E096CD
:10057000F008A3E096F008A3E096F022C3E697F611
:100580000809E697F60809E697F60809E697F622BD
:10059000E026F608A3E036F608A3E036F608A3E066
:1005A00036F622700422600D18C6C333C608C6335F
:1005B000C6D5E0F41822E046F008A3E046F008A310
:1005C000E046F008A3E046F022E627F60809E63701
:1005D000F60809E637F60809E637F622E056F60887
:1005E000A3E056F608A3E056F608A3E056F622E08C
:1005F00026F008A3E036F008A3E036F008A3E036C2
:10060000F022C0E0E8C0E0E58124FCF8E6A2E7D0F3
:10061000E0F8D0E022E056F008A3E056F008A3E0AE
:1006200056F008A3E056F022E4C396F608E496F6E6
:1006300008E496F608E496F622C3E7960809E796DA
:100640000809E7960809E79622C6F4C608C6F4C664
:1006500008C6F4C608C6F4C622C3E09608A3E0960E
:1006600008A3E09608A3E09622E0F608A3E0F608C7
:10067000A3E0F608A3E0F622600C08C6C313C61870
:10068000C613C6D5E0F422E6F008A3E6F008A3E618
:10069000F008A3E6F022CAC0E0E6F0A308DAFAD038
:1006A000E0FA222518F582E43519F58322E47390E7
:1006B000010000000001000000005800006400007C
:1006C000001F0000002D00000097511800965118DF
:1006D000009F020000EFFFFFFF11000000FFFFFF7F
:1006E000007D000000FF0F0000BB1C2866F3839113
:1006F0009EA6C84ACA0600001000FFFFFFFF60EA7E
:100700003075102019F8E7544920496E6300030042
:1007100003000300030003000300030003000300C1
:1007200005000A00140028004F009E000000F0227F
:10073000F022F022F0225D145114F022F2070000A2
:1007400000005408000000000C0000000C0002CE65
:10075000010201FFFFFFFFFFFFFFFFE34DBE50EA75
:100760005708656A55FA5BB27B3000000000000C48
:100770000000000080008010020004000000FCFF68
:10078000FF0202030D042F05310602083109260D70
:10079000010E020F01100911007101BD080F01D6F1
:1007A000087206BE087301C4087403C5087507C83B
:1007B000087602CF087702D1081002D7081107D9AE
:1007C000087802D3087901D5080005150D0910082D
:1007D0000400383C3E363B3B352B432C303016185A
:1007E0001920231A1C1E30303017181921301B1DF8
:1007F0001F300300710030016000110070003102F1
:100800002003500480001000610000001400630009
:100810007300720062004300000013000600000035
:1008200000000400120000000000000000000400AE
:100830000400370037003C024400000000000000C4
:100840000000650000003500810000000500000088
:10085000830000000103710301030103010301038D
:10086000010322030203010310030003000300033A
:1008700000030003000300034203000324030603F4
:1008800000030003040312032503230325032303AA
:1008900004030403000300030003440300030003F4
:1008A00023030003650321003503810300030503CF
:1008B0000003000300030304710402046004110434
:1008C0007004020402040104020410046104000420
:1008D00014046304730472046204430400041304E4
:1008E00006040004000404041204000400040004CC
:1008F00000045104640000040004000444040004E3
:10090000000400040004650400043504810464004C
:10091000050400048304000400034948424D1817ED
:1009200025050200011916181616152303000C0ED2
:10093000020B040B0A0708000FF022F122F7220B2A
:10094000182C230718C71836000100060000000FF6
:100950000000000000000000000000000003FFFF96
:1009600000000403FFFF0000FFFF0FF4010005C4B7
:10097000040320000100000B000000000000000044
:1009800003010F00013636010100010201000103DD
:1009900001000104010606050200000701003408F9
:1009A00001000F090401010D0100FF0E08000017EE
:1009B000020000190100FF1A0100011B0100FE1CCA
:1009C0000100081D0200001F01000120010001219B
:1009D0000200002301000F2402000026010001276D
:1009E000010008280200FF2A0100072B0102402C09
:1009F0000100002D0100012E0100012F0100FF3038
:100A0000010B1C310800003A0100083B01000F2FC8
:100A1000010000DA27EF28EF28F022EF282010EA63
:100A200011EF28EF283B12EF280612EF28EF28EFEE
:100A300028EF28EF28EF28EF28EF28EF28EF28EFFE
:100A400028EF28EF289C197E19EF28EF28EF28EFD0
:100A500028EF285529F52C2E2D682AD42B3C2B0362
:100A60000003000400080010001F003E007B00F699
:100A700000EC01D703AF075D0FB91E713D00000008
:100A8000BE040A03EAF5E5D5D5C5B5A595958585D6
:100A90007575656555554545353525251515050487
:100AA000ECECDCCCCCBCACAC9C8C8C7C7C6C6C5C06
:100AB0005C4C4C4C3C3C2C2C1C0CFFFF0FFFC8002A
:100AC00000000001040303640006000000000000B1
:100AD000000000000000000000010000009F0A026A
:100AE00002A10A0100A20A0103A30A0204A50A0244
:100AF00005BE0A0406A70A01070000010000002B3A
:100B000000A80A0108A90A0109AA0A010AAB0A01F8
:100B10000BAC0A020CAE0A010DAF0A0F0EC20A019D
:100B20000FC30A0210C50A0711CC0A0121000008F0
:100B300000CD0A0222CF0A0223D10A0100D20A0103
:100B400000F582EB120FDAA2E22278081206870281
:100B50000BA0E82455F582E9340DF583221222A971
:100B6000E9120FDA22E5A4851882851983F0E5A53C
:100B7000C0E074011206A3D0E0F0E5A6C0E0740264
:100B80001206A3D0E0F074031206A3120BA5780896
:100B9000120669AA08AB09AC0AAD0B74041204B2C0
:100BA0007F0402031CE4F0EAA2E792AF8518828575
:100BB0001983229008F1123AE912117F22F582EF8F
:100BC000120FDAA2E522900962E0FA900947E022CA
:100BD000F0900947E0640F22A3A3E024F5C3941228
:100BE000221230039009671252AB7A147B0022C0A4
:100BF00082C0839008F1E07002A3E06006123AE23E
:100C000012C00A9008EE12197674089008F0F0905D
:100C100008F1E4F0A3F090093DF09008F3022D6C88
:100C200079031A1AEFFB121E45740222EE24020AFF
:100C30000AEF3400FB8A828B83120C3D22E024FFF2
:100C4000F8A3E034FFF92274F112020DEAFEEBFF83
:100C50008908740F1206A31220D074111206A31271
:100C60000CF6120C2C850F0D120D0FE50E120D1542
:100C7000E508120D01900961120CFE900960120C3A
:100C8000FE850B0D120D0FE50AF088098A828B8311
:100C9000E0C395098E828F83A3A3A3A312203012F1
:100CA0005BD78C828D83A3A3A3A3A3A3A3A3E06498
:100CB000037008EE240E120CE58006EE240E120CD2
:100CC000EE1219F77409F0750AFF750BFF780A1216
:100CD0000485120C201204B2E97007EEFAEFFB1241
:100CE000178F020E3EF582EF125A45740122F582EB
:100CF000EF125A45E422E0F50AA3E0F50B22122296
:100D0000AE120D0522F0E824FF18E934FFF922E5C0
:100D10000D88828983120D05888289832274F112DD
:100D2000020DEAFEEBFF890B8C0E8D0F750A00A2F7
:100D3000AFE492E0F50CC2AF9008F4803F120DFFD3
:100D40005037120E0A64037030EE24F9FEEF34FFC0
:100D5000FF850882850983A3A3E02405FCA3E03472
:100D600000FDEEFAEFFB12C5D2EE24FF1EEF34FFBA
:100D7000FF7410250AF50A150B120FA1125E3AE551
:100D80000B6008E5087002E50970B2E50CA2E0927C
:100D9000AFA2AFE492E0F50CC2AF9008F4801B2440
:100DA00002F8E509121A1F121642120E2212331E01
:100DB000120E22050A150B120FA11217737002E50D
:100DC000096025120E0A640270ED120DFFE508405D
:100DD000CE1217F6E509120BC050DC7401850E82A5
:100DE000850F83F0E50B70CFE50CA2E092AF8E8209
:100DF0008F83E50AF0EE24FFFAEF34FFFB803F1209
:100E000022A7E509120FDAA2E62285088285098366
:100E1000A3A312165E120E1922A3E01313543F541B
:100E20000322A3A3A3A3A3E08E828F83F0EE24FF6B
:100E30001EEF34FFFF22122F9E74041204B27F08AB
:100E400002031C74EE12020D74F61204FD89128A5C
:100E5000108B0FE4851882851983F09008FAE0C39F
:100E6000940840057511078003E0F511E51133334F
:100E70003354F8900946FAE02A2433F50A121C7418
:100E80007001EB7003020F7FEA250AF8EB3400F9DA
:100E9000EA24021222B4125BD7900946E0FCFAC39E
:100EA000E49AFAE49400FBE82AFEE93BFF90094447
:100EB000120F8D780C1204811280911204B28518E1
:100EC00082851983AC82AD83A911EE24FFFAEF3439
:100ED000FFFB120D1D8A0C8B0DAE0CAF0DE4120E34
:100EE00028E50FC454F0C0E090093EE0C433335409
:100EF000C0C0E090094012442713135480FAD0E098
:100F00004AFAD0E04A440F120E28E510C454F045C6
:100F1000128E828F83F0EEFA850A82850B83E0C3FE
:100F20009A850882850983A3A3A3A31222DAEEF08F
:100F3000A3EFF0E508240E126015E508240D1260F9
:100F40001574091206A3E4F0F50AF50B780A1204E9
:100F50008574031206A3121E2BAC82AD83AA08ABC4
:100F600009120C261204B2851882851983E06009E3
:100F7000850882850983120FAEAA08AB0980047A1E
:100F8000007B00740A1204B27F0B02031CE0F50C14
:100F9000A3E0F50D750E00227F0502031C120E1A48
:100FA00022E50824FBF582E50934FFF58322A3A39B
:100FB000120FF0D2E4F022A3A3A3E0FA888289837F
:100FC000227F0602031C7AF47B0812A7A574022272
:100FD000120FD422EE2410F582EF3400F583E022C4
:100FE000A2E7023D28122F9E740422A3120FF022C2
:100FF000121662E022EE240EF582EF125A452234D8
:10100000FFF50DEE240DF582EF120FDA22EE240D1E
:10101000F582EF120FDA640122E0FEA3E0FFEE2278
:1010200074F512020D74F71204FDEAFEEBFF1210C4
:10103000A7E9F508704CEE240E12100660447A0001
:101040007909121274EA7001EB603774081206A372
:1010500012109412038A7508FF7509FF78081204AC
:10106000858E828F83A3A3A3A3A3A3A3A3E0F97474
:10107000041206A3AC82AD83120C4774041204B2AE
:10108000800D8E828F83A3E5081212351211EA7447
:1010900009020B9D74021262F074FFF0A31210A1FA
:1010A00022121A33A3A32274F212020DEAFEEBFFFE
:1010B0007508008E828F83A3A3A3A3A3A3120BD8CA
:1010C00040037508E88E828F83A3A3A3A3A3A3A3E1
:1010D000A3A3A3E0C3941040057508E880138E8293
:1010E0008F83A3A3A3A3A3A3A3A3A3A3E0640F60DD
:1010F0000B90091AE0540870037508E88E828F83FC
:10110000A3A3A3A3A3A3A3A3A3A3E0C0E0EE240BE4
:10111000F582EF122409D0E0C39A5008E0640F6012
:10112000037508E8900960E064FF7004A3E064FFC1
:1011300070037508EC7A237B0012BF049008F1124B
:101140007B099008F1E07002A3E060258E828F8316
:10115000A3A3A982AA83890C8A0D750E00780C12AC
:1011600004817C237D00123AE21280971204B2803F
:101170000375081AA908800239FB7F0702031C7453
:10118000F812020DEAFEEBFF8E828F83A3A3A3A3C6
:10119000A3A3A3A3E0900947122A60900962F0EE8E
:1011A000240B121006900942121A2BA3A3A3A3A387
:1011B000A3E090093EF0F91233B5E0600CEE240490
:1011C0001219ECEE24061211DF740190093D120B86
:1011D000D0600474018001E49008F3F00223E9FA7E
:1011E000EF3400FB79E11226002274F812020DEAB6
:1011F000FEEBFF8E828F83A3E07003120BB3742C7F
:101200001223F00223E974F812020DEAFEEBFF90BC
:1012100008F1E07002A3E0600D123AE29008F1E4F8
:10122000F0A3F012C00A74088E828F831212351256
:101230006CD80223E9F0EEFAEFFB2274F712020DEC
:1012400090093DE060129008F3E0700C12125BEA26
:101250007001EB600312178F023FAF900942E0FB71
:10126000120BC6F9120E4322120FDA640222790819
:10127000121C172274F512020DE9FE24D1F582E446
:101280003407F583E493F508FA7B0012A571EA7040
:1012900001EB60121212D1125BD5E48A828B83A318
:1012A000A3A3A3F080287A027B0012A571EA700143
:1012B000EB6017EE24E7F582E43407F583E4938AC4
:1012C000828B83F0741AA31215087A007B00020B3C
:1012D000A0EA2508F8EB3400F98A828B8322E9FD25
:1012E000EAFC74062DFAECA2E0501EEA75F00A84BE
:1012F000ABF0EB6014740A2AC39BFAEBC39405406D
:1013000004740A2AFA740B2AFAEDC3941340047881
:101310001480027806E82AF8740928F8E43400F901
:101320007A0A7B0012012CE8F922C082C08374FE85
:101330001204FD8518828519831214441203540087
:101340000323144B13A5132314CA13900947E06415
:101350000F6018121B56E9701285188285198312C6
:101360003AE5900D791233221206AD90096FE0C074
:10137000E0851882851983123977D0E01262FC1259
:1013800079CE74141262FCFCA3E0FD7AF67B08129D
:10139000A6F4E5A8FAC2AF9008FC12143B7920121B
:1013A0001A3D02820090091CE0851882851983A3EA
:1013B00070111279D0740D1262FCFAA3E0FB126C6A
:1013C000D880DF1279D0741580BA12177D6054125C
:1013D000177D1412688F120FEBC0E08518828519F3
:1013E000831242A4D0E01262FC2402F8123F2624A9
:1013F000011282078882898312144414C39409500D
:1014000022851882851983124D9BA3A3E0240AC06C
:10141000E08518828519831279CFD0E01214480430
:10142000021384851882851983AA82AB83121DDC7E
:101430000213A2E5A8FAC2AF9008FBE004F0EAA20A
:10144000E792AF22EAF0A3EB126893A3A3A3A3E071
:1014500022121B56E96003792022790122C082C042
:101460008312602BE0D2E0022D6CC082C083121484
:10147000F612101370111214FD400C8A828B83A394
:10148000E0F9121A51806CEA1217F6EB121009A259
:10149000E650128A828B83A3E0F9900D7B123322EF
:1014A0001206AD804E1214F612101370091214FDBC
:1014B0005004743080368A828B83A3E0641B7004EE
:1014C000742280288A828B83A3E0700F1214F61294
:1014D000100924DCF582E43407800D1214F6121092
:1014E0000924E7F582E43407F583E4938A828B8349
:1014F000121508022D6DEA240DF582EB22EA12176F
:10150000F6EB120FDAA2E322F0900915E0F912A52A
:10151000F02274F812020DE9FE9008FDE07002A3BB
:10152000E0603EEE700612163FE48014741B6E708D
:10153000339008FD1222CEE0640570EA12163FEEE9
:10154000123F2AFB12146A9008FDE0240E12176D58
:1015500050031225449008FDE4F0A3F07910121A0C
:101560003D0223E974E96E60030216051264C4703B
:1015700038128227E9603212166F402D900969E017
:10158000C0E09008FDE02411123BABD0E0F09009E0
:1015900058E0C0E0121654A3A3D0E0F0900958E040
:1015A00004F07901123E2E80B81264C49008FD60E8
:1015B0004CE0240E1818181216769008FDE040141E
:1015C0002411123F2314F074019009C9F09009C34B
:1015D000E0F980D0240F123F25C2E7121789240DAD
:1015E000F8123F266403700C9008FDE02410123FAF
:1015F00023D2E2F01216471206AD02154712164228
:1016000074E902154074E16E7014128227E97003C8
:1016100002153C12166F500302153C02157C741C17
:101620006E600302153C9008FD123AE5900D8112A0
:1016300033221206AD9008FDE4F0A3F0021561908C
:1016400008FD12165EA3229008FD123AE9900D776C
:1016500012165E229008FD123AF512165E2212163C
:10166000622212166622E0F8A3E0F58388822290B7
:1016700008FDE0240EF81264CFA2E22274F51202F3
:101680000D750A00750B00A2AFE492E0FEC2AF90A8
:1016900008FDE07002A3E06008EEA2E092AF02173E
:1016A0004E900D7F1233221206ADE94410FA9008D5
:1016B000F4800985080A85090B120FA112177370AF
:1016C00002E50960D41217565A6A70E7780A1204C4
:1016D00085AC08AD09120FC61204B29008FDE508EA
:1016E000F0A3E50912178912176B40659008FBE01B
:1016F00014F0EEA2E092AF9008FDE0240E1818124C
:101700003ADCE8FEE9FF8E828F83E0FA9008FDE084
:10171000F8121783F91212DEE99008F8F0A3E41228
:101720004DC7A2E750189008FDE0241212175F126F
:1017300034819008FDE0241312175F1233DA900809
:10174000FD121764A2E1B3E492E0F9123E2E020BFF
:10175000A09008FA80991222A7E509120FDA221246
:1017600064CEF922E0240F1264CE2224101264CE3B
:10177000A2E722E0F508A3E0F509E5082285188232
:10178000851983124D9FA3E022F09008FDE022749A
:10179000F812020DEAFEEBFF121DC1EE1217F6EF72
:1017A000121502400912100D7004790280027905A9
:1017B000EEFCEFFD7AF47B0812A824E9602FEEFA24
:1017C000EFFB900D7D1233221206ADEE240EF58252
:1017D000EF120B44400812143312167C8014EEFAF8
:1017E000EFFB900D751233221206AD800574F112D5
:1017F00017FB0223E9E8240FF582228E828F83A350
:1018000012123512146A2212167C2274F812020D7A
:10181000EAFEEBFF790090091AE05402700DEE2405
:101820002FF582EF120B44500279E890091AE05428
:1018300060700CEE242F121006A2E1500279E88E9F
:10184000828F83A3A3A3A3E0C39475400279E8EE3B
:10185000242D1210067010EE242A1210067008793A
:10186000F5121A510223E9E970F7EE240D120CE586
:10187000F0EE242F121006C0E0120FF5D0E0F0EECB
:101880002430121006C0E0EE2412120FF8D0E0123D
:1018900022E2C0E0EE2413120FF8D0E0F0EE242B89
:1018A000120FF812038AEE2422FCEF3400FDEE241E
:1018B0002D121006F9120C261204B2E970A6EEFAE7
:1018C000EFFB12178F809DC082C083740D8A828BBC
:1018D00083F0126CD8022D6DC082C083E48A828BA3
:1018E00083F0A3F0EA242F120B4140119008FBE093
:1018F000C39402401179F1121A51022D6D9008FA29
:10190000E0C3940250EF121C8080EF74F412020DB9
:10191000890CEA24C9F582E43407F583E493244A68
:10192000FE890A250AFAE43400FB12A571EA700167
:10193000EB60158A828B83A3A3A3A3E50CF08E082A
:101940001212D1125BD580047A007B00020F98C07E
:1019500082C083E4900913F0900914F090090712F3
:1019600019767402900909F0900910121976740121
:10197000900912022D6C743DF0A3741AF02274F1D8
:1019800012020D122BBB1206697808790C12018D18
:10199000780812047D7A0A7B09020E3674F5120269
:1019A0000D74CE1204FD900947E0640F6007742E99
:1019B0001219DD80237A017B09120BE112013488B0
:1019C000088909750A00750B00780812047D7A01F0
:1019D0007B09120FE51204B27432020B9D85188246
:1019E000851983F0AA82AB83121B6B22FAEF3400B5
:1019F000FB795012260022F0EE240D125A422212D8
:101A000004B20223E974020219FFAA82AB8312A571
:101A100049851882851983AA82AB83126CD8223437
:101A200000F9E8FAE9FB8A828B8322121A2F22122C
:101A30001A3322F08E828F83A3A3A3A32274F812F9
:101A4000020DE9FA7B00900915E0F912A871022352
:101A5000E974F512020D74F01204FDE9FE8A828B1E
:101A600083E0242EF582E43409F583E493C0E07426
:101A7000011206A3D0E0F0640B700DEE8A828B8316
:101A8000A3F012232C021B51E07003021B51640CC3
:101A90006003021B3E74041206A3127B09EA242E83
:101AA000F582EB121009C0E074031206A3D0E01215
:101AB0002030A3A3A3A3A378081206697406120614
:101AC000A378081206878A828B83125DFF740A123C
:101AD00006A3125BD7EA240EF582EB121009A2E4EA
:101AE0005003E4800E1279C8EB121009FC900969CA
:101AF000E0C39C851882851983F0E0C0E0740C1265
:101B000006A3D0E0F0EA2414F582EB121009C0E03D
:101B1000740D1206A3D0E0F0EA2415F582EB121042
:101B200009C0E0740E1206A3D0E0F0EA2416F58294
:101B3000EB121009C0E0740F1206A3D0E0F074029B
:101B40001206A3EEF074011206A3AA82AB83126CF4
:101B5000D87410020B9DC082C08390091CE06403FE
:101B60007004790180027900022D6D74F712020D64
:101B700090091C121C0E2483F582E9340DF58312A2
:101B8000604DE0C2E7F0C333FCE82CF582E9120FA8
:101B9000FBA3E493FEC333FCE433FDEC2483F58222
:101BA000ED340DF583E07002A3E06005EE90091CB2
:101BB000F08A828B83E0C333FCE433FDE82CF582AA
:101BC000E93DF583E493F508C4540FC333242BF5A2
:101BD00082E43409F5831227C57001E970118A8205
:101BE0008B83E0C3940B50237918121A51801C7414
:101BF0000F5508C333FCE82CF582E9120CF193C0B1
:101C0000E0740193F583D0821206AD023FAFE0C3CA
:101C100033F8E433F9E82274F112020D74FE120471
:101C2000FD890FEAFEEBFF121C89121C747001EB98
:101C300060328A828B83E50FF0E4A3F08E0C8F0D67
:101C4000F50E780C120481850F0AE50A121C96EA3B
:101C500024020A0AEB1260221204B2AA08AB09128B
:101C60001C80800B851882851983E50F121CA574D2
:101C700002020E3BFA7B0012A5718A088B09EA2248
:101C8000900915E0F912A5F022E92418F582E43450
:101C900009F583E493222423F582E43409F583E4EF
:101CA00093FC7D0022F0791AAA82AB83121A51228A
:101CB000C082C083E9900915022D6C74F712020DE1
:101CC00074FE1204FDEAFEEBFFEE54207031803CFE
:101CD000E5A8FCC2AF9008FCE01412343D8A828B68
:101CE00083121DA5900918127B09121B6B8518829F
:101CF000851983E0641560077A187B09121DDC7A68
:101D0000F67B0812A74EEA7001EB70C474805FF98D
:101D1000E47001E970058011121DAE900915E0F91B
:101D200012A64FEA7001EB70EFEE54106005742DAF
:101D30001219DDEEA2E0500574241219DDEE5402F2
:101D4000600574251219DDEE54046005742612191D
:101D5000DDEE5408600574281219DDEE5440600C65
:101D600074011206A3E4F0742C1219DDEE548060A5
:101D70000C74011206A3E4F0742F1219DD900916F9
:101D8000E07002A3E06017E5A8FCC2AF900916124C
:101D90003AE5900916E4F0A312343D121DAE7A0024
:101DA0007B00023FAAE0851882851983F022900902
:101DB00018EAF0A3EBF0121B6B7A187B09121DDCFA
:101DC00022C082C083900918122F0C687002EB6940
:101DD0007007900918E4F0A3F0022D6D74F8120258
:101DE0000DA2AFE492E0F508C2AF8A828B83E07067
:101DF00002A3E060338A828B8312581EEC24FBF826
:101E0000ED34FFF9900918123328EC6E7002ED6F73
:101E10007007900918E4F0A3F08A828B83E4F0A3A2
:101E2000F0E8FAE9FB12C00A023D24C082C08390A8
:101E30000960C3E094FEA3E094FF400479038002AC
:101E40007902022D6D74EB12020DEAFEEBFF8C108D
:101E50008D1174151206A31220D07508008C828D86
:101E600083A3A3A3A3A3A3A3A3E0F512E9A2E7502E
:101E700008750AFF750BFF800690095C120CF6E9E5
:101E8000C2E7F513EE240E120BBDEE5009240F121B
:101E90000FF874088005240F120CEE122036A2E20F
:101EA000EE5007125A3C74808005125A3C7410128E
:101EB0002036A2E45008EE2411120CEE800E900998
:101EC00069E0C0E0EE2411120FF8D0E0122036A233
:101ED000E050037508208E828F83A3A3E024FFF5D2
:101EE0000CA3E0120FFFC39402E040061412203F3F
:101EF00074034508F508851314751500740E7814DD
:101F00001205A3E515F509740265137011900961B6
:101F100012203E900960122027122023801974039A
:101F20006513700F1220167C707D09AA0CFB12C578
:101F3000D280E6E5136028E5126014E50E650A70AC
:101F400004E50F650B700874404508F5088010859E
:101F50000C82850D83E50B12205BE50A1220458576
:101F6000120A750B00740A780A1205A3E50B4509DD
:101F7000F509740265127018851082851183A31209
:101F8000203E85108285118312202712202380197C
:101F900074036512700F122016AC10AD11AA0CFB61
:101FA00012C5D280E6E5126010850C82850D83E5AE
:101FB0000F12205BE50E122045A80CA90DE824FFA6
:101FC000F50CE9120FFF700590094C800390095839
:101FD000E0FA04F0EA88828983F0850C82850D831B
:101FE000E50912205BE508F0EE2404F8EF3400F96F
:101FF000EE2402FAEF3400FBAC0C8A828B831222AF
:10200000AEFDE02DC39C122030ECF0A3E50DF0797D
:10201000007F0E02031CE50C24F9F50CE50D34FFDE
:10202000F50D2212204E22E0850C82850D83F022D0
:10203000F08A828B8322F0EE240E120FD722E085E5
:102040000C82850D8312204922F012204E22E50CCD
:1020500024FFF50CE50D34FFF50D22122049850C07
:1020600082F5832274EF12020D890A8A0C8C088D86
:10207000098B0B74111206A31220D0AA0B12127432
:102080008A108B11A810A911E8FEE9FFE87001E998
:102090006039120FF5E50B1219F7E50AF0780E1208
:1020A0000485AC08AD09A90C120C261204B2E97023
:1020B0001AE50A1203540701C420BE20BE20120FE5
:1020C000D0D2E5F0EEFAEFFB12178F7F0A02031C65
:1020D000E0F50EA3E0F50F2274EF12020D8A088BD3
:1020E00009ECFEEDFF74058A828B831222E28A825C
:1020F0008B83A3A3F0EA24031222B4E0F510A3E03B
:10210000F511EE2424120FF8780C120669E510126E
:1021100079C9E511120FFB12782C125292AA10AB5A
:102120001112C552850A82850B83122400FAA3E09E
:10213000FB88828983A3A3A3A3A3A3A3A3A3127B46
:1021400009EE242E121006C0E0E81222A9E9120FAF
:10215000FBD0E01222D5123BA9E41222D5240E12A4
:1021600039717C0BFDF9850A82850B83E0241612F8
:10217000820712A5498E828F83A3A3A3A3A3A3E002
:10218000C0E0850A82850B831222CED0E01222EABB
:10219000FAA3E0FB850A82850B831227C5240BFC7A
:1021A000E93400FD8A828B83E08C828D83F0A3E486
:1021B00012479EE0F50B8C828D83E0F0A3E0450B87
:1021C0001223FBFCA30A0AAB83A2E7E492E0C0E07F
:1021D0001217F5E9120FFBD0E0F074075C60047889
:1021E000018002780075F00374075CA428F8EA28DF
:1021F000FAEB3400FBE5082405F8E5091212D612C3
:1022000022AE12479E850882850983A3A3A3A3A3B8
:10221000A3EA125E42F50CF50A7407550AC333FCB3
:102220007470550CC430E30244F0F50A3395E0F5C0
:102230000B7403780A1205A3E50A2CF8E50B3400A9
:10224000F9EA28F8EB39F9850882850983125BCE13
:102250008E828F831222C1128205C3EA98EB9940C5
:10226000278E828F83A3A3E0F8850882850983A344
:10227000A3A3A3A31222C1A3A3E0C39A2885088223
:10228000850983A3A3A38016E4850882850983A317
:10229000A3A3A3A3A3A3A3F0850882850983A3A373
:1022A000A3A3A3F00220CBE5082410F58222E08846
:1022B00082898322F50AEB3400F50B850A82F583C7
:1022C00022A3A3A3A3E0FA8E828F83A3A322E024F8
:1022D0000D12535F221222DAE022F0850A82850B6A
:1022E0008322F0EE2431120FD722125BC3A3E02227
:1022F000227919121A512274F812020DEAFEEBFF2C
:10230000900916E07002A3E06010900916123AE5F9
:102310001222F17A167B09121DDCEEFAEFFB121D78
:10232000C1900916EEF0A3EFF00223E974F812024F
:102330000D74DE1204FDEAFEEBFF8E828F83E01245
:1023400003B7011E1F8F2303035323058F23185345
:1023500023982374161206A3E41223CD740B1206DD
:10236000A3AA82AB8312C5D274131206A3740312FC
:10237000255574021206A3125BD7740A1206A374C1
:10238000021223C574141206A3E8F0A3E9801074A6
:10239000161206A3740180C174161206A37402F00B
:1023A000740B851882851983125BBFE0C0E074014D
:1023B0001206A3D0E01223DB74171206A3121A0A26
:1023C00074220219FFF090095C1252AB22F0122322
:1023D000D222EE2417FCEF3400FD22F07C0B7D00AE
:1023E0007900221257921289387F0102031C742946
:1023F0008E828F83121235121B6B221247A6E022A7
:10240000123041242A120FD722120FDAFA2274F75F
:1024100012020D74FE1204FDE9FEA2AFE492E0FF89
:10242000C2AFEE601C9009477C3F7D09743C1203EB
:10243000E11233AAE9900958F01233AAE990094C45
:10244000F0900D95E07015123CECE49009AEF09020
:1024500009BCF012685D1234E512350453A7EF127F
:1024600030CC123DA912254490093EE0F91233B553
:102470001227CA122555E8906174F0E9123E1C75C6
:102480000800E508C333F8E433F9122539E0700297
:10249000A3E060091225391233221206AD0508E5C2
:1024A00008C3940740DC900916E07002A3E06007BF
:1024B0007A167B09121DDCE490091CF09007FDE000
:1024C0007002A3E0601E800D851882851983AA82A0
:1024D000AB83121DDC90091512686E125BD7E87091
:1024E00001E970E4E490097BF080077AF47B08123C
:1024F000255D9008F4E07002A3E070EF9008F6E02C
:102500007002A3E060097AF67B0812255D80ED90E9
:1025100008F4E4F0A3F09008FAF09008FBF09008BB
:10252000FCF090093EF07A5F7B097952122600EFA9
:10253000A2E092AF7900023FAAE8241DF582E934B7
:1025400009F5832290096FE0F912348190096EE059
:10255000F91233DA22F09009601252AB2212A74E20
:10256000851882851983EAF0A3EB12639B121DDCA8
:1025700022F090091AE4F0A3F012332E022D6DE937
:10258000FA74C02AC3941E500574C02AF92274201C
:102590002AC394065005743E2AF92279242274F441
:1025A00012020DEAFEEBFF12257FE9F5087424659F
:1025B00008700479F48046E5A8F50CC2AF750900EF
:1025C000740278081205A3E5082483FAE5093409A2
:1025D000FB8A828B83E493243FF508E43409F509F0
:1025E000750A0078081204818A828B83A3E493120F
:1025F00080901204B2E50CA2E792AF7900020F9826
:1026000074F212020D8908EAFEEBFF74456508704A
:102610000B900944EEF0A3EFF002279C12257FE90E
:10262000FA8A0974246A700579F402279E890A756A
:102630000B007402780A1205A31227B07014890ADD
:10264000750B007402780A1205A31227A170030209
:1026500026DF890A750B007402780A1205A3E50AC1
:102660002483FAE50B3409FB8A828B83A3A3E493CA
:10267000FC8A828B83A3A3A3E4936C700579FB028D
:10268000279E74586508701B8E828F83E02471F832
:10269000A3E034FFF9C3E89422E99464400579E8A3
:1026A00002279E8E828F83E0C0E085090A750B00A9
:1026B0007402780A1205A31227B0FAD0E0C39A4038
:1026C000DD85090A750B007402780A1205A312272A
:1026D000A1C0E08E828F83E0FAD0E0C39A40BFE5CC
:1026E000A8F50AC2AF85090C750D007402780C12AA
:1026F00005A3E50C2483F8E50D3409F9E8FAE9FBB4
:102700008E0C8F0D750E00780C1204818A828B83DB
:10271000A3E493FC7D008A828B83E493243FFAE454
:1027200034091280961204B2E50AA2E792AFE508D6
:102730001203B70007504C27526227535227E08DEF
:1027400027E17427E27E27E594279C271227CA02F7
:1027500026189009601227C5906174F0E9906175A0
:1027600080ED90095FE079026005123CAD802D128A
:102770003CCB802890096FE0F9123481801E7908E3
:102780007C707D097A6A7B61124774800F90096EB4
:10279000E0F404F090096EE0F91233DA79000211E6
:1027A0007AE50A2486F582E50B3409F583E4932261
:1027B000E50A2485F582E50B3409F583E493228E3E
:1027C000828F83A3A31252ABE82290095C1252AB12
:1027D000E8906172F0E9906173222274F812020DA0
:1027E000E9FE90097BE06E700479008034E0702F80
:1027F00090091CE0600464027025A2AFE492E0FF3F
:10280000C2AF9009ADE070129009AFE0700C900972
:10281000C2E070069009C1E0600AEFA2E092AF79D1
:10282000E20223E9123D77EE900D95F0EFA2E092DF
:10283000AF5394FEE594A2E240FA74016E600790F3
:1028400061A5E0C2E2F0EE90097BF0809CC082C0FE
:102850008390097BE06005123DA9E4F0022D6DC074
:1028600082C08390092B7439F0A37409022571C0CA
:1028700082C08390092D7413F0A3740AF09009317B
:10288000742DF0A3740AF09009337449F0A3740A0C
:102890001228ABF0A3E01228A0F01228BD022D6D83
:1028A000F090092F7453F0A3740A22F090091D745C
:1028B0004FF0A37419F090091AE0440122C082C0BD
:1028C00083900935741DF0A3740AF09009377421C0
:1028D000F0A3740A1228DA022D62F0900D8B74B600
:1028E000F0A37408F090091F74EFF0A3740B222278
:1028F00074F512020D74078A828B831229451247E0
:1029000098A3A3122945A3A3124798A3A3A312290E
:102910004FA3A378081206698A828B83A3A3A3A37B
:102920007808120687E48A828B83A3A3A3A3A3A3B8
:10293000A3A3F0EC2415F582ED120FFB12604D12EB
:102940005BCE020BA012294FA3A3A3A3A3A322F043
:102950008C828D832274F512020DEAFEEBFFE49067
:10296000097D124DCCC39404400674E890097DF0B3
:102970008E828F83A3A3A3A3A3A3A3E0C3940F403A
:10298000158E828F83A3A3A3A3A3A3E06403601582
:1029900074E890097DF08E828F83A3A3A3A3A3A3E1
:1029A000E06403700E90091AE0A2E0400674E8901B
:1029B000097DF0EEFCEFFD7A7C7B091228F08E8217
:1029C0008F83A3A37808120669740A78081204CCCE
:1029D00090099078081206878E828F83A3A3A3A301
:1029E000A3A3A3E0900994122A60900995F0740AB9
:1029F000900996F090096FE0900997F090098D1278
:102A00001976740490098FF090097DE07041900967
:102A10007EE0600674EA90097DF090097EE0FA702D
:102A20000774019009AE801874036A7004740380FF
:102A3000F274029009AEF074FF906172F0906173CD
:102A4000F074268E828F83F07904123CAD80077477
:102A5000298E828F83F0EEFAEFFB121B6B020BA024
:102A60001210A1A3A3A3E02274F512020D74F712B1
:102A700004FDEAFEEBFF90097EE0702B900996E0E2
:102A8000640A6023123504E9C0E0E0F8900985E0AB
:102A900028123ADB74F528F58274FF39F583D0E00B
:102AA000F0900984E004F0900990780812066974A7
:102AB0000178081204CC90099078081206879009D2
:102AC00096E004F0E508A2E04006E0C3941D40D77C
:102AD000E0641D605B7A967B0979E112260090091B
:102AE0007EE0600464027009EEFAEFFB122B3C807A
:102AF0004274081206A374021262EC74FFF0A3F091
:102B000090097EE06401700679087A808004790774
:102B10007A837508FF7509FF78081204857B0074B5
:102B2000021206A3AC82AD83122B361204B28003CC
:102B30001223EE02108F12206474022274F112022A
:102B40000D750801750900750A00750B009009964E
:102B5000E078081204247808120649900980780861
:102B600012061590097EE06403700F122BBB12064B
:102B7000697808790C12018D803575080175090096
:102B8000750A00750B00900994E0780812042490EF
:102B90000CFC7808120590900DB0780C120669783C
:102BA00008790C12018D90097EE070031234F478DC
:102BB0000812047D7A877B09020E3690096A122B6F
:102BC000CD750A00750B00900DB0780C22E0F50869
:102BD0007509002274F212020D74D41204FDEAFE8B
:102BE000EBFF90097EE064026008E064016003028C
:102BF0002CD6E490097DF0740B1206A3A882A98359
:102C000074031206A3122CDE900995E07003022CC7
:102C1000A0900984E0C0E0900995E0FAD0E0C39A62
:102C2000507E900985125E3A900984E0F50A80335F
:102C3000850882850983125DFF74141206A3E0687B
:102C40007003A3E0696013740B1206A3AC82AD831A
:102C5000AA08AB0912C4E1E96013150AE5082421AA
:102C60001271EBE50A70C9900984E07033740B129D
:102C700006A3A982AA83890C8A0D750E00780C120E
:102C800004817C217D00900984E08CF0A4F8A9F0F7
:102C9000E50828FAE509391280961204B2E004F03A
:102CA000900941E0600E74081206A3E070069009D6
:102CB00095E0700D851882851983AA82AB83126C0A
:102CC000D8900995E0600F900984E0FA900995E0AA
:102CD0006A70031223EE742C1204B202117AE8F027
:102CE000A3E9F0EEFCEFFD851882851983AA82AB7B
:102CF000831220D822C082C08390097DE064E860FE
:102D0000267A877B091230031234E57904123CCB12
:102D100090097EE06403700690097DE060097A976F
:102D20007B0979E11226007A7C7B090218D2C082E5
:102D3000C08374F51204FDEAFCEBFD851882851949
:102D400083AA82AB831228F074011206A374FC12CA
:102D50002D56740B800712639B126CD8221204B29A
:102D6000800BF090091AE04402F0A3E0F0D083D089
:102D700082227907121C172274F112020D90099C0D
:102D8000E4F0A3F0900998E07002A3E060379009A6
:102D900098123AF1C082C083900D8D7808120669AE
:102DA000D083D0827808120553501A122E84122E26
:102DB000971205535006122E971206879009981203
:102DC0002E90125BD790099AE07002A3E090099CC4
:102DD0006030E07002A3E0601E90099A123AF1C0E0
:102DE00082C08390099C122E9A120669D083D082E9
:102DF0007808120553501290099A122E90125BD740
:102E00008007E07002A3E06075123AEEC082C083D2
:102E1000900D8D7808120669D083D082780812054B
:102E200053505B90099C122E9A120669A2AFE4924D
:102E3000E0FEC2AF9009A4780812068712318478A8
:102E400008790C120639500874029009A8F0801C09
:102E5000900CF8780812053E700474038002740523
:102E60009009A8F09009A07808120669AA08AB0991
:102E7000AC0AAD0B1244DBEEA2E092AF800312313C
:102E800062020E3E1231348A088B098C0A8D0B22A5
:102E90001252AB90099C22900998123AF5780822B8
:102EA00074F112020D8A088B098C0A8D0B740F12B3
:102EB00006A3804C8A828B83A3A378081205EF9027
:102EC000099C122F0C687002EB6970308A828B8328
:102ED000A3A3C082C083900CF8780C120669D0833B
:102EE000D082780C1205535013900CF8780C12060F
:102EF000698A828B83A3A3780C1206878A828B83CC
:102F0000123AE5EA7001EB70AB020E3E1252ABEAE8
:102F10002274F112020DEAFEEBFFA2AFE492E0F59B
:102F20000CC2AFECFAEDFB8C828D838008AA0EAB4D
:102F30000F8A828B831220D0E50E7002E50F60228B
:102F40008E828F83A3A3C082C083850E82850F8368
:102F5000A3A37808120669D083D08278081205539B
:102F600050CB8A828B83EEF0A3EF125BC8E50EF0A4
:102F7000A3E50F12294F12303D687002EF6970030C
:102F8000122D78E50CA2E092AF020E3EEEFAEFFBB6
:102F9000122F11020E3E1230AB7808790C2274F118
:102FA00012020DEAFEEBFF740F1206A37808120658
:102FB00069122F961205C98E828F83A3A3780812F7
:102FC00006877C987D0980C474F812020DECF8ED38
:102FD000F98C828D838004A882A98312581E8C826A
:102FE0008D83E5827002E5836014EA65827003EBED
:102FF000658370E3123AE5127B057901800279005E
:103000000223E974F812020DEAFEEBFFA2AFE4928C
:10301000E0F508C2AF7C987D09122FC8E9700B7CDF
:103020009A7D09EEFAEFFB122FC890099C12303DF1
:10303000687002EF697003122D78023D241230414E
:1030400022E0F8A3E0F9EE2274F112020D90099843
:10305000E07002A3E0700A90099AE07002A3E060B9
:103060003BE5A8FEC2AF9009A478081206691230A9
:10307000A7EEA2E792AF900CFC780C1205907808AE
:10308000790C12063950117808790C12057CAA08BF
:10309000AB09AC0AAD0B800C7A0180027A007B0090
:1030A0007C007D00020E3E1230AB221231348A0CBD
:1030B0008B0D8C0E8D0F22C082C08390099FE0641F
:1030C00001700479FE800279FF022D6D74F5120201
:1030D0000D74019009A8F0900CF87808120669AAFE
:1030E00008AB09AC0AAD0B124489900DB4780812F4
:1030F0000669AA08AB09AC0AAD0B12310F75A1EF36
:10310000439401E594A2E250FA43A710020BA07485
:10311000F512020D8A088B098C0A8D0BE5A8FEC2F8
:10312000AF9009A078081206871244DBEEA2E7925E
:10313000AF020BA074F112020DE5A8FEC2AF12455A
:10314000F4EEA2E792AF9009A0780C120669780C11
:10315000790812063940087A007B007C007D000265
:103160000E3E74F512020DE5A8FEC2AF740190097F
:10317000A8F09009A07808120669AA08AB09AC0A61
:10318000AD0B80A512445D8A0C8B0D8C0E8D0F2229
:103190007F0C02031C74F112020DA2AFE492E0F561
:1031A00008C2AF9009A8E0F509A2E0400302327915
:1031B000900CF8780C120669AA0CAB0DAC0EAD0F92
:1031C000124489A2AFE492E0F50AC2AF90099A12C4
:1031D000332890099812038A900D8D780C12066995
:1031E000780C120628AA0CAB0DAC0EAD0F122EA057
:1031F00074021204B280378E828F83A3A3C082C070
:1032000083900D8D780C120669D083D082780C12D1
:1032100005534013900D8D780C1206698E828F83B2
:10322000A3A3780C1205688E828F83123328EE7068
:1032300001EF70C3900D8DC082900D91780C120635
:103240006975830DD082780C12053E6023900D9134
:10325000780C120669900D8D780C120687900D8DF2
:10326000780C120669AA0CAB0DAC0EAD0F12310F23
:10327000122D78E50AA2E092AFE509A2E1506B7445
:10328000019009A8F09009A0780C120669AA0CAB6D
:103290000DAC0EAD0F1244DBE508A2E092AF900931
:1032A0009CE07002A3E0606790099CE07002A3E0DC
:1032B000605D122E84123AEE780C120669780C7951
:1032C00008120639404990099C121019FAEFFB12B6
:1032D0003312A3A3A3A3E0F98E828F83A3A3A3A396
:1032E000A3A31233221206AD80BE740565097019BE
:1032F00074029009A8F09009A4780C120669AA0C2F
:10330000AB0DAC0EAD0F1244DBE508A2E092AF02AC
:103310000E3E1230038E828F83A3A3A3A3228A8240
:103320008B8312165E22A3A3E0FEA3E0FF22C082DD
:10333000C0831242B37C00ECC333F8E433F9E824D1
:103340005FF582E9340AF583E493FA740193FB1282
:103350000B52127B090CECC3941040DB740B9009E8
:10336000ABF09009AAF074329009ACF09009A9F082
:10337000E49009C1F09009C0F09009AEF09009BC4A
:10338000F09009B2F0A3F09009AD1235CB12398D4F
:103390009009BDF09009BEF09009BFF09009C2F00D
:1033A0009009C9F01230CC022D6D74F355B4440469
:1033B000F5B4A9BD22C082C083906180E0FAE960C3
:1033C00004D2F08002C2F0A2F0E492E0C333C0E085
:1033D00074FD5AFAD0E04A022D6C74F812020DE91D
:1033E000FE907803E064957006789F790A800478EF
:1033F00083790A88828983E493C39EA2D265D033FD
:103400004013A3E493FAEEC39AA2D265D0335008D6
:1034100088828983A3E493FEE5A8FCC2AF888289F1
:1034200083E493C39E2402FAE82AF582E9120CF1A0
:10343000939009AC12343D1234440223E9F0ECA21B
:10344000E792AF22C082C083A2AFE492E0FBC2AF9A
:103450009009ACE0FA9009A9E06A601A9009AFE01F
:1034600070149009C2E0A2E7400C9009ACE090090A
:10347000A9F0906190F0EB8001EAA2E092AF022DFA
:103480006D74F812020DE9FEA2AFE492E0FFC2AF44
:10349000EE9009ABF09009C2E070031234A2EF0283
:1034A0003D26C082C083A2AFE492E0FBC2AF900988
:1034B000ABE0FA9009AAE06A60239009ABE09009BA
:1034C000AAF0EBA2E092AF123D7775F005E0A424DC
:1034D000D490618FF0123556123D0B8005EBA2E0BF
:1034E00092AF022D6DC082C083E49009AEF0123E0F
:1034F0000C022D6CC082C08374809009CBF043A76E
:1035000001022D6DC082C08353A7FE9009CBE02439
:10351000B7F9123518022D6DE9FCC394AFA2D2653C
:10352000D03350047CAF800DECC3940BA2D265D095
:103530003340027C0AECF83395E0F9745128F8E442
:1035400039F9E875F0FFA4F8AAF075F0FFE9A42AAC
:10355000F97A5B021322C082C08374019009BEF025
:103560009009BDE07008123571E49009BEF0022D9B
:103570006DC082C0839061A4127BAD74059061948C
:10358000F075E1ED75E1EDE5A8C2AF759B0075E959
:10359000FBA2E792AF9009B2E07002A3E060077A65
:1035A000B27B09121DDC9009B2E4F0A31235CBF016
:1035B0009009ADE070069009AFE0600CE49009ADB1
:1035C000F09009AFF0123C01022D6D1235CF22F0C0
:1035D0009009B074DAF0A374352274F512020D74F8
:1035E000FE1204FD74819009ADF09009C0E0600DF9
:1035F000906193E0A2E74010E0A2E6400BE490095E
:10360000ADF0123C0102395E9061E4E07017906108
:10361000A4E0A2E4500FE0C2E4F0E0A2E350031201
:10362000424012404F1239879009AEE09009BBF03A
:1036300079047AB47B091247AD9009B4E0547F2431
:10364000FD9009B8F09009CAE070209009B8E0C375
:10365000947D500B9009B5E05407C39404400C7559
:10366000E1ED75E1ED123BD902395E9009B5E05408
:10367000076402600302373D9009BCE06003023733
:103680003D7902851882851983AA82AB831247ADE2
:10369000A2AFE492E0FFC2AF9009C2E0648660038B
:1036A000023735851882851983E024B7FE7401122C
:1036B00006A3E0547FF508EEF9123518E9C0E09052
:1036C00008FDE02414123BABD0E0121789123BA98D
:1036D000E5081217892416123BAFF0EFA2E092AF73
:1036E00074011206A3E0A2E750469009B5E0541019
:1036F000FE9009B7E0FFA2AFE492E0F508C2AF90F8
:1037000009C2E0648670257487F012422CE508A295
:10371000E092AF9009C7E06F700EEE6007791B1260
:1037200040BC8016790080F779E980F3E5088006CF
:1037300012408D8005EFA2E092AF0236659009C27B
:10374000E06486700312408D9009BBE0602490090C
:10375000BCE0701E9009BBE064017003023811E008
:10376000640260030237FC9009B5E054076003026D
:1037700038119009B6E0FA1313543F5403F50BEADD
:10378000C413135403F50A9009CAE070127401655A
:103790000A700302365F7401650B700302365F85A1
:1037A0000A08123963C0E0850B08123963FAD0E0C9
:1037B0002AFEE50A600A9009B5E0A2E650021E1E44
:1037C0009009B8E0FA8E0874022508127803404187
:1037D000E0C39E24FE9009BAF09008FCE0C3940276
:1037E00050359009BAE0F8743228FAE43400FB123C
:1037F000A5718A088B09A808A909801FE0640360E5
:10380000030237729009B5E054076403700302376E
:1038100072123C2A02395E780079009009B2123B9C
:10382000CF7002A3E0700575E1E880E57F009009A4
:10383000BCE0700A9009B5E054209009AFF09009FF
:10384000AFE06068A2AFE492E0F508C2AF9009B5BE
:10385000E054076403703990091AE054026019902B
:1038600008FAE070219008FDE07002A3E060099082
:1038700008FDE012176B400E90099EE060121230B6
:10388000B7E964FE700A7F0490618AE0D2E28006A4
:1038900090618AE0C2E2123E037591FEA2E792AF08
:1038A0009061A4126860E508A2E092AF9009B2E0CE
:1038B000123BB4125BD59009BAE0C0E09009B21295
:1038C0003AF1A3A3D0E0123BD3241A123BABE50A92
:1038D000123BD32423123BABE50BF0124298900924
:1038E000B2E02424123BAB780812068712444290BF
:1038F00009B2E02428127AFF9009B5E05407C0E02D
:103900009009B21242A4D0E0F09009B7E0C0E09074
:1039100009B2E02431123BABD0E0F09009B5E0549D
:1039200078C0E09009B6E0C4540F5403FAD0E04ADE
:103930004FC0E09009B2123977D0E0123BD3240F88
:10394000123971EE7005123A6080139009B9F014C3
:10395000906194F09009B07494F0A37439F07402FB
:10396000020B9DE508247FF582E4340AF583E49395
:103970002212535FE4F02212397B2212397F221285
:103980003AFDA3A3A3A3229061A4E0C2E0F0E490D7
:1039900009AFF02274F812020D74EC1204FD123C0F
:1039A0008DAC82AD839009B6120F9DFE60659009C3
:1039B000B2E0242C123ADB851882851983E0FC746E
:1039C000011206A3E0FBEC88828983125E42FA9022
:1039D00009B2E0242A127AFF74036E701674021280
:1039E00006A3AC82AD839009B2E0241B1255527439
:1039F0000A801974021206A3E0FA74031206A3E007
:103A0000FB9009B2E0241B127AFF74041206A3ACE7
:103A100082AD839009B6125E10FE6030123BC7A2E1
:103A2000E64011123A54242A127AFFEC24020C0CBC
:103A3000ED3400FD74036E700B9009B2E024121295
:103A400055528008123A542412127AFF123A6074C6
:103A5000140219FF8C828D83123AE99009B2E02298
:103A60009009B0749FF0A3743AF0123A6E22C082AB
:103A7000C0839009BAE070117401906194F09009CC
:103A8000B07403F0A3743B8013C394105003E08020
:103A90000274109009B9F0E014906194022D6CC08A
:103AA00082C0839009B9E0F99009B2123AF1123A52
:103AB000E51247AD9009B2E02402123ADB9009B951
:103AC000120FBA128205127B059009B9E0FA90092B
:103AD000BAE0C39AF0123A6E022D6DF8A3E03400FA
:103AE000F9229008F1123AE922123F32FB229009A2
:103AF0009C123AF522123AF922123AFD2212166667
:103B0000A3A32274F712020D7F0079027AB47B0915
:103B10001247AD9009B5E05480F50870089009BCD3
:103B2000E06402706D74029009ADF0123D2D9009B1
:103B3000B4E024B7FE9009B5E0547FF50990099EE2
:103B4000E0601090099FE07008906163E0A2E65089
:103B5000027F04EF4508FA123BC74AF0EEF912352E
:103B600018E9C0E09009B2128218D0E0123BD324C9
:103B700030123BAF123BD3242F123BABE509123B73
:103B8000D3123BB4A3A3123BCFFAA3E0FB12132A38
:103B9000800A1239877AB27B09121DDC9009B2E4DF
:103BA000F0A3F0123CA0023FAF241512535F221283
:103BB000535FEE222432F8A3E03400F99009B212E8
:103BC0003F32F5838A82229009B212397BE022E8E3
:103BD000F0A3E9F09009B2E022C082C08390619323
:103BE000E0A2E6500BE0A2E7400675E1ED75E1EDDD
:103BF000E49009ADF09009AFE07003123C01022D92
:103C00006DC082C083123D2D123444A2AFE492E015
:103C1000FAC2AF9009C2E0640270077483123F37A2
:103C20008005EAA2E092AF022D6DC082C0839009A8
:103C3000B8E07005123BD9801EC394105003E08099
:103C40000274109009B9F0E014906194F09009B0FA
:103C5000745AF0A3743CF0022D6DC082C08374F0DE
:103C60001204FD123C8D9009B9E0FA9009B8E0C346
:103C70009AF06011C39410500FE09009B9F01490BD
:103C80006194F08003123CA07410022D5D9009B97C
:103C9000E0F9851882851983AA82AB831247AD2289
:103CA00074059061941235CFF0123BD92274F8124A
:103CB000020DE9FEE5A8FFC2AF9009C1E04EF01287
:103CC0003D5CEF020FE0A2E702347C74F812020DB3
:103CD000E9FEE5A8FBC2AF74FF6EFA9009C1E05A95
:103CE000F0EBA2E792AF123D2D0223E9C082C08320
:103CF000E5A8FAC2AFE49009C1F09009C0123D9E58
:103D0000EAA2E792AF123556022D6D74F812020D39
:103D1000A2AFE492E0FEC2AF9009C1E06003123DA1
:103D20005CEE8002E508A2E092AF0223E974F8128B
:103D3000020DA2AFE492E0FEC2AF9009C1E070199B
:103D40009009ADE0A2E740119009AFE0700B900937
:103D5000C2E0A2E74003123D77EE80CAC082C08372
:103D6000A2AFE492E0FAC2AF9009C0E0700674011D
:103D7000F075E1E3023479C082C083A2AFE492E03F
:103D8000FAC2AF9009C0E06012E4123D9EE5A8C2FD
:103D9000AF759B0075E9FBA2E792AF023479F0752D
:103DA000E1EF75E1ED75E1ED22C082C083900D95E4
:103DB000E0604D439401E594A2E250FAE0640270A1
:103DC000379061A5127AE09009CAE0C394125013AB
:103DD000123E0CF0900960E0906174F0900961E08F
:103DE000123E1C7405906194123E0375E9FBA2E734
:103DF00092AF9061A3127AE0E4900D95F0123D0B22
:103E0000022D6DF0E5A8C2AF759B002290095CE021
:103E1000906172F090095DE090617322906175F09D
:103E200079087C707D097A6A7B611247742274F884
:103E300012020DE9FE74019009C2F0900D95E06048
:103E400008791D1240BC023F19EE9009C3F06402CC
:103E5000701A123FA375E1D975E10175E10975E1A9
:103E6000BA75E10175E1C575E1D2803CE49009C6FF
:103E7000121789240EF8123F26A2E6500590097900
:103E8000800390095BE09009C4F09009C3E07015CD
:103E9000900942E0600F9009C4E0C39403400474A9
:103EA000028001E0F0123F3E9009C9E070459008A1
:103EB000FD12831CFAA3E0F5838A82E05420900966
:103EC000C8125E45FAA3E0F5838A82A3A3E09009B5
:103ED000C7123F2AF5838A82A3120FB7120C3988C2
:103EE00082898374022AF075E1EE0AE0F5D9A31AFB
:103EF000EA70F8A2AFE492E0FAC2AF9009ADE070C8
:103F0000109009AFE0700A74839009C2123F3780A5
:103F10000874029009C2123F1C0223E9F0EAA2E0F1
:103F200092AF220808081264CF22F09008FD123FD9
:103F30003222E0FAA3E022123F1C123FB42274F7AF
:103F400012020D7508017509009009C4E078081285
:103F500005A3E50814C0E01233AAE9FAD0E05A90AC
:103F600009C5F09009C3E07011123FA375E1817596
:103F7000E11075E1D275E181800C123FA375E1B8C3
:103F800075E18175E1B875E11075E1D275E1D9751A
:103F9000E10175E10975E1BA75E10175E1C575E108
:103FA000D2800C12410375E1BC2274021204B27F6C
:103FB0000202031C74F812020D1239879009C3E043
:103FC0006402704D124180A2AFE492E0FEC2AF7570
:103FD000C300E5A2E5A4FF740F5FFA740FC39AF55E
:103FE000089061E2F0123CEC74019009C0F075E1B8
:103FF000E175C300E5A2E5A46F600FE508C3940274
:10400000400874FF25089061E2F0EEA2E092AF80D4
:10401000031240170223E9C082C0839009C3E070F5
:10402000289008FFE07002A3E0600D9008FF1233B3
:10403000221206ADE9FA80027A009009C5E0C39A1F
:104040004007791C1240BC8003124131022D6D746F
:10405000F812020DA2AFE492E0FEC2AF9009C2E0F6
:10406000648370219009C8E0701274859009C2F0D1
:10407000EEA2E092AF79001240BC800E74869009E7
:10408000C2F012418CEEA2E092AF0223E974F81262
:10409000020DA2AFE492E0FEC2AF9009C2E06486D6
:1040A00070127487F012422CEEA2E092AF79E912FE
:1040B00040BC8005EEA2E092AF0223E974F8120240
:1040C0000DE9FEE49009C9F09009C2F0123D2D12ED
:1040D00034441234A2EEF91215120223E9C008E5A5
:1040E000A8FAC2AF75C300E5A2F508E5A3FBEAA2F2
:1040F000E792AFEBF9A8087A007B0212012CE8F9ED
:10410000D00822C082C083759C0174019061E4F0E4
:1041100075E1E275E1FFE5A8C2AF759B007591EF0F
:10412000A2E792AFE5A8C2AF759B007591F7023C7C
:10413000C6C082C0839009C5E09061E2F0E06003F0
:10414000E014F075A1FDA2AFE492E0FAC2AF75C32E
:1041500000E5A2FBE5A3FC9009CAE0C39412500855
:10416000EB7005EC70027B0175C3038BA28CA3EA94
:10417000A2E092AF124180123D5C75E1E1022D6D2B
:104180009061A4E0D2E4F0E0D2E3F02274F71202EE
:104190000D1240DDE9FF90093FE02F24ECFA75F0A5
:1041A0001484FE75F014A4CA9AFA0E74029061E4A5
:1041B000F0EE9061E2F075A1FDA2AFE492E0FBC2E7
:1041C000AF75C3038A08750900740978081205A33E
:1041D000F8A9099009CAE0C394125009E47001E9F2
:1041E0007003087900E8F5A2E9F5A3EBA2E092AF2D
:1041F00075E1E275E1FFE5A8C2AF759B007591EF2F
:10420000A2E792AF75E1BC75E1B875E1D29061A407
:10421000E0D2E4F075E1E11240DDE9C39F500A907D
:1042200061E2E06E7003E014F0023FAFC082C08331
:104230009061A4E0C2E4F075E1E275E1FF022D6D4A
:1042400074F112020D9061A4E0C2E3F0E5A8FEC291
:10425000AF124298EEA2E792AF9009A0780C120636
:1042600069780C7908120639400A900CF8780C121B
:10427000066980088A0C8B0D8C0E8D0F9008FD123C
:1042800042A4780C1206871244429008FD1242AAFA
:10429000A3A3127B09020E3E1244748A088B098C78
:1042A0000A8D0B2212648EA3A3221242AE2212396F
:1042B0007FA32274F712020D74F01204FD7414909F
:1042C00061A9F0743F9061ABF074F8906196F0745E
:1042D000859061A8F0745A9061ACF0E49061AEF002
:1042E00074159061B2F0E4906182F074109061B541
:1042F000F0740E9061B6F074039061B7F074099099
:1043000061FAF074FF9061E5F0439A01D2A843A9E5
:104310000153B9FE906249E09009CAF0E5A8C2AF26
:1043200075C30275A20075A328A2E792AF4394015A
:10433000E594A2E250FA439408D2BA744890618995
:10434000F0123D5C906199E0A2E050F87A007C00A8
:104350007B08124424C0E0ECC333FCD0E04CFC1BCF
:10436000EB70EF8A08E50824D2F582E43409F5837E
:10437000ECF00AEAC3941040D5780079007C10E88C
:10438000C333F8E933F912442448F81CEC70F0E820
:104390007001E9600A7480687003740369700478BE
:1043A000BE79BAE8F5BCE9F5BC9009D0E07002A38B
:1043B000E060467A007C007B08124424C0E0ECC335
:1043C00033FCD0E04CFC1BEB70EF8A08851882852B
:1043D0001983E5822508F582E583120FFBECF00ACC
:1043E000EAC3941040CF851882851983AA82AB83D3
:1043F0009009D01233221206AD123D7774409061BD
:1044000089F0E0D2E5F0E4906164F0906165F090AD
:104410006166F0906167F0906168F0906169F07496
:1044200010023FAC9061A7E0A2E0E492E02274F3B6
:1044300055B44404F5B4E5BDF9E5BC2400FAE4390B
:10444000FB22C008E5A8FAC2AF75C301E5A3FBE5EE
:10445000A2F508EAA2E792AFAA08D0082274F512E2
:10446000020D74FC1204FDE5A8FAC2AF75C300E5A5
:10447000A2020B6574F512020D74FC1204FDE5A88E
:10448000FAC2AF75C310020B6574F512020D74FC0D
:104490001204FD12452A9009CC1245EE12059085B2
:1044A000188285198378081204E59009CC780812DF
:1044B0000687E5A8FAC2AF75C300851882851983FF
:1044C000E0F5A474011206A3E0F5A574021206A398
:1044D000E0F5A6EAA2E792AF020B9BC082C083740C
:1044E000FC1204FD12452A7A00A2AFE492E0FBC25E
:1044F000AFE5A7A2E450040A53A7EF75C3308518AF
:1045000082851983E0F5A474011206A3E0F5A57471
:10451000021206A3E0F5A675A1EFEA600343A71017
:10452000EBA2E092AF7404022D5D85188285198399
:10453000EAF0A3EBF0A3ECF0A3EDF022C0E074F2FC
:1045400012026DA2AFE492E0FED2AFE5A7FAE5A1B8
:10455000FBEA5B5410600812319575A1EF802AEADE
:10456000A2E0C0D0EBA2E092F0120602158182F028
:104570005017906198E0FA9009CBE0C39AA2D265F7
:10458000D0335002EAF075A1FE751A00EEA2E09257
:10459000AF7F010202CC74F512020D74FC1204FD0F
:1045A000E5A7A2E45045E5A1A2E4403FE5A8FAC290
:1045B000AF75C330E5A4851882851983F0E5A5C0E1
:1045C000E074011206A3D0E0F0E5A6C0E074021288
:1045D00006A3D0E0F074031206A3120BA51245EE59
:1045E000120659500612319575A1EF020B9B124528
:1045F000F478082212445D8A088B098C0A8D0B22FC
:1046000074F512020D74FE1204FDE5A8FAC2AF752E
:10461000C300E5A2E5A4851882851983F0E5A5C04D
:10462000E074011206A3D0E0120BA6C082C08390F2
:1046300009CC7808120669D083D082E02508FAA355
:10464000E03509FB02395EC0E074F212026DA2AFE0
:10465000E492E0FED2AF9061A4E0FA759B00E59190
:104660005A540860097591F7124240024700E591DB
:104670005A5410606B7591EFE0C2E4F09061E4E091
:10468000700512404F8079E06401704F7404900906
:10469000C2F0123D2D9009C6E004F090095AE0C026
:1046A000E09009C6E0FAD0E0C39A500779E11240E1
:1046B000BC804D9009C412473F9009661254445083
:1046C000079009C4E0048001E09009C4F0123F3E65
:1046D00074839009C2F0124017802512408D80200B
:1046E000EAA2E0C0D0E591A2E092F01206021581A4
:1046F00082F0500C12398A9009ADE07003123C012F
:104700009061A3E0FAE5E95A540460309009BEE0F4
:10471000701F74019009BDF09009B0123322120687
:10472000ADE49009BDF09009BEE06005123571E47A
:10473000F075E9FB906193E0A2E640D0024589E084
:10474000F874012808E43400F922C0E074F212027F
:104750006DA2AFE492E0FED2AF9061A5E0FAE5BFB2
:104760005A5404600C75BFFB9009BFE004F0123589
:104770005602458974F812020D8017198C828D83B8
:10478000124798F0A3AA82AB838C828D83A3AC825C
:10479000AD83E970E60223E9E08A828B8322124727
:1047A000A6AA82AB8322F08A828B83A322C082C016
:1047B00083E5D98A828B83F0A3AA82AB8319E9703F
:1047C000F0022D6D74F812020D9009E4E07036903D
:1047D00009E3E06402702E123504E9FF900AA1E0BB
:1047E000F9124AA6E9FEEFFA1249479009E2E0C041
:1047F000E0900D4AE0FAD0E0C39A500C9009E2E054
:1048000004F0124ABB0223E9EE12489BC0E0900D6F
:1048100049E0FAD0E0C39A40E9900AD1E0600890FC
:1048200009FBE064037006900AA1E08045EE124A9D
:1048300083125E0875830D758247C3E098A3E099E3
:1048400040249009FBE004F06403700B900D4512C6
:1048500054507B02124AD89009FBE06403700CEEBE
:10486000F9124A16800BE49009FBF0900AA1125449
:1048700002E9FA900AA1E06A6088900CE6E0A2E4FE
:10488000500E74049009E3F0EA9009E5F00248053F
:10489000EA900AA1F01248F502480575F007A4A9AC
:1048A000F024ECF582E93409F583E022C082C0836C
:1048B0009009E412686564027003126FCC022D6DDA
:1048C000C082C0839009E3E064017005126B7280BE
:1048D0001BE064027005126FCC8011E0640470125A
:1048E0009009E5E0900AA1F0F912491E74039009BD
:1048F000E3F0022D6DC082C08374019009E3F09053
:104900000AA1E0F912491E7AA17B0A79E112260078
:104910007C017D007A007B01124AD8022D6D74F86B
:1049200012020D89087900E9C0E0A90812683FFA6F
:10493000E5F03409FB7C07E4FDD0E0F912A549E479
:104940009009E2F00223E974F512020DE9FDEAFC98
:10495000ED75F007A4A9F0124A1164FF7004A3E0FA
:1049600064FF6010ED75F007A4124A112401F0A352
:10497000E03400F0ED75F007A424E8F582E934098D
:10498000F583C082C083900DB87808120669D08381
:10499000D08278081205DC900CF8780812053E6089
:1049A0000AED75F007A41248A114F0ED75F007A404
:1049B00024E6FAE93409FBEA2402EB34000A0AFB94
:1049C0008A828B837808120669740178081204249D
:1049D0008A828B837808120687900D4BE0C39C5027
:1049E0002DED75F007A424E6E934091A1AFB900CA2
:1049F000FC78081206698A828B83A3A378081205C3
:104A0000B68A828B83A3A3A3A3A3A3E004F0020B23
:104A1000A0124A8BE02274F812020DE9FBFC7D0023
:104A2000EB6D6043124A95C0E0EC124A96FAD0E072
:104A3000C39A4031124A95FEEC12489B6E7028ECE6
:104A4000124A83C082C083ED75F007A424E6F58284
:104A5000E5F03409F583125E08D083D082C3E09874
:104A6000A3E0995002EDFC0DEDC3940340B2EC704D
:104A700004790F800B74016C700479148002791929
:104A80000223E975F007A4124A8B2224E6F582E995
:104A90003409F58322ED75F007A424ECF582E5F0E6
:104AA0003409F583E022E9FA74146A70037901226B
:104AB00074196A7003790222790022C082C083903F
:104AC0000AA1E09009E5F07C027D007A10124AD636
:104AD0001234F4022D6D7B00900CE5E0F912B93D23
:104AE0002274F512020DEAFEEBFF8E828F83A3A3E0
:104AF000A3A3A3E0A2E65005750808800375080685
:104B00008E828F83A3A3A3A3E02508F98E828F83CF
:104B1000A3A3A3A3A3E0A2E35004740429F97B0098
:104B20007A0012190B8A0A8B0BA80AA90BE87001EC
:104B3000E9700479BE801D8E828F83125BD1AA0832
:104B400088828983A3A3E02A123ADB8E828F8312A4
:104B50005BCF7900020BA074F112020DEAFEEBFFAD
:104B6000E4900C82127F50F0A3F0900CE7E0640117
:104B70006014E06402600F74B4900C82F0124DAEC9
:104B8000125C55020E3E900D41780812066975833D
:104B90000A7582BE780812053E700474B680DA8EFB
:104BA000828F83A3A3A3A3A3E05409640960118E99
:104BB000828F83A3A3A3A3A3A3E07002A3E0700446
:104BC00074E880B58E828F83A3A3A3A3A3E0A2E0A1
:104BD000402B7A7E7B0E8E828F83E0F91269C3E9C7
:104BE000600474B28093A3A3A3A3A3E0A2E3500D37
:104BF000900E7E1264C7700574BD024B79900C82D2
:104C0000E06003024B7D8E828F83E0900E03124D95
:104C1000CCF8A3E0F9900E7C125BD7EE2405124D80
:104C20008C5415900CF2125E45A2E05033900AC2EB
:104C3000E0A2E0900E7CE05005124DA680031253D6
:104C40006312536F900E7CE02422123BAB74FFF092
:104C5000A3F012535574FF124DD1E4900E0480500E
:104C6000900E7CE0124DA6124DDDA2E140051264CB
:104C7000B84011900E7CE0242A1253651264ED12A4
:104C800064988014900E7CE0242A124DA81264EDE2
:104C9000240E123BAB127AF61264B850051264D49B
:104CA00080031255561264EDF8124D9BE0900CF300
:104CB000124DDDA2E25006900CE6127AE0900E7CD6
:104CC000123AF1125E3A7401850882850983124D09
:104CD000DD5424642470091257AD900AA1E08001CC
:104CE000E4900E04124DDDA2E65029850882850964
:104CF00083E044031222EA7002A3E07005900AC325
:104D000080068E828F83A3A3125E088508828509A0
:104D100083125BD1850882850983E04428F01271F3
:104D2000FD8A0C8B0D8C0E8D0FA3780C1206878ECE
:104D3000828F83A3E0850882850983A3A3A3A3A30D
:104D4000124DDDA2E3503A8E828F83A3A3A3A3A3C7
:104D5000A3A3A312038A8E828F83A3A3A3A3E0F944
:104D6000900E7E12581EAA08AB09127248740212E5
:104D700004B2E9700C124DAEF074BE900C82024B7E
:104D8000807903126F0B128103024B83124D91E065
:104D900022F8EF3400F98882898322124D9F221273
:104DA0001668A3A3A322242D12535F7402228E82BD
:104DB0008F83A3A3A3A3A3A3127F067402900C81E5
:104DC000124DC7900C8322125BC8E0221210A1E0A2
:104DD00022F0A3F0900AA1E0900CF3F022121A2F17
:104DE000A3E022C082C083900CEBE07025900CE61B
:104DF000E0A2E2501D900E04E07004900CF3E0FB82
:104E000012809D125A30E06B600812809D125A3257
:104E1000EBF0900CE6E0C2E2F0900AC2E0A2E050B3
:104E20000C900CE6E0A2E4500479028002790112B1
:104E30006F0B7402900C81F0900E03125C49022DEE
:104E40006DC082C083900AA1E01203B700030F591E
:104E50004E145D4E19614E654E7901800A790280CB
:104E600006790380027900022D6D74F612020DEAB4
:104E7000FEEBFF124ED48E828F83A3A3A982AA8356
:104E800089088A09750A0078081204817C0B7D0064
:104E90007A057B0A1280971204B28E828F83E070AB
:104EA00002A3E07003E480138E828F831254507B40
:104EB00008124AD8E4900A23F07401900A91F00293
:104EC00052B4124EC622C082C083124ED4E4900A5D
:104ED00091022D6C900CE8E0F0A3E054F7F07A001A
:104EE0007B081274552274F712020DEAFEEBFF7B69
:104EF0000080130A900A0512710D30E30244F0FCA1
:104F0000EAC39C40130B12710730E30244F0FAEB42
:104F1000C39A50257A0080DC8B08EE2508F8EF3420
:104F200000F9742628F582E4391252732409F582B7
:104F3000E4340AF583E06C70BA7A0080010A1271D9
:104F400021FCEA9C5018EE242D124FDE6010125204
:104F5000752406F582E4340AF583E06C70DFEBC05B
:104F6000E012710730E30244F0FBD0E0C39B5062D3
:104F7000EAC0E0127121FAD0E09A5056900A23E07C
:104F8000700E74011255627A1B7B0A12C5D28042E0
:104F90006401703E8E828F83A3AC82AD837A1B7BCB
:104FA0000A124FD66027E49009FC1255627AFD7B05
:104FB0000912C5D2EE242E121006900A10F07402C7
:104FC000900A23F07AFC7B09125458800579B712B5
:104FD0004FFE023FAFFB12C591E922EE2416F58287
:104FE000EF120FDA64FF22C082C083900A23E064CC
:104FF000027008900CEBE0F9124FFE022D6D74F870
:1050000012020DE9FEE4900A91F0124ED474109051
:105010000A11F0EE900A12F07CFD7D097A137B0AEA
:1050200012C5D27A117B0A0223E674F612020D90A1
:105030000CE7E06401703D8A088B09750A00780866
:105040001204817C1A7D007A247B0A128097120454
:10505000B2E4900A90F0900A3EF0900A8FF0790442
:10506000126F0B740F900CF3F0127B6E1254081237
:1050700052B980107406900E081257C1F0E4900ED9
:105080000A1250ED0252B4C082C083900CE7E06473
:1050900004702812527C1250F6900A90E0A2E2505E
:1050A00005D2E3F080157901126F0B7411900E0890
:1050B000F0127B897A087B0E128938022D6DC0822E
:1050C000C083900A90E0A2E25020C2E2F0A2E35036
:1050D0000D1258127411900E081250ED800C900CA5
:1050E000EBE060061250F61253AE022D6DF07A0816
:1050F0007B0E12893822900CE8E054FB1274647A1B
:10510000041274532274F612020DEAFEEBFF900CA7
:10511000E7E06404600302525C12526760030252CB
:105120005C900A3EE0C3940A400302525C750A0098
:10513000802312525E850A087509007403780812EC
:1051400005A3E508243FFAE509340A124FD56003A8
:1051500002525C050AE0FAE50AC39A40D57405904C
:105160000C81F0900CF3E0900C8312529C900C8414
:1051700012528E7A867B0C12C5D21227BF1279C9C1
:10518000E9125DF950047C0F80027C00125E17303A
:10519000E30244F012567D7413125DDD7001EB6082
:1051A0000302525C88828983A3A3A3A3A3A3125AF8
:1051B0004AE82407FCE93400FD7A8E7B0C12567411
:1051C000900CB2F07B00800C0A900A34E0FCEAC339
:1051D0009C40160B900C9812710D30E30244F0FACB
:1051E000EBC39A501F7A0080E08B08E50824ABF5EA
:1051F00082E4340C1252732435F582E4340AF583C8
:10520000E06C70C4900A34E0600E900C9812710D3E
:1052100030E30244F06B604412525E900A3E122B5F
:10522000CD740378081205A3E508243FFAE5093494
:105230000AFB12C5D2E004125C55E0640A6009E082
:10524000FA900AABE06A701412527C900A901268CD
:1052500060900AA8E0600514900A8FF08056EE2452
:1052600012FCEF3400FD22EE241AF582EF120FDA61
:10527000640322F583E0FC8A08E50822900CE8E04C
:10528000F0A3E054FBF07A007B0412745522E8F09E
:10529000A3E9F0EE2412FCEF3400FD22F0EE242A04
:1052A0001252A422F582EF3400F583E0F8A3E0F96E
:1052B000221204B27F0302031C74F712020D900A3B
:1052C00028E0A2E05004780F80027800FC7B007A8E
:1052D0000074705CC4C0E01257A5D0E02C2412F911
:1052E0001264F87002A3E0700A12581279BE1253C9
:1052F00076805F900E7CE012536312536F900A2603
:10530000127AF6900A24123AE51253551264FE12EC
:1053100079CEA3A312649374018E828F83A3A3A377
:10532000A3A3F07C287D0AEE2406FAEF12554190E3
:105330000A3312554D900A3C12581E7A04124AD66E
:105340007411127F4DE4F0A3F0900A90E0D2E212C3
:105350007E9B023FAF900E7CE0242B12535F221203
:105360007F6F22242D12536922127F6F7403221241
:105370007F5E7402F02274F812020DE9FE7406904A
:105380000C81F0900AABE0C0E0900A3EE0FAD0E079
:10539000C39A500474B78008E0700474B88001EEBA
:1053A000900C82F0900A3EE0900C830223E3C082CE
:1053B000C0831253FFE9F0640F7035900A8FE00448
:1053C000F0900A90127AF1900A8FE0C0E0900AA85B
:1053D000E0FAD0E0C39A400D125812900CEBE0F9BD
:1053E0001253768017900A90E0A2E0500F125408F2
:1053F0007AF37B0C79E11226001252B9022D6D90DE
:105400000CF3E0F9126FD822C082C083900A8F1289
:10541000473F900AA8125444501D900AA3E070021E
:10542000A3E06013900AA31254507B04124AD89050
:105430000A90E0C2E08006900A90E0D2E0F0E0C27C
:10544000E1022D6CE0FAE89AE99400C365D03322BA
:10545000E0FCA3E0FD7A002274F712020DEAFEEBF5
:10546000FF900CE7E06401600302550A74031257D1
:10547000CA900C84F0A3F07401900C861255627AE5
:10548000877B0C12C5D28E828F83A3A3A3A3A3A371
:10549000A3A3A3E0A2E05004780F80027800FC7B75
:1054A000007A0074705CC4C0E01257A5D0E02C24D0
:1054B00013F91264F87002A3E0700302553E12570C
:1054C00098900E7CE024221255521255561257DA4B
:1054D0007402850882850983125BDDF0EE2409FCE5
:1054E000EF3400FDE5082407FAE509125541EE24E2
:1054F00014120FF812554D7907125B8A124DD39092
:105500000E7EE4F0A3127E9B80347403900E08F0AC
:1055100074FF900E0AF0900E0B125BB61255627A71
:105520000E7B0E12C5D274B4900E09F0900A91E071
:1055300070097A817B0C1289388003124FE7023F91
:10554000AF1257888A088B09A808A909221222AE2F
:10555000F0221264AE2212555A22127F6974FFF0B3
:10556000A322125BC3AC82AD8322C082C0837901C7
:10557000126F0B900CEB125A4A900A91E070097A64
:10558000817B0C1289388003124FE7022D6D74F76E
:1055900012020DEAFEEBFF900CE7E06401600302EB
:1055A00056711252676003025671EE2430F582EF95
:1055B000127AE5400474FF8003E0C333900CE2F0FC
:1055C000C0E0900AA2E0FAD0E0C39A5003025671FC
:1055D0007404900CB3F0EE2412F508EF1271EFACE6
:1055E00008FD7AB57B0C12C5D2E4900CB4F0AA0881
:1055F000AB09126EA8EA7001EB700B126EF0E96451
:10560000FF700374B1F01227BF120B5DA2E05004CB
:105610007C0F80027C00F5088E828F83A3A3A3A356
:10562000E0FE74065508125E2F5508C430E30244AC
:10563000F012567D74122AFAE43BFBEA6E7001EB1D
:10564000702FE82406FCE93400FD7ABD7B0C12566D
:1056500074900CE1F0900A91E0700F900AA7E0605E
:10566000107AB37B0C12893880077AB47B0C124E07
:10567000E6023FAF12712A8A828B83E022FA3395C9
:10568000E0FBEA2CFAEB3DFB2274F712020DEAFE76
:10569000EBFF900CE7E06401600302576C8E828F91
:1056A00083A3AA82AB83126EA8EA7001EB70131277
:1056B0006EF0E964FF700B1257C874B012578F0276
:1056C000577F125DF35004780F80027800FC7B0056
:1056D0007A0074705CC4C0E01257A5D0E02C24148A
:1056E000F91264F87002A3E070030257821257980F
:1056F000125B9EA3A3A3A3A3A3A3A31257D5900AAF
:10570000C2E0A2E0500F1257AD900ACF125BA6E89C
:10571000F0A3E98012850882850983A3A3A3A3A32C
:10572000A374FEF0A374FFF07403850882850983D7
:10573000A3A3A3A3A3F0125B932408125785EE241E
:1057400016124D91124798125E45900E65F079053C
:10575000126F0B8E828F83E0900CF3F0127B6E74CD
:1057600024127F4DE4F0A3127E9B80167409900EE4
:1057700008F074FF900E0A1257C1F07A087B0E12DF
:105780008938023FAFFAE5093400FB12702B2290F2
:105790000C82F07A817B0C2212700D8E828F83A393
:1057A000AC82AD832274065CC31328FC22124E41E6
:1057B000E9C4333354C0FA850882850983E04AF08E
:1057C00022F074B4900E09227409900C81F074FFD9
:1057D000900C83F022A3E01264E1127F55F508A338
:1057E000E0F509AA08FB126FF222C082C083900C78
:1057F000EBE0700D900AAC12581E7A08124AD6805F
:105800000E1258127409900C81F074FF125C4A0257
:105810002D6D7901126F0B127B8922125A45E0FC23
:10582000A3E0FD2274F112020D8A0C8B0D900CE79F
:10583000E064056003025A26EA241AF582EB12524C
:105840006D6003025A268A828B83A3A312177324E6
:1058500015F582E509125DF950047A0F80027A008D
:10586000FE850C828B83A3A3A3A3E0FC74065EC316
:10587000132AFAE43400FB74705EC430E30244F08F
:10588000F83395E0F9E82AF8E93BF9741628F8E4CA
:1058900039F9E86C7001E96003025A26900CE8E0DF
:1058A00054F71274647A081274367409900C8112D9
:1058B0005A50125A4AE508240BFCE5093400FD7AD7
:1058C000847B0C12712AE06003025A1CE50C24123E
:1058D000FAE50D125DE67002E5836005E0F50A80E9
:1058E0000B126EF0E9F50A126D9EE9F0E50A900CD4
:1058F00083F0900C84E0A2E0502B85088285098318
:10590000125E1012035401022559105917591E59DD
:10591000125A29740F8019125A2974148012125ABB
:10592000297419800B900CF3E0C0E0125A29D0E0E2
:10593000F0E875F02BA424D3FEE9340AFFE50C242B
:105940002AF582E50D127817125BD7E50C2412FCBC
:10595000E50D3400FDEE2404FAEF3400FB12C5D24D
:10596000900AC2E0A2E05005900ACF800D8508821F
:10597000850983A3A3A3A3A3A3A3123AE5E50A750C
:10598000F02BA424D4F582E5F0340AF583EAF0A3E1
:10599000EB125A50A3A3A312303D120FF6125BD79D
:1059A000EE2424F508EF1271EF7C037D007900AA44
:1059B00008FB12A549750C9E750D0C750E00780C30
:1059C000120481900C8E12711AAA08AB09128097EA
:1059D0001204B2900C8512303D2422120FF8125B93
:1059E000D7900C84E0C0E0EE125A3CD0E0F0900C6E
:1059F000F8780C120669EE2427120FF8780C1206BC
:105A000087EE1279C9EF1260197403900E7BF0A92A
:105A10000A127D0374FF900E66F0800A1258127A03
:105A2000817B0C128938020E3EA80AE875F02BA47F
:105A3000A9F024D6F582E9340AF583222410125AFB
:105A40004222F582EF3400F58322E0900C82F022AE
:105A5000F0850882850983A3A3A3A3A3A32274F7D7
:105A600012020DEAFEEBFF900CE7E0640160030216
:105A70005B6D124FDB600CE0FA900A9BE06A6003FA
:105A8000025B6D7403900C81125BF2900C83125BCD
:105A9000BF125E08900C84125BD77401900C8612C2
:105AA00060557A877B0C12C5D2125DF35004780FD3
:105AB00080027800FC7B007A0074705CC4C0E01245
:105AC00057A5D0E02C2416F91264F87002A3E070F8
:105AD00003025B878E828F83E0700E124FDB6009BA
:105AE000EEFAEFFB125E4C800674FF900A9BF012F8
:105AF000647FEE2403FCEF3400FD125B9E1257D549
:105B00001257AD7404125BDD125BF264FF60221267
:105B100080A0127DB1A2E04018EE2416120FF812F8
:105B20006034E9340AF583125BA6A3E8F0A3E980A8
:105B300013850882850983A3A3A3A3A3A3A374FE4B
:105B4000F0A374FFF0E5082409FAE5093400FB79B5
:105B50005312259E125B93240B1257857908125B12
:105B60008A127F50E4124DD1128103801A7403907F
:105B70000E08125BF2900E0AF0900E0B74FF125B8F
:105B8000B61257C11250ED023FAF126F0B74149052
:105B90000CF222EE240BFCEF3400FDE50822126427
:105BA000A48E828F83221252AB850882850983A33B
:105BB000A3A3A3A3A322F0A3F07401900E0D2212BD
:105BC0005BC322125BC8A322F08E828F8322A3A321
:105BD000A3A3A3A3A3A3A3E8F0A3E9F022A3A3A3F1
:105BE000A3A3124DC7850882850983A3A3A3A3A3FA
:105BF000A322F0EE2416120FD722C082C083900A8F
:105C00009BE064FF6015900CEBE06019900A9B121A
:105C100080F4900A9B12781174FFF07901126F0BD7
:105C2000125C4E8021E4900E7BF0900A9BE0F9120A
:105C30007D03E96011E4900E66F07A4D7B0D79E505
:105C4000122600127DD5022D6DE0900C83F0900C91
:105C5000EBE0900C821257921289382274F31202F0
:105C60000DEAFEEBFF900CE7E064016003025D6C5F
:105C70001252676003025D6C900A91E06401700348
:105C8000025D6C900AC2E0A2E04003025D6C122744
:105C9000BF2412F582E9125DF950047C0F80027C6A
:105CA00000125E1730E30244F012567D7414125D48
:105CB000DD7001EB6003025D6C88828983A3A3A37E
:105CC000A3A3A3125E3A125E0C1203540102E55C18
:105CD000D65CDB5CE05C750A0F8010750A14800BE3
:105CE000750A198006900AA1E0F50AE82408FCE983
:105CF0003400FD7ABF7B0C12712A8A0C8B0DA80C24
:105D0000A90D88828983E0900E65125E45900CE4AF
:105D1000F0900A9BE064FF6005750BFF8020EE2485
:105D200012FAEF125DE67002E5836007E0F50B748E
:105D3000B58007126EF0E9F50BE4900CB4F074082E
:105D4000900CB3F0E50B900CE312529C900CB51242
:105D5000528E7AB77B0C12C5D274FF650B7010742B
:105D6000B1900CB4F07AB37B0C128938020FC1E504
:105D70000B900A9BF0900CBFE0900A92F0900A936F
:105D8000E508F0A3E509F0E50A900A95F0900CC04B
:105D9000125E08900A96125BD77A0080198A82A850
:105DA00082E824D9F582E4340CF583E0C0E0E812FF
:105DB0005DD3D0E0F00A900CC9127124FBEA9B403D
:105DC000DCEAC39403509E8A08E508125DD3E4F030
:105DD0000A80EE2498F582E4340AF583222AFAE454
:105DE0003BFBEA6508223400FB126EA88A828B8393
:105DF000E58222EE240BF582EF120FDAA2E022A355
:105E0000A3A3A3A3A3A3A3A31252AB228882898333
:105E1000E0C41313540322F50A8E828F83A3A3A335
:105E2000A3E0F5087406550A125E2F550AC422C372
:105E3000132CFCE43400FD747022E0F508A3E0F5B7
:105E40000922F0A3EBF088828983E02274F5120224
:105E50000D74FC1204FDEAFEEBFF900A9BE0C0E02B
:105E6000126D9ED0E0F0900A92E0A2E05030900ACD
:105E70009B127DC38E828F83A3123AE5E8240CF532
:105E800082E9120FFB127B09900A93123AE5E8248B
:105E90000EF582E9120FFBEAF0A3EB025F6E900AA7
:105EA000CD123AE5900A9B1280A024DFF582E5F03E
:105EB000340AF583127B0974021206A3AA82AB830B
:105EC000795012259E851882851983AA82AB837921
:105ED0005312259E12442E8A088B09A808A9098509
:105EE0001882851983E0687003A3E06960E6C3E85F
:105EF00094FEE994FF50DD750900AA09EA75F02BBC
:105F0000A4ABF024D3F582EB340AF583E064FF60A0
:105F10003BEA75F02BA424E1F582EB340AF583E02B
:105F2000687003A3E069702474021206A3123AE5B4
:105F3000E50975F02BA485F00824DFF582E5083427
:105F40000AF583E06A7003A3E06B60090509E509BF
:105F5000C3940A40A5740A65096003025ED4900ADE
:105F60009B126034E5F0340AF583E8F0A3E9F09081
:105F70000A92E0A2E0500D900A95E0C0E012603C69
:105F8000D0E08012900AA1E0C0E012603CD0E012A4
:105F90005BBF74FFF0A3126055900A9B1280A0248F
:105FA000D7FAE5F0340AFB12C5D2127DBEE5F03413
:105FB0000AFB900ACF12604D125BD6900A92E0C0A5
:105FC000E012602BD0E0F0900CF87808120669EA35
:105FD0002427F582EB120FFB78081206871279C886
:105FE000EB126019900A96122F0C2422F582EB1204
:105FF0000FFB125BD775089875090A750A007808B7
:106000001204817C037D00EA2424FAEB1260221240
:1060100004B2020B9BF582E509125A45E4F022FA1C
:10602000E50B3400FB12A493740322EA1222A9EBBD
:10603000125A45221280A424E1F58222900A9B1272
:1060400080A424D6F582E5F0340AF583221252ABFF
:106050008A828B8322F0EE2403FCEF3400FD22744D
:10606000F512020D74EA1204FD900AC2E0A2E0509B
:1060700050790A126F0B900DBC78081206697401F2
:106080001206A3780812068774051206A3E4F0909E
:106090000AAEE0C0E074061206A3D0E0F074081265
:1060A00006A37403F074141206A37405F0A3740E0F
:1060B000F07401900A9CF01206A3AA82AB83122D01
:1060C00072790112C9B4900AC2E0A2E04020126BBA
:1060D0005C740D900C81F0E4900C82F074018518D2
:1060E000828519831268827A817B0C128938741632
:1060F000020B9D74F112020D74E91204FDEAFEEB2D
:10610000FF900CE7E0640A60030262D98E828F83FD
:10611000A3A3E060030261E8750A007A01802A8E79
:10612000828F83125DFF8A08E82508F582E9121044
:1061300009C0E0850A08E82508F582E9121009FB84
:10614000D0E0C39B50028A0A0A8E828F83A3A3A346
:10615000A3A3A3A3A3E0FBEAC39B40C3E50A1203E6
:10616000540001716169616D61740F80067414805F
:10617000027419900AA1F0900DBC780C1206697493
:10618000021206A3780C12068774061206A3740185
:10619000F0900AAEE0C0E074071206A3D0E0F074FD
:1061A000091206A37405F07AA57B0012A571741577
:1061B0001206A3127B0974151206A3E07002A3E075
:1061C0007017E4900A9CF0F9126F0B740D900C811B
:1061D000F074BE125C520262D974021206A3AA8243
:1061E000AB83122D720262D91262DE1262FC64FF6E
:1061F0007004A3E064FF60F07D00803A851882851A
:106200001983E0FAED75F021A4F8A9F08E828F834E
:10621000A3A3A3A3A3A3A3A3A3E028FCA3E0398C77
:1062200082F583A3A3A3A3A3A3A3A3A3E06A7003FC
:10623000A3E06B60B30D8E828F83A3A3A3A3A3A35C
:10624000A3A3E0FAEDC39A40B38E828F83A3A3A3E6
:10625000A3A3A3A3A3E06D708F8E828F83A3A3A3B8
:10626000A3A3A3A3A3A3E07002A3E060108E828F78
:1062700083A3A3A3A3A3A3A3A3A3127F028518822E
:10628000851983AA82AB837950122600125E08908A
:106290000ACD125BD71262DE1262ECC3E094F0A367
:1062A000E094FF50F0851882851983AA82AB837928
:1062B00053122600125E08900ACF125BD77CCD7D68
:1062C0000A7A02792212952D7CCF7D0A7A027923EF
:1062D00012952D1263011263207417020E3B1244B3
:1062E0002E851882851983EAF0A3EB221262F02230
:1062F0001262F422F0851882851983221262F0E07E
:106300002212684A7A987B0D79461226007A967B8B
:106310000D79451226007A9E7B0A794112260022C9
:1063200074F512020D74DD1204FD900ACD125E08A0
:1063300074041206A3125BD7900CF8780812066951
:106340008518828519837808120687900AA1E0C013
:10635000E074061206A3D0E0F074081206A3740FCE
:10636000F074091206A3740FF0740A1206A37401E4
:10637000F0740B1206A3E4F0740C1206A3E4F0749C
:10638000151206A3E4F074201206A3E41263971218
:10639000126E7423020B9D12639B221262F4AA8276
:1063A000AB832274F512020D8908900CE7E06401BA
:1063B000700A7A7E7B0E1269C3E96025E064016091
:1063C0000474B4800274B2900E09F0740E900E083A
:1063D000F0E508900E0AF07A087B0E128938026404
:1063E0007C900E7E1264C77B007A006004790A807C
:1063F0000279061264F87002A3E07013740E900C18
:1064000081F0E508900C83F074BE12578F80CC1297
:10641000647F900E7EE01264981264B85005126496
:10642000D4800312555612821F12649374058E8213
:106430008F83A3A3A3A3A31264ED2411F8123F2614
:106440006022127ADCEE2405F50AEF3400F50B78B1
:106450000A1204857901127F101204B2E970051244
:106460007EFF80987906126F0B900E7E12648990E1
:106470000CF3F0E508900A9DF0127E96020BA090B6
:106480000E7C123AE912700D2212648EE022123A4A
:10649000F9A322E0127F412212649C222404FCA36F
:1064A000E03400FD900E7CE024221264AE22FAA3B8
:1064B000E03400FB12C5D222900E7EE0241012645C
:1064C000CEA2E0229008FDE024111264CE22F81240
:1064D0007F70E022900E7EE0240C1264CE1264E104
:1064E00022FAA3E0FB127F69EAF0A3EB22127F50AD
:1064F000E0227B007A00790F12190B900E7CEAF0F3
:10650000A3EBF0900E7CE022C082C08374FE1204E4
:10651000FD851882851983AA82AB83900A9DE0F9D4
:106520001269C3E9700F851882851983126570900E
:106530000A9D1278117901126F0B740E900C81F084
:10654000900A9D125C4902820074F812020D74FEDA
:106550001204FDE9FE851882851983AA82AB831295
:1065600069C3E97008126570EEF9126E69021A05C6
:1065700012165E74FFF02274F612020D74F8120403
:10658000FDE9900CE5F0E4900CE6F07401900AD17E
:10659000F0747F900AD2F0E49009E3F012286F12B1
:1065A0006D7CE4900AC2F0900ACCF0900ACD74FFA2
:1065B000F0A3F0900ACFF0A31262ECAC82AD837A24
:1065C000087901129655E9702875089A75090D75B4
:1065D0000A0078081204817C087D0074031206A367
:1065E000A982AA837B0012A4D974031204B2E960C1
:1065F0002F75080C750978750A0078081204817CDB
:10660000087D0074031206A3AA82AB83128097123E
:1066100004B2851882AC82AD837A08790112952D77
:10662000126E3574080252B174F712020D74FD1225
:1066300004FDEAFEEBFF74805FF9E47001E970038A
:106640000266C9900CE512686E125BD7E87001E92A
:10665000606E851882851983120FEC1203B7000350
:106660000778660885660D6B66B36685188285199E
:1066700083E0FA127469803B851882851983E0FAF9
:106680001260F3802E900CE7E0640A7026740D907F
:106690000C8112688F125A4A700A74021206A3748F
:1066A000011268827901126F0B900A9CE06004E489
:1066B000125C55851882851983AA82AB83121DDC72
:1066C000EEFA74806FFB02683A900CE8EEF0A3EFEC
:1066D000F0900CE8E0A2E05003128266E054806083
:1066E0000312736EE054026005E4900CF2F0900C1B
:1066F000E8E05404600B900CE7E06404700312536C
:10670000AE900CE9E05404F9E47001E96021900CCA
:10671000E7E064047019900A90126860A2E1500FDB
:106720001254087AF37B0C79E11226001252B990C8
:106730000CE8E054086013900CE7E06405700B125D
:1067400058121257C874B3125C52900CE8E05420EF
:10675000602B900CE7E064016005E06402701312A6
:10676000684A900CE612686564037006124ABB74AE
:1067700002F0900A9F12581E7A40124AD6900CE8F6
:10678000E054406027900CE6E0A2E4501F900CE734
:10679000E064016005E06402700F7A9E7B0A795222
:1067A000122600127BAA1248C01273A9900CE9E0CD
:1067B0005401F9E47001E960149009E4E0700E906E
:1067C00009E3E0640170067402F0124ABB900CE821
:1067D000E0541060031247C4A3E05402F9E47001CE
:1067E000E96018900AA1E0F912683FF582E5F034FB
:1067F00009F583E4F0A3F09009FBF0900CE9E05474
:1068000008F9E47001E9600579B8124FFEE0541010
:10681000F9E47001E9601F900E7BE06403600AE018
:1068200064046005E06402700779B91280AA8006EA
:10683000E070037401F07A007B007403023FAC1235
:106840004AA6E975F007A424E6227AA17B0A79E139
:106850001226007A997B0D795212260022906180CF
:10686000E0D2E0F022E0D2E0F09009E3E022E0F9AB
:1068700012A64F8A088B09A808A9098518828519CC
:106880008322F0AC82AD837A007983126B8422126A
:106890006893221262F4121662A32274F612020D99
:1068A000E9FEEAFFECFAEDFB74A02EC39410505FF2
:1068B0007CDD7D0A74A02EF50A850A08750900742E
:1068C0000278081205A3EC2508F582ED3509126B54
:1068D000517001E9604D850A087509007402780855
:1068E0001205A3EC2508FCED3509FDE493F50874C9
:1068F0000193F509750A0078081204818C828D8352
:10690000A3A3E493FC7D001280971204B280677405
:10691000802EC3940950087C1D7D0B74808097796C
:10692000F4805574686E7025EFC3940A501BEF75A0
:10693000F02BA424D3F508E5F0340AF509750A0014
:1069400078081204817C2B80BC79F9802B74846ECA
:10695000700DEAFCEBFD7A087901129655801774E8
:10696000676E70BB900CE6E0A2E4500474018001F5
:10697000E48A828B83F079000252B474F712020D1C
:10698000E9FC74A02CC3941050257ADD7B0A74A016
:106990002CF508750900740278081205A3EA250889
:1069A000F582EB3509F583A3A3E493F9023FAF74B5
:1069B000802CC3940950087A1D7B0B748080D17998
:1069C0000080E9C082C083E9FD1277DE6D7017EDAB
:1069D00075F02BA424D3F8E9340AF98A828B831248
:1069E0005BD77900800279B2022D6D74F512020D29
:1069F00074F81204FDE9FE126E35790112240E8539
:106A00001882851983AC82AD837A08790112965574
:106A1000AA82AB8379E2122600900D4CE090619639
:106A2000F07AD27B0A79E5122600EE607C126D7C4A
:106A30007F008F08750900740278081205A3E50825
:106A400024E0F582E509340AF583E49360398F0880
:106A5000750900740278081205A3E50824DDF582A3
:106A6000E509340A126B517001E9601B8F08750942
:106A700000740278081205A3E50824DDF8E509345E
:106A80000A126E1212952D0FEFC3941040A47F00CE
:106A9000EFF9126E690FEFC3940A40F47C9E7D0AF1
:106AA0007A007983126B84801B900DC078081206DF
:106AB00069900ABE78081205EF7CBE7D0A7A0479D7
:106AC0000612952DE4900CE6F0900CE7F07AA17B8D
:106AD0000A79E11226009009E4E070229009E3E0CF
:106AE0006402701A12745E7A1012743CF0A3E054BF
:106AF000FDF07A007B02127438123504800B900985
:106B0000E3E064017003126B72E49009E3F0124E4B
:106B1000C674FF900A9BF0790112C9B4900ACCE0C8
:106B2000602A900AC2E0A2E0501F7ACD7B0A795019
:106B30001226007ACF7B0A7953122600790A126F47
:106B40000B1263011263208003126B5C7408020B4A
:106B50009DF583E493F8740193F9E8227A997B0D0B
:106B60007952122600900CE6E0D2E0F07901126F23
:106B70000B22900CE8E0F0A3E054FEF07A007B01D9
:106B80001274552274ED12020D890B8A0AECFEED87
:106B9000FF74A0250BC394104003026C7D7508DDC3
:106BA00075090A74A0250BF51285120C750D007479
:106BB00002780C1205A3E508250CF582E509350DD0
:106BC000126B517001E9604485120C750D0074025E
:106BD000780C1205A3E508250CF510E509350DF52F
:106BE000118E0C8F0D750E00780C120481851082A9
:106BF000851183A3A3E493FC7D0085108285118316
:106C0000E493FA7401931280961204B2A3A3A3E44E
:106C1000936034751300740278121205A3E50825F9
:106C200012F510E5093513F511EEFCEFFD85108224
:106C3000851183A3A3E493FA851082851183A3A30E
:106C4000A3E493F912952D7468650B704CE50AC3A3
:106C5000940A50418E0C8F0D750E00780C12048131
:106C60007C2B7D00E50A8CF0A424D3FAE5F0340AED
:106C70001280961204B2A90A126E69805674802599
:106C80000BC39409500B75081D75090B7480026BBA
:106C9000A579F4804079F9803C7461650B70051228
:106CA0007B24802F7484650B701AEEFCEFFD7A084C
:106CB000790112952DE97008EEFAEFFB79E2801068
:106CC00079BE80117488650B7009EEFAEFFB79E5E7
:106CD000122600790002319074F312020D8A088B9B
:106CE000098A828B83E01203B7000407406D08779E
:106CF0006D0CF96C0D346D746DEA2403F8EB3400FF
:106D0000F9E8FEE9FF8E828F83123AE5121DC185F4
:106D10000882850983A3E0900CEB125BC8125E0821
:106D2000900CEC125BD77A017B00900CE5E0F91235
:106D3000A8718040AE08AF09EE7001EF6036802A7E
:106D4000750B0BAA0B7B0012A5718A0C8B0DAE0C78
:106D5000AF0DEE7001EF601C750A00780812048117
:106D6000AC0B7D001280971204B2EEFAEFFB900C90
:106D7000E5121C83020FC1750B0280C7C082C0835D
:106D8000900ABA7C9F7D0A74231203E1FBEB126D1B
:106D90009E74FFF00BEBC3940A40F2022D6D75F068
:106DA0002BA424D3F582E5F0340AF5832274F5127E
:106DB000020DEAFEEBFF8909750800804B85080A81
:106DC000750B007402780A1205A3126E2AA3A3A3FE
:106DD000E493603285080A750B007402780A120584
:106DE000A3126E2A126B537001E9601A85080A75A6
:106DF0000B007402780A1205A3EE250AF8EF350B92
:106E0000126E121296550508E508C3950940AE02A8
:106E10000BA0F9E493FC740193FDA3A3E493FA8817
:106E2000828983A3A3A3E493F922EE250AF582EFD6
:106E3000350BF5832274F812020D79107ADD7B0A86
:106E4000126DAD79097A1D7B0B126DAD750800E5E9
:106E500008126E80129655126E981296550508E526
:106E600008C3940A40E90223E974F812020D890864
:106E7000E9126E8012952D126E9812952D0223E95B
:106E800075F02BA424D3FEE5F0340AFFEEFCEFFDF1
:106E90007A2774242508F922EE2427FCEF3400FD1C
:106EA0007A04742E2508F92274F812020DEAFEEB1A
:106EB000FF750800A808E81277D86024EEFCEFFD03
:106EC000E875F02BA424D7FAE9340A124FD56010E4
:106ED000E50875F02BA424D3FAE5F0340AFB800D05
:106EE0000508E508C3940A40CB7A007B000223E939
:106EF000C082C0837900E9126D9EE064FF600909D9
:106F0000E9C3940A40F079FF022D6D74F812020D66
:106F1000E9FE900CE7E0FF74016F70051248AC8049
:106F20000574026F60F6EEF074016E705D900AC237
:106F3000E0A2E050097AA17B0A79E11226009009CB
:106F4000E3E07029900AC2E0A2E0507D740290094B
:106F5000E3F0E49009E4F07C15FDF97AE67B091290
:106F6000A549E49009FBF09009E2F080599009E40A
:106F7000127BAD74026F70439009E3E06403600517
:106F8000E0640470441248F5803F74026E703A90D9
:106F90000AC2E0A2E050097AA17B0A79E112260038
:106FA0009009E4127BAD74016F70109009E3E06406
:106FB0000270167403F0126FCC800EE0700B900913
:106FC000E3E064027003124ABB0223E912745E7AA2
:106FD0001012745312350422E9FA740F6A7003799F
:106FE000142274146A700379192274196A70027970
:106FF0000F2274F512020D8A828B83742AF01271AB
:10700000FD8A088B098C0A8D0BA3020B4AC082C033
:1070100083EA242DF582EB120FFB7403F0EA242A95
:10702000F582EB120FFB7403022D6C74F212020D49
:10703000EAFEEBFF8C088D09900AC2E08E828F83F6
:10704000F0900AC3127112125BD6750CC5750D0A49
:10705000750E00780C1204817C077D00EE24030A73
:107060000A0AEF1260221204B2850882850983128F
:107070007E8AA3A3A3A3F0EE240BFEEF3400FF85CA
:107080000882850983E0A2E0501B750CAF750D0ADC
:10709000780C1204817C0F1280911204B2EE240F3E
:1070A000FEEF3400FF850882850983A3A982AA83A5
:1070B000890C8A0D780C1204818508828509831257
:1070C000711A1280931204B21271F4EE28FEEF349A
:1070D00000FFE5082404F50CE5093400F50D780CF3
:1070E00012048174705AC41280901204B28508820E
:1070F00085098312710D30E30244F0F83395E0F90D
:10710000EE28FAEF021178EE2413125A42E054707E
:10711000C4221252AB8E828F8322127124FC7D0016
:1071200022900A05E05406C3132274F212020D8A5B
:107130000A8B0BECFEEDFF8E0C8F0D750E00780C9C
:107140001204817C0B7D001280971204B2EE240B96
:10715000F508EF1271EF8E828F83A3A3A3A3A3A3DD
:10716000A3A3A3A3E0A2E0502085080C85090D7815
:107170000C1204817C0F7D00E50A240B12601F12A3
:1071800004B2E508240F1271EBEE240AFEEF34007E
:10719000FF85080C85090D780C1204818E828F837F
:1071A00012711AE50A241A12601F1204B21271F445
:1071B000E508281271EB85080CF50D780C12048196
:1071C00074705AC4FC7D00E50A241D12601F12046D
:1071D000B28E828F8312710D30E30244F0F8339542
:1071E000E0F9E50828FAE509021178F508E509341F
:1071F00000F50922E0FA74065AC313F82274F1125A
:10720000020D900ABE780C120669900CFC780812E8
:107210000669900ABE78081205EF900ABE78081237
:10722000066974FF5508F874035509F9E87001E917
:10723000700B7CBE7D0A7A04790612952DAA0CABE0
:107240000DAC0EAD0F020E3E74ED12020DEAFEEB18
:10725000FF8C128D13890874131206A3E0F510A396
:10726000E0F511127ADC7A3A7B0E79E212259EA3C0
:1072700085820A85830B780C12066912783B8E8210
:107280008F83E0900E471222DA780C120669900E76
:1072900048780C120687E5122404FCE5133400FD3F
:1072A0007A4C7B0E12C5D2127361AA0AFB12C980F6
:1072B000750C54750D0E780C120485780A1204852D
:1072C000750A0D750B00780A120485750A47750B4F
:1072D0000E780A12048585080A750B00780A1204D4
:1072E00085AC10AD117A3A7B0E79041296A0740A1F
:1072F0001204B2E97066750A54750B0E780A12040E
:1073000085127361780A12048585080A750B007866
:107310000A120485AC10AD117A3A7B0E79041299E9
:10732000C974061204B2E9702F7A008A82A882E832
:107330002454F582E4340EF583E0C0E0E8250AF831
:10734000E43400F9E51028F582E51139F583D0E041
:10735000F00AEAC3940440D3790180027900023133
:1073600090E5122412F50AE5133400F50B22C082D1
:10737000C083127BAAD2E4F0900AC2E0A2E0501DC2
:10738000900CE7E0640170057902126F0B900AA57A
:10739000E07002A3E060031273A91248C07A9E7BDA
:1073A0000A7952122600022D6D900A9F1252AB7577
:1073B000830A7582A5E0C398FCA3E099FD7A207B3F
:1073C00000900CE5E0F912B93D2274F812020DEAC2
:1073D000FEEBFFEE7001EF700812744412736E80C2
:1073E00050900CE6E0C2E4F0D2E0F0900CE8E054FB
:1073F000BF1274647A4012743C54DF1274647A20B1
:107400001274367A997B0D7952122600900CE7E0BF
:10741000640270057901126F0B74FF6E700374FFC4
:107420006F70051274448009EEFCEFFD7A80124AF9
:10743000D679000223E97B0012745522127453900E
:107440000CE8E022900CE8E0547F1274647A801219
:107450007453227B00900CE5E0F912B96022900C85
:10746000E8E054EFF0A3E0F02274EB12020D8A0A78
:107470008B0B12C7F9850A82850B83A3A3A3A3E014
:10748000C3940250030277D5850A82850B83A3A398
:10749000E0F514A3E0F515851482F583E05403F5B7
:1074A00009740165097005750806800E7402650986
:1074B00070057508058003750808E0A2E5500A54B8
:1074C00018131313541FFA80027A00850A82850B61
:1074D00083A3A3A3A3E0C3950850030277D5EA7062
:1074E000030277D5E50A241AF582E50B12126860CB
:1074F00003027603E50A2412F582E50B120FFB1254
:107500003AE51277FA12581B7F00EF1277D8603CE9
:10751000EF75F02BA424DFF582E9340AF583E06CE3
:107520007003A3E06D7025EF75F02BA424E1F582C4
:10753000E9340AF583E06A7003A3E06B700EEF751F
:10754000F02BA424D3FEE9340AFF800B0FEFC39481
:107550000A40B77E007F00EE7001EF7003027645AF
:10756000EE2427120FF8C082C0838514828515830C
:10757000A3780C120669D083D082780C1206595079
:10758000030276457402650960030277D58514828B
:10759000851583E0540460030277D5EE7001EF7027
:1075A000030277ABEE2411121006600E851482855B
:1075B0001583E0540470030277ABEE2427120FF812
:1075C000C082C083900DC47810120669D083D08227
:1075D00078101205DC851482851583A3C082C083D0
:1075E000900DC4780C120669D083D082780C1205F5
:1075F000DC7810790C120529700302778275080176
:10760000027785E50A2412FAE50B3400FB126EA816
:107610008A0C8B0DAE0CAF0DEE7001EF6027127768
:10762000FA124FE17004A3E064FF70030275601268
:1076300077FA127817E0687003A3E06970030275A7
:10764000607E007F00851482851583E054047003FA
:1076500002759B850A82850B83A3A3A3A3E0FA8509
:10766000080C7404250C12780350030277D5EE70D1
:1076700001EF70030277D5EE241112100670030299
:1076800077D5EE2404FCEF3400FD7A3A7B0E12C568
:10769000D2851482851583A3858210858311780C89
:1076A00012066912783B851482851583E0900E4797
:1076B000F0851082851183780C120669900E4812AD
:1076C00078237A4C7B0E79E212259EA808850A82DF
:1076D000850B83A3A3E028F50CA3E03400F50D850A
:1076E0000A82850B83A3A3A3A3E0C39508F5081220
:1076F00077EFAA0EFB12C98075105475110E781021
:10770000120485780E12048585080E750F00780E18
:10771000120485AC0CAD0D7A3A7B0E7904129B8273
:1077200074061204B2E97047750E54750F0E780E88
:107730001204851277EF780E120485750E0D750F01
:1077400000780E120485750E47750F0E780E120420
:107750008585080E750F00780E120485AC0CAD0DF2
:107760007A3A7B0E7904129D62740A1204B2E970AF
:1077700064850A82850B83A3A3A3A3E024FCF00203
:1077800075A4750800851482851583A3780C1206EC
:1077900069EE2427120FF8127823E508600D7402B1
:1077A000650960268E828F831278117401650960E5
:1077B0000674036509700DEEFCEFFDAA0AAB0B120F
:1077C00079D4801174026509700BEEFCEFFDAA0AF2
:1077D000AB0B1278480220111277DE64FF2275F09D
:1077E0002BA4A9F024D3F582E9340AF583E022EE34
:1077F0002412F50EEF3400F50F22E50A242AF58253
:10780000E50B22F8E43400F9EA98E499C365D03333
:1078100022E0F9126E6922125A45123041240C12EC
:107820005A42221278272212782CF022E50CF0A37B
:10783000E50DF0A3E50EF0A3E50F22900E421278BD
:10784000277405900E46F02274F812020D8A828B7E
:1078500083A3A3A3A3E0C3940650030279C58A823D
:107860008B83A3A31242A4E01203540107C5797FBE
:107870007885788B7891789778F078F678557912C2
:10788000558E0279C51251050279C5125C5C0279E8
:10789000C51258240279C58A828B83A3A3A3A3E0CF
:1078A000640660030279C5EA241AF582EB12526D70
:1078B00060030279C5EC7001ED70030279C5EC122A
:1078C00079C9ED12100960118A828B83A3A3127902
:1078D000CFE0A2E240030279C5740F900CB31229E5
:1078E0004FE0900CB4F07AB37B0C1289380279C562
:1078F000127C440279C5EC7001ED70030279C590E9
:107900000CE7E0640960030279C5900E7BE0640235
:1079100060030279C5127CCD60030279C58A828B2F
:10792000831233268E828F83E0540470030279BC65
:10793000A3A3A3A3A3A3E060030279BC8A828B83E1
:10794000A3A3A3A3E0640B7073127CF1EEFAEFFB28
:10795000127F7A8070EC7001ED606A900CE7E06451
:10796000097062900E7BE06404705A127CCD7055F1
:107970008A828B83A3A3A3E0F97F008F82AC82EC81
:10798000127EF5E0FEE82CF582E9127FE86E7007C2
:107990000FEFC3940440E488828983E05404601CA0
:1079A000A3A3A3A3A3A3E070138A828B83A3A3A39F
:1079B000A3E0640B7006EFC39404500479BA80020C
:1079C00079001280AA0223E9EA2411F58222F8A3A1
:1079D0001216692274F812020DEC7001ED700302A8
:1079E0007AD98C828D83E0900CB4122030125E061E
:1079F000125E0C12035401020C7A007A047A087A9F
:107A00007E0F800A7E1480067E1980027E0074013B
:107A1000900CB3F0EA2430F582EB127AE54004745E
:107A2000FF8003E0C333900CB9125E455403640336
:107A30008A828B83A3A3700AE02408127B0F24F8A8
:107A40008008E02406127B0F24FA900CB8F0EA2498
:107A500023F582EB1212687015EA241BF582EB12F3
:107A60004FE17004A3E064FF700474018001E490AE
:107A70000CBA125E4554046006900CBA127AF18872
:107A8000828983E0540364037019900CBA127AE07F
:107A900088828983A3A3A3A3A3A3123AE5900CB67B
:107AA000127B0988828983A3A3A3A3A3E0900CB5CA
:107AB000F0EE601E900AA1E06E6017900AC2E0A28C
:107AC000E3500FEE900AA1F07A807B0012BE4412C0
:107AD0007B247AB37B0C1289380223E98E828F8350
:107AE000E0D2E2F022120FDAC39400A2D265D033C2
:107AF00022E0D2E1F022123AE9900E7CE02422F852
:107B0000A3E03400F988828983EAF0A3EBF022FC39
:107B1000A3E03400FD900CBBECF0A3ED1247A6A34C
:107B2000A3A3E022C082C083900CE6E0A2E050094B
:107B30007AA17B0A79E11226009009E3E0640270E1
:107B4000149009E5E0FA900AA1E06A600B126FCC8C
:107B50001248F5800BE06008900AA1E0F912491E76
:107B60009009FBE0C394035002E4F0022D6DC08243
:107B7000C083900CE6E0A2E0400C7A997B0D79522C
:107B8000122600126860022D6DC082C083900CE640
:107B9000E0A2E4500C7A9E7B0A7952122600127BF6
:107BA000AD7AA17B0A79E10273A3900CE6E0C2E012
:107BB000F02274F612020D900E7BE06004640170F6
:107BC00061900CEBE07033900E66E0FA900E65E089
:107BD0006A701F7AD27B0A79E51226007402900E31
:107BE0007BF0127CF1900AAC1254507B10124AD8F0
:107BF000804F900E66E004F0801475086775090EDA
:107C0000750A007808120481127CD91204B2900E11
:107C10007BE06401700779B91280AA8024127DD5B7
:107C2000801FE064037015900CEBE0700874049002
:107C30000E7BF080B0900CEBE0F980DCE064026039
:107C4000F40252B474F612020DEC7001ED607B90F8
:107C50000CE7E064097073900E7BE06403706B12B4
:107C60007CCD70668A828B83A3A3A3A3E064577044
:107C7000598A828B831227C3FEE9FF8E828F83A3EA
:107C8000A3A3A3A3A3E0FA900E66E06A701675089A
:107C90006775090E750A007808120481127CD912E2
:107CA00004B28005E0046A70218E828F83A3A3A3AF
:107CB000A3A3A3E0900E66F0127E7EE0FA900E651C
:107CC000E06A7006127CF1127EA00252B48C828DA2
:107CD00083E0FC900E64E06C227C107D00900E64CA
:107CE0001280A424E5FAE5F0340AFB12A49374038D
:107CF00022900CE8E0F0A3E054EFF07A007B101241
:107D000074552274F812020DE9FE900E64F075F0BD
:107D10002BA4127DB1A2E25008900AC2E0A2E24078
:107D20000A79B01280AA7900027DAE900E64127DAD
:107D3000BEE9340AFB1279C8EB120CE8F07C107D26
:107D4000007900EA2412FAEB3400FB12A5497C10FA
:107D50007D0079007A677B0E12A5497909126F0BB5
:107D6000900AC2E0A2E04012EE75F02BA424DFFAE4
:107D7000E5F0340AFB7950122600900E65E0F874A5
:107D80000128FCE43400FDEC75F03CA4FCAAF0757D
:107D9000F03CEDA42AFD7A007B10124AD8900E64C4
:107DA000127DC3900E7E125BD7127B6E7901022387
:107DB000E9A9F024E3F582E9340AF583E022127D93
:107DC000CDFA22127DCDF8E5F0340AF922E075F003
:107DD0002BA424D32274F112020D7B007A00795770
:107DE0001264F87002A3E0700879BE1280AA027EC5
:107DF0007B127F2274068E828F83A3A3A3A3A3F09A
:107E0000900E66127E8AF0EE2407F508EF1271EFED
:107E10007AD27B0912C980750A0512C4CA8A0C8BF2
:107E20000D8C0E8D0F850882850983780C120687CC
:107E3000900CEE780C120669850882850983A3A34D
:107E4000A3A3A3A3A3A3780C120687900CFC780C21
:107E5000120669900CEE780C1205EFAC08AD097AA9
:107E6000D27B0912C987E50824101271EB150AE5C7
:107E70000A70A7127E7E7494127E98020E3EEE2443
:107E800007FAEF3400FB12801922E08E828F83A361
:107E9000A3A3A3A3A3227414900CF2F012810322D3
:107EA00074F712020D1264F27002A3E0700779BE3B
:107EB0001280AA803D127F227407127FEDF508120E
:107EC00033AA850882A882E8127EF5E9F0127FD3F2
:107ED000E9F00508E508C3940440E41280041204A4
:107EE00085127F0E1204B2E97005127EFF80BF1268
:107EF0007E96023FAF2477F582E4340EF58322901C
:107F00000E7C127F0622123F32FB12A5C722790691
:107F1000900E7EE0FCA3E0FDEEFAEFFB12724874D7
:107F20000222900E7CE0242D125369127F5E7403AE
:107F3000127F50E012649C12555A127F55127F41F5
:107F400022FEA3E0FFEEFAEFFB126FF222900CF29A
:107F5000F0900E7E22F0900E7C123AF9E022F09022
:107F60000E7CE0242A127F6F22900E7CE0242BF8F6
:107F7000A3E03400F9888289832274F712020D8A03
:107F8000088B091264F27002A3E0700779BE1280B8
:107F9000AA803D127F227408127FEDFA8A82A8829D
:107FA000E50828F582E509127FE8C0E0127FD3D00A
:107FB000E0F00AEAC3940440E3128004120485123C
:107FC0007F0E1204B2E97005127EFF80BF127E960A
:107FD000023FAFEE28F582EF127FDC223400F583FA
:107FE000A3A3A3A3A3A3A322127FDCE0228E828FEC
:107FF00083A3A3A3A3A3F0E48E828F83A3A3A3A34D
:10800000A3A3F0228E828F83E0D2E2F0EE2405F566
:1080100008EF3400F50978082274F612020DEAFE22
:10802000EBFF900E641280A024E5F508E5F0340A19
:10803000F509750A0078081204817C107D007A67C2
:108040007B0E1280971204B27A008A82A882850A77
:1080500008EE2508121006F508900E641280A0FCA8
:10806000E824E5FAE4340AFBEC2AF582E5F03BF576
:1080700083E06508F074012808E43400F97A107B85
:108080000012012C050AE50AC3945040BD0252B407
:10809000FC7D00EEFAEFFB12A493740322900E0312
:1080A0001280A422E075F02BA42274F812020DE9CC
:1080B000FE127CF174B06E70047E008009EE6006E2
:1080C000900E641280F4900E64127811125812907F
:1080D0000E7BE0600964016005E06402700F7AD2F3
:1080E0007B0A79E512260074FF900A9BF0EE900C53
:1080F000820223E3127DCDF582E5F0340AF5837424
:10810000FFF022C082C08374FE1204FD9009E412C5
:108110007AF19009E3E064027003126FCC900AC216
:10812000E0A2E04036900E7EE07002A3E0601B907B
:108130000E7EE0240C1282077950122600900E7EEB
:10814000E024011282077953800E900ACD74FFF06B
:10815000A3F07ACD7B0A79501226007AA97B0A799E
:108160004E122600900CF2E0A2E7501A8518828584
:108170001983E4F0A31263977959122600900CF248
:10818000E0C2E7F080097AAA7B0A79591226007AC0
:10819000F37B0C79E1122600E0640470097CE87D31
:1081A000037A02124AD6900CF2E06404600AE0649A
:1081B000146005E06424700712820E7401800412BA
:1081C000820EE4F0900CEAE0C0E0900E7C1282187F
:1081D000D0E0F0900CEAE004F0900CF2E06009646A
:1081E000016005E06424700474028001E4900CF4E2
:1081F00012821FA3A3E0900CF5F0900E7C12831561
:108200007402022D5DE02AFAA3E03400FB22900EF6
:108210007CE0242F12535F22E0242E12535F22F0C1
:10822000900E7C123AF522C082C08374FF1204FDC6
:10823000900CF2E064047027E4851882851983F0BD
:10824000128323851882851983AA82AB83794E1203
:108250002600AA82AB83795912260079018002791F
:10826000007401022D5DC082C083900CF4E0900C7C
:10827000EC604BE07002A3E06059900CF2E06424E3
:108280007006900CEBE0603D128323900CECE02430
:1082900004123ADB900CF5120FBAE0C39AFA900C74
:1082A000F512554D900CEC12831C128206127B05C0
:1082B000900CF4E014F0900CEC1283158054E070F4
:1082C00002A3E0600E7AEC7B0C121DDC900CECE457
:1082D000F0A3F0900CE8E054FD1274647A0212747A
:1082E000369009E4E0C2E1F0700B9009E3E064022B
:1082F0007003124ABB900CE7E024FDC394075012B0
:10830000121C0E249CF582E9340DF58312332212DF
:1083100006AD022D6D123AE91218D822E02402129D
:1083200064CE221253FFE9F07AF37B0C79E1122636
:10833000002274F712020D74F71204FDE99008A0F0
:10834000F0128DD475080875090078081204857438
:10835000031206A3AC82AD837AE87B07791F12C5AE
:10836000F574021204B27A008A0874011206A3E5B9
:10837000822508F582E583128B5264FF70070AEAB2
:10838000C3940840E3EAC39408501074011206A392
:10839000AC82AD837A007984126B84E4851882857F
:1083A0001983F0AC82AD837A017970129655E07032
:1083B000167A2D7B95128E667401F0AC82AD83FA2D
:1083C000797012952D80077A557B96128E66E4900F
:1083D00008BCF09008E2F074FF900E01F01283E800
:1083E00074091204B202861E7A019008A0E0F91204
:1083F000C9BE2274F712020DEAFEEBFF74805FF92A
:10840000E47001E9601A9008A0E0F912A64FEA7042
:1084100001EB600312A5C7EEFA74806FFB0284A023
:10842000EEA2E0506A79011269EB7CCF7D087A00F8
:108430007960126B847CD17D087A007964126B8438
:108440007CD57D087A007962126B8474FF9008E015
:10845000F0900DF974E8F0A374031284A379631209
:108460006B84E4900DF9F07CF97D0DFA7966126B5E
:1084700084741E1284A37969126B8474011284A31C
:10848000796C126B8412605F74016EFAEF808D5408
:108490000260099008E2E06003128DC87A007B0058
:1084A00002861EF07CF97D0D7A002274F112020D15
:1084B00074FE1204FD8908ECFEEDFF7509008A8246
:1084C00085820AE9C3949050367468650870067511
:1084D00009B40285AE7CF97D0D7A0012689BE9F53E
:1084E00009750CF9750D0D750E00780C120481AC30
:1084F0000A7D00EEFAEF128E5F1204B20285AEE939
:10850000C394AF5019750A55750B96780A120485F5
:1085100012862374021204B2E9F5090285AEE9124B
:1085200003B70007B03B85B16E85B27385C09B85EC
:10853000C19F85C2A385C3A785AB85E49008E1F000
:10854000F50A851882851983AA82AB83A90A126964
:10855000C3E970069008E1E004F0050AE50AC39457
:108560000A40DF9008E1E08E828F83F0804090081F
:10857000E080F3851882851983AA82AB839008E096
:10858000E0F91269C3E9FA8A09702385188285190E
:1085900083E0F50CA3E0F50D0284E7741280C87443
:1085A0000A80C474CE80C0741080BC7509E8A90923
:1085B00074021204B27F0802031C74F712020DE960
:1085C000FEC39490501074686E700479B4804F7A32
:1085D00000126B848048EEC394AF501575082D755A
:1085E0000995780812048512862374021204B28059
:1085F0002DEE1203B701C0C3CB8503B0CB85B10606
:1086000086B213861C868C828D83E09008E0F07918
:1086100000800B9008E0E0FA796880B579E87F0285
:1086200002031C74EE12020D8A0D8C0A8D0B74125B
:108630001206A3E0F508A3E0F509890E750F007492
:1086400002780E1205A3E50E2499FEE50F3407FF0C
:10865000EE2480F582EF34FDF583E493F9850882FA
:108660008509831206ADE50864557004E509649632
:108670007031E9602EEE2482F582EF34FDF583E45B
:1086800093F508740193850810F5117512007810A0
:10869000120481AC0D7D00AA0AAB0B128E6012048D
:1086A000B279007F0B02031C74F812020D74FF12E2
:1086B00004FD7A557B96128E669008BDE012035435
:1086C00000021787CA86FD860B8785188285198365
:1086D000AC82AD837A00798312689BE9FE7019E061
:1086E000601B79001269EB9008D6E0A2E0402A7A7C
:1086F000007B001273CA802112B18D80267A017B23
:10870000009008A0E0F912A8718013128DD47A2D80
:108710007B95128E6680E67EE8EEF912B18D7A00C6
:108720001283EA74011204B27F0102031CC082C0EA
:1087300083E49008A6F09008C4E0FC748F5C4410B9
:108740009008A6F07A008013128CBCC0E0E824A741
:10875000F582E43408F583D0E0F00A128CB340E8E7
:1087600074019008AAF09008A274FFF0A3F090089A
:10877000A4F0A3F09008B1F09008D3E0F8A3E0F9DA
:108780009008BAE8F0A3E9F074019008B2F09008FC
:10879000B3F012879B12502A0289259008BCF07A08
:1087A000A27B0822C082C0839008BCE06401600AFA
:1087B000E064026005E0640370087404F0125087FE
:1087C000800FE0640570057406F0800579B412B17D
:1087D000C6028925C082C0839008A27430F0A374B9
:1087E00075F09008C4E0FC9008A4F07A00801312A1
:1087F0008CBCC0E0E824A5F582E43408F583D0E021
:10880000F00A128CB340E87A008013128CA3C0E007
:10881000E824A8F582E43408F583D0E0F00A747007
:108820005CC430E30244F0FBEAC39B40DE7AA27BE7
:1088300008124E6A028925124EC222EEC0E012636F
:10884000A3D0E0FE2274EF12020D74FE1204FD8923
:10885000088A0FECFEEDFF8B1074131206A3E0F5EF
:108860001174141206A3E0F50AA3E0F50B85188233
:10887000851983AA82AB831269C3E9FA8A09705405
:10888000E5089008A2F0E50F9008A3F09008A4EE88
:10889000F0A3EFF0E5109008A7F0E5119008A612FC
:1088A000879E124AE1E9FA8A097029850A0C850B2C
:1088B0000D750E00780C120481AC117D009008AA91
:1088C000E0FAA3E0128E5F1204B2740712879B12C3
:1088D0004B57800AE49008BCF0A90912B27F7402D9
:1088E0001204B27F0A02031C74F812020DE912038B
:1088F0005400010C89F98806897AFF7BFF1273CA3C
:1089000012B3430287287A007B0080F179E880F077
:108910001273CA12B35E22C082C0837A001283EA45
:10892000790012B38AD083D08222C082C08312839E
:10893000E8790012B3A580ED74F312020D74FE12F3
:1089400004FDEAFEEBFF9008E3E07002A3E0601193
:108950009008E3E0F8A3E0F58388821206AD028B6D
:10896000388E828F83A3858208858309EE2402F8DE
:10897000EF3400F9880A890B8E828F83E01203544A
:108980000110388BDF8AD28AC389388BF589FB893D
:10899000388BB08A498A388B388B388BA689C88A3D
:1089A000B68A158A018A9008D6E0A2E040077A00CC
:1089B0007B001273CA850882850983E0F912B18DA4
:1089C000028B38900E01E064FF7003028B388882BE
:1089D0008983E0FA900E01E06A6003028B38900E02
:1089E00002E0FB900E01128B4412B1E274FF900E74
:1089F00001F0028B38128B70028B38128C0C028BB8
:108A0000389008BCE064046003028B38E4F0F9128B
:108A1000B1C6028B38850882850983E0F50C701D8C
:108A20007CE87D037A027B009008A0E0F912B93D52
:108A3000E9FA8A0C700774019008E280B47BFF7A2F
:108A4000FFA90C12B1E2028B389008BCE06405600B
:108A50000AE06406704C750D018003750D00E41288
:108A60008B587029851882851983AA82AB838882E6
:108A70008983E0F91269C3E9701CEE241D128B4F43
:108A8000FB850A82850B83E0FA790080067BFF7AFA
:108A9000FF792212B1AAE50D7003028B3879240206
:108AA0008A0FE4F07BFF7AFF79B412B1AA028B3807
:108AB000128CCC028B38850882850983E0F912B2CA
:108AC0002FE0F912654980708882128B4212B1FD45
:108AD0008066E49008BC128B58F912B27F80598EE0
:108AE000828F83A3A3A3A3A3A3A3A312038A8E822B
:108AF0008F83A3A3A3A3A3E0F50D780D1204898EA1
:108B0000828F83A3A3A3A3A3A3A3E0F50D780D12E3
:108B100004898E828F83A3A3A3A3A3A3E0FB8E82E9
:108B20008F83A3A3A3E0FCA3E0FD850A82128B42FE
:108B300012B29B74041204B274021204B27F0602D1
:108B4000031C8983E0FA850882850983E0F922F510
:108B500082EF3400F583E022F0850882850983E006
:108B600022C082C0839008E3EAF0A3EBF0028925DB
:108B700074F612020D9008BCE064016003028C02DE
:108B80008A828B83A3A882A983E070727E0080080A
:108B90000CECC39406402E0EEA2417F582EB128DDE
:108BA000BEFCEE9C50588E08EA2508FCEB3400FD14
:108BB00074272CF582E43DF583E0FD74FE2DC3940B
:108BC0000E503B7C008C08E50824BEF582E4340896
:108BD000F583E0FF6D600574FF6F70B48808890944
:108BE000750A0078081204817C317D007AC87B0DFB
:108BF000128E601204B274029008BCF080097403F3
:108C000080F6E0640260F77F0302031CC082C08329
:108C10009008BCE064027073900DC9E09008A2F067
:108C2000900DCAE0F8A3E0F99008ABE8F0A3E9F0F2
:108C30007CCC7D0D7AA37B0812C5D2128DB2800C3C
:108C4000128CBCC0E0128DA7D0E0F00A128CB340A9
:108C5000EF7A00800C128CA3C0E0128D9CD0E0F063
:108C60000A74705CC430E30244F0FBEAC39B40E545
:108C70009008D6E0A2E2500474248001E49008B881
:108C8000F0740512879B1256898015E06401600517
:108C9000E06403700BE4F07BFF7AFF792112B1AA44
:108CA0000289258A82A882E824C8F582E43408F57E
:108CB00083E02274065CC313FBEA9B228A82A882AB
:108CC000E824C5F582E43408F583E02274F7120243
:108CD0000DEAFEEBFFEE2430128B4FFA9008B8F04D
:108CE0008A08EE2416F582EF128DBE601A9008E213
:108CF000E06014EE2426128B4FF50974FF6A7004AD
:108D000074B18005E4800274B49008A2F07A027B0A
:108D1000009008A0E0F912B960128DB2800C128C9C
:108D2000BCC0E0128DA7D0E0F00A128CB340EF7AFD
:108D300000800C128CA3C0E0128D9CD0E0F00A746D
:108D4000705CC430E30244F0FBEAC39B40E58E82D2
:108D50008F83A3A3E0F8A3E0F99008A3E8F0A3E9C8
:108D6000F0EE2404FCEF3400FD7AA57B0812C5D296
:108D70007AA27B08125A5E9008A2E07013E5089070
:108D80000E01F0E509900E02F0E49008E2F080098F
:108D90009008E2E06003128DC802861EE824B1F557
:108DA00082E43408F58322E824AEF582E43408F541
:108DB00083229008C4E0FC9008ADF07A00223400D1
:108DC000F583E05406C31322E4F07BFF7AFF792396
:108DD00012B1E22274F612020D74019008BDF07413
:108DE0000F9008D6F07C067D0079007ABE7B0812D1
:108DF000A54974029008BEF074129008C4F0740182
:108E00009008C5F09008C8F09008CF7410F0A3E463
:108E1000F09008D1744AF0A37401F09008D7740759
:108E2000F0A3E4F075084E75090DF50A78081204F0
:108E3000817A4E7B0D12A48F8A088B097401250854
:108E4000FCE43509FD7AD97B08128E601204B290D9
:108E500008D37464F0A3E4F09008D5F0028C07FB0B
:108E600012A49374032274F612020DEAFEEBFF754E
:108E70000A00850A08750900740278081205A3E53E
:108E8000082499F8E5093407F988828983A3A3E4C3
:108E900093FC740193FD88828983A3E493FA88820A
:108EA0008983E493F98E828F831206AD050AE50A61
:108EB000C3940C40BD028C0774F512020D74FC12B1
:108EC00004FD7E00E4900812F090080FF07F1D75FD
:108ED0000804750900780812048574021206A3AC10
:108EE00082AD837A007B00EF1294B71204B285182A
:108EF00082C082C083900D3D7808120669D083D06D
:108F000082780812053E701690080FE0600DF91285
:108F10009021EFF9129021E4F08029EF80FA851872
:108F200082851983C082C083900CF8780812066984
:108F3000D083D082780812053E7004EFFE8005EFE2
:108F4000F91290210FEFC3941F408490080FE07036
:108F500026EE7018791D128F869008107404F0A305
:108F6000E4F0900812E0601979008017F012907315
:108F7000EEF912926C800AEE6004F9128FC412901E
:108F800073790102916074F512020D74FC1204FDF4
:108F9000E9FE900D3D7808120669851882851983CF
:108FA0007808120687851882851983AC82AD837A8A
:108FB000007B001294BE900812E07005EE90080F3E
:108FC000F002916074F512020D74FF1204FD89081D
:108FD000794E12CB2AE96006900812E0600874010D
:108FE000900812F08036A90812C6E17E007F007555
:108FF0000A01750B00780A12048574021206A3ACEC
:1090000082AD83EEFAEFFBA9081294B81204B28580
:109010001882E064FF70C712906740D37401029118
:109020006274F512020D74FF1204FD89087E007F40
:1090300000750A01750B00780A1204857402120685
:10904000A3AC82AD83EEFAEFFBA9081294B8120428
:10905000B2851882E064FF6007A908128FC48005FA
:1090600012906740CC80B5EE24010EEF3400FFC3B0
:1090700094082274F512020D74FC1204FD7EFC7F2C
:109080000775080475090078081204857402120631
:10909000A31294AB1204B2851882851983C082C0D2
:1090A00083900D417808120669D083D08278081227
:1090B000053E7011EE24FCFEEF34FFFFC3EE940476
:1090C000EF940050BC12964AE8F0A3E9F0029160D8
:1090D00074F512020D74FC1204FD8909EAFEEBFF1F
:1090E0008C08EE24FCFEEF34FFFFC3EE9404EF94F3
:1090F000004069750A04750B00780A120485740231
:109100001206A3AC82AD83EEFAEFFBA9091294B864
:109110001204B274021206A3E0F8A3E0F9851882E3
:1091200085198385080AE0650A7002A3E0700AEEDB
:10913000C398FAEF9400FB8027748059FBE4700118
:10914000EB709F740428FAE439FBC3EE9AEF9B405E
:1091500008EEC3981293FF809012C22D7A007B0014
:1091600074041204B27F0402031C74ED12020D7425
:10917000FC1204FD890AEAFEEBFF8C0B7417120641
:10918000A3E0F50EA3E0F50F74191206A3E0F50CA9
:10919000A3E0F50D85188285198374FFF0A3F0A86C
:1091A0000E7480450FF974021206A3E8F0A3E9F0EB
:1091B000E82EF508E50F3FF509851882851983AC7F
:1091C00082AD83AA08FBA90A1294BE74021206A3F8
:1091D0001292517402780E120678E50EF51090087E
:1091E00012E0704E750F00780E120485AC0CAD0DB8
:1091F0008E0E8F0F7402780E120678850A12F51300
:10920000740978121205A3250EFAE513350FFB1227
:10921000C66F74021204B2E510F50E780E120489BE
:10922000AC0CAD0DEEFAEFFBA90A12941474011206
:1092300004B2850B0CE50C851882851983F0A374A4
:109240008012925712925174041204B27F0C0203DE
:109250001CE0F0A3E0547FF0851882851983AC826E
:10926000AD83AA08AB09A90A1294BE2274EB1202BC
:109270000D74F81204FD8910750DFF741D651070D2
:1092800005750C1E8003750C1D750A04750B009086
:109290000810E024FCFEA3E08005EE24FCFEEF3481
:1092A000FFFFC3EE9404EF940050030293DB900899
:1092B00012E060030293F57508047509007808123E
:1092C000048574021206A3AC82AD83EEFAEFFBA90B
:1092D000101294B81204B2851882E064FF7004A3DF
:1092E000E064FF703574021206A3E0F8A3E0F9749D
:1092F0008059FBE47001EB70A1740428F8E439F99B
:10930000C3EE98EF99400D74021206A312940B124B
:1093100093FF808D12C22D0293F5851882851983E3
:10932000A3E05480F9E47001E970DC8518828519A6
:1093300083850D08E065087002A3E060CA85188285
:10934000851983E0F50DFCAA0AAB0BA90C1290D08D
:10935000EA7001EB70B174021206A312940BF508C7
:10936000EF99F50988148915750E00750F007512AF
:1093700004751300781212048574061206A3AC82D9
:10938000AD83E50E2508FAE50F35091294B21204F3
:10939000B274041206A3AC82AD83E50E250AFAE589
:1093A0000F350BFBA90C1294BEE50E2404F50EE557
:1093B0000F3400F50FC3E514950EE515950F50AE6B
:1093C00074021206A3E02404F8A3E03400F9E50ACD
:1093D00028F50AE50B39F50B029307A90C128F86C5
:1093E000900812E0700A900810E50AF0A3E50BF06F
:1093F000A910128FC474081204B27F0E02031CF865
:10940000EF99F974FC28FE74FF3922E0F8A3E0F923
:10941000EEC3982274F112020D74FC1204FD890F40
:10942000EAFEEBFF8C0A8D0B74131206A3E0F5091C
:109430008014EE2404FEEF3400FFE50A2404F50A4C
:10944000E50B3400F50B85090874FF2508F509E5DF
:1094500008604E750C04750D00780C1204857402BA
:109460001206A3AC82AD83EEFAEFFBA90F1294B8FB
:109470001204B2850A0C850B0D750E00780C1204CF
:10948000817C047D0074031206A3A982AA837B0059
:1094900012A4D974031204B2E970977401900812EF
:1094A000F074041204B27F0802031CAC82AD83EE98
:1094B000FAEFFB90080FE0F912C5F574022274F27E
:1094C00012020D890E8A088B09ECFEEDFF9008123E
:1094D000E0704B750A01750B00780A1204858A0A40
:1094E0008B0B7402780A120678890CF50D740978D2
:1094F0000C1205A3250AFAE50D350BFB12C66F7495
:10950000021204B2750A01780A120489EEFCEFFD1A
:10951000AA08AB09A90E12941474011204B27F07B1
:1095200002031C128EB8E9700312C22D2274F112CC
:10953000020D74FB1204FD89098A088C0A8D0BAC9C
:109540000912968B8A0C8B0DAE0CAF0DEE7001EFED
:109550006050750E00803B750C01750D00780C1283
:10956000048574021206A31294AB1204B285188209
:10957000851983E0FA850E0CE50A250CF582E50BCA
:109580003400F583E06A701AEE24010EEF3400FF18
:10959000050EE50EC3950840BEE508650E70030292
:1095A000964385080C7403250CF8E43400F97A041A
:1095B0007B0012012C880C890D7402780C1205A313
:1095C000AE0CAF0D900810E02EF8A3E03FF9740444
:1095D00028F8E439F9C3E89401E994084036900C7E
:1095E000F8780C12066974011206A3E50CF0A3E5E5
:1095F0000DF0A3E50EF0A3E50FF074011206A3AC85
:1096000082AD837A007B0090080FE0F91294BEE0EF
:10961000F912926C780A1204858E0A8F0B780A125E
:109620000485AC0912969212916A74041204B290E5
:109630000812E06004790A800C12964AE028F0A330
:10964000E039F0790074050294A374042EF8E43F25
:10965000F99008102274F512020D890A8A0BECFEAB
:10966000EDFFAC0A12968BEA7001EB6019850B08CE
:109670007509007808120485EEFCEFFD1294B31210
:1096800004B279008002790A0291651296921290D2
:10969000D022900810E0FAA3E0FB90080FE0F92236
:1096A00074E912020D74ED1204FDE9851882851922
:1096B00083F074011206A3ECF0A3EDF0742A1206F5
:1096C000A3129B66742C1206A3E0F516A3E0F5170F
:1096D000742E1206A3E0FEA3E0FF8518828519838D
:1096E000E070030299BD74031206A37401F0EE70DA
:1096F00001EF60037441F0851882851983E024FE30
:10970000333354FCFC74031206A3E04C129D571231
:1097100004817C0D7D0074071206A3AA82AB83121C
:109720009B7C1204B274111206A3E511F07412129C
:1097300006A3E510F07C107D00790074321206A3B8
:10974000129B6E12A549750820750900C3EE940F8F
:10975000EF9400402D74F22EF874FF3FF974F05826
:10976000F8742028F508E439F509EE24F2540F6066
:1097700004781080027800E50828F508E50934002F
:10978000F509E510540FF50F60047A1080027A0095
:1097900074F05510F874FF5511F9EA28F8E439F916
:1097A000E50828F508E50939F509AA08FB12BF0400
:1097B0008A148B15EA7001EB700579100299BF7459
:1097C000031206A3A982AA83890C8A0D750E00785C
:1097D0000C1204817C107D00AA14129B7C1204B22E
:1097E000E5142410F50AE5153400F50BEF850A821F
:1097F000850B83F0A3EEF0A385820A85830B851683
:109800000C85170DC3940FEF9400400B780C1204D5
:10981000817C0E7D0080167C0E7D007900AA0AAB4B
:109820000B12A549780C120481EEFCEFFD129B7817
:109830001204B2E50A240EF50AE50B3400F50BC359
:10984000EE940FEF940050030298CCEE24F2FEEF5A
:1098500034FFFF8E128F137404781212067885126B
:109860000C85130DEE540FFE7404780C1205A385BD
:109870000C128F13E516240EF50CE5173400F50DC8
:10988000780C120481AC12AD13129B781204B2E56D
:109890000A2512F50AE50B3513F50BEE602E7C1048
:1098A0007D007900AA0AAB0B12A549E5162512F82E
:1098B000E5173513F9740E28F50CE439F50D780C1D
:1098C000120481129B741204B2129B537404781018
:1098D00012067885100C85110DAE0F7404780C12E9
:1098E00005A3850C10850D1174011206A3129B604F
:1098F000120481AC10AD11129B781204B2E50A2556
:1099000010F50AE50B3511F50BEE602B7C107D0090
:109910007900AA0AAB0B12A54974011206A3E0252F
:1099200010F50CA3E03511F50D780C120481129B93
:10993000741204B2129B53E50AC39514F8E50B9513
:1099400015F9E865087003E96509600312C22D1274
:109950009D4643B350E5B374321206A3129B6E12B8
:109960009B4685140A85150B7404780812067874D2
:10997000FF2508F50C74FF3509F50D800AAA0AAB1E
:109980000B12C8E0129B53A80CA90D74FF28F50C0C
:1099900074FF39F50DE87001E970E2129D4685B358
:1099A000B37A0FEA1A70FCAC0AAD0B74321206A33C
:1099B000129B6E12C8FBAA14AB1512C00A79007470
:1099C000131204B27F1002031C74EA12020D74DE3B
:1099D0001204FD851882851983ECF0A3EDF0EAFEF0
:1099E000EBFF74381206A3E0F508A3E0F509743C18
:1099F0001206A3129B6685100CF50D750E00780CEF
:109A0000120481E9FC7D0074151206A3AA82AB83BF
:109A1000129B7C1204B274021206A37401F08E0C25
:109A20008F0D780C1204817C0D7D0074061206A344
:109A3000AA82AB83129B7C1204B274111206A3E4B7
:109A4000F074101206A3E4F085080A85090B74046B
:109A5000780A120678AE0AAF0BE508540FF50F60CE
:109A600008EE24010EEF3400FF8E0A8F0B74047889
:109A70000A1205A3AA0AAB0B12BF048A0A8B0BEACF
:109A80007001EB70057910029B3C85188285198363
:109A9000129B60120481AC08AD09129B7C1204B2C7
:109AA000E50F601BF50C7410C3950CFCE49400FDED
:109AB0007900E50A2508FAE50B3509FB12A54912DC
:109AC0009D3D1206A3129D331206A3AC82AD83AA5C
:109AD00010AB1112C927129D4C1206A37401F07429
:109AE000021206A3AA82AB83129B46850A0C850B41
:109AF0000D800EAC0AAD0BAA0AAB0B12C927129B44
:109B000053EEF8EFF974FF281E74FF39FFE8700177
:109B1000E970E0850C14850D157516007814120493
:109B200081AC08AD0974031206A3129B6E129B7CD4
:109B30001204B2AA0CAB0D12C00A790074221204EE
:109B4000B27F0F02031C129B4A2212C96B53B3F857
:109B5000E5B322E50A2410F50AE50B3400F50B22E3
:109B6000129D2B780C22E0F510A3E0F51122E0FA0B
:109B7000A3E0FB22EEFC7D00AA0AAB0B12A49374B7
:109B8000032274EA12020D74DE1204FD890F8C1296
:109B90008D1374381206A3E0FE74021206A374013A
:109BA000129D571204817C0D7D0074061206A3AA33
:109BB00082AB83129B7C1204B274111206A3E4F0F0
:109BC00074101206A3E4F0EEC3950FF50AC4540F07
:109BD000FE7F00740F550A60010E7C107D00790035
:109BE00074121206A3AA82AB8312A549850A08E55E
:109BF000122508F8E5133400F9851882851983E8E1
:109C0000F0A3E9F0850F828582108518828519837B
:109C1000129D2B8F0E780C120481AC107D007415F0
:109C20001206A3AA82AB83129B7C1204B2129D3D42
:109C30001206A3129D331206A3AC82AD83743C12AC
:109C400006A3129B6E12C9278E088F097404780828
:109C50001205A385080C85090DAA0CAB0D12BF04D3
:109C60008A148B158A088B09EA7001EB700579104C
:109C7000029D28AC0CAD0D790012A54985120C850A
:109C8000130D780C120481AC0A7D00AA08AB0912EE
:109C90009B7C1204B2129D4C1206A37401F0740254
:109CA0001206A3AA82AB8312C96B74F855B344029F
:109CB000F5B385080C85090D8017AC08AD09AA0815
:109CC000AB0912C927E5082410F508E5093400F5A9
:109CD00009EEF8EFF974FF281E74FF39FFE87001F0
:109CE000E970D77516007814120481AC0A7D00AAB9
:109CF00012AB13129B7C1204B2AA0CAB0D12C00A59
:109D0000743C1206A3E0F508A3E0F509750A007893
:109D100008120481AC107D0074031206A3129B6E1E
:109D2000129B7C1204B27900029B3CE0F50CA3E08C
:109D3000F50D22AA82AB83129B4A741222129D4611
:109D400043B32074022253B38FE5B322129D4643DE
:109D5000B330E5B3741122F08A088B09750A0078D4
:109D6000082274EF12020D8908ECFEEDFF74111247
:109D700006A3E0F874131206A3129B66741512066C
:109D8000A3E0F50EA3E0F50F74171206A3129D2BA6
:109D900074191206A3E0F50AA3E0F50BE970077940
:109DA000007F0A02031CE8C39508F509780A12042B
:109DB00085780C120485780E1204857810120485BB
:109DC00085090C750D00780C1204851296A0740A92
:109DD0001204B2E970CB7A0080010AEAC3950850F8
:109DE000C0AC0974012CF5098A0CE50A250CF58232
:109DF000E50B3400F583E0FB8C0CEE250CF582EFCF
:109E00003400F583E06B60D27901809574F812021A
:109E10000D74E31204FDE99007FFF074019008024D
:109E2000F0FA12C9BE7401851882851983F01206F2
:109E3000A37404F074021206A3E4F074031206A3E0
:109E40007430F0A3E4F0740A1206A37480F0A3E463
:109E5000F074121206A37480F0A3E4F074051206E5
:109E6000A37406F074161206A37401F0741B120694
:109E7000A37400F0A374A0F0851882851983AA82C8
:109E8000AB83790012AEF3741D1204B27F0102039A
:109E90001C74F112020D8A0A8B0B7480550BF9E4C5
:109EA0007001E9706F7440550BF9E47001E97003BB
:109EB000029F5E12A08BAA0A7440650BFB029F747E
:109EC00074206A7048E0541FF0798012A16D8A0EE8
:109ED0008B0FA80EA90FE8FEE9FFE87001E9602DDD
:109EE000750E00780C1204817C807D0012A493749E
:109EF000031204B2EEFAEFFB12AF4E8E828F83A3F1
:109F0000E0541F4460F0EEFAEFFB12A022AA08AB67
:109F10000912A5C79007FFE0F912A64F8A088B091E
:109F2000EA7001EB60318A828B83E0640170DEA30A
:109F3000A3E0F50CA3E0F50D850C82F583A3E054B6
:109F4000E0FA74406A6003029EC0E0541FF0AA0C5D
:109F5000AB0D12AFF680B6AA0A7480029EBA7420C6
:109F6000550BF9E47001E960077420650BFB800470
:109F70007A007B007F0802031C74F212020D8A082B
:109F80008B098A828B83E0F912A16D8A0A8B0BA858
:109F90000AA90BE8FEE9FFE87001E9604FE08E8254
:109FA0008F83129FF7E0541F44408E828F83129F4D
:109FB000F1E08E828F83A3129FF1A3A982AA8389E5
:109FC0000C8A0D750E00780C1204818508828509B3
:109FD00083E0FC7D00EE2403FAEF3400FB12A4932F
:109FE00074031204B2EEFAEFFB12A0227F07020301
:109FF0001CA3129FF7A322F0850882850983A32260
:10A0000074F812020DEA1203B701010217A002044C
:10A0100017A0101CA01FA012A198800312A08B02F1
:10A020009E8C74F712020DEAFEEBFF8E828F83E0A6
:10A030002403F508900802E0D2E1F012A080A908FC
:10A04000EEFAEFFB12A3A3EE2508F582EF3400F53C
:10A0500083E9F0EE24FF1EEF34FFFF74FE8E828F43
:10A0600083F0EEFCEFFD12A06C02A1937A007B0856
:10A0700012A6F47A007B409007FFE0F912A8712243
:10A080007A019007FFE0F912C9BE2274F712020D9F
:10A09000900805E07002A3E0600302A12C7A007B27
:10A0A0000812A74E8A088B09A808A909900805E894
:10A0B000F0A3E9F0900807E8F0A3E9F0E87001E9FF
:10A0C000606AE0F5838882E070489008037401F0CC
:10A0D000A3E4F0900803E0FCA3E0FD90080712A3BE
:10A0E0005D790012AF158A088B09AC08AD0990089C
:10A0F00003C3E09CF0A3E09DF0900803E07002A38E
:10A10000E0704690080512A379900805E4F0A3F0EA
:10A11000805990080812A387E0F8740528F8E43401
:10A1200000F9900803E8F0A3E9F0800A900805E040
:10A130007002A3E06026900803C3E09481A3E0943A
:10A140000040907C807D008092900807E02CF8A36E
:10A15000E03DF9900807E8F0A3E980B3900802E039
:10A16000C2E1F0E070057A0012A082802674F71236
:10A17000020DE9FE8E0874052508FAE43400FB128E
:10A18000A45F7002E5836007A3AA82AB8380047A90
:10A19000007B007F0202031C74F712020D74FF1291
:10A1A00004FDE9FE803590080D12A3637401F012DE
:10A1B000A36C90080DE02404FAA3E03400FB88822D
:10A1C0008983EAF0A3EB12A39DC0E0888289831201
:10A1D000A363D0E0F07401900809F0EEF912AF2CFF
:10A1E000EA7001EB607D7C017D0085188285198312
:10A1F000AA82AB83EEF912AF0212A36CE8FAE9FB74
:10A20000900809E01203540005DBA117A26BA27F9E
:10A21000A226A29BA21CA3851882851983E064FE56
:10A2200070B9740380B1851882851983E064FE607B
:10A23000AAE090080AF0E490080C12A39DF87407B5
:10A2400028FAE43400FB12A57190080DEAF0A3EBA4
:10A25000F090080DE07002A3E0600302A1A6E49074
:10A260000809F074011204B202A1938518828519BD
:10A2700083E0C0E012A380D0E0F0740202A1D78591
:10A280001882851983E0C0E012A380A3D0E012A356
:10A290009D700302A317740402A1D7851882851943
:10A2A00083E0C0E090080CE0F88A828B8312A38ED2
:10A2B000D0E0F090080CE004F0EEF912AF2CEAFFC9
:10A2C000E0F890080DE0FAA3E0F5838A82A3A312D8
:10A2D000A38EAA82AB8390080AE0C398FCE49400A2
:10A2E000FD8F08C3EC9508ED9400A2D265D03340F1
:10A2F00010AC087D00EEF912AF0290080CE02F8040
:10A3000009EEF912AF02E090080CF0E0FA90080AAA
:10A31000E06A600302A1DB740502A1D7851882857B
:10A320001983E090080B12A39D2403F98A828B8382
:10A3300012A35D12A3A3E9FA90080BE06A90080D3E
:10A34000700D12A35D9007FFE0F912A5F0800A12CC
:10A35000A3797A007B2012A077E402A1D7E0FAA3C8
:10A36000E0FB22E0F8A3E0F58388822290080DE06C
:10A370002402F8A3E03400F92212A35D12A5C7223B
:10A380008A828B83E0F8A3E0F5838882A322E02809
:10A39000FAA3E034008A82F583A3A3A322F09008F5
:10A3A0000AE02274F812020DE9FD79007C00800EAB
:10A3B0008A828B83E0C969F90CA3AA82AB83ECC3C0
:10A3C0009D40ED029E8CC082C083900802E0C2E0F6
:10A3D000F0E070057A0012A0825386BFE5A8C2AFF4
:10A3E00053FDFB43FD0853F3FB438F04438C0143B0
:10A3F000AB04D2BD7589F0C2C5A2E792AFD083D0BD
:10A400008222C0E074F112026DA2AFE492E0FED2AB
:10A41000AFE589A2E2503B900802E0D2E0F0751A65
:10A4200000C2BD53ABFB53FDFB43FD0843F30CE5FA
:10A43000F343864012A0807A017B0012A45F700271
:10A44000E5836009E4F0AC82AD8312A06C758900ED
:10A45000C2C5751A00EEA2E092AF7F020202CC12D2
:10A46000A5718A828B83E582223274F712020D7401
:10A470000555867011790012AF2CEA7001EB700659
:10A48000900802E0600479018002790002A1931231
:10A49000CB0E2274F612020DEAFEEBFF740A1206CE
:10A4A000A312A6E6A3E0A908AA09FB8E828F8380E7
:10A4B0000D120498F0E9240109EA3400FAA3ECFE35
:10A4C000EDFF74FF2E1C74FF3FFDEE7001EF70E195
:10A4D000AA82AB837F0302031C74EE12020D741276
:10A4E0001206A3E0F510A3E0F511A3E0F512890828
:10A4F0008A098B0A85100C85110DECF8EDF974FFB3
:10A50000281C74FF39FDE87001E96036A908AA0922
:10A51000AB0AE92401F508EA3400F509850C108539
:10A520000D11E50C2401F50CE50D3400F50D1204B8
:10A5300098FEA910AA11AB121204986E60BC7900A3
:10A54000800279017F0B02031C74F712020DE9FEF1
:10A550008C088D097808120485EEFC7D0012CADF94
:10A5600074021204B202A7A0A2E092AF7F0102031C
:10A570001C74F712020DEAFEEBFFEE7001EF70069D
:10A580007A007B00803E74052EFAE43FFB12BF0484
:10A590008A088B09A808A909E87001E960E28882A5
:10A5A0008983E4F0A3F088828983A3A3EEF0A3EF6C
:10A5B000F074FF88828983A3A3A3A3F0E82405FA9B
:10A5C000E93400FB02A7A0C082C083EA7001EB70EF
:10A5D000047905801612A64160047904800DEA24EE
:10A5E000FBFAEB34FFFB12C00A7900D083D0822241
:10A5F00074F812020DE9FEEA7001EB70047905802F
:10A600003D900D3CE0FCE9C39C400712A5C77903CF
:10A61000802C12A813E07002A3E0700512A641601E
:10A620000512A5C780D7EEF0EAFCEBFD7A807B012E
:10A6300012A6F47A007B80EEF912A871790002A5C7
:10A640006CEA24FFF582EB34FFF583E064FF2274AB
:10A65000F312020D890B750C00750D007E007F0052
:10A66000A2AFE492E0F50AC2AF9001808017EE70CD
:10A6700001EF700685080C85090DE50824FBF582BD
:10A68000E50912A81912A6E6E5087002E509602599
:10A69000E50824FFF582E50912A819E0650B70CEE4
:10A6A000EE7001EF7006AE08AF0980CE7A007B80B5
:10A6B00012A871800D7A007B8012A8B0EE7001EFB5
:10A6C0006015780C120485EEFCEFFD7A807B011298
:10A6D000A7A574021204B2E50AA2E092AFEEFAEF67
:10A6E000FB7F0602031CE0F508A3E0F50922E0FA6F
:10A6F000A3E0FB2274F812020DA2AFE492E0FEC2C6
:10A70000AFEC24FBF582ED12A819E4F0A3F012A738
:10A71000437001E970098A828B83801012A81E128F
:10A72000A7357002A3E08882898370F0ECF0A3ED76
:10A73000F0EE02A568E824FBF8E934FFF988828985
:10A7400083E0228A828B83E0F8A3E0F9E82274F7A1
:10A7500012020DEAFCEBFD7A007B00A2AFE492E06E
:10A76000F508C2AF8C828D8312A7477001E9602A79
:10A77000E8FAE9FBEA24FBF8EB12A73AFEA3E0FFB4
:10A780008C828D83EEF0A3EFF088828983E4F0A3BE
:10A79000F0EA24FF12A81674FFF0E508A2E092AFD9
:10A7A0007F0202031C74F612020D740A1206A31231
:10A7B000A81EA2AFE492E0F50AC2AFEC24FBFEEDC6
:10A7C00034FFFF8A828B8312A6E6EC65087003EDE6
:10A7D00065098E828F83700D12A81E8A828B83E892
:10A7E000F0A3E9801012A6EEE824FBF582E912A896
:10A7F00019EAF0A3EBF08E828F83E4F0A3F0EC244F
:10A80000FFF582ED12A81974FFF0E50AA2E092AFFD
:10A8100002A4D4EA24FBF582EB34FFF58322E0F8AE
:10A82000A3E0F92274F712020DE9FE750800A2AF49
:10A83000E492E0FFC2AF12A7437001E970108A8270
:10A840008B83801BEE60208882898312A81E1E12D3
:10A85000A7357002A3E070ECEE600C88828983EC6F
:10A86000F0A3EDF0750801EFA2E092AFA90802A7EE
:10A87000A074F812020DE9FD900D3CE0FCE9C39CC8
:10A880005029E5A8FEC2AFEDC333F8E433F99007D1
:10A89000FDE028FCA3E0398C82F583E04AF0A3E0D8
:10A8A0004BF0EEA2E792AF79008002790302A56C2B
:10A8B00074F812020DE9FE900D3CE0FCE9C39C50D7
:10A8C0001EE5A8FFC2AFEAF4FCEBF4FDEE12A9D836
:10A8D0005CF0A3E05DF0EFA2E792AF79008002792F
:10A8E0000302A56CE9FA74FF6A7005D2AF79002201
:10A8F000790722E9FA74FF6A7005C2AF79002279FC
:10A900000722C082C08312BE7E900180E4F0A3F0D3
:10A9100012B82112C9A012C86912BEE0790002A5BE
:10A92000EB74F512020D750800751A0112C3C912F5
:10A93000CAA3E50812A9D87002A3E0700D0508901B
:10A940000D3CE0FAE508C39A40E8900D3CE0FAE5DA
:10A9500008C39A505BE5A8FCC2AFE508C333FEE428
:10A9600033FF9007FDE02EF8A3E03FF9888289834A
:10A9700012A6EE88828983E4F0A3F0ECA2E792AFFE
:10A98000A908EE2430F582EF340DF58312A9CF1219
:10A9900006ADE5A8FDC2AF9007FDE02EFCA3E03FA9
:10A9A0008C82F583E04AF0A3E04BF0EDA2E792AF92
:10A9B000A2AF400312C22D900D3CE0650860030277
:10A9C000A926E51A700302A92612CA0802A926E0E0
:10A9D000F8A3E0F583888222C333F8E433F99007C3
:10A9E000FDE028FAA3E0398A82F583E022C082C024
:10A9F0008353FF3FE5FF85FFFF53F1FE43F30CE573
:10AA0000F353F2F3E5F275868075C4807470900597
:10AA1000C0F074C19005C1F09005C2E0541FF074FD
:10AA20000F9005C4F0744A9005C5F074709005B697
:10AA3000F074C19005B7F09005BAE0541FF074CEE1
:10AA40009005BCF09005BDE0540F4410F0740590E3
:10AA500005B8F074EE9005B9F074809005BBF0E491
:10AA60009005BAF074129005BD02AE97C082C08303
:10AA7000EA241BF582EB3400F583E0F8A3E0F990BB
:10AA800007FAE8F0A3E9F08A828B83A3E0FC740361
:10AA90006C600574046C700575C2D8800375C23B88
:10AAA000E01203540003CCAAB0AAB7AABEAAC5AA52
:10AAB00075C5087423801A75C5097412801375C58D
:10AAC0000A7409800C75C50A7406800575C50B7477
:10AAD000039007F6F08A828B83A3A3E0600D75C410
:10AAE0004243F310C28543FD20800375C402907079
:10AAF000C1E09005EEF0A3E4F075D1F775D608FC3F
:10AB00007D0174FF65C2F97AEE7B0512A549438683
:10AB100040E49007F9F09007F802AE9774F712023C
:10AB20000D7800790080338A828B83E508F0A3AA30
:10AB300082AB8385C20874FF6508F50912AB78E41F
:10AB4000F0A3E509F09006EEE004F0C39480400223
:10AB5000E4F0E8240108E93400F9C3E89CE99D50D9
:10AB60000C12AB78E0F508A3E065C260BAC285E8D4
:10AB7000FAE9FB7F0202031C9006EEE0C333FEE419
:10AB800033FFEE24EEF582EF3405F5832274F112E3
:10AB9000020DEAFEEBFF12AE252CF8E43DF9C3E806
:10ABA0009481E9940040077A007B0002AC4DE5A84F
:10ABB000FAC2AF9007F412AC73EAA2E792AF7A0040
:10ABC0007B00801A12AC52C0E085080A750B007435
:10ABD00007780A1205A312AC5CD0E012AC82C3EA7B
:10ABE0009CEB9D40DFA2AFE492E0F508C2AF900776
:10ABF000F4E0650F6039E508A2E092AF12AC737A19
:10AC0000007B00801A12AC52C0E085080A750B0068
:10AC10007407780A1205A312AC5CD0E012AC82C3B0
:10AC2000EA9CEB9D40DFA2AFE492E0F508C2AF855D
:10AC30000F82A882E812AECFE50EF012AECCE07023
:10AC40000674019007F9F0E508A2E092AF7F0802D0
:10AC5000031CEE2AF582EF3BF583E022850E0CE51E
:10AC60000C24F2F8E43406F9E50A28F582E50B39FC
:10AC7000F58322E0F50FF58285820812AED3E0F568
:10AC80000E22F0050EEA24010AEB3400FB2274F7D1
:10AC900012020D7E009006EEE0FA12AE8260030210
:10ACA000AD2B8A82AC82ECF87900E8FAE9FBEAC3C2
:10ACB00033FAEB33FBEA24EEF582EB12AE8E701022
:10ACC00012AE72400478007900EC687001E970DA25
:10ACD0009006F0E0FC9006EFE0FAE86A7001E960A7
:10ACE0000FE8F0EC7006E5959006F1F074C6802050
:10ACF000EC60219006F1E0FAE595C39AFAC39C5006
:10AD00000E9006F0E0C39AF0E5959006F18004E419
:10AD10009006F0F012AE388A088B09A808A909C37A
:10AD2000E89470E99400400A0E8024E49006F0F064
:10AD3000801DC3E89430E9940040060E0ED2858051
:10AD40000EE87001E960089006F0E070027E049061
:10AD500007F5E06006E4F0EED2E4FE9007F8E0606C
:10AD60001DE595FB9007F6E0C0E09007F7E0FAEBF1
:10AD7000C39AFAD0E0C39A5005E49007F8F0900720
:10AD8000F9E060589007F8E07052E49007F912AECD
:10AD9000291205A3E50824F2E50934069005BE1240
:10ADA000AE291205A3E50824F29005BF12AEE1908A
:10ADB00005C3F09005C2E054E0F09007F4E0E064D1
:10ADC00001F0A2AFE492E0FAC2AF75D61000E5D66A
:10ADD000A2E450F975D1EF75D7108023A2AFE492A9
:10ADE000E0FAC2AF12AE256016E5D6A2E44010E547
:10ADF000D1A2E4400AEAA2E092AF12AE9D8005EA39
:10AE0000A2E092AFEE601B9007FAE0F8A3E0F988A9
:10AE1000828983E5827002E5836007EEFA79001289
:10AE200006AD02AB7312AEE622F09007F4E0F5082F
:10AE30007509007407780822C082C0837A007B00FD
:10AE40009006EEE012AE82702778007900E8FCE907
:10AE5000FDECC333FCED33FDEC24EEF582ED12AED8
:10AE60008E7008EA24010AEB3400FB12AE7240DD5A
:10AE70008026E8240108E93400F9C3E89480E994C5
:10AE80000022C333F8E433F9E824EEF582E934050F
:10AE9000F583A3E065C222F0D083D08222C082C0B5
:10AEA0008375D1EF9007F4E0F812AECCE4F07401B2
:10AEB0009007F5F0E5959007F7F074019007F81208
:10AEC000AEE1600674019007F9F080CC740168125D
:10AED000AED32212AED72224F2F582E43407F583F2
:10AEE00022F012AEE6229007F4E012AED7E0221272
:10AEF000A9ED22EEC0E0E9700312AA6C7900D0E05F
:10AF0000FE22EEC0E0E9700512AB1C80047A007BE3
:10AF100000D0E0FE22EEC0E0E9700512AB8D8004A7
:10AF20007A007B00D0E0FE2212AC8E22EEC0E0E977
:10AF3000700512AE3880047A007B00D0E0FE22C09B
:10AF400082C08374019008E7F0D083D0822274F726
:10AF500012020DEAFEEBFF8E828F83A3E0FA740AE1
:10AF60006A706FEE2404F8EF3400F9EE2403FAEF70
:10AF70003400FB8A088E828F83A3A3E01203B700FC
:10AF800003018CAF02A4AF12BBAFE2AF888289830A
:10AF9000E0048E828F83F0E8FCE912AFE71284AB05
:10AFA000E9F0803EEE2405FCEF340012AFE7128595
:10AFB000BAE9F074018E828F8380E68A828B83E007
:10AFC000F912C7DEEAF0A3EBF074028E828F83F0F1
:10AFD0008010740B6A700BEEFA12B693E9600312DC
:10AFE000B1677F0202031CFD88828983E0FA85082D
:10AFF000828B83E0F92274F712020DEAFEEBFF8EDA
:10B00000828F83A3E0FA740A6A600302B1558E82CC
:10B010008F83A3A3E0120354031064B13EB056B073
:10B0200078B0D8B0F5B00BB122B12AB147B167B052
:10B03000E8B064B164B164B134B164B12FB19008C7
:10B04000E7E0640270077A007B00128B617401F004
:10B050001286A802B1649008E7E06401600302B1BF
:10B060006412872D02B1649008E7E0640160030276
:10B07000B1641287A402B1649008E7E06401600340
:10B0800002B164EE2409F508EF3400F509780812DE
:10B0900004858E828F83A3A3A3A3A3A3A3A3E0F518
:10B0A0000878081204898E828F83A3A3A3A3A3A385
:10B0B000A3E0FB8E828F83A3A3A3A3A3E0FC8E82D5
:10B0C0008F83A3A3A3A3A3A3E0FD12B175128845A8
:10B0D00074031204B202B1649008E7E064016003F3
:10B0E00002B1641287D4807C9008E7E06401707438
:10B0F000128837806F9008E7E0640170678E828F56
:10B1000083A3A3A3E0F91288E880599008E7E064DC
:10B110000170518E828F8312B180A3E0FB128910DF
:10B12000804212A3C6128917803A12892A803512EA
:10B13000C70480308E828F83A3A3A3A3A3E0FB1256
:10B14000B17512C70C801D8E828F83A3A3A3E0F973
:10B1500012883B800F740B6A700A12B167EEFAEF27
:10B16000FB12B4CB02AFE274029008E7F07AC07B26
:10B17000B3128B61228E828F83A312B180E0F922F9
:10B18000A3A3A3E0FA8E828F83A3A3A32274F81251
:10B19000020D747D1204FD74011206A3740AF0748A
:10B1A000021206A37401F002B37A74F812020D744D
:10B1B0007D1204FD74011206A3740AF074021206D3
:10B1C000A3740202B24B74F812020D747D1204FDD6
:10B1D00074011206A3740AF074021206A3740C021E
:10B1E000B37774F812020D747D1204FD7401120617
:10B1F000A3740AF074021206A37404804E74F81249
:10B20000020D747D1204FD74011206A3740AF07419
:10B21000021206A3740AF07402851882851983F05D
:10B2200074031206A3E9F074041206A3EA803874CA
:10B23000F812020D747D1204FD74011206A3740A43
:10B24000F074021206A3740B02B377F0740385182E
:10B2500082851983F01206A3E9F074041206A3EAAA
:10B26000F074051206A3EBF0851882851983AA8273
:10B27000AB83129F7974831204B27F0102031C74A2
:10B28000F812020D747D1204FD74011206A3740AF3
:10B29000F074021206A3740302B37774F212020D63
:10B2A000747D1204FDEAFF8B0874911206A3E0FB83
:10B2B00074921206A3E0FA74931206A3E0F50CA3AD
:10B2C000E0F50D74011206A3740AF074021206A3CD
:10B2D0007405F074072A851882851983F0740312A7
:10B2E00006A3E9F074041206A3EFF074051206A396
:10B2F000ECF074061206A3EDF074071206A3E5083D
:10B30000F074081206A3EBF074091206A3EAF075B4
:10B310000E00780C120481EAFC7D00740D1206A365
:10B32000AA82AB8312A49374031204B28518828597
:10B330001983AA82AB83129F7974831204B27F07A8
:10B3400002031C74F812020D747D1204FD740112C4
:10B3500006A3740AF074021206A37406801974F826
:10B3600012020D747D1204FD74011206A3740AF01A
:10B3700074021206A37407F074018518828519837C
:10B38000F074031206A3E902B26774F812020D7496
:10B390007D1204FD74011206A3740AF074021206F1
:10B3A000A3740880D274F812020D747D1204FD7427
:10B3B000011206A3740AF074021206A3740980B77E
:10B3C00074F212020DEAFEEBFF740C90081412B630
:10B3D000716401600302B461EE2405F508EF3400E6
:10B3E000F509850882F583E0FA8A0A7407250AF8C8
:10B3F000E43400F9E89481E99400400302B4C6748F
:10B40000072A12B66E900815F08E828F83A3A98248
:10B41000AA83890C8A0D750E00780C1204817C07B2
:10B420007D007A167B0812B6781204B28E828F8362
:10B43000A3A3A3A3A3A3A3A3E0F50CA3E0F50D7816
:10B440000C120481850882850983E0FC7D007A1D49
:10B450007B0812B6781204B27A137B08129F7980A7
:10B4600065750B00E50BC333F8E433F9E82481F884
:10B47000E93407F988828983E493FA8E828F83E026
:10B480006A703A88828983A3E493FAC39481502D29
:10B49000EA900813F08E088F09750A0078081204E4
:10B4A000818A0874012508FCE43400FD7A157B08C4
:10B4B00012B6781204B27A137B08129F79050BE555
:10B4C0000BC3940C409E7F0702031C74F212020D02
:10B4D0008A088B09EA2402F8EB3400F9740C90080E
:10B4E00014F0E82402FAE93400FB8A0A8B0B888204
:10B4F0008983A3AE82AF8388828983E012035401DB
:10B500000E6BB621B57BB585B595B5DFB5E9B5F25E
:10B51000B50AB61EB644B649B654B65FB668B68F1D
:10B52000B58E0C8F0D750E00780C1204817C067D93
:10B53000007A967B0812B6781204B27A967B0812CB
:10B540004AE1E9600302B66BE5082409F508E5095C
:10B550003400F509750A00780812048190089AE011
:10B56000FC7D0090089EE0FAA3E0FB12B67812047E
:10B57000B27A967B08124B5702B66BEEFAEFFB12CB
:10B58000502A02B66BEEFAEFFB12545802B66B1259
:10B59000508702B66B8E828F83E0F912697BE9FADD
:10B5A0007407900815F074042A90081312B67EF000
:10B5B000EA900819F060187C1A7D08850A82850BCC
:10B5C00083E0FA8E828F83E0F912689BE98002742F
:10B5D000F4900816F07A137B08129F7902B66BEE8E
:10B5E000FAEFFB12568902B66BEEFAEFFB125A5EC7
:10B5F00080798E828F83E0F91269EB740A900815C6
:10B60000F07401900813F0E480C7740B900815F0F3
:10B61000740112B66EFAA3E0FB1273CA80AE740313
:10B62000900813F0740C900815F0E82404FCE9125B
:10B63000B8068E828F83E0F9126B84E990081612A7
:10B64000B67E809012605F80228E828F83E0F91236
:10B6500063A380178E828F83E0F9126549800CEE18
:10B66000FAEFFB124E6A8003124EC202B4C6900873
:10B6700013F08E828F83E02212A493740322F08E43
:10B68000828F83E0900817F0850A82850B83E09013
:10B6900008182274EE12020DEAFEEBFFEE2402F50A
:10B6A00008EF3400F509A808F9751200EE2403F537
:10B6B0000AEF3400F50B8E828F83A3858210858379
:10B6C00011E82402F50EE93400F50F88828983A37E
:10B6D00085820C85830D88828983E01203540405DA
:10B6E000FFB7EEB6FFB7FFB768B78CB7B7B7850C33
:10B6F00082850D83E0F912697BE9FC850E82850F56
:10B7000083E0FD850A82850B83A3A882A983850C2B
:10B7100082850D83E088828983F0E50A2402FAE5B8
:10B720000B3400FBED8A828B83F0EC850A82850B5B
:10B7300083A3A3A3F074042C12B8127407850882A3
:10B74000850983F0EC601DE50A2404FCE50B12B8C2
:10B750000688828983E0F912689BE9850A82850B55
:10B760008302B7FE74F480F3850C82850D83E0F9C3
:10B770001269EB12B810740A850882850983F0E417
:10B78000850A82850B83F07512018073850C828592
:10B790000D83E0F8A3E0F9880C890D12B810740B42
:10B7A000850882850983F0AA0CAB0D1273CAE9855E
:10B7B0000A82850B838047850C82850D83E0F50C1A
:10B7C000850E82850F83E0F50DE82404FCE9340042
:10B7D000FDAA0DA90C126B84E9FA740312B8127455
:10B7E0000C850882850983F0EA850A82850B83F03F
:10B7F000A3E50CF0850A82850B83A3A3E50DF0A9D0
:10B80000127F0B02031C3400FD8A828B83E0FA2234
:10B8100074018E828F83F0746C851082851183F0A1
:10B820002274F512020D900CF87808120669900542
:10B8300099780812068702B99674F312020D8908E6
:10B84000EAFEEBFF8C0A8D0B12B8E1EA7001EB60A7
:10B850000F8A828B83A3A3E50AF0A3E50BF0807225
:10B860007A097B0012BF04EA7001EB60618A828B67
:10B8700083A3A3A3A3A3A3E50812B8D7EEF0A3EF75
:10B88000F08A828B83A3A3E50AF0A3E50BF08A82FA
:10B890008B83E4F0A312B8D7A3A3A3F0A3F0900581
:10B8A00097E07002A3E09005977006EAF0A3EB80A2
:10B8B000ACE0FCA3E08003E8FCE9FD8C828D831200
:10B8C000BB29E87001E970EF8C828D8380DD7A00FE
:10B8D0007B007F0602031CF08A828B83A3A3A3A3B1
:10B8E0002274F812020D90059780048C828D83E0FB
:10B8F000FCA3E0FDEC7001ED601F8C828D83A3A39F
:10B90000A3A3E06A7003A3E06B70E08C828D83A335
:10B91000A3A3A3A3A3E06970D2ECFAEDFB7F01021D
:10B92000031CC082C083EA7001EB600C8A828B83A7
:10B93000A3A3A3A3E4F0A3F0D083D0822274F712D0
:10B94000020DE5A8FFC2AF12B839EFA2E792AFEA45
:10B950007001EB60047900800279087F0202031C09
:10B9600074F512020DA2AFE492E0F509C2AF12B86D
:10B97000E18A0A8B0BAE0AAF0BEE7001EF60031287
:10B98000B922E509A2E092AFEE7001EF6004790000
:10B990008002790680007F0402031C74EC12020D01
:10B9A0008A0A8B0BE5A8FAC2AF850A0C8B0D750EBF
:10B9B00000750F00900599780C1205EFEAA2E79246
:10B9C000AF900597E07002A3E0700302BB249005DE
:10B9D00097E0F508A3E0F509750C00750D007E00F1
:10B9E0007F00A2AFE492E0F514C2AFE5082404F5AD
:10B9F00012E5093400F513E5082402F50EE50934D3
:10BA000000F50F850E82F58312BB29C3E50A98E580
:10BA10000B99850E82850F834006E4F0A3F0801712
:10BA2000C3E0950AF0A3E0950BF0850E82850F83A5
:10BA3000E07002A3E0704EE5082407F510E5093434
:10BA400000F511851082F583E07002A3E060508557
:10BA50001282851383E0FAA3E0FBEA7001EB603FFA
:10BA6000850882850983A3A3A3A3A3A3E0F912A851
:10BA70007185108285118312BB29850E82850F8303
:10BA8000E8F0A3E9F0850E82850F83E07002A3E061
:10BA9000600D851282851383E07002A3E0702B8510
:10BAA000088285098312BB29E50C7002E50D70053B
:10BAB0009005978006850C82850D83E8F0A3E9F058
:10BAC000AE08AF098E828F83800C85080C85090D26
:10BAD000850882850983E0F508A3E0F509E514A24D
:10BAE000E092AFEE7001EF60308E828F83A3A3E00F
:10BAF0007002A3E0701C8E828F83A3A3A3A3E0FA3D
:10BB0000A3E0FB8E828F83A3A3A3A3A3A3E0F912D8
:10BB1000A871EEFAEFFB12C00AE5087002E50960B1
:10BB20000302B9DE7F0D02031CE0F8A3E0F922C096
:10BB300082C083900597E07002A3E0602F90059784
:10BB400012BB297AFF7BFF88828983A3A3E0FCA331
:10BB5000E0FDC3EC9AED9B5004ECFAEDFB88828982
:10BB60008312BB29E87001E9600680DB7A007B0064
:10BB700002B93874F112020D900CF87808120669B7
:10BB80009005CC78081206878A088B09750A00751B
:10BB90000B00900D04780C1206697808790C1201DC
:10BBA0008D900D087808120590740578081204CC61
:10BBB000900CF8780812053E701D1230488A088BE8
:10BBC000098C0A8D0B900CF8780812053E702E74C3
:10BBD000039005C7F0804A1230488A0C8B0D8C0EFA
:10BBE0008D0F900CF8780C12053E60117808790CD6
:10BBF00012063950088A088B098C0A8D0B74029042
:10BC000005C7F0900D0C780C120669780C790812B3
:10BC10000639500D900CF8780812053E600302BCFE
:10BC2000CFA2AF400312C22DC2AF12A46AE96003D3
:10BC300002BCD179021227DBE9600302BCD112CB2E
:10BC400041900CF8780812053E6028900D10780C91
:10BC5000120669780C79081206394008900D14789C
:10BC600008120669AA08AB09AC0AAD0B12BCE8C2FF
:10BC7000C7D2AD53BEFCE5BE9005C7E045BEF5BEDC
:10BC8000E5ADA2E050FAE5A8FEE5B8FFE59AF508B3
:10BC900053A820E5A853B820E5B8539A12E59AD2E4
:10BCA000AF12E7F8C2AF8EA88FB885089AC2AD125E
:10BCB000BDC68A088B098C0A8D0B9005CC780812BA
:10BCC00005EF12CB4212284DD2AF124596800DC21D
:10BCD000AFAA08AB09AC0AAD0B12BD7A800574049B
:10BCE0001204B27F0802031C74F112020D74FC12DC
:10BCF00004FD8A088B098C0A8D0BE59585188285D1
:10BD00001983F0E596C0E074011206A3D0E0F0E5D7
:10BD100097C0E074021206A3D0E0F074031206A3E9
:10BD2000E4F0851882851983780C1206699005C89D
:10BD3000780C120687900D18780C1206697808792D
:10BD40000C12018D740678081204CC900D1C780832
:10BD500012059085188285198378081205EF740200
:10BD60001206A3E0F59774011206A3E0F596851874
:10BD700082851983E0F59502BCDE74F112020D8A0A
:10BD8000088B098C0A8D0B900CF8780812053E6020
:10BD900028900D10780C120669780C790812063973
:10BDA0004008900D147808120669AA08AB09AC0A7D
:10BDB000AD0B12BCE8C2C7D2AD53BEFCE5BED2AFDC
:10BDC00012E7F802BCE374F112020D74FC1204FDD8
:10BDD000E595851882851983F0E596C0E074011217
:10BDE00006A3D0E0F0E597C0E074021206A3D0E00D
:10BDF000F074031206A37401F08518828519837804
:10BE0000081206699005C878081204E5900D20789C
:10BE100008120590900D2478081205DC900D287802
:10BE20000C1206697808790C12018D900D2C780897
:10BE3000120590740C78081204CCAA08AB09AC0A5D
:10BE4000FD02BCDE80080000000000000000EAF8EF
:10BE5000EBF974FF281A74FF39FBE87001E970E60A
:10BE60002222C0E0C0D0EAC0E0E5A8D2AFC2C775C8
:10BE70001A00A2E792AFD0E0FAD0D0D0E032C08270
:10BE8000C083900CF6E024FEF8A3E03403F9888226
:10BE90008983E4F0A3F0900CF6E0F8A3E0F5838842
:10BEA0008274E8F0A3E4F0900CF6E024E8F8A3E054
:10BEB0003400F9888289837416F0A37403F090012A
:10BEC0008CE8F0A3E9F07A007B0012BF0490018EA9
:10BED000EAF0A3EBF0900CF612BEF6D083D08222EB
:10BEE000C082C083E5A8FAC2AF90018E12BEF6EA06
:10BEF000A2E792AF80E5E0F8A3E0F990018CE8F0CA
:10BF0000A3E9F02274F412020D7C007D008C0BEA90
:10BF100024020A0AEB3400FBA2AFE492E0F50AC265
:10BF2000AFC3EA9411EB9400500590018C8003900C
:10BF3000018EE0F8A3E0F988828983E0FEA3E0FFA8
:10BF400074805FF509E47002E509600974806FFF91
:10BF5000750B008074E50B606288828983E0F508C8
:10BF6000A3E0F5098C828D83E02508F0A3E0350974
:10BF7000F08C828D83C3E09AA3E09B404CECF8EDFB
:10BF8000F988828983E0FEA3E0FFE87001E9606B35
:10BF9000C3EE9AFEEF9BFFC3EE9404EF940040477C
:10BFA000E82AF582E93BF583EEF0A3EFF074804BCD
:10BFB000FB88828983EAF0A3EB8036C3EE9AEF9B7D
:10BFC00050C8750B01E8FCE9FDE82EF8E93FF98857
:10BFD000828983E0FEA3E0FFEE7001EF600302BF01
:10BFE0004078007900801488828983E0F0A3E044DF
:10BFF00080F0E824020808E93400F9E50AA2E0929A
:10C00000AFE8FAE9FB7F0502031C74F812020DEA9F
:10C01000FEEBFFA2AFE492E0F508C2AFEEF8EFF955
:10C02000C3E89490E994014009C3E89490E9940529
:10C03000400312C22DEE24FE1E1EEF34FFFF8E823F
:10C040008F83A3E05480F9E47001E9700312C22DDC
:10C050008E828F83E0F0A3E0547FF090018CE0F8B3
:10C06000A3E0F9C3EE98EF99500CEEF8EFF99001C8
:10C070008CE8F0A3E9F0E508A2E092AF7F010203AB
:10C080001C74F812020DE9FE8A08EBFF12C19E240F
:10C09000D8F582E5F03405F58312C0B2E58270026E
:10C0A000E5836009EFFBAA08EEF91206AD7F0102F5
:10C0B000031CE0F8A3E0F98882898322C082C08350
:10C0C000E91203540003DCC0D0C0DCC0D4C0D8C027
:10C0D0007901800A7902800679008002790380570D
:10C0E000C082C083790312C1897033E5E4A2E550B0
:10C0F0000C53E4DF7B027A02790312C081E5E4A2EB
:10C10000E6500C53E4BF7B027A04790312C081E548
:10C11000E4A2E7502253E47F7B027A08801479037B
:10C1200012C1837012E5E4A2E4500C53E4EF7B04E7
:10C130007A01790312C081D083D08222C082C08369
:10C14000790012C1897021A2D9500EE5D875D84066
:10C150007B027A02790012C081A2DA5024E5D875F8
:10C16000D8407B027A048014790012C1837012A235
:10C17000D8500EE5D875D8407B047A01790012C0FA
:10C180008180B412C18F64042212C18F6402221212
:10C19000C19E24D4F582E5F03405F583E02212C077
:10C1A000BCE975F00AA422C082C083790212C18959
:10C1B0007021A2DC500EE5D875D8407B027A027956
:10C1C0000212C081A2DD5024E5D875D8407B027AE6
:10C1D000048014790212C1837012A2DB500EE5D8DC
:10C1E00075D8407B047A01790212C08102C137C040
:10C1F000E074F212026DE5A8FED2AF12C0E0751A2B
:10C2000000EEA2E792AF7F010202CCC0E074F2120E
:10C21000026DE5A8FED2AF12C13C80E2C0E074F22C
:10C2200012026DE5A8FED2AF12C1A780D112C231B1
:10C230002274F512020D74F61204FDC2AF53BEFB58
:10C24000E59DA2E650FA0078F8790100E824FF188D
:10C25000E934FFF9E87001E970F175C600E59E70F8
:10C26000FC43BE047408906270F043FD8043FF01FC
:10C27000D287D2A0D2878017D2870B74086B600355
:10C2800002C3547B000CECC39406500302C354D287
:10C29000877A0080060A740A6A6064900CF878084D
:10C2A00012066974061206A3780812068780129097
:10C2B0000CFC780812066974061206A378081205A9
:10C2C000EF74061206A3C082C083900D0078081296
:10C2D0000669D083D082780812065940D2A28750CE
:10C2E00004C2878002D28790059DE0600CE4F07460
:10C2F0000A1204B27F0402031CA29250988092D2C8
:10C3000087D2A0D287D28778007900A292400478A1
:10C3100000790012C3B440F39061A3E0C0E074045C
:10C320001206A3D0E0F09061A4E0C0E0740512060C
:10C33000A3D0E0F09009C2E0C0E074021206A3D0DE
:10C34000E0F09009ADE0C0E074031206A3D0E0F085
:10C350007B007C00A29240FCC287C2A0C287EB7027
:10C3600004C2878002D28778007900A292400478C4
:10C3700000790012C3B440F3D287D2A0D287D2870B
:10C380007508017509007407C39B78081205A3C0DE
:10C39000088C08851882851983E5822508F582E5D1
:10C3A000833400F583D0E0FAE05A700302C278C209
:10C3B0008702C27AE8240108E93400F9C3E894F45A
:10C3C000E99401A2D265D0332274F512020D7E00E9
:10C3D0007F001246008A088B09AC08AD09900182E3
:10C3E000E06C7003A3E06D700302C4B8900182E0BA
:10C3F000F8A3E0F9ECC398F508ED99F509900182EE
:10C40000ECF0A3ED801FE5082404F508E50934E00D
:10C41000F509EE243CFEEF340AFF900184E0240489
:10C42000F0A3E03400F0C3E50894FDE509941F5043
:10C43000D5740378081205A3900184E02508FCA3B5
:10C44000E03509FDECF8EDF97A197B00120134882A
:10C45000088909EE2508FEEF3509FFECF8EDF97AB9
:10C46000197B00120134900184EAF0A3EBF0EE7026
:10C4700001EF6044900186E02EF0A3E03FF09001D0
:10C4800086C3E094E9A3E09403402612C4BD1201E0
:10C490003488088909750A00750B009001887808AE
:10C4A0001205EF12C4BD120134900186EAF0A3EB2D
:10C4B000F0EEFAEFFB12B99B7F0402031C90018699
:10C4C000E0F8A3E0F97AE87B032274F512020D90FC
:10C4D00001887808120669AA08AB09AC0AAD0B807E
:10C4E000D774F812020D12C5356004790080358AC0
:10C4F000828B83A3A3A3A3A3A3A3A3E060ED640201
:10C500008A828B83700E12C5297003A3E06970DBE9
:10C5100079018010A3A3A3A3A3A3A3A3E064037042
:10C52000CA12C5917F0102031CE0F8A3E0F98C82D6
:10C530008D83E068228A828B83A3A3A3A3A3A3A3F2
:10C54000A3E0FE8C828D83A3A3A3A3A3A3A3A3E054
:10C550006E2274F812020D8C828D83A3A3A3A3A371
:10C56000A3A3A3E0FE8A828B83A3A3A3A3A3A3A375
:10C57000A3F074036E700512C5D280128C828D8375
:10C58000E0F8A3E0F98A828B83E8F0A3E9F002C522
:10C590002474F712020D750808EAFEEBFF8E828FF5
:10C5A00083A3AA82AB83ECF8EDF988828983A3ACDC
:10C5B00082AD838E828F83E0FE88828983E06E6005
:10C5C00004790080081508E50870CE79017F020221
:10C5D000031C74F612020D8C088D09750A00780888
:10C5E0001204817C087D0012A49374031204B27FAC
:10C5F0000302031C2274F512020D8908740B120643
:10C60000A3E0FEA3E0FF740F5508F50A750B007454
:10C610000B780A1205A32AF874803BF9E428E50B8D
:10C6200039F9E5C7F509E508C4540FC0E074F855B9
:10C63000C7FAD0E04AF5C7801C88828983E08C82E3
:10C640008D83F088828983A3A882A9838C828D83BD
:10C65000A3AC82AD83EEFAEFFB74FF2A1E74FF3B9E
:10C66000FFEA7001EB70D28509C77F0402031C74D6
:10C67000F712020D74091206A3E0F508A3E0F5090C
:10C68000ED90059EF0EC90059FF074629005A0F08F
:10C6900074739005A1F09005A2E0541FF0E50833F3
:10C6A0003354FC9005A3F074067808120678E50868
:10C6B0009005A2F074129005A4F074429005A5F0C4
:10C6C00075D1FE75D601EA906271F0EB906272F05E
:10C6D000906270E0D2E1F0E0A2E740FB7F0202034B
:10C6E0001CC082C083E9C333906272F0906270E034
:10C6F000D2E0F0E0A2E740FB906272E02402F0D0CA
:10C7000083D08222C2AF75C90B0080FD74F812027B
:10C710000D74FD1204FD74021206A3EAF0740112F6
:10C7200006A3EBF0E9FE74026E7024740185188292
:10C73000851983F0F912C7D174011206A3AA82AB3E
:10C740008379E11226009008E5E4F0A3F08078E414
:10C75000851882851983F0790112C7D174021206F7
:10C76000A3AC82AD837A007988126B8474011206BF
:10C77000A3AA82AB8379E1122600EE701FE5A8FA26
:10C78000C2AF906189E054FCF0E0D2E1F0E4906146
:10C79000BAF074409061BBF07401801674016E7041
:10C7A00026E5A8FAC2AF906189E054FCF0E04403AA
:10C7B000F0E49061BCF075E1FF75E1D975E1D275E7
:10C7C000E1E1EAA2E792AF74031204B27F0102032F
:10C7D0001C12240EAA82AB83795212260022C08238
:10C7E000C0839008E5E0FAA3E0FBE960079008E564
:10C7F000E4F0A3F0D083D08222C082C0839008E509
:10C80000E02401F0A3E03400F080E979FF12A8F3FE
:10C8100053BEFBE59DA2E650FA0078F8790100E8E6
:10C8200024FF18E934FFF9E87001E970F175C600DA
:10C83000E59E70FC43BE047408906270F043FD8076
:10C8400043FF0112CA3D12952312285F12AF3F1217
:10C85000A90279FF12A8E4790112C9B412A9217AB8
:10C86000007B0022D083D08222C082C0837A0C7BDE
:10C870000012BF049007FDEAF0A3EBF07C0C7D00F2
:10C88000790012A5497900121CB0790112657779F7
:10C89000021283327903129E0C74049007FCF07923
:10C8A0000512CA2F80BE74F712020DEAFEEBFF7468
:10C8B000805FF9E47001E9700C7A007B007F02026E
:10C8C000031C12A5C79007FFE0F912A64FEA7001FA
:10C8D000EB70EFEEFA74806FFB80E2D083D082229F
:10C8E000C082C08343B3017C108A828B83E0F5B1A0
:10C8F000A3AA82AB831CEC70F080E074F812020DE6
:10C9000043B3017E1012C95C70FB7C0FEC1C70FC01
:10C910007C10E5B28A828B83F0A3AA82AB831CECE5
:10C9200070F07F0102031C74F712020D43B3017F04
:10C93000047E0412C95C70FB7E0F8E081EE5087031
:10C94000F97E04E5B28A828B83F0A3AA82AB831EB0
:10C95000EE70F01FEF70DA7F0202031C8C828D8371
:10C96000E0F5B1A3AC82AD831EEE2274F855B3445A
:10C9700006F5B312C8E02274F855B3440480F222DD
:10C9800012C99712C9772212C99753B3F8E5B3ECCD
:10C99000FAEDFB12C8FB2253B38FE5B343B3402239
:10C9A000C082C083E4900596F0900590F0A3F0D08B
:10C9B00083D08222C082C083E990059680F074F70C
:10C9C00012020DE9FE900D3CE0FBE9C39B400479A7
:10C9D000038030750801750900EE78081205A3ACD4
:10C9E00008AD09EA7011ECF4F8EDF4F9900590E067
:10C9F00058F0A3E0598009900590E04CF0A3E04D79
:10CA0000F079007F0202031C74F712020D90059664
:10CA1000E0601A900590E07002A3E07010E5A8FEB7
:10CA2000C2AF12BB2FEEA2E792AF12BB7380D4C08D
:10CA300082C083E99005C6F0D083D0822212CAA7B3
:10CA400012C5F412C97F12AEEF2274F712020DEA7A
:10CA5000FEEBFF74805FF9E47001E9601B9005C68E
:10CA6000800312A5C7E0F912A64FEA7001EB70F23D
:10CA7000EEFA74806FFB8026EE5402600674026E3C
:10CA8000FA801BEEA2E05004740180F35404600AA3
:10CA900012BE6174046EFAEF80DB7A007B007F02C5
:10CAA00002031C12AF28227405F5D575D49E7405B7
:10CAB000F5D375D2A6D2B822C0E074F212026DA2EC
:10CAC000AFE492E0FED2AFC2C0E5D1A2E4500312BF
:10CAD000AE9D751A00EEA2E092AF7F010202CC7407
:10CAE000F812020D74081206A3E0F8A3E0F98A8296
:10CAF0008B838003ECF0A3E8FEE9FF74FF2E18742B
:10CB0000FF3FF9EE7001EF70EB7F0102031CC08262
:10CB1000C0838A828B838001A3E070FCE582C39A84
:10CB2000FAE5839BFBD083D08222E9FA75B60FE544
:10CB3000B4A2E750FAEAC395BB5003790122790009
:10CB4000222222FFFFFFFFFFFFFFFFFFFFFFFFFF8C
:10CB5000FFFFFFFFFFFFFFFFFFFFFFFFFFFFFFFFE5
:10CB6000FFFFFFFFFFFFFFFFFFFFFFFFFFFFFFFFD5
:10CB7000FFFFFFFFFFFFFFFFFFFFFFFFFFFFFFFFC5
:10CB8000FFFFFFFFFFFFFFFFFFFFFFFFFFFFFFFFB5
:10E7F000FFFFFFFFFFFFA41E851A870022FFFFFF18
:10F80000FFFFFFFFFFFFFFFFFFFFFFFFFFFFFFFF08
:10F81000FFFFFFFFFFFFFFFFFFFFFFFFFFFFFFFFF8
:10F82000FFFFFFFFFFFFFFFFFFFFFFFFFFFFFFFFE8
:10F83000FFFFFFFFFFFFFFFFFFFFFFFFFFFFFFFFD8
:04000005000000DC1B
:00000001FF
