:020000040000FA
:100000000200DC023924FFFFFFFFFFFFFFFFFFFFBD
:10001000FFFFFFFFFFFFFFFFFFFFFFFFFFFFFFFFF0
:10002000FFFFFFFFFFFFFFFFFFFFFF0290A8FFFFA3
:10003000FFFFFFFFFFFFFFFFFFFFFFFFFFFFFFFFD0
:10004000FFFFFFFFFFFFFFFFFFFFFFFFFFFFFFFFC0
:10005000FFFFFF023716FFFFFFFFFFFFFFFFFFFF5E
:10006000FFFFFFFFFFFFFFFFFFFFFF029486FFFF81
:10007000FFFFFFFFFFFFFFFFFFFFFFFFFFFFFFFF90
:10008000FFFFFF0238211200F0B900030200D6E49E
:10009000791A7801B800028004F709D8FCE49001CD
:1000A000807848790E8002F0A3D8FCD9FA900EC768
:1000B000AA82AB839006CA78EC79018015E493A3F9
:1000C000AC82AD838A828B83F0A3AA82AB838C82BD
:1000D0008D83D8E9D9E7129AC31200EB75D0007569
:1000E000813F75188075190102008600000080FBB1
:1000F000790122C3E498F8E499F91201348026C307
:10010000E49AFAE49BFBE920E7E9120134E498F869
:10011000E499F922C3E498F8E499F9120134E498D7
:10012000F8E499F9C3E49AFAE49BFB22EB20E7CFC9
:10013000E920E7E0B90010BB0008E88AF084F8AADB
:10014000F022E4FBC8FA22EB70227B10C833C8C946
:1001500033C9335007C39AC3DBF280069A50012A91
:10016000DBEAC833F4C8C933F4C9FA2275F008E4ED
:10017000C833C8C933C933C99AC99B5004C92AC9ED
:100180003BD5F0ECFBC833F4C8E4C9FA22080808F0
:10019000EAC0E0EBC0E086F0E7A4FA180986F0E7D1
:1001A000A42AFA180986F0E7A42AFA180986F0E7C3
:1001B000A42AFA1986F0E7A4FBE5F02AFA190886C2
:1001C000F0E7A42BFBE5F03AFA190886F0E7A42B38
:1001D000FBE5F03AFA18180986F0E7A4C5F02BFB06
:1001E000E43AFA1908E7C5F0C6A426F6E5F03BFBA9
:1001F000E43AFA1886F0E7A4F6E5F00826F6E43BC0
:1002000008F6E43A08F6D0E0FBD0E0FA22E4CFC0EA
:10021000E0E4CEC0E0E4CDC0E0E4CCC0E075F02086
:10022000C3E633F608E633F608E633F608E633F6B7
:10023000181818EC33FCED33FDEE33FEEF33FFC33B
:10024000EC9709ED9709EE9709EF97191919400FE7
:10025000FFEC97FC09ED97FD09EE97FE191906D5FD
:10026000F0BEECF709EDF709EEF709EFF7191919E8
:10027000D0E0FCD0E0FDD0E0FED0E0FF222518C5A4
:1002800082C0E0E51934FFC583C0E0E518C395825C
:1002900024F9F8E4C5A8858319858218C5A8E8CE95
:1002A000F0A3E520F0A37808E608F0A3DEFAEFF06B
:1002B000A3E58124FBF8E608F0A3E608F0A308080C
:1002C000E608F0A3E608F0A315811581D0E0FED082
:1002D000E0F815811581E8C0E0EEC0E022C0D0252D
:1002E00018C582C0E0E51934FFC583C0E0E518C336
:1002F000958224F310AF08858319858218800885BC
:100300008319858218D2AFC8F0A3E9F0A3EAF0A35D
:10031000EBF0A37908E709F0A3D8FAECF0A3EDF02D
:10032000A3EEF0A3EFF0A3D0E0F0A3D0E0F0A3D0D1
:10033000E0F0A3E520F0A3E5F0F0A3228519838582
:100340001882E0C0E0A3E0F9A3E0FAA3E0FBA37801
:1003500008E0F608A3DFFAE0FCA3E0FDA3E0FEA3BB
:10036000E0FFA3E0C0E0A3E0C0E0A3E0F5D0A3E09D
:10037000F520A3E0A3F5F0E4C5A8858319858218CC
:10038000C5A8D082D083D0E0F8D0E032851983852B
:100390001882E0A3FEE0A3F5207808E0A3F608DFCA
:1003A000FAE0A3FFE0A3C0E0E0A3C0E0E0A3C0E068
:1003B000E0A3C0E0E4C5A8858218858319C5A8D04C
:1003C00083D08222D083D082C5F0E493A3C5F0C34A
:1003D00095F0F5F0E493A3C395F04005E5F00480B3
:1003E00001E475F002A42582F582E5F03583F583FA
:1003F000E493A3C0E0E493C0E02274028000CCC088
:10040000E0EDC0E0E518C39CCCAD1950011D10AF64
:10041000068C188D1980068C188D19D2AF120473B2
:10042000D0E0FDD0E0FC22D083D082CCC0E0E493C9
:10043000A360061204941470FAE493A360061205F4
:10044000641470FAD0E0FCE493A3C0E0E493C0E04D
:1004500022CAC0E0E493A3C582CCC582C583CDC5C2
:1004600083F0A3C582CCC582C583CDC583DAE5D030
:10047000E0CA22CAC0E0E0A3C582CCC582C583CD54
:10048000C583F0A3C582CCC582C583CDC583DAE61A
:10049000D0E0CA22C0E0E493A3D39C5010E493A31D
:1004A000C39C400AD0E0D0E0D0E0020444A3A3A360
:1004B000D0E0227404800A740380067402800274FF
:1004C00001C0E0F4041204CED0E01206B1222518D7
:1004D000F58210AF08F518400215198008F518408C
:1004E000021519D2AF85198322C0D0251810AF0884
:1004F000F518500205198008F51850020519D2AFF9
:10050000D0D022BB0102E722C082C08389828A83C5
:10051000BB0003E08002E493D083D08222601608FF
:100520000808C6C313C618C613C618C613C618C60D
:1005300013C6D5E0EA22C3E0C696F608A3E0C69645
:10054000F608A3E0C696F608A3E0C696F62225189C
:1005500010AF08F518400215198008F5184002156B
:1005600019D2AF22C0E0E493A36C7009D0E0D0E0D0
:10057000D0E0020444A3A3D0E022E066701008A3F8
:10058000E066700A08A3E066700408A3E06622C370
:10059000E09608A3E09608A3E09608A3E096A2D20E
:1005A00065D03322E76670100809E766700A08090B
:1005B000E76670040809E76622C3E697F60809E6CD
:1005C00097F60809E697F60809E697F622C3E0963B
:1005D000F008A3E096F008A3E096F008A3E096F0F8
:1005E00022E056F608A3E056F608A3E056F608A364
:1005F000E056F622E627F60809E637F60809E63758
:10060000F60809E637F622E026F608A3E036F608F3
:10061000A3E036F608A3E036F622E026F008A3E0D1
:1006200036F008A3E036F008A3E036F022C0E0E898
:10063000C0E0E58124FCF8E6A2E7D0E0F8D0E022B3
:10064000700422600D18C6C333C608C633C6D5E091
:10065000F41822E4C396F608E496F608E496F60841
:10066000E496F622C3E7960809E7960809E7960894
:1006700009E79622C3E09608A3E09608A3E096084F
:10068000A3E09622600C08C6C313C618C613C6D5CD
:10069000E0F422E0F608A3E0F608A3E0F608A3E001
:1006A000F622E6F008A3E6F008A3E6F008A3E6F0D9
:1006B00022CAC0E0E6F0A308DAFAD0E0FA22251850
:1006C000F582E43519F58322E473900100000000FF
:1006D0000100000000580000640000001F0000003E
:1006E0002D00000097511800965118009F0200003D
:1006F000EFFFFFFF11000000FFFFFF007D00000083
:10070000FF0F000000001000FFFFFFFFF8020609C6
:100710000B0000544920496E630000014408E803BF
:100720004000287043705270EE70FFE80300000A2A
:100730000000009CFFFFFF320000009715FC46E917
:1007400060286A5D9905544920496E6300030003DF
:10075000000300030003000300030003000300057F
:10076000000A00140028004F009E00000072197259
:100770001972197219E30DD70D72194308000000A0
:1007800000A508000000000C0000000C000201FFA2
:10079000FFFFFFFFFFFFFFC73CAF3D9342E0450077
:1007A000000000F8583000000000000C00000400B9
:1007B0000000FCFFFF53FFC20DC6C902CB09FF7248
:1007C000357374017186FF34B02087892B51FF2760
:1007D0008228B38A2924FF422643FF253121FF4185
:1007E0002332FF22304CFF454B0B6B464748FF033B
:1007F00049000A44047101080B0F01210B7206091C
:100800000B73010F0B7403100B7507130B76021A91
:100810000B77021C0B1002220B1107240B78021E0F
:100820000B7901200B0005150D0910080430301656
:10083000181920231A1C1E30303017181921301BAC
:100840001D1F300300710030016000110070003185
:1008500002200350048000100061000000140063B7
:1008600000730072006200430000001300060000E5
:10087000000000040012000000000000000000045E
:10088000000400370037003C024400000000000074
:100890000000006500000035008100000005000038
:1008A0000083000000010371030103010301030140
:1008B00003010322030203010310030003000300EA
:1008C00003000300030003000342030003240306A4
:1008D000030003000304031203250323032503235A
:1008E00003040304030003000300034403000300A4
:1008F000032303000365032100350381030003057F
:10090000030003000300030C0E020B040B0A07088C
:10091000000F7219731979198811C41984114A12B8
:1009200036000100060000000F000000000000007B
:1009300000000000000003FFFF00000403FFFF00B1
:1009400000FFFF0FF4010005C404032000010000B4
:100950000B000000000000000003010F000136360C
:10096000010100010201000103010001040106066A
:1009700005020000070100340801000F090401010D
:100980000D0100FF0E08000017020000190100FF12
:100990001A0100011B0100FE1C0100081D020000DD
:1009A0001F01000120010001210200002301000FAE
:1009B000240200002601000127010008280200FF90
:1009C0002A0100072B0102402C0100002D0100012B
:1009D0002E0100012F0100FF30010B1C3108000027
:1009E0003A0100083B01000F2F010000441E151FB3
:1009F000151F7219151F151F151F151F151F151F00
:100A0000151F151F151F151F151F151F151F2C133B
:100A10000E13151F151F151F151F151F03000300AB
:100A20000400080010001F003E007B00F600EC01EF
:100A3000D703AF075D0FB91E713D000000BE040A69
:100A400003EAF5E5D5D5C5B5A59595858575756593
:100A500065555545453535252515150504ECECDC62
:100A6000CCCCBCACAC9C8C8C7C7C6C6C5C5C4C4C06
:100A70004C3C3C2C2C1C0CFFFF0FFFC8000000005E
:100A800001040303640006000000000000000000F1
:100A900000000000000001000000700C0202720C57
:100AA0000100730C0103740C0204760C02058F0C18
:100AB0000406780C01070000010000002B00790CEF
:100AC00001087A0C01097B0C010A7C0C010B7D0CDE
:100AD000020C7F0C010D800C0F0E930C010F940C77
:100AE0000210960C07119D0C0121000008009E0CBD
:100AF0000222A00C0223A20C0100A30C0100F5822B
:100B0000EB120BFFA2E22278081206A2020B583465
:100B1000FFF50DEE240DF582EF120BFF22E5A48503
:100B20001882851983F0E5A5C0E074011206BED0D5
:100B3000E0F0E5A6C0E074021206BED0E0F0740357
:100B40001206BE120B5D7808120693AA08AB09AC18
:100B50000AAD0B74041204E97F0402038CE4F0EA8A
:100B6000A2E792AF85188285198322F582EF120BD6
:100B7000FFA2E522E8120B7922244AF582E9340F1C
:100B8000F583221221FF900BA2123FA87A147B005A
:100B900022121710740222120B9B22E024FFF8A3EA
:100BA000E034FFF922F582EF1244E5E422E013136A
:100BB000543F5403227F0502038CFB129A60E92202
:100BC000120BAD22E50824FBF582E50934FFF5831D
:100BD00022A3A3A3E0FA8882898322E0F508A3E098
:100BE000F509E5082212218574041204E97F080240
:100BF000038C7A307B0B128463740222F582EF340B
:100C000000F583E022A2E7022F2612218574042238
:100C1000EE240EF582EF1244E522EE240DF582EF6C
:100C2000120BFF640122E0FEA3E0FFEE22123CBFA4
:100C3000A3A32239FB7F0702038CF0EEFAEFFB221D
:100C4000EE2412FCEF3400FD22120BFF640222E9B5
:100C5000FDEAFC74062DFAECA2E0501EEA75F00ADB
:100C600084ABF0EB6014740A2AC39BFAEBC39405BF
:100C70004004740A2AFA740B2AFAEDC39413400450
:100C8000781480027806E82AF8740928F8E4340019
:100C9000F97A0A7B0012012CE8F922C082C0837421
:100CA000FE12054E851882851983120DC91203C4E0
:100CB0000003880DBC0C130D880D380D900B82E0DD
:100CC000640F60181214CBE970128518828519839D
:100CD0001219B3900F6E12252E1206C8900BAAE0BF
:100CE000C0E0851882851983122B7CD0E0120DA4F8
:100CF0007414120D9FFCA3E0FD7A327B0B1283B2B9
:100D0000E5A8FAC2AF900B38120DC079201213A7D4
:100D1000025EE4900B58E0851882851983A3701158
:100D2000125764740D120D9FFAA3E0FB124C26803B
:100D3000DF125764741580BA125F03604B125F03B1
:100D400014120DA4120D98C0E08518828519831223
:100D50003492D0E0120D9F2402F8120FD224011217
:100D60005EEB88828983120DC914C394095019124D
:100D7000575DA3A3A3A3A3E0240AC0E012575DD04C
:100D8000E0120DCD04020CF2851882851983AA8227
:100D9000AB831216B9020D10A3A3120FEBE02212BF
:100DA00022CAE022120DA8221222CE120DAF22E09A
:100DB000F8A3E0F583888222E5A8FAC2AF900B374A
:100DC000E004F0EAA2E792AF22EAF0A3EB120DA84A
:100DD000A3A3A3A3A3E0221214CBE96003792022EA
:100DE000790122C082C083EA1210EEEB120B19D2F5
:100DF000E0021EECC082C083120E80120C20701123
:100E0000120E87400C8A828B83A3E0F91213BB80F9
:100E10006CEA121173EB120B19A2E650128A828B44
:100E200083A3E0F9900F7012252E1206C8804E128F
:100E30000E80120C207009120E8750047430803618
:100E40008A828B83A3E0641B7004742280288A82C8
:100E50008B83A3E0700F120E80120B19242DF582E4
:100E6000E43408800D120E80120B192438F582E448
:100E70003408F583E4938A828B83120E92021EED6E
:100E8000EA240DF582EB22EA121173EB120BFFA29A
:100E9000E322F0900B51E0F91282AE2274F81202B4
:100EA0007DE9FE900B39E07002A3E0603EEE700633
:100EB000120FD6E48014741B6E7033900B39121924
:100EC0003BE0640570EA120FD6EE123121FB120DE1
:100ED000F4900B39E0240E1211015003121BBA904A
:100EE0000B39E4F0A3F079101213A70219BF74E9CB
:100EF0006E6003020F95900B39123C607038125FE0
:100F000012E96032120FFC402D900BA4E0C0E0907B
:100F10000B39E02411123C4BD0E0F0900B93E0C071
:100F2000E0120FF2A3A3D0E0F0900B93E004F0796D
:100F30000112302C80B5900B39123C60900B396057
:100F40004CE0240E181818121003900B39E04014CE
:100F50002411120FCF14F07401900BE8F0900BE203
:100F6000E0F980CD240F120FD1C2E7121107240D32
:100F7000F8120FD26403700C900B39E02410120F9A
:100F8000CFD2E2F0120FDE1206C8020ED1120FD934
:100F900074E9020ECA74E16E7014125F12E97003F4
:100FA000020EC6120FFC5003020EC6020F09741C7B
:100FB0006E6003020EC6900B391219B3900F7612B1
:100FC000252E1206C8900B39E4F0A3F0020EEB08B0
:100FD0000808123C6822900B39120FEBA322900BE9
:100FE000391219B7900F6C120FEB22E0F8A3120D13
:100FF000B222900B39122CF3120FEB22900B39E036
:10100000240EF8123C68A2E22274F512027D750AE1
:1010100000750B00A2AFE492E0FEC2AF900B39E086
:101020007002A3E06008EEA2E092AF0210DB900F26
:101030007412252E1206C8E94410FA900B3080096C
:1010400085080A85090B120BC4120BDB7002E50937
:1010500060D41210E35A6A70E7780A1204BBAC0835
:10106000AD09120BF21204E9900B39E508F0A3E583
:10107000091211071210FF4065900B37E014F0EED3
:10108000A2E092AF900B39E0240E1818122CE6E87B
:10109000FEE9FF8E828F83E0FA900B39E0F8125F51
:1010A00009F9120C4FE9900B34F0A3E4123CA5A20D
:1010B000E75018900B39E024121210F312268D908D
:1010C0000B39E024131210F31225E6900B3912109D
:1010D000F8A2E1B3E492E0F912302C020B58900B25
:1010E000368099E5081210EEE509120BFF22241054
:1010F000F58222123C67F922E0240F123C67222479
:1011000010123C67A2E722F0900B39E02274F8122B
:10111000027DEAFEEBFF12169DEE121173EF120E26
:101120008C4009120C1A7004790280027905EEFCD9
:10113000EFFD7A307B0B1284E2E9602FEEFAEFFBD1
:10114000900F7212252E1206C8EE240EF582EF12B1
:101150000B014008120DB81210098014EEFAEFFBD3
:10116000900F6A12252E1206C8800574F1121178AC
:101170000219BF240FF582228E828F83A3120C3AAC
:10118000120DF4221210092274F812027DEAFEEB0D
:10119000FF7900900B56E05402700DEE242FF5827B
:1011A000EF120B01500279E8900B56E05460700C7E
:1011B000EE242F120B16A2E1500279E88E828F8363
:1011C000A3A3A3A3E0C39475400279E8EE242D12F3
:1011D0000B167010EE242A120B16700879F51213F4
:1011E000BB0219BFE970F7EE240D121244F0EE2491
:1011F0002F120B16C0E0120C10D0E0F0EE243012CB
:101200000B16C0E0EE2412120C13D0E012194DC0E0
:10121000E0EE2413120C13D0E0F0EE242B120C138A
:101220001203FAEE2422FCEF3400FDEE242D120B03
:1012300016F9120B911204E9E970A6EEFAEFFB120F
:10124000110D809D1244E2740122C082C083740D8E
:101250008A828B83F0124C26021EEDC082C083E48A
:101260008A828B83F0A3F0EA242F120AFE401190A9
:101270000B37E0C39402401179F11213BB021EED4B
:10128000900B36E0C3940250EF12158380EF74F494
:1012900012027D890CEA2425F582E43408F583E402
:1012A00093244AFE890A250AFAE43400FB12822FAD
:1012B000EA7001EB60158A828B83A3A3A3A3E50CDC
:1012C000F08E081212D21244FB80047A007B0002D6
:1012D0000BB5EA2508F8EB3400F98A828B8322C02B
:1012E00082C083E4900B4FF0900B50F0900B4312B0
:1012F00013067402900B45F0900B4C121306740108
:10130000900B4E021EEC74A7F0A37413F02274F13C
:1013100012027D121F161206937808790C12018DA5
:1013200078081204B37A467B0B020BE574F51202BF
:101330007D74CE12054E900B82E0640F6007742E10
:1013400012136D80237A3D7B0B120B8312013488BC
:10135000088909750A00750B0078081204B37A3DF4
:101360007B0B120C0A1204E97432020B55851882A9
:10137000851983F0AA82AB831214E022FAEF3400BD
:10138000FB7950121C76221204E90219BF74020282
:101390001387AA82AB83128203851882851983AAD8
:1013A00082AB83124C262274F812027DE9FA7B008C
:1013B000900B51E0F912852F0219BF74F512027DCE
:1013C00074F012054EE9FE8A828B83E02407F582D1
:1013D000E43409F583E493C0E074011206BED0E062
:1013E000F0640B700DEE8A828B83A3F01219C40295
:1013F00014C6E070030214C6640C60030214B374D4
:10140000041206BE1221F9EA242EF582EB120B1902
:10141000C0E074031206BED0E01218FFA3A3A3A37A
:10142000A3780812069374061206BE78081206A264
:101430008A828B83A3A3A3A3A3A3A3A3A312487805
:10144000740A1206BE1244FDEA240EF582EB120B5A
:1014500019A2E45003E48010EA2411F582EB120B88
:1014600019FC900BA4E0C39C851882851983F0E0D9
:10147000C0E0740C1206BED0E0F0EA2414F582EB52
:10148000120B19C0E0740D1206BED0E0F0EA24156C
:10149000F582EB120B19C0E0740E1206BED0E0F01C
:1014A000EA2416F582EB120B19C0E0740F1206BE87
:1014B000D0E0F074021206BEEEF074011206BEAA6D
:1014C00082AB83124C267410020B55C082C08390ED
:1014D0000B58E064037004790180027900021EED6C
:1014E00074F712027D900B58125FEB2478F582E9B5
:1014F000340FF583121708E0C2E7F0C333FCE82C81
:10150000F582E9120C16A3E493FEC333FCE433FD29
:10151000EC2478F582ED340FF583E07002A3E060EF
:1015200005EE900B58F08A828B83E0C333FCE433E2
:10153000FDE82CF582E93DF583E493F508C4540FEA
:10154000C3332467F582E4340BF583121944700128
:10155000E970118A828B83E0C3940B5023791812AF
:1015600013BB801C740F5508C333FCE82CF582E9CB
:10157000120BA893C0E0740193F583D0821206C8C1
:10158000022DD2900B51E0F91282AE22C082C083AC
:10159000E9900B51021EEC74F712027D74FE1205E5
:1015A0004EEAFEEBFFEE54207031803CE5A8FCC211
:1015B000AF900B38E0141226498A828B8312168171
:1015C000900B541221F91214E0851882851983E0DA
:1015D000641560077A547B0B1216B97A327B0B12B2
:1015E000840CEA7001EB70C474805FF9E47001E967
:1015F0007005801112168A900B51E0F912830DEAE2
:101600007001EB70EFEE54106005742D12136DEE47
:10161000A2E05005742412136DEE54026005742587
:1016200012136DEE54046005742612136DEE540807
:101630006005742812136DEE5440600C740112069C
:10164000BEE4F0742C12136DEE5480600C74011221
:1016500006BEE4F0742F12136D900B52E07002A3DB
:10166000E06017E5A8FCC2AF900B521219B3900BC3
:1016700052E4F0A312264912168A7A007B00022D4A
:10168000CDE0851882851983F022900B54EAF0A3EF
:10169000EBF01214E07A547B0B1216B922C082C010
:1016A00083900B54124878EA687002EB69700790D7
:1016B0000B54E4F0A3F0021EED74F812027DA2AF09
:1016C000E492E0F508C2AF8A828B83E07002A3E067
:1016D00060338A828B831242C6EC24FBF8ED34FF20
:1016E000F9900B54122534EC6E7002ED6F70079078
:1016F0000B54E4F0A3F08A828B83E4F0A3F0E8FAC1
:10170000E9FB129250022F22123FA88A828B832279
:1017100074EB12027DEAFEEBFF8C108D1174151232
:1017200006BE1219337508008C828D83A3A3A3A370
:10173000A3A3A3A3E0F512E9A2E75008750AFF7579
:101740000BFF8006900B971218F7E9C2E7F513EE2E
:10175000240E120B6BEE5009240F120C1374088028
:1017600005240F120BA5121905A2E2EE5007124430
:10177000DC748080051244DC7410121905A2E45058
:1017800008EE2411120BA5800E900BA4E0C0E0EE31
:101790002411120C13D0E0121905A2E050037508B1
:1017A000208E828F83A3A3E024FFF50CA3E0120B0D
:1017B0000FC39402E040061412190E74034508F595
:1017C00008851314751500740E7814120640E5157B
:1017D000F509740265137011900B9C12190D900B92
:1017E0009B1218EE1218EA801974036513700F1219
:1017F00018DD7CAB7D0BAA0CFB129AA180E6E513E9
:101800006028E5126014E50E650A7004E50F650BAB
:10181000700874404508F5088010850C82850D839A
:10182000E50B12192AE50A12191485120A750B0024
:10183000740A780A120640E50B4509F50974026539
:10184000127018851082851183A312190D851082DC
:101850008511831218EE1218EA801974036512704C
:101860000F1218DDAC10AD11AA0CFB129AA180E684
:10187000E5126010850C82850D83E50F12192AE5AB
:101880000E121914A80CA90DE824FFF50CE9120B8F
:101890000F7005900B878003900B93E0FA04F0EA39
:1018A00088828983F0850C82850D83E50912192AC7
:1018B000E508F0EE2404F8EF3400F9EE2402FAEF24
:1018C0003400FBAC0C125FFFFDE02DC39C1218FF2F
:1018D000ECF0A3E50DF079007F0E02038CE50C24FB
:1018E000F9F50CE50D34FFF50D2212191D22E085E6
:1018F0000C82850D83F022E0F50AA3E0F50B22F0BF
:101900008A828B8322F0EE240E120BFC22E0850CDF
:1019100082850D8312191822F012191D22E50C245C
:10192000FFF50CE50D34FFF50D22121918850C8218
:10193000F58322E0F50EA3E0F50F22E0240D123C22
:101940005922A3A312194822123FACE822F0EE2438
:1019500031120BFC22121A61A3E0221244E5121983
:101960006222E50CF0A3E50DF0A3E50EF0A3E50F70
:10197000F0222279191213BB2274F812027DEAFEBA
:10198000EBFF900B52E07002A3E06010900B52123C
:1019900019B31219737A527B0B1216B9EEFAEFFBD8
:1019A00012169D900B52EEF0A3EFF08012A3A3A3AA
:1019B000A3A3A31219B722123129FB221248B17F27
:1019C0000102038C74F812027D74DE12054EEAFEE9
:1019D000EBFF8E828F83E0120427011E1F271A035C
:1019E00003EB1905271A18EB19301A74161206BEE4
:1019F000E4121A6E740B1206BEAA82AB83129AA16D
:101A000074131206BE7403121BCB74021206BE12AC
:101A100044FD740A1206BE7402121A667414120689
:101A2000BEE8F0A3E9801074161206BE740180C1EE
:101A300074161206BE7402F0740B85188285198321
:101A4000121A5DE0C0E074011206BED0E0121A7CEA
:101A500074171206BE1213927422021387121A61AF
:101A600022123CAAA322F0900B97123FA822F01258
:101A70001A7322EE2417FCEF3400FD22F07C0B7D5C
:101A80000079002274F712027D74FE12054EE9FE01
:101A9000A2AFE492E0FFC2AFEE601C9009207C7A16
:101AA0007D0B743C1204511225B6E9900B93F01291
:101AB00025B6E9900B87F0900F8AE07015122EEA98
:101AC000E4900BCDF0900BDBF012487C1226F11263
:101AD000270053A7EF1222DC122FA7121BBA900B7C
:101AE00079E0F91225C1121E35121BCBE890617402
:101AF000F0E912301A750800E508C333F8E433F949
:101B0000121BAFE07002A3E06009121BAF12252E7A
:101B10001206C80508E508C3940740DC900B52E0A4
:101B20007002A3E060077A527B0B1216B9E4900BA7
:101B300058F0900AE9E07002A3E0601E800D85185D
:101B400082851983AA82AB831216B9900B51124871
:101B5000841244FDE87001E970E4E4900BB6F08073
:101B6000077A307B0B121BD3900B30E07002A3E09E
:101B700070EF900B32E07002A3E060097A327B0BC9
:101B8000121BD380ED900B30E4F0A3F0900B36F0F5
:101B9000900B37F0900B38F0900B79F07A9A7B0B22
:101BA0007952121C76EFA2E092AF7900022DCDE8B7
:101BB0002459F582E9340BF58322900BAAE0F9123F
:101BC000268D900BA9E0F91225E622F0900B9B12CE
:101BD0003FA82212840C851882851983EAF0A3EBB2
:101BE000121F551216B922F0900B56E4F0A3F01212
:101BF000253A021EEDE9FA74C02AC3941E500574FA
:101C0000C02AF92274202AC394065005743E2AF98A
:101C10002279242274F412027DEAFEEBFF121BF5F6
:101C2000E9F50874246508700479F48046E5A8F5A0
:101C30000CC2AF75090074027808120640E508244A
:101C40005CFAE5093409FB8A828B83E493247AF5F4
:101C500008E4340BF509750A0078081204B78A8283
:101C60008B83A3E493125DF21204E9E50CA2E792E0
:101C7000AF7900020BB574F212027D8908EAFEEB1F
:101C8000FF74456508700B900B7FEEF0A3EFF00238
:101C90001E12121BF5E9FA8A0974246A700579F498
:101CA000021E14890A750B007402780A120640128B
:101CB0001E267014890A750B007402780A120640F9
:101CC000121E177003021D55890A750B00740278E5
:101CD0000A120640E50A245CFAE50B3409FB8A8205
:101CE0008B83A3A3E493FC8A828B83A3A3A3E493B3
:101CF0006C700579FB021E1474586508701B8E8287
:101D00008F83E02471F8A3E034FFF9C3E89422E95B
:101D10009464400579E8021E148E828F83E0C0E04F
:101D200085090A750B007402780A120640121E26F5
:101D3000FAD0E0C39A40DD85090A750B0074027879
:101D40000A120640121E17C0E08E828F83E0FAD07E
:101D5000E0C39A40BFE5A8F50AC2AF85090C750D2E
:101D6000007402780C120640E50C245CF8E50D3492
:101D700009F9E8FAE9FB8E0C8F0D750E00780C124C
:101D800004B78A828B83A3E493FC7D008A828B83D1
:101D9000E493247AFAE4340B125DF81204E9E50ABC
:101DA000A2E792AFE508120427000750C21D52D8DF
:101DB0001D53C81DE0031EE1EA1DE2F41DE50A1EE5
:101DC000121E121E35021C8E900B9B12194490613C
:101DD00074F0E990617580ED900B9AE079026005EE
:101DE000122EAB802D122EC98028900BAAE0F9127A
:101DF000268D801E79087CAB7D0B7A6A7B61123957
:101E00004E800F900BA9E0F404F0900BA9E0F912BA
:101E100025E67900020C35E50A245FF582E50B34EE
:101E200009F583E49322E50A245EF582E50B340983
:101E3000F583E49322900B97121948906172F0E9B0
:101E4000906173222274F812027DE9FE900BB6E0D5
:101E50006E700479008034E0702F900B58E06004BD
:101E600064027025A2AFE492E0FFC2AF900BCCE019
:101E70007012900BCEE0700C900BE1E07006900BAE
:101E8000E0E0600AEFA2E092AF79E20219BF122F00
:101E900075EE900F8AF0EFA2E092AF5394FEE594B6
:101EA000A2E240FA74016E60079061A5E0C2E2F020
:101EB000EE900BB6F0809CC082C083900BB6E060C1
:101EC00005122FA7E4F08025C082C083900B6774B1
:101ED00012F0A37409021BE7F0900B5974DFF0A312
:101EE0007412F0900B56E04401F0A3E0F0D083D0E0
:101EF0008222C082C083900B6974ECF0A37409F055
:101F0000900B6D74F6F0A37409F0900B6F7412F0DF
:101F1000A3740A80C322900BA5121F28750A0075AE
:101F20000B00900FA2780C22E0F508750900221230
:101F30000FECA3A3E0F508A3E0F50922EE2412FAC2
:101F4000EF3400FB22EE241AF582EF120BFF64033C
:101F500022121F55221222CEAA82AB832274F112C2
:101F6000027D900BBBE4F0A3F0900BB7E07002A3EE
:101F7000E06037900BB7122CEFC082C083900F82C5
:101F80007808120693D083D082780812058F501AF1
:101F900012206912207C12058F500612207C120636
:101FA000A2900BB71220751244FD900BB9E070029D
:101FB000A3E0900BBB6030E07002A3E0601E900BCA
:101FC000B9122CEFC082C083900BBB12207F120687
:101FD00093D083D082780812058F5012900BB912DB
:101FE00020751244FD8007E07002A3E06075122C9A
:101FF000ECC082C083900F827808120693D083D001
:1020000082780812058F505B900BBB12207F12065E
:1020100093A2AFE492E0FEC2AF900BC37808120621
:10202000A21223947808790C120664500874029066
:102030000BC7F0801C900EC9780812057A700474E2
:102040000380027405900BC7F0900BBF780812064E
:1020500093AA08AB09AC0AAD0B1236B5EEA2E0921A
:10206000AF8003122372020BED1223448A088B09FE
:102070008C0A8D0B22123FA8900BBB22900BB7123B
:102080002CF378082274F112027D8A088B098C0ADD
:102090008D0B740F1206BE804D8A828B83A3A378AA
:1020A0000812061A900BBB124878EA687002EB69B6
:1020B00070308A828B83A3A3C082C083900EC978BC
:1020C0000C120693D083D082780C12058F50139097
:1020D0000EC9780C1206938A828B83A3A3780C1204
:1020E00006A28A828B831219B3EA7001EB70AA02EE
:1020F0000BED74F112027DEAFEEBFFA2AFE492E079
:10210000F50CC2AFECFAEDFB8C828D838008AA0E31
:10211000AB0F8A828B83121933E50E7002E50F60D4
:10212000228E828F83A3A3C082C083850E82850FF7
:1021300083A3A37808120693D083D082780812056F
:102140008F50CB8A828B83EEF0A3EF123CAAE50E70
:10215000F0A3E50F12216D122239687002EF697049
:1021600003121F5DE50CA2E092AF020BEDF08C8232
:102170008D8322EEFAEFFB1220F2020BED1222A564
:102180007808790C2274F112027DEAFEEBFF740FDD
:102190001206BE780812069312217D1205F48E8273
:1021A0008F83A3A378081206A27CB77D0B80C4742A
:1021B000F812027DECF8EDF98C828D838004A88200
:1021C000A9831242C68C828D83E5827002E583600A
:1021D00014EA65827003EB658370E31219B3122170
:1021E000F57901800279000219BF123C832422F89C
:1021F000A3E03400F988828983EAF0A3EBF022742B
:10220000F812027DEAFEEBFFA2AFE492E0F508C20D
:10221000AF7CB77D0B1221AFE9700B7CB97D0BEE63
:10222000FAEFFB1221AF900BBB122239687002EF5C
:10223000697003121F5D022F2212223D22123FAC51
:10224000EE2274F112027D900BB7E07002A3E070F1
:102250000A900BB9E07002A3E0603BE5A8FEC2AFB4
:10226000900BC378081206931222A1EEA2E792AF58
:10227000900ECD780C1206077808790C120664507F
:10228000117808790C1205B9AA08AB09AC0AAD0B94
:10229000800C7A0180027A007B007C007D00020BBA
:1022A000ED1222A5221223448A0C8B0D8C0E8D0F69
:1022B00022C082C083900BBEE06401700479FE806E
:1022C0000279FF021EED1222CA221222CE22F085CE
:1022D0001882851983221204E9021EED74F5120298
:1022E0007D7401900BC7F0900EC97808120693AA6E
:1022F00008AB09AC0AAD0B123663900FA678081232
:102300000693AA08AB09AC0AAD0B12231F75A1EF07
:10231000439401E594A2E250FA43A710020B5874CB
:10232000F512027D8A088B098C0A8D0BE5A8FEC286
:10233000AF900BBF78081206A21236B5EEA2E79254
:10234000AF020B5874F112027DE5A8FEC2AF12373E
:10235000CEEEA2E792AF900BBF780C120693780CEA
:10236000790812066440087A007B007C007D000238
:102370000BED74F512027DE5A8FEC2AF7401900B5F
:10238000C7F0900BBF7808120693AA08AB09AC0AF5
:10239000AD0B80A51236378A0C8B0D8C0E8D0F225B
:1023A0007F0C02038C74F112027DA2AFE492E0F57F
:1023B00008C2AF900BC7E0F509A2E04003022489F0
:1023C000900EC9780C120693AA0CAB0DAC0EAD0F93
:1023D000123663A2AFE492E0F50AC2AF900BB912D5
:1023E0002534900BB71203FA900F82780C120693E3
:1023F000780C120653AA0CAB0DAC0EAD0F12208553
:1024000074021204E980378E828F83A3A3C082C036
:1024100083900F82780C120693D083D082780C12AE
:10242000058F4013900F82780C1206938E828F8353
:10243000A3A3780C1205CD8E828F83122534EE7003
:1024400001EF70C3900F82C082900F86780C120645
:102450009375830FD082780C12057A6023900F86D3
:10246000780C120693900F82780C1206A2900F82BD
:10247000780C120693AA0CAB0DAC0EAD0F12231FF5
:10248000121F5DE50AA2E092AFE509A2E1506B746C
:1024900001900BC7F0900BBF780C120693AA0CABFF
:1024A0000DAC0EAD0F1236B5E508A2E092AF900B61
:1024B000BBE07002A3E06067900BBBE07002A3E09A
:1024C000605D122069122CEC780C120693780C795E
:1024D000081206644049900BBB120C26FAEFFB125F
:1024E0002522A3A3A3A3E0F98E828F83A3A3A3A392
:1024F000A3A312252E1206C880BE740565097019A3
:102500007402900BC7F0900BC3780C120693AA0CC0
:10251000AB0DAC0EAD0F1236B5E508A2E092AF02DE
:102520000BED1221FF8E828F83A3A3A3A322120F90
:10253000EB22A3A3E0FEA3E0FF22C082C0831234FB
:10254000A17C00ECC333F8E433F9E8241CF582E9FC
:10255000340AF583E493FA740193FB120B7412218D
:10256000F90CECC3941040DB740B900BCAF0900B89
:10257000C9F07432900BCBF0900BC8F0E4900BE0F4
:10258000F0900BDFF0900BCDF0900BDBF0900BD1C7
:10259000F0A3F0900BCC1227C8122B94900BDCF018
:1025A000900BDDF0900BDEF0900BE1F0900BE8F07B
:1025B0001222DC021EED74F355B44404F5B4A9BD37
:1025C00022C082C083906180E0FAE96004D2F0808A
:1025D00002C2F0A2F0E492E0C333C0E074FD5AFA04
:1025E000D0E04A021EEC74F812027DE9FE907803F6
:1025F000E064957006785C790A80047840790A88EE
:10260000828983E493C39EA2D265D0334013A3E4AE
:1026100093FAEEC39AA2D265D03350088882898398
:10262000A3E493FEE5A8FCC2AF88828983E493C348
:102630009E2402FAE82AF582E9120BA893900BCBAC
:102640001226491226500219BFF0ECA2E792AF22DF
:10265000C082C083A2AFE492E0FBC2AF900BCBE09C
:10266000FA900BC8E06A601A900BCEE07014900BE1
:10267000E1E0A2E7400C900BCBE0900BC8F090613A
:1026800090F0EB8001EAA2E092AF021EED74F81226
:10269000027DE9FEA2AFE492E0FFC2AFEE900BCA6A
:1026A000F0900BE1E070031226AEEF022F24C082FF
:1026B000C083A2AFE492E0FBC2AF900BCAE0FA90F5
:1026C0000BC9E06A6023900BCAE0900BC9F0EBA243
:1026D000E092AF122F7575F005E0A424D490618FBD
:1026E000F0122752122F098005EBA2E092AF021ED2
:1026F000EDC082C083E4900BCDF012300A021EECD4
:10270000C082C08353A7FE900BEAE024B7F91227DA
:1027100014021EEDE9FCC394AFA2D265D03350047D
:102720007CAF800DECC3940BA2D265D03340027C09
:102730000AECF83395E0F9745128F8E439F9E875B2
:10274000F0FFA4F8AAF075F0FFE9A42AF97A5B0279
:102750000C93C082C0837401900BDDF0900BDCE021
:10276000700812276DE4900BDDF0021EEDC082C0F0
:10277000839061A4E0C2E0F07405906194F075E18B
:10278000ED75E1EDE5A8C2AF759B0075E9FBA2E729
:1027900092AF900BD1E07002A3E060077AD17B0B7F
:1027A0001216B9900BD1E4F0A31227C8F0900BCC0D
:1027B000E07006900BCEE0600CE4900BCCF0900B38
:1027C000CEF0122DFF021EED1227CC22F0900BCF7F
:1027D00074D7F0A374272274F512027D74FE1205DB
:1027E0004E7481900BCCF0900BDFE0600D90619304
:1027F000E0A2E74010E0A2E6400BE4900BCCF01220
:102800002DFF022B5A9061E4E070179061A4E0A2C2
:10281000E4500FE0C2E4F0E0A2E3500312342E12C1
:10282000323D122B8E900BCDE0900BDAF079047ACA
:10283000D37B0B12397B900BD3E0547F24FD900B9C
:10284000D7F0900BE9E07020900BD7E0C3947D5057
:102850000B900BD4E05407C39404400C75E1ED7564
:10286000E1ED122DD7022B5A900BD4E054076402ED
:10287000600302293A900BDBE0600302293A7902F7
:10288000851882851983AA82AB8312397BA2AFE4B3
:1028900092E0FFC2AF900BE1E06486600302293250
:1028A000851882851983E024B7FE74011206BEE004
:1028B000547FF508EEF9122714E9C0E0900B39E0D7
:1028C0002414123C4BD0E0121107123C49E50812C7
:1028D00011072416122DA3F0EFA2E092AF7401129B
:1028E00006BEE0A2E75046900BD4E05410FE900BD9
:1028F000D6E0FFA2AFE492E0F508C2AF900BE1E0B2
:10290000648670257487F012341AE508A2E092AF4D
:10291000900BE6E06F700EEE6007791B1232AA8012
:1029200016790080F779E980F3E508800612327B9A
:102930008005EFA2E092AF022862900BE1E064868E
:10294000700312327B900BDAE06024900BDBE070B6
:102950001E900BDAE064017003022A0EE06402604C
:10296000030229F9900BD4E054076003022A0E9069
:102970000BD5E0FA1313543F5403F50BEAC41313B9
:102980005403F50A900BE9E070127401650A7003B4
:1029900002285C7401650B700302285C850A08122A
:1029A0002B5FC0E0850B08122B5FFAD0E02AFEE512
:1029B0000A600A900BD4E0A2E650021E1E900BD7CC
:1029C000E0FA8E08740225081255BD4041E0C39E0E
:1029D00024FE900BD9F0900B38E0C3940250359050
:1029E0000BD9E0F8743228FAE43400FB12822F8A03
:1029F000088B09A808A909801FE064036003022965
:102A00006F900BD4E054076403700302296F122EF9
:102A100028022B5A78007900900BD1122DC3700236
:102A2000A3E0700575E1E880E57F00900BDBE070C6
:102A30000A900BD4E05420900BCEF0900BCEE060C7
:102A400068A2AFE492E0F508C2AF900BD4E054075F
:102A500064037039900B56E054026019900B36E015
:102A60007021900B39E07002A3E06009900B39E00F
:102A70001210FF400E900BBDE060121222B1E9640B
:102A8000FE700A7F0490618AE0D2E2800690618A3B
:102A9000E0C2E21230017591FEA2E792AF9061A40C
:102AA00012487FE508A2E092AF900BD1E0122DA86A
:102AB0001244FB900BD9E0C0E0900BD1122B73A312
:102AC000D0E0122DC7241A123C4BE50A122DC72460
:102AD00023123C4BE50BF0123486900BD1E02424FA
:102AE000123C4B78081206A212361C900BD1E0243F
:102AF000281221EF900BD4E05407C0E0900BD112C4
:102B00003492D0E0F0900BD6E0C0E0900BD1E024FE
:102B100031123C4BD0E0F0900BD4E05478C0E09000
:102B20000BD5E0C4540F5403FAD0E04A4FC0E090F4
:102B30000BD1122B7CD0E0122DC7240F122B6DEE7F
:102B40007005122C6A8013900BD8F014906194F0E9
:102B5000900BCF749BF0A3742BF07402020B55E51D
:102B600008243CF582E4340AF583E49322123C59AC
:102B7000E4F022122B7722122CF7A322122B8022B0
:102B8000122B8422120DAFA3A3A3A3A3A3229061AF
:102B9000A4E0C2E0F0E4900BCEF02274F812027DC3
:102BA00074EC12054E122E8BAC82AD83900BD512B5
:102BB0000BC0FE6065900BD1E0242C122CE585182B
:102BC00082851983E0FC74011206BEE0FBEC88826A
:102BD0008983124289FA900BD1E0242A1221EF74E2
:102BE000036E701674021206BEAC82AD83900BD1D8
:102BF000E0241B124285740A801974021206BEE09A
:102C0000FA74031206BEE0FB900BD1E0241B1221E4
:102C1000EF74041206BEAC82AD83900BD5E0C413F2
:102C2000135403FE6030122DBBA2E64011122C5E3D
:102C3000242A1221EFEC24020C0CED3400FD740365
:102C40006E700B900BD1E024121242858008122C7A
:102C50005E24121221EF122C6A74140213878C82E4
:102C60008D831219B7900BD1E022900BCF74A9F08D
:102C7000A3742CF0122C7822C082C083900BD9E070
:102C800070117401906194F0900BCF74FEF0A374F6
:102C90002C8013C394105003E080027410900BD862
:102CA000F0E014906194021EECC082C083900BD8B7
:102CB000E0F9900BD1122CEF1219B312397B900B63
:102CC000D1E02402122CE5900BD8120BD4125EE94D
:102CD0001221F5900BD8E0FA900BD9E0C39AF012CC
:102CE0002C78021EEDF8A3E03400F922900BBB1201
:102CF0002CF322122CF722E0120DB0A3A32274F7BA
:102D000012027D7F0079027AD37B0B12397B900B04
:102D1000D4E05480F5087008900BDBE06402706D1D
:102D20007402900BCCF0122F2B900BD3E024B7FE43
:102D3000900BD4E0547FF509900BBDE06010900B30
:102D4000BEE07008906163E0A2E650027F04EF45A8
:102D500008FA122DBB4AF0EEF9122714E9C0E090F0
:102D60000BD1125EFCD0E0122DC72430122DA3121D
:102D70002DC7242F123C4BE509122DC7122DA8A3F5
:102D8000A3122DC3FAA3E0FB120C9B800A122B8E18
:102D90007AD17B0B1216B9900BD1E4F0A3F0122E6E
:102DA0009E802F123C59EE222432F8A3E03400F921
:102DB000900BD1123129F5838A8222900BD1122BEC
:102DC00080E022E8F0A3E9F0900BD1E02274021237
:102DD00004E97F0202038CC082C083906193E0A269
:102DE000E6500BE0A2E7400675E1ED75E1EDE490F9
:102DF0000BCCF0900BCEE07003122DFF021EEDC045
:102E000082C083122F2B122650A2AFE492E0FAC2A6
:102E1000AF900BE1E064027007748312312E8005DD
:102E2000EAA2E092AF021EEDC082C083900BD7E011
:102E30007005122DD7801EC394105003E0800274D9
:102E400010900BD8F0E014906194F0900BCF745870
:102E5000F0A3742EF0021EEDC082C08374F0120540
:102E60004E122E8B900BD8E0FA900BD7E0C39AF05D
:102E70006011C39410500FE0900BD8F0149061943F
:102E8000F08003122E9E74100222D6900BD8E0F927
:102E9000851882851983AA82AB8312397B22740537
:102EA0009061941227CCF0122DD72274F812027D73
:102EB000E9FEE5A8FFC2AF900BE0E04EF0122F5AFA
:102EC000EF020C05A2E702268874F812027DE9FEE3
:102ED000E5A8FBC2AF74FF6EFA900BE0E05AF0EB8E
:102EE000A2E792AF122F2B0219BFC082C083E5A8C0
:102EF000FAC2AFE4900BE0F0900BDF122F9CEAA235
:102F0000E792AF122752021EED74F812027DA2AFB3
:102F1000E492E0FEC2AF900BE0E06003122F5AEEA5
:102F20008002E508A2E092AF0219BF74F812027D98
:102F3000A2AFE492E0FEC2AF900BE0E07019900BFC
:102F4000CCE0A2E74011900BCEE0700B900BE1E0DB
:102F5000A2E74003122F75EE80CAC082C083A2AFE1
:102F6000E492E0FAC2AF900BDFE070067401F075F6
:102F7000E1E3022685C082C083A2AFE492E0FAC2F8
:102F8000AF900BDFE06012E4122F9CE5A8C2AF7592
:102F90009B0075E9FBA2E792AF022685F075E1EF91
:102FA00075E1ED75E1ED22C082C083900F8AE0608B
:102FB0004D439401E594A2E250FAE0640270379028
:102FC00061A512587A900BE9E0C3941250131230A5
:102FD0000AF0900B9BE0906174F0900B9CE0123033
:102FE0001A740590619412300175E9FBA2E792AF63
:102FF0009061A312587AE4900F8AF0122F09021EF2
:10300000EDF0E5A8C2AF759B0022900B97E09061B0
:1030100072F0900B98E090617322906175F07908DE
:103020007CAB7D0B7A6A7B6112394E2274F81202F6
:103030007DE9FE7401900BE1F0900F8AE060087961
:103040001D1232AA023117EE900BE2F06402701AE0
:1030500012319B75E1D975E10175E10975E1BA7528
:10306000E10175E1C575E1D2803CE4900BE51211F8
:1030700007240EF8120FD2A2E65005900BB480037D
:10308000900B96E0900BE3F0900BE2E07015900B44
:103090007DE0600F900BE3E0C39403400474028072
:1030A00001E0F0123135900BE8E07045900B3912D9
:1030B0006009FAA3E0F5838A82E05420900BE712BE
:1030C000428CFAA3E0F5838A82A3A3E0900BE61278
:1030D0003121F5838A82A3120BD1120B9788828942
:1030E0008374022AF075E1EE0AE0F5D9A31AEA70BA
:1030F000F8A2AFE492E0FAC2AF900BCCE07010906F
:103100000BCEE0700A7483900BE112312E800874AC
:1031100002900BE112311A0219BFF0EAA2E092AF5D
:1031200022F0900B3912312922E0FAA3E022123169
:103130001A1231A22274F712027D75080175090076
:10314000900BE3E07808120640E50814C0E0122571
:10315000B6E9FAD0E05A900BE4F0900BE2E070117F
:1031600012319B75E18175E11075E1D275E18180C5
:103170000C12319B75E1B875E18175E1B875E1100C
:1031800075E1D275E1D975E10175E10975E1BA75AD
:10319000E10175E1C575E1D2022DD21232F175E17E
:1031A000BC2274F812027D122B8E900BE2E06402B6
:1031B000704D12336EA2AFE492E0FEC2AF75C30051
:1031C000E5A2E5A4FF740F5FFA740FC39AF50890A7
:1031D00061E2F0122EEA7401900BDFF075E1E17507
:1031E000C300E5A2E5A46F600FE508C394024008A0
:1031F00074FF25089061E2F0EEA2E092AF80031226
:1032000032050219BFC082C083900BE2E0702890A3
:103210000B3BE07002A3E0600D900B3B12252E12D9
:1032200006C8E9FA80027A00900BE4E0C39A4007EE
:10323000791C1232AA800312331F021EED74F81299
:10324000027DA2AFE492E0FEC2AF900BE1E06483A6
:103250007021900BE7E070127485900BE1F0EEA204
:10326000E092AF79001232AA800E7486900BE1F0E2
:1032700012337AEEA2E092AF0219BF74F812027D07
:10328000A2AFE492E0FEC2AF900BE1E06486701260
:103290007487F012341AEEA2E092AF79E91232AAE2
:1032A0008005EEA2E092AF0219BF74F812027DE928
:1032B000FEE4900BE8F0900BE1F0122F2B12265059
:1032C0001226AEEEF9120E9C0219BFC008E5A8FA4C
:1032D000C2AF75C300E5A2F508E5A3FBEAA2E79239
:1032E000AFEBF9A8087A007B0212012CE8F9D008AC
:1032F00022C082C083759C0174019061E4F075E185
:10330000E275E1FFE5A8C2AF759B007591EFA2E7FA
:1033100092AFE5A8C2AF759B007591F7022EC4C0AD
:1033200082C083900BE4E09061E2F0E06003E0147F
:10333000F075A1FDA2AFE492E0FAC2AF75C300E55B
:10334000A2FBE5A3FC900BE9E0C394125008EB70DC
:1033500005EC70027B0175C3038BA28CA3EAA2E08B
:1033600092AF12336E122F5A75E1E1021EED906199
:10337000A4E0D2E4F0E0D2E3F02274F712027D126E
:1033800032CBE9FF900B7AE02F24ECFA75F014842D
:10339000FE75F014A4CA9AFA0E74029061E4F0EE7D
:1033A0009061E2F075A1FDA2AFE492E0FBC2AF75BF
:1033B000C3038A0875090074097808120640F8A941
:1033C00009900BE9E0C394125009E47001E970031D
:1033D000087900E8F5A2E9F5A3EBA2E092AF75E168
:1033E000E275E1FFE5A8C2AF759B007591EFA2E71A
:1033F00092AF75E1BC75E1B875E1D29061A4E0D2FD
:10340000E4F075E1E11232CBE9C39F500A9061E22A
:10341000E06E7003E014F0022DD2C082C083906190
:10342000A4E0C2E4F075E1E275E1FF021EED74F183
:1034300012027D9061A4E0C2E3F0E5A8FEC2AF12E3
:103440003486EEA2E792AF900BBF780C1206937809
:103450000C7908120664400A900EC9780C12069383
:1034600080088A0C8B0D8C0E8D0F900B39123492C4
:10347000780C1206A212361C900B39123498A3A3B2
:103480001221F9020BED12364E8A088B098C0A8D37
:103490000B22122B77A3A32212349C22122B84A37B
:1034A0002274F712027D74F012054E74149061A913
:1034B000F0743F9061ABF074F8906196F074859071
:1034C00061A8F0745A9061ACF0E49061AEF07415AC
:1034D0009061B2F0E4906182F074109061B5F07484
:1034E0000E9061B6F074039061B7F074099061FAC0
:1034F000F074FF9061E5F0439A01D2A843A901530B
:10350000B9FE906249E0900BE9F0E5A8C2AF75C33F
:103510000275A20075A328A2E792AF439401E59437
:10352000A2E250FA439408D2BA7448906189F0122A
:103530002F5A906199E0A2E050F87A007C007B0855
:10354000123612C0E0ECC333FCD0E04CFC1BEB7035
:10355000EF8A08E50824F1F582E4340BF583ECF0FA
:103560000AEAC3941040D5780079007C10E8C33390
:10357000F8E933F912361248F81CEC70F0E87001E3
:10358000E9600A7480687003740369700478BE7916
:10359000BAE8F5BCE9F5BC900BEFE07002A3E0607F
:1035A000467A007C007B08123612C0E0ECC333FC84
:1035B000D0E04CFC1BEB70EF8A08851882851983DC
:1035C000E5822508F582E583120C16ECF00AEAC3C1
:1035D000941040CF851882851983AA82AB83900B03
:1035E000EF12252E1206C8122F757440906189F0D3
:1035F000E0D2E5F0E4906164F0906165F09061667E
:10360000F0906167F0906168F0906169F074100269
:103610002DCF9061A7E0A2E0E492E022C008E5A8E7
:10362000FAC2AF75C301E5A3FBE5A2F508EAA2E77C
:1036300092AFAA08D0082274F512027D74FC12051C
:103640004EE5A8FAC2AF75C300E5A2020B1D74F5E2
:1036500012027D74FC12054EE5A8FAC2AF75C310C4
:10366000020B1D74F512027D74FC12054E12370414
:10367000900BEB1237C812060785188285198378DC
:1036800008120536900BEB78081206A2E5A8FAC2DC
:10369000AF75C300851882851983E0F5A474011203
:1036A00006BEE0F5A574021206BEE0F5A6EAA2E7A2
:1036B00092AF020B53C082C08374FC12054E1237C6
:1036C000047A00A2AFE492E0FBC2AFE5A7A2E45007
:1036D000040A53A7EF75C330851882851983E0F576
:1036E000A474011206BEE0F5A574021206BEE0F550
:1036F000A675A1EFEA600343A710EBA2E092AF74B6
:10370000040222D6851882851983EAF0A3EBF0A380
:10371000ECF0A3EDF022C0E074F21202DDA2AFE4FF
:1037200092E0FED2AFE5A7FAE5A1FBEA5B54106098
:10373000081223A575A1EF802AEAA2E0C0D0EBA26F
:10374000E092F012062D158182F05017906198E0FA
:10375000FA900BEAE0C39AA2D265D0335002EAF0A5
:1037600075A1FE751A00EEA2E092AF7F0102033C44
:1037700074F512027D74FC12054EE5A7A2E45045D3
:10378000E5A1A2E4403FE5A8FAC2AF75C330E5A4C5
:10379000851882851983F0E5A5C0E074011206BE84
:1037A000D0E0F0E5A6C0E074021206BED0E0F074EE
:1037B000031206BE120B5D1237C8120674500612B1
:1037C00023A575A1EF020B531237CE7808221236CB
:1037D000378A088B098C0A8D0B2274F512027D74CE
:1037E000FE12054EE5A8FAC2AF75C300E5A2E5A436
:1037F000851882851983F0E5A5C0E074011206BE24
:10380000D0E0120B5EC082C083900BEB78081206EA
:1038100093D083D082E02508FAA3E03509FB022B80
:103820005AC0E074F21202DDA2AFE492E0FED2AF21
:103830009061A4E0FA759B00E5915A5408600975FF
:1038400091F712342E0238DAE5915A5410606B75F4
:1038500091EFE0C2E4F09061E4E0700512323D8047
:1038600079E06401704F7404900BE1F0122F2B90FB
:103870000BE5E004F0900B95E0C0E0900BE5E0FA7A
:10388000D0E0C39A500779E11232AA804D900BE341
:10389000123919900BA11241445007900BE3E00438
:1038A0008001E0900BE3F01231357483900BE1F06E
:1038B000123205802512327B8020EAA2E0C0D0E5DA
:1038C00091A2E092F012062D158182F0500C122B7D
:1038D00091900BCCE07003122DFF9061A3E0FAE50C
:1038E000E95A54046030900BDDE0701F7401900BB6
:1038F000DCF0900BCF12252E1206C8E4900BDCF002
:10390000900BDDE0600512276DE4F075E9FB906136
:1039100093E0A2E640D0023763E0F874012808E49F
:103920003400F922C0E074F21202DDA2AFE492E0AA
:10393000FED2AF9061A5E0FAE5BF5A5404600C7561
:10394000BFFB900BDEE004F012275202376374F8DD
:1039500012027D8019198C828D83E08A828B83F01C
:10396000A3AA82AB838C828D83A3AC82AD83E970E2
:10397000E40219BFF08A828B83A322C082C083E550
:10398000D98A828B83F0A3AA82AB8319E970F002F3
:103990001EED74F512027DEAFEEBFF8E828F83A38B
:1039A000A3A3A3A3E0A2E650057508088003750849
:1039B000068E828F83A3A3A3A3E02508F98E828FAE
:1039C00083A3A3A3A3A3E0A2E35004740429F97B77
:1039D000007A0012128E8A0A8B0BA80AA90BE870D3
:1039E00001E9700479BE801D8E828F831244F7AA8C
:1039F0000888828983A3A3E02A122CE58E828F8314
:103A00001244F57900020B5874F112027DEAFEEBC4
:103A1000FFE4900E531245DBF0A3F0900EB8E06483
:103A2000016014E06402600F74B4900E53F0123C15
:103A30008C1248B1020BED900F05780812069375B1
:103A4000830C75828F780812057A700474B680DA58
:103A50008E828F83A3A3A3A3A3E0540964096011FA
:103A60008E828F83A3A3A3A3A3A3E07002A3E0701D
:103A70000474E880B58E828F83A3A3A3A3A3E0A2DE
:103A8000E040277A907B108E828F83E0F91249A163
:103A9000E9600474B28093A3A3A3A3A3E0A2E350BC
:103AA00009123C5D700474BD8080900E53E0600389
:103AB000023A2E8E828F83E0901018123CB0F8A349
:103AC000E0F990108E123F8E2405123C425415905E
:103AD0000EC312428CA2E090108EE050231240627E
:103AE00090108EE02422123C4B74FFF0A3F012459C
:103AF00076F0900C72E0900EC4F0E4901019803CC7
:103B0000242D123C4B7402123CB5A2E14005124533
:103B10006A4008123C4F1245B28011123C4F7402A9
:103B20001245DBE0240E123C4B1221EA12456A508A
:103B300005123C6D80031245761245A3123CB5A2D6
:103B4000E25006900EB712587A90108EE0121F2F96
:103B50007401850882850983123CB554246424705D
:103B600035900C72E012042700030F753B14793B6B
:103B7000197D3B813B7401800974028005740380C8
:103B800001E4C4333354C04401850882850983F0BD
:103B9000900C72E08001E4901019123CB5A2E6503E
:103BA00029850882850983E044031219557002A310
:103BB000E07005900C9480068E828F83A3A3124838
:103BC000788508828509831244F7850882850983F0
:103BD000E04428F01250108A0C8B0D8C0E8D0FA330
:103BE000780C1206A28E828F83A3E0850882850955
:103BF00083A3A3A3A3A3123CB5A2E3503A8E828F62
:103C000083A3A3A3A3A3A3A3A31203FA8E828F83E8
:103C1000A3A3A3A3E0F99010901242C6AA08AB098F
:103C200012505B74021204E9E9700C123C8CF074BF
:103C3000BE900E53023A317403900EB8125BB90273
:103C40003A34F8EF125C82E0222415123C5922909B
:103C5000108EE0242A123C5922125C7B2290109094
:103C6000E02411123C6722F8125C7CE02290109054
:103C7000E0240C123C59123C83242B123C59EAF0EC
:103C8000A3EB22123129FB90108EE0228E828F83CB
:103C9000A3A3A3A3A3A3125C3E7402900E52123CF2
:103CA000A5900E5422123CAAE022F08E828F83222D
:103CB000120C2DE022123CBBA3E022123CBF2212C8
:103CC0003CAAA3A3A3A322C082C083900EBCE07031
:103CD00025900EB7E0A2E2501D901019E0700490FC
:103CE0000EC4E0FB123D0E1244CAE06B6008123DA8
:103CF0000E1244CCEBF0900EB7E0C2E212455574C0
:103D000002900E52F09010181248A5021EED90106D
:103D100018E075F02BA42274F612027D900EB8E024
:103D20006401703E8A088B09750A0078081204B78E
:103D30007C1A7D007A017B0C125DF91204E9E49093
:103D40000C6DF0900C1BF0900C6CF07404900EB89D
:103D5000F0740F900EC4F01258BB124106123FC40B
:103D60008013740690101AF074B490101BF0E49055
:103D7000101C123DDE02499CC082C083900EB8E048
:103D800064047028123FB2123DE7900C6DE0A2E28D
:103D90005005D2E3F080157401900EB8F0741190C4
:103DA000101A1241017A1A7B101265A6021EEDC08C
:103DB00082C083900C6DE0A2E25020C2E2F0A2E348
:103DC000500D1240FC741190101A123DDE800C90C0
:103DD0000EBCE06006123DE71240A1021EEDF07A33
:103DE0001A7B101265A622900EB9E054FB125209FC
:103DF0007A041252122274F612027DEAFEEBFF9050
:103E00000EB8E064046003023F8B121F456003029A
:103E10003F8B900C1BE0C3940A4003023F8B750A52
:103E2000008023120C40850A087509007403780885
:103E3000120640E508241CFAE509340C120BBA609E
:103E400003023F8B050AE0FAE50AC39A40D57405E0
:103E5000900E52F0900EC4E0900E54123F99900EC6
:103E600055123F8E120C417A577B0E129AA18E8208
:103E70008F831219422411F582E912427F50047C8B
:103E80000F80027C00F50A8E828F83A3A3A3A3E098
:103E9000F5087406550AC3132CFCE43400FD747055
:103EA000550AC430E30244F0FA3395E0FBEA2CFAF9
:103EB000EB3DFB74132AFAE43BFBEA65087001EB67
:103EC0006003023F8B88828983A3A3A3A3A3A3E0FB
:103ED000900E53F0E82407FCE93400FD7A5F7B0E76
:103EE000124F458A828B83E0900E83F07B00800C1A
:103EF0000A900C11E0FCEAC39C40170B900E69E09D
:103F00005470C430E30244F0FAEBC39A50247A00B0
:103F100080DF8B08E508247CF582E4340EF583E02D
:103F2000FC8A08E5082412F582E4340CF583E06C81
:103F300070BE900C11E0600F900E69E05470C430B8
:103F4000E30244F06B6044120C40900C1B121F28DB
:103F500074037808120640E508241CFAE509340CBD
:103F6000FB129AA1E0041248B1E0640A6009E0FA89
:103F7000900C7CE06A7014123FB2900C6D12487F76
:103F8000900C79E0600514900C6CF002499C123F93
:103F900093EE22E8F0A3E9F022F0EE242A123FA1EA
:103FA00022F582EF3400F583123FAC22E0F8A3E063
:103FB000F922900EB9E0F0A3E054FBF07A007B0404
:103FC0001252142274F712027D900C05E0A2E05008
:103FD00004780F80027800FC7B007A0074705CC467
:103FE000C0E074065CC31328FCD0E02C2412F91244
:103FF0005BC47002A3E0700A1240FC79BE124069F3
:10400000805D90108EE0124062900C031221EA90C5
:104010000C01123C761245AE74018E828F83A3A3ED
:10402000A3A3A3F07C057D0CEE2406FAEF3400FB7D
:10403000124E4F8A088B09A808A909900C1012602B
:1040400003F0900C191242C67A041242B87411128D
:1040500045D8E4F0A3F0900C6DE0D2E2125BB90217
:104060002DD2125C6B7402F02274F812027DE9FE0C
:104070007406900E52F0900C7CE0C0E0900C1BE0B7
:10408000FAD0E0C39A500474B78008E0700474B8A2
:104090008001EE900E53F0900C1BE0900E5402192C
:1040A000BCC082C083900EC4E0F9124E1AE9F064DD
:1040B0000F7035900C6CE004F0900C6D1240F7908E
:1040C0000C6CE0C0E0900C79E0FAD0E0C39A400DAF
:1040D0001240FC900EBCE0F91240698017900C6D04
:1040E000E0A2E0500F1241067AC47B0E79E1121C67
:1040F00076123FC4021EEDE0D2E1F0227401900E70
:10410000B8F01258D622C082C083900C6C123919B4
:10411000900C79124144501F900C74E07002A3E09F
:104120006015900C741242C67A007B041242BA9059
:104130000C6DE0C2E08006900C6DE0D2E0F0E0C2D1
:10414000E1021EECE0FAE89AE99400C365D033225C
:1041500074F712027DEAFEEBFF900EB8E064016096
:10416000030242638E828F83A3AA82AB83124DB770
:10417000EA7001EB7021124DFFE964FF70197409B8
:10418000900E52F074FF900E54F074B0900E53F0F5
:104190007A527B0E024279EE240BF582EF12427FB7
:1041A0005004780F80027800FC7B007A0074705C09
:1041B000C4C0E074065CC31328FCD0E02C2414F9BE
:1041C000125BC47002A3E0700302427C1245887443
:1041D00003121A5DAC82AD8390108EE0242212424D
:1041E000858E828F83A3A3A31219AD90108EE02435
:1041F0002B123C4B125BCA121F2FAA08FB124E3423
:10420000850882850983A3A3A3A3A3A374FEF0A3B7
:1042100074FFF07403850882850983A3A3A3A3A375
:10422000F0EE240BFCEF3400FDE5082408FAE50964
:104230003400FB124E4FEE2416123C428A828B83CE
:1042400012428C901077F07405900EB8123CA59035
:104250000EC4F01258BB74241245D8E4F0A3125BCC
:10426000B98019740990101AF074FF90101CF07442
:10427000B490101BF07A1A7B101265A6022DD21290
:104280000BFFA2E0221245CE22F0A3EBF088828938
:1042900083E022C082C083900EBCE0700D900C7D44
:1042A0001242C67A081242B8800B7401900EB812FE
:1042B00048981248A6021EED7B00900EB6E0F91257
:1042C0008B6E221244E5E0FCA3E0FD2274F11202A1
:1042D0007D8A0C8B0D900EB8E0640560030244C02B
:1042E000EA241AF582EB121F4B60030244C08A8253
:1042F0008B83A3A31218F7E50A2415F582E50B12A8
:10430000427F50047A0F80027A00FE850C828B83F4
:10431000A3A3A3A3E0FC74065EC3132AFAE434004B
:10432000FB74705EC430E30244F0F83395E0F9E8C2
:104330002AF8E93BF9741628F8E439F9E86C7001B9
:10434000E960030244C0900EB9E054F71252097AB2
:104350000812520E7409900E52124501E0900E534D
:10436000F0E50A240BFCE50B3400FD7A557B0E12B8
:104370004F45E060030244B6E50C2412FAE50D3423
:1043800000FB124DB78A828B83E5827002E5836061
:1043900005E0F508800B124DFFE9F508124CADE978
:1043A000F0E508900E54F0900E55E0A2E0502E85F6
:1043B0000A82850B83E0C4131354031203C4010261
:1043C000DD43C843CF43D6431244C3740F80191250
:1043D00044C3741480121244C37419800B900EC429
:1043E000E0C0E01244C3D0E0F0E875F02BA424A4B0
:1043F000FEE9340CFFE50C242AF582E50D1255D1B7
:104400001244FDE50C2412FCE50D3400FDEE2404FD
:10441000FAEF3400FB129AA1850A82850B83A3A3CD
:10442000A3A3A31244EAE8F0A3E9124501A3A3A3BE
:10443000122239120C11123F8E2424F50AEF340097
:10444000F50B7C037D007900AA0AFB128203750C30
:104450006F750D0E750E00780C1204B7900E5F127A
:104460004F3CAA0AAB0B125DF91204E9900E5612EA
:1044700022392422120C131244FD900E55E0C0E0A4
:10448000EE1244DCD0E0F0900EC9780C120693EEE8
:104490002427120C13780C1206A2EE2411F582EFD9
:1044A0001244D6740390108DF0A908125A4D74FF6F
:1044B000901078F0800A1240FC7A527B0E1265A6AA
:1044C000020BEDA808E875F02BA4A9F024A7F5824B
:1044D000E9340CF583221244E5E4F022241012445E
:1044E000E222F582EF3400F58322A3A3123FA88EC7
:1044F000828F83A322A3A3A3A3A3A3A3A3123F9367
:104500002212450BA3A3A3A3A3A322F0850A8285AD
:104510000B8322C082C08374FF12054E7901129969
:10452000E512454F740D900E52F0E4900E53F07466
:1045300001851882851983F0AC82AD837A00798376
:10454000124AD27A527B0E1265A674010222D6124A
:10455000455DE0D2E0F07401900EB8F0227A8B7BDA
:104560000F7952121C76900EB722901090E0241012
:10457000123C67A2E02212457A2290108EE0242B92
:10458000125C7B74FFF0A32290108E121948242D28
:10459000F582E91244E57403F0E8242AF582E91271
:1045A00044E5221245DB122B77E0900EC422125C08
:1045B0008A221245B62274031245DBE02404FCA3D0
:1045C000E03400FD90108EE024221245CE22FAA3A2
:1045D000E03400FB129AA122900EC3F090109022BA
:1045E000C082C08374FE12054E851882851983AA85
:1045F00082AB83900C6EE0F91249A1E9700F851827
:1046000082851983124649900C6E1255CB74019025
:104610000EB8F0740E900E52F0900C6E1248A50277
:104620005EE474F812027D74FE12054EE9FE8518F0
:1046300082851983AA82AB831249A1E970081246C8
:1046400049EEF9124D7802138D120FEB74FFF02230
:1046500074F612027D74F812054EE9900EB6F0E47D
:10466000900EB7F07401900CA2F0747F900CA3F040
:10467000121EF2124C8BE4900C93F0900C9DF09073
:104680000C9E74FFF0A3F0900CA0F0A31222C6AC15
:1046900082AD837A087901127992E9702875088CC5
:1046A00075090F750A0078081204B77C087D00743C
:1046B000031206BEA982AA837B001281937403129F
:1046C00004E9E9602F75080C750978750A00780807
:1046D0001204B77C087D0074031206BEAA82AB8365
:1046E000125DF91204E9851882AC82AD837A0879EB
:1046F0000112786A124D44740802499974F7120243
:104700007D74FE12054EEAFEEBFF74805FF9E470E3
:1047100001E9603D900EB61248841244FDE8700134
:10472000E96025851882851983120D9A640D700B36
:10473000851882851983E0FA12522C851882851912
:1047400083AA82AB831216B9EEFA74806FFB02481B
:1047500075900EB9EEF0A3EFF0900EB9E0A2E05024
:1047600003125F4FE054806003125181E0540260F5
:1047700005E4900EC3F0900EB9E05404600B900E67
:10478000B8E0640470031240A1900EBAE05404F93A
:10479000E47001E96021900EB8E064047019900C97
:1047A0006D12487FA2E1500F1241067AC47B0E7948
:1047B000E1121C76123FC4900EB9E05408601690C6
:1047C0000EB8E06405700E7401124898900E54F013
:1047D00074B31248AE900EB9E054206027900EB822
:1047E000E064016005E06402700F7A727B0C79E18D
:1047F000121C7612455D12487F900C701242C67AE8
:10480000401242B8900EB9E054406039900EB7E0C3
:10481000A2E45031900EB8E064016005E0640270DB
:104820000B7A6F7B0C124561E0C2E0F0900C7012C5
:10483000487875830C758276E0C398FCA3E099FDF7
:104840007A201242B8900EBAE05410F9E47001E9EF
:10485000601F90108DE06403600AE064046005E06E
:104860006402700779B9125DB38006E070037401C9
:10487000F07A007B00022DCD123FA822906180E0EB
:10488000D2E0F022E0F912830D8A088B09A808A96A
:104890000985188285198322F01258D67409900E62
:1048A00052F074FF22E0900E54F0900EBCE0900E97
:1048B00053F07A527B0E1265A62274F612027DE93D
:1048C000FEEAFFECFAEDFB74A02EC39410505F7C5F
:1048D0009A7D0A74A02EF50A850A087509007402EB
:1048E0007808120640EC2508F582ED3509124AC712
:1048F0007001E9604D850A08750900740278081294
:104900000640EC2508FCED3509FDE493F50874013B
:1049100093F509750A0078081204B78C828D83A379
:10492000A3E493FC7D00125DF91204E980677480B2
:104930002EC3940950087CDA7D0A7480809779F43C
:10494000805574686E7025EFC3940A501BEF75F0A4
:104950002BA424A4F508E5F0340CF509750A0078B9
:10496000081204B77C2B80BC79F9802B74846E709C
:104970000DEAFCEBFD7A08790112799280177467D1
:104980006E70BB900EB7E0A2E4500474018001E4A5
:104990008A828B83F0790080031204E97F0302038B
:1049A0008CC082C083E9FD1255986D7017ED75F0CB
:1049B0002BA424A4F8E9340CF98A828B831244FDD9
:1049C0007900800279B2021EED74F512027D74F84E
:1049D00012054EE9FE124D447901121A848518829F
:1049E000851983AC82AD837A087901127992AA8203
:1049F000AB8379E2121C76900F09E0906196F07A11
:104A0000A37B0C79E5121C76EE607C124C8B7F0048
:104A10008F0875090074027808120640E508249D85
:104A2000F582E509340AF583E49360398F08750946
:104A30000074027808120640E508249AF582E50918
:104A4000340A124AC77001E9601B8F0875090074A7
:104A5000027808120640E508249AF8E509340A129B
:104A60004D2112786A0FEFC3941040A47F00EFF934
:104A7000124D780FEFC3940A40F47C6F7D0C7A00DE
:104A80007983124AD2801B900FAA7808120693905D
:104A90000C8F780812061A7C8F7D0C7A0479061226
:104AA000786AE4900EB7F0900EB8F07A727B0C79C9
:104AB000E1121C7679011299E5900C9DE0600312D9
:104AC000454F7408020B55F583E493F8740193F98C
:104AD000E82274ED12027D890B8A0AECFEEDFF7468
:104AE000A0250BC394104003024BCB75089A75099F
:104AF0000A74A0250BF51285120C750D007402784E
:104B00000C120640E508250CF582E509350D124A20
:104B1000C77001E9604485120C750D007402780CB1
:104B2000120640E508250CF510E509350DF5118E46
:104B30000C8F0D750E00780C1204B785108285114C
:104B400083A3A3E493FC7D00851082851183E49305
:104B5000FA740193125DF81204E9A3A3A3E493602D
:104B60003475130074027812120640E5082512F518
:104B700010E5093513F511EEFCEFFD851082851166
:104B800083A3A3E493FA851082851183A3A3A3E4EE
:104B900093F912786A7468650B704CE50AC3940A3D
:104BA00050418E0C8F0D750E00780C1204B77C2BC3
:104BB0007D00E50A8CF0A424A4FAE5F0340C125D23
:104BC000F81204E9A90A124D7880567480250BC3A7
:104BD0009409500B7508DA75090A7480024AF37952
:104BE000F4804079F9803C7461650B70051258A31C
:104BF000802F7484650B701AEEFCEFFD7A08790142
:104C000012786AE97008EEFAEFFB79E2801079BE5B
:104C100080117488650B7009EEFAEFFB79E5121CC0
:104C20007679000223A074F712027DEAFEEBFF8E74
:104C3000828F83E01203C40C01884C3F4C7C4CEE05
:104C40002403F8EF3400F9880889098882F5831273
:104C500019B312169D8E828F83A3E0900EBCF0854F
:104C60000882850983124878900EBD1244FD7A01AE
:104C70007B00900EB6E0F912852F800CEA7001EBF4
:104C80006006900EB6121586022DD2C082C08390A7
:104C90000A777C707D0C7423120451FBEB124CAD2F
:104CA00074FFF00BEBC3940A40F2021EED75F02B7B
:104CB000A424A4F582E5F0340CF5832274F51202E5
:104CC0007DEAFEEBFF8909750800804B85080A75AF
:104CD0000B007402780A120640124D39A3A3A3E414
:104CE00093603285080A750B007402780A12064038
:104CF000124D39124AC97001E9601A85080A750B0C
:104D0000007402780A120640EE250AF8EF350B12FD
:104D10004D211279920508E508C3950940AE020BB2
:104D200058F9E493FC740193FDA3A3E493FA8882F9
:104D30008983A3A3A3E493F922EE250AF582EF3534
:104D40000BF5832274F812027D79107A9A7B0A128D
:104D50004CBC79097ADA7B0A124CBC750800E5086C
:104D6000124D8F127992124DA71279920508E5081B
:104D7000C3940A40E90219BF74F812027D8908E958
:104D8000124D8F12786A124DA712786A0219BF75F8
:104D9000F02BA424A4FEE5F0340CFFEEFCEFFD7A2A
:104DA0002774242508F922EE2427FCEF3400FD7A2D
:104DB00004742E2508F92274F812027DEAFEEBFF36
:104DC000750800A808E81255926024EEFCEFFDE893
:104DD00075F02BA424A8FAE9340C120BBA6010E584
:104DE0000875F02BA424A4FAE5F0340CFB800D0523
:104DF00008E508C3940A40CB7A007B000219BFC0C3
:104E000082C0837900E9124CADE064FF600909E9D2
:104E1000C3940A40F079FF021EEDE9FA740F6A703C
:104E20000379142274146A700379192274196A7050
:104E300002790F2274F512027D8A828B83742AF024
:104E40001250108A088B098C0A8D0BA3020B077471
:104E5000F212027DEAFEEBFF8C088D09900C93E0C4
:104E60008E828F83F0900C941248788E828F8312FA
:104E700044FC750C96750D0C750E00780C1204B779
:104E80007C077D00EE24030A0A0AEF124F33120456
:104E9000E9850882850983125BA8A3A3A3A3F0EE8A
:104EA000240BFEEF3400FF850882850983E0A2E031
:104EB000501B750C80750D0C780C1204B77C0F120A
:104EC0005DF31204E9EE240FFEEF3400FF85088243
:104ED000850983A3A982AA83890C8A0D780C120400
:104EE000B7850882850983124F3C125DF51204E9EB
:104EF000125007EE28FEEF3400FFE5082404F50CFD
:104F0000E5093400F50D780C1204B774705AC41218
:104F10005DF21204E9850882850983E05470C4308B
:104F2000E30244F0F83395E0F9EE28FAEF020C338F
:104F3000FAE50B3400FB12814D740322E05406C3E2
:104F400013FC7D002274F212027D8A0A8B0BECFEA8
:104F5000EDFF8E0C8F0D750E00780C1204B77C0BD4
:104F60007D00125DF91204E9EE240BF508EF125BE7
:104F7000A38E828F83A3A3A3A3A3A3A3A3A3A3E02E
:104F8000A2E0502085080C85090D780C1204B77C2E
:104F90000F7D00E50A240B124F301204E9E50824C6
:104FA0000F125B9FEE240AFEEF3400FF85080C858C
:104FB000090D780C1204B78E828F83124F3CE50ADC
:104FC000241A124F301204E9125007E50828125B28
:104FD0009F85080CF50D780C1204B774705AC4FC48
:104FE0007D00E50A241D124F301204E98E828F8362
:104FF000E05470C430E30244F0F83395E0F9E5087A
:1050000028FAE509020C33E0FA74065AC313F822B1
:1050100074F112027D900C8F780C120693900ECDD5
:105020007808120693900C8F780812061A900C8F4D
:10503000780812069374FF5508F874035509F9E8C7
:105040007001E9700B7C8F7D0C7A04790612786A06
:10505000AA0CAB0DAC0EAD0F020BED74ED12027D80
:10506000EAFEEBFF8C128D13890874131206BEE062
:10507000F510A3E0F5111258767A4C7B1079E21204
:105080001C14A385820A85830B780C120693125593
:10509000DD8E828F83E090105912450B780C12063A
:1050A0009390105A780C1206A2E5122404FCE51322
:1050B0003400FD7A5E7B10129AA1125174AA0AFB89
:1050C00012991C750C66750D10780C1204BB780AC9
:1050D0001204BB750A0D750B00780A1204BB750A21
:1050E00059750B10780A1204BB85080A750B0078F5
:1050F0000A1204BBAC10AD117A4C7B107904127902
:10510000DD740A1204E9E97066750A66750B107899
:105110000A1204BB125174780A1204BB85080A757E
:105120000B00780A1204BBAC10AD117A4C7B1079DD
:1051300004127D0674061204E9E9702F7A008A824F
:10514000A882E82466F582E43410F583E0C0E0E844
:10515000250AF8E43400F9E51028F582E51139F55F
:1051600083D0E0F00AEAC3940440D3790180027945
:10517000000223A0E5122412F50AE5133400F50B12
:1051800022C082C083900EB7E0C2E0F0D2E4F07A91
:105190006F7B0C7952121C76021EED74F812027DA0
:1051A000EAFEEBFFEE7001EF700812521D12518102
:1051B0008052900EB7E0C2E4F0D2E0F0900EB9E079
:1051C00054BF1252097A4012520E900EB9E054DFC9
:1051D0001252097A2012520E7A8B7B0F7952121CCE
:1051E00076900EB8E0640270037401F074FF6E7084
:1051F0000374FF6F700512521D8009EEFCEFFD7AFB
:10520000801242B879000219BFF0A3E0F0221252D6
:1052100012227B00900EB6E0F9128B9122900EB90B
:10522000E0547F1252097A801252122274EB120259
:105230007D8A0A8B0B8A828B83A3A3A3A3E0C394EA
:1052400002500302558F8A828B83A3A3E0F514A337
:10525000E0F515851482F583E05403F509740165C2
:10526000097005750806800E7402650970057508D9
:10527000058003750808E0A2E5500A5418131313BB
:10528000541FFA80027A00850A828B83A3A3A3A30A
:10529000E0C39508500302558FEA700302558FE56D
:1052A0000A241AF582EB120C4960030253BCE50A8A
:1052B0002412F582EB120C161219B31255B41242D5
:1052C000C37F00EF125592603CEF75F02BA424B021
:1052D000F582E9340CF583E06C7003A3E06D702572
:1052E000EF75F02BA424B2F582E9340CF583E06A63
:1052F0007003A3E06B700EEF75F02BA424A4FEE9FD
:10530000340CFF800B0FEFC3940A40B77E007F0080
:10531000EE7001EF70030253FFEE2427120C13C04E
:1053200082C083851482851583A3780C120693D0DE
:1053300083D082780C12067450030253FF74026506
:1053400009600302558F851482851583E05404603B
:105350000302558FEE7001EF7003025565EE2411C4
:10536000120B16600E851482851583E054047003B9
:10537000025565EE2427120C13C082C083900FAE35
:105380007810120693D083D08278101205E185142C
:1053900082851583A3C082C083900FAE780C12065D
:1053A00093D083D082780C1205E17810790C120525
:1053B000A4700302553C75080102553FE50A24120A
:1053C000FAEB3400FB124DB78A0C8B0DAE0CAF0D0F
:1053D000EE7001EF60291255B4120B1964FF7004CE
:1053E000A3E064FF70030253191255B41255D1E0C3
:1053F000687003A3E06970030253197E007F008583
:105400001482851583E054047003025354850A8284
:10541000850B83A3A3A3A3E0FA85080C7404250CD1
:105420001255BD500302558FEE7001EF7003025507
:105430008FEE2411120B16700302558FEE2404FC1C
:10544000EF3400FD7A4C7B10129AA18514828515E9
:1054500083A3858210858311780C1206931255DD83
:10546000851482851583E0901059F085108285118E
:1054700083780C12069390105A12195E7A5E7B1094
:1054800079E2121C14A808850A82850B83A3A3E085
:1054900028F50CA3E03400F50D850A82850B83A363
:1054A000A3A3A3E0C39508F5081255A9AA0EFB1201
:1054B000991C75106675111078101204BB780E12C5
:1054C00004BB85080E750F00780E1204BBAC0CAD42
:1054D0000D7A4C7B107904127EBF74061204E9E940
:1054E0007047750E66750F10780E1204BB1255A921
:1054F000780E1204BB750E0D750F00780E1204BBEA
:10550000750E59750F10780E1204BB85080E750FB5
:1055100000780E1204BBAC0CAD0D7A4C7B107904F4
:1055200012809F740A1204E9E97064850A82850B6F
:1055300083A3A3A3A3E024FCF002535D75080085B8
:105540001482851583A3780C120693EE2427F58226
:10555000EF12195BE508600D7402650960268E8202
:105560008F831255CB740165096006740365097059
:105570000DEEFCEFFDAA0AAB0B1257688011740206
:105580006509700BEEFCEFFDAA0AAB0B1255EA029F
:1055900018D812559864FF2275F02BA4A9F024A402
:1055A000F582E9340CF583E022EE2412F50EEF3497
:1055B00000F50F22E50A242AF582E50B22F8E434EF
:1055C00000F9EA98E499C365D03322E0F9124D78E6
:1055D000221244E512223D240C1244E2229010547F
:1055E0001219627405901058F02274F812027D8A24
:1055F000828B83A3A3A3A3E0C39406500302575A4C
:105600008A828B83A3A3123492E01203C402065A47
:10561000571F565A5725562B5685568B56EA561203
:105620003DF602575A1242CC02575A8A828B83A304
:10563000A3A3A3E06406600302575AEA241AF58282
:10564000EB121F4B600302575AEC7001ED7003021E
:10565000575AEC2411F582ED120B1960118A828BD6
:1056600083A3A3125763E0A2E2400302575A740FC8
:10567000900E8412216DE0900E85F07A847B0E12DC
:1056800065A602575A12598C02575AEC7001ED70F8
:105690000302575A900EB8E06409600302575A900B
:1056A000108DE06402600302575A125A156003021B
:1056B000575A8A828B831225328E828F83E054045C
:1056C0007003025751A3A3A3A3A3A3E0600302574F
:1056D000518A828B83A3A3A3A3E0640B7073125A35
:1056E0003BEEFAEFFB125C9D8070EC7001ED606A9E
:1056F000900EB8E06409706290108DE06404705AF6
:10570000125A1570558A828B83A3A3A3E0F97F00F8
:105710008F82AC82EC125C2DE0FEE82CF582E9125F
:105720005D0B6E70070FEFC3940440E48882898399
:10573000E05404601CA3A3A3A3A3A3E070138A8274
:105740008B83A3A3A3A3E0640B7006EFC394045060
:105750000479BA80027900125DB30219BF851882FC
:10576000851983A3120FEE2274F812027DEC7001EA
:10577000ED70030258738C828D83E0900E851218B1
:10578000FF12587FC4131354031203C40102A2571B
:1057900096579A579E577E0F800A7E1480067E1970
:1057A00080027E007401900E84F0EA2430F582EBD2
:1057B000120B19C39400A2D265D033400474FF8049
:1057C00003E0C333900E8A12428C540364038A822E
:1057D0008B83A3A3700AE0240812588E24F8800853
:1057E000E0240612588E24FA900E89F0EA2423F55C
:1057F00082EB120C497017EA241BF582EB120B198D
:1058000064FF7004A3E064FF700474018001E490FD
:105810000E8B12428C54046006900E8B1240F78857
:10582000828983E0540364037013900E8B12587ABC
:10583000888289831219AD900E871221F988828996
:1058400083A3A3A3A3A3E0900E86F0EE601E900CAA
:1058500072E06E6017900C93E0A2E3500FEE900C94
:1058600072F07A807B0012908A1258A37A847B0EA1
:105870001265A60219BF8E828F83E0D2E2F022A3C6
:10588000A312588522123FAC88828983E022FCA3B0
:10589000E03400FD900E8CECF0A3ED123974A3A35C
:1058A000A3E022C082C083900EB7E0A2E050097A44
:1058B000727B0C79E1121C76021EEDC082C08390CF
:1058C0000EB7E0A2E0400C7A8B7B0F7952121C7667
:1058D00012487F021EEDC082C083900EB7E0A2E4A2
:1058E000500D7A6F7B0C7952121C76E0C2E0F07A90
:1058F000727B0C79E102519574F612027D90108D45
:10590000E0600464017063900EBCE0703590107824
:10591000E0FA901077E06A70217AA37B0C79E512A7
:105920001C76740290108DF0125A3B900C7D12423E
:10593000C67A007B101242BA804F901078E004F0D3
:105940008014750879750910750A0078081204B773
:10595000125A211204E990108DE06401700779B9A0
:10596000125DB38024125AEA801FE0640370159020
:105970000EBCE07008740490108DF080AE900EBCE8
:10598000E0F980DCE0640260F402499C74F61202E3
:105990007DEC7001ED607B900EB8E064097073904F
:1059A000108DE06403706B125A1570668A828B83C7
:1059B000A3A3A3A3E0645770598A828B8312194270
:1059C000FEE9FF8E828F83A3A3A3A3A3A3E0FA9093
:1059D0001078E06A7016750879750910750A0078F4
:1059E000081204B7125A211204E98005E0046A7013
:1059F000218E828F83A3A3A3A3A3A3E0901078F0AA
:105A0000125B93E0FA901077E06A7006125A3B122C
:105A10005BD802499C8C828D83E0FC901076E06C10
:105A2000227C107D00901076E075F02BA424B6FA4D
:105A3000E5F0340CFB12814D740322900EB9E0F0B6
:105A4000A3E054EFF07A007B101252142274F81283
:105A5000027DE9901076F075F02BA4A9F024B4F53E
:105A600082E9340CF583E0A2E25008900C93E0A2A6
:105A7000E2400979B0125DB37900806B125DE7FEF8
:105A8000E9340CFFEE2411121244F07C107D0079F1
:105A900000121F3C1282037C107D0079007A797B12
:105AA000101282037409900EB8F0EE240C12137CCD
:105AB000901077E0F8740128FCE43400FDEC75F0F8
:105AC0003CA4FCAAF075F03CEDA42AFD7A007B1002
:105AD0001242BA125DE7F8E5F0340CF9901090121A
:105AE00044FD1258BB79010219BF74F112027D7B8B
:105AF000007A007957125BC47002A3E0700879BE87
:105B0000125DB3025B90125C5A74068E828F83A37F
:105B1000A3A3A3A3F0901078125BA8F0EE2407F5DE
:105B200008EF125BA37AF17B0B12991C750A051220
:105B300097508A0C8B0D8C0E8D0F850882850983FA
:105B4000780C1206A2900EBF780C1206938508827C
:105B5000850983A3A3A3A3A3A3A3A3780C1206A2DE
:105B6000900ECD780C120693900EBF780C12061A88
:105B7000AC08AD097AF17B0B129923E508241012C9
:105B80005B9F150AE50A70A7125B937494125BB6CB
:105B9000020BEDEE2407FAEF3400FB125D3C22F518
:105BA00008E5093400F50922E08E828F83A3A3A3C0
:105BB000A3A3A3227414900EC3F0125DFF227B00F6
:105BC0007A00790F12128E90108EEAF0A3EB125B1E
:105BD000D222F090108EE02274F712027D125BBE8A
:105BE0007002A3E0700779BE125DB3803D125C5A6B
:105BF0007407125D10F5081225B6850882A882E8A0
:105C0000125C2DE9F0125CF6E9F00508E508C39492
:105C10000440E4125D271204BB125C461204E9E959
:105C20007005125C3780BF125BB4022DD22489F557
:105C300082E43410F5832290108E125C3E221231E1
:105C400029FB128285227906901090E0FCA3E0FDEA
:105C5000EEFAEFFB12505B74022290108EE0125CA1
:105C60006B1245B612457A125C8A22242D125C7B97
:105C70007403125BD2242A125C7B22F8A3E0125C2C
:105C800082223400F98882898322125BD2122CF896
:105C9000E0FEA3E0FFEEFAEFFB124E342274F7129F
:105CA000027D8A088B09125BBE7002A3E07007793F
:105CB000BE125DB3803D125C5A7408125D10FA8A00
:105CC00082A882E50828F582E509125D0BC0E01282
:105CD0005CF6D0E0F00AEAC3940440E3125D2712B8
:105CE00004BB125C461204E9E97005125C3780BF00
:105CF000125BB4022DD2EE28F582EF125CFF223443
:105D000000F583A3A3A3A3A3A3A322125CFFE02215
:105D10008E828F83A3A3A3A3A3F0E48E828F83A399
:105D2000A3A3A3A3A3F0228E828F83E0D2E2F0EE9E
:105D30002405F508EF3400F50978082274F61202FC
:105D40007DEAFEEBFF901076123D1124B6F508E5D2
:105D5000F0340CF509750A0078081204B77C107D40
:105D6000007A797B10125DF91204E97A008A82A820
:105D700082850A08EE2508120B16F5089010761297
:105D80003D11FCE824B6FAE4340CFBEC2AF582E57C
:105D9000F03BF583E06508F074012808E43400F96D
:105DA0007A107B0012012C050AE50AC3945040BD0D
:105DB00002499C74F812027DE9FE125A3B74B06EDF
:105DC00070047E008011EE600E125DE7F582E5F052
:105DD000340CF58374FFF09010761255CB1240FC12
:105DE000EE900E530219BC901076E075F02BA424AF
:105DF000A422FC7D00EEFAEFFB12814D740322C059
:105E000082C08374FE12054E901090E07002A3E0F1
:105E1000601B901090E0240C125EEB7950121C76FF
:105E2000901090E02401125EEB7953800E900C9E4E
:105E300074FFF0A3F07A9E7B0C7950121C767A7A6C
:105E40007B0C794E121C76900EC3E0A2E7501A85A7
:105E50001882851983E4F0A3121F517959121C7618
:105E6000900EC3E0C2E7F080097A7B7B0C7959126F
:105E70001C767AC47B0E79E1121C76E0640470090A
:105E80007CE87D037A021242B8900EC3E06404609D
:105E90000AE064146005E064247007125EF2740185
:105EA0008004125EF2E4F0900EBBE0C0E090108E31
:105EB000125EFCD0E0F0900EBBE004F0900EC3E068
:105EC000600964016005E06424700474028001E4E8
:105ED000900EC5125BD2F8125F09900EC6F09010BA
:105EE0008E125FF874020222D6E02AFAA3E0340090
:105EF000FB2290108EE0242F123C5922E0242E1217
:105F00003C5922851882851983120FEDA3A3A3A300
:105F1000E022C082C08374FF12054E900EC3E0647D
:105F2000047027E4851882851983F01260108518A3
:105F300082851983AA82AB83794E121C76AA82AB22
:105F4000837959121C7679018002790002454AC092
:105F500082C083900EC5E0900EBD604CE07002A33D
:105F6000E0605A900EC3E064247006900EBCE060BE
:105F70003E126010900EBDE02404122CE5900EC677
:105F8000120BD4E0C39AFA900EC6126003F0900E82
:105F9000BD126009125EEA1221F5900EC5E014F000
:105FA000900EBD125FF88040E07002A3E0600E7AB0
:105FB000BD7B0E1216B9900EBDE4F0A3F0900EB9A1
:105FC000E054FD1252097A0212520E900EB8E024EB
:105FD000FDC394075012125FEB248EF582E9340F53
:105FE000F58312252E1206C8021EED125FEF22E085
:105FF000C333F8E433F9E8221219B712125B228A8C
:10600000828B83E08882898322E02402123C67220B
:10601000900EC4E0F9124E1AE9F07AC47B0E79E1D1
:10602000121C762274F712027D74F712054EE99065
:106030000AEBF01269267508087509007808120441
:10604000BB74031206BEAC82AD837AE87B07791F6E
:1060500012976874021204E97A008A087401120621
:10606000BEE5822508F582E5833400F583E064FF10
:1060700070070AEAC3940840E1EAC3940850107418
:10608000011206BEAC82AD837A007984124AD2E452
:10609000851882851983F0AC82AD837A01797012FC
:1060A0007992E070167A6A7B781269B87401F0AC64
:1060B00082AD83FA797012786A80077A927B7912BE
:1060C00069B8E4900B07F0900B2DF074FF90101658
:1060D000F01260DE74091204E97F0202038C7A0177
:1060E000900AEBE0F91299EF2274F712027DEAFEB2
:1060F000EBFF74805FF9E47001E9601A900AEBE04D
:10610000F912830DEA7001EB6003128285EEFA74D6
:10611000806FFB02619EEEA2E0506A79011249C9CC
:106120007C1A7D0B7A007960124AD27C1C7D0B7A36
:10613000007964124AD27C207D0B7A007962124A7F
:10614000D274FF900B2BF090100E74E8F0A3740340
:106150001261A17963124AD2E490100EF07C0E7D98
:1061600010FA7966124AD2741E1261A17969124A34
:10617000D274011261A1796C124AD21245137401D2
:106180006EFAEF808D54026011900B2DE0600BE4ED
:10619000F07BFF7AFF7923126BAC7A007B00026000
:1061A000D9F07C0E7D107A002274F112027D74FE0B
:1061B00012054E8908ECFEEDFF7509008A82858282
:1061C0000AE9C3949050367468650870067509B47E
:1061D0000262AC7C0E7D107A001248BAE9F50975AE
:1061E0000C0E750D10750E00780C1204B7AC0A7DFC
:1061F00000EEFAEF1269B11204E90262ACE9C3944D
:10620000AF5019750A92750B79780A1204BB1263A4
:106210001F74021204E9E9F5090262ACE9120427CD
:106220000007B03962B16C62B27162C09962C19DFF
:1062300062C2A162C3A562A962E4900B2CF0F50AC8
:10624000851882851983AA82AB83A90A1249A1E91C
:106250007006900B2CE004F0050AE50AC3940A408E
:10626000DF900B2CE08E828F83F08040900B2B8090
:10627000F3851882851983AA82AB83900B2BE0F9F2
:106280001249A1E9FA8A097023851882851983E0E9
:10629000F50CA3E0F50D0261E5741280C8740A8064
:1062A000C474CE80C0741080BC7509E8A90974025A
:1062B0001204E97F0802038C74F712027DE9FEC321
:1062C0009490501074686E700479B4804F7A001204
:1062D0004AD28048EEC394AF501575086A750978A4
:1062E00078081204BB12631F74021204E9802DEEB9
:1062F00012042701C0C3C96203B0C962B10463B20A
:1063000011631A638C828D83E0900B2BF0790080EF
:106310000B900B2BE0FA796880B579E80260D974AC
:10632000EE12027D8A0D8C0A8D0B74121206BEE0ED
:10633000F508A3E0F509890E750F007402780E12B6
:106340000640E50E24F5FEE50F3407FFEE2480F548
:1063500082EF34FDF583E493F98508828509831281
:1063600006C8E50864927004E50964797031E96053
:106370002EEE2482F582EF34FDF583E493F5087464
:106380000193850810F51175120078101204B7AC4E
:106390000D7D00AA0AAB0B1269B21204E979007FE5
:1063A0000B02038C74F812027D74FF12054E7A9270
:1063B0007B791269B8900B08E01203C400021364E1
:1063C000C663F9630764851882851983AC82AD833F
:1063D0007A0079831248BAE9FE7019E0601B7900EF
:1063E0001249C9900B21E0A2E0402A7A007B0012FA
:1063F000519B8021126AE880267A017B00900AEB8B
:10640000E0F912852F80131269267A6A7B78126967
:10641000B880E67EE8EEF9126AE87A001260E0746D
:10642000011204E97F0102038CC082C083E4900A58
:10643000F1F0900B0FE0FC748F5C4410900AF1F0C7
:106440007A0080131264D9C0E0E824F2F582E434C3
:106450000AF583D0E0F00A1264D040E87401900A93
:10646000F5F0900AED74FFF0A3F0900AEFF0A3F0BE
:10647000900AFCF0900B1EE0F8A3E0F9900B05E801
:10648000F0A3E9F07401900AFDF0900AFEF01264A6
:1064900097123D170265A1900B07F07AED7B0A2257
:1064A000C082C083900B07E06401600AE064026070
:1064B00005E0640370087404F0123D78800FE06416
:1064C0000570057406F0800579B4126B930265A11E
:1064D00074065CC313FBEA9B228A82A882E824101C
:1064E000F582E4340BF583E02274EF12027D74FE32
:1064F00012054E89088A0FECFEEDFF8B1074131203
:1065000006BEE0F51174141206BEE0F50AA3E0F52C
:106510000B851882851983AA82AB831249A1E9FAF7
:106520008A097054E508900AEDF0E50F900AEEF044
:10653000900AEFEEF0A3EFF0E510900AF2F0E5110B
:10654000900AF112649A123992E9FA8A097029853F
:106550000A0C850B0D750E00780C1204B7AC117D7A
:1065600000900AF5E0FAA3E01269B11204E9740799
:10657000126497123A08800AE4900B07F0A90912F6
:106580006BAF74021204E97F0A02038C12519B1252
:106590006CD422C082C0837A001260E07900126C51
:1065A000D5D083D0822274F312027D74FE12054E80
:1065B000EAFEEBFF900B2EE07002A3E06011900B5F
:1065C0002EE0F8A3E0F58388821206C80267A48E45
:1065D000828F83A3858208858309EE2402F8EF3435
:1065E00000F9880A890B8E828F83E0120427000B42
:1065F000014B67023E6703306605626606686609FE
:10660000B6660D13660E34670F2267108266116E30
:1066100066A467900B21E0A2E040077A007B00129D
:10662000519B850882850983E0F9126AE80267A414
:10663000901016E064FF70030267A488828983E0EB
:10664000FA901016E06A60030267A4901017E0FB4E
:106650009010161267B0126BAC74FF901016F00217
:1066600067A41267C40267A41268660267A4900B4D
:1066700007E0640460030267A4E4F0F9126B93027C
:1066800067A4850882850983E0F50C701D7CE87D90
:10669000037A027B00900AEBE0F9128B6EE9FA8A2A
:1066A0000C70077401900B2D80B47BFF7AFFA90C4E
:1066B000126BAC0267A4900B07E06405600AE0640B
:1066C000067051750D018003750D00E41267BB70F3
:1066D0002E851882851983AA82AB8388828983E0FC
:1066E000F91249A1E97021EE241DF582EF3400F57D
:1066F00083E0FB850A82850B83E0FA790080067BC4
:10670000FF7AFF7922126B71E50D70030267A4799D
:106710002402667CE4F07BFF7AFF79B4126B71028D
:1067200067A4850882850983E0F9126BAEE0F9124F
:106730004622807088821267AE126BAD8066E4904C
:106740000B071267BBF9126BAF80598E828F83A340
:10675000A3A3A3A3A3A3A31203FA8E828F83A3A34D
:10676000A3A3A3E0F50D780D1204BF8E828F83A33F
:10677000A3A3A3A3A3A3E0F50D780D1204BF8E82FB
:106780008F83A3A3A3A3A3A3E0FB8E828F83A3A3E2
:10679000A3E0FCA3E0FD850A821267AE126CD674FA
:1067A000041204E974021204E97F0602038C89834F
:1067B000E0FA850882850983E0F922F08508828560
:1067C0000983E02274F612027D900B07E0640160F9
:1067D0000302685C8A828B83A3A882A983E0707815
:1067E0007E0080080CECC3940640340EEA2417F5B2
:1067F00082EB3400F583E05406C313FCEE9C505842
:106800008E08EA2508FCEB3400FD74272CF582E4A1
:106810003DF583E0FD74FE2DC3940E503B7C008C4F
:1068200008E5082409F582E4340BF583E0FF6D6088
:106830000574FF6F70AE88088909750A0078081220
:1068400004B77C317D007ADD7B0F1269B21204E956
:106850007402900B07F08009740380F6E064026014
:10686000F77F0302038CC082C083900B07E06402B1
:1068700060030268FE900FDEE0900AEDF0900FDFFB
:10688000E0F8A3E0F9900AF6E8F0A3E9F07CE17DF6
:106890000F7AEE7B0A129AA1900B0FE0FC900AF897
:1068A000F07A0080131264D9C0E0E824F9F582E49C
:1068B000340AF583D0E0F00A1264D040E87A008010
:1068C00013126916C0E0E824FCF582E4340AF5836B
:1068D000D0E0F00A74705CC430E30244F0FBEAC319
:1068E0009B40DE900B21E0A2E2500474248001E47E
:1068F000900B03F074051264971241508015E06408
:10690000016005E06403700BE4F07BFF7AFF7921FE
:10691000126B710265A18A82A882E82413F582E4D1
:10692000340BF583E02274F612027D7401900B089B
:10693000F0740F900B21F07C067D0079007A097BC2
:106940000B1282037402900B09F07412900B0FF07B
:106950007401900B10F0900B13F0900B1A7410F060
:10696000A3E4F0900B1C744AF0A37401F0900B2286
:106970007407F0A3E4F075084375090FF50A780869
:106980001204B77A437B0F1281498A088B0974017C
:106990002508FCE43509FD7A247B0B1269B2120448
:1069A000E9900B1E7464F0A3E4F0900B20F00268F1
:1069B00061FB12814D74032274F612027DEAFEEB34
:1069C000FF750A00850A0875090074027808120626
:1069D00040E50824F5F8E5093407F988828983A39E
:1069E000A3E493FC740193FD88828983A3E493FA62
:1069F00088828983E493F98E828F831206C8050A00
:106A0000E50AC3940C40BD02686174F812027DE986
:106A1000900A07F0E4900A04F07A01FB12852F74C3
:106A2000FF900A06F0026B4E74F512027DEAFEEB4F
:106A3000FF74805FF9E47001E97040EEA2E0500F4E
:106A4000900A04E07009126FBC1263A4126593EE01
:106A50005408607D900A04E064057075900AE512A0
:106A60006ADA900A09126ADA7420900A45F0740111
:106A7000900A46F07A008026128285900A07E0F993
:106A800012830DEA7001EB70EFEEFA74806FFB80F9
:106A900044EA2447F582E4340AF583EAF00A900FC9
:106AA0001AE0FBEAC39B40E9126CB7900AC578086C
:106AB0001206A275084575090A78081204BB900FE2
:106AC0001AE02402F50878081204BF1271DF1204DC
:106AD000E97A007B007F0402038C126ADE22E02444
:106AE00001F0A3E03400F02274F812027D74FF126A
:106AF000054EE970547CE77D0A7A0179C11261A9DB
:106B00007401900A04F074FF900A03F0E48518827F
:106B10008519838012126B537005E0900A03F0858B
:106B20001882851983E004F0E0C0E0900AE7E0FAFB
:106B3000D0E0C39A40DFE4851882851983F0AC82E7
:106B4000AD837A0179A01262B874011204E97F0161
:106B500002038C851882851983AC82AD837A017912
:106B6000B11262B87CB27D0F7A2B79B21261A9E9B9
:106B70002274F812027DE9FEEAFF7A007902128699
:106B80009BEE7005EF900A03F07401900A04F0FF89
:106B900002038CC082C083900A04E06402700A7A07
:106BA00000790212869B7401F002704D2222227439
:106BB000F112027DE9900A046003026C94E0640320
:106BC000700F7A00790112869B7401F07F0802032E
:106BD0008CE064056003026C79126CB7900AC97886
:106BE000081206A2900AC97808120693900AC5787E
:106BF00008120536900F28780C120693780C790845
:106C0000120664505F900ED5780C120693780C79BA
:106C1000081206645024900F2C780C120693780802
:106C2000790C12020D74017808120640E508240B55
:106C3000F582E509340AF583802D900F307808122B
:106C40000607900F34780C1206937808790C12021C
:106C50000D74017808120640E508241FF582E50945
:106C6000340A80D2900A43126CC37003A3E06970A7
:106C7000407406126FB0026BCCE064066003026BD6
:106C8000CC7405F07CD07D077B327A0079011287C5
:106C900015026BCCE064037003026BC2E064056014
:106CA00003026BCC900A43126CC37003A3E06960CB
:106CB000C012712C026BCC128DA48A088B098C0A2D
:106CC0008D0B22126ADE900A09E0F8A3E0F9900F1A
:106CD0001BE06822222274F612027D740A1206BE9C
:106CE000E0FA740B1206BEE0FB740C1206BEE0F86C
:106CF000A3E0F9EB604C74076C7001ED7044EAA2FC
:106D0000E2503F88828983E064207036900A04E074
:106D10006405702E88828983A3E070268882898327
:106D2000A3A3A982AA8389088A09750A0078081290
:106D300004B77C087D007A177B0F12814D74031213
:106D400004E9026F9B74F612027D74FA12054EE993
:106D5000FE126FA06E70097508FFE4900A05801D91
:106D6000900F27E06E700C900A05E064FF600FE062
:106D700004800AEEF0E4900A05F0900AE8F0900A28
:106D800004E064057044900A05E0707274FF6E6060
:106D90007574B3650870061270EE026F967C3D7DC7
:106DA0000079007A087B0A12820374216508600367
:106DB000026F967401900A08F07CF4FD7B327A0031
:106DC000F912871512712C026F96E064067010900C
:106DD0000A05E07029E508702512717D026F96E0C2
:106DE0006402701274B065087014900A05E0700EA9
:106DF0001264A0026F96E064016019E0601674FFEF
:106E00006E6003026F9674FF900F27F0E4900AE81B
:106E1000F0026F96E508C394C0401574FF650860E2
:106E20003674402508900A06F012705274FF80E014
:106E3000E508C394B04020E508C333F8E433F9E82B
:106E400024BFF582E9340DF583E0F8A3E0F58388EB
:106E5000821206C8026F96900A03E064FF70030274
:106E60006F96900A04E064016003026F967F0475D8
:106E70000A01746B65086006744065087009900A21
:106E800005E06003026F96744565087021900A055D
:106E9000E0C39464401874018518828519831270C8
:106EA0002179A01262B8C2AF129BEC0080FD74FF82
:106EB0006E7051900AE8E0604374011206BE7403DC
:106EC000F0900F27E0126FA0900F27F0E4900AE8EF
:106ED000F0E508C394835070750A02E508C39480F6
:106EE0007402405E1206BE7468F0750A0374802551
:106EF00008C0E074031206BED0E0804B74FF900F10
:106F000027026E10900A05E0600C74011206BE7430
:106F100002F0740180B7E508C394837401401B122A
:106F200006BE7430F0747D2508C0E074021206BEFF
:106F3000D0E0F0750A027F44800E1206BE7401F0A4
:106F400080961206BEE508F07403126FB07C037DD4
:106F50000A126B5D7012900FB2E064FF600A900F2E
:106F6000C3E06004EFD2E3FF74011206BE8582081D
:106F700085830978081204BBE50AF508780812042D
:106F8000BFEFFB7C077D007A01900A03E0F91264F1
:106F9000E974031204E974061204E97F0302038C06
:106FA00024B5F582E43407F583E493F50874FF22F1
:106FB000900A04F07A01790112869B2274F8120279
:106FC0007D74F812054E7404851882851983F0AC1F
:106FD00082AD837A0179A11262B87C0A7D0F7A06AC
:106FE00079A212701C79A412701C79A51262B8746F
:106FF00007F0A3E4F0851882851983AC82AD837A0B
:107000000179A81262B87A107B0F1281490A7C10AC
:107010007D0F79A91262B87408026B4B1262B874C2
:1070200001F0AC82AD83FA22C082C083900A05E0F1
:10703000700F7402900A04F07A01F912869B1264B0
:1070400029800AC082C0837404900A04F0D083D0DF
:10705000822274F712027D74FF12054E900A05E039
:10706000705D900A03E064FF605DE004851882852E
:107070001983F0851882851983E0FA900A03E06A83
:10708000603D126B53704A7A00900A06E064FF601C
:10709000238A08E50824D6F582E4340FF583E0FB63
:1070A000900A06E06B60070AEAC3940340E3EAC370
:1070B0009403501D851882851983E0900A03F074AB
:1070C000011204E9027178E4851882851983F08041
:1070D000B1851882851983E004F0FA900AE7E06A26
:1070E0007091900A03E064FF60D5E402706CC08286
:1070F000C083900A05E07031900A04E064056018CE
:107100007AFF7BFF12658C7CD07D077B327A007919
:1071100001128715740580107A007B0012658C7A45
:1071200000790112869B7401F002704D74F712020F
:107130007D900F1DE07002A3E0603112822B8A085F
:107140008B09A808A909900F1DE0FAA3E0FB120122
:10715000348A088B0974012508FCE43509FD7A0896
:107160007B00900A07E0F9128B6E800C7A087B0096
:10717000900A07E0F912852F7F0202038C74F61241
:10718000027D74C112054E7420851882851983F022
:1071900074011206BE7402F075080875090A750AB2
:1071A0000078081204B77C3D7D0074051206BEAA63
:1071B00082AB8312814D74031204E985188285190C
:1071C0008385820885830978081204BB75083F7897
:1071D000081204BF1271DF1204E9743F026F989025
:1071E0000F19E0FB7C077D007A01900A03E0F91299
:1071F00064E974032274F512027D74FC12054E7E5C
:1072000000E4900A02F09009FFF07F1D75080475F4
:10721000090078081204BB74021206BEAC82AD836A
:107220007A007B00EF1277F41204E9851882C0829D
:10723000C083900F017808120693D083D08278081B
:1072400012057A70169009FFE0600DF912735EEF77
:10725000F912735EE4F08029EF80FA8518828519AF
:1072600083C082C083900EC97808120693D083D061
:1072700082780812057A7004EFFE8005EFF9127328
:107280005E0FEFC3941F40849009FFE07026EE70FC
:1072900018791D1272C3900A007404F0A3E4F090F0
:1072A0000A02E0601979008017F01273B0EEF9124B
:1072B00075A9800AEE6004F91273011273B07901A6
:1072C00002749D74F512027D74FC12054EE9FE9065
:1072D0000F017808120693851882851983780812A1
:1072E00006A2851882851983AC82AD837A007B0063
:1072F0001277FB900A02E07005EE9009FFF002742D
:107300009D74F512027D74FF12054E8908794E12A4
:107310009B26E96006900A02E060087401900A0268
:10732000F08036A9081298547E007F00750A017516
:107330000B00780A1204BB74021206BEAC82AD8345
:10734000EEFAEFFBA9081277F51204E9851882E03E
:1073500064FF70C71273A440D3740102749F74F564
:1073600012027D74FF12054E89087E007F00750AA7
:1073700001750B00780A1204BB74021206BEAC82BF
:10738000AD83EEFAEFFBA9081277F51204E9851830
:1073900082E064FF6007A90812730180051273A4DC
:1073A00040CC80B5EE24010EEF3400FFC3940822D8
:1073B00074F512027D74FC12054E7EFC7F07750881
:1073C0000475090078081204BB74021206BE127715
:1073D000E81204E9851882851983C082C083900F62
:1073E000057808120693D083D082780812057A7047
:1073F00011EE24FCFEEF34FFFFC3EE9404EF940083
:1074000050BC127987E8F0A3E9F002749D74F5127C
:10741000027D74FC12054E8909EAFEEBFF8C08EE32
:1074200024FCFEEF34FFFFC3EE9404EF94004069A8
:10743000750A04750B00780A1204BB74021206BEAA
:10744000AC82AD83EEFAEFFBA9091277F51204E9DD
:1074500074021206BEE0F8A3E0F98518828519834C
:1074600085080AE0650A7002A3E0700AEEC398FA84
:10747000EF9400FB8027748059FBE47001EB709F50
:10748000740428FAE439FBC3EE9AEF9B4008EEC37C
:107490009812773C80901294A77A007B00740412B3
:1074A00004E97F0402038C74ED12027D74FC120562
:1074B0004E890AEAFEEBFF8C0B74171206BEE0F54C
:1074C0000EA3E0F50F74191206BEE0F50CA3E0F56B
:1074D0000D85188285198374FFF0A3F0A80E7480BF
:1074E000450FF974021206BEE8F0A3E9F0E82EF5A4
:1074F00008E50F3FF509851882851983AC82AD83B5
:10750000AA08FBA90A1277FB74021206BE12758E36
:107510007402780E120684E50EF510900A02E070EF
:107520004E750F00780E1204BBAC0CAD0D8E0E8F95
:107530000F7402780E120684850A12F51374097806
:1075400012120640250EFAE513350FFB1297E2746E
:10755000021204E9E510F50E780E1204BFAC0CAD72
:107560000DEEFAEFFBA90A12775174011204E985B6
:107570000B0CE50C851882851983F0A374801275B5
:107580009412758E74041204E97F0C02038CE0F0EF
:10759000A3E0547FF0851882851983AC82AD83AA5D
:1075A00008AB09A90A1277FB2274EB12027D74F86A
:1075B00012054E8910750DFF741D65107005750C50
:1075C0001E8003750C1D750A04750B00900A00E0FF
:1075D00024FCFEA3E08005EE24FCFEEF34FFFFC395
:1075E000EE9404EF94005003027718900A02E060D2
:1075F0000302773275080475090078081204BB7419
:10760000021206BEAC82AD83EEFAEFFBA910127730
:10761000F51204E9851882E064FF7004A3E064FFBA
:10762000703574021206BEE0F8A3E0F9748059FBCD
:10763000E47001EB70A1740428F8E439F9C3EE9802
:10764000EF99400D74021206BE12774812773C8003
:107650008D1294A7027732851882851983A3E0548E
:1076600080F9E47001E970DC851882851983850D45
:1076700008E065087002A3E060CA85188285198356
:10768000E0F50DFCAA0AAB0BA90C12740DEA70010F
:10769000EB70B174021206BE127748F508EF99F547
:1076A0000988148915750E00750F0075120475137D
:1076B0000078121204BB74061206BEAC82AD83E5DC
:1076C0000E2508FAE50F35091277EF1204E9740464
:1076D0001206BEAC82AD83E50E250AFAE50F350B26
:1076E000FBA90C1277FBE50E2404F50EE50F340020
:1076F000F50FC3E514950EE515950F50AE74021203
:1077000006BEE02404F8A3E03400F9E50A28F50AEF
:10771000E50B39F50B027644A90C1272C3900A02EC
:10772000E0700A900A00E50AF0A3E50BF0A9101238
:10773000730174081204E97F0E02038CF8EF99F9C3
:1077400074FC28FE74FF3922E0F8A3E0F9EEC39838
:107750002274F112027D74FC12054E890FEAFEEBD1
:10776000FF8C0A8D0B74131206BEE0F5098014EE2F
:107770002404FEEF3400FFE50A2404F50AE50B3487
:1077800000F50B85090874FF2508F509E508604E2A
:10779000750C04750D00780C1204BB74021206BE41
:1077A000AC82AD83EEFAEFFBA90F1277F51204E974
:1077B000850A0C850B0D750E00780C1204B77C043D
:1077C0007D0074031206BEA982AA837B00128193F6
:1077D00074031204E9E970977401900A02F07404CA
:1077E0001204E97F0802038CAC82AD83EEFAEFFB52
:1077F0009009FFE0F912976874022274F212027D78
:10780000890E8A088B09ECFEEDFF900A02E0704BAE
:10781000750A01750B00780A1204BB8A0A8B0B7477
:1078200002780A120684890CF50D7409780C120688
:1078300040250AFAE50D350BFB1297E2740212049B
:10784000E9750A01780A1204BFEEFCEFFDAA08AB45
:1078500009A90E12775174011204E97F0702038C03
:107860001271F5E970031294A72274F112027D746B
:10787000FB12054E89098A088C0A8D0BAC09127916
:10788000C88A0C8B0DAE0CAF0DEE7001EF60507519
:107890000E00803B750C01750D00780C1204BB7452
:1078A000021206BE1277E81204E985188285198350
:1078B000E0FA850E0CE50A250CF582E50B3400F59F
:1078C00083E06A701AEE24010EEF3400FF050EE526
:1078D0000EC3950840BEE508650E700302798085E9
:1078E000080C7403250CF8E43400F97A047B0012C8
:1078F000012C880C890D7402780C120640AE0CAF76
:107900000D900A00E02EF8A3E03FF9740428F8E493
:1079100039F9C3E89401E994084036900EC9780C0F
:1079200012069374011206BEE50CF0A3E50DF0A358
:10793000E50EF0A3E50FF074011206BEAC82AD8334
:107940007A007B009009FFE0F91277FBE0F91275ED
:10795000A9780A1204BB8E0A8F0B780A1204BBACFA
:10796000091279CF1274A774041204E9900A02E094
:107970006004790A800C127987E028F0A3E039F0DE
:10798000790074050277E074042EF8E43FF9900A58
:10799000002274F512027D890A8A0BECFEEDFFAC21
:1079A0000A1279C8EA7001EB6019850B08750900A5
:1079B00078081204BBEEFCEFFD1277F01204E979AF
:1079C000008002790A0274A21279CF12740D2290FB
:1079D0000A00E0FAA3E0FB9009FFE0F92274E91243
:1079E000027D74ED12054EE9851882851983F074C5
:1079F000011206BEECF0A3EDF0742A1206BE127E50
:107A0000A3742C1206BEE0F516A3E0F517742E122F
:107A100006BEE0FEA3E0FF851882851983E07003AF
:107A2000027CFA74031206BE7401F0EE7001EF607E
:107A3000037441F0851882851983E024FE333354A2
:107A4000FCFC74031206BEE04C1280941204B77C56
:107A50000D7D0074071206BEAA82AB83127EB91296
:107A600004E974111206BEE511F074121206BEE5A7
:107A700010F07C107D00790074321206BE127EABCD
:107A8000128203750820750900C3EE940FEF94006D
:107A9000402D74F22EF874FF3FF974F058F87420FA
:107AA00028F508E439F509EE24F2540F6004781043
:107AB00080027800E50828F508E5093400F509E5B5
:107AC00010540FF50F60047A1080027A0074F0559C
:107AD00010F874FF5511F9EA28F8E439F9E5082897
:107AE000F508E50939F509AA08FB12914A8A148BB1
:107AF00015EA7001EB70057910027CFC7403120624
:107B0000BEA982AA83890C8A0D750E00780C120416
:107B1000B77C107D00AA14127EB91204E9E5142482
:107B200010F50AE5153400F50BEF850A82850B8305
:107B3000F0A3EEF0A385820A85830B85160C8517CA
:107B40000DC3940FEF9400400B780C1204B77C0E19
:107B50007D0080167C0E7D007900AA0AAB0B128294
:107B600003780C1204B7EEFCEFFD127EB51204E9A7
:107B7000E50A240EF50AE50B3400F50BC3EE940F6D
:107B8000EF94005003027C09EE24F2FEEF34FFFF75
:107B90008E128F137404781212068485120C8513CA
:107BA0000DEE540FFE7404780C120640850C128FF3
:107BB00013E516240EF50CE5173400F50D780C12BC
:107BC00004B7AC12AD13127EB51204E9E50A251212
:107BD000F50AE50B3513F50BEE602E7C107D007970
:107BE00000AA0AAB0B128203E5162512F8E5173539
:107BF00013F9740E28F50CE439F50D780C1204B75E
:107C0000127EB11204E9127E907404781012068478
:107C100085100C85110DAE0F7404780C120640858A
:107C20000C10850D1174011206BE127E9D1204B750
:107C3000AC10AD11127EB51204E9E50A2510F50A63
:107C4000E50B3511F50BEE602B7C107D007900AA59
:107C50000AAB0B12820374011206BEE02510F50C6C
:107C6000A3E03511F50D780C1204B7127EB11204A1
:107C7000E9127E90E50AC39514F8E50B9515F9E82D
:107C800065087003E9650960031294A712808343B5
:107C9000B350E5B374321206BE127EAB127E8385FA
:107CA000140A85150B7404780812068474FF2508DD
:107CB000F50C74FF3509F50D800AAA0AAB0B129872
:107CC0007C127E90A80CA90D74FF28F50C74FF3966
:107CD000F50DE87001E970E212808385B3B37A0F85
:107CE000EA1A70FCAC0AAD0B74321206BE127EABFF
:107CF000129897AA14AB15129250790074131204BB
:107D0000E97F1002038C74EA12027D74DE12054EC4
:107D1000851882851983ECF0A3EDF0EAFEEBFF7481
:107D2000381206BEE0F508A3E0F509743C1206BE61
:107D3000127EA385100CF50D750E00780C1204B799
:107D4000E9FC7D0074151206BEAA82AB83127EB9CF
:107D50001204E974021206BE7401F08E0C8F0D78C5
:107D60000C1204B77C0D7D0074061206BEAA82AB0D
:107D700083127EB91204E974111206BEE4F0741085
:107D80001206BEE4F085080A85090B7404780A120D
:107D90000684AE0AAF0BE508540FF50F6008EE2419
:107DA000010EEF3400FF8E0A8F0B7404780A12065E
:107DB00040AA0AAB0B12914A8A0A8B0BEA7001EBBC
:107DC00070057910027E79851882851983127E9D4F
:107DD0001204B7AC08AD09127EB91204E9E50F60D0
:107DE0001BF50C7410C3950CFCE49400FD7900E5C0
:107DF0000A2508FAE50B3509FB12820312807A1274
:107E000006BE1280701206BEAC82AD83AA10AB1102
:107E10001298C31280891206BE7401F07402120611
:107E2000BEAA82AB83127E83850A0C850B0D800E61
:107E3000AC0AAD0BAA0AAB0B1298C3127E90EEF8F7
:107E4000EFF974FF281E74FF39FFE87001E970E054
:107E5000850C14850D1575160078141204B7AC083E
:107E6000AD0974031206BE127EAB127EB91204E98C
:107E7000AA0CAB0D129250790074221204E97F0F04
:107E800002038C127E872212990753B3F8E5B322BE
:107E9000E50A2410F50AE50B3400F50B2212806880
:107EA000780C22E0F510A3E0F51122E0FAA3E0FB44
:107EB00022EEFC7D00AA0AAB0B12814D74032274E2
:107EC000EA12027D74DE12054E890F8C128D137436
:107ED000381206BEE0FE74021206BE7401128094CF
:107EE0001204B77C0D7D0074061206BEAA82AB8315
:107EF000127EB91204E974111206BEE4F074101275
:107F000006BEE4F0EEC3950FF50AC4540FFE7F00E1
:107F1000740F550A60010E7C107D007900741212F6
:107F200006BEAA82AB83128203850A08E5122508E1
:107F3000F8E5133400F9851882851983E8F0A3E980
:107F4000F0850F82858210851882851983128068DA
:107F50008F0E780C1204B7AC107D0074151206BE9B
:107F6000AA82AB83127EB91204E912807A1206BE8D
:107F70001280701206BEAC82AD83743C1206BE1233
:107F80007EAB1298C38E088F0974047808120640DD
:107F900085080C85090DAA0CAB0D12914A8A148B29
:107FA000158A088B09EA7001EB700579100280656B
:107FB000AC0CAD0D790012820385120C85130D787F
:107FC0000C1204B7AC0A7D00AA08AB09127EB912E4
:107FD00004E91280891206BE7401F074021206BE12
:107FE000AA82AB8312990774F855B34402F5B3859E
:107FF000080C85090D8017AC08AD09AA08AB091259
:1080000098C3E5082410F508E5093400F509EEF8F1
:10801000EFF974FF281E74FF39FFE87001E970D78B
:1080200075160078141204B7AC0A7D00AA12AB13BF
:10803000127EB91204E9AA0CAB0D129250743C12D4
:1080400006BEE0F508A3E0F509750A0078081204F9
:10805000B7AC107D0074031206BE127EAB127EB95F
:108060001204E97900027E79E0F50CA3E0F50D2217
:10807000AA82AB83127E8774122212808343B320BC
:1080800074022253B38FE5B32212808343B330E5E9
:10809000B3741122F08A088B09750A0078082274DB
:1080A000EF12027D8908ECFEEDFF74111206BEE0AE
:1080B000F874131206BE127EA374151206BEE0F504
:1080C0000EA3E0F50F74171206BE12806874191221
:1080D00006BEE0F50AA3E0F50BE9700779007F0A18
:1080E00002038CE8C39508F509780A1204BB780CE2
:1080F0001204BB780E1204BB78101204BB85090C65
:10810000750D00780C1204BB1279DD740A1204E9B3
:10811000E970CB7A0080010AEAC3950850C0AC0927
:1081200074012CF5098A0CE50A250CF582E50B345F
:1081300000F583E0FB8C0CEE250CF582EF3400F5A6
:1081400083E06B60D279018095129BC12274F61294
:10815000027DEAFEEBFF740A1206BE1283A4A3E0BE
:10816000A908AA09FB8E828F83800D120503F0E90E
:10817000240109EA3400FAA3ECFEEDFF74FF2E1C83
:1081800074FF3FFDEE7001EF70E1AA82AB837F03C5
:1081900002038C74EE12027D74121206BEE0F5101A
:1081A000A3E0F511A3E0F51289088A098B0A85106E
:1081B0000C85110DECF8EDF974FF281C74FF39FDE6
:1081C000E87001E96036A908AA09AB0AE92401F5BB
:1081D00008EA3400F509850C10850D11E50C240121
:1081E000F50CE50D3400F50D120503FEA910AA11DA
:1081F000AB121205036E60BC7900800279017F0B1F
:1082000002038C74F712027DE9FE8C088D09780850
:108210001204BBEEFC7D00129B9274021204E90270
:10822000845EA2E092AF7F0102038C129B3D227418
:10823000F712027DEAFEEBFFEE7001EF70067A00A6
:108240007B00803E74052EFAE43FFB12914A8A08B7
:108250008B09A808A909E87001E960E2888289838E
:10826000E4F0A3F088828983A3A3EEF0A3EFF07477
:10827000FF88828983A3A3A3A3F0E82405FAE93445
:1082800000FB02845EC082C083EA7001EB70047957
:108290000580161282FF60047904800DEA24FBFA3F
:1082A000EB34FFFB1292507900D083D0822274F815
:1082B00012027DE9FEEA7001EB70047905803D90C1
:1082C0000F42E0FCE9C39C40071282857903802CB1
:1082D0001284D1E07002A3E070051282FF600512E3
:1082E000828580D7EEF0EAFCEBFD7A807B01128379
:1082F000B27A007B80EEF912852F7900028226EA9D
:1083000024FFF582EB34FFF583E064FF2274F3125F
:10831000027D890B750C00750D007E007F00A2AFF9
:10832000E492E0F50AC2AF9001808017EE7001EF91
:10833000700685080C85090DE50824FBF582E50922
:108340001284D71283A4E5087002E5096025E508C8
:1083500024FFF582E5091284D7E0650B70CEEE703C
:1083600001EF7006AE08AF0980CE7A007B801285DF
:108370002F800D7A007B8012856EEE7001EF601504
:10838000780C1204BBEEFCEFFD7A807B0112846353
:1083900074021204E9E50AA2E092AFEEFAEFFB7F65
:1083A0000602038CE0F508A3E0F50922E0FAA3E059
:1083B000FB2274F812027DA2AFE492E0FEC2AFECA1
:1083C00024FBF582ED1284D7E4F0A3F0128401704F
:1083D00001E970098A828B8380101284DC1283F396
:1083E0007002A3E08882898370F0ECF0A3EDF0EED8
:1083F000028222E824FBF8E934FFF988828983E0CD
:10840000228A828B83E0F8A3E0F9E82274F7120253
:108410007DEAFCEBFD7A007B00A2AFE492E0F50878
:10842000C2AF8C828D831284057001E9602AE8FA5C
:10843000E9FBEA24FBF8EB1283F8FEA3E0FF8C8251
:108440008D83EEF0A3EFF088828983E4F0A3F0EA55
:1084500024FF1284D474FFF0E508A2E092AF7F02FB
:1084600002038C74F612027D740A1206BE1284DCBA
:10847000A2AFE492E0F50AC2AFEC24FBFEED34FFBC
:10848000FF8A828B831283A4EC65087003ED650973
:108490008E828F83700D1284DC8A828B83E8F0A336
:1084A000E980101283ACE824FBF582E91284D7EA54
:1084B000F0A3EBF08E828F83E4F0A3F0EC24FFF5C1
:1084C00082ED1284D774FFF0E50AA2E092AF028138
:1084D0008EEA24FBF582EB34FFF58322E0F8A3E07B
:1084E000F92274F712027DE9FE750800A2AFE4924A
:1084F000E0FFC2AF1284017001E970108A828B83A1
:10850000801BEE6020888289831284DC1E1283F334
:108510007002A3E070ECEE600C88828983ECF0A31B
:10852000EDF0750801EFA2E092AFA90802845E7435
:10853000F812027DE9FD900F42E0FCE9C39C50294E
:10854000E5A8FEC2AFEDC333F8E433F9900AE9E0E1
:1085500028FCA3E0398C82F583E04AF0A3E04BF0DD
:10856000EEA2E792AF79008002790302822674F8C6
:1085700012027DE9FE900F42E0FCE9C39C501EE52B
:10858000A8FFC2AFEAF4FCEBF4FDEE1286785CF0D3
:10859000A3E05DF0EFA2E792AF79008002790302D9
:1085A0008226C082C0831290C4900180E4F0A3F0C0
:1085B000128A521299D1129B581291267900028286
:1085C000A974F512027D750800751A0112964F12F2
:1085D00099D0E5081286787002A3E0700D05089026
:1085E0000F42E0FAE508C39A40E8900F42E0FAE54E
:1085F00008C39A505BE5A8FCC2AFE508C333FEE4AC
:1086000033FF900AE9E02EF8A3E03FF988828983DE
:108610001283AC88828983E4F0A3F0ECA2E792AFE6
:10862000A908EE2438F582EF340FF58312866F1215
:1086300006C8E5A8FDC2AF900AE9E02EFCA3E03F22
:108640008C82F583E04AF0A3E04BF0EDA2E792AF15
:10865000A2AF40031294A7900F42E06508600302A6
:1086600085C6E51A70030285C6129A390285C6E0EE
:10867000F8A3E0F583888222C333F8E433F9900A43
:10868000E9E028FAA3E0398A82F583E022C082C0BB
:10869000837A00790F12869B0289D474F812027DC6
:1086A0008908EAFF120427010001CF860302B88679
:1086B00004C58608CF860B877CE87D037B057A019D
:1086C00012871580467CE87D037B057A3280F17E37
:1086D0000153080F7582D1758309801EE06401F093
:1086E000E0FAEEF912897BEE6208EEC333FEE58212
:1086F0002409F582E5833400F583E508600DEE5525
:108700000860E774086F60D4EF80D49009CEE0F978
:108710007F0102038C74EF12027D89088A0B8B0A99
:108720008C108D11E970030287D2EB70030287D29F
:10873000EC7001ED70030287D2EBC3946440030236
:1087400087CE75090153080F7ED17F09806EE50938
:108750005508605A9009CEE05509FA9009D0E04AD0
:10876000F0E48E828F83F0A3A3A3E510F0A3E511BC
:10877000F08E828F83A3A3E50AF08E828F83A3E518
:108780000BF0700774048E828F83F0128DA48E829A
:108790008F83A3A3A3A3A3EAF0A3EBF0A3ECF0A31E
:1087A000EDF08E828F83E0D2E1F0E5096208E50901
:1087B000C333F509EE2409FEEF3400FFE508708E9F
:1087C0007A027B009009C7E0F912852F80097A01AF
:1087D00080027A0012869B7F0A02038C74E91202DF
:1087E0007D74FF12054E7514007515007516017421
:1087F0000F851882851983F07ED17F099009F5E0F5
:108800006003028971851882851983E0551670030B
:108810000289458E828F83E0A2E1400302893B12E8
:108820008DA48A0C8B0D8C0E8D0FA3A3A3A3A3780C
:10883000081206937808790C120664500302890D19
:108840008E828F83A3A3E0FA8E828F83E0A2E05012
:10885000267464C39AF517E0C2E0F07A00A91612F4
:10886000897BE0A2E2401CA3E014F070168E828F98
:1088700083E06402F0800C8A17D2E0F07A01A91636
:1088800012897B8E828F83E0A2E1505F8517087585
:108890000900750A00750B00A3A3A3E0F510A3E07F
:1088A000F5117512007513007808791012018D907A
:1088B0000ED578101206937808791012020D8508EB
:1088C00010850911751200751300780C79101205C6
:1088D000F48E828F83A3A3A3A3A3E50CF0A3E50DDD
:1088E000F0A3E50EF0A3E50FF0802F7508007509E1
:1088F000009009D0E0551660047A0180027A00A940
:108900001612869B74FF6516FAE05A80DBE508C3F1
:10891000950CF508E509950DF509E5147002E515C6
:108920006013E5087002E5096011C3E5089514E5D8
:10893000099515500685081485091585188285192D
:1089400083E06516F0E516C333F516EE2409FEEF55
:108950003400FFE06003028805E5147002E515604D
:1089600010AC14AD157A027B009009C7E0F9128BA8
:108970006E74011204E97F1002038CC082C083E987
:10898000A2E0500B74016A7004C2A08002D2A0E978
:10899000A2E1500B74016A7004C2918002D291E985
:1089A000A2E2500B74016A7004C2918002D291E974
:1089B000A2E3500B74016A7004C2A08005D2A0EA41
:1089C00060079009CEE049800974FF69FB9009CEE9
:1089D000E05B8004E49009F5F0D083D08222C0826D
:1089E000C08374019009F5F0E5A0FAE590FBE590ED
:1089F000FCA2A0E492E0F4540133333354F8C0E015
:108A0000ECA2E1E492E0F45401333354FCC0E0EB17
:108A1000A2E1E492E0F45401C333C0E0EAA2E0E44E
:108A200092E0F45401FAD0E04AFAD0E04AFAD0E0F9
:108A30004A9009CFF07A00790F12897B809BC0821F
:108A4000C0837A019009CFE0F912897B1287DC029A
:108A500089D474F512027D900EC97808120693909D
:108A6000099978081206A2028BC774F312027D8955
:108A700008EAFEEBFF8C0A8D0B128B12EA7001EBF9
:108A8000600F8A828B83A3A3E50AF0A3E50BF08035
:108A9000727A097B0012914AEA7001EB60618A8266
:108AA0008B83A3A3A3A3A3A3E508128B08EEF0A3D3
:108AB000EFF08A828B83A3A3E50AF0A3E50BF08A8B
:108AC000828B83E4F0A3128B08A3A3A3F0A3F090FE
:108AD0000997E07002A3E09009977006EAF0A3EB13
:108AE00080ACE0FCA3E08003E8FCE9FD8C828D8390
:108AF000128D5AE87001E970EF8C828D8380DD7AE7
:108B0000007B007F0602038CF08A828B83A3A3A3E1
:108B1000A32274F812027D90099780048C828D83C1
:108B2000E0FCA3E0FDEC7001ED601F8C828D83A35F
:108B3000A3A3A3E06A7003A3E06B70E08C828D8333
:108B4000A3A3A3A3A3A3E06970D2ECFAEDFB7F017A
:108B500002038CC082C083EA7001EB600C8A828BB6
:108B600083A3A3A3A3E4F0A3F0D083D0822274F75D
:108B700012027DE5A8FFC2AF128A6AEFA2E792AFA8
:108B8000EA7001EB60047900800279087F02020339
:108B90008C74F512027DA2AFE492E0F509C2AF1227
:108BA0008B128A0A8B0BAE0AAF0BEE7001EF6003DB
:108BB000128B53E509A2E092AFEE7001EF600479E9
:108BC000008002790680007F0402038C74EC12029C
:108BD0007D8A0A8B0BE5A8FAC2AF850A0C8B0D754E
:108BE0000E00750F00900999780C12061AEAA2E798
:108BF00092AF900997E07002A3E07003028D559048
:108C00000997E0F508A3E0F509750C00750D007EE5
:108C1000007F00A2AFE492E0F514C2AFE50824049F
:108C2000F512E5093400F513E5082402F50EE5090F
:108C30003400F50F850E82F583128D5AC3E50A982C
:108C4000E50B99850E82850F834006E4F0A3F08042
:108C500017C3E0950AF0A3E0950BF0850E82850F0F
:108C600083E07002A3E0704EE5082407F510E509E3
:108C70003400F511851082F583E07002A3E06050A6
:108C8000851282851383E0FAA3E0FBEA7001EB60B2
:108C90003F850882850983A3A3A3A3A3A3E0F912B8
:108CA000852F851082851183128D5A850E82850F3E
:108CB00083E8F0A3E9F0850E82850F83E07002A3BC
:108CC000E0600D851282851383E07002A3E0702BB3
:108CD000850882850983128D5AE50C7002E50D70B6
:108CE000059009978006850C82850D83E8F0A3E93D
:108CF000F0AE08AF098E828F83800C85080C850941
:108D00000D850882850983E0F508A3E0F509E514DF
:108D1000A2E092AFEE7001EF60308E828F83A3A34A
:108D2000E07002A3E0701C8E828F83A3A3A3A3E054
:108D3000FAA3E0FB8E828F83A3A3A3A3A3A3E0F9EE
:108D400012852FEEFAEFFB129250E5087002E5094A
:108D50006003028C0F7F0D02038CE0F8A3E0F92280
:108D6000C082C083900997E07002A3E0602F900951
:108D700097128D5A7AFF7BFF88828983A3A3E0FC38
:108D8000A3E0FDC3EC9AED9B5004ECFAEDFB888266
:108D90008983128D5AE87001E9600680DB7A007BD6
:108DA00000028B6974F512027D9009997808120609
:108DB00093AA08AB09AC0AAD0B028BC774F112027F
:108DC0007D900EC978081206939009FB7808120668
:108DD000A28A088B09750A00750B00900ED5780CD5
:108DE0001206937808790C12018D900ED97808122A
:108DF00006077405780812051D900EC9780812053B
:108E00007A701D1222428A088B098C0A8D0B900EF3
:108E1000C9780812057A702E74039009F6F0804A1A
:108E20001222428A0C8B0D8C0E8D0F900EC9780C7D
:108E300012057A60117808790C12066450088A08C5
:108E40008B098C0A8D0B74029009F6F0900EDD7878
:108E50000C120693780C7908120664500D900EC916
:108E6000780812057A6003028F15A2AF40031294AE
:108E7000A7C2AF7902121E45E96003028F17129450
:108E8000821289DE900EC9780812057A6028900E49
:108E9000E1780C120693780C790812066440089069
:108EA0000EE57808120693AA08AB09AC0AAD0B12BE
:108EB0008F2EC2C7D2AD53BEFCE5BE9009F6E04589
:108EC000BEF5BEE5ADA2E050FAE5A8FEE5B8FFE5C7
:108ED0009AF50853A820E5A853B820E5B8539A128C
:108EE000E59AD2AF12E7F8C2AF8EA88FB885089A7C
:108EF000C2AD12900C8A088B098C0A8D0B9009FB6D
:108F0000780812061A128A3E129483121EB7D2AF44
:108F1000123770800DC2AFAA08AB09AC0AAD0B12B4
:108F20008FC0800574041204E97F0802038C74F179
:108F300012027D74FC12054E8A088B098C0A8D0B77
:108F4000E595851882851983F0E596C0E0740112D5
:108F500006BED0E0F0E597C0E074021206BED0E095
:108F6000F074031206BEE4F0851882851983780C2C
:108F70001206939009F7780C1206A2900EE9780C6D
:108F80001206937808790C12018D74067808120580
:108F90001D900EED780812060785188285198378D2
:108FA0000812061A74021206BEE0F5977401120642
:108FB000BEE0F596851882851983E0F595028F2429
:108FC00074F112027D8A088B098C0A8D0B900EC9F0
:108FD000780812057A6028900EE1780C12069378D2
:108FE0000C79081206644008900EE5780812069382
:108FF000AA08AB09AC0AAD0B128F2EC2C7D2AD5373
:10900000BEFCE5BED2AF12E7F8028F2974F112025E
:109010007D74FC12054EE595851882851983F0E56F
:1090200096C0E074011206BED0E0F0E597C0E0748F
:10903000021206BED0E0F074031206BE7401F08581
:10904000188285198378081206939009F778081218
:109050000536900EF17808120607900EF578081282
:1090600005E1900EF9780C1206937808790C12013C
:109070008D900EFD7808120607740C780812051DF5
:10908000AA08AB09AC0AFD028F248008000000008A
:1090900000000000EAF8EBF974FF281A74FF39FBAE
:1090A000E87001E970E62222C0E0C0D0EAC0E0E545
:1090B000A8D2AFC2C7751A00A2E792AFD0E0FAD02B
:1090C000D0D0E032C082C083900EC7E024FEF8A367
:1090D000E03407F988828983E4F0A3F0900EC7E0BA
:1090E000F8A3E0F583888274E8F0A3E4F0900EC75B
:1090F000E024E8F8A3E03400F9888289837416F04C
:10910000A37407F090018CE8F0A3E9F07A007B00EB
:1091100012914A90018EEAF0A3EBF0900EC71291E3
:109120003CD083D08222C082C083E5A8FAC2AF902F
:10913000018E12913CEAA2E792AF80E5E0F8A3E04D
:10914000F990018CE8F0A3E9F02274F412027D7C1E
:10915000007D008C0BEA24020A0AEB3400FBA2AF6C
:10916000E492E0F50AC2AFC3EA9411EB9400500513
:1091700090018C800390018EE0F8A3E0F988828949
:1091800083E0FEA3E0FF74805FF509E47002E50967
:10919000600974806FFF750B008074E50B60628856
:1091A000828983E0F508A3E0F5098C828D83E025B0
:1091B00008F0A3E03509F08C828D83C3E09AA3E028
:1091C0009B404CECF8EDF988828983E0FEA3E0FF38
:1091D000E87001E9606BC3EE9AFEEF9BFFC3EE946B
:1091E00004EF94004047E82AF582E93BF583EEF06E
:1091F000A3EFF074804BFB88828983EAF0A3EB80B5
:1092000036C3EE9AEF9B50C8750B01E8FCE9FDE808
:109210002EF8E93FF988828983E0FEA3E0FFEE7033
:1092200001EF6003029186780079008014888289BA
:1092300083E0F0A3E04480F0E824020808E9340069
:10924000F9E50AA2E092AFE8FAE9FB7F0502038C98
:1092500074F812027DEAFEEBFFA2AFE492E0F5089B
:10926000C2AFEEF8EFF9C3E89490E994014009C366
:10927000E89490E9940940031294A7EE24FE1E1E80
:10928000EF34FFFF8E828F83A3E05480F9E47001F6
:10929000E970031294A78E828F83E0F0A3E0547FDD
:1092A000F090018CE0F8A3E0F9C3EE98EF99500C30
:1092B000EEF8EFF990018CE8F0A3E9F0E508A2E000
:1092C00092AF7F0102038CC082C08374FF9009C8F3
:1092D000F053F402E5F443FEFDE5FE539002E59001
:1092E000E5F375F300E5FD75FD009009C9E4F0A311
:1092F000F09009CCF09009CDF0D083D0822274F8A0
:1093000012027DE99009CBF09009C9EAF0A3EBF0D5
:109310009009CBE06023538CFE438C01E5AB75AB29
:10932000FFD2BD9009CCE06401701A7A017B0090F5
:1093300009C7E0F9128B91800CE5AB75AB00C2BD9B
:109340007C6412934F74019009CCF0FF02038C7D72
:10935000007A017B009009C7E0F9128B6E2274F746
:1093600012027DE5AB75AB00E580F97A0075080166
:10937000750900EA7808120640AB08EB6004E95B67
:1093800060070AEAC3940840E44390FDE5907B003F
:10939000750801750900EB7808120640AC0874FDE9
:1093A0005C6025ECF45590F5907450001470FCE569
:1093B00080FDEC4590F590750801750900EA780884
:1093C000120640E5085D60070BEBC3940840C153EB
:1093D0009002E5909009CBE0600A758900C2C5E56E
:1093E000AB75ABFF74086B600574086A700479FF95
:1093F0008008EA33333354F84BF97F0202038C744C
:10940000F812027D12935EE9FE9009CBE07009909C
:1094100009C8E06E603EEEF074FF6E70069009CBF6
:10942000E060319009C9E07002A3E060107A00901A
:1094300009C9E0F8A3E0F58388821206C89009CB39
:10944000E0601174FF6E60077C3212934F8005E478
:109450009009CDF07F0102038CC082C083E5896052
:109460001EE5AB75AB007589009009CDE0700B74FB
:1094700001F07C197D00FA129353E5AB75ABFF0246
:1094800092F922790122C0E074F21202DDE5A8FE11
:10949000D2AF129459758900C2C5751A00EEA2E7C1
:1094A00092AF7F0102033C1294AB2274F512027D4D
:1094B00074F612054EC2AF53BEFBE59DA2E650FA0C
:1094C0000078F8790100E824FF18E934FFF9E87022
:1094D00001E970F175C6807480659E70FA43BE0420
:1094E0007408906270F043FF0143FE02D2A0D29153
:1094F000D2918017D2A00B74086B60030295DA7BBF
:10950000000CECC3940650030295DAD2A07A0080D6
:10951000060A740A6A606E900EC97808120693747F
:10952000061206BE78081206A28012900ECD7808A8
:1095300012069374061206BE780812061A740612F2
:1095400006BEC082C083900ED17808120693D083E5
:10955000D082780812067440D2A2A05004C2A08023
:1095600002D2A0A2915004C2918002D29190099E91
:10957000E0600CE4F0740A1204E97F0402038CA298
:1095800086408E8088D2A0D291D291D2A0780079E4
:1095900000A28650047800790012963A40F3906158
:1095A000A3E0C0E074041206BED0E0F09061A4E035
:1095B000C0E074051206BED0E0F0900BE1E0C0E020
:1095C00074021206BED0E0F0900BCCE0C0E0740351
:1095D0001206BED0E0F07B007C00A28650FCC2A048
:1095E000C291C291EB7004C2A08002D2A07800792F
:1095F00000A28650047800790012963A40F3D2A077
:10960000D291D291D2A07508017509007407C39B4D
:109610007808120640C0088C08851882851983E5F1
:10962000822508F582E5833400F583D0E0FAE05A1C
:1096300070030294F4C2A00294F6E8240108E9340D
:1096400000F9C3E894F4E99401A2D265D0332274FE
:10965000F512027D7E007F001237DA8A088B09AC92
:1096600008AD09900182E06C7003A3E06D70030205
:10967000973E900182E0F8A3E0F9ECC398F508ED7D
:1096800099F509900182ECF0A3ED801FE508240410
:10969000F508E50934E0F509EE243CFEEF340AFF55
:1096A000900184E02404F0A3E03400F0C3E50894C2
:1096B000FDE509941F50D574037808120640900107
:1096C00084E02508FCA3E03509FDECF8EDF97A19F2
:1096D0007B0012013488088909EE2508FEEF350960
:1096E000FFECF8EDF97A197B00120134900184EA5D
:1096F000F0A3EBF0EE7001EF6044900186E02EF0F5
:10970000A3E03FF0900186C3E094E9A3E094034016
:109710002612974312013488088909750A00750BCF
:1097200000900188780812061A12974312013490AB
:109730000186EAF0A3EBF0EEFAEFFB128BCC7F048C
:1097400002038C900186E0F8A3E0F97AE87B03221B
:1097500074F512027D9001887808120693AA08AB6E
:1097600009AC0AAD0B80D72274F512027D8908740A
:109770000B1206BEE0FEA3E0FF740F5508F50A7554
:109780000B00740B780A1206402AF874803BF9E447
:1097900028E50B39F9E5C7F509E508C4540FC0E021
:1097A00074F855C7FAD0E04AF5C7801C88828983CF
:1097B000E08C828D83F088828983A3A882A9838C20
:1097C000828D83A3AC82AD83EEFAEFFB74FF2A1E79
:1097D00074FF3BFFEA7001EB70D28509C77F04027A
:1097E000038C74F712027D74091206BEE0F508A31B
:1097F000E0F509ED90099FF0EC9009A0F0746290FB
:1098000009A1F074739009A2F09009A3E0541FF02D
:10981000E508333354FC9009A4F074067808120666
:1098200084E5089009A3F074129009A5F0744290A1
:1098300009A6F075D1FE75D601EA906271F0EB9041
:109840006272F0906270E0D2E1F0E0A2E740FB7F4C
:109850000202038CC082C083E9C333906272F0902D
:109860006270E0D2E0F0E0A2E740FB906272E02498
:1098700002F0D083D08222D083D08222C082C083E3
:1098800043B3017C108A828B83E0F5B1A3AA82AB3B
:10989000831CEC70F080E074F812027D43B3017E0B
:1098A000101298F870FB7C0FEC1C70FC7C10E5B279
:1098B0008A828B83F0A3AA82AB831CEC70F07F01B9
:1098C00002038C74F712027D43B3017F047E0412FD
:1098D00098F870FB7E0F8E081EE50870F97E04E58F
:1098E000B28A828B83F0A3AA82AB831EEE70F01F34
:1098F000EF70DA7F0202038C8C828D83E0F5B1A3D6
:10990000AC82AD831EEE2274F855B34406F5B31253
:10991000987C2274F855B3440480F22212993312D1
:1099200099132212993353B3F8E5B3ECFAEDFB1215
:1099300098972253B38FE5B343B34022C082C083CC
:10994000E99009C7F0D083D08222129B17129BDDC9
:1099500012976712991B12868D1292C72274F71202
:10996000027DEAFEEBFF74805FF9E47001E9601BA1
:109970009009C78003128285E0F912830DEA700115
:10998000EB70F2EEFA74806FFB8040EE5402600AD6
:109990001287DC74026EFAEF80EEEEA2E0501D1228
:1099A00093FF9009CBE070107C647D007A017B000E
:1099B0009009C7E0F9128B6E740180D954046007D6
:1099C0001290A7740480CE7A007B007F0202038C81
:1099D00022C082C083E4900996F0900990F0A3F031
:1099E000D083D08222C082C083E990099680F0742F
:1099F000F712027DE9FE900F42E0FBE9C39B4004B1
:109A000079038030750801750900EE780812064068
:109A1000AC08AD09EA7011ECF4F8EDF4F990099096
:109A2000E058F0A3E0598009900990E04CF0A3E0E1
:109A30004DF079007F0202038C74F712027D9009C9
:109A400096E0601A900990E07002A3E07010E5A81B
:109A5000FEC2AF128D60EEA2E792AF128DBC80D431
:109A600074F712027D750808EAFEEBFF8E828F8381
:109A7000A3AA82AB83ECF8EDF988828983A3AC8238
:109A8000AD838E828F83E0FE88828983E06E6004DE
:109A9000790080081508E50870CE79017F0202037D
:109AA0008C74F612027D8C088D09750A00780812F4
:109AB00004B77C087D0012814D74031204E97F0312
:109AC00002038C53BEFBE59DA2E650FA0078F879BC
:109AD0000100E824FF18E934FFF9E87001E970F1AA
:109AE00075C6807480659E70FA43BE0474089062E7
:109AF00070F043FF0143FE0212994A127860121E71
:109B0000C81285A2D2AF7A457B6D79011292FE12FE
:109B100085C17A007B0022C082C083748090099D39
:109B2000F0D083D08222E9FA75B60FE5B4A2E750EF
:109B3000FAEAC395BB5003790122790022C00812CA
:109B40009B4DF508129B4DAA08FBD0082274F355D3
:109B5000B44404F5B4E5BD22C082C0837A0A7B0018
:109B600012914A900AE9EAF0A3EBF07C0A7D0079B1
:109B700000128203790012158C7901124650790285
:109B80001260247903126A0A790412993CD083D0B6
:109B9000822274F812027D74081206BEE0F8A3E077
:109BA000F98A828B838003ECF0A3E8FEE9FF74FF5F
:109BB0002E1874FF3FF9EE7001EF70EB7F01020386
:109BC0008CC082C0838A828B838001A3E070FCE515
:109BD00082C39AFAE5839BFBD083D082227409F575
:109BE000D575D49F7409F5D375D2A722C2AF75C9B4
:109BF0000B0080FDFFFFFFFFFFFFFFFFFFFFFFFFE9
:109C0000FFFFFFFFFFFFFFFFFFFFFFFFFFFFFFFF64
:109C1000FFFFFFFFFFFFFFFFFFFFFFFFFFFFFFFF54
:109C2000FFFFFFFFFFFFFFFFFFFFFFFFFFFFFFFF44
:109C3000FFFFFFFFFFFFFFFFFFFFFFFFFFFFFFFF34
:10E7F000FFFFFFFFFFFFA301851A870022FFFFFF36
:10F80000FFFFFFFFFFFFFFFFFFFFFFFFFFFFFFFF08
:10F81000FFFFFFFFFFFFFFFFFFFFFFFFFFFFFFFFF8
:10F82000FFFFFFFFFFFFFFFFFFFFFFFFFFFFFFFFE8
:10F83000FFFFFFFFFFFFFFFFFFFFFFFFFFFFFFFFD8
:04000005000000DC1B
:00000001FF
