:020000040000FA
:100000000200DC0234F4FFFFFFFFFFFFFFFFFFFFF2
:10001000FFFFFFFFFFFFFFFFFFFFFFFFFFFFFFFFF0
:10002000FFFFFFFFFFFFFFFFFFFFFF028C88FFFFC7
:10003000FFFFFFFFFFFFFFFFFFFFFFFFFFFFFFFFD0
:10004000FFFFFFFFFFFFFFFFFFFFFFFFFFFFFFFFC0
:10005000FFFFFF0232E6FFFFFFFFFFFFFFFFFFFF93
:10006000FFFFFFFFFFFFFFFFFFFFFF029066FFFFA5
:10007000FFFFFFFFFFFFFFFFFFFFFFFFFFFFFFFF90
:10008000FFFFFF0233F11200F0B900030200D6E4D3
:10009000791A7801B800028004F709D8FCE49001CD
:1000A000807847790A8002F0A3D8FCD9FA900AC672
:1000B000AA82AB839097CA78EC79018015E493A368
:1000C000AC82AD838A828B83F0A3AA82AB838C82BD
:1000D0008D83D8E9D9E71296AB1200EB75D0007585
:1000E000813F75188075190102008600000080FBB1
:1000F000790122C3E498F8E499F91201348026C307
:10010000E49AFAE49BFBE920E7E9120134E498F869
:10011000E499F922C3E498F8E499F9120134E498D7
:10012000F8E499F9C3E49AFAE49BFB22EB20E7CFC9
:10013000E920E7E0B90010BB0008E88AF084F8AADB
:10014000F022E4FBC8FA22EB70227B10C833C8C946
:1001500033C9335007C39AC3DBF280069A50012A91
:10016000DBEAC833F4C8C933F4C9FA2275F008E4ED
:10017000C833C8C933C933C99AC99B5004C92AC9ED
:100180003BD5F0ECFBC833F4C8E4C9FA22080808F0
:10019000EAC0E0EBC0E086F0E7A4FA180986F0E7D1
:1001A000A42AFA180986F0E7A42AFA180986F0E7C3
:1001B000A42AFA1986F0E7A4FBE5F02AFA190886C2
:1001C000F0E7A42BFBE5F03AFA190886F0E7A42B38
:1001D000FBE5F03AFA18180986F0E7A4C5F02BFB06
:1001E000E43AFA1908E7C5F0C6A426F6E5F03BFBA9
:1001F000E43AFA1886F0E7A4F6E5F00826F6E43BC0
:1002000008F6E43A08F6D0E0FBD0E0FA22E4CFC0EA
:10021000E0E4CEC0E0E4CDC0E0E4CCC0E075F02086
:10022000C3E633F608E633F608E633F608E633F6B7
:10023000181818EC33FCED33FDEE33FEEF33FFC33B
:10024000EC9709ED9709EE9709EF97191919400FE7
:10025000FFEC97FC09ED97FD09EE97FE191906D5FD
:10026000F0BEECF709EDF709EEF709EFF7191919E8
:10027000D0E0FCD0E0FDD0E0FED0E0FF222518C5A4
:1002800082C0E0E51934FFC583C0E0E518C395825C
:1002900024F9F8E4C5A8858319858218C5A8E8CE95
:1002A000F0A3E520F0A37808E608F0A3DEFAEFF06B
:1002B000A3E58124FBF8E608F0A3E608F0A308080C
:1002C000E608F0A3E608F0A315811581D0E0FED082
:1002D000E0F815811581E8C0E0EEC0E022C0D0252D
:1002E00018C582C0E0E51934FFC583C0E0E518C336
:1002F000958224F310AF08858319858218800885BC
:100300008319858218D2AFC8F0A3E9F0A3EAF0A35D
:10031000EBF0A37908E709F0A3D8FAECF0A3EDF02D
:10032000A3EEF0A3EFF0A3D0E0F0A3D0E0F0A3D0D1
:10033000E0F0A3E520F0A3E5F0F0A3228519838582
:100340001882E0C0E0A3E0F9A3E0FAA3E0FBA37801
:1003500008E0F608A3DFFAE0FCA3E0FDA3E0FEA3BB
:10036000E0FFA3E0C0E0A3E0C0E0A3E0F5D0A3E09D
:10037000F520A3E0A3F5F0E4C5A8858319858218CC
:10038000C5A8D082D083D0E0F8D0E032851983852B
:100390001882E0A3FEE0A3F5207808E0A3F608DFCA
:1003A000FAE0A3FFE0A3C0E0E0A3C0E0E0A3C0E068
:1003B000E0A3C0E0E4C5A8858218858319C5A8D04C
:1003C00083D08222D083D082C5F0E493A3C5F0C34A
:1003D00095F0F5F0E493A3C395F04005E5F00480B3
:1003E00001E475F002A42582F582E5F03583F583FA
:1003F000E493A3C0E0E493C0E02274028000CCC088
:10040000E0EDC0E0E518C39CCCAD1950011D10AF64
:10041000068C188D1980068C188D19D2AF120473B2
:10042000D0E0FDD0E0FC22D083D082CCC0E0E493C9
:10043000A360061204941470FAE493A360061205F4
:10044000641470FAD0E0FCE493A3C0E0E493C0E04D
:1004500022CAC0E0E493A3C582CCC582C583CDC5C2
:1004600083F0A3C582CCC582C583CDC583DAE5D030
:10047000E0CA22CAC0E0E0A3C582CCC582C583CD54
:10048000C583F0A3C582CCC582C583CDC583DAE61A
:10049000D0E0CA22C0E0E493A3D39C5010E493A31D
:1004A000C39C400AD0E0D0E0D0E0020444A3A3A360
:1004B000D0E0227404800A740380067402800274FF
:1004C00001C0E0F4041204CED0E01206B1222518D7
:1004D000F58210AF08F518400215198008F518408C
:1004E000021519D2AF85198322C0D0251810AF0884
:1004F000F518500205198008F51850020519D2AFF9
:10050000D0D022BB0102E722C082C08389828A83C5
:10051000BB0003E08002E493D083D08222601608FF
:100520000808C6C313C618C613C618C613C618C60D
:1005300013C6D5E0EA22C3E0C696F608A3E0C69645
:10054000F608A3E0C696F608A3E0C696F62225189C
:1005500010AF08F518400215198008F5184002156B
:1005600019D2AF22C0E0E493A36C7009D0E0D0E0D0
:10057000D0E0020444A3A3D0E022E066701008A3F8
:10058000E066700A08A3E066700408A3E06622C370
:10059000E09608A3E09608A3E09608A3E096A2D20E
:1005A00065D03322E76670100809E766700A08090B
:1005B000E76670040809E76622C3E697F60809E6CD
:1005C00097F60809E697F60809E697F622C3E0963B
:1005D000F008A3E096F008A3E096F008A3E096F0F8
:1005E00022E056F608A3E056F608A3E056F608A364
:1005F000E056F622E627F60809E637F60809E63758
:10060000F60809E637F622E026F608A3E036F608F3
:10061000A3E036F608A3E036F622E026F008A3E0D1
:1006200036F008A3E036F008A3E036F022C0E0E898
:10063000C0E0E58124FCF8E6A2E7D0E0F8D0E022B3
:10064000700422600D18C6C333C608C633C6D5E091
:10065000F41822E4C396F608E496F608E496F60841
:10066000E496F622C3E7960809E7960809E7960894
:1006700009E79622C3E09608A3E09608A3E096084F
:10068000A3E09622600C08C6C313C618C613C6D5CD
:10069000E0F422E0F608A3E0F608A3E0F608A3E001
:1006A000F622E6F008A3E6F008A3E6F008A3E6F0D9
:1006B00022CAC0E0E6F0A308DAFAD0E0FA22251850
:1006C000F582E43519F58322E473F582EB1207CB4A
:1006D000A2E22278081206A202072434FFF50DEEEA
:1006E000240DF582EF1207CB22E5A4851882851927
:1006F00083F0E5A5C0E074011206BED0E0F0E5A6E7
:10070000C0E074021206BED0E0F074031206BE12FE
:1007100007297808120693AA08AB09AC0AAD0B7436
:10072000041204E97F0402038CE4F0EAA2E792AF2A
:1007300085188285198322F582EF1207CBA2E52264
:10074000E8120745222449F582E9340BF583221289
:100750001DCF9007A1123B787A147B00221212DC85
:1007600074022212076722E024FFF8A3E034FFF9A5
:1007700022F582EF1240B5E422E01313543F5403F4
:10078000227F0502038CFB129648E9221207792288
:10079000E50824FBF582E50934FFF58322A3A3A332
:1007A000E0FA8882898322E0F508A3E0F509E508EC
:1007B00022121D5574041204E97F0802038C7A2F5B
:1007C0007B07128043740222F582EF3400F583E048
:1007D00022A2E7022AF6121D55740422EE240EF519
:1007E00082EF1240B522EE240DF582EF1207CB64A2
:1007F0000122E0FEA3E0FFEE2212388FA3A32239EC
:10080000FB7F0702038CF0EEFAEFFB22EE2412FCD2
:10081000EF3400FD221207CB640222E9FDEAFC74EA
:10082000062DFAECA2E0501EEA75F00A84ABF0EB5C
:100830006014740A2AC39BFAEBC394054004740A3B
:100840002AFA740B2AFAEDC3941340047814800238
:100850007806E82AF8740928F8E43400F97A0A7B63
:100860000012012CE8F922C082C08374FE12054EEA
:100870008518828519831209951203C4000354094F
:100880008808DF0854090409900781E0640F6018A4
:10089000121097E9701285188285198312157F90BE
:1008A0000B6D1220FE1206C89007A9E0C0E0851863
:1008B0008285198312274CD0E01209707414120932
:1008C0006BFCA3E0FD7A317B07127F92E5A8FAC2A8
:1008D000AF90073712098C7920120F73025AB49027
:1008E0000757E0851882851983A370111253347459
:1008F0000D12096BFAA3E0FB1247F680DF125334A6
:10090000741580BA125AD3604B125AD3141209705C
:10091000120964C0E0851882851983123062D0E024
:1009200012096B2402F8120B9E2401125ABB888212
:10093000898312099514C39409501912532DA3A346
:10094000A3A3A3E0240AC0E012532DD0E01209991A
:10095000040208BE851882851983AA82AB8312120D
:10096000850208DCA3A3120BB7E022121E9AE02234
:1009700012097422121E9E12097B22E0F8A3E0F5F0
:1009800083888222E5A8FAC2AF900736E004F0EA35
:10099000A2E792AF22EAF0A3EB120974A3A3A3A3E8
:1009A000A3E022121097E96003792022790122C086
:1009B00082C083EA120CBAEB1206E5D2E0021ABC3E
:1009C000C082C083120A4C1207EC7011120A534005
:1009D0000C8A828B83A3E0F9120F87806CEA120DD8
:1009E0003FEB1206E5A2E650128A828B83A3E0F960
:1009F000900B6F1220FE1206C8804E120A4C12078E
:100A0000EC7009120A535004743080368A828B834A
:100A1000A3E0641B7004742280288A828B83A3E085
:100A2000700F120A4C1206E5242DF582E4349980E9
:100A30000D120A4C1206E52438F582E43499F58348
:100A4000E4938A828B83120A5E021ABDEA240DF5B2
:100A500082EB22EA120D3FEB1207CBA2E322F090C9
:100A60000750E0F9127E8E2274F812027DE9FE90A2
:100A70000738E07002A3E0603EEE7006120BA2E4BD
:100A80008014741B6E7033900738121507E06405EC
:100A900070EA120BA2EE122CF1FB1209C09007387B
:100AA000E0240E120CCD5003121786900738E4F0A4
:100AB000A3F07910120F7302158B74E96E600302B4
:100AC0000B619007381238307038125AE2E9603200
:100AD000120BC8402D9007A3E0C0E0900738E02437
:100AE0001112381BD0E0F0900792E0C0E0120BBE6C
:100AF000A3A3D0E0F0900792E004F07901122BFC60
:100B000080B5900738123830900738604CE0240EDA
:100B1000181818120BCF900738E040142411120B4C
:100B20009B14F074019007E7F09007E1E0F980CDA5
:100B3000240F120B9DC2E7120CD3240DF8120B9E4A
:100B40006403700C900738E02410120B9BD2E2F083
:100B5000120BAA1206C8020A9D120BA574E9020A1A
:100B60009674E16E7014125AE2E97003020A92124E
:100B70000BC85003020A92020AD5741C6E6003026D
:100B80000A9290073812157F900B751220FE1206FC
:100B9000C8900738E4F0A3F0020AB7080808123832
:100BA0003822900738120BB7A3229007381215830A
:100BB000900B6B120BB722E0F8A312097E2290076C
:100BC000381228C3120BB722900738E0240EF8120F
:100BD0003838A2E22274F512027D750A00750B0006
:100BE000A2AFE492E0FEC2AF900738E07002A3E04B
:100BF0006008EEA2E092AF020CA7900B731220FEE9
:100C00001206C8E94410FA90072F800985080A8562
:100C1000090B1207901207A77002E50960D4120CA5
:100C2000AF5A6A70E7780A1204BBAC08AD09120724
:100C3000BE1204E9900738E508F0A3E509120CD3C9
:100C4000120CCB4065900736E014F0EEA2E092AFB4
:100C5000900738E0240E18181228B6E8FEE9FF8E37
:100C6000828F83E0FA900738E0F8125AD9F9120817
:100C70001BE9900733F0A3E4123875A2E7501890EF
:100C80000738E02412120CBF12225D900738E024CE
:100C900013120CBF1221B6900738120CC4A2E1B394
:100CA000E492E0F9122BFC0207249007358099E5C5
:100CB00008120CBAE5091207CB222410F582221281
:100CC0003837F922E0240F1238372224101238372F
:100CD000A2E722F0900738E02274F812027DEAFEC3
:100CE000EBFF121269EE120D3FEF120A5840091283
:100CF00007E67004790280027905EEFCEFFD7A2F99
:100D00007B071280C2E9602FEEFAEFFB900B7112A5
:100D100020FE1206C8EE240EF582EF1206CD400822
:100D2000120984120BD58014EEFAEFFB900B6912B6
:100D300020FE1206C8800574F1120D4402158B24A2
:100D40000FF582228E828F83A31208061209C02219
:100D5000120BD52274F812027DEAFEEBFF790090A7
:100D60000755E05402700DEE242FF582EF1206CDE8
:100D7000500279E8900755E05460700CEE242F1271
:100D800006E2A2E1500279E88E828F83A3A3A3A397
:100D9000E0C39475400279E8EE242D1206E270104B
:100DA000EE242A1206E2700879F5120F8702158BDD
:100DB000E970F7EE240D120E10F0EE242F1206E269
:100DC000C0E01207DCD0E0F0EE24301206E2C0E012
:100DD000EE24121207DFD0E0121519C0E0EE241342
:100DE0001207DFD0E0F0EE242B1207DF1203FAEE39
:100DF0002422FCEF3400FDEE242D1206E2F9120746
:100E00005D1204E9E970A6EEFAEFFB120CD9809DA1
:100E10001240B2740122C082C083740D8A828B8317
:100E2000F01247F6021ABDC082C083E48A828B8327
:100E3000F0A3F0EA242F1206CA4011900736E0C34F
:100E40009402401179F1120F87021ABD900735E024
:100E5000C3940250EF12114F80EF74F412027D8997
:100E60000CEA2425F582E43499F583E493244AFEC0
:100E7000890A250AFAE43400FB127E0FEA7001EBBE
:100E800060158A828B83A3A3A3A3E50CF08E0812BE
:100E90000E9E1240CB80047A007B00020781EA2577
:100EA00008F8EB3400F98A828B8322C082C083E485
:100EB00090074EF090074FF0900742120ED2740246
:100EC000900744F090074B120ED2740190074D0228
:100ED0001ABC7473F0A3740FF02274F112027D1225
:100EE0001AE61206937808790C12018D780812041C
:100EF000B37A457B070207B174F512027D74CE12F6
:100F0000054E900781E0640F6007742E120F398040
:100F1000237A3C7B0712074F120134880889097530
:100F20000A00750B0078081204B37A3C7B0712079D
:100F3000D61204E97432020721851882851983F0DC
:100F4000AA82AB831210AC22FAEF3400FB79501264
:100F50001846221204E902158B7402020F53AA826A
:100F6000AB83127DD3851882851983AA82AB831245
:100F700047F62274F812027DE9FA7B00900750E0F0
:100F8000F912810F02158B74F512027D74F01205AF
:100F90004EE9FE8A828B83E02407F582E4349AF5D9
:100FA00083E493C0E074011206BED0E0F0640B70DD
:100FB0000DEE8A828B83A3F0121590021092E070DE
:100FC00003021092640C600302107F74041206BEC8
:100FD000121DC9EA242EF582EB1206E5C0E0740367
:100FE0001206BED0E01214CBA3A3A3A3A3780812C9
:100FF000069374061206BE78081206A28A828B83B4
:10100000A3A3A3A3A3A3A3A3A3124448740A1206F1
:10101000BE1240CDEA240EF582EB1206E5A2E450A2
:1010200003E48010EA2411F582EB1206E5FC900738
:10103000A3E0C39C851882851983F0E0C0E0740C9E
:101040001206BED0E0F0EA2414F582EB1206E5C0E9
:10105000E0740D1206BED0E0F0EA2415F582EB1222
:1010600006E5C0E0740E1206BED0E0F0EA2416F5E4
:1010700082EB1206E5C0E0740F1206BED0E0F074F9
:10108000021206BEEEF074011206BEAA82AB8312F3
:1010900047F67410020721C082C083900757E064AE
:1010A000037004790180027900021ABD74F71202FC
:1010B0007D900757125BBB2477F582E9340BF583EB
:1010C0001212D4E0C2E7F0C333FCE82CF582E91237
:1010D00007E2A3E493FEC333FCE433FDEC2477F58D
:1010E00082ED340BF583E07002A3E06005EE90071B
:1010F00057F08A828B83E0C333FCE433FDE82CF5A0
:1011000082E93DF583E493F508C4540FC3332466A4
:10111000F582E43407F5831215107001E970118A25
:10112000828B83E0C3940B50237918120F87801CA5
:10113000740F5508C333FCE82CF582E91207749349
:10114000C0E0740193F583D0821206C80229A290F0
:101150000750E0F9127E8E22C082C083E9900750CA
:10116000021ABC74F712027D74FE12054EEAFEEB01
:10117000FFEE54207031803CE5A8FCC2AF900737E9
:10118000E0141222198A828B8312124D9007531297
:101190001DC91210AC851882851983E0641560079B
:1011A0007A537B071212857A317B07127FECEA7043
:1011B00001EB70C474805FF9E47001E9700580117F
:1011C000121256900750E0F9127EEDEA7001EB70B2
:1011D000EFEE54106005742D120F39EEA2E05005A9
:1011E0007424120F39EE540260057425120F39EE83
:1011F000540460057426120F39EE540860057428F3
:10120000120F39EE5440600C74011206BEE4F07403
:101210002C120F39EE5480600C74011206BEE4F0FB
:10122000742F120F39900751E07002A3E06017E5A8
:10123000A8FCC2AF90075112157F900751E4F0A3AC
:101240001222191212567A007B0002299DE085189D
:1012500082851983F022900753EAF0A3EBF0121075
:10126000AC7A537B0712128522C082C08390075349
:10127000124448EA687002EB697007900753E4F083
:10128000A3F0021ABD74F812027DA2AFE492E0F559
:1012900008C2AF8A828B83E07002A3E060338A8247
:1012A0008B83123E96EC24FBF8ED34FFF990075344
:1012B000122104EC6E7002ED6F7007900753E4F09A
:1012C000A3F08A828B83E4F0A3F0E8FAE9FB128EA4
:1012D00030022AF2123B788A828B832274EB12024C
:1012E0007DEAFEEBFF8C108D1174151206BE1214F0
:1012F000FF7508008C828D83A3A3A3A3A3A3A3A33C
:10130000E0F512E9A2E75008750AFF750BFF8006A9
:101310009007961214C3E9C2E7F513EE240E1207E4
:1013200037EE5009240F1207DF74088005240F12CE
:1013300007711214D1A2E2EE50071240AC74808003
:10134000051240AC74101214D1A2E45008EE24111E
:10135000120771800E9007A3E0C0E0EE241112077F
:10136000DFD0E01214D1A2E050037508208E828FE6
:1013700083A3A3E024FFF50CA3E01206DBC39402D1
:10138000E04006141214DA74034508F508851314B6
:10139000751500740E7814120640E515F5097402EF
:1013A0006513701190079B1214D990079A1214BA02
:1013B0001214B6801974036513700F1214A97CAA55
:1013C0007D07AA0CFB12968980E6E5136028E512DA
:1013D0006014E50E650A7004E50F650B7008744033
:1013E0004508F5088010850C82850D83E50B1214E5
:1013F000F6E50A1214E085120A750B00740A780AE1
:10140000120640E50B4509F509740265127018854E
:101410001082851183A31214D9851082851183123D
:1014200014BA1214B6801974036512700F1214A93D
:10143000AC10AD11AA0CFB12968980E6E512601083
:10144000850C82850D83E50F1214F6E50E1214E06B
:10145000A80CA90DE824FFF50CE91206DB70059035
:1014600007868003900792E0FA04F0EA8882898375
:10147000F0850C82850D83E5091214F6E508F0EE7F
:101480002404F8EF3400F9EE2402FAEF3400FBAC48
:101490000C125BCFFDE02DC39C1214CBECF0A3E546
:1014A0000DF079007F0E02038CE50C24F9F50CE5B4
:1014B0000D34FFF50D221214E922E0850C82850D12
:1014C00083F022E0F50AA3E0F50B22F08A828B83F9
:1014D00022F0EE240E1207C822E0850C82850D83CF
:1014E0001214E422F01214E922E50C24FFF50CE5B5
:1014F0000D34FFF50D221214E4850C82F58322E0F1
:10150000F50EA3E0F50F22E0240D12382922A3A343
:1015100012151422123B7CE822F0EE24311207C887
:101520002212162DA3E0221240B512152E22E50C30
:10153000F0A3E50DF0A3E50EF0A3E50FF02222796C
:1015400019120F872274F812027DEAFEEBFF900752
:1015500051E07002A3E0601090075112157F121540
:101560003F7A517B07121285EEFAEFFB1212699057
:101570000751EEF0A3EFF08012A3A3A3A3A3A3123D
:10158000158322122CF9FB221244817F0102038C65
:1015900074F812027D74DE12054EEAFEEBFF8E82B5
:1015A0008F83E0120427011E1FF3150303B71505EF
:1015B000F31518B715FC1574161206BEE412163A88
:1015C000740B1206BEAA82AB83129689741312069C
:1015D000BE740312179774021206BE1240CD740A2D
:1015E0001206BE740212163274141206BEE8F0A37C
:1015F000E9801074161206BE740180C174161206BA
:10160000BE7402F0740B851882851983121629E0C6
:10161000C0E074011206BED0E0121648741712061C
:10162000BE120F5E7422020F5312162D2212387A48
:10163000A322F0900796123B7822F012163F22EE7A
:101640002417FCEF3400FD22F07C0B7D0079002292
:1016500074F712027D74FE12054EE9FEA2AFE49209
:10166000E0FFC2AFEE601C909A207C797D07743C4D
:10167000120451122186E9900792F0122186E99016
:101680000786F0900B89E07015122ABAE49007CC17
:10169000F09007DAF012444C1222C11222D053A764
:1016A000EF121EAC122B77121786900778E0F91212
:1016B0002191121A05121797E8906174F0E9122B24
:1016C000EA750800E508C333F8E433F912177BE044
:1016D0007002A3E0600912177B1220FE1206C805F3
:1016E00008E508C3940740DC900751E07002A3E0CE
:1016F00060077A517B07121285E4900757F0900635
:10170000E8E07002A3E0601E800D851882851983D1
:10171000AA82AB831212859007501244541240CD16
:10172000E87001E970E4E49007B5F080077A2F7B58
:101730000712179F90072FE07002A3E070EF900749
:1017400031E07002A3E060097A317B0712179F80B5
:10175000ED90072FE4F0A3F0900735F0900736F0F6
:10176000900737F0900778F07A997B077952121832
:1017700046EFA2E092AF790002299DE82458F58255
:10178000E93407F583229007A9E0F912225D90075A
:10179000A8E0F91221B622F090079A123B782212A3
:1017A0007FEC851882851983EAF0A3EB121B2512C2
:1017B000128522F0900755E4F0A3F012210A021AD4
:1017C000BD12218622E9FA74C02AC3941E50057402
:1017D000C02AF92274202AC394065005743E2AF9BF
:1017E0002279242274F412027DEAFEEBFF1217C55F
:1017F000E9F50874246508700479F48046E5A8F5D5
:101800000CC2AF75090074027808120640E508247E
:101810005CFAE509349AFB8A828B83E4932479F598
:1018200008E43407F509750A0078081204B78A82BB
:101830008B83A3E4931259C21204E9E50CA2E79248
:10184000AF790002078174F212027D8908EAFEEB8B
:10185000FF74456508700B90077EEEF0A3EFF00271
:1018600019E21217C5E9FA8A0974246A700579F435
:101870000219E4890A750B007402780A12064012F4
:1018800019F67014890A750B007402780A12064062
:101890001219E77003021925890A750B0074027882
:1018A0000A120640E50A245CFAE50B349AFB8A82A8
:1018B0008B83A3A3E493FC8A828B83A3A3A3E493E7
:1018C0006C700579FB0219E474586508701B8E82F0
:1018D0008F83E02471F8A3E034FFF9C3E89422E990
:1018E0009464400579E80219E48E828F83E0C0E0B9
:1018F00085090A750B007402780A1206401219F65F
:10190000FAD0E0C39A40DD85090A750B00740278AD
:101910000A1206401219E7C0E08E828F83E0FAD0E7
:10192000E0C39A40BFE5A8F50AC2AF85090C750D62
:10193000007402780C120640E50C245CF8E50D34C6
:101940009AF9E8FAE9FB8E0C8F0D750E00780C12EF
:1019500004B78A828B83A3E493FC7D008A828B8305
:10196000E4932479FAE434071259C81204E9E50A29
:10197000A2E792AFE508120427000750921952A877
:1019800019539819E0D319E1BA19E2C419E5DA1923
:10199000E219121A0502185E90079A12151090614A
:1019A00074F0E990617580ED900799E07902600527
:1019B000122A7B802D122A9980289007A9E0F9121B
:1019C000225D801E79087CAA7D077A6A7B611235C8
:1019D0001E800F9007A8E0F404F09007A8E0F91229
:1019E00021B67900020801E50A245FF582E50B348F
:1019F0009AF583E49322E50A245EF582E50B349A96
:101A0000F583E49322900796121514906172F0E921
:101A1000906173222274F812027DE9FE9007B5E00E
:101A20006E700479008034E0702F900757E06004F6
:101A300064027025A2AFE492E0FFC2AF9007CBE052
:101A400070129007CDE0700C9007E0E070069007F0
:101A5000DFE0600AEFA2E092AF79E202158B122B71
:101A600045EE900B89F0EFA2E092AF5394FEE5941F
:101A7000A2E240FA74016E60079061A5E0C2E2F054
:101A8000EE9007B5F0809CC082C0839007B5E060FF
:101A900005122B77E4F08025C082C083900766741E
:101AA00012F0A3749A0217B3F090075874ABF0A326
:101AB000740EF0900755E04401F0A3E0F0D083D01D
:101AC0008222C082C08390076874ECF0A3749AF0FD
:101AD00090076C74F6F0A3749AF090076E7412F08D
:101AE000A3749B80C3229007A4121AF8750A00758C
:101AF0000B00900BA1780C22E0F50875090022126A
:101B00000BB8A3A3E0F508A3E0F50922EE2412FA2E
:101B1000EF3400FB22EE241AF582EF1207CB6403A8
:101B200022121B2522121E9EAA82AB832274F1125E
:101B3000027D9007BAE4F0A3F09007B6E07002A32C
:101B4000E060379007B61228BFC082C083900B8137
:101B50007808120693D083D082780812058F501A25
:101B6000121C39121C4C12058F5006121C4C120606
:101B7000A29007B6121C451240CD9007B8E0700243
:101B8000A3E09007BA6030E07002A3E0601E900707
:101B9000B81228BFC082C0839007BA121C4F120629
:101BA00093D083D082780812058F50129007B81214
:101BB0001C451240CD8007E07002A3E0607512283A
:101BC000BCC082C083900B817808120693D083D06A
:101BD00082780812058F505B9007BA121C4F1206CC
:101BE00093A2AFE492E0FEC2AF9007C2780812065B
:101BF000A2121F647808790C1206645008740290CF
:101C000007C6F0801C900AC8780812057A70047420
:101C100003800274059007C6F09007BE780812068C
:101C200093AA08AB09AC0AAD0B123285EEA2E09282
:101C3000AF8003121F420207B9121F148A088B09D2
:101C40008C0A8D0B22123B789007BA229007B612AD
:101C500028C378082274F112027D8A088B098C0A45
:101C60008D0B740F1206BE804D8A828B83A3A378DE
:101C70000812061A9007BA124448EA687002EB6923
:101C800070308A828B83A3A3C082C083900AC878F5
:101C90000C120693D083D082780C12058F501390CB
:101CA0000AC8780C1206938A828B83A3A3780C123D
:101CB00006A28A828B8312157FEA7001EB70AA025A
:101CC00007B974F112027DEAFEEBFFA2AFE492E0E5
:101CD000F50CC2AFECFAEDFB8C828D838008AA0E66
:101CE000AB0F8A828B831214FFE50E7002E50F6042
:101CF000228E828F83A3A3C082C083850E82850F2C
:101D000083A3A37808120693D083D08278081205A3
:101D10008F50CB8A828B83EEF0A3EF12387AE50ED8
:101D2000F0A3E50F121D3D121E09687002EF6970E5
:101D300003121B2DE50CA2E092AF0207B9F08C82D2
:101D40008D8322EEFAEFFB121CC20207B9121E7538
:101D50007808790C2274F112027DEAFEEBFF740F11
:101D60001206BE7808120693121D4D1205F48E82DB
:101D70008F83A3A378081206A27CB67D0780C47463
:101D8000F812027DECF8EDF98C828D838004A88234
:101D9000A983123E968C828D83E5827002E5836072
:101DA00014EA65827003EB658370E312157F121DE0
:101DB000C579018002790002158B1238532422F86C
:101DC000A3E03400F988828983EAF0A3EBF022745F
:101DD000F812027DEAFEEBFFA2AFE492E0F508C242
:101DE000AF7CB67D07121D7FE9700B7CB87D07EED6
:101DF000FAEFFB121D7F9007BA121E09687002EFFE
:101E0000697003121B2D022AF2121E0D22123B7C56
:101E1000EE2274F112027D9007B6E07002A3E0702A
:101E20000A9007B8E07002A3E0603BE5A8FEC2AFED
:101E30009007C27808120693121E71EEA2E792AFC5
:101E4000900ACC780C1206077808790C12066450B8
:101E5000117808790C1205B9AA08AB09AC0AAD0BC8
:101E6000800C7A0180027A007B007C007D000207F2
:101E7000B9121E7522121F148A0C8B0D8C0E8D0F39
:101E800022C082C0839007BDE06401700479FE80A7
:101E90000279FF021ABD121E9A22121E9E22F0859E
:101EA0001882851983221204E9021ABD74F5120200
:101EB0007D74019007C6F0900AC87808120693AAAC
:101EC00008AB09AC0AAD0B123233900BA57808129F
:101ED0000693AA08AB09AC0AAD0B121EEF75A1EF71
:101EE000439401E594A2E250FA43A7100207247438
:101EF000F512027D8A088B098C0A8D0BE5A8FEC2BB
:101F0000AF9007BE78081206A2123285EEA2E792C1
:101F1000AF02072474F112027DE5A8FEC2AF1233AE
:101F20009EEEA2E792AF9007BE780C120693780C53
:101F3000790812066440087A007B007C007D00026C
:101F400007B974F512027DE5A8FEC2AF74019007CF
:101F5000C6F09007BE7808120693AA08AB09AC0A2F
:101F6000AD0B80A51232078A0C8B0D8C0E8D0F22C3
:101F70007F0C02038C74F112027DA2AFE492E0F5B3
:101F800008C2AF9007C6E0F509A2E040030220595D
:101F9000900AC8780C120693AA0CAB0DAC0EAD0FCC
:101FA000123233A2AFE492E0F50AC2AF9007B81242
:101FB00021049007B61203FA900B81780C12069355
:101FC000780C120653AA0CAB0DAC0EAD0F121C55BB
:101FD00074021204E980378E828F83A3A3C082C06B
:101FE00083900B81780C120693D083D082780C12E8
:101FF000058F4013900B81780C1206938E828F838D
:10200000A3A3780C1205CD8E828F83122104EE706B
:1020100001EF70C3900B81C082900B85780C120683
:102020009375830BD082780C12057A6023900B8510
:10203000780C120693900B81780C1206A2900B81FB
:10204000780C120693AA0CAB0DAC0EAD0F121EEF5E
:10205000121B2DE50AA2E092AFE509A2E1506B74D4
:10206000019007C6F09007BE780C120693AA0CAB3D
:102070000DAC0EAD0F123285E508A2E092AF9007CD
:10208000BAE07002A3E060679007BAE07002A3E0D4
:10209000605D121C391228BC780C120693780C79FA
:1020A0000812066440499007BA1207F2FAEFFB12D1
:1020B00020F2A3A3A3A3E0F98E828F83A3A3A3A3FB
:1020C000A3A31220FE1206C880BE7405650970190C
:1020D00074029007C6F09007C2780C120693AA0CFF
:1020E000AB0DAC0EAD0F123285E508A2E092AF0247
:1020F00007B9121DCF8E828F83A3A3A3A322120B35
:10210000B722A3A3E0FEA3E0FF22C082C083123067
:10211000717C00ECC333F8E433F9E8241CF582E960
:10212000349BF583E493FA740193FB120740121D6C
:10213000C90CECC3941040DB740B9007C9F09007F6
:10214000C8F074329007CAF09007C7F0E49007DF38
:10215000F09007DEF09007CCF09007DAF09007D00F
:10216000F0A3F09007CB1223981227649007DBF0BE
:102170009007DCF09007DDF09007E0F09007E7F0C3
:10218000121EAC021ABD74F355B44404F5B4A9BDD3
:1021900022C082C083906180E0FAE96004D2F080BE
:1021A00002C2F0A2F0E492E0C333C0E074FD5AFA38
:1021B000D0E04A021ABC74F812027DE9FE9078035E
:1021C000E064957006785C799B80047840799B8800
:1021D000828983E493C39EA2D265D0334013A3E4E3
:1021E00093FAEEC39AA2D265D033500888828983CD
:1021F000A3E493FEE5A8FCC2AF88828983E493C37D
:102200009E2402FAE82AF582E9120774939007CA1D
:1022100012221912222002158BF0ECA2E792AF22B3
:10222000C082C083A2AFE492E0FBC2AF9007CAE0D5
:10223000FA9007C7E06A601A9007CDE07014900723
:10224000E0E0A2E7400C9007CAE09007C7F0906179
:1022500090F0EB8001EAA2E092AF021ABD74F8128E
:10226000027DE9FEA2AFE492E0FFC2AFEE9007C9A3
:10227000F09007E0E0700312227EEF022AF4C082A1
:10228000C083A2AFE492E0FBC2AF9007C9E0FA902E
:1022900007C8E06A60239007C9E09007C8F0EBA286
:1022A000E092AF122B4575F005E0A424D490618F25
:1022B000F0122322122AD98005EBA2E092AF021A73
:1022C000BDC082C083E49007CCF0122BDA021ABCA6
:1022D000C082C08353A7FE9007E9E024B7F9122219
:1022E000E4021ABDE9FCC394AFA2D265D033500416
:1022F0007CAF800DECC3940BA2D265D03340027C3E
:102300000AECF83395E0F9745128F8E439F9E875E6
:10231000F0FFA4F8AAF075F0FFE9A42AF97A5B02AD
:10232000085FC082C08374019007DCF09007DBE097
:10233000700812233DE49007DCF0021ABDC082C091
:10234000839061A4E0C2E0F07405906194F075E1BF
:10235000ED75E1EDE5A8C2AF759B0075E9FBA2E75D
:1023600092AF9007D0E07002A3E060077AD07B07BD
:102370001212859007D0E4F0A3122398F09007CBB7
:10238000E070069007CDE0600CE49007CBF090077A
:10239000CDF01229CF021ABD12239C22F09007CE55
:1023A00074A7F0A374232274F512027D74FE120543
:1023B0004E74819007CBF09007DEE0600D90619342
:1023C000E0A2E74010E0A2E6400BE49007CBF01259
:1023D00029CF02272A9061E4E070179061A4E0A25F
:1023E000E4500FE0C2E4F0E0A2E35003122FFE122B
:1023F0002E0D12275E9007CCE09007D9F079047A71
:10240000D27B0712354B9007D2E0547F24FD900712
:10241000D6F09007E8E070209007D6E0C3947D5096
:102420000B9007D3E05407C39404400C75E1ED759D
:10243000E1ED1229A702272A9007D3E0540764028E
:10244000600302250A9007DAE0600302250A790298
:10245000851882851983AA82AB8312354BA2AFE41B
:1024600092E0FFC2AF9007E0E064866003022502BD
:10247000851882851983E024B7FE74011206BEE038
:10248000547FF508EEF91222E4E9C0E0900738E045
:10249000241412381BD0E0120CD3123819E508129C
:1024A0000CD32416122973F0EFA2E092AF7401123C
:1024B00006BEE0A2E750469007D3E05410FE900716
:1024C000D5E0FFA2AFE492E0F508C2AF9007E0E0EC
:1024D000648670257487F0122FEAE508A2E092AFB7
:1024E0009007E5E06F700EEE6007791B122E7A8080
:1024F00016790080F779E980F3E5088006122E4B03
:102500008005EFA2E092AF0224329007E0E06486FB
:102510007003122E4B9007D9E060249007DAE07028
:102520001E9007D9E0640170030225DEE0640260BA
:10253000030225C99007D3E0540760030225DE900B
:1025400007D4E0FA1313543F5403F50BEAC41313F2
:102550005403F50A9007E8E070127401650A7003ED
:1025600002242C7401650B700302242C850A0812C6
:10257000272FC0E0850B0812272FFAD0E02AFEE5AE
:102580000A600A9007D3E0A2E650021E1E9007D60A
:10259000E0FA8E087402250812518D4041E0C39E76
:1025A00024FE9007D8F0900737E0C394025035908E
:1025B00007D8E0F8743228FAE43400FB127E0F8A60
:1025C000088B09A808A909801FE06403600302259D
:1025D0003F9007D3E054076403700302253F12299C
:1025E000F802272A780079009007D0122993700208
:1025F000A3E0700575E1E880E57F009007DAE07000
:102600000A9007D3E054209007CDF09007CDE0600A
:1026100068A2AFE492E0F508C2AF9007D3E0540798
:1026200064037039900755E054026019900735E053
:102630007021900738E07002A3E06009900738E04D
:10264000120CCB400E9007BCE06012121E81E964B0
:10265000FE700A7F0490618AE0D2E2800690618A6F
:10266000E0C2E2122BD17591FEA2E792AF9061A475
:1026700012444FE508A2E092AF9007D0E01229780B
:102680001240CB9007D8E0C0E09007D0122743A3B8
:10269000D0E0122997241A12381BE50A1229972430
:1026A0002312381BE50BF01230569007D0E024249B
:1026B00012381B78081206A21231EC9007D0E024E1
:1026C00028121DBF9007D3E05407C0E09007D01236
:1026D0003062D0E0F09007D5E0C0E09007D0E02471
:1026E0003112381BD0E0F09007D3E05478C0E0906E
:1026F00007D4E0C4540F5403FAD0E04A4FC0E0902E
:1027000007D012274CD0E0122997240F12273DEE54
:10271000700512283A80139007D7F014906194F056
:102720009007CE746BF0A37427F07402020721E5C2
:1027300008243CF582E4349BF583E4932212382983
:10274000E4F022122747221228C7A3221227502280
:102750001227542212097BA3A3A3A3A3A32290614F
:10276000A4E0C2E0F0E49007CDF02274F812027DFC
:1027700074EC12054E122A5BAC82AD839007D41222
:10278000078CFE60659007D0E0242C1228B58518D0
:1027900082851983E0FC74011206BEE0FBEC88829E
:1027A0008983123E59FA9007D0E0242A121DBF7483
:1027B000036E701674021206BEAC82AD839007D011
:1027C000E0241B123E55740A801974021206BEE002
:1027D000FA74031206BEE0FB9007D0E0241B121D22
:1027E000BF74041206BEAC82AD839007D4E0C4135C
:1027F000135403FE603012298BA2E6401112282EDA
:10280000242A121DBFEC24020C0CED3400FD7403CD
:102810006E700B9007D0E02412123E5580081228EB
:102820002E2412121DBF12283A7414020F538C82E8
:102830008D831215839007D0E0229007CE7479F033
:10284000A37428F012284822C082C0839007D8E0E1
:1028500070117401906194F09007CE74CEF0A3745F
:10286000288013C394105003E0800274109007D79F
:10287000F0E014906194021ABCC082C0839007D724
:10288000E0F99007D01228BF12157F12354B900740
:10289000D0E024021228B59007D71207A0125AB927
:1028A000121DC59007D7E0FA9007D8E0C39AF0123E
:1028B0002848021ABDF8A3E03400F9229007BA12A2
:1028C00028C3221228C722E012097CA3A32274F78E
:1028D00012027D7F0079027AD27B0712354B900776
:1028E000D3E05480F50870089007DAE06402706D58
:1028F00074029007CBF0122AFB9007D2E024B7FEB7
:102900009007D3E0547FF5099007BCE06010900772
:10291000BDE07008906163E0A2E650027F04EF45DD
:1029200008FA12298B4AF0EEF91222E4E9C0E0908D
:1029300007D0125ACCD0E0122997243012297312F2
:102940002997242F12381BE509122997122978A3F9
:10295000A3122993FAA3E0FB120867800A12275EEC
:102960007AD07B071212859007D0E4F0A3F0122AE8
:102970006E802F123829EE222432F8A3E03400F9B9
:102980009007D0122CF9F5838A82229007D0122763
:1029900050E022E8F0A3E9F09007D0E022740212A0
:1029A00004E97F0202038CC082C083906193E0A29D
:1029B000E6500BE0A2E7400675E1ED75E1EDE4902D
:1029C00007CBF09007CDE070031229CF021ABDC0EB
:1029D00082C083122AFB122220A2AFE492E0FAC244
:1029E000AF9007E0E0640270077483122CFE80054C
:1029F000EAA2E092AF021ABDC082C0839007D6E07F
:102A000070051229A7801EC394105003E080027441
:102A1000109007D7F0E014906194F09007CE7428DE
:102A2000F0A3742AF0021ABDC082C08374F01205AC
:102A30004E122A5B9007D7E0FA9007D6E0C39AF0CF
:102A40006011C39410500FE09007D7F01490619478
:102A5000F08003122A6E7410021EA69007D7E0F9C8
:102A6000851882851983AA82AB8312354B2274059F
:102A700090619412239CF01229A72274F812027D0F
:102A8000E9FEE5A8FFC2AF9007DFE04EF0122B2A67
:102A9000EF0207D1A2E702225874F812027DE9FE84
:102AA000E5A8FBC2AF74FF6EFA9007DFE05AF0EBC7
:102AB000A2E792AF122AFB02158BC082C083E5A861
:102AC000FAC2AFE49007DFF09007DE122B6CEAA2A7
:102AD000E792AF122322021ABD74F812027DA2AF50
:102AE000E492E0FEC2AF9007DFE06003122B2AEE13
:102AF0008002E508A2E092AF02158B74F812027D05
:102B0000A2AFE492E0FEC2AF9007DFE07019900739
:102B1000CBE0A2E740119007CDE0700B9007E0E01A
:102B2000A2E74003122B45EE80CAC082C083A2AF49
:102B3000E492E0FAC2AF9007DEE070067401F0752F
:102B4000E1E3022255C082C083A2AFE492E0FAC260
:102B5000AF9007DEE06012E4122B6CE5A8C2AF75FF
:102B60009B0075E9FBA2E792AF022255F075E1EFF9
:102B700075E1ED75E1ED22C082C083900B89E060C4
:102B80004D439401E594A2E250FAE064027037905C
:102B900061A512544A9007E8E0C394125013122B17
:102BA000DAF090079AE0906174F090079BE0122BA6
:102BB000EA7405906194122BD175E9FBA2E792AFFC
:102BC0009061A312544AE4900B89F0122AD9021A98
:102BD000BDF0E5A8C2AF759B0022900796E090611A
:102BE00072F0900797E090617322906175F0790818
:102BF0007CAA7D077A6A7B6112351E2274F8120264
:102C00007DE9FE74019007E0F0900B89E06008799F
:102C10001D122E7A022CE7EE9007E1F06402701A82
:102C2000122D6B75E1D975E10175E10975E1BA7590
:102C3000E10175E1C575E1D2803CE49007E4120C36
:102C4000D3240EF8120B9EA2E650059007B3800322
:102C5000900795E09007E2F09007E1E0701590078B
:102C60007CE0600F9007E2E0C394034004740280AC
:102C700001E0F0122D059007E7E07045900738124B
:102C80005BD9FAA3E0F5838A82E054209007E6122C
:102C90003E5CFAA3E0F5838A82A3A3E09007E512E5
:102CA0002CF1F5838A82A312079D1207638882891B
:102CB0008374022AF075E1EE0AE0F5D9A31AEA70EE
:102CC000F8A2AFE492E0FAC2AF9007CBE0701090A8
:102CD00007CDE0700A74839007E0122CFE80087420
:102CE000029007E0122CEA02158BF0EAA2E092AF04
:102CF00022F0900738122CF922E0FAA3E022122CDD
:102D0000EA122D722274F712027D7508017509000E
:102D10009007E2E07808120640E50814C0E01221AE
:102D200086E9FAD0E05A9007E3F09007E1E07011ED
:102D3000122D6B75E18175E11075E1D275E181802D
:102D40000C122D6B75E1B875E18175E1B875E11074
:102D500075E1D275E1D975E10175E10975E1BA75E1
:102D6000E10175E1C575E1D20229A2122EC175E11A
:102D7000BC2274F812027D12275E9007E1E0640223
:102D8000704D122F3EA2AFE492E0FEC2AF75C300B9
:102D9000E5A2E5A4FF740F5FFA740FC39AF50890DB
:102DA00061E2F0122ABA74019007DEF075E1E17574
:102DB000C300E5A2E5A46F600FE508C394024008D4
:102DC00074FF25089061E2F0EEA2E092AF8003125A
:102DD0002DD502158BC082C0839007E1E07028904A
:102DE000073AE07002A3E0600D90073A1220FE124D
:102DF00006C8E9FA80027A009007E3E0C39A400728
:102E0000791C122E7A8003122EEF021ABD74F8126A
:102E1000027DA2AFE492E0FEC2AF9007E0E06483DF
:102E200070219007E6E0701274859007E0F0EEA242
:102E3000E092AF7900122E7A800E74869007E0F04F
:102E4000122F4AEEA2E092AF02158B74F812027DA7
:102E5000A2AFE492E0FEC2AF9007E0E06486701299
:102E60007487F0122FEAEEA2E092AF79E9122E7A7F
:102E70008005EEA2E092AF02158B74F812027DE994
:102E8000FEE49007E7F09007E0F0122AFB12222000
:102E900012227EEEF9120A6802158BC008E5A8FA24
:102EA000C2AF75C300E5A2F508E5A3FBEAA2E7926D
:102EB000AFEBF9A8087A007B0212012CE8F9D008E0
:102EC00022C082C083759C0174019061E4F075E1B9
:102ED000E275E1FFE5A8C2AF759B007591EFA2E72F
:102EE00092AFE5A8C2AF759B007591F7022A94C016
:102EF00082C0839007E3E09061E2F0E06003E014B9
:102F0000F075A1FDA2AFE492E0FAC2AF75C300E58F
:102F1000A2FBE5A3FC9007E8E0C394125008EB7015
:102F200005EC70027B0175C3038BA28CA3EAA2E0BF
:102F300092AF122F3E122B2A75E1E1021ABD906169
:102F4000A4E0D2E4F0E0D2E3F02274F712027D12A2
:102F50002E9BE9FF900779E02F24ECFA75F014849A
:102F6000FE75F014A4CA9AFA0E74029061E4F0EEB1
:102F70009061E2F075A1FDA2AFE492E0FBC2AF75F3
:102F8000C3038A0875090074097808120640F8A975
:102F9000099007E8E0C394125009E47001E9700356
:102FA000087900E8F5A2E9F5A3EBA2E092AF75E19C
:102FB000E275E1FFE5A8C2AF759B007591EFA2E74E
:102FC00092AF75E1BC75E1B875E1D29061A4E0D231
:102FD000E4F075E1E1122E9BE9C39F500A9061E293
:102FE000E06E7003E014F00229A2C082C0839061F9
:102FF000A4E0C2E4F075E1E275E1FF021ABD74F1EC
:1030000012027D9061A4E0C2E3F0E5A8FEC2AF1217
:103010003056EEA2E792AF9007BE780C1206937876
:103020000C7908120664400A900AC8780C120693BC
:1030300080088A0C8B0D8C0E8D0F90073812306231
:10304000780C1206A21231EC900738123068A3A354
:10305000121DC90207B912321E8A088B098C0A8D0B
:103060000B22122747A3A32212306C22122754A34B
:103070002274F712027D74F012054E74149061A947
:10308000F0743F9061ABF074F8906196F0748590A5
:1030900061A8F0745A9061ACF0E49061AEF07415E0
:1030A0009061B2F0E4906182F074109061B5F074B8
:1030B0000E9061B6F074039061B7F074099061FAF4
:1030C000F074FF9061E5F0439A01D2A843A901533F
:1030D000B9FE906249E09007E8F0E5A8C2AF75C379
:1030E0000275A20075A328A2E792AF439401E5946C
:1030F000A2E250FA439408D2BA7448906189F0125F
:103100002B2A906199E0A2E050F87A007C007B08BD
:103110001231E2C0E0ECC333FCD0E04CFC1BEB709E
:10312000EF8A08E50824F0F582E43407F583ECF033
:103130000AEAC3941040D5780079007C10E8C333C4
:10314000F8E933F91231E248F81CEC70F0E870014C
:10315000E9600A7480687003740369700478BE794A
:10316000BAE8F5BCE9F5BC9007EEE07002A3E060B8
:10317000467A007C007B081231E2C0E0ECC333FCED
:10318000D0E04CFC1BEB70EF8A0885188285198310
:10319000E5822508F582E5831207E2ECF00AEAC32E
:1031A000941040CF851882851983AA82AB8390073B
:1031B000EE1220FE1206C8122B457440906189F071
:1031C000E0D2E5F0E4906164F0906165F0906166B2
:1031D000F0906167F0906168F0906169F07410029E
:1031E000299F9061A7E0A2E0E492E022C008E5A850
:1031F000FAC2AF75C301E5A3FBE5A2F508EAA2E7B1
:1032000092AFAA08D0082274F512027D74FC120550
:103210004EE5A8FAC2AF75C300E5A20206E974F54F
:1032200012027D74FC12054EE5A8FAC2AF75C310F8
:103230000206E974F512027D74FC12054E1232D4B6
:103240009007EA1233981206078518828519837849
:10325000081205369007EA78081206A2E5A8FAC215
:10326000AF75C300851882851983E0F5A474011237
:1032700006BEE0F5A574021206BEE0F5A6EAA2E7D6
:1032800092AF02071FC082C08374FC12054E123237
:10329000D47A00A2AFE492E0FBC2AFE5A7A2E4506B
:1032A000040A53A7EF75C330851882851983E0F5AA
:1032B000A474011206BEE0F5A574021206BEE0F584
:1032C000A675A1EFEA600343A710EBA2E092AF74EA
:1032D00004021EA6851882851983EAF0A3EBF0A3E9
:1032E000ECF0A3EDF022C0E074F21202DDA2AFE434
:1032F00092E0FED2AFE5A7FAE5A1FBEA5B541060CD
:1033000008121F7575A1EF802AEAA2E0C0D0EBA2D7
:10331000E092F012062D158182F05017906198E02E
:10332000FA9007E9E0C39AA2D265D0335002EAF0DE
:1033300075A1FE751A00EEA2E092AF7F0102033C78
:1033400074F512027D74FC12054EE5A7A2E4504507
:10335000E5A1A2E4403FE5A8FAC2AF75C330E5A4F9
:10336000851882851983F0E5A5C0E074011206BEB8
:10337000D0E0F0E5A6C0E074021206BED0E0F07422
:10338000031206BE12072912339812067450061251
:103390001F7575A1EF02071F12339E7808221232A3
:1033A000078A088B098C0A8D0B2274F512027D7432
:1033B000FE12054EE5A8FAC2AF75C300E5A2E5A46A
:1033C000851882851983F0E5A5C0E074011206BE58
:1033D000D0E012072AC082C0839007EA780812065C
:1033E00093D083D082E02508FAA3E03509FB0227B9
:1033F0002AC0E074F21202DDA2AFE492E0FED2AF86
:103400009061A4E0FA759B00E5915A540860097533
:1034100091F7122FFE0234AAE5915A5410606B7591
:1034200091EFE0C2E4F09061E4E07005122E0D80AF
:1034300079E06401704F74049007E0F0122AFB9069
:1034400007E4E004F0900794E0C0E09007E4E0FABD
:10345000D0E0C39A500779E1122E7A804D9007E2AE
:103460001234E99007A0123D1450079007E2E004DF
:103470008001E09007E2F0122D0574839007E0F0E0
:10348000122DD58025122E4B8020EAA2E0C0D0E577
:1034900091A2E092F012062D158182F0500C1227B5
:1034A000619007CBE070031229CF9061A3E0FAE5A9
:1034B000E95A540460309007DCE0701F74019007F3
:1034C000DBF09007CE1220FE1206C8E49007DBF076
:1034D0009007DCE0600512233DE4F075E9FB9061A4
:1034E00093E0A2E640D0023333E0F874012808E408
:1034F0003400F922C0E074F21202DDA2AFE492E0DF
:10350000FED2AF9061A5E0FAE5BF5A5404600C7595
:10351000BFFB9007DDE004F012232202333374F87E
:1035200012027D8019198C828D83E08A828B83F050
:10353000A3AA82AB838C828D83A3AC82AD83E97016
:10354000E402158BF08A828B83A322C082C083E5BC
:10355000D98A828B83F0A3AA82AB8319E970F00227
:103560001ABD74F512027DEAFEEBFF8E828F83A3F3
:10357000A3A3A3A3E0A2E65005750808800375087D
:10358000068E828F83A3A3A3A3E02508F98E828FE2
:1035900083A3A3A3A3A3E0A2E35004740429F97BAB
:1035A000007A00120E5A8A0A8B0BA80AA90BE8703F
:1035B00001E9700479BE801D8E828F831240C7AAF4
:1035C0000888828983A3A3E02A1228B58E828F837C
:1035D0001240C5790002072474F112027DEAFEEB65
:1035E000FFE4900A521241ABF0A3F0900AB7E064F6
:1035F000016014E06402600F74B4900A52F0123853
:103600005C1244810207B9900B0478081206937586
:10361000830875828E780812057A700474B680DA91
:103620008E828F83A3A3A3A3A3E05409640960112E
:103630008E828F83A3A3A3A3A3A3E07002A3E07051
:103640000474E880B58E828F83A3A3A3A3A3E0A212
:10365000E040277A8F7B0C8E828F83E0F9124571D0
:10366000E9600474B28093A3A3A3A3A3E0A2E350F0
:103670000912382D700474BD8080900A52E06003F6
:103680000235FE8E828F83E0900C17123880F8A3EB
:10369000E0F9900C8D123B5E2405123812541590FF
:1036A0000AC2123E5CA2E0900C8DE05023123C3224
:1036B000900C8DE0242212381B74FFF0A3F012410D
:1036C00046F0900871E0900AC3F0E4900C18803C3A
:1036D000242D12381B7402123885A2E140051241D4
:1036E0003A400812381F124182801112381F7402AA
:1036F0001241ABE0240E12381B121DBA12413A508F
:103700000512383D8003124146124173123885A2DA
:10371000E25006900AB612544A900C8DE0121AFF3D
:1037200074018508828509831238855424642470C5
:1037300035900871E012042700030F45371449370C
:10374000194D375137740180097402800574038064
:1037500001E4C4333354C04401850882850983F0F1
:10376000900871E08001E4900C18123885A2E650B0
:1037700029850882850983E044031215217002A37C
:10378000E0700590089380068E828F83A3A3124475
:10379000488508828509831240C785088285098388
:1037A000E04428F0124BE08A0C8B0D8C0E8D0FA399
:1037B000780C1206A28E828F83A3E0850882850989
:1037C00083A3A3A3A3A3123885A2E3503A8E828FCA
:1037D00083A3A3A3A3A3A3A3A31203FA8E828F831D
:1037E000A3A3A3A3E0F9900C8F123E96AA08AB09FD
:1037F000124C2B74021204E9E9700C12385CF0745C
:10380000BE900A520236017403900AB71257890219
:103810003604F8EF125852E022241512382922906B
:103820000C8DE0242A1238292212584B22900C8F3A
:10383000E0241112383722F812584CE022900C8FF5
:10384000E0240C123829123853242B123829EAF0BC
:10385000A3EB22122CF9FB900C8DE0228E828F8339
:10386000A3A3A3A3A3A312580E7402900A51123863
:1038700075900A532212387AE022F08E828F8322CA
:103880001207F9E02212388BA3E02212388F22129D
:10389000387AA3A3A3A322C082C083900ABBE0709E
:1038A00025900AB6E0A2E2501D900C18E07004903A
:1038B0000AC3E0FB1238DE12409AE06B600812384F
:1038C000DE12409CEBF0900AB6E0C2E21241257491
:1038D00002900A51F0900C17124475021ABD900C18
:1038E00017E075F02BA42274F612027D900AB7E05F
:1038F0006401703E8A088B09750A0078081204B7C3
:103900007C1A7D007A007B081259C91204E9E49000
:10391000086CF090081AF090086BF07404900AB7E5
:10392000F0740F900AC3F012548B123CD6123B94E1
:1039300080137406900C19F074B4900C1AF0E49093
:103940000C1B1239AE02456CC082C083900AB7E0EE
:1039500064047028123B821239B790086CE0A2E22E
:103960005005D2E3F080157401900AB7F0741190FD
:103970000C19123CD17A197B0C126176021ABDC067
:1039800082C08390086CE0A2E25020C2E2F0A2E381
:10399000500D123CCC7411900C191239AE800C9061
:1039A0000ABBE060061239B7123C71021ABDF07A08
:1039B000197B0C12617622900AB8E054FB124DD9A3
:1039C0007A04124DE22274F612027DEAFEEBFF90B9
:1039D0000AB7E064046003023B5B121B156003023C
:1039E0003B5B90081AE0C3940A4003023B5B750AF4
:1039F00000802312080C850A0875090074037808F2
:103A0000120640E508241BFAE5093408120786600F
:103A100003023B5B050AE0FAE50AC39A40D5740548
:103A2000900A51F0900AC3E0900A53123B69900A41
:103A300054123B5E12080D7A567B0A1296898E82CA
:103A40008F8312150E2411F582E9123E4F50047C2B
:103A50000F80027C00F50A8E828F83A3A3A3A3E0CC
:103A6000F5087406550AC3132CFCE43400FD747089
:103A7000550AC430E30244F0FA3395E0FBEA2CFA2D
:103A8000EB3DFB74132AFAE43BFBEA65087001EB9B
:103A90006003023B5B88828983A3A3A3A3A3A3E063
:103AA000900A52F0E82407FCE93400FD7A5E7B0AB4
:103AB000124B158A828B83E0900A82F07B00800C87
:103AC0000A900810E0FCEAC39C40170B900A68E0DB
:103AD0005470C430E30244F0FAEBC39A50247A00E5
:103AE00080DF8B08E508247BF582E4340AF583E067
:103AF000FC8A08E5082411F582E43408F583E06CBB
:103B000070BE900810E0600F900A68E05470C430F6
:103B1000E30244F06B604412080C90081A121AF881
:103B200074037808120640E508241BFAE5093408F6
:103B3000FB129689E004124481E0640A6009E0FA0D
:103B400090087BE06A7014123B8290086C12444F1C
:103B5000900878E060051490086BF002456C123B09
:103B600063EE22E8F0A3E9F022F0EE242A123B7182
:103B700022F582EF3400F583123B7C22E0F8A3E0CB
:103B8000F922900AB8E0F0A3E054FBF07A007B043D
:103B9000124DE42274F712027D900804E0A2E05076
:103BA00004780F80027800FC7B007A0074705CC49B
:103BB000C0E074065CC31328FCD0E02C2412F91278
:103BC00057947002A3E0700A123CCC79BE123C39C3
:103BD000805D900C8DE0123C32900802121DBA906C
:103BE000080012384612417E74018E828F83A3A38F
:103BF000A3A3A3F07C047D08EE2406FAEF3400FBB7
:103C0000124A1F8A088B09A808A90990080F125B9D
:103C1000D3F0900818123E967A04123E887411125E
:103C200041A8E4F0A3F090086CE0D2E212578902B8
:103C300029A212583B7402F02274F812027DE9FEA8
:103C40007406900A51F090087BE0C0E090081AE0FA
:103C5000FAD0E0C39A500474B78008E0700474B8D6
:103C60008001EE900A52F090081AE0900A53021573
:103C700088C082C083900AC3E0F91249EAE9F0647F
:103C80000F703590086BE004F090086C123CC79000
:103C9000086BE0C0E0900878E0FAD0E0C39A400DED
:103CA000123CCC900ABBE0F9123C39801790086CAA
:103CB000E0A2E0500F123CD67AC37B0A79E11218D9
:103CC00046123B94021ABDE0D2E1F0227401900A40
:103CD000B7F01254A622C082C08390086B1234E958
:103CE000900878123D14501F900873E07002A3E012
:103CF0006015900873123E967A007B04123E8A90FB
:103D0000086CE0C2E0800690086CE0D2E0F0E0C20F
:103D1000E1021ABCE0FAE89AE99400C365D03322C4
:103D200074F712027DEAFEEBFF900AB7E0640160CF
:103D300003023E338E828F83A3AA82AB831249870C
:103D4000EA7001EB70211249CFE964FF7019740920
:103D5000900A51F074FF900A53F074B0900A52F038
:103D60007A517B0A023E49EE240BF582EF123E4F58
:103D70005004780F80027800FC7B007A0074705C3D
:103D8000C4C0E074065CC31328FCD0E02C2414F9F2
:103D90001257947002A3E07003023E4C1241587413
:103DA00003121629AC82AD83900C8DE02422123EC2
:103DB000558E828F83A3A3A3121579900C8DE024D6
:103DC0002B12381B12579A121AFFAA08FB124A0428
:103DD000850882850983A3A3A3A3A3A374FEF0A3EC
:103DE00074FFF07403850882850983A3A3A3A3A3AA
:103DF000F0EE240BFCEF3400FDE5082408FAE50999
:103E00003400FB124A1FEE24161238128A828B836A
:103E1000123E5C900C76F07405900AB712387590DB
:103E20000AC3F012548B74241241A8E4F0A3125771
:103E30008980197409900C19F074FF900C1BF074B0
:103E4000B4900C1AF07A197B0C1261760229A21236
:103E500007CBA2E02212419E22F0A3EBF0888289D8
:103E600083E022C082C083900ABBE0700D90087C82
:103E7000123E967A08123E88800B7401900AB7129F
:103E80004468124476021ABD7B00900AB5E0F9122C
:103E9000874E221240B5E0FCA3E0FD2274F112022D
:103EA0007D8A0C8B0D900AB7E06405600302409098
:103EB000EA241AF582EB121B1B60030240908A82EF
:103EC0008B83A3A31214C3E50A2415F582E50B1214
:103ED0003E4F50047A0F80027A00FE850C828B835D
:103EE000A3A3A3A3E0FC74065EC3132AFAE4340080
:103EF000FB74705EC430E30244F0F83395E0F9E8F7
:103F00002AF8E93BF9741628F8E439F9E86C7001ED
:103F1000E96003024090900AB8E054F7124DD97A54
:103F200008124DDE7409900A511240D1E0900A52F5
:103F3000F0E50A240BFCE50B3400FD7A547B0A12F1
:103F40004B15E06003024086E50C2412FAE50D34BF
:103F500000FB1249878A828B83E5827002E58360C9
:103F600005E0F508800B1249CFE9F50812487DE914
:103F7000F0E508900A53F0900A54E0A2E0502E8534
:103F80000A82850B83E0C4131354031203C4010295
:103F9000AD3F983F9F3FA63F124093740F80191288
:103FA0004093741480121240937419800B900AC3CA
:103FB000E0C0E0124093D0E0F0E875F02BA424A319
:103FC000FEE93408FFE50C242AF582E50D1251A123
:103FD0001240CDE50C2412FCE50D3400FDEE240466
:103FE000FAEF3400FB129689850A82850B83A3A31E
:103FF000A3A3A31240BAE8F0A3E91240D1A3A3A35C
:10400000121E091207DD123B5E2424F50AEF34006C
:10401000F50B7C037D007900AA0AFB127DD3750C99
:104020006E750D0A750E00780C1204B7900A5E12B8
:104030004B0CAA0AAB0B1259C91204E9900A55128B
:104040001E0924221207DF1240CD900A54E0C0E07E
:10405000EE1240ACD0E0F0900AC8780C120693EE55
:1040600024271207DF780C1206A2EE2411F582EF46
:104070001240A67403900C8CF0A90812561D74FF10
:10408000900C77F0800A123CCC7A517B0A12617650
:104090000207B9A808E875F02BA4A9F024A6F582B8
:1040A000E93408F583221240B5E4F02224101240CE
:1040B000B222F582EF3400F58322A3A3123B788E5F
:1040C000828F83A322A3A3A3A3A3A3A3A3123B63CF
:1040D000221240DBA3A3A3A3A3A322F0850A828517
:1040E0000B8322C082C08374FF12054E79011295A2
:1040F000CD12411F740D900A51F0E4900A52F074F1
:1041000001851882851983F0AC82AD837A007983AA
:104110001246A27A517B0A1261767401021EA6121F
:10412000412DE0D2E0F07401900AB7F0227A8A7B48
:104130000B7952121846900AB622900C8FE0241088
:10414000123837A2E02212414A22900C8DE0242B33
:1041500012584B74FFF0A322900C8D121514242DCD
:10416000F582E91240B57403F0E8242AF582E912D9
:1041700040B5221241AB122747E0900AC3221258E1
:104180005A221241862274031241ABE02404FCA39C
:10419000E03400FD900C8DE0242212419E22FAA30F
:1041A000E03400FB12968922900AC2F0900C8F2214
:1041B000C082C08374FE12054E851882851983AAB9
:1041C00082AB8390086DE0F9124571E9700F851894
:1041D0008285198312421990086D12519B740190C7
:1041E0000AB7F0740E900A51F090086D12447502EF
:1041F0005AB474F812027D74FE12054EE9FE851859
:1042000082851983AA82AB83124571E97008124234
:1042100019EEF9124948020F59120BB774FFF02238
:1042200074F612027D74F812054EE9900AB5F0E4B6
:10423000900AB6F074019008A1F0747F9008A2F083
:10424000121AC212485BE4900892F090089CF09019
:10425000089D74FFF0A3F090089FF0A3121E96AC87
:1042600082AD837A087901127562E9702875088B2E
:1042700075090B750A0078081204B77C087D007474
:10428000031206BEA982AA837B00127D6374031207
:1042900004E9E9602F75080C750978750A0078083B
:1042A0001204B77C087D0074031206BEAA82AB8399
:1042B0001259C91204E9851882AC82AD837A087953
:1042C0000112743A124914740802456974F7120213
:1042D0007D74FE12054EEAFEEBFF74805FF9E47018
:1042E00001E9603D900AB51244541240CDE87001D6
:1042F000E96025851882851983120966640D700BA3
:10430000851882851983E0FA124DFC85188285197B
:1043100083AA82AB83121285EEFA74806FFB02448B
:1043200045900AB8EEF0A3EFF0900AB8E0A2E05092
:1043300003125B1FE054806003124D51E054026091
:1043400005E4900AC2F0900AB8E05404600B900AA9
:10435000B7E064047003123C71900AB9E05404F9A8
:10436000E47001E96021900AB7E0640470199008D4
:104370006C12444FA2E1500F123CD67AC37B0A79EB
:10438000E1121846123B94900AB8E0540860169067
:104390000AB7E06405700E7401124468900A53F085
:1043A00074B312447E900AB8E054206027900AB794
:1043B000E064016005E06402700F7A717B0879E1C6
:1043C00012184612412D12444F90086F123E967AF1
:1043D00040123E88900AB8E054406039900AB6E036
:1043E000A2E45031900AB7E064016005E064027015
:1043F0000B7A6E7B08124131E0C2E0F090086F1238
:104400004448758308758275E0C398FCA3E099FD64
:104410007A20123E88900AB9E05410F9E47001E95C
:10442000601F900C8CE06403600AE064046005E0A7
:104430006402700779B91259838006E07003740131
:10444000F07A007B0002299D123B7822906180E087
:10445000D2E0F022E0F9127EED8A088B09A808A9C3
:104460000985188285198322F01254A67409900ACE
:1044700051F074FF22E0900A53F0900ABBE0900ADA
:1044800052F07A517B0A1261762274F612027DE9AB
:10449000FEEAFFECFAEDFB74A02EC39410505F7C93
:1044A0009A7D9B74A02EF50A850A0875090074028E
:1044B0007808120640EC2508F582ED35091246977A
:1044C0007001E9604D850A087509007402780812C8
:1044D0000640EC2508FCED3509FDE493F508740170
:1044E00093F509750A0078081204B78C828D83A3AE
:1044F000A3E493FC7D001259C91204E9806774801B
:104500002EC3940950087CDA7D9B7480809779F4DF
:10451000805574686E7025EFC3940A501BEF75F0D8
:104520002BA424A3F508E5F03408F509750A0078F2
:10453000081204B77C2B80BC79F9802B74846E70D0
:104540000DEAFCEBFD7A0879011275628017746739
:104550006E70BB900AB6E0A2E4500474018001E4DE
:104560008A828B83F0790080031204E97F030203BF
:104570008CC082C083E9FD1251686D7017ED75F033
:104580002BA424A3F8E93408F98A828B831240CD46
:104590007900800279B2021ABD74F512027D74F8B6
:1045A00012054EE9FE12491479011216508518823F
:1045B000851983AC82AD837A087901127562AA826B
:1045C000AB8379E2121846900B08E0906196F07A7E
:1045D000A27B0879E5121846EE607C12485B7F00EA
:1045E0008F0875090074027808120640E508249DBA
:1045F000F582E509349BF583E49360398F087509EA
:104600000074027808120640E508249AF582E5094C
:10461000349B1246977001E9601B8F08750900747E
:10462000027808120640E508249AF8E509349B123E
:1046300048F112743A0FEFC3941040A47F00EFF9D1
:104640001249480FEFC3940A40F47C6E7D087A004B
:1046500079831246A2801B900BA9780812069390CA
:10466000088E780812061A7C8E7D087A0479061264
:10467000743AE4900AB6F0900AB7F07A717B087940
:10468000E112184679011295CD90089CE060031262
:10469000411F7408020721F583E493F8740193F92C
:1046A000E82274ED12027D890B8A0AECFEEDFF749C
:1046B000A0250BC39410400302479B75089A750907
:1046C0009B74A0250BF51285120C750D00740278F1
:1046D0000C120640E508250CF582E509350D124659
:1046E000977001E9604485120C750D007402780C16
:1046F000120640E508250CF510E509350DF5118E7B
:104700000C8F0D750E00780C1204B7851082851180
:1047100083A3A3E493FC7D00851082851183E49339
:10472000FA7401931259C81204E9A3A3A3E4936095
:104730003475130074027812120640E5082512F54C
:1047400010E5093513F511EEFCEFFD85108285119A
:1047500083A3A3E493FA851082851183A3A3A3E422
:1047600093F912743A7468650B704CE50AC3940AA5
:1047700050418E0C8F0D750E00780C1204B77C2BF7
:104780007D00E50A8CF0A424A3FAE5F03408125960
:10479000C81204E9A90A12494880567480250BC33F
:1047A0009409500B7508DA75099B74800246C37929
:1047B000F4804079F9803C7461650B700512547384
:1047C000802F7484650B701AEEFCEFFD7A08790176
:1047D00012743AE97008EEFAEFFB79E2801079BEC4
:1047E00080117488650B7009EEFAEFFB79E51218F9
:1047F000467900021F7074F712027DEAFEEBFF8E0D
:10480000828F83E01203C40C0158480F484C48EED5
:104810002403F8EF3400F9880889098882F58312A7
:10482000157F1212698E828F83A3E0900ABBF085F8
:104830000882850983124448900ABC1240CD7A014F
:104840007B00900AB5E0F912810F800CEA7001EB51
:104850006006900AB51211520229A2C082C083904C
:104860009B777C6F7D087423120451FBEB12487D0B
:1048700074FFF00BEBC3940A40F2021ABD75F02BE3
:10488000A424A3F582E5F03408F5832274F512021E
:104890007DEAFEEBFF8909750800804B85080A75E3
:1048A0000B007402780A120640124909A3A3A3E47C
:1048B00093603285080A750B007402780A1206406C
:1048C0001249091246997001E9601A85080A750BA8
:1048D000007402780A120640EE250AF8EF350B1232
:1048E00048F11275620508E508C3950940AE020754
:1048F00024F9E493FC740193FDA3A3E493FA888262
:104900008983A3A3A3E493F922EE250AF582EF3568
:104910000BF5832274F812027D79107A9A7B9B1230
:10492000488C79097ADA7B9B12488C750800E50877
:1049300012495F1275621249771275620508E5081F
:10494000C3940A40E902158B74F812027D8908E9C4
:1049500012495F12743A12497712743A02158B7534
:10496000F02BA424A3FEE5F03408FFEEFCEFFD7A63
:104970002774242508F922EE2427FCEF3400FD7A61
:1049800004742E2508F92274F812027DEAFEEBFF6A
:10499000750800A808E81251626024EEFCEFFDE8FB
:1049A00075F02BA424A7FAE934081207866010E5F5
:1049B0000875F02BA424A3FAE5F03408FB800D055C
:1049C00008E508C3940A40CB7A007B0002158BC02F
:1049D00082C0837900E912487DE064FF600909E93B
:1049E000C3940A40F079FF021ABDE9FA740F6A70A5
:1049F0000379142274146A700379192274196A7085
:104A000002790F2274F512027D8A828B83742AF058
:104A1000124BE08A088B098C0A8D0BA30206D37413
:104A2000F212027DEAFEEBFF8C088D09900892E0FD
:104A30008E828F83F09008931244488E828F831267
:104A400040CC750C95750D08750E00780C1204B7E6
:104A50007C077D00EE24030A0A0AEF124B031204BE
:104A6000E9850882850983125778A3A3A3A3F0EEF2
:104A7000240BFEEF3400FF850882850983E0A2E065
:104A8000501B750C7F750D08780C1204B77C0F1243
:104A900059C31204E9EE240FFEEF3400FF850882AB
:104AA000850983A3A982AA83890C8A0D780C120434
:104AB000B7850882850983124B0C1259C51204E987
:104AC000124BD7EE28FEEF3400FFE5082404F50C66
:104AD000E5093400F50D780C1204B774705AC4124D
:104AE00059C21204E9850882850983E05470C430F4
:104AF000E30244F0F83395E0F9EE28FAEF0207FFFD
:104B0000FAE50B3400FB127D1D740322E05406C34A
:104B100013FC7D002274F212027D8A0A8B0BECFEDC
:104B2000EDFF8E0C8F0D750E00780C1204B77C0B08
:104B30007D001259C91204E9EE240BF508EF125753
:104B4000738E828F83A3A3A3A3A3A3A3A3A3A3E092
:104B5000A2E0502085080C85090D780C1204B77C62
:104B60000F7D00E50A240B124B001204E9E508242E
:104B70000F12576FEE240AFEEF3400FF85080C85F4
:104B8000090D780C1204B78E828F83124B0CE50A44
:104B9000241A124B001204E9124BD7E508281257C9
:104BA0006F85080CF50D780C1204B774705AC4FCAC
:104BB0007D00E50A241D124B001204E98E828F83CA
:104BC000E05470C430E30244F0F83395E0F9E508AE
:104BD00028FAE5090207FFE0FA74065AC313F8221F
:104BE00074F112027D90088E780C120693900ACC14
:104BF000780812069390088E780812061A90088E8C
:104C0000780812069374FF5508F874035509F9E8FB
:104C10007001E9700B7C8E7D087A04790612743A73
:104C2000AA0CAB0DAC0EAD0F0207B974ED12027DEC
:104C3000EAFEEBFF8C128D13890874131206BEE096
:104C4000F510A3E0F5111254467A4B7B0C79E21271
:104C500017E4A385820A85830B780C120693125100
:104C6000AD8E828F83E0900C581240DB780C1206D8
:104C700093900C59780C1206A2E5122404FCE5135B
:104C80003400FD7A5D7B0C129689124D44AA0AFB12
:104C9000129507750C65750D0C780C1204BB780A1B
:104CA0001204BB750A0D750B00780A1204BB750A55
:104CB00058750B0C780A1204BB85080A750B00782E
:104CC0000A1204BBAC10AD117A4B7B0C790412753F
:104CD000AD740A1204E9E97066750A65750B0C7803
:104CE0000A1204BB124D44780A1204BB85080A75E7
:104CF0000B00780A1204BBAC10AD117A4B7B0C7917
:104D0000041278D674061204E9E9702F7A008A82B8
:104D1000A882E82465F582E4340CF583E0C0E0E87D
:104D2000250AF8E43400F9E51028F582E51139F593
:104D300083D0E0F00AEAC3940440D3790180027979
:104D400000021F70E5122412F50AE5133400F50B7A
:104D500022C082C083900AB6E0C2E0F0D2E4F07ACA
:104D60006E7B087952121846021ABD74F812027D41
:104D7000EAFEEBFFEE7001EF7008124DED124D519F
:104D80008052900AB6E0C2E4F0D2E0F0900AB8E0B7
:104D900054BF124DD97A40124DDE900AB8E054DF6C
:104DA000124DD97A20124DDE7A8A7B0B7952121875
:104DB00046900AB7E0640270037401F074FF6E70ED
:104DC0000374FF6F7005124DED8009EEFCEFFD7A64
:104DD00080123E88790002158BF0A3E0F022124D7C
:104DE000E2227B00900AB5E0F912877122900AB89E
:104DF000E0547F124DD97A80124DE22274EB1202F8
:104E00007D8A0A8B0B8A828B83A3A3A3A3E0C3941E
:104E100002500302515F8A828B83A3A3E0F514A39F
:104E2000E0F515851482F583E05403F509740165F6
:104E3000097005750806800E74026509700575080D
:104E4000058003750808E0A2E5500A5418131313EF
:104E5000541FFA80027A00850A828B83A3A3A3A33E
:104E6000E0C39508500302515FEA700302515FE509
:104E70000A241AF582EB1208156003024F8CE50A2A
:104E80002412F582EB1207E212157F125184123EB2
:104E9000937F00EF125162603CEF75F02BA424AFBA
:104EA000F582E93408F583E06C7003A3E06D7025AA
:104EB000EF75F02BA424B1F582E93408F583E06A9C
:104EC0007003A3E06B700EEF75F02BA424A3FEE932
:104ED0003408FF800B0FEFC3940A40B77E007F00B9
:104EE000EE7001EF7003024FCFEE24271207DFC0F0
:104EF00082C083851482851583A3780C120693D013
:104F000083D082780C1206745003024FCF7402656E
:104F100009600302515F851482851583E0540460A3
:104F20000302515FEE7001EF7003025135EE241160
:104F30001206E2600E851482851583E05404700326
:104F4000025135EE24271207DFC082C083900BADDB
:104F50007810120693D083D08278101205E1851460
:104F600082851583A3C082C083900BAD780C120696
:104F700093D083D082780C1205E17810790C120559
:104F8000A4700302510C75080102510FE50A2412A6
:104F9000FAEB3400FB1249878A0C8B0DAE0CAF0D77
:104FA000EE7001EF60291251841206E564FF70046F
:104FB000A3E064FF7003024EE91251841251A1E094
:104FC000687003A3E0697003024EE97E007F0085EC
:104FD0001482851583E054047003024F24850A82ED
:104FE000850B83A3A3A3A3E0FA85080C7404250C06
:104FF00012518D500302515FEE7001EF70030251A8
:105000005FEE24111206E2700302515FEE2404FCED
:10501000EF3400FD7A4B7B0C12968985148285153E
:1050200083A3858210858311780C1206931251ADEB
:10503000851482851583E0900C58F08510828511C7
:1050400083780C120693900C5912152A7A5D7B0C0A
:1050500079E21217E4A808850A82850B83A3A3E0EE
:1050600028F50CA3E03400F50D850A82850B83A397
:10507000A3A3A3E0C39508F508125179AA0EFB1269
:10508000950775106575110C78101204BB780E1217
:1050900004BB85080E750F00780E1204BBAC0CAD76
:1050A0000D7A4B7B0C7904127A8F74061204E9E9AD
:1050B0007047750E65750F0C780E1204BB1251798E
:1050C000780E1204BB750E0D750F00780E1204BB1E
:1050D000750E58750F0C780E1204BB85080E750FEF
:1050E00000780E1204BBAC0CAD0D7A4B7B0C79042E
:1050F000127C6F740A1204E9E97064850A82850BD8
:1051000083A3A3A3A3E024FCF0024F2D7508008520
:105110001482851583A3780C120693EE2427F5825A
:10512000EF121527E508600D7402650960268E826E
:105130008F8312519B7401650960067403650970C1
:105140000DEEFCEFFDAA0AAB0B125338801174026E
:105150006509700BEEFCEFFDAA0AAB0B1251BA0207
:1051600014A412516864FF2275F02BA4A9F024A3A3
:10517000F582E93408F583E022EE2412F50EEF34CF
:1051800000F50F22E50A242AF582E50B22F8E43423
:1051900000F9EA98E499C365D03322E0F91249484E
:1051A000221240B5121E0D240C1240B222900C5354
:1051B00012152E7405900C57F02274F812027D8A95
:1051C000828B83A3A3A3A3E0C39406500302532AB4
:1051D0008A828B83A3A3123062E01203C402062AE0
:1051E00053EF512A53F551FB5155525B52BA5212AB
:1051F00039C602532A123E9C02532A8A828B83A309
:10520000A3A3A3E06406600302532AEA241AF582EA
:10521000EB121B1B600302532AEC7001ED700302BA
:10522000532AEC2411F582ED1206E560118A828B77
:1052300083A3A3125333E0A2E2400302532A740F64
:10524000900A83121D3DE0900A84F07A837B0A1253
:10525000617602532A12555C02532AEC7001ED70FC
:105260000302532A900AB7E06409600302532A90AC
:105270000C8CE06402600302532A1255E5600302BD
:10528000532A8A828B831221028E828F83E05404F8
:105290007003025321A3A3A3A3A3A3E060030253BB
:1052A000218A828B83A3A3A3A3E0640B707312569D
:1052B0000BEEFAEFFB12586D8070EC7001ED606A36
:1052C000900AB7E064097062900C8CE06404705A34
:1052D0001255E570558A828B83A3A3A3E0F97F0062
:1052E0008F82AC82EC1257FDE0FEE82CF582E912C9
:1052F00058DB6E70070FEFC3940440E48882898303
:10530000E05404601CA3A3A3A3A3A3E070138A82A8
:105310008B83A3A3A3A3E0640B7006EFC394045094
:105320000479BA8002790012598302158B8518829C
:10533000851983A3120BBA2274F812027DEC700156
:10534000ED70030254438C828D83E0900A84121422
:10535000CB12544FC4131354031203C401027253EB
:1053600066536A536E537E0F800A7E1480067E1940
:1053700080027E007401900A83F0EA2430F582EB0B
:105380001206E5C39400A2D265D033400474FF80B6
:1053900003E0C333900A89123E5C540364038A829B
:1053A0008B83A3A3700AE0240812545E24F88008BB
:1053B000E0240612545E24FA900A88F0EA2423F5C9
:1053C00082EB1208157017EA241BF582EB1206E532
:1053D00064FF7004A3E064FF700474018001E49032
:1053E0000A8A123E5C54046006900A8A123CC788FE
:1053F000828983E0540364037013900A8A12544A2A
:1054000088828983121579900A86121DC98882893B
:1054100083A3A3A3A3A3E0900A85F0EE601E9008E7
:1054200071E06E6017900892E0A2E3500FEE9008D2
:1054300071F07A807B00128C6A1254737A837B0A33
:1054400012617602158B8E828F83E0D2E2F022A366
:10545000A312545522123B7C88828983E022FCA34C
:10546000E03400FD900A8BECF0A3ED123544A3A3C9
:10547000A3E022C082C083900AB6E0A2E050097A7D
:10548000717B0879E1121846021ABDC082C0839070
:105490000AB6E0A2E0400C7A8A7B0B7952121846D9
:1054A00012444F021ABDC082C083900AB6E0A2E443
:1054B000500D7A6E7B087952121846E0C2E0F07AFD
:1054C000717B0879E1024D6574F612027D900C8CB7
:1054D000E0600464017063900ABBE07035900C7763
:1054E000E0FA900C76E06A70217AA27B0879E512E6
:1054F00018467402900C8CF012560B90087C123EE9
:10550000967A007B10123E8A804F900C77E004F070
:10551000801475087875090C750A0078081204B7AC
:105520001255F11204E9900C8CE06401700779B90E
:1055300012598380241256BA801FE06403701590BC
:105540000ABBE070087404900C8CF080AE900ABB2B
:10555000E0F980DCE0640260F402456C74F612024B
:105560007DEC7001ED607B900AB7E0640970739088
:105570000C8CE06403706B1255E570668A828B8335
:10558000A3A3A3A3E0645770598A828B8312150EDC
:10559000FEE9FF8E828F83A3A3A3A3A3A3E0FA90C7
:1055A0000C77E06A701675087875090C750A007832
:1055B000081204B71255F11204E98005E0046A707C
:1055C000218E828F83A3A3A3A3A3A3E0900C77F0E3
:1055D000125763E0FA900C76E06A700612560B12CE
:1055E00057A802456C8C828D83E0FC900C75E06CB2
:1055F000227C107D00900C75E075F02BA424B5FA88
:10560000E5F03408FB127D1D740322900AB8E0F027
:10561000A3E054EFF07A007B10124DE42274F812EC
:10562000027DE9900C75F075F02BA4A9F024B3F578
:1056300082E93408F583E0A2E25008900892E0A2E3
:10564000E2400979B01259837900806B1259B7FE94
:10565000E93408FFEE2411120E10F07C107D007961
:1056600000121B0C127DD37C107D0079007A787BB0
:105670000C127DD37409900AB7F0EE240C120F4877
:10568000900C76E0F8740128FCE43400FDEC75F031
:105690003CA4FCAAF075F03CEDA42AFD7A007B1036
:1056A000123E8A1259B7F8E5F03408F9900C8F12BF
:1056B00040CD12548B790102158B74F112027D7B5F
:1056C000007A0079571257947002A3E0700879BEEF
:1056D00012598302576012582A74068E828F83A350
:1056E000A3A3A3A3F0900C77125778F0EE2407F54C
:1056F00008EF1257737AF07B07129507750A0512A7
:1057000093368A0C8B0D8C0E8D0F8508828509834C
:10571000780C1206A2900ABE780C120693850882B5
:10572000850983A3A3A3A3A3A3A3A3780C1206A212
:10573000900ACC780C120693900ABE780C12061AC6
:10574000AC08AD097AF07B0712950EE5082410121B
:10575000576F150AE50A70A712576374941257869B
:105760000207B9EE2407FAEF3400FB12590C22F5B8
:1057700008E5093400F50922E08E828F83A3A3A3F4
:10578000A3A3A3227414900AC2F01259CF227B0063
:105790007A00790F120E5A900C8DEAF0A3EB125793
:1057A000A222F0900C8DE02274F712027D12578E27
:1057B0007002A3E0700779BE125983803D12582A07
:1057C00074071258E0F508122186850882A882E83D
:1057D0001257FDE9F01258C6E9F00508E508C39430
:1057E0000440E41258F71204BB1258161204E9E9F7
:1057F000700512580780BF1257840229A22488F529
:1058000082E4340CF58322900C8D12580E22122C57
:10581000F9FB127E65227906900C8FE0FCA3E0FD77
:10582000EEFAEFFB124C2B740222900C8DE0125812
:105830003B12418612414A12585A22242D12584BCB
:1058400074031257A2242A12584B22F8A3E01258CC
:1058500052223400F988828983221257A21228C862
:10586000E0FEA3E0FFEEFAEFFB124A042274F71207
:10587000027D8A088B0912578E7002A3E0700779A7
:10588000BE125983803D12582A74081258E0FA8AD1
:1058900082A882E50828F582E5091258DBC0E012EB
:1058A00058C6D0E0F00AEAC3940440E31258F71255
:1058B00004BB1258161204E9E9700512580780BF9C
:1058C0001257840229A2EE28F582EF1258CF223413
:1058D00000F583A3A3A3A3A3A3A3221258CFE0227E
:1058E0008E828F83A3A3A3A3A3F0E48E828F83A3CE
:1058F000A3A3A3A3A3F0228E828F83E0D2E2F0EED3
:105900002405F508EF3400F50978082274F6120230
:105910007DEAFEEBFF900C751238E124B5F508E541
:10592000F03408F509750A0078081204B77C107D78
:10593000007A787B0C1259C91204E97A008A82A88D
:1059400082850A08EE25081206E2F508900C751209
:1059500038E1FCE824B5FAE43408FBEC2AF582E5EA
:10596000F03BF583E06508F074012808E43400F9A1
:105970007A107B0012012C050AE50AC3945040BD41
:1059800002456C74F812027DE9FE12560B74B06E7B
:1059900070047E008011EE600E1259B7F582E5F0BA
:1059A0003408F58374FFF0900C7512519B123CCCB7
:1059B000EE900A52021588900C75E075F02BA42425
:1059C000A322FC7D00EEFAEFFB127D1D740322C0C2
:1059D00082C08374FE12054E900C8FE07002A3E02B
:1059E000601B900C8FE0240C125ABB7950121846A1
:1059F000900C8FE02401125ABB7953800E90089DC1
:105A000074FFF0A3F07A9D7B0879501218467A79DA
:105A10007B08794E121846900AC2E0A2E7501A8518
:105A20001882851983E4F0A3121B217959121846B4
:105A3000900AC2E0C2E7F080097A7A7B08795912AD
:105A400018467AC37B0A79E1121846E064047009AB
:105A50007CE87D037A02123E88900AC2E06404600A
:105A60000AE064146005E064247007125AC27401ED
:105A70008004125AC2E4F0900ABAE0C0E0900C8DA3
:105A8000125ACCD0E0F0900ABAE004F0900AC2E0DA
:105A9000600964016005E06424700474028001E41C
:105AA000900AC41257A2F8125AD9900AC5F0900C65
:105AB0008D125BC87402021EA6E02AFAA3E034002D
:105AC000FB22900C8DE0242F12382922E0242E1284
:105AD000382922851882851983120BB9A3A3A3A3A1
:105AE000E022C082C08374FF12054E900AC2E064B7
:105AF000047027E4851882851983F0125BE085180D
:105B000082851983AA82AB83794E121846AA82AB8A
:105B100083795912184679018002790002411AC02E
:105B200082C083900AC4E0900ABC604CE07002A37B
:105B3000E0605A900AC2E064247006900ABBE060FC
:105B40003E125BE0900ABCE024041228B5900AC51E
:105B50001207A0E0C39AFA900AC5125BD3F0900A2C
:105B6000BC125BD9125ABA121DC5900AC4E014F0D7
:105B7000900ABC125BC88040E07002A3E0600E7A1D
:105B8000BC7B0A121285900ABCE4F0A3F0900AB81C
:105B9000E054FD124DD97A02124DDE900AB7E0248E
:105BA000FDC394075012125BBB248DF582E9340BC0
:105BB000F5831220FE1206C8021ABD125BBF22E056
:105BC000C333F8E433F9E822121583120E27228A30
:105BD000828B83E08882898322E024021238372274
:105BE000900AC3E0F91249EAE9F07AC37B0A79E145
:105BF0001218462274F712027D74F712054EE990CE
:105C000006EAF01264F675080875090078081204AF
:105C1000BB74031206BEAC82AD837AE87B07791FA2
:105C200012934E74021204E97A008A087401120673
:105C3000BEE5822508F582E5833400F583E064FF44
:105C400070070AEAC3940840E1EAC394085010744C
:105C5000011206BEAC82AD837A0079841246A2E4BA
:105C6000851882851983F0AC82AD837A0179701230
:105C70007562E070167A3A7B741265887401F0AC34
:105C800082AD83FA797012743A80077A627B75125A
:105C90006588E4900706F090072CF074FF900C15CF
:105CA000F0125CAE74091204E97F0202038C7A01DF
:105CB0009006EAE0F91295D72274F712027DEAFE07
:105CC000EBFF74805FF9E47001E9601A9006EAE086
:105CD000F9127EEDEA7001EB6003127E65EEFA7454
:105CE000806FFB025D6EEEA2E0506A790112459969
:105CF0007C197D077A0079601246A27C1B7D077AA9
:105D00000079641246A27C1F7D077A0079621246F0
:105D1000A274FF90072AF0900C0D74E8F0A37403AE
:105D2000125D7179631246A2E4900C0DF07C0D7D3A
:105D30000CFA79661246A2741E125D7179691246D8
:105D4000A27401125D71796C1246A21240E37401D3
:105D50006EFAEF808D5402601190072CE0600BE426
:105D6000F07BFF7AFF792312677C7A007B00025C6C
:105D7000A9F07C0D7D0C7A002274F112027D74FE74
:105D800012054E8908ECFEEDFF7509008A828582B6
:105D90000AE9C3949050367468650870067509B4B2
:105DA000025E7C7C0D7D0C7A0012448AE9F509754F
:105DB0000C0D750D0C750E00780C1204B7AC0A7D35
:105DC00000EEFAEF1265811204E9025E7CE9C394E9
:105DD000AF5019750A62750B75780A1204BB125E12
:105DE000EF74021204E9E9F509025E7CE912042766
:105DF0000007B0095EB13C5EB2415EC0695EC16D34
:105E00005EC2715EC3755E795EE490072BF0F50AA1
:105E1000851882851983AA82AB83A90A124571E984
:105E2000700690072BE004F0050AE50AC3940A40C7
:105E3000DF90072BE08E828F83F0804090072A80CE
:105E4000F3851882851983AA82AB8390072AE0F92B
:105E5000124571E9FA8A097023851882851983E051
:105E6000F50CA3E0F50D025DB5741280C8740A80CC
:105E7000C474CE80C0741080BC7509E8A90974028E
:105E80001204E97F0802038C74F712027DE9FEC355
:105E90009490501074686E700479B4804F7A001238
:105EA00046A28048EEC394AF501575083A75097440
:105EB00078081204BB125EEF74021204E9802DEE22
:105EC00012042701C0C3995E03B0995EB1D45EB2DB
:105ED000E15EEA5E8C828D83E090072AF079008093
:105EE0000B90072AE0FA796880B579E8025CA9741A
:105EF000EE12027D8A0D8C0A8D0B74121206BEE022
:105F0000F508A3E0F509890E750F007402780E12EA
:105F10000640E50E24F5FEE50F3498FFEE2480F5EB
:105F200082EF34FDF583E493F985088285098312B5
:105F300006C8E50864627004E50964757031E960BB
:105F40002EEE2482F582EF34FDF583E493F5087498
:105F50000193850810F51175120078101204B7AC82
:105F60000D7D00AA0AAB0B1265821204E979007F4D
:105F70000B02038C74F812027D74FF12054E7A62D4
:105F80007B75126588900707E01203C40002E35F87
:105F9000965FC95FD75F851882851983AC82AD8310
:105FA0007A00798312448AE9FE7019E0601B790057
:105FB000124599900720E0A2E0402A7A007B001267
:105FC0004D6B80211266B880267A017B009006EA2C
:105FD000E0F912810F80131264F67A3A7B7412652D
:105FE0008880E67EE8EEF91266B87A00125CB0743A
:105FF000011204E97F0102038CC082C083E4900691
:10600000F0F090070EE0FC748F5C44109006F0F006
:106010007A0080131260A9C0E0E824F1F582E4342C
:1060200006F583D0E0F00A1260A040E87401900603
:10603000F4F09006EC74FFF0A3F09006EEF0A3F0FD
:106040009006FBF090071DE0F8A3E0F9900704E844
:10605000F0A3E9F074019006FCF09006FDF01260E8
:10606000671238E7026171900706F07AEC7B06222E
:10607000C082C083900706E06401600AE0640260A9
:1060800005E0640370087404F0123948800FE0647E
:106090000570057406F0800579B4126763026171BA
:1060A00074065CC313FBEA9B228A82A882E8240F51
:1060B000F582E43407F583E02274EF12027D74FE6A
:1060C00012054E89088A0FECFEEDFF8B1074131237
:1060D00006BEE0F51174141206BEE0F50AA3E0F561
:1060E0000B851882851983AA82AB83124571E9FA60
:1060F0008A097054E5089006ECF0E50F9006EDF083
:106100009006EEEEF0A3EFF0E5109006F1F0E51149
:106110009006F012606A123562E9FA8A09702985E0
:106120000A0C850B0D750E00780C1204B7AC117DAE
:10613000009006F4E0FAA3E01265811204E9740706
:106140001260671235D8800AE4900706F0A9091298
:10615000677F74021204E97F0A02038C124D6B12EE
:1061600068A422C082C0837A00125CB079001268F1
:10617000A5D083D0822274F312027D74FE12054EE4
:10618000EAFEEBFF90072DE07002A3E0601190079C
:106190002DE0F8A3E0F58388821206C80263748EAE
:1061A000828F83A3858208858309EE2402F8EF3469
:1061B00000F9880A890B8E828F83E0120427000B76
:1061C000011B63020E630300620532620638620936
:1061D00086620DE3610E04630FF262105262113E9B
:1061E000627463900720E0A2E040077A007B00120F
:1061F0004D6B850882850983E0F91266B8026374E5
:10620000900C15E064FF700302637488828983E058
:10621000FA900C15E06A6003026374900C16E0FBC0
:10622000900C1512638012677C74FF900C15F002BD
:106230006374126394026374126436026374900789
:1062400006E064046003026374E4F0F91267630219
:106250006374850882850983E0F50C701D7CE87DF8
:10626000037A027B009006EAE0F912874EE9FA8A87
:106270000C7007740190072C80B47BFF7AFFA90C87
:1062800012677C026374900706E06405600AE064AC
:10629000067051750D018003750D00E412638B705B
:1062A0002E851882851983AA82AB8388828983E030
:1062B000F9124571E97021EE241DF582EF3400F5E5
:1062C00083E0FB850A82850B83E0FA790080067BF8
:1062D000FF7AFF7922126741E50D7003026374793A
:1062E0002402624CE4F07BFF7AFF79B4126741022A
:1062F0006374850882850983E0F912677EE0F912EC
:1063000041F28070888212637E12677D8066E4901D
:10631000070612638BF912677F80598E828F83A3E1
:10632000A3A3A3A3A3A3A31203FA8E828F83A3A381
:10633000A3A3A3E0F50D780D1204BF8E828F83A373
:10634000A3A3A3A3A3A3E0F50D780D1204BF8E822F
:106350008F83A3A3A3A3A3A3E0FB8E828F83A3A316
:10636000A3E0FCA3E0FD850A8212637E1268A67496
:10637000041204E974021204E97F0602038C898383
:10638000E0FA850882850983E0F922F08508828594
:106390000983E02274F612027D900706E064016032
:1063A0000302642C8A828B83A3A882A983E070787D
:1063B0007E0080080CECC3940640340EEA2417F5E6
:1063C00082EB3400F583E05406C313FCEE9C505876
:1063D0008E08EA2508FCEB3400FD74272CF582E4D6
:1063E0003DF583E0FD74FE2DC3940E503B7C008C84
:1063F00008E5082408F582E43407F583E0FF6D60C2
:106400000574FF6F70AE88088909750A0078081254
:1064100004B77C317D007ADC7B0B1265821204E9C3
:106420007402900706F08009740380F6E06402604D
:10643000F77F0302038CC082C083900706E06402EA
:1064400060030264CE900BDDE09006ECF0900BDE72
:10645000E0F8A3E0F99006F5E8F0A3E9F07CE07D30
:106460000B7AED7B0612968990070EE0FC9006F7FA
:10647000F07A0080131260A9C0E0E824F8F582E405
:106480003406F583D0E0F00A1260A040E87A00807C
:10649000131264E6C0E0E824FBF582E43406F583D9
:1064A000D0E0F00A74705CC430E30244F0FBEAC34D
:1064B0009B40DE900720E0A2E2500474248001E4B7
:1064C000900702F07405126067123D208015E064A9
:1064D000016005E06403700BE4F07BFF7AFF792133
:1064E0001267410261718A82A882E82412F582E46F
:1064F0003407F583E02274F612027D7401900707D9
:10650000F0740F900720F07C067D0079007A087BFC
:1065100007127DD37402900708F0741290070EF0F2
:10652000740190070FF0900712F09007197410F0A3
:10653000A3E4F090071B744AF0A37401F0900721C4
:106540007407F0A3E4F075084275090BF50A7808A2
:106550001204B77A427B0B127D198A088B097401E9
:106560002508FCE43509FD7A237B071265821204B5
:10657000E990071D7464F0A3E4F090071FF0026433
:1065800031FB127D1D74032274F612027DEAFEEBCC
:10659000FF750A00850A087509007402780812065A
:1065A00040E50824F5F8E5093498F988828983A341
:1065B000A3E493FC740193FD88828983A3E493FA96
:1065C00088828983E493F98E828F831206C8050A34
:1065D000E50AC3940C40BD02643174F812027DE9EF
:1065E000900606F0E4900603F07A01FB12810F7426
:1065F000FF900605F002671E74F512027DEAFEEBBD
:10660000FF74805FF9E47001E97040EEA2E0500F82
:10661000900603E07009126B8C125F74126163EED6
:106620005408607D900603E0640570759006E412DE
:1066300066AA9006081266AA7420900644F07401B7
:10664000900645F07A008026127E65900606E0F9F5
:10665000127EEDEA7001EB70EFEEFA74806FFB8052
:1066600044EA2446F582E43406F583EAF00A900B06
:1066700019E0FBEAC39B40E91268879006C47808DA
:106680001206A275084475090678081204BB900B1F
:1066900019E02402F50878081204BF126DAF120445
:1066A000E97A007B007F0402038C1266AE22E024AC
:1066B00001F0A3E03400F02274F812027D74FF129E
:1066C000054EE970547CE67D067A0179C1125D7948
:1066D0007401900603F074FF900602F0E4851882BE
:1066E00085198380121267237005E0900602F085F9
:1066F0001882851983E004F0E0C0E09006E6E0FA35
:10670000D0E0C39A40DFE4851882851983F0AC821B
:10671000AD837A0179A0125E8874011204E97F01C9
:1067200002038C851882851983AC82AD837A017946
:10673000B1125E887CB17D0B7A2B79B2125D79E95A
:106740002274F812027DE9FEEAFF7A0079021282D1
:106750007BEE7005EF900602F07401900603F0FFE7
:1067600002038CC082C083900603E06402700A7A40
:1067700000790212827B7401F0026C1D22222274C5
:10678000F112027DE99006036003026864E064038D
:10679000700F7A00790112827B7401F07F08020386
:1067A0008CE0640560030268491268879006C87827
:1067B000081206A29006C878081206939006C478BC
:1067C00008120536900B27780C120693780C79087E
:1067D000120664505F900AD4780C120693780C79F4
:1067E000081206645024900B2B780C12069378083C
:1067F000790C12020D74017808120640E508240A8B
:10680000F582E5093406F583802D900B2F78081268
:106810000607900B33780C1206937808790C120255
:106820000D74017808120640E508241EF582E5097A
:10683000340680D29006421268937003A3E0697018
:10684000407406126B8002679CE064066003026776
:106850009C7405F07CD07D077B327A00790112822E
:10686000F502679CE064037003026792E0640560D0
:106870000302679C9006421268937003A3E069606C
:10688000C0126CFC02679C1289848A088B098C0AEE
:106890008D0B221266AE900608E0F8A3E0F9900B8B
:1068A0001AE06822222274F612027D740A1206BED1
:1068B000E0FA740B1206BEE0FB740C1206BEE0F8A0
:1068C000A3E0F9EB604C74076C7001ED7044EAA230
:1068D000E2503F88828983E064207036900603E0AE
:1068E0006405702E88828983A3E07026888289835C
:1068F000A3A3A982AA8389088A09750A00780812C5
:1069000004B77C087D007A167B0B127D1D74031280
:1069100004E9026B6B74F612027D74FA12054EE9FB
:10692000FE126B706E70097508FFE4900604801DFE
:10693000900B26E06E700C900604E064FF600FE0A0
:1069400004800AEEF0E4900604F09006E7F090066A
:1069500003E064057044900604E0707274FF6E609A
:106960007574B365087006126CBE026B667C3D7D63
:106970000079007A077B06127DD3742165086003D5
:10698000026B667401900607F07CF4FD7B327A009E
:10699000F91282F5126CFC026B66E06406701090CE
:1069A0000604E07029E5087025126D4D026B66E063
:1069B0006402701274B065087014900604E0700EE2
:1069C000126070026B66E064016019E0601674FF8B
:1069D0006E6003026B6674FF900B26F0E49006E78E
:1069E000F0026B66E508C394C0401574FF6508604B
:1069F0003674402508900605F0126C2274FF80E082
:106A0000E508C394B04020E508C333F8E433F9E85F
:106A100024BEF582E93409F583E0F8A3E0F5838824
:106A2000821206C8026B66900602E064FF700302E1
:106A30006B66900603E064016003026B667F047579
:106A40000A01746B65086006744065087009900659
:106A500004E06003026B66744565087021900604CB
:106A6000E0C3946440187401851882851983126B01
:106A7000F179A0125E88C2AF1297C20080FD74FF48
:106A80006E70519006E7E0604374011206BE740315
:106A9000F0900B26E0126B70900B26F0E49006E766
:106AA000F0E508C394835070750A02E508C394802A
:106AB0007402405E1206BE7468F0750A0374802585
:106AC00008C0E074031206BED0E0804B74FF900B48
:106AD000260269E0900604E0600C74011206BE74A0
:106AE00002F0740180B7E508C394837401401B125F
:106AF00006BE7430F0747D2508C0E074021206BE34
:106B0000D0E0F0750A027F44800E1206BE7401F0D8
:106B100080961206BEE508F07403126B807C027D3D
:106B20000612672D7012900BB1E064FF600A900BA3
:106B3000C2E06004EFD2E3FF74011206BE85820852
:106B400085830978081204BBE50AF5087808120461
:106B5000BFEFFB7C077D007A01900602E0F912602E
:106B6000B974031204E974061204E97F0302038C6A
:106B700024B5F582E43498F583E493F50874FF2294
:106B8000900603F07A01790112827B2274F81202D6
:106B90007D74F812054E7404851882851983F0AC53
:106BA00082AD837A0179A1125E887C097D0B7A0619
:106BB00079A2126BEC79A4126BEC79A5125E887441
:106BC00007F0A3E4F0851882851983AC82AD837A3F
:106BD0000179A8125E887A0F7B0B127D190A7C0F4F
:106BE0007D0B79A9125E88740802671B125E887497
:106BF00001F0AC82AD83FA22C082C083900604E02B
:106C0000700F7402900603F07A01F912827B125F12
:106C1000F9800AC082C0837404900603F0D083D048
:106C2000822274F712027D74FF12054E900604E072
:106C3000705D900602E064FF605DE0048518828567
:106C40001983F0851882851983E0FA900602E06ABC
:106C5000603D126723704A7A00900605E064FF6089
:106C6000238A08E50824D5F582E4340BF583E0FB9C
:106C7000900605E06B60070AEAC3940340E3EAC3A9
:106C80009403501D851882851983E0900602F074E4
:106C9000011204E9026D48E4851882851983F080A9
:106CA000B1851882851983E004F0FA9006E6E06A5F
:106CB0007091900602E064FF60D5E4026C3CC082F3
:106CC000C083900604E07031900603E0640560180C
:106CD0007AFF7BFF12615C7CD07D077B327A007982
:106CE000011282F5740580107A007B0012615C7AD3
:106CF00000790112827B7401F0026C1D74F712029C
:106D00007D900B1CE07002A3E06031127DFB8A08CD
:106D10008B09A808A909900B1CE0FAA3E0FB12015B
:106D2000348A088B0974012508FCE43509FD7A08CA
:106D30007B00900606E0F912874E800C7A087B00F3
:106D4000900606E0F912810F7F0202038C74F6129E
:106D5000027D74C112054E7420851882851983F056
:106D600074011206BE7402F0750807750906750AEB
:106D70000078081204B77C3D7D0074051206BEAA97
:106D800082AB83127D1D74031204E9851882851974
:106D90008385820885830978081204BB75083F78CB
:106DA000081204BF126DAF1204E9743F026B6890C1
:106DB0000B18E0FB7C077D007A01900602E0F912D7
:106DC00060B974032274F512027D74FC12054E7EC4
:106DD00000E4900601F09005FEF07F1D7508047533
:106DE000090078081204BB74021206BEAC82AD839F
:106DF0007A007B00EF1273C41204E9851882C08206
:106E0000C083900B007808120693D083D082780854
:106E100012057A70169005FEE0600DF9126F2EEFE4
:106E2000F9126F2EE4F08029EF80FA851882851917
:106E300083C082C083900AC87808120693D083D09A
:106E400082780812057A7004EFFE8005EFF9126F60
:106E50002E0FEFC3941F40849005FEE07026EE7065
:106E600018791D126E939005FF7404F0A3E4F0905E
:106E70000601E0601979008017F0126F80EEF912B8
:106E80007179800AEE6004F9126ED1126F80790177
:106E900002706D74F512027D74FC12054EE9FE90CD
:106EA0000B007808120693851882851983780812DA
:106EB00006A2851882851983AC82AD837A007B0097
:106EC0001273CB900601E07005EE9005FEF00270A3
:106ED0006D74F512027D74FF12054E890879161241
:106EE000976EE96006900601E06008740190060163
:106EF000F08036A90812943A7E007F00750A017569
:106F00000B00780A1204BB74021206BEAC82AD8379
:106F1000EEFAEFFBA9081273C51204E9851882E0A6
:106F200064FF70C7126F7440D3740102706F74F500
:106F300012027D74FF12054E89087E007F00750ADB
:106F400001750B00780A1204BB74021206BEAC82F3
:106F5000AD83EEFAEFFBA9081273C51204E9851898
:106F600082E064FF6007A908126ED18005126F7479
:106F700040CC80B5EE24010EEF3400FFC39408220C
:106F800074F512027D74FC12054E7EFC7F077508B5
:106F90000475090078081204BB74021206BE12734D
:106FA000B81204E9851882851983C082C083900BCA
:106FB000047808120693D083D082780812057A707C
:106FC00011EE24FCFEEF34FFFFC3EE9404EF9400B7
:106FD00050BC127557E8F0A3E9F002706D74F51219
:106FE000027D74FC12054E8909EAFEEBFF8C08EE67
:106FF00024FCFEEF34FFFFC3EE9404EF94004069DD
:10700000750A04750B00780A1204BB74021206BEDE
:10701000AC82AD83EEFAEFFBA9091273C51204E945
:1070200074021206BEE0F8A3E0F985188285198380
:1070300085080AE0650A7002A3E0700AEEC398FAB8
:10704000EF9400FB8027748059FBE47001EB709F84
:10705000740428FAE439FBC3EE9AEF9B4008EEC3B0
:107060009812730C80901290877A007B007404123F
:1070700004E97F0402038C74ED12027D74FC120596
:107080004E890AEAFEEBFF8C0B74171206BEE0F580
:107090000EA3E0F50F74191206BEE0F50CA3E0F59F
:1070A0000D85188285198374FFF0A3F0A80E7480F3
:1070B000450FF974021206BEE8F0A3E9F0E82EF5D8
:1070C00008E50F3FF509851882851983AC82AD83E9
:1070D000AA08FBA90A1273CB74021206BE12715ED3
:1070E0007402780E120684E50EF510900601E07029
:1070F0004E750F00780E1204BBAC0CAD0D8E0E8FCA
:107100000F7402780E120684850A12F5137409783A
:1071100012120640250EFAE513350FFB1293C874C0
:10712000021204E9E510F50E780E1204BFAC0CADA6
:107130000DEEFAEFFBA90A12732174011204E9851E
:107140000B0CE50C851882851983F0A374801271ED
:107150006412715E74041204E97F0C02038CE0F087
:10716000A3E0547FF0851882851983AC82AD83AA91
:1071700008AB09A90A1273CB2274EB12027D74F8D2
:1071800012054E8910750DFF741D65107005750C84
:107190001E8003750C1D750A04750B009005FFE039
:1071A00024FCFEA3E08005EE24FCFEEF34FFFFC3C9
:1071B000EE9404EF940050030272E8900601E06040
:1071C0000302730275080475090078081204BB7481
:1071D000021206BEAC82AD83EEFAEFFBA910127369
:1071E000C51204E9851882E064FF7004A3E064FF1F
:1071F000703574021206BEE0F8A3E0F9748059FB02
:10720000E47001EB70A1740428F8E439F9C3EE9836
:10721000EF99400D74021206BE12731812730C809F
:107220008D129087027302851882851983A3E0541A
:1072300080F9E47001E970DC851882851983850D79
:1072400008E065087002A3E060CA8518828519838A
:10725000E0F50DFCAA0AAB0BA90C126FDDEA700178
:10726000EB70B174021206BE127318F508EF99F5AF
:107270000988148915750E00750F007512047513B1
:107280000078121204BB74061206BEAC82AD83E510
:107290000E2508FAE50F35091273BF1204E97404CC
:1072A0001206BEAC82AD83E50E250AFAE50F350B5A
:1072B000FBA90C1273CBE50E2404F50EE50F340088
:1072C000F50FC3E514950EE515950F50AE74021237
:1072D00006BEE02404F8A3E03400F9E50A28F50A24
:1072E000E50B39F50B027214A90C126E939006018E
:1072F000E0700A9005FFE50AF0A3E50BF0A9101273
:107300006ED174081204E97F0E02038CF8EF99F92C
:1073100074FC28FE74FF3922E0F8A3E0F9EEC3986C
:107320002274F112027D74FC12054E890FEAFEEB05
:10733000FF8C0A8D0B74131206BEE0F5098014EE63
:107340002404FEEF3400FFE50A2404F50AE50B34BB
:1073500000F50B85090874FF2508F509E508604E5E
:10736000750C04750D00780C1204BB74021206BE75
:10737000AC82AD83EEFAEFFBA90F1273C51204E9DC
:10738000850A0C850B0D750E00780C1204B77C0471
:107390007D0074031206BEA982AA837B00127D635E
:1073A00074031204E9E970977401900601F0740403
:1073B0001204E97F0802038CAC82AD83EEFAEFFB86
:1073C0009005FEE0F912934E74022274F212027DCF
:1073D000890E8A088B09ECFEEDFF900601E0704BE8
:1073E000750A01750B00780A1204BB8A0A8B0B74AC
:1073F00002780A120684890CF50D7409780C1206BD
:1074000040250AFAE50D350BFB1293C874021204ED
:10741000E9750A01780A1204BFEEFCEFFDAA08AB79
:1074200009A90E12732174011204E97F0702038C6B
:10743000126DC5E970031290872274F112027D74F7
:10744000FB12054E89098A088C0A8D0BAC0912754E
:10745000988A0C8B0DAE0CAF0DEE7001EF6050757D
:107460000E00803B750C01750D00780C1204BB7486
:10747000021206BE1273B81204E9851882851983B8
:10748000E0FA850E0CE50A250CF582E50B3400F5D3
:1074900083E06A701AEE24010EEF3400FF050EE55A
:1074A0000EC3950840BEE508650E70030275508551
:1074B000080C7403250CF8E43400F97A047B0012FC
:1074C000012C880C890D7402780C120640AE0CAFAA
:1074D0000D9005FFE02EF8A3E03FF9740428F8E4CE
:1074E00039F9C3E89401E994084036900AC8780C49
:1074F00012069374011206BEE50CF0A3E50DF0A38D
:10750000E50EF0A3E50FF074011206BEAC82AD8368
:107510007A007B009005FEE0F91273CBE0F912715E
:1075200079780A1204BB8E0A8F0B780A1204BBAC5E
:107530000912759F12707774041204E9900601E035
:107540006004790A800C127557E028F0A3E039F046
:10755000790074050273B074042EF8E43FF99005C5
:10756000FF2274F512027D890A8A0BECFEEDFFAC56
:107570000A127598EA7001EB6019850B087509000D
:1075800078081204BBEEFCEFFD1273C01204E97917
:10759000008002790A02707212759F126FDD2290CC
:1075A00005FFE0FAA3E0FB9005FEE0F92274E91282
:1075B000027D74ED12054EE9851882851983F074F9
:1075C000011206BEECF0A3EDF0742A1206BE127A88
:1075D00073742C1206BEE0F516A3E0F517742E1294
:1075E00006BEE0FEA3E0FF851882851983E07003E4
:1075F0000278CA74031206BE7401F0EE7001EF60E7
:10760000037441F0851882851983E024FE333354D6
:10761000FCFC74031206BEE04C127C641204B77CBE
:107620000D7D0074071206BEAA82AB83127A8912FE
:1076300004E974111206BEE511F074121206BEE5DB
:1076400010F07C107D00790074321206BE127A7B35
:10765000127DD3750820750900C3EE940FEF9400D6
:10766000402D74F22EF874FF3FF974F058F874202E
:1076700028F508E439F509EE24F2540F6004781077
:1076800080027800E50828F508E5093400F509E5E9
:1076900010540FF50F60047A1080027A0074F055D0
:1076A00010F874FF5511F9EA28F8E439F9E50828CB
:1076B000F508E50939F509AA08FB128D2A8A148B09
:1076C00015EA7001EB700579100278CC740312068C
:1076D000BEA982AA83890C8A0D750E00780C12044B
:1076E000B77C107D00AA14127A891204E9E51424EB
:1076F00010F50AE5153400F50BEF850A82850B833A
:10770000F0A3EEF0A385820A85830B85160C8517FE
:107710000DC3940FEF9400400B780C1204B77C0E4D
:107720007D0080167C0E7D007900AA0AAB0B127DCD
:10773000D3780C1204B7EEFCEFFD127A851204E93F
:10774000E50A240EF50AE50B3400F50BC3EE940FA1
:10775000EF940050030277D9EE24F2FEEF34FFFFDE
:107760008E128F137404781212068485120C8513FE
:107770000DEE540FFE7404780C120640850C128F27
:1077800013E516240EF50CE5173400F50D780C12F0
:1077900004B7AC12AD13127A851204E9E50A25127A
:1077A000F50AE50B3513F50BEE602E7C107D0079A4
:1077B00000AA0AAB0B127DD3E5162512F8E51735A2
:1077C00013F9740E28F50CE439F50D780C1204B792
:1077D000127A811204E9127A607404781012068415
:1077E00085100C85110DAE0F7404780C12064085BF
:1077F0000C10850D1174011206BE127A6D1204B7B9
:10780000AC10AD11127A851204E9E50A2510F50ACB
:10781000E50B3511F50BEE602B7C107D007900AA8D
:107820000AAB0B127DD374011206BEE02510F50CD5
:10783000A3E03511F50D780C1204B7127A81120409
:10784000E9127A60E50AC39514F8E50B9515F9E895
:1078500065087003E965096003129087127C534341
:10786000B350E5B374321206BE127A7B127A538596
:10787000140A85150B7404780812068474FF250811
:10788000F50C74FF3509F50D800AAA0AAB0B1294AA
:1078900067127A60A80CA90D74FF28F50C74FF39E3
:1078A000F50DE87001E970E2127C5385B3B37A0FED
:1078B000EA1A70FCAC0AAD0B74321206BE127A7B67
:1078C000129482AA14AB15128E307900741312042C
:1078D000E97F1002038C74EA12027D74DE12054EF9
:1078E000851882851983ECF0A3EDF0EAFEEBFF74B6
:1078F000381206BEE0F508A3E0F509743C1206BE96
:10790000127A7385100CF50D750E00780C1204B701
:10791000E9FC7D0074151206BEAA82AB83127A8937
:107920001204E974021206BE7401F08E0C8F0D78F9
:107930000C1204B77C0D7D0074061206BEAA82AB41
:1079400083127A891204E974111206BEE4F07410ED
:107950001206BEE4F085080A85090B7404780A1241
:107960000684AE0AAF0BE508540FF50F6008EE244D
:10797000010EEF3400FF8E0A8F0B7404780A120692
:1079800040AA0AAB0B128D2A8A0A8B0BEA7001EB14
:1079900070057910027A49851882851983127A6DEB
:1079A0001204B7AC08AD09127A891204E9E50F6038
:1079B0001BF50C7410C3950CFCE49400FD7900E5F4
:1079C0000A2508FAE50B3509FB127DD3127C4A1211
:1079D00006BE127C401206BEAC82AD83AA10AB116B
:1079E0001294AE127C591206BE7401F07402120693
:1079F000BEAA82AB83127A53850A0C850B0D800ECA
:107A0000AC0AAD0BAA0AAB0B1294AE127A60EEF878
:107A1000EFF974FF281E74FF39FFE87001E970E088
:107A2000850C14850D1575160078141204B7AC0872
:107A3000AD0974031206BE127A7B127A891204E928
:107A4000AA0CAB0D128E30790074221204E97F0F5C
:107A500002038C127A57221294F253B3F8E5B32240
:107A6000E50A2410F50AE50B3400F50B22127C38E8
:107A7000780C22E0F510A3E0F51122E0FAA3E0FB78
:107A800022EEFC7D00AA0AAB0B127D1D740322744A
:107A9000EA12027D74DE12054E890F8C128D13746A
:107AA000381206BEE0FE74021206BE7401127C6437
:107AB0001204B77C0D7D0074061206BEAA82AB8349
:107AC000127A891204E974111206BEE4F0741012DD
:107AD00006BEE4F0EEC3950FF50AC4540FFE7F0016
:107AE000740F550A60010E7C107D0079007412122B
:107AF00006BEAA82AB83127DD3850A08E51225084B
:107B0000F8E5133400F9851882851983E8F0A3E9B4
:107B1000F0850F82858210851882851983127C3842
:107B20008F0E780C1204B7AC107D0074151206BECF
:107B3000AA82AB83127A891204E9127C4A1206BE29
:107B4000127C401206BEAC82AD83743C1206BE129B
:107B50007A7B1294AE8E088F09740478081206405E
:107B600085080C85090DAA0CAB0D128D2A8A148B81
:107B7000158A088B09EA7001EB70057910027C35D3
:107B8000AC0CAD0D7900127DD385120C85130D78E8
:107B90000C1204B7AC0A7D00AA08AB09127A89124C
:107BA00004E9127C591206BE7401F074021206BE7A
:107BB000AA82AB831294F274F855B34402F5B385EC
:107BC000080C85090D8017AC08AD09AA08AB09128D
:107BD00094AEE5082410F508E5093400F509EEF83F
:107BE000EFF974FF281E74FF39FFE87001E970D7C0
:107BF00075160078141204B7AC0A7D00AA12AB13F4
:107C0000127A891204E9AA0CAB0D128E30743C1260
:107C100006BEE0F508A3E0F509750A00780812042D
:107C2000B7AC107D0074031206BE127A7B127A89FB
:107C30001204E97900027A49E0F50CA3E0F50D227F
:107C4000AA82AB83127A57741222127C5343B32058
:107C500074022253B38FE5B322127C5343B330E551
:107C6000B3741122F08A088B09750A00780822740F
:107C7000EF12027D8908ECFEEDFF74111206BEE0E2
:107C8000F874131206BE127A7374151206BEE0F56C
:107C90000EA3E0F50F74171206BE127C3874191289
:107CA00006BEE0F50AA3E0F50BE9700779007F0A4C
:107CB00002038CE8C39508F509780A1204BB780C16
:107CC0001204BB780E1204BB78101204BB85090C99
:107CD000750D00780C1204BB1275AD740A1204E91C
:107CE000E970CB7A0080010AEAC3950850C0AC095C
:107CF00074012CF5098A0CE50A250CF582E50B3494
:107D000000F583E0FB8C0CEE250CF582EF3400F5DA
:107D100083E06B60D2790180951297972274F612F6
:107D2000027DEAFEEBFF740A1206BE127F84A3E016
:107D3000A908AA09FB8E828F83800D120503F0E942
:107D4000240109EA3400FAA3ECFEEDFF74FF2E1CB7
:107D500074FF3FFDEE7001EF70E1AA82AB837F03F9
:107D600002038C74EE12027D74121206BEE0F5104E
:107D7000A3E0F511A3E0F51289088A098B0A8510A2
:107D80000C85110DECF8EDF974FF281C74FF39FD1A
:107D9000E87001E96036A908AA09AB0AE92401F5EF
:107DA00008EA3400F509850C10850D11E50C240155
:107DB000F50CE50D3400F50D120503FEA910AA110E
:107DC000AB121205036E60BC7900800279017F0B53
:107DD00002038C74F712027DE9FE8C088D09780885
:107DE0001204BBEEFC7D0012973F74021204E902FC
:107DF000803EA2E092AF7F0102038C74F812027DF4
:107E00001217C1E9FF1217C1E9FAEFFB027DF67400
:107E1000F712027DEAFEEBFFEE7001EF70067A00CA
:107E20007B00803E74052EFAE43FFB128D2A8A08FF
:107E30008B09A808A909E87001E960E288828983B2
:107E4000E4F0A3F088828983A3A3EEF0A3EFF0749B
:107E5000FF88828983A3A3A3A3F0E82405FAE93469
:107E600000FB02803EC082C083EA7001EB7004799F
:107E7000058016127EDF60047904800DEA24FBFA87
:107E8000EB34FFFB128E307900D083D0822274F85D
:107E900012027DE9FEEA7001EB70047905803D90E5
:107EA0000B41E0FCE9C39C4007127E657903802CFE
:107EB0001280B1E07002A3E07005127EDF6005124F
:107EC0007E6580D7EEF0EAFCEBFD7A807B01127FC5
:107ED000927A007B80EEF912810F7900027DF6EA3A
:107EE00024FFF582EB34FFF583E064FF2274F31284
:107EF000027D890B750C00750D007E007F00A2AF1E
:107F0000E492E0F50AC2AF9001808017EE7001EFB5
:107F1000700685080C85090DE50824FBF582E50946
:107F20001280B7127F84E5087002E5096025E50834
:107F300024FFF582E5091280B7E0650B70CEEE7084
:107F400001EF7006AE08AF0980CE7A007B80128107
:107F50000F800D7A007B8012814EEE7001EF60156C
:107F6000780C1204BBEEFCEFFD7A807B011280439B
:107F700074021204E9E50AA2E092AFEEFAEFFB7F89
:107F80000602038CE0F508A3E0F50922E0FAA3E07D
:107F9000FB2274F812027DA2AFE492E0FEC2AFECC5
:107FA00024FBF582ED1280B7E4F0A3F0127FE170BC
:107FB00001E970098A828B8380101280BC127FD302
:107FC0007002A3E08882898370F0ECF0A3EDF0EEFC
:107FD000027DF2E824FBF8E934FFF988828983E026
:107FE000228A828B83E0F8A3E0F9E82274F7120278
:107FF0007DEAFCEBFD7A007B00A2AFE492E0F5089D
:10800000C2AF8C828D83127FE57001E9602AE8FAA5
:10801000E9FBEA24FBF8EB127FD8FEA3E0FF8C8299
:108020008D83EEF0A3EFF088828983E4F0A3F0EA79
:1080300024FF1280B474FFF0E508A2E092AF7F0243
:1080400002038C74F612027D740A1206BE1280BC02
:10805000A2AFE492E0F50AC2AFEC24FBFEED34FFE0
:10806000FF8A828B83127F84EC65087003ED6509BB
:108070008E828F83700D1280BC8A828B83E8F0A37E
:10808000E98010127F8CE824FBF582E91280B7EAC0
:10809000F0A3EBF08E828F83E4F0A3F0EC24FFF5E5
:1080A00082ED1280B774FFF0E50AA2E092AF027D84
:1080B0005EEA24FBF582EB34FFF58322E0F8A3E0CF
:1080C000F92274F712027DE9FE750800A2AFE4926E
:1080D000E0FFC2AF127FE17001E970108A828B83EA
:1080E000801BEE6020888289831280BC1E127FD3A1
:1080F0007002A3E070ECEE600C88828983ECF0A340
:10810000EDF0750801EFA2E092AFA90802803E747D
:10811000F812027DE9FD900B41E0FCE9C39C502977
:10812000E5A8FEC2AFEDC333F8E433F99006E8E00A
:1081300028FCA3E0398C82F583E04AF0A3E04BF001
:10814000EEA2E792AF790080027903027DF674F81F
:1081500012027DE9FE900B41E0FCE9C39C501EE554
:10816000A8FFC2AFEAF4FCEBF4FDEE1282585CF01B
:10817000A3E05DF0EFA2E792AF79008002790302FD
:108180007DF6C082C083128CA4900180E4F0A3F03D
:108190001286321295B9129705128D067900027E69
:1081A0008974F512027D750800751A011292351254
:1081B00095B8E5081282587002A3E0700D0508908A
:1081C0000B41E0FAE508C39A40E8900B41E0FAE57C
:1081D00008C39A505BE5A8FCC2AFE508C333FEE4D0
:1081E00033FF9006E8E02EF8A3E03FF98882898308
:1081F000127F8C88828983E4F0A3F0ECA2E792AF2F
:10820000A908EE2437F582EF340BF58312824F1262
:1082100006C8E5A8FDC2AF9006E8E02EFCA3E03F4B
:108220008C82F583E04AF0A3E04BF0EDA2E792AF39
:10823000A2AF4003129087900B41E06508600302F3
:1082400081A6E51A70030281A61296210281A6E09A
:10825000F8A3E0F583888222C333F8E433F990066B
:10826000E8E028FAA3E0398A82F583E022C082C0E0
:10827000837A00790F12827B0285B474F812027D32
:108280008908EAFF120427010001AF8203029882E5
:1082900004A58208AF82EB827CE87D037B057A012E
:1082A0001282F580467CE87D037B057A3280F17E80
:1082B0000153080F7582D0758305801EE06401F0BC
:1082C000E0FAEEF912855BEE6208EEC333FEE5825A
:1082D0002409F582E5833400F583E508600DEE5549
:1082E0000860E774086F60D4EF80D49005CDE0F9A2
:1082F0007F0102038C74EF12027D89088A0B8B0ABE
:108300008C108D11E970030283B2EB70030283B20B
:10831000EC7001ED70030283B2EBC394644003027E
:1083200083AE75090153080F7ED07F05806EE50985
:108330005508605A9005CDE05509FA9005CFE04AFE
:10834000F0E48E828F83F0A3A3A3E510F0A3E511E0
:10835000F08E828F83A3A3E50AF08E828F83A3E53C
:108360000BF0700774048E828F83F01289848E82E2
:108370008F83A3A3A3A3A3EAF0A3EBF0A3ECF0A342
:10838000EDF08E828F83E0D2E1F0E5096208E50925
:10839000C333F509EE2409FEEF3400FFE508708EC3
:1083A0007A027B009005C6E0F912810F80097A01FC
:1083B00080027A0012827B7F0A02038C74E9120227
:1083C0007D74FF12054E7514007515007516017445
:1083D0000F851882851983F07ED07F059005F4E023
:1083E0006003028551851882851983E05516700354
:1083F0000285258E828F83E0A2E1400302851B1255
:1084000089848A0C8B0D8C0E8D0FA3A3A3A3A37854
:10841000081206937808790C12066450030284ED62
:108420008E828F83A3A3E0FA8E828F83E0A2E05036
:10843000267464C39AF517E0C2E0F07A00A9161218
:10844000855BE0A2E2401CA3E014F070168E828FE0
:1084500083E06402F0800C8A17D2E0F07A01A9165A
:1084600012855B8E828F83E0A2E1505F85170875CD
:108470000900750A00750B00A3A3A3E0F510A3E0A3
:10848000F5117512007513007808791012018D909E
:108490000AD478101206937808791012020D850814
:1084A00010850911751200751300780C79101205EA
:1084B000F48E828F83A3A3A3A3A3E50CF0A3E50D01
:1084C000F0A3E50EF0A3E50FF0802F750800750905
:1084D000009005CFE0551660047A0180027A00A969
:1084E0001612827B74FF6516FAE05A80DBE508C33A
:1084F000950CF508E509950DF509E5147002E515EB
:108500006013E5087002E5096011C3E5089514E5FC
:108510000995155006850814850915851882851951
:1085200083E06516F0E516C333F516EE2409FEEF79
:108530003400FFE060030283E5E5147002E5156096
:1085400010AC14AD157A027B009005C6E0F91287D5
:108550004E74011204E97F1002038CC082C083E9CB
:10856000A2E0500B74016A7004C2A08002D2A0E99C
:10857000A2E1500B74016A7004C2918002D291E9A9
:10858000A2E2500B74016A7004C2918002D291E998
:10859000A2E3500B74016A7004C2A08005D2A0EA65
:1085A00060079005CDE049800974FF69FB9005CD17
:1085B000E05B8004E49005F4F0D083D08222C08296
:1085C000C08374019005F4F0E5A0FAE590FBE59016
:1085D000FCA2A0E492E0F4540133333354F8C0E039
:1085E000ECA2E1E492E0F45401333354FCC0E0EB3C
:1085F000A2E1E492E0F45401C333C0E0EAA2E0E473
:1086000092E0F45401FAD0E04AFAD0E04AFAD0E01D
:108610004A9005CEF07A00790F12855B809BC0826C
:10862000C0837A019005CEE0F912855B1283BC020B
:1086300085B474F512027D900AC8780812069390EA
:10864000059978081206A20287A774F312027D89A1
:1086500008EAFEEBFF8C0A8D0B1286F2EA7001EB42
:10866000600F8A828B83A3A3E50AF0A3E50BF08059
:10867000727A097B00128D2AEA7001EB60618A82AE
:108680008B83A3A3A3A3A3A3E5081286E8EEF0A31C
:10869000EFF08A828B83A3A3E50AF0A3E50BF08AAF
:1086A000828B83E4F0A31286E8A3A3A3F0A3F09047
:1086B0000597E07002A3E09005977006EAF0A3EB3F
:1086C00080ACE0FCA3E08003E8FCE9FD8C828D83B4
:1086D00012893AE87001E970EF8C828D8380DD7A2F
:1086E000007B007F0602038CF08A828B83A3A3A306
:1086F000A32274F812027D90059780048C828D83EA
:10870000E0FCA3E0FDEC7001ED601F8C828D83A383
:10871000A3A3A3E06A7003A3E06B70E08C828D8357
:10872000A3A3A3A3A3A3E06970D2ECFAEDFB7F019E
:1087300002038CC082C083EA7001EB600C8A828BDA
:1087400083A3A3A3A3E4F0A3F0D083D0822274F781
:1087500012027DE5A8FFC2AF12864AEFA2E792AFF0
:10876000EA7001EB60047900800279087F0202035D
:108770008C74F512027DA2AFE492E0F509C2AF124B
:1087800086F28A0A8B0BAE0AAF0BEE7001EF600324
:10879000128733E509A2E092AFEE7001EF60047931
:1087A000008002790680007F0402038C74EC1202C0
:1087B0007D8A0A8B0BE5A8FAC2AF850A0C8B0D7572
:1087C0000E00750F00900599780C12061AEAA2E7C0
:1087D00092AF900597E07002A3E070030289359094
:1087E0000597E0F508A3E0F509750C00750D007E0E
:1087F000007F00A2AFE492E0F514C2AFE5082404C4
:10880000F512E5093400F513E5082402F50EE50933
:108810003400F50F850E82F58312893AC3E50A9874
:10882000E50B99850E82850F834006E4F0A3F08066
:1088300017C3E0950AF0A3E0950BF0850E82850F33
:1088400083E07002A3E0704EE5082407F510E50907
:108850003400F511851082F583E07002A3E06050CA
:10886000851282851383E0FAA3E0FBEA7001EB60D6
:108870003F850882850983A3A3A3A3A3A3E0F912DC
:10888000810F85108285118312893A850E82850FAA
:1088900083E8F0A3E9F0850E82850F83E07002A3E0
:1088A000E0600D851282851383E07002A3E0702BD7
:1088B00085088285098312893AE50C7002E50D70FE
:1088C000059005978006850C82850D83E8F0A3E965
:1088D000F0AE08AF098E828F83800C85080C850965
:1088E0000D850882850983E0F508A3E0F509E51404
:1088F000A2E092AFEE7001EF60308E828F83A3A36F
:10890000E07002A3E0701C8E828F83A3A3A3A3E078
:10891000FAA3E0FB8E828F83A3A3A3A3A3A3E0F912
:1089200012810FEEFAEFFB128E30E5087002E509B6
:1089300060030287EF7F0D02038CE0F8A3E0F922C9
:10894000C082C083900597E07002A3E0602F90057D
:108950009712893A7AFF7BFF88828983A3A3E0FC80
:10896000A3E0FDC3EC9AED9B5004ECFAEDFB88828A
:10897000898312893AE87001E9600680DB7A007B1E
:108980000002874974F512027D9005997808120655
:1089900093AA08AB09AC0AAD0B0287A774F11202C7
:1089A0007D900AC878081206939005FA7808120696
:1089B000A28A088B09750A00750B00900AD4780CFE
:1089C0001206937808790C12018D900AD878081253
:1089D00006077405780812051D900AC87808120564
:1089E0007A701D121E128A088B098C0A8D0B900A50
:1089F000C8780812057A702E74039005F5F0804A45
:108A0000121E128A0C8B0D8C0E8D0F900AC8780CDA
:108A100012057A60117808790C12066450088A08E9
:108A20008B098C0A8D0B74029005F5F0900ADC78A6
:108A30000C120693780C7908120664500D900AC83F
:108A4000780812057A6003028AF5A2AF40031290FB
:108A500087C2AF7902121A15E96003028AF71290F1
:108A6000621285BE900AC8780812057A6028900ABA
:108A7000E0780C120693780C79081206644008908E
:108A80000AE47808120693AA08AB09AC0AAD0B12E7
:108A90008B0EC2C7D2AD53BEFCE5BE9005F5E045D6
:108AA000BEF5BEE5ADA2E050FAE5A8FEE5B8FFE5EB
:108AB0009AF50853A820E5A853B820E5B8539A12B0
:108AC000E59AD2AF12E7F8C2AF8EA88FB885089AA0
:108AD000C2AD128BEC8A088B098C0A8D0B9005FABB
:108AE000780812061A12861E129063121A87D2AFE5
:108AF000123340800DC2AFAA08AB09AC0AAD0B120D
:108B00008BA0800574041204E97F0802038C74F1C1
:108B100012027D74FC12054E8A088B098C0A8D0B9B
:108B2000E595851882851983F0E596C0E0740112F9
:108B300006BED0E0F0E597C0E074021206BED0E0B9
:108B4000F074031206BEE4F0851882851983780C50
:108B50001206939005F6780C1206A2900AE8780C9B
:108B60001206937808790C12018D740678081205A4
:108B70001D900AEC780812060785188285198378FB
:108B80000812061A74021206BEE0F5977401120666
:108B9000BEE0F596851882851983E0F595028B0471
:108BA00074F112027D8A088B098C0A8D0B900AC819
:108BB000780812057A6028900AE0780C12069378FB
:108BC0000C79081206644008900AE47808120693AB
:108BD000AA08AB09AC0AAD0B128B0EC2C7D2AD53BB
:108BE000BEFCE5BED2AF12E7F8028B0974F11202A7
:108BF0007D74FC12054EE595851882851983F0E594
:108C000096C0E074011206BED0E0F0E597C0E074B3
:108C1000021206BED0E0F074031206BE7401F085A5
:108C2000188285198378081206939005F678081241
:108C30000536900AF07808120607900AF4780812B0
:108C400005E1900AF8780C1206937808790C120165
:108C50008D900AFC7808120607740C780812051D1E
:108C6000AA08AB09AC0AFD028B04800800000000D2
:108C700000000000EAF8EBF974FF281A74FF39FBD2
:108C8000E87001E970E62222C0E0C0D0EAC0E0E569
:108C9000A8D2AFC2C7751A00A2E792AFD0E0FAD04F
:108CA000D0D0E032C082C083900AC6E024FEF8A390
:108CB000E03403F988828983E4F0A3F0900AC6E0E7
:108CC000F8A3E0F583888274E8F0A3E4F0900AC684
:108CD000E024E8F8A3E03400F9888289837416F070
:108CE000A37403F090018CE8F0A3E9F07A007B0014
:108CF000128D2A90018EEAF0A3EBF0900AC6128D35
:108D00001CD083D08222C082C083E5A8FAC2AF9073
:108D1000018E128D1CEAA2E792AF80E5E0F8A3E095
:108D2000F990018CE8F0A3E9F02274F412027D7C42
:108D3000007D008C0BEA24020A0AEB3400FBA2AF90
:108D4000E492E0F50AC2AFC3EA9411EB9400500537
:108D500090018C800390018EE0F8A3E0F98882896D
:108D600083E0FEA3E0FF74805FF509E47002E5098B
:108D7000600974806FFF750B008074E50B6062887A
:108D8000828983E0F508A3E0F5098C828D83E025D4
:108D900008F0A3E03509F08C828D83C3E09AA3E04C
:108DA0009B404CECF8EDF988828983E0FEA3E0FF5C
:108DB000E87001E9606BC3EE9AFEEF9BFFC3EE948F
:108DC00004EF94004047E82AF582E93BF583EEF092
:108DD000A3EFF074804BFB88828983EAF0A3EB80D9
:108DE00036C3EE9AEF9B50C8750B01E8FCE9FDE82D
:108DF0002EF8E93FF988828983E0FEA3E0FFEE7058
:108E000001EF6003028D6678007900801488828902
:108E100083E0F0A3E04480F0E824020808E934008D
:108E2000F9E50AA2E092AFE8FAE9FB7F0502038CBC
:108E300074F812027DEAFEEBFFA2AFE492E0F508BF
:108E4000C2AFEEF8EFF9C3E89490E994014009C38A
:108E5000E89490E994054003129087EE24FE1E1ECC
:108E6000EF34FFFF8E828F83A3E05480F9E470011A
:108E7000E970031290878E828F83E0F0A3E0547F25
:108E8000F090018CE0F8A3E0F9C3EE98EF99500C54
:108E9000EEF8EFF990018CE8F0A3E9F0E508A2E024
:108EA00092AF7F0102038CC082C08374FF9005C71C
:108EB000F053F402E5F443FEFDE5FE539002E59025
:108EC000E5F375F300E5FD75FD009005C8E4F0A33A
:108ED000F09005CBF09005CCF0D083D0822274F8CE
:108EE00012027DE99005CAF09005C8EAF0A3EBF004
:108EF0009005CAE06023538CFE438C01E5AB75AB53
:108F0000FFD2BD9005CBE06401701A7A017B00901E
:108F100005C6E0F9128771800CE5AB75AB00C2BDE8
:108F20007C64128F2F74019005CBF0FF02038C7DBF
:108F3000007A017B009005C6E0F912874E2274F793
:108F400012027DE5AB75AB00E580F97A007508018A
:108F5000750900EA7808120640AB08EB6004E95B8B
:108F600060070AEAC3940840E44390FDE5907B0063
:108F7000750801750900EB7808120640AC0874FD0D
:108F80005C6025ECF45590F5907450001470FCE58D
:108F900080FDEC4590F590750801750900EA7808A8
:108FA000120640E5085D60070BEBC3940840C1530F
:108FB0009002E5909005CAE0600A758900C2C5E597
:108FC000AB75ABFF74086B600574086A700479FFB9
:108FD0008008EA33333354F84BF97F0202038C7470
:108FE000F812027D128F3EE9FE9005CAE0700990EA
:108FF00005C7E06E603EEEF074FF6E70069005CA25
:10900000E060319005C8E07002A3E060107A009043
:1090100005C8E0F8A3E0F58388821206C89005CA67
:10902000E0601174FF6E60077C32128F2F8005E4C0
:109030009005CCF07F0102038CC082C083E589607B
:109040001EE5AB75AB007589009005CCE0700B7424
:1090500001F07C197D00FA128F33E5AB75ABFF028E
:109060008ED922790122C0E074F21202DDE5A8FE59
:10907000D2AF129039758900C2C5751A00EEA2E709
:1090800092AF7F0102033C12908B2274F512027D95
:1090900074F612054EC2AF53BEFBE59DA2E650FA30
:1090A0000078F8790100E824FF18E934FFF9E87046
:1090B00001E970F175C6807480659E70FA43BE0444
:1090C0007408906270F043FF0143FE027480906266
:1090D00034F0D2A0D291D2918017D2A00B74086B39
:1090E00060030291C07B000CECC394065003029114
:1090F000C0D2A07A0080060A740A6A606E900AC81C
:10910000780812069374061206BE78081206A2802A
:1091100012900ACC780812069374061206BE7808DC
:1091200012061A74061206BEC082C083900AD07856
:1091300008120693D083D082780812067440D2A217
:10914000A05004C2A08002D2A0A2915004C291807B
:1091500002D29190059DE0600CE4F0740A1204E9DB
:109160007F0402038CA286408E8088D2A0D291D246
:1091700091D2A078007900A286500478007900127C
:10918000922040F39061A3E0C0E074041206BED0C8
:10919000E0F09061A4E0C0E074051206BED0E0F0FB
:1091A0009007E0E0C0E074021206BED0E0F0900745
:1091B000CBE0C0E074031206BED0E0F07B007C0080
:1091C000A28650FCC2A0C291C291EB7004C2A080E2
:1091D00002D2A078007900A28650047800790012AB
:1091E000922040F3D2A0D291D291D2A075080175FD
:1091F00009007407C39B7808120640C0088C0885D4
:109200001882851983E5822508F582E5833400F507
:1092100083D0E0FAE05A70030290DAC2A00290DC38
:10922000E8240108E93400F9C3E894F4E99401A2C0
:10923000D265D0332274F512027D7E007F00123396
:10924000AA8A088B09AC08AD09900182E06C700312
:10925000A3E06D7003029324900182E0F8A3E0F98B
:10926000ECC398F508ED99F509900182ECF0A3EDB7
:10927000801FE5082404F508E50934E0F509EE242B
:109280003CFEEF340AFF900184E02404F0A3E034B4
:1092900000F0C3E50894FDE509941F50D5740378E8
:1092A00008120640900184E02508FCA3E03509FD82
:1092B000ECF8EDF97A197B0012013488088909EE7F
:1092C0002508FEEF3509FFECF8EDF97A197B00125D
:1092D0000134900184EAF0A3EBF0EE7001EF6044FA
:1092E000900186E02EF0A3E03FF0900186C3E09469
:1092F000E9A3E094034026129329120134880889D7
:1093000009750A00750B00900188780812061A1278
:109310009329120134900186EAF0A3EBF0EEFAEF04
:10932000FB1287AC7F0402038C900186E0F8A3E077
:10933000F97AE87B032274F512027D90018878089F
:10934000120693AA08AB09AC0AAD0B80D72274F5BC
:1093500012027D8908740B1206BEE0FEA3E0FF74C2
:109360000F5508F50A750B00740B780A1206402A8F
:10937000F874803BF9E428E50B39F9E5C7F509E510
:1093800008C4540FC0E074F855C7FAD0E04AF5C7D6
:10939000801C88828983E08C828D83F08882898317
:1093A000A3A882A9838C828D83A3AC82AD83EEFABD
:1093B000EFFB74FF2A1E74FF3BFFEA7001EB70D2D3
:1093C0008509C77F0402038C74F712027D740912A9
:1093D00006BEE0F508A3E0F509ED90059EF0EC90DF
:1093E000059FF074629005A0F074739005A1F09051
:1093F00005A2E0541FF0E508333354FC9005A3F0B8
:1094000074067808120684E5089005A2F07412909C
:1094100005A4F074429005A5F075D1FE75D601EA59
:10942000906271F0EB906272F0906270E0D2E1F0C5
:10943000E0A2E740FB7F0202038CC082C083E9C345
:1094400033906272F07A02906270E0D2E0F0E0A2B3
:10945000E740FB906272E004F01AEA70EAD083D031
:109460008222D083D08222C082C08343B3017C1089
:109470008A828B83E0F5B1A3AA82AB831CEC70F0E7
:1094800080E074F812027D43B3017E101294E37001
:10949000FB7C0FEC1C70FC7C10E5B28A828B83F0A5
:1094A000A3AA82AB831CEC70F07F0102038C74F7DB
:1094B00012027D43B3017F047E041294E370FB7EAD
:1094C0000F8E081EE50870F97E04E5B28A828B8350
:1094D000F0A3AA82AB831EEE70F01FEF70DA7F025A
:1094E00002038C8C828D83E0F5B1A3AC82AD831E28
:1094F000EE2274F855B34406F5B31294672274F85B
:1095000055B3440480F22212951E1294FE22129545
:109510001E53B3F8E5B3ECFAEDFB1294822253B379
:109520008FE5B343B34022C082C083E99005C6F003
:10953000D083D082221297B312934D1295061282D5
:109540006D128EA72274F712027DEAFEEBFF748083
:109550005FF9E47001E9601B9005C68003127E6527
:10956000E0F9127EEDEA7001EB70F2EEFA74806FB2
:10957000FB8040EE5402600A1283BC74026EFAEF64
:1095800080EEEEA2E0501D128FDF9005CAE0701051
:109590007C647D007A017B009005C6E0F912874E5D
:1095A000740180D954046007128C87740480CE7AC9
:1095B000007B007F0202038C22C082C083E49005FE
:1095C00096F0900590F0A3F0D083D08222C082C0A4
:1095D00083E990059680F074F712027DE9FE900B06
:1095E00041E0FBE9C39B40047903803075080175B5
:1095F0000900EE7808120640AC08AD09EA7011ECDB
:10960000F4F8EDF4F9900590E058F0A3E0598009E2
:10961000900590E04CF0A3E04DF079007F0202034A
:109620008C74F712027D900596E0601A900590E028
:109630007002A3E07010E5A8FEC2AF128940EEA24E
:10964000E792AF12899C80D474F712027D750808E6
:10965000EAFEEBFF8E828F83A3AA82AB83ECF8ED48
:10966000F988828983A3AC82AD838E828F83E0FEEA
:1096700088828983E06E6004790080081508E50817
:1096800070CE79017F0202038C74F612027D8C0881
:109690008D09750A0078081204B77C087D00127DD8
:1096A0001D74031204E97F0302038C53BEFBE59D86
:1096B000A2E650FA0078F8790100E824FF18E934AE
:1096C000FFF9E87001E970F175C6807480659E70DD
:1096D000FA43BE047408906270F043FF0143FE0237
:1096E0007480906234F0129535127430121A981208
:1096F0008182D2AF7A157B697901128EDE1281A147
:109700007A007B0022C082C0837A0A7B00128D2AF5
:109710009006E8EAF0A3EBF07C0A7D007900127D68
:10972000D3790012115879011242207902125BF4A8
:1097300079031265DA7904129527D083D0822274D6
:10974000F812027D74081206BEE0F8A3E0F98A82DE
:109750008B838003ECF0A3E8FEE9FF74FF2E1874FE
:10976000FF3FF9EE7001EF70EB7F0102038C74F89C
:1097700012027DE9FEE49061A6F0EE906264F07A58
:10978000027B00128C6AE0FA7401F0EAA2E6E4922D
:10979000E0F97F0102038CC082C0838A828B8380C0
:1097A00001A3E070FCE582C39AFAE5839BFBD083BA
:1097B000D082227405F5D575D49E7405F5D375D283
:1097C000A622C2AF75C90B0080FD90010000000009
:1097D0000100000000580000640000001F000000AD
:1097E0002D00000097511800965118009F020000AC
:1097F000EFFFFFFF11000000FFFFFF007D000000F2
:10980000FF0F000000001000FFFFFFFFF802060935
:109810000B0000544920496E630000014408E8032E
:109820004000F86B136C226CBE6CFFE80300000A6A
:109830000000009CFFFFFF320000006311CC42B922
:109840005CF865459505544920496E6300030003A3
:1098500000030003000300030003000300030005EE
:10986000000A00140028004F009E0000003E153E34
:10987000153E153E15AF09A3093E1543990000009A
:1098800000A599000000000C0000000C000201FF80
:10989000FFFFFFFFFFFFFF97387F39633EB04100B6
:1098A000000000C8543000000000000C000004005C
:1098B0000000FCFFFF53FFC20DC6C902CB09FF72B7
:1098C000357374017186FF34B02087892B51FF27CF
:1098D0008228B38A2924FF422643FF253121FF41F4
:1098E0002332FF22304CFF454B0B6B464748FF03AA
:1098F00049000A4404710107070F01200772060896
:109900000773010E0774030F077507120776021914
:109910000777021B07100221071107230778021D92
:109920000779011F070005150D09100804303016CE
:10993000181920231A1C1E30303017181921301B1B
:109940001D1F3003007100300160001100700031F4
:109950000220035004800010006100000014006326
:109960000073007200620043000000130006000054
:1099700000000004001200000000000000000004CD
:10998000000400370037003C0244000000000000E3
:1099900000000065000000350081000000050000A7
:1099A00000830000000103710301030103010301AF
:1099B0000301032203020301031003000300030059
:1099C0000300030003000300034203000324030613
:1099D00003000300030403120325032303250323C9
:1099E0000304030403000300030003440300030013
:1099F00003230300036503210035038103000305EE
:109A0000030003000300030C0E020B040B0A0708FB
:109A1000000F3E153F154515540D9015500D160EAF
:109A200036000100060000000F00000000000000EA
:109A300000000000000003FFFF00000403FFFF0020
:109A400000FFFF0FF4010005C40403200001000023
:109A50000B000000000000000003010F000136367B
:109A600001010001020100010301000104010606D9
:109A700005020000070100340801000F090401017C
:109A80000D0100FF0E08000017020000190100FF81
:109A90001A0100011B0100FE1C0100081D0200004C
:109AA0001F01000120010001210200002301000F1D
:109AB000240200002601000127010008280200FFFF
:109AC0002A0100072B0102402C0100002D0100019A
:109AD0002E0100012F0100FF30010B1C3108000096
:109AE0003A0100083B01000F2F010000141AE51A8B
:109AF000E51A3E15E51AE51AE51AE51AE51AE51A1A
:109B0000E51AE51AE51AE51AE51AE51AE51AF80E56
:109B1000DA0EE51AE51AE51AE51AE51A030003005C
:109B20000400080010001F003E007B00F600EC015E
:109B3000D703AF075D0FB91E713D000000BE040AD8
:109B400003EAF5E5D5D5C5B5A59595858575756502
:109B500065555545453535252515150504ECECDCD1
:109B6000CCCCBCACAC9C8C8C7C7C6C6C5C5C4C4C75
:109B70004C3C3C2C2C1C0CFFFF0FFFC800000000CD
:109B80000104030364000600000000000000000060
:109B9000000000000000010000006F0802027108D0
:109BA00001007208010373080204750802058E089B
:109BB0000406770801070000010000002B00780868
:109BC0000108790801097A08010A7B08010B7C0861
:109BD000020C7E08010D7F080F0E9208010F9308FA
:109BE0000210950807119C080121000008009D083B
:109BF00002229F080223A1080100A2080100FFFF22
:109C0000FFFFFFFFFFFFFFFFFFFFFFFFFFFFFFFF64
:109C1000FFFFFFFFFFFFFFFFFFFFFFFFFFFFFFFF54
:109C2000FFFFFFFFFFFFFFFFFFFFFFFFFFFFFFFF44
:109C3000FFFFFFFFFFFFFFFFFFFFFFFFFFFFFFFF34
:10E7F000FFFFFFFFFFFFD39E851A870022FFFFFF69
:10F80000FFFFFFFFFFFFFFFFFFFFFFFFFFFFFFFF08
:10F81000FFFFFFFFFFFFFFFFFFFFFFFFFFFFFFFFF8
:10F82000FFFFFFFFFFFFFFFFFFFFFFFFFFFFFFFFE8
:10F83000FFFFFFFFFFFFFFFFFFFFFFFFFFFFFFFFD8
:04000005000000DC1B
:00000001FF
