:020000040000FA
:100000000209690202E1FFFFFFFFFFFFFFFFFFFFA1
:10001000FFFFFFFFFFFFFFFFFFFFFFFFFFFFFFFFF0
:10002000FFFFFFFFFFFFFFFFFFFFFF02077CFFFF58
:10003000FFFFFFFFFFFFFFFFFFFFFFFFFFFFFFFFD0
:10004000FFFFFFFFFFFFFFFFFFFFFFFFFFFFFFFFC0
:10005000FFFFFF020171FFFFFFFFFFFFFFFFFFFF39
:10006000FFFFFFFFFFFFFFFFFFFFFF0206FDFFFF98
:10007000FFFFFFFFFFFFFFFFFFFFFFFFFFFFFFFF90
:10008000FFFFFF0201CB9101000000000100000012
:1000900000580000640000001F0000002D00000058
:1000A00097511800965118009F020000EFFFFFFFC4
:1000B00011000000FFFFFF007D000000FF0F0000A7
:1000C00000001000FFFFFFFFF80206090B000054BC
:1000D0004920496E630000014408E80340004F0BCB
:1000E000550B5B0B610BFFE80300000A0000009C4E
:1000F000FFFFFF320000005D0CC10E7F0B010B0BF8
:100100000A05544920496E630003000300030003FD
:10011000000300030003000300030005000A0014AD
:100120000028004F009E000000750C750C750C75C2
:100130000CF10BEB0B750C471100000000A911002E
:100140000000000C0000000C000201FFFFFFFFFF99
:10015000FFFFFF610E730E9D0EAF0E000000005DED
:100160000F3000000000000C000004000000FCFF45
:10017000FFC0E074F2120561A2AFE492E0FED2AFDC
:10018000E5A7FAE5A1FBEA5B54106008120D1775AC
:10019000A1EF802AEAA2E0C0D0EBA2E092F0120820
:1001A000D9158182F05017906198E0FA9007EAE043
:1001B000C39AA2D265D0335002EAF075A1FE751A37
:1001C00000EEA2E092AF7F010205C0C0E074F2121F
:1001D0000561A2AFE492E0FED2AF9061A4E0FA75AF
:1001E0009B00E5915A540860097591F7120E1302AD
:1001F000029AE5915A5410607B7591EFE0C2E4F0E9
:100200009061E4E07006120DE302029AE06401706E
:100210005E74049007E1F0120DB39007E5E004F07E
:10022000900795E0C0E09007E5E0FAD0E0C39A506F
:100230000779E1120DEF80629007E3E0F87401287E
:1002400008E43400F99007A1E0FAE89AE99400C3C1
:1002500065D03350079007E3E0048001E09007E3A6
:10026000F0120DD174839007E1F0120DDD802B1296
:100270000DE98026EAA2E0C0D0E591A2E092F0125A
:1002800008D9158182F05012E0C2E0F0E49007CE68
:10029000F09007CCE07003120D899061A3E0FAE5BD
:1002A000E95A540460389007DDE070277401900724
:1002B000DCF09007CFE0F8A3E0F58388821210B558
:1002C000E49007DCF09007DDE06008120D5FE49039
:1002D00007DDF075E9FB906193E0A2E640C80201FA
:1002E000BEC0E074F2120561A2AFE492E0FED2AFAC
:1002F0009061A5E0FAE5BF5A5404600C75BFFB900D
:1003000007DEE004F0120D590201BEC3E498F8E4E0
:1003100099F912034C8026C3E49AFAE49BFBE92086
:10032000E7E912034CE498F8E499F922C3E498F859
:10033000E499F912034CE498F8E499F9C3E49AFAC1
:10034000E49BFB22EB20E7CFE920E7E0B90010BBFC
:100350000008E88AF084F8AAF022E4FBC8FA22EB4D
:1003600070227B10C833C8C933C9335007C39AC33E
:10037000DBF280069A50012ADBEAC833F4C8C9339D
:10038000F4C9FA2275F008E4C833C8C933C933C9BF
:100390009AC99B5004C92AC93BD5F0ECFBC833F479
:1003A000C8E4C9FA22080808EAC0E0EBC0E086F019
:1003B000E7A4FA180986F0E7A42AFA180986F0E7F4
:1003C000A42AFA180986F0E7A42AFA1986F0E7A405
:1003D000FBE5F02AFA190886F0E7A42BFBE5F03AD2
:1003E000FA190886F0E7A42BFBE5F03AFA18180989
:1003F00086F0E7A4C5F02BFBE43AFA1908E7C5F04C
:10040000C6A426F6E5F03BFBE43AFA1886F0E7A42A
:10041000F6E5F00826F6E43B08F6E43A08F6D0E004
:10042000FBD0E0FA22E4CFC0E0E4CEC0E0E4CDC0EF
:10043000E0E4CCC0E075F020C3E633F608E633F61E
:1004400008E633F608E633F6181818EC33FCED33FB
:10045000FDEE33FEEF33FFC3EC9709ED9709EE97FE
:1004600009EF97191919400FFFEC97FC09ED97FD5B
:1004700009EE97FE191906D5F0BEECF709EDF7095C
:10048000EEF709EFF7191919D0E0FCD0E0FDD0E044
:10049000FED0E0FF222518C582C0E0E51934FFC573
:1004A00083C0E0E518C3958224F8F8E4C5A88583E5
:1004B00019858218C5A8E8CEF0A3E520F0A3780836
:1004C000E608F0A3DEFAEFF0A3E58124FAF8E608E7
:1004D000F0A3E608F0A3E608F0A30808E608F0A3F6
:1004E000E608F0A315811581D0E0FED0E0F8158173
:1004F00015811581E8C0E0EEC0E0221210B2B9000B
:100500000302054BE4791A7801B800028004F70968
:10051000D8FCE49001817848790A8002F0A3D8FCE5
:10052000D9FA900AC8AA82AB8390008678EC790148
:100530008015E493A3AC82AD838A828B83F0A3AA57
:1005400082AB838C828D83D8E9D9E775823275833B
:10055000A4740112075E7582AD75831074001207D2
:100560005EC0D02518C582C0E0E51934FFC583C040
:10057000E0E518C3958224F310AF088583198582BE
:10058000188008858319858218D2AFC8F0A3E9F0D6
:10059000A3EAF0A3EBF0A37908E709F0A3D8FAECFB
:1005A000F0A3EDF0A3EEF0A3EFF0A3D0E0F0A3D022
:1005B000E0F0A3D0E0F0A3E520F0A3E5F0F0A32263
:1005C000851983851882E0C0E0A3E0F9A3E0FAA3CF
:1005D000E0FBA37808E0F608A3DFFAE0FCA3E0FD67
:1005E000A3E0FEA3E0FFA3E0C0E0A3E0C0E0A3E03F
:1005F000F5D0A3E0F520A3E0A3F5F0E4C5A885833A
:1006000019858218C5A8D082D083D0E0F8D0E03216
:10061000851983851882E0A3FEE0A3F5207808E021
:10062000A3F608DFFAE0A3FFE0A3C0E0E0A3C0E088
:10063000E0A3C0E0E0A3C0E0E0A3C0E0E4C5A8857B
:100640008218858319C5A8D083D082020764D0831D
:10065000D082C5F0E493A3C5F0C395F0F5F0E49320
:10066000A3C395F04005E5F0048001E475F002A411
:100670002582F582E5F03583F583E493A3C0E0E4B9
:1006800093C0E02274028000CCC0E0EDC0E0E51829
:10069000C39CCCAD1950011D10AF068C188D19806C
:1006A000068C188D19D2AF12071ED0E0FDD0E0FCE9
:1006B00022D083D082CCC0E0E493A3600612073F2F
:1006C0001470FAE493A360061208491470FAD0E09B
:1006D000FCE493A3C0E0E493C0E022CAC0E0E4934A
:1006E000A3C582CCC582C583CDC583F0A3C582CC0A
:1006F000C582C583CDC583DAE5D0E0CA22C0E074E7
:10070000F2120561E5A8FED2AF120A47758900C250
:10071000C5751A00EEA2E792AF7F010205C0CAC0FC
:10072000E0E0A3C582CCC582C583CDC583F0A3C557
:1007300082CCC582C583CDC583DAE6D0E0CA22C0AB
:10074000E0E493A3D39C5010E493A3C39C400AD04D
:10075000E0D0E0D0E00206CEA3A3A3D0E022C09F69
:10076000F59FE473D09F22D083D082C09FE493C0D2
:10077000E0740193C0E0740293F59F22C0E0C0D002
:10078000EAC0E0E5A8D2AFC2C7751A00A2E792AFEF
:10079000D0E0FAD0D0D0E0322518F58210AF08F5BD
:1007A00018400215198008F51840021519D2AF85B6
:1007B0001983227404800A74038006740280027410
:1007C00001C0E0F404120798D0E01209A622BB0190
:1007D00002E722C082C08389828A83BB0003E08053
:1007E00002E493D083D08222C0D0251810AF08F540
:1007F00018500205198008F51850020519D2AFD01B
:10080000D0226016080808C6C313C618C613C61837
:10081000C613C618C613C6D5E0EA22C3E0C696F6CC
:1008200008A3E0C696F608A3E0C696F608A3E0C6BD
:1008300096F622251810AF08F51840021519800801
:10084000F51840021519D2AF22C0E0E493A36C70F2
:1008500009D0E0D0E0D0E00206CEA3A3D0E022E0B1
:1008600066701008A3E066700A08A3E066700408CA
:10087000A3E06622E76670100809E766700A0809B7
:10088000E76670040809E76622C3E09608A3E096CD
:1008900008A3E09608A3E096A2D265D03322C3E075
:1008A00096F008A3E096F008A3E096F008A3E0967F
:1008B000F022C3E697F60809E697F60809E697F6E8
:1008C0000809E697F622E026F008A3E036F008A330
:1008D000E036F008A3E036F022C0E0E8C0E0E581B1
:1008E00024FCF8E6A2E7D0E0F8D0E022E026F60803
:1008F000A3E036F608A3E036F608A3E036F622E0D9
:1009000056F608A3E056F608A3E056F608A3E0560C
:10091000F622700422600D18C6C333C608C633C65B
:10092000D5E0F41822E627F60809E637F60809E6C6
:1009300037F60809E637F622E4C396F608E496F699
:1009400008E496F608E496F622C3E09608A3E0963B
:1009500008A3E09608A3E09622C3E7960809E79665
:100960000809E7960809E7962275D0007581407559
:100970001881751901000204FBE0F608A3E0F608EF
:10098000A3E0F608A3E0F622E6F008A3E6F008A349
:10099000E6F008A3E6F022600C08C6C313C618C62A
:1009A00013C6D5E0F422CAC0E0E6F0A308DAFAD014
:1009B000E0FA222518F582E43519F583221207673B
:1009C00074A20112076777A20112076784A20112BD
:1009D0000767F39E01120767019F01120767F9A4D9
:1009E000011207670B8801120767348B0112076732
:1009F000ED8C01120767CD8E0112076743A5011226
:100A00000767A3A201120767B3A201120767C8A272
:100A1000011207673BA301120767D47E0012076724
:100A2000D77E00120767517F00120767C37F00124D
:100A300007672E9D01120767679D01120767C79D13
:100A400001120767689E01120767C29E01120767BD
:100A5000EB9E01120767EE9E01120767F07A001203
:100A60000767FE7A001207677E7B00120767457CE6
:100A700000120767FB7D00120767607E00120767A0
:100A8000C07E00120767F87F0012076739980112CD
:100A90000767AB99011207673D9A01120767899AA8
:100AA00001120767079B01120767269B0112076760
:100AB000E37200120767BA7300120767F873001237
:100AC0000767587400120767AD74001207670A754C
:100AD00000120767A47500120767AC76001207675B
:100AE00057780012076701790012076766790012CC
:100AF00007677A7900120767A57A001207670080F6
:100B0000011207671E8001120767DE800112076766
:100B10006D81011207678F8101120767A58101129C
:100B20000767A88101120767AB8101120767AE81D1
:100B300001120767DA8201120767DD820112076777
:100B4000E082011207674F8301120767C185011216
:100B500007673986011207675486011207676586A1
:100B600001120767018701120767428701120767B1
:100B70009387011207678EA401120767DB680012D2
:100B80000767AC69001207676F6A001207677E6B20
:100B900000120767E56B001207676A6C00120767AF
:100BA000F56C001207676C6D00120767B56D0012D7
:100BB0000767586E00120767696E00120767796E43
:100BC000001207679D70001207673F7100120767E8
:100BD000FF7100120767917200120767ED7F001224
:100BE00007679D1500120767EB15001207672717A7
:100BF000001207673A1700120767481700120767C5
:100C0000EA17001207675719001207674C1A0012FB
:100C10000767BD1A00120767C71A00120767891B0A
:100C2000001207679A1B00120767CD1B00120767A7
:100C30001E1C001207674D1C001207676B1C001278
:100C40000767D71C00120767EB1C00120767F21D2D
:100C500000120767071E00120767B81E0012076719
:100C6000C31E00120767D81F00120767F41F001287
:100C70000767532000120767C52200120767C822C2
:100C800000120767D42200120767182300120767B3
:100C9000D823001207676B2500120767742500121E
:100CA0000767952500120767F72500120767C52714
:100CB00000120767C827001207672198011207670B
:100CC0004F28001207675F28001207678328001269
:100CD0000767CD2800120767F52900120767622A07
:100CE00000120767FF2A00120767292B0012076707
:100CF000792B0012076767A2011207672B2C0012DD
:100D00000767562C00120767992C00120767BE2C44
:100D100000120767EC2C001207671F2D00120767EF
:100D2000B02E001207672C2F00120767392F001210
:100D300007675E2F00120767E32F00120767203056
:100D400000120767413000120767873000120767FB
:100D5000963000120767AF3000120767ED300012BF
:100D600007670831001207677231001207674235C2
:100D7000001207672536001207675636001207670C
:100D8000AB3600120767963700120767BE370012AE
:100D90000767E737001207671738001207676A38D6
:100DA00000120767883800120767A9380012076722
:100DB000C83800120767EA380012076719390012AD
:100DC00007673439001207676639001207670B3A64
:100DD00000120767143B00120767813B0012076788
:100DE000E43B001207671C3C001207675A3C0012E4
:100DF0000767893C00120767AA3C00120767D23CCC
:100E000000120767003D001207675B3D001207678D
:100E1000FB3D001207670F3E00120767823E00127B
:100E20000767FD3F001207671840001207672F4051
:100E300000120767444000120767AC4000120767C2
:100E40000D41001207676F4100120767B64100129B
:100E50000767E34100120767FA4100120767704213
:100E600000120767304500120767804500120767C8
:100E7000E145001207671846001207675F46001237
:100E80000767494800120767EE48001207672649BE
:100E900000120767844900120767D54900120767E7
:100EA000194B00120767524B00120767834D00125F
:100EB0000767434E001207677F4E00120767B34E65
:100EC00000120767624F001207671F510012076781
:100ED0000652001207672E52001207673D53001298
:100EE0000767A754001207670C55001207673D55A6
:100EF00000120767C55500120767F955001207670A
:100F00003856001207678056001207679B5600127A
:100F10000767B95600120767DC5600120767DC57EF
:100F200000120767AB5800120767F65800120767F0
:100F3000205A001207673A5A00120767CB5A00126C
:100F40000767955E00120767186000120767536114
:100F5000001207676B61001207677D610012076767
:100F6000A16100120767356200120767F96200127B
:100F70000767966300120767846400120767496574
:100F800000120767E765001207675E6600120767D1
:100F9000AA6600120767BC6700120767FF670012A6
:100FA0000767CFA30112076710A401120767CAA43D
:100FB0000112076725A501120767DD970112076770
:100FC0004F9601120767149601120767F1950112F7
:100FD0000767D49501120767939501120767EB9491
:100FE00001120767D39401120767A8A301120767CC
:100FF0005EA30112076754A3011207673EA3011203
:101000000767B79C01120767B19B011207678D9BA9
:1010100001120767299B01120767ACA1011207673C
:101020005AA20112076716A201120767EAA101126C
:101030000767ABA001120767079401120767E893DF
:1010400001120767BC2B00120767B49301120767F0
:10105000759301120767289301120767A99201127D
:101060000767C3A101120767778F011207675292C2
:1010700001120767F8910112076753910112076780
:10108000F49001120767CD90011207677790011263
:1010900007676390011207673B9001120767CB8FC8
:1010A00001120767858F011207673A2800000000C8
:1010B00080FB790122E47300013636010100010250
:1010C00001000103010001040106060502000007FA
:1010D0000100340801000F090401010D0100FF0E99
:1010E00008000017020000190100FF1A0100011B8F
:1010F0000100FE1C0100081D0200001F010001206C
:10110000010001210200002301000F24020000263B
:1011100001000127010008280200FF2A0100072B17
:101120000102402C0100002D0100012E0100012FC1
:101130000100FF30010B1C310800003A0100083BA0
:1011400001000F2F01000003007100300160001149
:101150000070003102200350048000100061000084
:10116000001400630073007200620043000000136B
:101170000006000000000004001200000000000053
:1011800000000004000400370037003C0244000067
:101190000000000000000065000000350081000034
:1011A000000500000083000000010371030103013A
:1011B00003010301030103220302030103100300DF
:1011C00003000300030003000300030003420300C5
:1011D000032403060300030003040312032503236F
:1011E0000325032303040304030003000300034453
:1011F000030003000323030003650321003503817B
:1012000003000305030003000300037108020273D7
:1012100008010074080103750802047708020590AC
:10122000080406790801070000010000002B007A7D
:101230000801087B0801097C08010A7D08010B7E72
:1012400008020C8008010D81080F0E53FFC20DC665
:10125000C902CB09FF72357374017186FF34B02067
:1012600087892B51FF278228B38A2924FF422643EE
:10127000FF253121FF412332FF22304CFF454B0B2C
:101280006B464748FF0349000A4404360001000644
:101290000000000F0000000000000000000000003F
:1012A0000003FFFF00000403FFFF0000FFFF0FF437
:1012B000010005C4040320000100000B0000000031
:1012C0000000000003010F710108070F01210772E0
:1012D00006090773010F07740310077507130776D4
:1012E000021A0777021C0710022207110724077849
:1012F000021E07790120079408010F950802109734
:101300000807119E080121000008009F080222A181
:10131000080223A3080100A4080100FFFF0FFFC873
:101320000000000001040303640006000000000048
:1013300000000000000000000000010000000300A9
:1013400003000400080010001F003E007B00F600B0
:10135000EC01D703AF075D0FB91E713D000003EA32
:10136000F5E5D5D5C5B5A59595858575756565559D
:1013700055454535352525151505C90CC90CC90C2C
:10138000C90CC90CC90CC90CC90CC90CC90CC90CB5
:10139000C90C390C330C04ECECDCCCCCBCACAC9CF4
:1013A0008C8C7C7C6C6C5C5C4C4C4C3C3C2C2C1CCD
:1013B0000C0BF4F5E5D5C5B5A5A5958575756565E1
:1013C0005555454545352525151505750C7B0C816D
:1013D0000C150C870C0F0C1B0C140AE5D5C5B5A514
:1013E000A59585857565303016181920231A1C1EA1
:1013F00030303017181921301B1D1F300C0E020B16
:10140000040B0A0708000FAB0CC90CC90C750CC9FA
:101410000CC90CC90CC90CC90CC90C0005150D0967
:101420001008045E13D913B1139613961396130084
:10143000FA06F60000BE040AF582EB12154EA2E28F
:1014400022780812098802148BF582EF12154E22B9
:10145000E5A4851882851983F0E5A5C0E074011222
:1014600009B3D0E0F0E5A6C0E074021209B3D0E001
:10147000F074031209B31214907808120979AA08BB
:10148000AB09AC0AAD0B74041207E87F0402061026
:10149000E4F0EAA2E792AF85188285198322E81268
:1014A00014A322244BF582E9340BF58322120CEDB0
:1014B0009007A212482D7A147B0022120C6F74023E
:1014C000221214C522E024FFF8A3E034FFF922E041
:1014D000F50AA3E0F50B2212154EA2E522E0131344
:1014E000543F540322A3E08E828F831214EF22F024
:1014F000EE24FF1EEF34FFFF227F05020610FB12D1
:101500000F9FE9221214DD22E50824FBF582E5098C
:1015100034FFF58322E50812225DE50912154E22FB
:10152000A3A3A3E0FA8882898322E0F508A3E0F56B
:1015300009E50822120CE174041207E87F0802068C
:10154000107A307B07121059740222F582EF125E76
:1015500083E022A2E70238E5120CE1740422EE24B3
:101560000EF582EF125E7F22EE240DF582EF12154A
:101570004E640122E0FEA3E0FFEE22124528A3A361
:101580002239FB7F07020610F0EEFAEFFB22EE2471
:1015900012FCEF3400FD2212154E640222E9FDEA2E
:1015A000FC74062DFAECA2E0501EEA75F00A84AB3A
:1015B000F0EB6014740A2AC39BFAEBC39405400451
:1015C000740A2AFA740B2AFAEDC3941340047814AF
:1015D00080027806E82AF8740928F8E43400F97AD9
:1015E0000A7B00120344E8F9020764C082C08374D6
:1015F000FE12083385188285198312171912064EB8
:101600000003D8160C166316D8168816900782E0C9
:10161000640F6018120C4BE97012851882851983CB
:1016200012230F900B6F1225111210B59007AAE02C
:10163000C0E085188285198312351CD0E01216F49B
:1016400074141216EFFCA3E0FD7A327B07121071BE
:10165000E5A8FAC2AF9007381217107920120C3F94
:10166000026786900758E0851882851983A3701158
:10167000126014740D1216EFFAA3E0FB120EDF8055
:10168000DF126014741580BA1267AD604B1267AD3B
:10169000141216F41216E8C0E08518828519831218
:1016A0003E73D0E01216EF2402F812192024011222
:1016B00067958882898312171914C39409501912E7
:1016C000600DA3A3A3A3A3E0240AC0E012600DD081
:1016D000E012171D04021642851882851983AA821A
:1016E000AB83120C69021660A3A3121939E022120F
:1016F0002C44E0221216F822122C481216FF22E087
:10170000F8A3E0F583888222E5A8FAC2AF900737F4
:10171000E004F0EAA2E792AF22EAF0A3EB1216F897
:10172000A3A3A3A3A3E022C082C083120C4BE96051
:1017300004792080027901022564C082C083EA1204
:101740002255E0D2E0022563C082C08312224812F3
:10175000156E70111217D4400C8A828B83A3E0F9A6
:10176000120C45806CEA122250EB12144CA2E65087
:10177000128A828B83A3E0F9900B7112251112104B
:10178000B5804E12224812156E70091217D45004FB
:10179000743080368A828B83A3E0641B70047422C9
:1017A00080288A828B83A3E0700F12224812144C87
:1017B00024E6F582E43413800D12224812144C24DE
:1017C000F1F582E43413F583E4938A828B83121754
:1017D000E0022564EA240FF582EB12154EA2E32203
:1017E000F0900751E0F912107D2274F7120495E988
:1017F000FE900739E07002A3E0603EEE7006121919
:1018000024E48014741B6E703390073912228EE02A
:10181000640570EA121924EE123B00FB120BF790DC
:101820000739E0240E121A4050031225159007398B
:10183000E4F0A3F07910120C3F02204674E96E60C8
:10184000030218E39007391244D37038120F93E95A
:10185000603212194A402D9007A4E0C0E090073989
:10186000E024111244BED0E0F0900793E0C0E012F3
:101870001940A3A3D0E0F0900793E004F07901129F
:101880000DCB80B59007391244D3900739604CE0F6
:10189000240E181818121951900739E04014241119
:1018A00012191D14F074019007E8F09007E2E0F9B6
:1018B00080CD240F12191FC2E7121A46240DF81208
:1018C00019206403700C900739E0241012191DD2FE
:1018D000E2F012192C1210B502181F12192774E920
:1018E00002181874E16E7014120F93E97003021855
:1018F0001412194A5003021814021857741C6E600F
:101900000302181490073912230F900B7712251138
:101910001210B5900739E4F0A3F00218390808084E
:101920001244DB22900739121939A3229007391289
:101930002313900B6D12193922E0F8A3121702221B
:101940009007391236A012193922900739E0240E77
:10195000F81244DBA2E22274F4120495750A0075B1
:101960000B00A2AFE492E0FEC2AF900739E0700234
:10197000A3E06008EEA2E092AF021A2A900B751263
:1019800025111210B5E94410FA9007308009850836
:101990000A85090B12150812152A7002E50960D490
:1019A0001215155A6A70E7780A1207BBAC08AD0920
:1019B0001215411207E8900739E508F0A3E509126E
:1019C0001A46121A3E4066900737E014F0EEA2E085
:1019D00092AF900739E0240E1818123693E8FEE90A
:1019E000FF8E828F83E0FA900739E0F81267B3F92F
:1019F000120BDFE9900734F0A3E4122AE3E0A2E738
:101A00005018900739E02412121A32120D3B900739
:101A100039E02413121A32120D2F900739121A3797
:101A2000A2E1B3E492E0F9120DCB02148B900736D9
:101A300080981244DAF922E0240F1244DA222410AA
:101A40001244DAA2E722F0900739E02274F7120478
:101A500095EAFEEBFF120C6312224FEF1217DA40E9
:101A6000091215687004790280027905EEFCEFFD19
:101A70007A307B07121053E9602FEEFAEFFB900BE0
:101A8000731225111210B5EE240EF582EF12143BDD
:101A90004008121708120C038014EEFAEFFB900BAB
:101AA0006B1225111210B5800574F1121AB10220C3
:101AB000468E828F83A3121588120BF722C082C034
:101AC00083120C0302256474F7120495EAFEEBFFFF
:101AD0007900900756E05402700DEE242FF582EF46
:101AE00012143B500279E8900756E05460700CEEF7
:101AF000242F121449A2E1500279E88E828F83A329
:101B0000A3A3A3E0C39475400279E8EE242D121438
:101B1000497010EE242A121449700879F5120C4508
:101B2000022046E970F7EE240D121B83F0EE242FFD
:101B3000121449C0E012155ED0E0F0EE2430121409
:101B400049C0E0EE2412121561D0E01222A0C0E0DC
:101B5000EE2413121561D0E0F0EE242B1215611261
:101B60000684EE2422FCEF3400FDEE242D121449ED
:101B7000F91214BB1207E8E970A6EEFAEFFB120C9B
:101B800009809D125E7C740122C082C083740D8A1C
:101B9000828B83F0120EDF022564C082C083E48A48
:101BA000828B83F0A3F0EA242F121438401190079F
:101BB00037E0C39402401179F1120C45022564907C
:101BC0000736E0C3940250EF121EAF80EF74F31299
:101BD0000495890CEA241BF582E43414F583E4931C
:101BE000244AFE890A250AFAE43400FB121089EA25
:101BF0007001EB60158A828B83A3A3A3A3E50CF08D
:101C00008E08121C111250F780047A007B00021417
:101C1000F9EA2508F8EB3400F98A828B8322C08226
:101C2000C083E490074FF0900750F0900743121CD8
:101C3000457402900745F090074C121C45740190C2
:101C4000074E022563743FF0A3740CF02274F01267
:101C500004951228861209797808790C1203A57860
:101C6000081207B37A467B0702153474F412049500
:101C700074CE120833900782E0640F6007742E124E
:101C80001FC980237A3D7B071214AD12034C8808CC
:101C90008909750A00750B0078081207B37A3D7B35
:101CA000071215581207E87432021488FAEF34004C
:101CB000FB7950120CA5221207E80220467402029A
:101CC0001CB7AA82AB83121095851882851983AA46
:101CD00082AB83120EDF2274F7120495E9FA7B00BF
:101CE000900751E0F912104D02204674F412049549
:101CF00074F0120833E9FE8A828B83E024FCF582BB
:101D0000E43413F583E493C0E074011209B3D0E026
:101D1000F0640B700DEE8A828B83A3F0120C8702A5
:101D20001DEDE07003021DED640C6003021DDA740A
:101D3000041209B3122B73EA242EF582EB12144C11
:101D4000C0E074031209B3D0E0122262A3A3A3A3DC
:101D5000A3780812097974061209B3780812098861
:101D60008A828B83A3A3A3A3A3A3A3A3A31250D963
:101D7000740A1209B3E8F0A3E91222785003E48050
:101D80000E126007EB12144CFC9007A4E0C39C8574
:101D90001882851983F0E0C0E0740C1209B3D0E01A
:101DA000F0EA2414F582EB12144CC0E0740D120911
:101DB000B3D0E0F0EA2415F582EB12144CC0E074C5
:101DC0000E1209B3D0E0F0EA2416F582EB12144C9F
:101DD000C0E0740F1209B3D0E0F074021209B3EE40
:101DE000F074011209B3AA82AB83120EDF741002E1
:101DF0001488C082C083900758E06403700479019E
:101E00008002790002256474F61204959007581236
:101E1000689B2479F582E9340BF58312204BE0C2EC
:101E2000E7F0C333FCE82CF582E9121564A3E493D0
:101E3000FEC333FCE433FDEC2479F582ED340BF57D
:101E400083E07002A3E06005EE900758F08A828B71
:101E500083E0C333FCE433FDE82CF582E93DF583F0
:101E6000E493F508C4540FC3332467F582E43407C0
:101E7000F5831222977001E970118A828B83E0C387
:101E8000940B50207918120C458019740F5508C313
:101E900033FCE82C121EA793C0E0740193F583D0A5
:101EA000821210B5023791F582E9125E7FE422902A
:101EB0000751E0F912107D22C082C083E9900751DA
:101EC00002256374F612049574FE120833EAFEEBE1
:101ED000FFEE54207031803CE5A8FCC2AF9007387B
:101EE000E014122FDC8A828B83121FAD90075412EC
:101EF0002B73120C51851882851983E064156007D5
:101F00007A547B07120C697A327B0712106BEA70E5
:101F100001EB70C474805FF9E47001E97005801111
:101F2000121FB6900751E0F9121077EA7001EB70BA
:101F3000EFEE54106005742D121FC9EEA2E050059B
:101F40007424121FC9EE540260057425121FC9EED5
:101F5000540460057426121FC9EE540860057428E5
:101F6000121FC9EE5440600C74011209B3E4F074FE
:101F70002C121FC9EE5480600C74011209B3E4F0F6
:101F8000742F121FC9900752E07002A3E06017E59A
:101F9000A8FCC2AF90075212230F900752E4F0A39F
:101FA000122FDC121FB67A007B0002378CE08518F6
:101FB00082851983F022900754EAF0A3EBF0120C0B
:101FC000517A547B07120C6922851882851983F097
:101FD000AA82AB83120C5122C082C0839007541294
:101FE00050D9EA687002EB697007900754E4F0A3D7
:101FF000F002256474F7120495A2AFE492E0F508AC
:10200000C2AF8A828B83E07002A3E060338A828B46
:1020100083124B4CEC24FBF8ED34FFF9900754127B
:102020002EAAEC6E7002ED6F7007900754E4F0A3D7
:10203000F08A828B83E4F0A3F0E8FAE9FB120FFF49
:102040000238E11251167F0102061012482D8A82D1
:102050008B832274EA1204958A088B098C108D11E7
:1020600074161209B3122286750A008C828D83A31E
:10207000A3A3A3A3A3A3A3E0F512E9A2E7500875C5
:102080000CFF750DFF800A900797E0F50CA3E0F5B3
:102090000DE9C2E7F513EA240EF582EB1214D7EA34
:1020A000500B122250EB1215647408800712225054
:1020B000EB121EAA122268A2E2EA500712225574FD
:1020C0008080051222557410122278500912600780
:1020D000EB121EAA800F9007A4E0C0E0126007EB8D
:1020E000121564D0E0122268A2E05003750A208A1B
:1020F000828B83A3A3E024FFFEA3E034FFFF122220
:102100004812144CC39402E04006141214E77403FE
:10211000450AF50A851314751500740E7814120912
:1021200012E515F50B74026513701190079C1214DB
:10213000E690079B1257CC12223F801A7403651356
:1021400070101222367CAB7D07EEFAEFFB120FA562
:1021500080E5E5136026E5126014E50E650C700459
:10216000E50F650D70087440450AF50A800E8E82F1
:102170008F83E50D12227EE50C1214EB85120C758F
:102180000D00740A780C120912E50D450BF50B745D
:1021900002651270178510828511831214E585106F
:1021A000828511831257CC12223F801A7403651264
:1021B0007010122236AC10AD11EEFAEFFB120FA523
:1021C00080E5E512600E8E828F83E50F12227EE598
:1021D0000E1214EBEEF8EFF9E824FF1EE934FFFFCE
:1021E000E508240DF582E50912144C700590078767
:1021F0008003900793E0FA04F0EA88828983122A28
:10220000E3E50B12227EE50AF0E5082404F8E5096F
:102210003400F9E5082402FAE5093400FBEEFC126B
:1022200068AFFDE02DC39C122262EEF0A3EFF079BF
:10223000007F0E020610EE24F9FEEF34FFFF22EEBF
:1022400024FF1EEF34FFFF22EA240DF582EB22EE7D
:10225000240FF5822212225DEB125E7F222410F5FC
:102260008222F08A828B832212226C22F0EA240ED0
:10227000F582EB125E83E02212226CA2E422121499
:10228000EF8E828F8322E0F50EA3E0F50F22E0248B
:102290000D1244CC22A3A312229B22124831E82221
:1022A000F0EE243112154B221223B5A3E022125E68
:1022B0007F1222B522E50CF0A3E50DF0A3E50EF0A8
:1022C000A3E50FF022020764C082C0837919120CC3
:1022D0004502256474F7120495EAFEEBFF9007525D
:1022E000E07002A3E0601090075212230F120C7BE3
:1022F0007A527B07120C69EEFAEFFB120C6390071F
:1023000052EEF0A3EFF0022046A3A3A3A3A3A312CF
:10231000231322123B08FB2274F712049574DE1279
:102320000833EAFEEBFF8E828F83E01206B1011EB6
:102330001F7B2303033F23057B23183F2384237440
:10234000161209B3E41223C2740B1209B3AA82ABAA
:1023500083120FA574131209B37403122526740295
:102360001209B31250F9740A1209B374021223BA93
:1023700074141209B3E8F0A3E9801074161209B3BB
:10238000740180C174161209B37402F0740B8518BD
:10239000828519831223B1E0C0E074011209B3D021
:1023A000E01223D074171209B3121CC27422021C4B
:1023B000B71223B522122AE7A322F09007971248FA
:1023C0002D22F01223C722EE2417FCEF3400FD2249
:1023D000F07C0B7D0079002274F612049574FE12D5
:1023E0000833E9FEA2AFE492E0FFC2AFEE601C90BA
:1023F000128B7C7A7D07743C1206DB120D23E99068
:102400000793F0120D23E9900787F0900B8BE07093
:1024100018120DA7E49007CDF09007DBF0906180D3
:10242000124802120D47120D4D53A7EF120CFF1266
:102430000DC5122515900779E0F9120D291227B65E
:10244000122526E8906174F0E91239F9750800E563
:1024500008C333F8E433F9122506E07002A3E06004
:10246000091225061225111210B50508E508C394B6
:102470000740DC900752E07002A3E060077A527BCD
:1024800007120C69E4900758F09006E9E07002A387
:10249000E0601E800D851882851983AA82AB8312A5
:1024A0000C699007511250DD1250F9E87001E97083
:1024B000E4E49007B6F080077A307B0712252E906F
:1024C0000730E07002A3E070EF900732E07002A3E3
:1024D000E060097A327B0712252E80ED900730E408
:1024E000F0A3F0900736F0900737F0900738F0909F
:1024F0000779F07A9A7B077952120CA5EFA2E09245
:10250000AF790002378CE82459F582E93407F58366
:1025100022121939229007AAE0F9120D3B9007A95F
:10252000E0F9120D2F22F090079B12482D22121075
:102530006B851882851983EAF0A3EB1228C5120C6B
:102540006922F0900756E4F0A3F0120D1D8015F0FB
:10255000900759742DF0A3740CF0900756E04401D5
:10256000F0A3E0F0D083D082020764C082C083125F
:102570000D2380F0E9FA74C02AC3941E500674C07B
:102580002AF9800E74202AC394065004743E80F009
:10259000792402076474F3120495EAFEEBFF120C2F
:1025A00099E9F50874246508700479F48046E5A873
:1025B000F50CC2AF75090074027808120912E5081B
:1025C00024B7FAE5093410FB8A828B83E493247ADA
:1025D000F508E43407F509750A0078081207B78A88
:1025E000828B83A3E49312669D1207E8E50CA2E7B1
:1025F00092AF79000214F974F11204958908EAFE89
:10260000EBFF74456508700B90077FEEF0A3EFF0C9
:10261000022793120C99E9FA8A0974246A700579E1
:10262000F4022795890A750B007402780A120912C0
:102630001227A77014890A750B007402780A120910
:102640001212279870030226D6890A750B007402AD
:10265000780A120912E50A24B7FAE50B3410FB8A4E
:10266000828B83A3A3E493FC8A828B83A3A3A3E43A
:10267000936C700579FB02279574586508701B8E62
:10268000828F83E02471F8A3E034FFF9C3E8942239
:10269000E99464400579E80227958E828F83E0C033
:1026A000E085090A750B007402780A1209121227D4
:1026B000A7FAD0E0C39A40DD85090A750B007402C1
:1026C000780A120912122798C0E08E828F83E0FAEE
:1026D000D0E0C39A40BFE5A8F50AC2AF85090C75E2
:1026E0000D007402780C120912E50C24B7F8E50D00
:1026F0003410F9E8FAE9FB8E0C8F0D750E00780C9A
:102700001207B78A828B83A3E493FC7D008A828BB5
:1027100083E493247AFAE434071266A31207E8E507
:102720000AA2E792AFE5081206B10007504327520C
:102730005927534927E08427E16B27E27527E58B6A
:102740002793271227B602260F90079B12229790F5
:102750006174F0E990617580ED90079AE07902600C
:1027600005120D9B802D120DA180289007AAE0F97B
:10277000120D3B801E79087CAB7D077A6A7B611263
:102780000E49800F9007A9E0F404F09007A9E0F942
:10279000120D2F7900021583E50A24BAF582E50BA4
:1027A0003410F583E49322E50A24B9F582E50B346D
:1027B00010F583E4932290079712229B906172F0A8
:1027C000E99061732202076474F7120495E9FE90A0
:1027D00007B6E06E700479008034E0702F900758DF
:1027E000E0600464027025A2AFE492E0FFC2AF9003
:1027F00007CCE070129007CEE0700C9007E1E0701B
:10280000069007E0E0600AEFA2E092AF79E20220D2
:1028100046120DBFEE900B8BF0EFA2E092AF5394F7
:10282000FEE594A2E240FA74016E60079061A5E0B3
:10283000C2E2F0EE9007B6F0809CC082C0839007A1
:10284000B6E06008120DC5E49007B6F0022564C03A
:1028500082C08390076774CBF0A37413022542C033
:1028600082C0839007697407F0A37414F090076D19
:10287000747AF0A37413F090076F7411F0A37414BA
:1028800002254F0207649007A5122898750A007563
:102890000B00900BA3780C22E0F5087509002212BA
:1028A000193AA3A3E0F508A3E0F50922EE2412FAF1
:1028B000EF3400FB22EE241AF582EF12154E64036A
:1028C000221228C522122C48AA82AB832274F0124D
:1028D00004959007BBE4F0A3F09007B7E07002A363
:1028E000E060379007B712369CC082C083900B839C
:1028F0007808120979D083D0827808120889501A92
:102900001229D91229EC12088950061229EC120951
:10291000889007B71229E51250F99007B9E07002C4
:10292000A3E09007BB6030E07002A3E0601E900758
:10293000B912369CC082C0839007BB1229EF1209DE
:1029400079D083D082780812088950129007B91282
:1029500029E51250F98007E07002A3E06075123695
:1029600099C082C083900B837808120979D083D0F4
:10297000827808120889505B9007BB1229EF120970
:1029800079A2AFE492E0FEC2AF9007C378081209C3
:1029900088122D0E7808790C12095950087402908B
:1029A00007C7F0801C900ACA780812085F70047488
:1029B00003800274059007C7F09007BF78081209DA
:1029C00079AA08AB09AC0AAD0B120E37EEA2E09261
:1029D000AF8003120D1102153C120D0B8A088B09F2
:1029E0008C0A8D0B2212482D9007BB229007B7123C
:1029F00036A078082274F01204958A088B098C0A94
:102A00008D0B74101209B3804D8A828B83A3A37837
:102A1000081208C69007BB1250D9EA687002EB6929
:102A200070308A828B83A3A3C082C083900ACA7845
:102A30000C120979D083D082780C12088950139037
:102A40000ACA780C1209798A828B83A3A3780C12A4
:102A500009888A828B8312230FEA7001EB70AA0225
:102A6000153C74F0120495EAFEEBFFA2AFE492E08D
:102A7000F50CC2AFECFAEDFB8C828D838008AA0EB8
:102A8000AB0F8A828B83122286E50E7002E50F60FF
:102A9000228E828F83A3A3C082C083850E82850F7E
:102AA00083A3A37808120979D083D082780812080A
:102AB0008950CB8A828B83EEF0A3EF122AE3E50ED6
:102AC000F0A3E50F122ADD122BB3687002EF6970D4
:102AD00003120CCFE50CA2E092AF02153CF08C8201
:102AE0008D8322122AE722F08E828F8322EEFAEF64
:102AF000FB120CDB02153C122C1F7808790C227497
:102B0000F0120495EAFEEBFF74101209B378081274
:102B10000979122AF71209258E828F83A3A37808D8
:102B20001209887CB77D0780C474F7120495ECF80D
:102B3000EDF98C828D838004A882A983124B4C8C82
:102B4000828D83E5827002E5836014EA65827003FA
:102B5000EB658370E312230F122B6F7901800279EA
:102B6000000220461244F62422F8A3E03400F9883B
:102B7000828983EAF0A3EBF02274F7120495EAFE4F
:102B8000EBFFA2AFE492E0F508C2AF7CB77D07127D
:102B90000CE7E9700B7CB97D07EEFAEFFB120CE74E
:102BA0009007BB122BB3687002EF697003120CCF51
:102BB0000238E1122BB722124831EE2274F01204CF
:102BC000959007B7E07002A3E0700A9007B9E07033
:102BD00002A3E0603BE5A8FEC2AF9007C3780812ED
:102BE0000979122C1BEEA2E792AF900ACE780C1254
:102BF00008EC7808790C12095950117808790C12F0
:102C000008B2AA08AB09AC0AAD0B800C7A018002AD
:102C10007A007B007C007D0002153C122C1F2212E2
:102C20000D0B8A0C8B0D8C0E8D0F22C082C08390F1
:102C300007BEE06401700479FE800279FF0225641A
:102C4000122C4422122C4822F085188285198322E6
:102C50001207E802256474F412049574019007C702
:102C6000F0900ACA7808120979AA08AB09AC0AAD33
:102C70000B120E31900BA77808120979AA08AB093C
:102C8000AC0AAD0B120D0575A1EF439401E594A2BA
:102C9000E250FA43A71002148B74F41204958A08C8
:102CA0008B098C0A8D0BE5A8FEC2AF9007BF780890
:102CB000120988120E37EEA2E792AF02148B74F05D
:102CC000120495E5A8FEC2AF1240A0EEA2E792AFB3
:102CD0009007BF780C120979780C790812095940CD
:102CE000087A007B007C007D0002153C74F412041D
:102CF00095E5A8FEC2AF74019007C7F09007BF78B2
:102D000008120979AA08AB09AC0AAD0B80A5120E0E
:102D1000258A0C8B0D8C0E8D0F227F0C02061074F1
:102D2000F0120495A2AFE492E0F508C2AF9007C795
:102D3000E0F509A2E04003022E03900ACA780C12C3
:102D40000979AA0CAB0DAC0EAD0F120E31A2AFE497
:102D500092E0F50AC2AF9007B9122EAA9007B712F7
:102D60000684900B83780C120979780C120938AA22
:102D70000CAB0DAC0EAD0F120CD574021207E8802F
:102D8000378E828F83A3A3C082C083900B83780C7D
:102D9000120979D083D082780C1208894013900BE5
:102DA00083780C1209798E828F83A3A3780C120882
:102DB0009E8E828F83122EAAEE7001EF70C3900B4D
:102DC00083C082900B87780C12097975830BD082AF
:102DD000780C12085F6023900B87780C12097990A9
:102DE0000B83780C120988900B83780C120979AA4E
:102DF0000CAB0DAC0EAD0F120D05120CCFE50AA2F7
:102E0000E092AFE509A2E1506B74019007C7F09022
:102E100007BF780C120979AA0CAB0DAC0EAD0F12DE
:102E20000E37E508A2E092AF9007BBE07002A3E086
:102E300060679007BBE07002A3E0605D1229D912C1
:102E40003699780C120979780C7908120959404999
:102E50009007BB121574FAEFFB122E9CA3A3A3A339
:102E6000E0F98E828F83A3A3A3A3A3A3122511123B
:102E700010B580BE74056509701974029007C7F01B
:102E80009007C3780C120979AA0CAB0DAC0EAD0FEC
:102E9000120E37E508A2E092AF02153C120CED8E3F
:102EA000828F83A3A3A3A322A3A3E0FEA3E0FF2218
:102EB000C082C083120E197C00ECC333F8E433F9EE
:102EC000E8243EF582E93413F583E493FA74019320
:102ED000FB12149E122B730CECC3941040DB740B8A
:102EE0009007CAF09007C9F074329007CBF09007B2
:102EF000C8F0E49007E0F09007DFF09007CDF09085
:102F000007DBF09007D1F0A3F09007CC12316312E9
:102F1000377B9007DCF09007DDF09007DEF090073C
:102F2000E1F09007E8F0120CFF02256474F355B449
:102F30004404F5B4A9BD020764C082C083906180D7
:102F4000E0FAE96004D2F08002C2F0A2F0E492E07C
:102F5000C333C0E074FD5AFAD0E04A02256374F727
:102F6000120495E9FE907803E06495900801700FD3
:102F7000E0C4540FC3332429F582E43414800DE0F7
:102F8000C4540FC3332423F582E43414F583E4934B
:102F9000F8740193F988828983E493C39EA2D26571
:102FA000D0334013A3E493FAEEC39AA2D265D03390
:102FB000500888828983A3E493FEE5A8FCC2AF8809
:102FC000828983E493C39E2402FAE82A121EA793FF
:102FD0009007CB122FDC120D35022046F0ECA2E751
:102FE00092AF22C082C083A2AFE492E0FBC2AF9056
:102FF00007CBE0FA9007C8E06A601A9007CEE0704D
:10300000149007E1E0A2E7400C9007CBE09007C8DE
:10301000F0906190F0EB8001EAA2E092AF022564AB
:1030200074F7120495E9FEA2AFE492E0FFC2AFEE9E
:103030009007CAF09007E1E07003120D41EF0238EB
:10304000E3C082C083A2AFE492E0FBC2AF9007CAA4
:10305000E0FA9007C9E06A60269007CAE09007C9C5
:10306000F0EBA2E092AF120DBF75F0059007C9E03A
:10307000A424D490618FF0120D59120DAD8005EB90
:10308000A2E092AF022564C082C083E49007CDF035
:103090001239E9022563C082C08353A7FE12352E80
:1030A0009007EAFAE02A24B7F9120D53022564E9E1
:1030B000FCC394AFA2D265D03350047CAF800DEC3A
:1030C000C3940BA2D265D03340027C0AECF833954E
:1030D000E0F9745128F8E439F9E875F0FFA4F8AA8A
:1030E000F075F0FFE9A42AF97A5B0215E1C082C00D
:1030F0008374019007DDF09007DCE07008120D5F2B
:10310000E49007DDF0022564C082C0839061A4E0F2
:10311000C2E0F07405906194F075E1ED75E1EDE5C4
:10312000A8C2AF759B0075E9FBA2E792AF9007D1EB
:10313000E07002A3E060077AD17B07120C69900768
:10314000D1E4F0A3123163F09007CCE07006900751
:10315000CEE0600CE49007CCF09007CEF0120D8921
:1031600002256412316722F09007CF7465F0A374D2
:103170000D2274F412049574FE12083374819007C2
:10318000CCF09007DFE0600D906193E0A2E7401083
:10319000E0A2E6400BE49007CCF0120D890234FA6D
:1031A0009061E4E070179061A4E0A2E4500FE0C2E7
:1031B000E4F0E0A2E35003120E13120DE312377590
:1031C0009007CDE09007DAF079047AD37B07120EEE
:1031D0004F9007D3E0547F24FD9007D7F09007E984
:1031E000E070209007D7E0C3947D500B9007D4E0A7
:1031F0005407C39404400C75E1ED75E1ED120D83A5
:103200000234FA9007D4E05407640260030232DA11
:103210009007DBE060030232DA79028518828519B3
:1032200083AA82AB83120E4FA2AFE492E0FFC2AF3B
:103230009007E1E0648660030232D212352E8518D1
:1032400082851983FAE02A24B7FE74011209B3E0DB
:10325000547FF508EEF9120D53E9C0E0900739E00C
:1032600024141244BED0E0121A461244BCE50812DF
:103270001A462416123755F0EFA2E092AF740112ED
:1032800009B3E0A2E750469007D4E05410FE90073F
:10329000D6E0FFA2AFE492E0F508C2AF9007E1E00C
:1032A000648670257487F0120E0DE508A2E092AFD7
:1032B0009007E6E06F700EEE6007791B120DEF804D
:1032C00016790080F779E980F3E5088006120DE9A8
:1032D0008005EFA2E092AF0231FD9007E1E0648645
:1032E0007003120DE99007DAE060249007DBE070CC
:1032F0001E9007DAE0640170030233AEE0640260FE
:10330000030233999007D4E0540760030233AE9070
:1033100007D5E0FA1313543F5403F50BEAC4131313
:103320005403F50A9007E9E070127401650A70030E
:103330000231F77401650B70030231F7850A081238
:1033400034FFC0E0850B081234FFFAD0E02AFEE516
:103350000A600A9007D4E0A2E650021E1E9007D72A
:10336000E0FA8E0874022508125E5C4041E0C39EBC
:1033700024FE9007D9F0900738E0C39402503590AE
:1033800007D9E0F8743228FAE43400FB1210898A75
:10339000088B09A808A909801FE0640360030233B1
:1033A0000F9007D4E054076403700302330F120D2B
:1033B0008F0234FA780079009007D11237827002B8
:1033C000A3E0700575E1E880E57F009007DBE07021
:1033D0000A9007D4E054209007CEF09007CEE0602A
:1033E00068A2AFE492E0F508C2AF9007D4E05407BA
:1033F00064037039900756E054026019900736E074
:103400007021900739E07002A3E06009900739E06D
:10341000121A3E400E9007BDE06012120CF9E964EA
:10342000FE700A7F0490618AE0D2E2800690618A91
:10343000E0C2E21239E07591FEA2E792AF9061A47A
:10344000124802E508A2E092AF9007D1E012375A85
:103450001250F79007D9E0C0E09007D1123513A3BE
:10346000D0E0123786241A1244BEE50A12378624A9
:10347000231244BEE50BF0123E679007D1E02424EE
:103480001244BE7808120988120E1F9007D1E0245A
:1034900028122B699007D4E05407C0E09007D1129E
:1034A0003E73D0E0F09007D6E0C0E09007D1E02472
:1034B000311244BED0E0F09007D4E05478C0E090E0
:1034C00007D5E0C4540F5403FAD0E04A4FC0E0904F
:1034D00007D112351CD0E0123786240F12350DEEBD
:1034E000700512361780139007D8F014906194F08D
:1034F0009007CF746BF0A3740DF07402021488E58A
:10350000082434F582E43414F583E493221244CC85
:10351000E4F022123517221236A4A32212352022FB
:10352000123524221216FFA3A3A3A3A3A32290085B
:1035300001E0F8740F58242FF582E43414F583E485
:10354000932274F712049574EC12083312384A85EA
:103550001882851983AC82AD839007D5121504FEBD
:1035600060659007D1E0242C123692851882851967
:1035700083E0FC74011209B3E0FBEC8882898312BA
:103580004B0FFA9007D1E0242A122B6974036E7056
:103590001674021209B3AC82AD839007D1E0241BEC
:1035A000124B0B740A801974021209B3E0FA740307
:1035B0001209B3E0FB9007D1E0241B122B697404BD
:1035C0001209B3AC82AD839007D5E0C41313540342
:1035D000FE603012376DA2E6401112360B242A121B
:1035E0002B69EC24020C0CED3400FD74036E700B9F
:1035F0009007D1E02412124B0B800812360B2412D4
:10360000122B691236177414021CB78C828D831228
:1036100023139007D1E0229007CF7477F0A3740DA5
:10362000F0120D7122C082C0839007D9E07011742E
:1036300001906194F09007CF747DF0A3740D801316
:10364000C394105003E0800274109007D8F0E01487
:10365000906194022563C082C0839007D8E0F990FE
:1036600007D112369C12230F120E4F9007D1E0247F
:10367000021236929007D8121523126793122B6FFD
:103680009007D8E0FA9007D9E0C39AF0120D7102C2
:103690002564F8A3E03400F9229007BB1236A0227B
:1036A0001236A422E0121700A3A32274F612049586
:1036B0007F0079027AD37B07120E4F9007D4E05433
:1036C00080F50870089007DBE06402707274029065
:1036D00007CCF0120DB312352E9007D3FAE02A244E
:1036E000B7FE9007D4E0547FF5099007BDE0601065
:1036F0009007BEE07008906163E0A2E650027F048C
:10370000EF4508FA12376D4AF0EEF9120D53E9C091
:10371000E09007D11267A6D0E01237862430123726
:1037200055123786242F1244BEE509123786123708
:103730005AA3A3123782FAA3E0FB120BE5800A1208
:1037400037757AD17B07120C699007D1E4F0A3F0AA
:1037500012385D803C1244CCEE222432F8A3E034CF
:1037600000F99007D1123B08F5838A82229007D195
:10377000123520E0229061A4E0C2E0F0E49007CE90
:10378000F022E8F0A3E9F09007D1E02274021207DA
:10379000E87F02020610C082C083906193E0A2E637
:1037A000500BE0A2E7400675E1ED75E1EDE490070E
:1037B000CCF09007CEE07003120D89022564C08220
:1037C000C083120DB3120D35A2AFE492E0FAC2AF7E
:1037D0009007E1E0640270077483123B0D8005EAF4
:1037E000A2E092AF022564C082C0839007D7E07048
:1037F00005120D83801EC394105003E080027410E4
:103800009007D8F0E014906194F09007CF7495F091
:10381000A3740DF0022564C082C08374F0120833D3
:1038200012384A9007D8E0FA9007D7E0C39AF060C0
:1038300011C39410500FE09007D8F014906194F0E9
:10384000800312385D7410022C509007D8E0F9857F
:103850001882851983AA82AB83120E4F22740590B9
:103860006194123167F0120D832274F7120495E906
:10387000FEE5A8FFC2AF9007E0E04EF0120DB9EFF1
:10388000021553A2E702301B74F7120495E9FEE516
:10389000A8FBC2AF74FF6EFA9007E0E05AF0EBA20B
:1038A000E792AF120DB3022046C082C083E5A8FAAA
:1038B000C2AFE49007E0F09007DF12395BEAA2E7BD
:1038C00092AF120D5902256474F7120495A2AFE469
:1038D00092E0FEC2AF9007E0E06003120DB9EE8007
:1038E00002E508A2E092AF02204674F7120495A206
:1038F000AFE492E0FEC2AF9007E0E070199007CC11
:10390000E0A2E740119007CEE0700B9007E1E0A243
:10391000E74003120DBFEE80CAC082C083A2AFE4AD
:1039200092E0FAC2AF9007DFE070067401F075E133
:10393000E3023018C082C083A2AFE492E0FAC2AFC3
:103940009007DFE06012E412395BE5A8C2AF759B17
:103950000075E9FBA2E792AF023018F075E1EF7550
:10396000E1ED75E1ED22C082C083900B8BE0606DCC
:10397000439401E594A2E250FAE06402705790612A
:10398000A512612A900801E054F0601874689061F3
:10399000EBF074FB906244F0746A9061ECF074FC9C
:1039A000906247F09007E9E0C3941250131239E98E
:1039B000F090079BE0906174F090079CE01239F959
:1039C00074059061941239E075E9FBA2E792AF901B
:1039D00061A312612AE4900B8BF0120DAD022564F5
:1039E000F0E5A8C2AF759B0022900797E090617246
:1039F000F0900798E090617322906175F079087CEF
:103A0000AB7D077A6A7B61120E492274F712049526
:103A1000E9FE74019007E1F0900B8BE06008791DDE
:103A2000120DEF023AF6EE9007E2F06402701A12FD
:103A30003B7A75E1D975E10175E10975E1BA75E186
:103A40000175E1C575E1D2803CE49007E5121A46A4
:103A5000240EF8121920A2E650059007B4800390B6
:103A60000796E09007E3F09007E2E0701590077D7D
:103A7000E0600F9007E3E0C3940340047402800108
:103A8000E0F0120DD19007E8E07045900739126818
:103A9000B9FAA3E0F5838A82E054209007E7124B3D
:103AA00012FAA3E0F5838A82A3A3E09007E6123B13
:103AB00000F5838A82A31215201214C1888289839B
:103AC00074022AF075E1EE0AE0F5D9A31AEA70F85B
:103AD000A2AFE492E0FAC2AF9007CCE0701090077A
:103AE000CEE0700A74839007E1123B0D80087402E7
:103AF0009007E1123AF9022046F0EAA2E092AF22E2
:103B0000F0900739123B0822E0FAA3E022123AF9BA
:103B1000120DD72274F612049575080175090090EC
:103B200007E3E07808120912E50814C0E0120D233B
:103B3000E9FAD0E05A9007E4F09007E2E070111241
:103B40003B7A75E18175E11075E1D275E181800CF8
:103B5000123B7A75E1B875E18175E1B875E11075D0
:103B6000E1D275E1D975E10175E10975E1BA75E157
:103B70000175E1C575E1D2023791120DFB75E1BC0B
:103B80002274F71204951237759007E2E064027010
:103B90004D123D4FA2AFE492E0FEC2AF75C300E507
:103BA000A2E5A4FF740F5FFA740FC39AF508906141
:103BB000E2F0120DA774019007DFF075E1E175C323
:103BC00000E5A2E5A46F600FE508C3940240087405
:103BD000FF25089061E2F0EEA2E092AF8003120DA3
:103BE000DD022046C082C0839007E2E07028900783
:103BF0003BE07002A3E0600D90073B12251112100C
:103C0000B5E9FA80027A009007E4E0C39A400779A8
:103C10001C120DEF8003120E0102256474F71204CA
:103C200095A2AFE492E0FEC2AF9007E1E06483703A
:103C3000219007E7E0701274859007E1F0EEA2E0B2
:103C400092AF7900120DEF800E74869007E1F012AA
:103C50000E07EEA2E092AF02204674F7120495A27E
:103C6000AFE492E0FEC2AF9007E1E06486701274A8
:103C700087F0120E0DEEA2E092AF79E9120DEF80FF
:103C800005EEA2E092AF02204674F7120495E9FE19
:103C9000E49007E8F09007E1F0120DB3120D351231
:103CA0000D41EEF9120BFD022046C008E5A8FAC24C
:103CB000AF75C300E5A2F508E5A3FBEAA2E792AF62
:103CC000EBF9A8087A007B02120344E8F9D0080255
:103CD0000764C082C083759C0174019061E4F07533
:103CE000E1E275E1FFE5A8C2AF759B007591EFA217
:103CF000E792AFE5A8C2AF759B007591F7023883D4
:103D0000C082C0839007E4E09061E2F0E06003E0ED
:103D100014F075A1FDA2AFE492E0FAC2AF75C30042
:103D2000E5A2FBE5A3FC9007E9E0C394125008EB81
:103D30007005EC70027B0175C3038BA28CA3EAA211
:103D4000E092AF123D4F120DB975E1E1022564908A
:103D500061A4E0D2E4F0E0D2E3F02274F61204951C
:103D6000120DF5E9FF90077AE02F24ECFA75F014B4
:103D700084FE75F014A4CA9AFA0E74029061E4F0FD
:103D8000EE9061E2F075A1FDA2AFE492E0FBC2AF5C
:103D900075C3038A0875090074097808120912F8B6
:103DA000A9099007E9E0C394125009E47001E97091
:103DB00003087900E8F5A2E9F5A3EBA2E092AF755C
:103DC000E1E275E1FFE5A8C2AF759B007591EFA236
:103DD000E792AF75E1BC75E1B875E1D29061A4E0FE
:103DE000D2E4F075E1E1120DF5E9C39F500A90614C
:103DF000E2E06E7003E014F0023791C082C083905D
:103E000061A4E0C2E4F075E1E275E1FF02256474AB
:103E1000F01204959061A4E0C2E3F0E5A8FEC2AF01
:103E2000123E67EEA2E792AF9007BF780C120979B5
:103E3000780C7908120959400A900ACA780C1209BC
:103E40007980088A0C8B0D8C0E8D0F900739123EED
:103E500073780C120988120E1F900739123E79A34D
:103E6000A3122B7302153C120E2B8A088B098C0AA5
:103E70008D0B22123517A3A322123E7D2212352468
:103E8000A32274F612049574F0120833741490612E
:103E9000A9F0743F9061ABF074F8906196F074856E
:103EA0009061A8F0745A9061ACF0E49061AEF07447
:103EB000159061B2F0E4906182F074109061B5F0F9
:103EC000740E9061B6F074039061B7F0740990615C
:103ED000FAF074FF9061E5F0439A01D2A843A9017A
:103EE00053B9FE906249E09007E9F0E5A8C2AF75CA
:103EF000C30275A20075A328A2E792AF439401E51F
:103F000094A2E250FA439408D2BA7448906189F0BE
:103F1000120DB9906199E0A2E050F87A007C007B24
:103F200008123FF3C0E0ECC333FCD0E04CFC1BEBC9
:103F300070EF8A08E50824F1F582E43407F583EC94
:103F4000F00AEAC3941040D5780079007C10E8C3E9
:103F500033F8E933F9123FF348F81CEC70F0E870DD
:103F600001E9600A7480687003740369700478BEA4
:103F700079BAE8F5BCE9F5BC9007EFE07002A3E080
:103F800060467A007C007B08123FF3C0E0ECC3334C
:103F9000FCD0E04CFC1BEB70EF8A08851882851979
:103FA00083E5822508F582E583121564ECF00AEAC0
:103FB000C3941040CF851882851983AA82AB839061
:103FC00007EF1225111210B5120DBF7440906189D0
:103FD000F0E0D2E5F0E4906164F0906165F090610A
:103FE00066F0906167F0906168F0906169F074101C
:103FF00002378E9061A7E0A2E0E492E022C008E5DB
:10400000A8FAC2AF75C301E5A3FBE5A2F508EAA2D1
:10401000E792AFAA08023CCD74F412049574FC1226
:104020000833E5A8FAC2AF75C300E5A202145074C4
:10403000F412049574FC120833E5A8FAC2AF75C3F4
:104040001002145074F412049574FC1208331240D8
:10405000FB9007EBC082C0831240A0D083D082784F
:10406000081208EC851882851983780812081B90BD
:1040700007EB7808120988E5A8FAC2AF75C3008576
:104080001882851983E0F5A474011209B3E0F5A53F
:1040900074021209B3E0F5A6EAA2E792AF02148611
:1040A000120E258A088B098C0A8D0B22C082C083D0
:1040B00074FC1208331240FB7A00A2AFE492E0FBDA
:1040C000C2AFE5A7A2E450040A53A7EF75C3308539
:1040D0001882851983E0F5A474011209B3E0F5A5EF
:1040E00074021209B3E0F5A675A1EFEA600343A7D5
:1040F00010EBA2E092AF7404022C5085188285194F
:1041000083EAF0A3EBF0A3ECF0A3EDF02274F41239
:10411000049574FC120833E5A7A2E4504FE5A1A270
:10412000E44049E5A8FAC2AF75C330E5A48518821A
:10413000851983F0E5A5C0E074011209B3D0E0F061
:10414000E5A6C0E074021209B3D0E0F074031209CE
:10415000B3121490C082C0831240A0D083D0827862
:10416000081209495006120D1775A1EF0214867442
:10417000F412049574FE120833E5A8FAC2AF75C3B1
:1041800000E5A2E5A4851882851983F0E5A5C0E0C5
:1041900074011209B3D0E0121491C082C083900759
:1041A000EB7808120979D083D082E02508FAA3E0E1
:1041B0003509FB0234FA74F71204958019198C82C0
:1041C0008D83E08A828B83F0A3AA82AB838C828D5D
:1041D00083A3AC82AD83E970E4022046F08A828B2F
:1041E00083A322C082C083E5D98A828B83F0A3AAED
:1041F00082AB8319E970F002256474F4120495EA25
:10420000FEEBFF8E828F83A3A3A3A3A3E0A2E650BD
:104210000575080880037508068E828F83A3A3A303
:10422000A3E02508F98E828F83A3A3A3A3A3E0A212
:10423000E35004740429F97B007A00120C278A0ADF
:104240008B0BA80AA90BE87001E9700479BE801DE8
:104250008E828F831250F3AA0888828983A3A3E0F9
:104260002A1236928E828F831250F1790002148BBB
:1042700074F0120495EAFEEBFFE4900A54124E3EED
:10428000F0A3F0900AB9E064016014E06402600FEA
:1042900074B4900A54F01244FF12511602153C9067
:1042A0000B067808120979758308758290780812D0
:1042B000085F700474B680DA8E828F83A3A3A3A3F1
:1042C000A3E05409640960118E828F83A3A3A3A382
:1042D000A3A3E07002A3E0700474E880B58E828F1F
:1042E00083A3A3A3A3A3E0A2E0402C7A917B0C8E2E
:1042F000828F83E0F9120ECDE9600474B280938E50
:10430000828F83A3A3A3A3A3E0A2E3500A1244D005
:10431000700574BD024292900A54E0600302429616
:104320008E828F83E0900C19124519F8A3E0F99062
:104330000C8F12481424051244B55415900AC41267
:104340004B12A2E0900C8FE050231248E7900C8FA4
:10435000E024221244BE74FFF0A3F0124DD9F09075
:104360000873E0900AC5F0E4900C1A803C242D12EA
:1043700044BE740212451EA2E14005124DCD400814
:104380001244C2124E1580111244C27402124E3EE3
:10439000E0240E1244BE122B64124DCD500512447F
:1043A000E08003124DD9124E0612451EA2E25006BD
:1043B000900AB812612A900C8FE012289F74018530
:1043C000088285098312451E5424642470359008A0
:1043D00073E01206B100030FE24314E64319EA4307
:1043E000EE43740180097402800574038001E4C403
:1043F000333354C04401850882850983F0900873E3
:10440000E08001E4900C1A12451EA2E650298508AE
:1044100082850983E044031222A87002A3E070059C
:1044200090089580068E828F83A3A31250D98508A9
:10443000828509831250F3850882850983E0442828
:10444000F0120F218A0C8B0D8C0E8D0F8508828542
:104450000983A3780C1209888E828F83A3E08508D4
:1044600082850983A3A3A3A3A312451EA2E3503A06
:104470008E828F83A3A3A3A3A3A3A3A31206848ED8
:10448000828F83A3A3A3A3E0F9900C91124B4CAAB3
:1044900008AB09120F2774021207E8E9700C1244E6
:1044A000FFF074BE900A540242997403900AB91244
:1044B000646502429CF8EF12652EE0222415124436
:1044C000CC22900C8FE0242A1244CC2212652722A1
:1044D000900C91E024111244DA22F8126528E022AF
:1044E000900C91E0240C1244CC1244F6242B12447C
:1044F000CCEAF0A3EB22123B08FB900C8FE0228E5B
:10450000828F83A3A3A3A3A3A31264EA7402900AD5
:1045100053122AE7E0900A552212157BE022124539
:1045200024A3E02212452822122AE7A3A3A3A32250
:10453000C082C083900ABDE07025900AB8E0A2E274
:10454000501D900C1AE07004900AC5E0FB124577EC
:10455000124D54E06B6008124577124D56EBF09007
:104560000AB8E0C2E2124DC57402900A53F0900CF2
:104570001912510A022564900C19E075F02BA4223F
:1045800074F5120495900AB9E06401703E8A088BB4
:1045900009750A0078081207B77C1A7D007A027B39
:1045A000081266A41207E8E490086EF090081CF068
:1045B00090086DF07404900AB9F0740F900AC5F079
:1045C000120F51120E91120E7F80137406900C1B65
:1045D000F074B4900C1CF0E4900C1D12464702528B
:1045E00001C082C083900AB9E06404702812483781
:1045F00012465090086EE0A2E25005D2E3F080151A
:104600007401900AB9F07411900C1B12497F7A1B47
:104610007B0C120BBB022564C082C08390086EE045
:10462000A2E25020C2E2F0A2E3500D12497A7411C6
:10463000900C1B124647800C900ABDE060061246A3
:1046400050120E8B022564F07A1B7B0C120BBB22DE
:10465000900ABAE054FB125AA87A04125AB1227492
:10466000F5120495EAFEEBFF900AB9E064046003DA
:104670000247FC1228B560030247FC90081CE0C307
:10468000940A40030247FC750A00802312158E85A8
:104690000A0875090074037808120912E508241D38
:1046A000FAE50934081214FE60030247FC050A907B
:1046B000081CE0FAE50AC39A40D27405900A53F048
:1046C000900AC5E0900A5512481F900A56124814E5
:1046D00012158F7A587B0A120FA58E828F831222B1
:1046E00095126008E9124B0550047C0F80027C0093
:1046F000F50A8E828F83A3A3A3A3E0F50874065561
:104700000AC3132CFCE43400FD7470550AC430E372
:104710000244F0FA3395E0FBEA2CFAEB3DFB74130C
:104720002AFAE43BFBEA65087001EB60030247FCF0
:1047300088828983A3A3A3A3A3A3E0900A54F0E8EB
:104740002407FCE93400FD7A607B0A120F1B8A8281
:104750008B83E0900A84F07B00800C0A900812E0C2
:10476000FCEAC39C40170B900A6AE05470C430E323
:104770000244F0FAEBC39A50247A0080DF8B08E5FC
:1047800008247DF582E4340AF583E0FC8A08E50814
:104790002413F582E43408F583E06C70BE900812AF
:1047A000E0600F900A6AE05470C430E30244F06B9A
:1047B000604A12158E90081C12289874037808120B
:1047C0000912E508241DFAE5093408FB120FA5902B
:1047D000081CE00412511690081CE0640A6009E00D
:1047E000FA90087DE06A701412483790086E1248FB
:1047F0000290087AE060051490086DF002520112F0
:104800004807E0D2E0F0227A8C7B0B7952120CA59B
:10481000900AB822124819EE22E8F0A3E9F022F03B
:10482000EE242A12482722F582EF125E83124831C5
:1048300022E0F8A3E0F922900ABAE0F0A3E054FBEA
:10484000F07A007B04125AB32274F6120495900891
:1048500006E0A2E05004780F80027800FC7B007A2A
:104860000074705CC4C0E074065CC31328FCD0E024
:104870002C2412F91264707002A3E0700A12497AB3
:1048800079BE120E85805D900C8FE01248E790088B
:1048900004122B649008021244E9124E1174018E26
:1048A000828F83A3A3A3A3A3F07C067D08EE240636
:1048B000FAEF3400FB120F158A088B09A808A90922
:1048C0009008111268B3F090081A124B4C7A041237
:1048D0004B3E7411124E3BE4F0A3F090086EE0D210
:1048E000E21264650237911265177402F02274F7C0
:1048F000120495E9FE7406900A53F090087DE0C01A
:10490000E090081CE0FAD0E0C39A500474B7800825
:10491000E0700474B88001EE900A54F090081CE036
:10492000900A55022043C082C0831268CD640F7084
:104930003590086DE004F090086E12497590086D8E
:10494000E0C0E090087AE0FAD0E0C39A400D124946
:104950007A900ABDE0F9120E85801790086EE0A2E9
:10496000E0500F120E917AC57B0A79E1120CA51264
:104970000E7F022564E0D2E1F0227401900AB9F0C2
:10498000120F5722C082C08390086D1249CA900846
:104990007AE0FAE89AE99400C365D033501F900892
:1049A00075E07002A3E06015900875124B4C7A0018
:1049B0007B04124B4090086EE0C2E0800690086EC7
:1049C000E0D2E0F0E0C2E1022563E0F874012808DB
:1049D000E43400F92274F6120495EAFEEBFF900A23
:1049E000B9E064016003024AE98E828F83A3AA8240
:1049F000AB83120EFDEA7001EB7021120F03E96424
:104A0000FF70197409900A53F074FF900A55F074FE
:104A1000B0900A54F07A537B0A024AFFEE240BF559
:104A200082EF124B055004780F80027800FC7B0067
:104A30007A0074705CC4C0E074065CC31328FCD0B8
:104A4000E02C2414F91264707002A3E07003024B8E
:104A500002124DEB74031223B1AC82AD83900C8F24
:104A6000E02422124B0B8E828F83A3A3A31223096F
:104A7000900C8FE0242B1244BE12647612289FAA59
:104A800008FB120F0F850882850983A3A3A3A3A3A4
:104A9000A374FEF0A374FFF0740385088285098374
:104AA000A3A3A3A3A3F0EE240BFCEF3400FDE508C1
:104AB0002408FAE5093400FB120F15EE24161244FF
:104AC000B58A828B83124B12900C78F07405900A91
:104AD000B9122AE3E0900AC5F0120F517424124E65
:104AE0003BE4F0A312646580197409900C1BF07408
:104AF000FF900C1DF074B4900C1CF07A1B7B0C1210
:104B00000BBB02379112154EA2E022124E3122F059
:104B1000A3EBF088828983E022C082C083900ABD23
:104B2000E0700D90087E124B4C7A08124B3E800BC1
:104B30007401900AB91250FD12510B0225647B00DA
:104B4000900AB7E0F9120FC922125E7FE0FCA3E0E1
:104B5000FD2274F01204958A0C8B0D900AB9E06462
:104B6000056003024D4AEA241AF582EB1228BB6065
:104B700003024D4A8A828B83A3A31214CFE50A2431
:104B800015F582E50B124B0550047A0F80027A006E
:104B9000FE850C828B83A3A3A3A3E0FC74065EC3F3
:104BA000132AFAE43400FB74705EC430E30244F06C
:104BB000F83395E0F9E82AF8E93BF9741628F8E4A7
:104BC00039F9E86C7001E96003024D4A900ABAE0D5
:104BD00054F7125AA87A08125AAD7409900A53125F
:104BE0004D71E0900A54F0E50A240BFCE50B34000B
:104BF000FD7A567B0A120F1B900A54E06003024DA7
:104C000040E50C2412FAE50D3400FB120EFD8A82F9
:104C10008B83E5827002E5836005E0F508800B1266
:104C20000F03E9F50812552EE9F0E508900A55F052
:104C3000900A56E0A2E0502E850A82850B83E0C4DC
:104C40001313540312064E0102664C514C584C5F2C
:104C50004C124D4D740F8019124D4D741480121268
:104C60004D4D7419800B900AC5E0C0E0124D4DD037
:104C7000E0F0E875F02BA424A5FEE93408FFE50C6C
:104C8000242AF582E50D125E701250F9E50C24120B
:104C9000FCE50D3400FDEE2404FAEF3400FB120FA6
:104CA000A5850A82850B83A3A3A3A3A3124D66E85F
:104CB000F0A3E9124D71A3A3A3122BB312155F1237
:104CC00048142424F50AEF3400F50B7C037D0079A9
:104CD00000AA0AFB121095750C70750D0A750E006E
:104CE000780C1207B7900A601257D3AA0AAB0B12BE
:104CF00066A41207E8900A57122BB32422121561FA
:104D00001250F9900A56E0C0E0EE2410121561D05E
:104D1000E0F0900ACA780C120979EE242712156186
:104D2000780C120988EE126008EF124D607403903F
:104D30000C8EF0A908120F6974FF900C79F0800AAC
:104D400012497A7A537B0A120BBB02153CA808E879
:104D500075F02BA4A9F024A8F582E93408F5832284
:104D6000125E7FE4F022A3A312482D8E828F83A3CC
:104D700022124D7BA3A3A3A3A3A322F0850A8285BD
:104D80000B8322C082C08374FF1208337901120F93
:104D9000F3124DBF740D900A53F0E4900A54F0746E
:104DA00001851882851983F0AC82AD837A007983FE
:104DB000120ED97A537B0A120BBB7401022C5012CB
:104DC0004807E0D2E0F07401900AB9F022900C910B
:104DD000E024101244DAA2E022124DDD22900C8F62
:104DE000E0242B12652774FFF0A322900C8F12226F
:104DF0009B242DF582E9125E7F7403F0E8242AF5E6
:104E000082E9125E7F22124E3E123517E0900AC5EB
:104E10002212653622124E19227403124E3EE024ED
:104E200004FCA3E03400FD900C8FE02422124E31EC
:104E300022FAA3E03400FB120FA522900AC4F090DE
:104E40000C9122C082C08374FE12083385188285BB
:104E50001983AA82AB8390086FE0F9120ECDE97036
:104E600009124EA690086F125E6A7401900AB9F09A
:104E7000740E900A53F090086F12510A02678674FC
:104E8000F712049574FE120833E9FE85188285191D
:104E900083AA82AB83120ECDE97008124EA6EEF9FA
:104EA000120EF7021CBD85188285198312193974F8
:104EB000FFF02274F512049574F8120833E9900A91
:104EC000B7F0E4900AB8F074019008A3F0747F90F2
:104ED00008A4F0120CC3120EE5E4900894F09008B8
:104EE0009EF090089F74FFF0A3F09008A1F0A31229
:104EF0002C40AC82AD837A087901120AF5E970285A
:104F000075088D75090B750A0078081207B77C08BB
:104F10007D0074031209B3A982AA837B0012109B3F
:104F200074031207E8E9603275080C750978750A90
:104F30000078081207B77C087D0074031209B3AA31
:104F400082AB831266A41207E8851882851983ACA8
:104F500082AD837A087901120AEF120EF174080209
:104F600051FE74F612049574FE120833EAFEEBFF4C
:104F700074805FF9E47001E9603D900AB71250DD7A
:104F80001250F9E87001E9602585188285198312AD
:104F900016EA640D700B851882851983E0FA120FEA
:104FA00039851882851983AA82AB83120C69EEFABF
:104FB00074806FFB0250D6900ABAEEF0A3EFF09027
:104FC0000ABAE0A2E05003120F99900ABAE05480A6
:104FD0006003120F2D900ABAE054026005E4900AB3
:104FE000C4F0900ABAE05404600B900AB9E064047B
:104FF0007003120E8B900ABBE05404F9E47001E9CF
:105000006021900AB9E06404701990086E12480299
:10501000A2E1500F120E917AC57B0A79E1120CA51C
:10502000120E7F900ABAE054086016900AB9E06444
:1050300005700E74011250FD900A55F074B31251B0
:1050400013900ABAE054206024900AB9E064016029
:1050500005E06402700C7A737B0879E1120CA512EA
:1050600047FF900871124B4C7A40124B3E900ABA9F
:10507000E054406031900AB8E0A2E45029900AB9A7
:10508000E064016005E064027003126195900871AC
:105090001250D9758308758277E0C398FCA3E09914
:1050A000FD7A20124B3E900ABBE05410F9E47001E7
:1050B000E9601F900C8EE06403600AE06404600500
:1050C000E06402700779B9120F878006E0700374FC
:1050D00001F07A007B0002378C12482D22E0F91291
:1050E00010778A088B09A808A90985188285198371
:1050F00022A3A3A3A3A3A3A3A312481922F0120FD0
:10510000577409900A53F074FF22E0900A55F0900A
:105110000ABDE0900A54F07A537B0A120BBB22744A
:10512000F5120495E9FEEAFFECFAEDFB74A02EC33C
:105130009410505F7C0B7D1274A02EF50A850A082E
:1051400075090074027808120912EC2508F582ED41
:1051500035091253327001E9604D850A087509005E
:1051600074027808120912EC2508FCED3509FDE4FB
:1051700093F508740193F509750A0078081207B7CA
:105180008C828D83A3A3E493FC7D001266A4120796
:10519000E8806774802EC3940950087CF77D1274F0
:1051A00080809779F4805574686E7025EFC3940AF7
:1051B000501BEF75F02BA424A5F508E5F03408F595
:1051C00009750A0078081207B77C2B80BC79F98032
:1051D0002B74846E700DEAFCEBFD7A087901120ADB
:1051E000F5801774676E70BB900AB8E0A2E45004B3
:1051F00074018001E48A828B83F0790080031207B6
:10520000E87F03020610C082C083E9FD125E376D9D
:105210007017ED75F02BA424A5F8E93408F98A82FB
:105220008B831250F97900800279B202256474F4FC
:1052300012049574F8120833E9FE120EF179011286
:105240000C8D851882851983AC82AD837A0879012B
:10525000120AF5851882851983AA82AB8379E21236
:105260000CA5900B0AE0906196F07AA47B0879E592
:10527000120CA5EE607C120EE57F008F0875090008
:1052800074027808120912E508240EF582E5093443
:1052900012F583E49360398F087509007402780869
:1052A000120912E508240BF582E509341212533273
:1052B0007001E9601B8F08750900740278081209F3
:1052C00012E508240BF8E50934121255A2120AEF70
:1052D0000FEFC3941040A47F00EFF9120EF70FEF09
:1052E000C3940A40F47C707D087A007983120ED949
:1052F000801B900BAB7808120979900890780812FF
:1053000008C67C907D087A047906120AEFE4900AB8
:10531000B8F0900AB9F07A737B0879E1120CA5799C
:1053200001120FF390089EE06003124DBF74080253
:105330001488F583E493F8740193F9E82274EC126D
:105340000495890B8A0AECFEEDFF74A0250BC3942B
:1053500010400302544175080B75091274A0250B07
:10536000F51285120C750D007402780C12091212D8
:10537000549C1253327001E9604485120C750D0083
:105380007402780C120912E508250CF510E50935B0
:105390000DF5118E0C8F0D750E00780C1207B78568
:1053A0001082851183A3A3E493FC7D008510828580
:1053B0001183E493FA7401931266A31207E885122D
:1053C0000C750D007402780C12091212549CF583AE
:1053D000A3A3A3E493603475130074027812120936
:1053E00012E5082512F510E5093513F511EEFCEF6D
:1053F000FD851082851183A3A3E493FA851082852D
:105400001183A3A3A3E493F9120AEF7468650B70E8
:105410004CE50AC3940A50418E0C8F0D750E00782E
:105420000C1207B77C2B7D00E50A8CF0A424A5FAAA
:10543000E5F034081266A31207E8A90A120EF780F5
:10544000567480250BC39409500B7508F775091223
:10545000748002535E79F4804079F9803C74616510
:105460000B7005120F4B802F7484650B701AEEFCC5
:10547000EFFD7A087901120AEFE97008EEFAEFFB06
:1054800079E2801079BE80117488650B7009EEFA9C
:10549000EFFB79E5120CA57900022D1AE508250C21
:1054A000F582E509350D2274F6120495EAFEEBFF4C
:1054B0008E828F83E012064E0C010955C054FD54B4
:1054C000EE2403F8EF3400F9880889098882F5830F
:1054D00012230F120C638E828F83A3E0900ABDF01B
:1054E0008508828509831250D9900ABE1250F97A34
:1054F000017B00900AB7E0F912104D800CEA7001B0
:10550000EB6006900AB7121EB2023791C082C083C8
:1055100090131B7C717D0874231206DBFBEB125584
:105520002E74FFF00BEBC3940A40F202256475F071
:105530002BA424A5F582E5F03408F5832274F41237
:105540000495EAFEEBFF8909750800804B85080A7F
:10555000750B007402780A1209121255BAA3A3A39C
:10556000E493603285080A750B007402780A120908
:10557000121255BA1253347001E9601A85080A757F
:105580000B007402780A120912EE250AF8EF350BA7
:105590001255A2120AF50508E508C3950940AE02A6
:1055A000148BF9E493FC740193FDA3A3E493FA88AC
:1055B000828983A3A3A3E493F922EE250AF582EF5F
:1055C000350BF5832274F712049579107A0B7B1250
:1055D000120EEB79097AF77B12120EEB750800E5D3
:1055E00008125610120AF5125628120AF50508E597
:1055F00008C3940A40E902204674F712049589080A
:10560000E9125610120AEF125628120AEF0220462B
:1056100075F02BA424A5FEE5F03408FFEEFCEFFDA9
:105620007A2774242508F922EE2427FCEF3400FDA4
:105630007A04742E2508F92274F7120495EAFEEB19
:10564000FF750800A808E8125E316024EEFCEFFD4B
:10565000E875F02BA424A9FAE934081214FE6010AE
:10566000E50875F02BA424A5FAE5F03408FB800DBD
:105670000508E508C3940A40CB7A007B0002204667
:10568000C082C0837900E912552EE064FF600909E9
:10569000E9C3940A40F079FF022564E9FA740F6ABD
:1056A00070047914801074146A7004791980077476
:1056B000196A7002790F02076474F4120495EAFE05
:1056C000EBFF742A8E828F83F0120F218A088B09D8
:1056D0008C0A8D0B8E828F83A302144174F1120405
:1056E00095EAFEEBFF8C088D099008941257CC9038
:1056F00008951250D98E828F831250F8750C9775C9
:105700000D08750E00780C1207B77C077D00EE249B
:10571000030A0A0AEF1257C31207E88508828509AF
:1057200083126454A3A3A3A3F0EE240BFEEF340072
:10573000FF850882850983E0A2E0501B750C817506
:105740000D08780C1207B77C0F12669E1207E8EE60
:10575000240FFEEF3400FF850882850983A3A98208
:10576000AA83890C8A0D780C1207B78508828509EF
:10577000831257D31266A01207E885088285098331
:105780001258A2EE28FEEF3400FFE5082404F50CC1
:10579000E5093400F50D780C1207B774705AC4127D
:1057A000669D1207E8850882850983E05470C4303D
:1057B000E30244F0F83395E0F9EE28FAEF021581A0
:1057C000FAE50B3400FB1210A1740322E08E828FE5
:1057D00083F022E05406C313FC7D002274F112040E
:1057E000958A0A8B0BECFEEDFF8E0C8F0D750E006B
:1057F000780C1207B77C0B7D001266A41207E8EE46
:10580000240BF508EF12644F8E828F83A3A3A3A30A
:10581000A3A3A3A3A3A3E0A2E0502085080C8509BD
:105820000D780C1207B77C0F7D00E50A240B125788
:10583000C01207E8E508240F12644BEE240AFEEFBD
:105840003400FF85080C85090D780C1207B78E828D
:105850008F831257D3E50A241A1257C01207E88E15
:10586000828F831258A2E5082812644B85080CF534
:105870000D780C1207B774705AC4FC7D00E50A2439
:105880001D1257C01207E88E828F83E05470C43017
:10589000E30244F0F83395E0F9E50828FAE5090257
:1058A0001581E0FA74065AC313F82274F0120495B5
:1058B000900890780C120979900ACE78081209792C
:1058C00090089078081208C6900890780812097914
:1058D00074FF5508F874035509F9E87001E9700B75
:1058E0007C907D087A047906120AEFAA0CAB0DAC05
:1058F0000EAD0F02153C74EC120495EAFEEBFF8C22
:10590000128D13890874141209B3E0F510A3E0F5A1
:10591000111261267A4D7B0C79E2120C9F8E828FD8
:1059200083A385820A85830B780C120979125E881D
:105930008E828F83E0900C5A124D7B780C1209797D
:10594000900C5B780C120988E5122404FCE51334F2
:1059500000FD7A5F7B0C120FA5125A13AA0AFB12E4
:1059600009C3750C67750D0C780C1207BB780A1209
:1059700007BB750A0D750B00780A1207BB750A5A2A
:10598000750B0C780A1207BB85080A750B00780A9C
:105990001207BBAC10AD117A4D7B0C79041209E1F2
:1059A000740A1207E8E97066750A67750B0C780AC5
:1059B0001207BB125A13780A1207BB85080A750B27
:1059C00000780A1207BBAC10AD117A4D7B0C79043C
:1059D0001209E774061207E8E9702F7A008A82A894
:1059E00082E82467F582E4340CF583E0C0E0E82522
:1059F0000AF8E43400F9E51028F582E51139F58359
:105A0000D0E0F00AEAC3940440D37901800279001F
:105A1000022D1AE5122412F50AE5133400F50B22C3
:105A2000C082C083900AB8E0C2E0F0D2E4F07A709D
:105A30007B087952120CA502256474F7120495EACA
:105A4000FEEBFFEE7001EF7008125ABC120F2D80B2
:105A500052900AB8E0C2E4F0D2E0F0900ABAE05402
:105A6000BF125AA87A40125AAD900ABAE054DF1217
:105A70005AA87A20125AAD7A8C7B0B7952120CA557
:105A8000900AB9E0640270037401F074FF6E700351
:105A900074FF6F7005125ABC8009EEFCEFFD7A802E
:105AA000124B3E7900022046F0A3E0F022125AB1D8
:105AB000227B00900AB7E0F9120FC322900ABAE0E5
:105AC000547F125AA87A80125AB12274EA120495AD
:105AD0008A0A8B0B8A828B83A3A3A3A3E0C39402BD
:105AE0005003025E2E8A828B83A3A3E0F514A3E009
:105AF000F515851482F583E05403F50974016509F1
:105B00007005750806800E74026509700575080534
:105B10008003750808E0A2E5500A541813131354C3
:105B20001FFA80027A00850A828B83A3A3A3A3E0D5
:105B3000C395085003025E2EEA7003025E2EE50A4A
:105B4000241AF582EB1215976003025C5BE50A24C8
:105B500012F582EB12156412230F125E53124B4999
:105B60007F00EF125E31603CEF75F02BA424B1F59D
:105B700082E93408F583E06C7003A3E06D7025EFD3
:105B800075F02BA424B3F582E93408F583E06A703C
:105B900003A3E06B700EEF75F02BA424A5FEE9348F
:105BA00008FF800B0FEFC3940A40B77E007F00EE22
:105BB0007001EF7003025C9EEE2427121561C08213
:105BC000C083851482851583A3780C120979D0834C
:105BD000D082780C1209495003025C9E7402650958
:105BE0006003025E2E851482851583E054046003F1
:105BF000025E2EEE7001EF7003025E04EE241112BD
:105C00001449600E851482851583E05404700302E4
:105C10005E04EE2427121561C082C083900BAF781A
:105C200010120979D083D08278101208FF8514826F
:105C3000851583A3C082C083900BAF780C120979BD
:105C4000D083D082780C1208FF7810790C12087477
:105C50007003025DDB750801025DDEE50A2412FABD
:105C6000EB3400FB120EFD8A0C8B0DAE0CAF0DEE6B
:105C70007001EF6029125E5312144C64FF7004A38C
:105C8000E064FF7003025BB8125E53125E70E0685E
:105C90007003A3E0697003025BB87E007F00851487
:105CA00082851583E054047003025BF3850A8285C4
:105CB0000B83A3A3A3A3E0FA85080C7404250C129C
:105CC0005E5C5003025E2EEE7001EF7003025E2EEA
:105CD000EE24111214497003025E2EEE2404FCEF30
:105CE0003400FD7A4D7B0C120FA585148285158337
:105CF000A3858210858311780C120979125E88853C
:105D00001482851583E0900C5AF0851082851183EA
:105D1000780C120979900C5B1222B17A5F7B0C79B6
:105D2000E2120C9FA808850A82850B83A3A3E028B2
:105D3000F50CA3E03400F50D850A82850B83A3A33F
:105D4000A3A3E0C39508F508125E48AA0EFB12094A
:105D5000C375106775110C78101207BB780E120707
:105D6000BB85080E750F00780E1207BBAC0CAD0D8D
:105D70007A4D7B0C79041209ED74061207E8E9707C
:105D800047750E67750F0C780E1207BB125E4878C8
:105D90000E1207BB750E0D750F00780E1207BB753E
:105DA0000E5A750F0C780E1207BB85080E750F0082
:105DB000780E1207BBAC0CAD0D7A4D7B0C7904123A
:105DC00009F3740A1207E8E97064850A82850B8377
:105DD000A3A3A3A3E024FCF0025BFC7508008514D8
:105DE00082851583A3780C120979EE2427F582EFBA
:105DF0001222AEE508600D7402650960268E828F5E
:105E000083125E6A74016509600674036509700D8A
:105E1000EEFCEFFDAA0AAB0B120F45801174026570
:105E200009700BEEFCEFFDAA0AAB0B120F3F02222A
:105E300031125E3764FF2275F02BA4A9F024A5F57A
:105E400082E93408F583E022EE2412F50EEF3400E7
:105E5000F50F22E50A242AF582E50B22F8E4340046
:105E6000F9EA98E499C365D03322E0F9120EF722DB
:105E7000125E7F122BB7240C125E7C22F582EF1289
:105E80005E83223400F58322900C551222B57405EE
:105E9000900C59F02274F71204958A828B83A3A385
:105EA000A3A3E0C3940650030260048A828B83A3F9
:105EB000A3123E73E012064E02060460CA5E04603E
:105EC000D05ED65E2F5F355F945F120E790260045C
:105ED000120EA30260048A828B83A3A3A3A3E064AF
:105EE000066003026004EA241AF582EB1228BB6004
:105EF00003026004EC7001ED7003026004EC1260B8
:105F000008ED12144C60118A828B83A3A3126013D4
:105F1000E0A2E24003026004740F900A85122ADDB9
:105F2000E0900A86F07A857B0A120BBB02600412AD
:105F30000F63026004EC7001ED7003026004900ACC
:105F4000B9E064096003026004900C8EE0640260B2
:105F5000030260041262C160030260048A828B83C0
:105F6000122EA88E828F83E054047003025FFBA37D
:105F7000A3A3A3A3A3E06003025FFB8A828B83A396
:105F8000A3A3A3E0640B70731262E7EEFAEFFB12B7
:105F90000F7B8070EC7001ED606A900AB9E06409D3
:105FA0007062900C8EE06404705A1262C170558A5F
:105FB000828B83A3A3A3E0F97F008F82AC82EC12D3
:105FC00064D9E0FEE82CF582E91265B66E70070F21
:105FD000EFC3940440E488828983E05404601CA3E6
:105FE000A3A3A3A3A3E070138A828B83A3A3A3A379
:105FF000E0640B7006EFC39404500479BA80027910
:1060000000120F87022046EA2411F58222851882A9
:10601000851983A312193C2274F7120495EC7001C0
:10602000ED70030261238C828D83E0900A86122238
:106030006212612FC41313540312064E0102526000
:1060400046604A604E607E0F800A7E1480067E198C
:1060500080027E007401900A85F0EA2430F582EB1C
:1060600012144CC39400A2D265D033400474FF8054
:1060700003E0C333900A8B124B12540364038A82E9
:106080008B83A3A3700AE0240812613E24F88008E1
:10609000E0240612613E24FA900A8AF0EA2423F5ED
:1060A00082EB1215977017EA241BF582EB12144C41
:1060B00064FF7004A3E064FF700474018001E49045
:1060C0000A8C124B1254046006900A8C124975888F
:1060D000828983E0540364037013900A8C12612A4E
:1060E00088828983122309900A88122B73888289F7
:1060F00083A3A3A3A3A3E0900A87F0EE601E9008F9
:1061000073E06E6017900894E0A2E3500FEE9008E1
:1061100073F07A807B00120AA1120F4B7A857B0AFA
:10612000120BBB0220468E828F83E0D2E2F022A3C4
:10613000A31261352212483188828983E022FCA3B0
:10614000E03400FD900A8DECF0A3ED1241DCA3A336
:10615000A3E022C082C083900AB8E0A2E050097A8E
:10616000737B0879E1120CA5022564C082C083907C
:106170000AB8E0A2E040031247FF022564C082C0D3
:1061800083900AB8E0A2E450031261957A737B0809
:1061900079E1025A347A707B0812480BE0C2E0F0D1
:1061A0002274F5120495900C8EE060046401706313
:1061B000900ABDE07035900C79E0FA900C78E06AB6
:1061C00070217AA47B0879E5120CA57402900C8EDC
:1061D000F01262E790087E124B4C7A007B10124B53
:1061E00040804F900C79E004F0801475087A7509AE
:1061F0000C750A0078081207B71262CD1207E890F2
:106200000C8EE06401700779B9120F878024120F99
:106210006F801FE064037015900ABDE0700874047D
:10622000900C8EF080AE900ABDE0F980DCE0640254
:1062300060F402520174F5120495EC7001ED607E79
:10624000900AB9E064097076900C8EE06403706E79
:106250001262C170698A828B83A3A3A3A3E06457EF
:10626000705C8A828B83122295FEE9FF8E828F8377
:10627000A3A3A3A3A3A3E0FA900C79E06A70167518
:10628000087A75090C750A0078081207B71262CDF2
:106290001207E88005E0046A70248E828F83A3A32E
:1062A000A3A3A3A3E0900C79F012643F900C79E0D3
:1062B000FA900C78E06A70061262E7120F750252CB
:1062C000018C828D83E0FC900C77E06C227C107D49
:1062D00000900C77E075F02BA424B7FAE5F03408B1
:1062E000FB1210A1740322900ABAE0F0A3E054EF6D
:1062F000F07A007B10125AB32274F7120495E990D9
:106300000C77F075F02BA4A9F024B5F582E93408D8
:10631000F583E0A2E25008900894E0A2E2400979F7
:10632000B0120F877900806B126692FEE93408FF85
:10633000EE2411121B83F07C107D0079001228AC32
:106340001210957C107D0079007A7A7B0C121095E2
:106350007409900AB9F0EE240C121CAC900C78E091
:10636000F8740128FCE43400FDEC75F03CA4FCAAB0
:10637000F075F03CEDA42AFD7A007B10124B401220
:106380006692F8E5F03408F9900C911250F9120F6A
:1063900051790102204674F01204957B007A00794D
:1063A000571264707002A3E0700879BE120F870262
:1063B000643C12650674068E828F83A3A3A3A3A3F5
:1063C000F0900C79126454F0EE2407F508EF126493
:1063D0004F7AF17B071209C3750A051210178A0C50
:1063E0008B0D8C0E8D0F850882850983780C120920
:1063F00088900AC0780C120979850882850983A3E0
:10640000A3A3A3A3A3A3A3780C120988900ACE7810
:106410000C120979900AC0780C1208C6AC08AD09B4
:106420007AF17B071209C9E508241012644B150A9A
:10643000E50A70A712643F749412646202153CEE80
:106440002407FAEF3400FB120F8122F508E5093426
:1064500000F50922E08E828F83A3A3A3A3A3A32226
:106460007414900AC4F0120F8D227B007A00790F09
:10647000120C27900C8FEAF0A3EB12647E22F090AE
:106480000C8FE02274F612049512646A7002A3E085
:10649000700779BE120F87803D126506740712657A
:1064A000BBF508120D23850882A882E81264D9E999
:1064B000F01265A2E9F00508E508C3940440E4126F
:1064C00065D21207BB1264F21207E8E97005126484
:1064D000E380BF126460023791248AF582E4340CB1
:1064E000F58322900C8F1264EA22123B08FB1210F3
:1064F00083227906900C91E0FCA3E0FDEEFAEFFB1D
:10650000120F27740222900C8FE0126517124E1999
:10651000124DDD12653622242D1265277403126494
:106520007E242A12652722F8A3E012652E22340069
:10653000F9888289832212647E1236A5E0FEA3E0E8
:10654000FFEEFAEFFB120F0F2274F61204958A0881
:106550008B0912646A7002A3E0700779BE120F877C
:10656000803D12650674081265BBFA8A82A882E52E
:106570000828F582E5091265B6C0E01265A2D0E0F0
:10658000F00AEAC3940440E31265D21207BB126416
:10659000F21207E8E970051264E380BF126460023A
:1065A0003791EE28F582EF1265AB22125E83A3A32A
:1065B000A3A3A3A3A3221265ABE0228E828F83A3A1
:1065C000A3A3A3A3F0E48E828F83A3A3A3A3A3A377
:1065D000F0228E828F83E0D2E2F0EE2405F508EF00
:1065E0003400F50978082274F5120495EAFEEBFFF1
:1065F000900C7712457A24B7F508E5F03408F509D0
:10660000750A0078081207B77C107D007A7A7B0C37
:106610001266A41207E87A008A82A882850A08EE28
:106620002508121449F508900C7712457AFCE824E5
:10663000B7FAE43408FBEC2AF582E5F03BF583E099
:106640006508F074012808E43400F97A107B001220
:106650000344050AE50AC3945040BD02520174F791
:10666000120495E9FE1262E774B06E70047E008039
:1066700011EE600E126692F582E5F03408F583742F
:10668000FFF0900C77125E6A12497AEE900A54027B
:106690002043900C77E075F02BA424A522FC7D000C
:1066A000EEFAEFFB1210A1740322C082C08374FEC5
:1066B000120833900C91E07002A3E0601B900C91E3
:1066C000E0240C1267957950120CA5900C91E024EF
:1066D000011267957953800E90089F74FFF0A3F024
:1066E0007A9F7B087950120CA57A7B7B08794E1231
:1066F000678BA2E75016851882851983E4F0A312F0
:1067000028C1795912678BC2E7F080097A7C7B082F
:106710007959120CA57AC57B0A79E112678B64045A
:1067200070097CE87D037A02124B3E900AC4E06453
:1067300004600AE064146005E06424700712679C3A
:106740007401800412679CE4F0900ABCE0C0E09001
:106750000C8F1267A6D0E0F0900ABCE004F0900A1B
:10676000C4E0600964016005E06424700474028080
:1067700001E4900AC612647EF81267B3900AC7F06B
:10678000900C8F1268A87402022C50120CA5900A6B
:10679000C4E022E02AFAA3E03400FB22900C8FE050
:1067A000242F1244CC22E0242E1244CC22851882BD
:1067B00085198312193BA3A3A3A3E022C082C0833F
:1067C00074FF120833900AC4E06404702DE4851845
:1067D00082851983F01268C0851882851983AA8280
:1067E000AB83794E120CA5851882851983AA82ABDA
:1067F000837959120CA5790180027900024DBAC043
:1068000082C083900AC6E0900ABE604CE07002A38A
:10681000E0605A900AC4E064247006900ABDE0600B
:106820003E1268C0900ABEE02404123692900AC755
:10683000121523E0C39AFA900AC71268B3F0900ABF
:10684000BE1268B9126794122B6F900AC6E014F05A
:10685000900ABE1268A88040E07002A3E0600E7A41
:10686000BE7B0A120C69900ABEE4F0A3F0900ABA4B
:10687000E054FD125AA87A02125AAD900AB9E024E7
:10688000FDC39407501212689B248FF582E9340BE4
:10689000F5831225111210B502256412689F22E0BB
:1068A000C333F8E433F9E822122313120C21228AAD
:1068B000828B83E08882898322E024021244DA22D8
:1068C0001268CD7AC57B0A79E1120CA522900AC51F
:1068D000E0F9120F09E9900AC5F02274F612049546
:1068E00074F7120833E99006EBF0120BCD75080827
:1068F00075090078081207BB74031209B3AC82ADA6
:10690000837AE87B07792F120A1D74021207E87A4E
:10691000008A0874011209B3E5822508F582E5832F
:106920003400F583E064FF70070AEAC3940840E18D
:10693000EAC39408501074011209B3AC82AD837A93
:10694000007984120ED9E4851882851983F0AC820F
:10695000AD837A017970120AF5851882851983E072
:10696000701C7AEF7B0A120BD3740185188285198B
:1069700083F0AC82AD83FA7970120AEF80077AF562
:106980007B0A120BD3E4900707F090072DF074FFF9
:10699000900C17F01269A174091207E87F02020631
:1069A000107A019006EBE0F9120FED2274F6120452
:1069B00095EAFEEBFF74805FF9E47001E9601A90DC
:1069C00006EBE0F9121077EA7001EB600312108316
:1069D000EEFA74806FFB026A61EEA2E0506A790100
:1069E000120ED37C1A7D077A007960120ED97C1CB6
:1069F0007D077A007964120ED97C207D077A0079B0
:106A000062120ED974FF90072BF0900C0F74E8F00F
:106A1000A37403126A677963120ED9E4900C0FF025
:106A20007C0F7D0CFA7966120ED9741E126A647995
:106A300069120ED97401126A64796C120ED9120EA1
:106A4000A974016EFAEF808D5402601190072DE059
:106A5000600BE4F07BFF7AFF7923120B197A007B3D
:106A60000002699C900C0FF07C0F7D0C7A00227460
:106A7000F012049574FE1208338908ECFEEDFF75E0
:106A800009008A8285820AE9C39490503674686549
:106A90000870067509B4026B727C0F7D0C7A0012C7
:106AA0000EC7E9F509750C0F750D0C750E00780C05
:106AB0001207B7AC0A7D00EEFAEF12728A1207E8ED
:106AC000026B72E9C394AF5019750AF5750B0A7819
:106AD0000A1207BB120B9174021207E8E9F50902CA
:106AE0006B72E91206B10007B0FF6AB1326BB237C0
:106AF0006BC05F6BC1636BC2676BC36B6B6F6BE427
:106B000090072CF0F50A851882851983AA82AB8339
:106B1000A90A120ECDE9700690072CE004F0050AD0
:106B2000E50AC3940A40DF90072CE08E828F83F041
:106B3000804090072B80F3851882851983AA82AB49
:106B40008390072BE0F9120ECDE9FA8A09702385AC
:106B50001882851983E0F50CA3E0F50D026AAB7489
:106B60001280C8740A80C474CE80C0741080BC7552
:106B700009E8A90974021207E87F0802061074F6F2
:106B8000120495E9FEC39490501074686E700479F5
:106B9000B4804F7A00120ED98048EEC394AF5015DE
:106BA0007508EF75090A78081207BB120B91740279
:106BB0001207E8802DEE1206B101C0C38F6B03B03F
:106BC0008F6BB1CA6BB2D76BE06B8C828D83E09018
:106BD000072BF07900800B90072BE0FA796880B5DD
:106BE00079E802699C74ED1204958A0D8C0A8D0B6C
:106BF00074131209B3E0F508A3E0F509890E750FC7
:106C0000007402780E120912E50E24C7FEE50F3457
:106C100012FFEE2480F582EF34FDF583E493F985CD
:106C200008828509831210B5E50864F57004E5094A
:106C3000640A7031E9602EEE2482F582EF34FDF5AE
:106C400083E493F508740193850810F5117512001B
:106C500078101207B7AC0D7D00AA0AAB0B12728B2D
:106C60001207E879007F0B02061074F7120495747E
:106C7000FF1208337AF57B0A120BD3900708E01253
:106C8000064E0002DF6C8C6CC56CD36C8518828557
:106C90001983AC82AD837A007983120EC7E9FE7046
:106CA0001F851882851983E0601B7900120ED3902E
:106CB0000721E0A2E0402A7A007B00120F338021F6
:106CC000120B0780267A017B009006EBE0F9121088
:106CD0004D8013120BCD7AEF7B0A120BD380E67E28
:106CE000E8EEF9120B077A001269A374011207E8A3
:106CF0007F01020610C082C083E49006F1F0900785
:106D00000FE0FC748F5C44109006F1F07A00801361
:106D1000126DA5C0E0E824F2F582E43406F583D0D4
:106D2000E0F00A126D9C40E874019006F5F09006C0
:106D3000ED74FFF0A3F09006EFF0A3F09006FCF0E6
:106D400090071EE0F8A3E0F9900705E8F0A3E9F04A
:106D500074019006FDF09006FEF0126D63120E674E
:106D6000026E62900707F07AED7B0622C082C08334
:106D7000900707E06401600AE064026005E06403D4
:106D800070087404F0120E6D800FE06405700574D5
:106D900006F0800579B4120B13026E6274065CC3B0
:106DA00013FBEA9B228A82A882E82410F582E4344D
:106DB00007F583E02274EE12049574FE12083389FD
:106DC000088A0FECFEEDFF8B1074141209B3E0F586
:106DD0001174151209B3E0F50AA3E0F50B851882CA
:106DE000851983AA82AB83120ECDE9FA8A09705401
:106DF000E5089006EDF0E50F9006EEF09006EFEE58
:106E0000F0A3EFF0E5109006F2F0E5119006F11214
:106E10006D66120E55E9FA8A097029850A0C850BF0
:106E20000D750E00780C1207B7AC117D009006F5B9
:106E3000E0FAA3E012728A1207E87407126D631277
:106E40000E5B800AE4900707F0A909120B2B74026D
:106E50001207E87F0A020610C082C083120F3312A5
:106E60000B31D083D082020764C082C0837A0012C3
:106E700069A37900120B3780E974F212049574FE4D
:106E8000120833EAFEEBFF90072EE07002A3E060E9
:106E90001190072EE0F8A3E0F58388821210B50266
:106EA000707D8E828F83A3858208858309EE2402FC
:106EB000F8EF3400F9880A890B8E828F83E012067E
:106EC000B1000B01247002177003036F05356F06C4
:106ED0003B6F09896F0DE66E0E0D700FF56F105543
:106EE0006F11416F7D70900721E0A2E040077A00AA
:106EF0007B00120F33850882850983E0F9120B07A6
:106F000002707D900C17E064FF700302707D888230
:106F10008983E0FA900C17E06A600302707D900CA0
:106F200018E0FB900C17127089120B1974FF900C6B
:106F300017F002707D120BC102707D120BC7027038
:106F40007D900707E06404600302707DE4F0F912AD
:106F50000B1302707D850882850983E0F50C701D96
:106F60007CE87D037A027B009006EBE0F9120FC902
:106F7000E9FA8A0C7007740190072D80B47BFF7AC0
:106F8000FFA90C120B1902707D900707E0640560E1
:106F90000AE064067051750D018003750D00E4125E
:106FA0007094702E851882851983AA82AB8388829B
:106FB0008983E0F9120ECDE97021EE241DF582EFF0
:106FC0003400F583E0FB850A82850B83E0FA7900C3
:106FD00080067BFF7AFF7922120B0DE50D7003020C
:106FE000707D7924026F4FE4F07BFF7AFF79B41251
:106FF0000B0D02707D850882850983E0F9120B254F
:10700000850882850983E0F9120EB58070888212A6
:107010007087120B1F8066E4900707127094F912B4
:107020000B2B80598E828F83A3A3A3A3A3A3A3A317
:107030001206848E828F83A3A3A3A3A3E0F50D7809
:107040000D1207BF8E828F83A3A3A3A3A3A3A3E0E4
:10705000F50D780D1207BF8E828F83A3A3A3A3A380
:10706000A3E0FB8E828F83A3A3A3E0FCA3E0FD85B6
:107070000A82127087120B3D74041207E874021220
:1070800007E87F060206108983E0FA8508828509F1
:1070900083E0F922F0850882850983E02274F512E5
:1070A0000495900707E0640160030271358A828BC2
:1070B00083A3A882A983E070787E0080080CECC3CB
:1070C000940640340EEA2417F582EB3400F583E091
:1070D0005406C313FCEE9C50588E08EA2508FCEBBE
:1070E0003400FD74272CF582E43DF583E0FD74FE49
:1070F0002DC3940E503B7C008C08E5082409F582D2
:10710000E43407F583E0FF6D600574FF6F70AE88AF
:10711000088909750A0078081207B77C317D007A62
:10712000DE7B0B12728B1207E87402900707F08067
:1071300009740380F6E0640260F77F03020610C062
:1071400082C083900707E0640260030271D7900B4E
:10715000DFE09006EDF0900BE0E0F8A3E0F9900698
:10716000F6E8F0A3E9F07CE27D0B7AEE7B06120FE5
:10717000A590070FE0FC9006F8F07A008013126DDE
:10718000A5C0E0E824F9F582E43406F583D0E0F008
:107190000A126D9C40E87A0080131271EFC0E0E89B
:1071A00024FCF582E43406F583D0E0F00A74705CC8
:1071B000C430E30244F0FBEAC39B40DE900721E0C9
:1071C000A2E2500474248001E4900703F0740512D5
:1071D0006D63120E978015E064016005E064037032
:1071E0000BE4F07BFF7AFF7921120B0D026E628AAD
:1071F00082A882E82413F582E43407F583E0227440
:10720000F51204957401900708F0740F900721F0AF
:107210007C067D0079007A097B0712109574029034
:107220000709F0741290070FF07401900710F090A6
:107230000713F090071A7410F0A3E4F090071C7481
:107240004AF0A37401F09007227407F0A3E4F075EC
:10725000084475090BF50A78081207B77A447B0BC6
:107260001210658A088B0974012508FCE43509FDB4
:107270007A247B0712728B1207E890071E7464F061
:10728000A3E4F0900720F002713AFB1210A17403FE
:107290002274F5120495EAFEEBFF750A00850A08D0
:1072A00075090074027808120912E50824C7F8E588
:1072B000093412F988828983A3A3E493FC740193AF
:1072C000FD88828983A3E493FA88828983E493F911
:1072D0008E828F831210B5050AE50AC3940C40BD57
:1072E00002713A74F412049574FC1208337E00E4BF
:1072F000900602F09005FFF07F2D750804750900D7
:1073000078081207BB74021209B3AC82AD837A000D
:107310007B00EF1278FA1207E8851882851983C07E
:1073200082C083900B027808120979D083D08278CA
:107330000812085F70199005FFE06010F9120ABF8B
:10734000EFF9120ABFE49005FFF08029EF80FA857B
:107350001882851983C082C083900ACA78081209EE
:1073600079D083D082780812085F7004EFFE800520
:10737000EFF9120ABF0FEFC3942F50030272FA9075
:1073800005FFE07026EE7018792D120AB390060002
:107390007404F0A3E4F0900602E06019790080170D
:1073A000F0120AC5EEF9120AD7800AEE6004F9124B
:1073B0000AB9120AC5790102759A74F41204957417
:1073C000FC120833E9FE900B02780812097985183F
:1073D000828519837808120988851882851983ACFB
:1073E00082AD837A007B00120AE3900602E070050A
:1073F000EE9005FFF002759A74F412049574FF1272
:107400000833890879161209DBE96006900602E064
:1074100060087401900602F08039A908120A297EDA
:10742000007F00750A01750B00780A1207BB740211
:107430001209B3AC82AD83EEFAEFFBA9081278FB18
:107440001207E8851882851983E064FF70C41274FE
:10745000A140D0740102759C74F412049574FF125B
:10746000083389087E007F00750A01750B00780AD1
:107470001207BB74021209B3AC82AD83EEFAEFFBC4
:10748000A9081278FB1207E8851882851983E06441
:10749000FF6007A908120AB980051274A140C980CB
:1074A000B2EE24010EEF3400FFC394082274F412EC
:1074B000049574FC1208337EFC7F07750804750977
:1074C0000078081207BB74021209B31278EE120793
:1074D000E8851882851983C082C083900B067808DE
:1074E000120979D083D082780812085F7011EE24D7
:1074F000FCFEEF34FFFFC3EE9404EF940050BC1287
:107500007A9AE8F0A3E9F002759A74F4120495747B
:10751000FC1208338909EAFEEBFF8C08EE24FCFE1E
:10752000EF34FFFFC3EE9404EF94004069750A0442
:10753000750B00780A1207BB74021209B3AC82AD56
:1075400083EEFAEFFBA9091278FB1207E874021226
:1075500009B3E0F8A3E0F985188285198385080A44
:10756000E0650A7002A3E0700AEEC398FAEF940097
:10757000FB8027748059FBE47001EB709F74042832
:10758000FAE439FBC3EE9AEF9B4008EEC3981278F9
:107590004280901209CF7A007B0074041207E87FC2
:1075A0000402061074EC12049574FC120833890A64
:1075B000EAFEEBFF8C0B74181209B3E0F50EA3E0A2
:1075C000F50F741A1209B3E0F50CA3E0F50D851858
:1075D0008285198374FFF0A3F0A80E7480450FF91B
:1075E00074021209B3E8F0A3E9F0E82EF508E50FFC
:1075F0003FF509851882851983AC82AD83AA08FB03
:10760000A90A120AE374021209B31276917402787D
:107610000E120997E50EF510900602E0704E750FF8
:1076200000780E1207BBAC0CAD0D8E0E8F0F7402DE
:10763000780E120997850A12F51374097812120947
:1076400012250EFAE513350FFB120A2374021207F6
:10765000E8E510F50E780E1207BFAC0CAD0DEEFA92
:10766000EFFBA90A120ADD74011207E8850B0CE58D
:107670000C851882851983F0A3748012769785187B
:107680008285198312769174041207E87F0C020632
:1076900010E0F0A3E0547FF0851882851983AC8256
:1076A000AD83AA08AB09A90A120AE32274EA1204FC
:1076B0009574F81208338910750DFF742D651070DC
:1076C00005750C2E8003750C2D750A04750B009042
:1076D0000600E024FCFEA3E08005EE24FCFEEF346F
:1076E000FFFFC3EE9404EF9400500302781E90064F
:1076F00002E0600302783875080475090078081202
:1077000007BB74021209B3AC82AD83EEFAEFFBA99A
:10771000101278FB1207E8851882851983E064FF50
:107720007004A3E064FF703574021209B3E0F8A39B
:10773000E0F9748059FBE47001EB709E740428F842
:10774000E439F9C3EE98EF99400D74021209B312AF
:10775000784E127842808A1209CF027838851882D2
:10776000851983A3E05480F9E47001E970DC851881
:1077700082851983850D08E065087002A3E060CA60
:10778000851882851983E0F50DFCAA0AAB0BA90CBC
:10779000120ACBEA7001EB70B174021209B31278CD
:1077A0004EF508EF99F50988148915750E00750FC7
:1077B0000075120475130078121207BB74061209C3
:1077C000B3AC82AD83E50E2508FAE50F35091278D2
:1077D000F51207E874041209B3AC82AD83E50E25F7
:1077E0000AFAE50F350BFBA90C120AE3E50E240497
:1077F000F50EE50F3400F50FC3E514950EE515956C
:107800000F50AE74021209B3E02404F8A3E0340070
:10781000F9E50A28F50AE50B39F50B02774AA90CB8
:10782000120AB3900602E0700A900600E50AF0A37F
:10783000E50BF0A910120AB974081207E87F0E02CE
:107840000610F8EF99F974FC28FE74FF3922E0F86D
:10785000A3E0F9EEC3982274F012049574FC1208A8
:1078600033890FEAFEEBFF8C0A8D0B74141209B3F7
:10787000E0F5098014EE2404FEEF3400FFE50A244D
:1078800004F50AE50B3400F50B85090874FF25089B
:10789000F509E508604E750C04750D00780C1207AB
:1078A000BB74021209B3AC82AD83EEFAEFFBA90FF1
:1078B0001278FB1207E8850A0C850B0D750E00780F
:1078C0000C1207B77C047D0074031209B3A982AAC5
:1078D000837B0012109B74031207E8E97097740110
:1078E000900602F074041207E87F08020610AC82CA
:1078F000AD83EEFAEFFB9005FFE0F9120A1D74026A
:107900002274F1120495890E8A088B09ECFEEDFFB2
:10791000900602E0704B750A01750B00780A120799
:10792000BB8A0A8B0B7402780A120997890CF50D31
:107930007409780C120912250AFAE50D350BFB12B1
:107940000A2374021207E8750A01780A1207BFEECB
:10795000FCEFFDAA08AB09A90E120ADD740112079B
:10796000E87F07020610C082C083120AADE97003E7
:107970001209CFD083D08202076474F01204957488
:10798000FB12083389098A088C0A8D0BAC09127A1C
:10799000DB8A0C8B0DAE0CAF0DEE7001EF605075F5
:1079A0000E00803B750C01750D00780C1207BB743E
:1079B000021209B31278EE1207E88518828519833E
:1079C000E0FA850E0CE50A250CF582E50B3400F58E
:1079D00083E06A701AEE24010EEF3400FF050EE515
:1079E0000EC3950840BEE508650E7003027A9385C4
:1079F000080C7403250CF8E43400F97A047B0012B7
:107A00000344880C890D7402780C120912AE0CAF75
:107A10000D900600E02EF8A3E03FF9740428F8E486
:107A200039F9C3E89401E994084039900ACA780CFE
:107A300012097974011209B3E50CF0A3E50DF0A366
:107A4000E50EF0A3E50FF074011209B3AC82AD832B
:107A50007A007B009005FFE0F9120AE39005FFE051
:107A6000F9120AD7780A1207BB8E0A8F0B780A120E
:107A700007BBAC09127AE2120AD174041207E8902B
:107A80000602E06004790A800C127A9AE028F0A3DA
:107A9000E039F0790074050278E674042EF8E43FCA
:107AA000F99006002274F4120495890A8A0BECFE00
:107AB000EDFFAC0A127ADBEA7001EB6019850B0866
:107AC00075090078081207BBEEFCEFFD1278F6127C
:107AD00007E879008002790A02759F127AE2120A99
:107AE000CB22900600E0FAA3E0FB9005FFE0F9222C
:107AF000C082C0837A00790F120A5F027E5474F547
:107B000012049589088A0AEA1206B1010001337B42
:107B100003021C7B04297B08337B747B7CE87D0398
:107B20007B057A01120A65804B7CE87D037B057A30
:107B30003280F175090153080F7ED17F05801DE069
:107B40006401F0E0FAA909120A71E5096208E50981
:107B5000C333F509EE2409FEEF3400FFE508601495
:107B6000E509550860E87408650A8E828F8360CF46
:107B7000E50A80CE9005CEE0F97F0302061074EE90
:107B800012049589088A0B8B0A8C108D11E97003F9
:107B9000027C3BEB7003027C3BEC7001ED70030256
:107BA0007C3BEBC394644003027C377509015308A6
:107BB0000F7ED17F05806EE5095508605A9005CE8D
:107BC000E05509FA9005D0E04AF0E48E828F83F008
:107BD000A3A3A3E510F0A3E511F08E828F83A3A3E6
:107BE000E50AF08E828F83A3E50BF0700774048E94
:107BF000828F83F0120CB78E828F83A3A3A3A3A3DB
:107C0000EAF0A3EBF0A3ECF0A3EDF08E828F83E01B
:107C1000D2E1F0E5096208E509C333F509EE24096C
:107C2000FEEF3400FFE508708E7A027B009005C7F6
:107C3000E0F912104D80097A0180027A00120A5F81
:107C40007F0A02061074E812049574FF1208337E4E
:107C5000007F00751601740F851882851983F075F1
:107C600014D17515059005F5E06003027DF18518C6
:107C700082851983E055167003027DC385148285C1
:107C80001583E0A2E14003027DB9120CB78A0C8B88
:107C90000D8C0E8D0F851482851583A3A3A3A3A33A
:107CA00078081209797808790C1209595003027D75
:107CB00091851482851583A3A3E0FA851482851526
:107CC00083E0A2E0502E7464C39AF517E0C2E0F09E
:107CD0007A00A916120A71851482851583E0A2E242
:107CE000401EA3E014F07018851482851583E064AB
:107CF00002F0800C8A17D2E0F07A01A916120A71FC
:107D0000851482851583E0A2E15061851708750905
:107D100000750A00750B00A3A3A3E0F510A3E0F51E
:107D200011751200751300780879101203A5900AD6
:107D3000D678101209797808791012042585081070
:107D4000850911751200751300780C791012092538
:107D5000851482851583A3A3A3A3A3E50CF0A3E553
:107D60000DF0A3E50EF0A3E50FF080327508007565
:107D700009009005D0E0551660047A0180027A006F
:107D8000A916120A5F74FF6516FA9005D0E05A80B2
:107D9000D8E508C3950CF508E509950DF509EE70D1
:107DA00001EF6011E5087002E509600DC3E5089E6A
:107DB000E5099F5004AE08AF09851882851983E054
:107DC0006516F0E516C333F516E5142409F514E538
:107DD000153400F515E06003027C6EEE7001EF6073
:107DE00010EEFCEFFD7A027B009005C7E0F9120F60
:107DF000C974011207E87F10020610C082C083E92F
:107E0000A2E0500B74016A7004C2A08002D2A0E903
:107E1000A2E1500B74016A7004C2918002D291E910
:107E2000A2E2500B74016A7004C2918002D291E9FF
:107E3000A2E3500B74016A7004C2A08005D2A0EACC
:107E400060079005CEE049800974FF69FB9005CE7C
:107E5000E05B8004E49005F5F0D083D082020764F3
:107E6000C082C08374019005F5F0E5A0FAE590FBAF
:107E7000E590FCA2A0E492E0F4540133333354F8CB
:107E8000C0E0ECA2E1E492E0F45401333354FCC0CE
:107E9000E0EBA2E1E492E0F45401C333C0E0EAA2D3
:107EA000E0E492E0F45401FAD0E04AFAD0E04AFA71
:107EB000D0E04A9005CFF07A00790F120A718099CC
:107EC000C082C0837A019005CFE0F9120A71120ACC
:107ED0006B027E5402076474F41204958908740CD2
:107EE0001209B3E0FEA3E0FF740F5508F50A750B05
:107EF00000740B780A1209122AF874803BF9E428FE
:107F0000E50B39F9E5C7F509E508C4540FC0E0747D
:107F1000F855C7FAD0E04AF5C7801C88828983E00B
:107F20008C828D83F088828983A3A882A9838C8226
:107F30008D83A3AC82AD83EEFAEFFB74FF2A1E742F
:107F4000FF3BFFEA7001EB70D28509C77F04020690
:107F50001074F6120495740A1209B3E0F508A3E050
:107F6000F509ED90059FF0EC9005A0F07462900586
:107F7000A1F074739005A2F09005A3E0541FF0E502
:107F800008333354FC9005A4F0740678081209975E
:107F9000E5089005A3F074129005A5F074429005D1
:107FA000A6F075D1FE75D601EA906271F0EB906291
:107FB00072F0906270E0D2E1F0E0A2E740FB7F0255
:107FC000020610C082C083E9C333906272F07A0265
:107FD000906270E0D2E0F0E0A2E740FB906272E0D5
:107FE00004F01AEA70EAD083D082020764C2AF7547
:107FF000C90B0080FDFFD385851A8700020764FF47
:1080000074F7120495E9900607F0E4900604F07AFC
:1080100001FB12104D74FF900606F002814A74F4C1
:10802000120495EAFEEBFF74805FF9E47001E970D9
:1080300040EEA2E0500F900604E07009120B4912C6
:108040000B97120BB5EE5408607D900604E06405B2
:1080500070759006E51280D09006091280D07420C9
:10806000900645F07401900646F07A0080261210C2
:1080700083900607E0F9121077EA7001EB70EFEEDB
:10808000FA74806FFB8044EA2447F582E43406F5F5
:1080900083EAF00A900B1BE0FBEAC39B40E91282E3
:1080A000BD9006C5780812098875084575090678D7
:1080B000081207BB900B1BE02402F5087808120792
:1080C000BF1287F51207E87A007B007F04020610D2
:1080D0001280D422E02401F0A3E03400F02274F7EF
:1080E00012049574FF120833E9705A7CE77D067A12
:1080F0000179C1120B857401900604F074FF90069B
:1081000003F0E4851882851983801812814F700B63
:10811000851882851983E0900603F08518828519F9
:1081200083E004F0E0C0E09006E7E0FAD0E0C39A14
:1081300040D9E4851882851983F0AC82AD837A0139
:1081400079A0120B8B74011207E87F0102061085DB
:108150001882851983AC82AD837A0179B1120B8BB9
:108160007CB37D0B7A2B79B2120B85E92274F7125E
:108170000495E9FEEAFF7A007902120A5FEE7005C3
:10818000EF900603F07401900604F0FF020610C0A1
:1081900082C083900604E0640270077A00790212BC
:1081A00082B302865E02076402076402076474F009
:1081B000120495E99006046003028290E064037063
:1081C0000C7A0079011282B37F08020610E0640580
:1081D00060030282751282BD9006C9780812098870
:1081E0009006C978081209799006C5780812081B0C
:1081F000900B29780C120979780C790812095950DA
:108200005F900AD6780C120979780C79081209590E
:108210005024900B2D780C1209797808790C1204EF
:108220002574017808120912E508240BF582E50986
:108230003406F583802D900B3178081208EC900BF2
:1082400035780C1209797808790C120425740178B4
:1082500008120912E508241FF582E509340680D2C8
:108260009006431282C97003A3E06970407406123D
:1082700085B50281C8E0640660030281C87405F018
:108280007CD07D077B327A007901120A650281C8B1
:10829000E0640370030281C1E0640560030281C8E9
:1082A0009006431282C97003A3E06960C0120B6795
:1082B0000281C8120A5F7401900604F022120CB702
:1082C0008A088B098C0A8D0B221280D4900609E053
:1082D000F8A3E0F9900B1CE068220207640207642F
:1082E00074F5120495740B1209B3E0FA740C1209B8
:1082F000B3E0FB740D1209B3E0F8A3E0F9EB604CB6
:1083000074076C7001ED7044EAA2E2503F888289E4
:1083100083E064207036900604E06405702E888245
:108320008983A3E0702688828983A3A3A982AA8374
:1083300089088A09750A0078081207B77C087D0049
:108340007A187B0B1210A174031207E80285A0743F
:10835000F512049574FA120833E9FE1285A56E70C1
:10836000097508FFE4900605801D900B28E06E70EB
:108370000C900605E064FF600FE004800AEEF0E474
:10838000900605F09006E8F0900604E0640570445D
:10839000900605E0707274FF6E607574B3650870C6
:1083A00006120B6102859B7C3D7D0079007A087B7B
:1083B0000612109574216508600302859B74019074
:1083C0000608F07CF4FD7B327A00F9120A65120B84
:1083D0006702859BE064067010900605E07029E551
:1083E000087025120B6D02859BE06402701274B058
:1083F00065087014900605E0700E120BA302859BB1
:10840000E064016019E0601674FF6E600302859BF2
:1084100074FF900B28F0E49006E8F002859BE508D5
:10842000C394C0401874FF650860397440250890F3
:108430000606F0120B5B74FF90060680DDE508C3AC
:1084400094B04020E508C333F8E433F9E824C0F5DC
:1084500082E93409F583E0F8A3E0F58388821210FD
:10846000B502859B900603E064FF700302859B9034
:108470000604E06401600302859B7F04750A0174B1
:108480006B65086006744065087009900605E06039
:108490000302859B744565087019900605E0C39436
:1084A00064401012862A79A0120B8BC2AF120BD92E
:1084B0000080FD74FF6E70519006E8E06043740127
:1084C0001209B37403F0900B28E01285A5900B28D5
:1084D000F0E49006E8F0E508C394835070750A0252
:1084E000E508C394807402405E1209B37468F075A5
:1084F0000A0374802508C0E074031209B3D0E08039
:108500004B74FF900B2802841A900605E0600C74EF
:10851000011209B37402F0740180B7E508C39483B3
:108520007401401B1209B37430F0747D2508C0E05B
:1085300074021209B3D0E0F0750A027F44800E1273
:1085400009B37401F080961209B3E508F0740312C0
:1085500085B57C037D061281597012900BB3E064DF
:10856000FF600A900BC4E06004EFD2E3FF740112D5
:1085700009B385820885830978081207BBE50AF5E7
:108580000878081207BFEFFB7C077D007A01900690
:1085900003E0F9120BA974031207E874061207E846
:1085A0007F03020610244BF582E43412F583E49332
:1085B000F50874FF22900604F07A017901120A5F2F
:1085C0002274F712049574F8120833740485188223
:1085D000851983F0AC82AD837A0179A1120B8B7C73
:1085E0000B7D0B7A0679A212862779A41286277949
:1085F000A5120B8B8518828519837407F0A3E4F00C
:10860000851882851983AC82AD837A0179A8120B13
:108610008B7A117B0B1210650A7C117D0B79A912E4
:108620000B8B7408028147120B8B740185188285AD
:108630001983F0AC82AD83FA22C082C08390060514
:10864000E0700F7402900604F07A01F9120A5F12CA
:108650000B9D800AC082C0837404900604F0D0830E
:10866000D08202076474F612049574FF12083390E6
:108670000605E0705D900603E064FF605DE0048540
:108680001882851983F0851882851983E0FA90068F
:1086900003E06A603D12814F704A7A00900606E05E
:1086A00064FF60238A08E50824D7F582E4340BF5DB
:1086B00083E0FB900606E06B60070AEAC394034080
:1086C000E3EAC39403501D851882851983E0900660
:1086D00003F074011207E802878EE4851882851979
:1086E00083F080B1851882851983E004F0FA900642
:1086F000E7E06A7091900603E064FF60D5E40286CB
:108700007FC082C083900605E07034900604E06468
:108710000560187AFF7BFF120BAF7CD07D077B32A0
:108720007A007901120A65740580107A007B0012C4
:108730000BAF7A007901120A5F7401900604F0020F
:10874000865E74F6120495900B1EE07002A3E06042
:108750003112108F8A088B09A808A909900B1EE016
:10876000FAA3E0FB12034C8A088B0974012508FC6C
:10877000E43509FD7A087B00900607E0F9120FC97D
:10878000800C7A087B00900607E0F912104D7F02FA
:1087900002061074F512049574C112083374208512
:1087A0001882851983F074011209B37402F07508F8
:1087B00008750906750A0078081207B77C3D7D0028
:1087C00074051209B3AA82AB831210A174031207B5
:1087D000E8851882851983858208858309780812BF
:1087E00007BB75083F78081207BF1287F51207E824
:1087F000743F02859D900B1AE0FB7C077D007A0197
:10880000900603E0F9120BA974032274E812049590
:1088100074ED120833E9851882851983F07401120A
:1088200009B3ECF0A3EDF0742B1209B3128CD174E0
:108830002D1209B3E0F516A3E0F517742F1209B352
:10884000E0FEA3E0FF851882851983E07003028BA8
:108850002874031209B37401F0EE7001EF60037421
:1088600041F0851882851983E024FE333354FCFCE3
:1088700074031209B3E04C128EC21207B77C0D7D4F
:108880000074071209B3AA82AB83128CE71207E8BF
:1088900074111209B3E511F074121209B3E510F066
:1088A0007C107D00790074331209B3128CD9121038
:1088B00095750820750900C3EE940FEF9400402DC4
:1088C00074F22EF874FF3FF974F058F8742028F50C
:1088D00008E439F509EE24F2540F600478108002A0
:1088E0007800E50828F508E5093400F509E5105495
:1088F0000FF50F60047A1080027A0074F05510F8BA
:1089000074FF5511F9EA28F8E439F9E50828F50863
:10891000E50939F509AA08FB1210058A148B15EA36
:108920007001EB70057910028B2A74031209B3A948
:1089300082AA83890C8A0D750E00780C1207B77C09
:10894000107D00AA14128CE71207E8E5142410F534
:108950000AE5153400F50BEF850A82850B83F0A339
:10896000EEF0A385820A85830B85160C85170DC34F
:10897000940FEF9400400B780C1207B77C0E7D002B
:1089800080167C0E7D007900AA0AAB0B1210957838
:108990000C1207B7EEFCEFFD128CE31207E8E50AB4
:1089A000240EF50AE50B3400F50BC3EE940FEF949B
:1089B000005003028A37EE24F2FEEF34FFFF8E12DE
:1089C0008F137404781212099785120C85130DEE1B
:1089D000540FFE7404780C120912850C128F13E5E3
:1089E00016240EF50CE5173400F50D780C1207B7B8
:1089F000AC12AD13128CE31207E8E50A2512F50A52
:108A0000E50B3513F50BEE602E7C107D007900AA86
:108A10000AAB0B121095E5162512F8E5173513F978
:108A2000740E28F50CE439F50D780C1207B7128C8A
:108A3000DF1207E8128CBE740478101209978510B3
:108A40000C85110DAE0F7404780C120912850C10F0
:108A5000850D1174011209B3128CCB1207B7AC103B
:108A6000AD11128CE31207E8E50A2510F50AE50BB3
:108A70003511F50BEE602B7C107D007900AA0AAB56
:108A80000B12109574011209B3E02510F50CA3E048
:108A90003511F50D780C1207B7128CDF1207E812AA
:108AA0008CBEE50AC39514F8E50B9515F9E8650841
:108AB0007003E9650960031209CF128EB143B35008
:108AC000E5B374331209B3128CD9128CB185140A30
:108AD00085150B7404780812099774FF2508F50CA6
:108AE00074FF3509F50D800AAA0AAB0B12105F124C
:108AF0008CBEA80CA90D74FF28F50C74FF39F50D78
:108B0000E87001E970E2128EB185B3B37A0FEA1A08
:108B100070FCAC0AAD0B74331209B3128CD912106D
:108B200029AA14AB15120FFF790074131207E87FFE
:108B30001002061074E912049574DE1208338518C9
:108B400082851983ECF0A3EDF0EAFEEBFF74391295
:108B500009B3E0F508A3E0F509743D1209B3128CDE
:108B6000D185100CF50D750E00780C1207B7E9FCD5
:108B70007D0074151209B3AA82AB83128CE7120729
:108B8000E874021209B37401F08E0C8F0D780C1288
:108B900007B77C0D7D0074061209B3AA82AB83125D
:108BA0008CE71207E874111209B3E4F0741012098B
:108BB000B3E4F085080A85090B7404780A12099752
:108BC000AE0AAF0BE508540FF50F6008EE24010E56
:108BD000EF3400FF8E0A8F0B7404780A120912AA70
:108BE0000AAB0B1210058A0A8B0BEA7001EB7005B9
:108BF0007910028CA7851882851983128CCB1207F5
:108C0000B7AC08AD09128CE71207E8E50F601BF559
:108C10000C7410C3950CFCE49400FD7900E50A2562
:108C200008FAE50B3509FB121095128EA81209B34C
:108C3000128E9E1209B3AC82AD83AA10AB11121032
:108C400023128EB71209B37401F074021209B3AA89
:108C500082AB83128CB1850A0C850B0D800EAC0A99
:108C6000AD0BAA0AAB0B121023128CBEEEF8EFF973
:108C700074FF281E74FF39FFE87001E970E0850C6D
:108C800014850D1575160078141207B7AC08AD09D8
:108C900074031209B3128CD9128CE71207E8AA0CDC
:108CA000AB0D120FFF790074221207E87F0F020646
:108CB00010128CB52212101D53B3F8E5B322E50A49
:108CC0002410F50AE50B3400F50B22128E96780C71
:108CD00022E0F510A3E0F51122E0FAA3E0FB22EE7A
:108CE000FC7D00AA0AAB0B1210A174032274E912D6
:108CF000049574DE120833890F8C128D13743912A7
:108D000009B3E0FE74021209B37401128EC2120795
:108D1000B77C0D7D0074061209B3AA82AB83128C56
:108D2000E71207E874111209B3E4F074101209B3E2
:108D3000E4F0EEC3950FF50AC4540FFE7F00740FE4
:108D4000550A60010E7C107D00790074121209B37F
:108D5000AA82AB83121095850A08E5122508F8E56A
:108D6000133400F9851882851983E8F0A3E9F085AA
:108D70000F82858210851882851983128E968F0E38
:108D8000780C1207B7AC107D0074151209B3AA82D3
:108D9000AB83128CE71207E8128EA81209B3128E69
:108DA0009E1209B3AC82AD83743D1209B3128CD903
:108DB0001210238E088F097404780812091285088E
:108DC0000C85090DAA0CAB0D1210058A148B158A9F
:108DD000088B09EA7001EB70057910028E93AC0CD8
:108DE000AD0D790012109585120C85130D780C12BB
:108DF00007B7AC0A7D00AA08AB09128CE71207E896
:108E0000128EB71209B37401F074021209B3AA8268
:108E1000AB8312101D74F855B34402F5B385080CEA
:108E200085090D8017AC08AD09AA08AB09121023FB
:108E3000E5082410F508E5093400F509EEF8EFF926
:108E400074FF281E74FF39FFE87001E970D77516AA
:108E50000078141207B7AC0A7D00AA12AB13128C6B
:108E6000E71207E8AA0CAB0D120FFF743D1209B30D
:108E7000E0F508A3E0F509750A0078081207B7AC19
:108E8000107D0074031209B3128CD9128CE71207FB
:108E9000E87900028CA7E0F50CA3E0F50D22AA8288
:108EA000AB83128CB5741222128EB143B3207402BC
:108EB0002253B38FE5B322128EB143B330E5B374BE
:108EC0001122F08A088B09750A0078082274EE12C4
:108ED00004958908ECFEEDFF74121209B3E0F874F2
:108EE000141209B3128CD174161209B3E0F50EA353
:108EF000E0F50F74181209B3128E96741A1209B3A2
:108F0000E0F50AA3E0F50BE9700779007F0A020695
:108F100010E8C39508F509780A1207BB780C120708
:108F2000BB780E1207BB78101207BB85090C750DB4
:108F300000780C1207BB1209E1740A1207E8E97005
:108F4000CB7A0080010AEAC3950850C0AC097401CD
:108F50002CF5098A0CE50A250CF582E50B3400F5A1
:108F600083E0FB8C0CEE250CF582EF3400F583E0FA
:108F70006B60D279018095C082C083120FB1D0831B
:108F8000D08202076474F5120495EAFEEBFF740BBD
:108F90001209B31291EAA3E0A908AA09FB8E828FF5
:108FA00083800D1207CEF0E9240109EA3400FAA308
:108FB000ECFEEDFF74FF2E1C74FF3FFDEE7001EF21
:108FC00070E1AA82AB837F0302061074ED12049550
:108FD00074131209B3E0F510A3E0F511A3E0F51244
:108FE00089088A098B0A85100C85110DECF8EDF9BA
:108FF00074FF281C74FF39FDE87001E96036A90888
:10900000AA09AB0AE92401F508EA3400F509850C40
:1090100010850D11E50C2401F50CE50D3400F50D5E
:109020001207CEFEA910AA11AB121207CE6E60BCB9
:109030007900800279017F0B02061074F612049504
:10904000E9FE8C088D0978081207BBEEFC7D001242
:109050000FAB74021207E80292A4A2E092AF7F0164
:1090600002061074F7120495120C93E9FF120C9388
:10907000E9FAEFFB02905E74F6120495EAFEEBFF4C
:10908000EE7001EF70067A007B00803E74052EFAC8
:10909000E43FFB1210058A088B09A808A909E870AB
:1090A00001E960E288828983E4F0A3F08882898301
:1090B000A3A3EEF0A3EFF074FF88828983A3A3A398
:1090C000A3F0E82405FAE93400FB0292A4C082C0B0
:1090D00083EA7001EB7004790580161291456004F3
:1090E0007904800DEA24FBFAEB34FFFB120FFF79C1
:1090F00000028F7E74F7120495E9FEEA7001EB70AE
:10910000047905803D900B43E0FCE9C39C400712C5
:1091100010837903802C129317E07002A3E070058E
:10912000129145600512108380D7EEF0EAFCEBFD4A
:109130007A817B011210717A007B80EEF912104D5A
:10914000790002905EEA24FFF582EB34FFF583E0BC
:1091500064FF2274F2120495890B750C00750D00E2
:109160007E007F00A2AFE492E0F50AC2AF900181D9
:109170008017EE7001EF700685080C85090DE50873
:1091800024FBF582E50912931D1291EAE5087002AD
:10919000E5096025E50824FFF582E50912931DE045
:1091A000650B70CEEE7001EF7006AE08AF0980CE91
:1091B0007A007B8012104D800D7A007B8012104760
:1091C000EE7001EF6015780C1207BBEEFCEFFD7A34
:1091D000817B0112105974021207E8E50AA2E0929D
:1091E000AFEEFAEFFB7F06020610E0F508A3E0F50C
:1091F0000922E0FAA3E0FB2274F7120495A2AFE47F
:1092000092E0FEC2AFEC24FBF582ED12931DE4F078
:10921000A3F01292477001E970098A828B83801053
:109220001293221292397002A3E08882898370F02F
:10923000ECF0A3EDF0EE02905AE824FBF8E934FFDD
:10924000F988828983E0228A828B83E0F8A3E0F99F
:10925000E82274F6120495EAFCEBFD7A007B00A28A
:10926000AFE492E0F508C2AF8C828D8312924B700E
:1092700001E9602AE8FAE9FBEA24FBF8EB12923EE6
:10928000FEA3E0FF8C828D83EEF0A3EFF08882894D
:1092900083E4F0A3F0EA24FF12931A74FFF0E508C8
:1092A000A2E092AF7F0202061074F5120495740BCF
:1092B0001209B3129322A2AFE492E0F50AC2AFEC16
:1092C00024FBFEED34FFFF8A828B831291EAEC656A
:1092D000087003ED65098E828F83700D1293228AC8
:1092E000828B83E8F0A3E980101291F2E824FBF569
:1092F00082E912931DEAF0A3EBF08E828F83E4F0F3
:10930000A3F0EC24FFF582ED12931D74FFF0E50A43
:10931000A2E092AF028FC6EA24FBF582EB34FFF5A0
:109320008322E0F8A3E0F92274F6120495E9FE75B1
:109330000800A2AFE492E0FFC2AF1292477001E9C9
:1093400070108A828B83801BEE6020888289831252
:1093500093221E1292397002A3E070ECEE600C882A
:10936000828983ECF0A3EDF0750801EFA2E092AFE3
:10937000A9080292A474F7120495E9FD900B43E04A
:10938000FCE9C39C5029E5A8FEC2AFEDC333F8E465
:1093900033F99006E9E028FCA3E0398C82F583E0FC
:1093A0004AF0A3E04BF0EEA2E792AF790080027999
:1093B0000302905E74F7120495E9FE900B43E0FC03
:1093C000E9C39C501EE5A8FFC2AFEAF4FCEBF4FD34
:1093D000EE1294BE5CF0A3E05DF0EFA2E792AF79ED
:1093E000008002790302905EC082C0831210119047
:1093F0000181E4F0A3F0120FE1120FF9120B7312C6
:10940000100B7900028F7E74F412049575080075B4
:109410001A0112102F120A11E5081294BE7002A34D
:10942000E0700D0508900B43E0FAE508C39A40E8A8
:10943000900B43E0FAE508C39A505BE5A8FCC2AF85
:10944000E508C333FEE433FF9006E9E02EF8A3E01D
:109450003FF9888289831291F288828983E4F0A39C
:10946000F0ECA2E792AFA908EE2439F582EF340BB5
:10947000F5831294B51210B5E5A8FDC2AF9006E9C8
:10948000E02EFCA3E03F8C82F583E04AF0A3E04BA2
:10949000F0EDA2E792AFA2AF40031209CF900B43C9
:1094A000E06508600302940CE51A700302940C1244
:1094B0000FE702940CE0F8A3E0F583888222C3331F
:1094C000F8E433F99006E9E028FAA3E0398A82F556
:1094D00083E02274F4120495900ACA78081209797C
:1094E00090059A780812098802964A74F212049537
:1094F0008908EAFEEBFF8C0A8D0B120FD5EA70018A
:10950000EB600F8A828B83A3A3E50AF0A3E50BF03F
:1095100080727A097B00121005EA7001EB60618AA3
:10952000828B83A3A3A3A3A3A3E508129589EEF0DE
:10953000A3EFF08A828B83A3A3E50AF0A3E50BF0E7
:109540008A828B83E4F0A3129589A3A3A3F0A3F0EE
:10955000900598E07002A3E09005987006EAF0A3E9
:10956000EB80ACE0FCA3E08003E8FCE9FD8C828D9D
:10957000831297D7E87001E970EF8C828D8380DDCC
:109580007A007B007F06020610F08A828B83A3A3F9
:10959000A3A32274F712049590059880048C828D01
:1095A00083E0FCA3E0FDEC7001ED601F8C828D83F5
:1095B000A3A3A3A3E06A7003A3E06B70E08C828D89
:1095C00083A3A3A3A3A3A3E06970D2ECFAEDFB7F6E
:1095D00001020610C082C083EA7001EB600C8A822F
:1095E0008B83A3A3A3A3E4F0A3F0D083D0820207CC
:1095F0006474F6120495E5A8FFC2AF120FDBEFA268
:10960000E792AFEA7001EB60047900800279087F8D
:109610000202061074F4120495A2AFE492E0F50978
:10962000C2AF120FD58A0A8B0BAE0AAF0BEE7001D8
:10963000EF6003120FCFE509A2E092AFEE7001EFE9
:10964000600479008002790680007F0402061074AD
:10965000EB1204958A0E8B0FE5A8FAC2AF850E08AF
:109660008B09750A00750B0090059A78081208C6D8
:10967000EAA2E792AF900598E07002A3E0700302BF
:1096800097D2900598E0F508A3E0F5097E007F00E9
:10969000A2AFE492E0F514C2AFE5082404F512E5A8
:1096A000093400F513E5082402F50CE5093400F54A
:1096B0000D850C82F5831297D7C3E50E98E50F99B7
:1096C000850C82850D834006E4F0A3F08017C3E08B
:1096D000950EF0A3E0950FF0850C82850D83E07068
:1096E00002A3E0704EE5082407F510E5093400F503
:1096F00011851082F583E07002A3E060508512822C
:10970000851383E0FAA3E0FBEA7001EB603F850874
:1097100082850983A3A3A3A3A3A3E0F912104D8517
:1097200010828511831297D7850C82850D83E8F00E
:10973000A3E9F0850C82850D83E07002A3E0600D43
:10974000851282851383E07002A3E0702B85088266
:109750008509831297D7E50A7002E50B700590051D
:10976000988006850A82850B83E8F0A3E9F0AE08AD
:10977000AF098E828F83800C85080A85090B8508C6
:1097800082850983E0F508A3E0F509E514A2E092DB
:10979000AFEE7001EF60308E828F83A3A3E0700282
:1097A000A3E0701C8E828F83A3A3A3A3E0FAA3E09F
:1097B000FB8E828F83A3A3A3A3A3A3E0F912104D72
:1097C000EEFAEFFB120FFFE5087002E509600302F5
:1097D000968C7F0D020610E0F8A3E0F922C082C04B
:1097E00083900598E07002A3E0602F90059812978F
:1097F000D77AFF7BFF88828983A3A3E0FCA3E0FDE7
:10980000C3EC9AED9B5004ECFAEDFB88828983123D
:1098100097D7E87001E9600680DB7A007B0002954B
:10982000EA74F412049590059A7808120979AA0846
:10983000AB09AC0AAD0B02964A74F0120495900A7B
:10984000CA78081209799005FB78081209888A08F5
:109850008B09750A00750B00900AD6780C120979ED
:109860007808790C1203A5900ADA78081208EC74CB
:10987000057808120802900ACA780812085F701D5D
:109880001210418A088B098C0A8D0B900ACA78083D
:1098900012085F702E74039005F6F0804A12104192
:1098A0008A0C8B0D8C0E8D0F900ACA780C12085FF3
:1098B00060117808790C12095950088A088B098CB4
:1098C0000A8D0B74029005F6F0900ADE780C1209EE
:1098D00079780C7908120959500D900ACA78081243
:1098E000085F6003029992A2AF40031209CFC2AF92
:1098F0007902120CB1E96003029994120A4D120A1E
:1099000077900ACA780812085F6028900AE2780CFB
:10991000120979780C79081209594008900AE678FA
:1099200008120979AA08AB09AC0AAD0B120A8FC25A
:10993000C7D2AD53BEFCE5BE9005F6E045BEF5BE10
:10994000E5ADA2E050FAE5A8FEE5B8FFE59AF50816
:1099500053A820E5A853B820E5B8539A12E59AD247
:10996000AF120A83C2AF8EA88FB885089AC2AD1213
:109970000A9B8A088B098C0A8D0B9005FB780812CC
:1099800008C6120A7D120A531210A7D2AF120E3D5A
:10999000800DC2AFAA08AB09AC0AAD0B120A9580C4
:1099A0000574041207E87F0802061074F01204958B
:1099B00074FC1208338A088B098C0A8D0BE5958597
:1099C0001882851983F0E596C0E074011209B3D0BE
:1099D000E0F0E597C0E074021209B3D0E0F0740340
:1099E0001209B3E4F0851882851983780C1209797D
:1099F0009005F7780C120988900AEA780C12097918
:109A00007808790C1203A574067808120802900AE7
:109A1000EE78081208EC85188285198378081208F8
:109A2000C674021209B3E0F59774011209B3E0F5A8
:109A300096851882851983E0F5950299A174F01234
:109A400004958A088B098C0A8D0B900ACA78081233
:109A5000085F6028900AE2780C120979780C79087E
:109A60001209594008900AE67808120979AA08AB49
:109A700009AC0AAD0B120A8FC2C7D2AD53BEFCE5CA
:109A8000BED2AF120A830299A674F012049574FC38
:109A9000120833E595851882851983F0E596C0E0B4
:109AA00074011209B3D0E0F0E597C0E07402120926
:109AB000B3D0E0F074031209B37401F08518828505
:109AC000198378081209799005F7780812081B9015
:109AD0000AF278081208EC900AF678081208FF904B
:109AE0000AFA780C1209797808790C1203A5900A01
:109AF000FE78081208EC740C7808120802AA08AB69
:109B000009AC0AFD0299A1800800000000000000D5
:109B100000EAF8EBF974FF281A74FF39FBE87001CA
:109B2000E970E6020764020764C082C083900AC835
:109B3000E024FEF8A3E03403F988828983E4F0A3EB
:109B4000F0900AC8E0F8A3E0F583888274E8F0A3F7
:109B5000E4F0900AC8E024E8F8A3E03400F9888231
:109B600089837416F0A37403F090018DE8F0A3E9E3
:109B7000F07A007B0012100590018FEAF0A3EBF061
:109B8000900AC8129BA3D083D082020764C082C00F
:109B900083E5A8FAC2AF90018F129BA3EAA2E792D5
:109BA000AF80E3E0F8A3E0F990018DE8F0A3E9F0DD
:109BB0002274F31204957C007D008C0BEA24020AC7
:109BC0000AEB3400FBA2AFE492E0F50AC2AFC3EAAD
:109BD0009411EB9400500590018D800390018FE06B
:109BE000F8A3E0F988828983E0FEA3E0FF74805F38
:109BF000F509E47002E509600974806FFF750B00D8
:109C00008074E50B606288828983E0F508A3E0F543
:109C1000098C828D83E02508F0A3E03509F08C8261
:109C20008D83C3E09AA3E09B404CECF8EDF9888269
:109C30008983E0FEA3E0FFE87001E9606BC3EE9A60
:109C4000FEEF9BFFC3EE9404EF94004047E82AF533
:109C500082E93BF583EEF0A3EFF074804BFB888242
:109C60008983EAF0A3EB8036C3EE9AEF9B50C87568
:109C70000B01E8FCE9FDE82EF8E93FF988828983C9
:109C8000E0FEA3E0FFEE7001EF6003029BED7800C1
:109C90007900801488828983E0F0A3E04480F0E8B2
:109CA00024020808E93400F9E50AA2E092AFE8FAD4
:109CB000E9FB7F0502061074F7120495EAFEEBFF3C
:109CC000A2AFE492E0F508C2AFEEF8EFF9C3E89472
:109CD00091E994014009C3E89491E9940540031285
:109CE00009CFEE24FE1E1EEF34FFFF8E828F83A36A
:109CF000E05480F9E47001E970031209CF8E828F7D
:109D000083E0F0A3E0547FF090018DE0F8A3E0F948
:109D1000C3EE98EF99500CEEF8EFF990018DE8F052
:109D2000A3E9F0E508A2E092AF7F01020610C0822D
:109D3000C08374FF9005C8F053F402E5F443FEFDC0
:109D4000E5FE539002E590E5F375F300E5FD75FD42
:109D5000009005C9E4F0A3F09005CCF09005CDF09B
:109D6000D083D08202076474F7120495E99005CB82
:109D7000F09005C9EAF0A3EBF09005CBE060235327
:109D80008CFE438C01E5AB75ABFFD2BD9005CCE0FA
:109D90006401701A7A017B009005C7E0F9120FC3C5
:109DA000800CE5AB75AB00C2BD7C64129DB874013C
:109DB0009005CCF0FF0206107D007A017B00900533
:109DC000C7E0F9120FC92274F6120495E5AB75AB22
:109DD00000E580F97A00750801750900EA78081233
:109DE0000912AB08EB6004E95B60070AEAC3940858
:109DF00040E44390FDE5907B00750801750900EB98
:109E00007808120912AC0874FD5C6025ECF45590DA
:109E1000F5907450001470FCE580FDEC4590F590D1
:109E2000750801750900EA7808120912E5085D60F5
:109E3000070BEBC3940840C1539002E5909005CB0B
:109E4000E0600A758900C2C5E5AB75ABFF74086BAD
:109E5000600574086A700479FF8008EA333333546C
:109E6000F84BF97F0202061074F7120495120A3BB0
:109E7000E9FE9005CBE070099005C8E06E603EEE0B
:109E8000F074FF6E70069005CBE060319005C9E07C
:109E90007002A3E060107A009005C9E0F8A3E0F535
:109EA0008388821210B59005CBE0601174FF6E605C
:109EB000077C32129DB88005E49005CDF07F010249
:109EC0000610C082C083E589601EE5AB75AB0075E6
:109ED00089009005CDE0700B7401F07C197D00FACB
:109EE000129DBCE5AB75ABFF029D60020764790172
:109EF000020764C082C0831209D5D083D0820207D2
:109F00006474F412049574F6120833C2AF53BEFBA6
:109F1000E59DA2E650FA0078F8790100E824FF18E0
:109F2000E934FFF9E87001E970F175C68074806565
:109F30009E70FA43BE047408906270F043FF0143C0
:109F4000FE027480906234F0D2A0D291D291801738
:109F5000D2A00B74086B600302A0367B000CECC32C
:109F60009406500302A036D2A07A0080060A740A32
:109F70006A606E900ACA780812097974061209B3E9
:109F800078081209888012900ACE7808120979742C
:109F9000061209B378081208C674061209B3C08203
:109FA000C083900AD27808120979D083D0827808C9
:109FB00012094940D2A2A05004C2A08002D2A0A29D
:109FC000915004C2918002D29190059EE0600CE411
:109FD000F0740A1207E87F04020610A286408E8001
:109FE00088D2A0D291D291D2A078007900A28650D6
:109FF000047800790012A09640F39061A3E0C0E0DD
:10A0000074041209B3D0E0F09061A4E0C0E07405DC
:10A010001209B3D0E0F09007E1E0C0E07402120949
:10A02000B3D0E0F09007CCE0C0E074031209B3D0E5
:10A03000E0F07B007C00A28650FCC2A0C291C291DD
:10A04000EB7004C2A08002D2A078007900A28650F2
:10A05000047800790012A09640F3D2A0D291D29158
:10A06000D2A07508017509007407C39B780812090E
:10A0700012C0088C08851882851983E5822508F5A9
:10A0800082E5833400F583D0E0FAE05A7003029F42
:10A0900050C2A0029F52E8240108E93400F9C3E845
:10A0A00094F4E99401A2D265D0332274F412049599
:10A0B0007E007F00120E438A088B09AC08AD099020
:10A0C0000183E06C7003A3E06D700302A19A90011C
:10A0D00083E0F8A3E0F9ECC398F508ED99F5099051
:10A0E0000183ECF0A3ED801FE5082404F508E509E1
:10A0F00034E0F509EE243CFEEF340AFF900185E0E0
:10A100002404F0A3E03400F0C3E50894FDE50994CD
:10A110001F50D574037808120912900185E02508B4
:10A12000FCA3E03509FDECF8EDF97A197B00120388
:10A130004C88088909EE2508FEEF3509FFECF8ED9B
:10A14000F97A197B0012034C900185EAF0A3EBF039
:10A15000EE7001EF6044900187E02EF0A3E03FF045
:10A16000900187C3E094E9A3E09403402612A19FE5
:10A1700012034C88088909750A00750B0090018943
:10A1800078081208C612A19F12034C900187EAF0CA
:10A19000A3EBF0EEFAEFFB120FBD7F040206109066
:10A1A0000187E0F8A3E0F97AE87B032274F4120453
:10A1B000959001897808120979AA08AB09AC0AAD13
:10A1C0000B80D7C082C08343B3017C108A828B830B
:10A1D000E0F5B1A3AA82AB831CEC70F08005F5B367
:10A1E00012105FD083D08202076474F71204954383
:10A1F000B3017E1012A24B70FB7C0FEC1C70FC7C38
:10A2000010E5B28A828B83F0A3AA82AB831CEC7028
:10A21000F07F0102061074F612049543B3017F0427
:10A220007E0412A24B70FB7E0F8E081EE50870F9AB
:10A230007E04E5B28A828B83F0A3AA82AB831EEEF2
:10A2400070F01FEF70DA7F020206108C828D83E0BF
:10A25000F5B1A3AC82AD831EEE22C082C08374F838
:10A2600055B3440602A1DEC082C08374F855B344DE
:10A270000402A1DE020764C082C08312A29A120CFB
:10A28000F302A1E3C082C08312A29A53B3F8E5B3EC
:10A29000ECFAEDFB12102902A1E353B38FE5B343AF
:10A2A000B34022C082C083E99005C7F0D083D0823A
:10A2B000020764C082C0831209F9120A171209BD8D
:10A2C000120A59120A2F80E474F6120495EAFEEB82
:10A2D000FF74805FF9E47001E9601B800312108352
:10A2E0009005C7E0F9121077EA7001EB70EFEEFA13
:10A2F00074806FFB8040EE5402600A120A6B740295
:10A300006EFAEF80EEEEA2E0501D120A419005CBEE
:10A31000E070107C647D007A017B009005C7E0F955
:10A32000120FC9740180D954046007120AA774047B
:10A3300080CE7A007B007F02020610020764C08292
:10A34000C083E4900597F0900591F0A3F0D083D0FE
:10A3500082020764C082C083E990059780EE74F69C
:10A36000120495E9FE900B43E0FBE9C39B4004799E
:10A37000038030750801750900EE7808120912ACE7
:10A3800008AD09EA7011ECF4F8EDF4F9900591E0EC
:10A3900058F0A3E0598009900591E04CF0A3E04DFE
:10A3A000F079007F0202061074F61204959005976A
:10A3B000E0601A900591E07002A3E07010E5A8FE3D
:10A3C000C2AF120FB7EEA2E792AF120A8980D4741F
:10A3D000F6120495750808EAFEEBFF8E828F83A3C0
:10A3E000AA82AB83ECF8EDF988828983A3AC82ADB5
:10A3F000838E828F83E0FE88828983E06E60047999
:10A400000080081508E50870CE79017F0202061069
:10A4100074F51204958C088D09750A0078081207E6
:10A42000B77C087D001210A174031207E87F0302B5
:10A43000061053BEFBE59DA2E650FA0078F87901BC
:10A4400000E824FF18E934FFF9E87001E970F175BC
:10A45000C6807480659E70FA43BE04740890627072
:10A46000F043FF0143FE027480906234F0120A054B
:10A47000120AE9120CBD12103BD2AF7A437B0B7962
:10A4800001120A351210357A007B00020764C0827F
:10A49000C0837A0A7B001210059006E9EAF0A3EB6C
:10A4A000F07C0A7D0079001210957900120C577922
:10A4B00001120EBB7902120B797903120AFB79049F
:10A4C0001209FFD083D08202076474F712049574D6
:10A4D000091209B3E0F8A3E0F98A828B838003ECC8
:10A4E000F0A3E8FEE9FF74FF2E1874FF3FF9EE7049
:10A4F00001EF70EB7F0102061074F7120495E9FE7C
:10A50000E49061A6F0EE906264F07A027B00120A99
:10A51000A1906264E0FA7401F0EAA2E6E492E0F944
:10A520007F01020610C082C0838A828B838001A3D0
:10A53000E070FCE582C39AFAE5839BFBD083D0826E
:10A540000207647405F5D575D49F7405F5D375D2EB
:10A55000A7020764FFFFFFFFFFFFFFFFFFFFFFFFF3
:10A56000FFFFFFFFFFFFFFFFFFFFFFFFFFFFFFFFFB
:10A57000FFFFFFFFFFFFFFFFFFFFFFFFFFFFFFFFEB
:10A58000FFFFFFFFFFFFFFFFFFFFFFFFFFFFFFFFDB
:10A59000FFFFFFFFFFFFFFFFFFFFFFFFFFFFFFFFCB
:020000040001F9
:040000050000096985
:00000001FF
