:020000040000FA
:1000000002055A024003FFFFFFFFFF02400BFFFF04
:10001000FFFFFF024013FFFFFFFFFF02401BFFFF38
:10002000FFFFFF024023FFFFFFFFFF02402BFFFF08
:10003000FFFFFF02015FFFFFFFFFFF02403BFFFFEB
:10004000FFFFFF024043FFFFFFFFFF02404BFFFFA8
:10005000FFFFFF024053FFFFFFFFFF02405BFFFF78
:10006000FFFFFF024063FFFFFFFFFF02406BFFFF48
:10007000FFFFFF024073FFFFFFFFFF02407BFFFF18
:10008000FFFFFF024083FFFFFFFFFF02408B00C224
:10009000010007B0011007B007B082012B022B024C
:1000A0002B022B023302E412013DE59DA2E650FA39
:1000B0000078F879011201327001E970F875C68094
:1000C0007480659E70FA12014D53F3DF53FDDF53C8
:1000D0008FDF53F7DF53F4FDC29143FE0212068413
:1000E000E96011A285500D024000C2AF75C9AB7521
:1000F000C95B80FE740112013DE59DA2E650FA0045
:1001000078F879011201327001E970F875C68074CF
:1001100080659E70FA12014D7405F5D575D40612EE
:1001200006AE1206A2D2AF12069C12066C120696FA
:1001300080F500E824FF18E934FFF9E82290000078
:10014000F053F3EFC28443FD1053BEFB2243BE04C1
:1001500053F4FEC29043FE017408906270F022C016
:10016000E074F2120299900000E060051206DE8051
:100170000C120684E960069040331206EC7F0102FF
:10018000035012011001020000202C20C1000101C7
:100190000102030109024300020100801909040061
:1001A00000010202010005240010010424020205DE
:1001B00024060001052401000107058203400040D8
:1001C00009040100020A0000000705840240000142
:1001D0000705040240000104030904200345006EE2
:1001E00000680061006E0063006500640020005636
:1001F000006900730069006F006E0028035500530A
:10020000004200200043006F006E00740072006F17
:10021000006C00200043006F006E0073006F006CE4
:1002200000650008033000300031009D010000C06F
:100230000100002518C582C0E0E51934FFC583C060
:10024000E0E518C3958224F8F8E4C5A885831985EC
:100250008218C5A8E8CEF0A3E520F0A37808E60848
:10026000F0A3DEFAEFF0A3E58124FAF8E608F0A3A4
:10027000E608F0A3E608F0A30808E608F0A3E608FD
:10028000F0A315811581D0E0FED0E0F8158115812D
:100290001581E8C0E0EEC0E022C0D02518C582C0BC
:1002A000E0E51934FFC583C0E0E518C3958224F367
:1002B00010AF088583198582188008858319858287
:1002C00018D2AFC8F0A3E9F0A3EAF0A3EBF0A3794A
:1002D00008E709F0A3D8FAECF0A3EDF0A3EEF0A341
:1002E000EFF0A3D0E0F0A3D0E0F0A3D0E0F0A3E5DE
:1002F00020F0A3E5F0F0A3221206E9B900030203FF
:100300003AE490030178CF79038002F0A3D8FCD9B6
:10031000FA9005CFAA82AB8390008E78197901807C
:1003200015E493A3AC82AD838A828B83F0A3AA8267
:10033000AB838C828D83D8E9D9E77582A67583005B
:1003400074001204AB7582E475830674001204AB6A
:10035000851983851882E0C0E0A3E0F9A3E0FAA341
:10036000E0FBA37808E0F608A3DFFAE0FCA3E0FDD9
:10037000A3E0FEA3E0FFA3E0C0E0A3E0C0E0A3E0B1
:10038000F5D0A3E0F520A3E0A3F5F0E4C5A88583AC
:1003900019858218C5A8D082D083D0E0F8D0E03289
:1003A000851983851882E0A3FEE0A3F5207808E094
:1003B000A3F608DFFAE0A3FFE0A3C0E0E0A3C0E0FB
:1003C000E0A3C0E0E0A3C0E0E0A3C0E0E4C5A885EE
:1003D0008218858319C5A8D083D0820204B1D08346
:1003E000D082C5F0E493A3C5F0C395F0F5F0E49393
:1003F000A3C395F04005E5F0048001E475F002A484
:100400002582F582E5F03583F583E493A3C0E0E42B
:1004100093C0E02274038000CCC0E0EDC0E0E5189A
:10042000C39CCCAD1950011D10AF068C188D1980DE
:10043000068C188D19D2AF12046BD0E0FDD0E0FC11
:1004400022D083D082CCC0E0E493A3600612048C57
:100450001470FAE493A360061205441470FAD0E015
:10046000FCE493A3C0E0E493C0E022CAC0E0E0A3B0
:10047000C582CCC582C583CDC583F0A3C582CCC55A
:1004800082C583CDC583DAE6D0E0CA22C0E0E4931A
:10049000A3D39C5010E493A3C39C400AD0E0D0E0C7
:1004A000D0E002045EA3A3A3D0E022C09FF59FE4A6
:1004B00073D09F22D083D082C09FE493C0E07401A8
:1004C00093C0E0740293F59F222518F58210AF08BF
:1004D000F518400215198008F51840021519D2AF19
:1004E00085198322BB0102E722C082C08389828AE8
:1004F00083BB0003E08002E493D083D08222C0D08B
:10050000251810AF08F518500205198008F5185085
:10051000020519D2AFD0D022BB000EC082C0838AA0
:10052000838982F0D083D08222BB0101F722251873
:1005300010AF08F518400215198008F5184002158B
:1005400019D2AF22C0E0E493A36C7009D0E0D0E0F0
:10055000D0E002045EA3A3D0E02275FD10758000F8
:1005600075D000758140751801751903000202F8F5
:100570007403800474028000C0E0F4041204C9D043
:10058000E01205C522700422600D18C6C333C608E8
:10059000C633C6D5E0F41822E0F608A3E0F608A3B7
:1005A000E0F608A3E0F622E6F008A3E6F008A3E6EA
:1005B000F008A3E6F022600C08C6C313C618C613E1
:1005C000C6D5E0F422CAC0E0E6F0A308DAFAD0E02B
:1005D000FA222518F582E43519F583221204B45D58
:1005E00017001204B4A317001204B4DB170012049E
:1005F000B46E0E001204B4C30E001204B4E40E0074
:100600001204B43D11001204B47711001204B49B1B
:1006100011001204B40619001204B4311A001204B5
:10062000B4EE06001204B4D107001204B4C00800EE
:100630001204B44C17001204B4E208001204B436D9
:1006400009001204B4220B001204B4870C00120437
:10065000B4C20C001204B48F0D001204B4EE0D00ED
:100660001204B4011A001204B4C912001204B4DD59
:1006700011001204B4DE16001204B4801A00120431
:10068000B47E1A001204B4D11A001204B46D1A0018
:100690001204B46B1A001204B4A21A001204B4C9F2
:1006A00016001204B48916001204B4D10800120412
:1006B000B4F217001204B44E16001204B40F160060
:1006C0001204B42815001204B4E118001204B4692D
:1006D0001A001204B46F18001204B4F517001204C3
:1006E000B425190000000080FB790122E47374F640
:1006F0001202339005C0E07002A3E070179005C3AA
:10070000E0F9E47001E9700C9005C4E06402700245
:10071000A3E060047404805B9005BEE01203DE80F9
:1007200002140729077A078A079005C2E070E5904E
:1007300005B8E060047801800278009005CDE8F00B
:10074000A3E4F09005B7E0600A9005CDE04402F024
:10075000A3E4F09005ACE06404601C9005B974CD8E
:10076000F0A37405F0A3E4F09005BC7402F0A3E4D8
:10077000F074019005ACF0020E699005A5E06404E8
:1007800070929005CDE4F0A380C89005C2E0547F3C
:10079000F5089005A5E064046003020714E508C3AA
:1007A000940640030207149005C2E054806016E5E9
:1007B000081208B6E06403700478018002780090A3
:1007C00005CDE8808AE5081208ACE0640370EE808D
:1007D000E874F6120233E9FE9005C4E07002A3E06B
:1007E00070129005A5E0640460159005C2E07002E7
:1007F000A3E0600B74049005ACF07901020E6990DF
:1008000005BEE0541F1203DE0002F40712081A08A6
:1008100032089005C0E064016004790080DEEE904B
:1008200005B7F060047905800279067A001206782F
:1008300080C89005C2E0547FFA9005C0E070DBEA02
:10084000C3940650AFEA90620EF09005C2E0548067
:100850006029EE6004741080027440906211F0EE22
:10086000600474038001E4C0E0EA1208B6D0E0F04E
:10087000EE60047908802B79078027EE60047420ED
:1008800080027480906214F0EE600474038001E4CE
:10089000C0E0EA1208ACD0E0F0EE6004790A800211
:1008A0007909120678E490620E0207F924B1F58204
:1008B000E43405F5832224ACF582E43405F5832283
:1008C000C082C0837900120624E9700312068A8070
:1008D0005EC082C0837901120624E9700312067E8D
:1008E000804DC082C0839005C2E07002A3E0701A00
:1008F0009005C4E07002A3E070109005C0E0548041
:10090000F8A3E0F9E87001E9600774049005AC8091
:100910001D9005C0E0906200F09005A56009E064BC
:1009200002700C74038007E0640370037402F0D05B
:1009300083D0820204B174F41202339005C1E01234
:1009400003DE01029E094C095F0994091206301268
:100950000AF61204E49005BCF0A3E4F0020AAD909C
:1009600005C0E0FA79001205DC120AF6E924020952
:1009700009EA3400FA1204E4FC1919E0FAE9240344
:10098000090909EA3400FA1204E4F9EC9005BCF014
:10099000A3E980C79005C0E0F91205E880B1900591
:1009A000B9E4F0A3F0A3F0FA020A81750900740318
:1009B00078081205859005DFE02508FBA3E03509DE
:1009C0008B82F583E493C0E09005C1E0F8D0E06845
:1009D0006003020A808A087509007403780812050A
:1009E00085120B12E493C0E09005C0E0F8D0E068F7
:1009F0006003020A808A08750900740378081205EA
:100A000085120B0DE493C0E09005C3E0F8D0E068D8
:100A1000706E8A0875090074037808120585120B38
:100A20000DA3E493C0E09005C2E0F8D0E0687050F8
:100A30008A08750900740378081205859005DFE0BF
:100A40002508F8A3E03509F988828983A3A3A3A325
:100A5000E493F508740193F5099005B9E508F0A34E
:100A6000E509F0A37480F088828983A3A3A3A3A3DC
:100A7000A3E493F8740193F99005BCE8F0A3E9F0BE
:100A80000A8A089005DF120C817583057582E1E002
:100A9000C398F50AA3E099F50B7403780A1205B61A
:100AA000C3E508950AE4950B50030209AB9005B91C
:100AB000E0FCA3E0FDA3E0FEEC4D4E700474048066
:100AC0002C9005ACE0640460289005BC120C817584
:100AD00083057582C4C3E098A3E099500E9005C4C5
:100AE000120C819005BCE8F0A3E9F074019005AC0C
:100AF000F07F040203A09005B9EAF0A3EBF0A37421
:100B000080F09005B9E0F9A3E0FA7B8022120B1285
:100B1000A3229005DFE02508A3E035098B82F58349
:100B2000A32274EE120233EAFEEBFF8E828F83A3C0
:100B3000A3A3A3E493602D9005E3120C8188088998
:100B400009800CE5082404F508E5093400F5098559
:100B50000882850983E493F8740193F9EE687002C2
:100B6000EF6970DF750C00804F7490906214F07420
:100B700010120C717003750D40750A01750B00E5BC
:100B80000E780A120585850882850983A3A3A3939D
:100B9000550A6006E50DD2E0F50DE50D906215F001
:100BA000EA906213F0E50E24B1F582E43405F58392
:100BB000E4F090620EF0050C8E828F83A3A3A3A3B2
:100BC000E493FAE50CC39A4003020C6C7A007905B1
:100BD0001206728A0AEA7001EB60DBEA2402F8EB83
:100BE0003400F9E8FCE9FD8C828D83E493540FF521
:100BF0000E90620EF0750D008A828B83A3A3A3A3CF
:100C0000E4932407F510A3E4933400F511740378FA
:100C1000101205B6AA108C828D8393A2E7400302BE
:100C20000B697448906211F07408120C71700375AE
:100C30000D40750A01750B00E50E780A12058585D1
:100C40000882850983A3A393550A6006E50DD2E0C7
:100C5000F50DE50D906212F0EA906210F0850E0A33
:100C6000E50A24ACF582E43405020BAE7F0A0203E8
:100C7000A0F0850A828B83A3A3A3E49354036401A9
:100C800022E0F8A3E0F922C082C0839005C0E070A2
:100C900002A3E070169005C2E07002A3E0700C9011
:100CA00005C4E064017002A3E060047404800C9049
:100CB00005B974A6F0A37405120DDE9005ACF00220
:100CC000092F74F51202339005A5E06402601F90AD
:100CD00005C2E07002A3E070159005C4E07002A3A5
:100CE000E0700B9005C1E0F9E47001E9600974045B
:100CF0009005ACF0020D7E7A00790112067890051D
:100D0000C0E060657A00F91205DC8A088B09AE083C
:100D1000AF09EE7001EF604974049005A5F09005ED
:100D2000C0E09005A6F0750A008E828F83A3A3A36E
:100D3000A3E493FAE50AC39A503D850A08120D838D
:100D4000E4F07A0079041206728A828B83A3A3A34B
:100D5000E493FC120D83E06C70E8120642050A80F1
:100D6000C874049005ACF0800E9005A6F074039052
:100D700005A5F0F91206007A0079021206787F03C1
:100D80000203A0E50824A7F582E43405F583227464
:100D9000F51202339005A5E06404701E9005BEE0D4
:100DA000648170169005C0E07002A3E0700C90059D
:100DB000C4E064017002A3E060047404801A90052A
:100DC000C2E024A7F508A3E03405F5099005B9E5CC
:100DD00008F0A3E509120DDE9005ACF080A0F0A3A9
:100DE000E4F09005BC7401F0A3E4F074012274F601
:100DF0001202339005A5E0640470129005BEE06411
:100E000001700A9005C4E07002A3E06008740490C9
:100E100005ACF080549005C0E0FB9005C2E0FA906C
:100E200005A6E0F91205E28A088B09AE08AF09EEC3
:100E30007001EF60D89005C2E0FA7903120678904D
:100E400005C0E0C0E09005C2E024A7F8A3E03405A7
:100E5000F988828983D0E0F0EEFAEFFB1206429027
:100E600005C2E0FA79041206787F020203A0C0826C
:100E7000C0837A0079011205DC8A828B83A3A3A345
:100E8000A3A3A3A3E493A2E6500474018001E49019
:100E900005B8F0E49005B7F07480659E70FA7403AD
:100EA00090620FF0E0A2E750FB53F4FED29043FEB5
:100EB00001758B00C2E843AC20439A02D083D082F4
:100EC0000204B1C082C08374029005A5F0E49005CD
:100ED000A6F09005ACF079031206009005C6E4F088
:100EE000A3F080D874F512023390620EE0FEE4F0B5
:100EF000906211E0F50AA2E4501E7480F07407902D
:100F000005ACF09005C6E07002A3E0600612110F78
:100F10001206ECE49005ACF0E50AA2E2500BE49076
:100F20006211F09005ACF080789005ACE06402703E
:100F30005C906216E0FF9005B9120414EFF97A2074
:100F40007B6212060674031204FE8F089005BC1221
:100F5000110412111BE07002A3E0600474408002CF
:100F60007448906211F09005BCE07002A3E0701527
:100F70009005C6E07002A3E0600612110F1206ECA5
:100F8000E49005ACF0EE90620EF00211BDE0640654
:100F9000700612110F1206EC9005ACE0600302100F
:100FA000A1E50AA2E050DE7508BE750905750A00C4
:100FB000780812057079087A207B6212060674039D
:100FC0001204FE9005C6E4F0A3F09005BEE054E0E4
:100FD000120441000600E90F207B10405D10802ABA
:100FE00010A08B10C06C1055109005BFE01204418A
:100FF0000005011B100316100503100920100B2516
:101000001055101206369005ACE06404600302101F
:101010009B746002109D1206A880EB12062A80E6DF
:1010200012064E80E112065A80DC9005BFE01204E1
:10103000410004004110064610084B100A5010559C
:101040001012061E80C012063C80BB12064880B6F5
:1010500012065480B174049005ACF080B49005C6BB
:1010600074CCF0A37406F01206CC809A9005C67476
:1010700090F0A37406F0120690808B9005C6746001
:10108000F0A37406F01206600210069005C67418EC
:10109000F0A37406F0120618021006744090621154
:1010A000F09005ACE06401704A750A029005BCC37B
:1010B000E09420A3E09400500A9005BCE0FF750A7C
:1010C0000A80027F209005B9120414EFF97A207B80
:1010D0006212060C74031204FE8F0812111B121107
:1010E00004E50A906211F0EFC394204003020F85DB
:1010F000020F70E064056003020F8512110F1206E3
:10110000EC020F85C3E09508F0A3E09400F0229074
:1011100005C6E0F8A3E0F5838882229005B9E0F9DE
:10112000A3E0FAA3E0FBE92508F9EA3400FA900508
:10113000B9E9F0A3EAF0A3EBF09005BC2274F61233
:1011400002337A008A08E50824ADF582E43405F517
:1011500083E9F00AEAC3940540EA7A008A08E508C0
:1011600024B2F582E43405F583E9F00AEAC3940574
:1011700040EA7F020203A074F5120233EAFCEBFDA1
:10118000E9FE740B1205D21211CD600D8C828D8395
:10119000E01205181211C270F3802274F5120233A6
:1011A000EAFCEBFDE9FE740B1205D21211CD600DC5
:1011B0001204E48C828D83F01211C270F37F03025B
:1011C00003A0E9240109EA3400FA1EEE22E0F50842
:1011D000A3E0F509A3E0A908AA09FBEE22C082C09A
:1011E0008374FF12052E801F851882851983E064A1
:1011F000FE70067401900592F0851882851983E0CF
:10120000FA90058FE06AF07901851882851983AA22
:1012100082AB831206BAE970030212B4740190051E
:10122000051212C0C0E0900592E0F8900590E02809
:10123000F8E43400F9E812151ED0E0F0900592E0D1
:101240001203DE0005F911E81153126A126E1284BE
:10125000129A12E490058F1212C0900591F0C39477
:10126000804003E4808F7402808B7403808785182C
:1012700082851983E090058EF0900591E0601674E8
:10128000040211F5900590E004F0FA900591E06AEF
:1012900060030211F974050211F590058FE0FA85DB
:1012A0001882851983E06A7003120666E49005903F
:1012B000F00211F574011204FED083D0820204B151
:1012C000F0851882851983E02274F012023374FCD1
:1012D00012052E900512E0FA900513E0F9EAF8E401
:1012E00028F508741039F5097E0190058EE0120387
:1012F000DE0105A6147C1300143B14A61477140118
:101300001375080475090078081205747402120533
:10131000D2AC82AD837A041215031204FE851882C2
:10132000851983E064FF7004A3E064FF60308518D2
:1013300082851983E0F8A3E0F974021205D2E0680F
:101340007003A3E069701778081205747C157D0599
:101350007A947B0079081215071204FE801674FF38
:10136000900515F0900516F0900517F0900518F00F
:10137000900519F012150D7E070214A6900593E052
:101380007040EEF0750A08750B00780A12057412A9
:1013900014FD1204FE79071206C69005D3780C12CC
:1013A0000598900598780C1205A7750A02780A121C
:1013B00005747C947D057A007B0E1206D2740212AD
:1013C00004FE74FF5508F8EE5509F9E87001E9705C
:1013D00011880A85090B7409780A1205B6A90A1240
:1013E00006C6750A10750B00780A1205747C147D08
:1013F00005AA08AB091206D274021204FE0214A652
:10140000750A40750B00780A1205747C157D057409
:10141000FF5508F50AEE5509F50B7402780A120516
:1014200085AA0AAB0B740978081205B6A90812152B
:10143000071204FE12150D7E43806B7508087509AE
:101440000078081205741214FD1204FE79071206C2
:10145000C69005D778081205989005987808120567
:10146000A775080275090078081205747C947D053B
:101470007A007B0E0213F553F4FEC29043FE01E4A2
:1014800090620FF0E0A2E740FB786079EA00E82480
:10149000FF18E934FFF9E87001E970F1C2AF75C9CE
:1014A000AB75C95B80FE900511E0D2E7F0E49005D2
:1014B00012F0EE90050FF0744D6EF50A74042EFBD9
:1014C0007A03800712151EE0620A0AEAF83395E0F3
:1014D000F98B08C3E89508E99400A2D265D033E8F7
:1014E00040E212151EE50AF074012AF97A0E7B0516
:1014F0001206B474041204FE7F080203A07C947DDB
:10150000057A007B0079071206D874022290051331
:10151000E0900514F0900512E0900513F022240EDF
:10152000F582E93405F5832274F71202339005C879
:10153000E0F8A3E0E85404600D9005C8E054FBF027
:10154000A3E0F01205F49005C8E0F8A3E0E8541019
:10155000600D9005C8E054EFF0A3E0F01205FA909A
:1015600005C8E0F8A3E0E8A2E050149005C8E054F4
:10157000FEF0A3E0F09005C8E054FDF0A3E0F09089
:10158000620EE0FA7404F0906214E0A2E05035E5D7
:10159000A8FBC2AF906216E0FC906217E0ECFDEB96
:1015A000A2E792AF8015906228E0C0E0900302129B
:1015B0001643D0E0F0900302E004F0ED1D70E7E484
:1015C000906214F0EA90620EF0E0FE7404F0906213
:1015D00011E0A2E04031900404E0FA900403E06AD4
:1015E00060257A4090040312167EE0906228F09005
:1015F0000403E004F0FB900404E06B60041AEA705A
:10160000E37401906211F0EE90620EF00216C47461
:10161000F7120233E9FE7900801590030112164398
:10162000E08A828B83F0900301E004121673099024
:101630000301E0FC900302E06C6005E9C39E40DA20
:101640000216C4E02403F582E43403F58322C08249
:10165000C08380188A828B83E0C0E0900404121655
:101660007ED0E0121673900404E004F0E91970E4EF
:101670000216D0F08A828B83A3AA82AB8322E02455
:1016800005F582E43404F5832274F41202339005E4
:10169000CF780812059890059C78081205A7E49069
:1016A00005A0F09005A1F074089005A2F01205EED7
:1016B0007AFF7BFF12061253F4FED29043FE017FA5
:1016C000040203A07F010203A0C082C0831206C0EF
:1016D000D083D0820204B1D083D0820204B1C08210
:1016E000C083E9FCEAFD7A007B0080079005A4E056
:1016F0001217319005A3E0F8A3E0F99005DDE0684A
:101700007003A3E069601C1217256C700D9005A38F
:10171000E0FAA3E0FB12173180091217256D70CC97
:10172000ED60C980B29005A4E0F5838882A3E493BC
:1017300022F5838882E493F89005A3E028F8A3E0DB
:101740003400F99005A3E8F0A3E9F022C082C08339
:101750001217927A0079011206720216D774F612E5
:101760000233E9FEEAFF121792800E8A828B83A36E
:10177000A3A3A3A3E4936E60147A00790212067205
:10178000EA7001EB6007EE70E2EF1F70EC7F02027F
:1017900003A09005DBE0F8A3E0F99005A3E8F0A32F
:1017A000E9F02274F4120233EAFF8B087A00120582
:1017B000DC7A027904120672EA7001EB60188A8200
:1017C0008B83A3A3E4936F70E88A828B83A3A3A384
:1017D000E493650870DB7F040203A074F612023301
:1017E000E9FE1217927A007903120672EE1E70F566
:1017F000809B0204B174F41202338908740C120540
:10180000D2E0FEA3E0FF740F5508F50A750B0074D3
:101810000B780A1205852AF874803BF9E428E50B59
:1018200039F9E5C7F509E508C4540FC0E074F85567
:10183000C7FAD0E04AF5C7801C88828983E08C8291
:101840008D83F088828983A3A882A9838C828D836B
:10185000A3AC82AD83EEFAEFFB74FF2A1E74FF3B4C
:10186000FFEA7001EB70D28509C77F040203A07400
:10187000F6120233740A1205D2E0F508A3E0F50966
:10188000ED900506F0EC900507F07462900508F005
:101890007473900509F090050AE0541FF0E50833D1
:1018A0003354FC90050BF0740678081205B6E50871
:1018B00090050AF0741290050CF0744290050DF03A
:1018C00075D1FE75D601EA906271F0EB906272F00C
:1018D000906270E0D2E1F0E0A2E740FB7F020203F9
:1018E000A0C082C083E9C333906272F0906270E05E
:1018F000D2E0F0E0A2E740FB906272E02402F0D078
:1019000083D0820204B1C082C0839005C8E4F0A3F2
:10191000F09005CAEAF0A3EBF0E49005CCF0D08398
:10192000D0820204B174F2120233A2AFE492E0FC5E
:10193000D2AF7480659E70FA740390620FF0E0A2DB
:10194000E750FB906206E0F50A7406550A7006E55A
:101950008BA2E55042E50AA2E250339005CAE0F8B6
:10196000A3E0E890620B1219F5740478081205B62A
:10197000E5089062071219F5740978081205B6E5B2
:1019800008543E906209F0906201E0D2E0F0E50A6E
:10199000D2E1F50AE48014E50AA2E0501290620F49
:1019A000E0C2E1F0E0A2E740FB74019005CCF090CA
:1019B0006202E0F50C906204E0F508750D00740415
:1019C000780C120585E50C450AFAAB0D7509007413
:1019D000097808120585EAF8E5094BF99005C8E091
:1019E00048F0A3E049F0758B00C2E8ECA2E092AFAA
:1019F0007F060203A0F09005CAE0F508A3E0F50910
:101A000022C082C0839005BFE06422700A9005ACBA
:101A1000E0701C74028017E06420700D9005ACE04B
:101A2000700D121A5B7402800274049005ACF08091
:101A300046C082C0839005BFE0642170169005AC5B
:101A4000E07016121A5B9005BC7407F0A3E4F07402
:101A500001800274049005ACF0801C9005B9749C60
:101A6000F0A37405F0A3E4F02280028000C082C0DD
:101A70008374049005ACF0D083D0820204B180ED71
:101A8000C082C083E91203DE0109A01AA01AA01ABD
:101A9000A01AA01AA01AA01AA01AA01AA01AA01A76
:101AA00080D5C082C083900505E07014785079C35A
:101AB0000000E824FF18E934FFF9E87001E970F04C
:101AC000A2915004C2918002D291D083D0820204AC
:101AD000B174F612023374FC12052E7508047509F0
:101AE00000780812057474021205D2AC82AD837AB4
:101AF000047B0079071206D874021204FE8518824E
:101B0000851983E064FF7004A3E064FF601D8518FD
:101B100082851983E0F8A3E0F974021205D2E06827
:101B20007003A3E0697004790180027900740412E3
:101B300004FE7F020203A0FFFFFFFFFFFFFFFFFF86
:101B4000FFFFFFFFFFFFFFFFFFFFFFFFFFFFFFFFA5
:101B5000FFFFFFFFFFFFFFFFFFFFFFFFFFFFFFFF95
:101B6000FFFFFFFFFFFFFFFFFFFFFFFFFFFFFFFF85
:101B7000FFFFFFFFFFFFFFFFFFFFFFFFFFFFFFFF75
:08380000AAAAAAAA07B007B0AA
:020000040003F7
:10F80000FFFFFFFFFFFFFFFFFFFFFFFFFFFFFFFF08
:10F81000FFFFFFFFFFFFFFFFFFFFFFFFFFFFFFFFF8
:10F82000FFFFFFFFFFFFFFFFFFFFFFFFFFFFFFFFE8
:10F83000FFFFFFFFFFFFFFFFFFFFFFFFFFFFFFFFD8
:040000050000055A98
:00000001FF
