:020000040000FA
:1000000002055A024003FFFFFFFFFF02400BFFFF04
:10001000FFFFFF024013FFFFFFFFFF02401BFFFF38
:10002000FFFFFF024023FFFFFFFFFF02402BFFFF08
:10003000FFFFFF02015FFFFFFFFFFF02403BFFFFEB
:10004000FFFFFF024043FFFFFFFFFF02404BFFFFA8
:10005000FFFFFF024053FFFFFFFFFF02405BFFFF78
:10006000FFFFFF024063FFFFFFFFFF02406BFFFF48
:10007000FFFFFF024073FFFFFFFFFF02407BFFFF18
:10008000FFFFFF024083FFFFFFFFFF02408B00C224
:10009000010007B0011007B007B082012B022B024C
:1000A0002B022B023302E412013DE59DA2E650FA39
:1000B0000078F879011201327001E970F875C68094
:1000C0007480659E70FA12014D53F3DF53FDDF53C8
:1000D0008FDF53F7DF53F4FDC29143FE0212068413
:1000E000E96011A285500D024000C2AF75C9AB7521
:1000F000C95B80FE740112013DE59DA2E650FA0045
:1001000078F879011201327001E970F875C68074CF
:1001100080659E70FA12014D7405F5D575D40612EE
:1001200006AE1206A2D2AF12069C12066C120696FA
:1001300080F500E824FF18E934FFF9E82290000078
:10014000F053F3EFC28443FD1053BEFB2243BE04C1
:1001500053F4FEC29043FE017408906270F022C016
:10016000E074F2120299900000E060051206DE8051
:100170000C120684E960069040331206EC7F0102FF
:10018000035012011001020000202C20C1000101C7
:100190000102030109024300020100801909040061
:1001A00000010202010005240010010424020205DE
:1001B00024060001052401000107058203400040D8
:1001C00009040100020A0000000705840240000142
:1001D0000705040240000104030904200345006EE2
:1001E00000680061006E0063006500640020005636
:1001F000006900730069006F006E0028035500530A
:10020000004200200043006F006E00740072006F17
:10021000006C00200043006F006E0073006F006CE4
:1002200000650008033000300031009D010000C06F
:100230000100002518C582C0E0E51934FFC583C060
:10024000E0E518C3958224F8F8E4C5A885831985EC
:100250008218C5A8E8CEF0A3E520F0A37808E60848
:10026000F0A3DEFAEFF0A3E58124FAF8E608F0A3A4
:10027000E608F0A3E608F0A30808E608F0A3E608FD
:10028000F0A315811581D0E0FED0E0F8158115812D
:100290001581E8C0E0EEC0E022C0D02518C582C0BC
:1002A000E0E51934FFC583C0E0E518C3958224F367
:1002B00010AF088583198582188008858319858287
:1002C00018D2AFC8F0A3E9F0A3EAF0A3EBF0A3794A
:1002D00008E709F0A3D8FAECF0A3EDF0A3EEF0A341
:1002E000EFF0A3D0E0F0A3D0E0F0A3D0E0F0A3E5DE
:1002F00020F0A3E5F0F0A3221206E9B900030203FF
:100300003AE490030178CF79038002F0A3D8FCD9B6
:10031000FA9005CFAA82AB8390008E78197901807C
:1003200015E493A3AC82AD838A828B83F0A3AA8267
:10033000AB838C828D83D8E9D9E77582A67583005B
:1003400074001204AB7582E475830674001204AB6A
:10035000851983851882E0C0E0A3E0F9A3E0FAA341
:10036000E0FBA37808E0F608A3DFFAE0FCA3E0FDD9
:10037000A3E0FEA3E0FFA3E0C0E0A3E0C0E0A3E0B1
:10038000F5D0A3E0F520A3E0A3F5F0E4C5A88583AC
:1003900019858218C5A8D082D083D0E0F8D0E03289
:1003A000851983851882E0A3FEE0A3F5207808E094
:1003B000A3F608DFFAE0A3FFE0A3C0E0E0A3C0E0FB
:1003C000E0A3C0E0E0A3C0E0E0A3C0E0E4C5A885EE
:1003D0008218858319C5A8D083D0820204B1D08346
:1003E000D082C5F0E493A3C5F0C395F0F5F0E49393
:1003F000A3C395F04005E5F0048001E475F002A484
:100400002582F582E5F03583F583E493A3C0E0E42B
:1004100093C0E02274038000CCC0E0EDC0E0E5189A
:10042000C39CCCAD1950011D10AF068C188D1980DE
:10043000068C188D19D2AF12046BD0E0FDD0E0FC11
:1004400022D083D082CCC0E0E493A3600612048C57
:100450001470FAE493A360061205441470FAD0E015
:10046000FCE493A3C0E0E493C0E022CAC0E0E0A3B0
:10047000C582CCC582C583CDC583F0A3C582CCC55A
:1004800082C583CDC583DAE6D0E0CA22C0E0E4931A
:10049000A3D39C5010E493A3C39C400AD0E0D0E0C7
:1004A000D0E002045EA3A3A3D0E022C09FF59FE4A6
:1004B00073D09F22D083D082C09FE493C0E07401A8
:1004C00093C0E0740293F59F222518F58210AF08BF
:1004D000F518400215198008F51840021519D2AF19
:1004E00085198322BB0102E722C082C08389828AE8
:1004F00083BB0003E08002E493D083D08222C0D08B
:10050000251810AF08F518500205198008F5185085
:10051000020519D2AFD0D022BB000EC082C0838AA0
:10052000838982F0D083D08222BB0101F722251873
:1005300010AF08F518400215198008F5184002158B
:1005400019D2AF22C0E0E493A36C7009D0E0D0E0F0
:10055000D0E002045EA3A3D0E02275FD10758000F8
:1005600075D000758140751801751903000202F8F5
:100570007403800474028000C0E0F4041204C9D043
:10058000E01205C522700422600D18C6C333C608E8
:10059000C633C6D5E0F41822E0F608A3E0F608A3B7
:1005A000E0F608A3E0F622E6F008A3E6F008A3E6EA
:1005B000F008A3E6F022600C08C6C313C618C613E1
:1005C000C6D5E0F422CAC0E0E6F0A308DAFAD0E02B
:1005D000FA222518F582E43519F583221204B45D58
:1005E00017001204B4A317001204B4DB170012049E
:1005F000B46E0E001204B4C30E001204B4E40E0074
:100600001204B43D11001204B47711001204B49B1B
:1006100011001204B40619001204B4311A001204B5
:10062000B4EE06001204B4D107001204B4C00800EE
:100630001204B44C17001204B4E208001204B436D9
:1006400009001204B4220B001204B4870C00120437
:10065000B4C20C001204B48F0D001204B4EE0D00ED
:100660001204B4011A001204B4C912001204B4DD59
:1006700011001204B4DE16001204B4801A00120431
:10068000B47E1A001204B4D11A001204B46D1A0018
:100690001204B46B1A001204B4A21A001204B4C9F2
:1006A00016001204B48916001204B4D10800120412
:1006B000B4F217001204B44E16001204B40F160060
:1006C0001204B42815001204B4E118001204B4692D
:1006D0001A001204B46F18001204B4F517001204C3
:1006E000B425190000000080FB790122E47374F640
:1006F0001202339005C0E07002A3E070179005C3AA
:10070000E0F9E47001E9700C9005C4E06402700245
:10071000A3E060047404805B9005BEE01203DE80F9
:1007200002140729077A078A079005C2E070E5904E
:1007300005B8E060047801800278009005CDE8F00B
:10074000A3E4F09005B7E0600A9005CDE04402F024
:10075000A3E4F09005ACE06404601C9005B974CD8E
:10076000F0A37405F0A3E4F09005BC7402F0A3E4D8
:10077000F074019005ACF0020E699005A5E06404E8
:1007800070929005CDE4F0A380C89005C2E0547F3C
:10079000F5089005A5E064046003020714E508C3AA
:1007A000940640030207149005C2E054806016E5E9
:1007B000081208B6E06403700478018002780090A3
:1007C00005CDE8808AE5081208ACE0640370EE808D
:1007D000E874F6120233E9FE9005C4E07002A3E06B
:1007E00070129005A5E0640460159005C2E07002E7
:1007F000A3E0600B74049005ACF07901020E6990DF
:1008000005BEE0541F1203DE0002F40712081A08A6
:1008100032089005C0E064016004790080DEEE904B
:1008200005B7F060047905800279067A001206782F
:1008300080C89005C2E0547FFA9005C0E070DBEA02
:10084000C3940650AFEA90620EF09005C2E0548067
:100850006029EE6004741080027440906211F0EE22
:10086000600474038001E4C0E0EA1208B6D0E0F04E
:10087000EE60047908802B79078027EE60047420ED
:1008800080027480906214F0EE600474038001E4CE
:10089000C0E0EA1208ACD0E0F0EE6004790A800211
:1008A0007909120678E490620E0207F924B1F58204
:1008B000E43405F5832224ACF582E43405F5832283
:1008C000C082C0837900120624E9700312068A8070
:1008D0005EC082C0837901120624E9700312067E8D
:1008E000804DC082C0839005C2E07002A3E0701A00
:1008F0009005C4E07002A3E070109005C0E0548041
:10090000F8A3E0F9E87001E9600774049005AC8091
:100910001D9005C0E0906200F09005A56009E064BC
:1009200002700C74038007E0640370037402F0D05B
:1009300083D0820204B174F41202339005C1E01234
:1009400003DE01029E094C095F0994091206301268
:100950000AF61204E49005BCF0A3E4F0020AAD909C
:1009600005C0E0FA79001205DC120AF6E924020952
:1009700009EA3400FA1204E4FC1919E0FAE9240344
:10098000090909EA3400FA1204E4F9EC9005BCF014
:10099000A3E980C79005C0E0F91205E880B1900591
:1009A000B9E4F0A3F0A3F0FA020A81750900740318
:1009B00078081205859005DFE02508FBA3E03509DE
:1009C0008B82F583E493C0E09005C1E0F8D0E06845
:1009D0006003020A808A087509007403780812050A
:1009E00085120B12E493C0E09005C0E0F8D0E068F7
:1009F0006003020A808A08750900740378081205EA
:100A000085120B0DE493C0E09005C3E0F8D0E068D8
:100A1000706E8A0875090074037808120585120B38
:100A20000DA3E493C0E09005C2E0F8D0E0687050F8
:100A30008A08750900740378081205859005DFE0BF
:100A40002508F8A3E03509F988828983A3A3A3A325
:100A5000E493F508740193F5099005B9E508F0A34E
:100A6000E509F0A37480F088828983A3A3A3A3A3DC
:100A7000A3E493F8740193F99005BCE8F0A3E9F0BE
:100A80000A8A089005DF120C817583057582E1E002
:100A9000C398F50AA3E099F50B7403780A1205B61A
:100AA000C3E508950AE4950B50030209AB9005B91C
:100AB000E0FCA3E0FDA3E0FEEC4D4E700474048066
:100AC0002C9005ACE0640460289005BC120C817584
:100AD00083057582C4C3E098A3E099500E9005C4C5
:100AE000120C819005BCE8F0A3E9F074019005AC0C
:100AF000F07F040203A09005B9EAF0A3EBF0A37421
:100B000080F09005B9E0F9A3E0FA7B8022120B1285
:100B1000A3229005DFE02508A3E035098B82F58349
:100B2000A32274EE120233EAFEEBFF8E828F83A3C0
:100B3000A3A3A3E493602D9005E3120C8188088998
:100B400009800CE5082404F508E5093400F5098559
:100B50000882850983E493F8740193F9EE687002C2
:100B6000EF6970DF750C00804F7490906214F07420
:100B700010120C717003750D40750A01750B00E5BC
:100B80000E780A120585850882850983A3A3A3939D
:100B9000550A6006E50DD2E0F50DE50D906215F001
:100BA000EA906213F0E50E24B1F582E43405F58392
:100BB000E4F090620EF0050C8E828F83A3A3A3A3B2
:100BC000E493FAE50CC39A4003020C6C7A007905B1
:100BD0001206728A0AEA7001EB60DBEA2402F8EB83
:100BE0003400F9E8FCE9FD8C828D83E493540FF521
:100BF0000E90620EF0750D008A828B83A3A3A3A3CF
:100C0000E4932407F510A3E4933400F511740378FA
:100C1000101205B6AA108C828D8393A2E7400302BE
:100C20000B697448906211F07408120C71700375AE
:100C30000D40750A01750B00E50E780A12058585D1
:100C40000882850983A3A393550A6006E50DD2E0C7
:100C5000F50DE50D906212F0EA906210F0850E0A33
:100C6000E50A24ACF582E43405020BAE7F0A0203E8
:100C7000A0F0850A828B83A3A3A3E49354036401A9
:100C800022E0F8A3E0F922C082C0839005C0E070A2
:100C900002A3E070169005C2E07002A3E0700C9011
:100CA00005C4E064017002A3E060047404800C9049
:100CB00005B974A6F0A37405120DDE9005ACF00220
:100CC000092F74F51202339005A5E06402601F90AD
:100CD00005C2E07002A3E070159005C4E07002A3A5
:100CE000E0700B9005C1E0F9E47001E9600974045B
:100CF0009005ACF0020D7E7A00790112067890051D
:100D0000C0E060657A00F91205DC8A088B09AE083C
:100D1000AF09EE7001EF604974049005A5F09005ED
:100D2000C0E09005A6F0750A008E828F83A3A3A36E
:100D3000A3E493FAE50AC39A503D850A08120D838D
:100D4000E4F07A0079041206728A828B83A3A3A34B
:100D5000E493FC120D83E06C70E8120642050A80F1
:100D6000C874049005ACF0800E9005A6F074039052
:100D700005A5F0F91206007A0079021206787F03C1
:100D80000203A0E50824A7F582E43405F583227464
:100D9000F51202339005A5E06404701E9005BEE0D4
:100DA000648170169005C0E07002A3E0700C90059D
:100DB000C4E064017002A3E060047404801A90052A
:100DC000C2E024A7F508A3E03405F5099005B9E5CC
:100DD00008F0A3E509120DDE9005ACF080A0F0A3A9
:100DE000E4F09005BC7401F0A3E4F074012274F601
:100DF0001202339005A5E0640470129005BEE06411
:100E000001700A9005C4E07002A3E06008740490C9
:100E100005ACF080549005C0E0FB9005C2E0FA906C
:100E200005A6E0F91205E28A088B09AE08AF09EEC3
:100E30007001EF60D89005C2E0FA7903120678904D
:100E400005C0E0C0E09005C2E024A7F8A3E03405A7
:100E5000F988828983D0E0F0EEFAEFFB1206429027
:100E600005C2E0FA79041206787F020203A0C0826C
:100E7000C0837A0079011205DC8A828B83A3A3A345
:100E8000A3A3A3A3E493A2E6500474018001E49019
:100E900005B8F0E49005B7F07480659E70FA7403AD
:100EA00090620FF0E0A2E750FB53F4FED29043FEB5
:100EB00001758B00C2E843AC20439A02D083D082F4
:100EC0000204B1C082C08374029005A5F0E49005CD
:100ED000A6F09005ACF079031206009005C6E4F088
:100EE000A3F080D874F512023390620EE0FEE4F0B5
:100EF000906211E0F50AA2E4501E7480F07407902D
:100F000005ACF09005C6E07002A3E0600612110F78
:100F10001206ECE49005ACF0E50AA2E2500BE49076
:100F20006211F09005ACF080789005ACE06402703E
:100F30005C906216E0FF9005B9120414EFF97A2074
:100F40007B6212060674031204FE8F089005BC1221
:100F5000110412111BE07002A3E0600474408002CF
:100F60007448906211F09005BCE07002A3E0701527
:100F70009005C6E07002A3E0600612110F1206ECA5
:100F8000E49005ACF0EE90620EF00211BDE0640654
:100F9000700612110F1206EC9005ACE0600302100F
:100FA000A1E50AA2E050DE7508BE750905750A00C4
:100FB000780812057079087A207B6212060674039D
:100FC0001204FE9005C6E4F0A3F09005BEE054E0E4
:100FD000120441000600E90F207B10405D10802ABA
:100FE00010A08B10C06C1055109005BFE01204418A
:100FF0000005011B100316100503100920100B2516
:101000001055101206369005ACE06404600302101F
:101010009B746002109D1206A880EB12062A80E6DF
:1010200012064E80E112065A80DC9005BFE01204E1
:10103000410004004110064610084B100A5010559C
:101040001012061E80C012063C80BB12064880B6F5
:1010500012065480B174049005ACF080B49005C6BB
:1010600074CCF0A37406F01206CC809A9005C67476
:1010700090F0A37406F0120690808B9005C6746001
:10108000F0A37406F01206600210069005C67418EC
:10109000F0A37406F0120618021006744090621154
:1010A000F09005ACE06401704A750A029005BCC37B
:1010B000E09420A3E09400500A9005BCE0FF750A7C
:1010C0000A80027F209005B9120414EFF97A207B80
:1010D0006212060C74031204FE8F0812111B121107
:1010E00004E50A906211F0EFC394204003020F85DB
:1010F000020F70E064056003020F8512110F1206E3
:10110000EC020F85C3E09508F0A3E09400F0229074
:1011100005C6E0F8A3E0F5838882229005B9E0F9DE
:10112000A3E0FAA3E0FBE92508F9EA3400FA900508
:10113000B9E9F0A3EAF0A3EBF09005BC2274F61233
:1011400002337A008A08E50824ADF582E43405F517
:1011500083E9F00AEAC3940540EA7A008A08E508C0
:1011600024B2F582E43405F583E9F00AEAC3940574
:1011700040EA7F020203A074F5120233EAFCEBFDA1
:10118000E9FE740B1205D21211CD600D8C828D8395
:10119000E01205181211C270F3802274F5120233A6
:1011A000EAFCEBFDE9FE740B1205D21211CD600DC5
:1011B0001204E48C828D83F01211C270F37F03025B
:1011C00003A0E9240109EA3400FA1EEE22E0F50842
:1011D000A3E0F509A3E0A908AA09FBEE22C082C09A
:1011E0008374FF12052E801F851882851983E064A1
:1011F000FE70067401900592F0851882851983E0CF
:10120000FA90058FE06AF07901851882851983AA22
:1012100082AB831206BAE970030212B4740190051E
:10122000051212C0C0E0900592E0F8900590E02809
:10123000F8E43400F9E812151ED0E0F0900592E0D1
:101240001203DE0005F911E81153126A126E1284BE
:10125000129A12E490058F1212C0900591F0C39477
:10126000804003E4808F7402808B7403808785182C
:1012700082851983E090058EF0900591E0601674E8
:10128000040211F5900590E004F0FA900591E06AEF
:1012900060030211F974050211F590058FE0FA85DB
:1012A0001882851983E06A7003120666E49005903F
:1012B000F00211F574011204FED083D0820204B151
:1012C000F0851882851983E02274F012023374FCD1
:1012D00012052E900512E0FA900513E0F9EAF8E401
:1012E00028F508741039F5097E0190058EE0120387
:1012F000DE0105A6147C1300143B14A61477140118
:101300001375080475090078081205747402120533
:10131000D2AC82AD837A041215031204FE851882C2
:10132000851983E064FF7004A3E064FF60308518D2
:1013300082851983E0F8A3E0F974021205D2E0680F
:101340007003A3E069701778081205747C157D0599
:101350007A947B0079081215071204FE801674FF38
:10136000900515F0900516F0900517F0900518F00F
:10137000900519F012150D7E070214A6900593E052
:101380007040EEF0750A08750B00780A12057412A9
:1013900014FD1204FE79071206C69005D3780C12CC
:1013A0000598900598780C1205A7750A02780A121C
:1013B00005747C947D057A007B0E1206D2740212AD
:1013C00004FE74FF5508F8EE5509F9E87001E9705C
:1013D00011880A85090B7409780A1205B6A90A1240
:1013E00006C6750A10750B00780A1205747C147D08
:1013F00005AA08AB091206D274021204FE0214A652
:10140000750A40750B00780A1205747C157D057409
:10141000FF5508F50AEE5509F50B7402780A120516
:1014200085AA0AAB0B740978081205B6A90812152B
:10143000071204FE12150D7E43806B7508087509AE
:101440000078081205741214FD1204FE79071206C2
:10145000C69005D778081205989005987808120567
:10146000A775080275090078081205747C947D053B
:101470007A007B0E0213F553F4FEC29043FE01E4A2
:1014800090620FF0E0A2E740FB786079EA00E82480
:10149000FF18E934FFF9E87001E970F1C2AF75C9CE
:1014A000AB75C95B80FE900511E0D2E7F0E49005D2
:1014B00012F0EE90050FF0744D6EF50A74042EFBD9
:1014C0007A03800712151EE0620A0AEAF83395E0F3
:1014D000F98B08C3E89508E99400A2D265D033E8F7
:1014E00040E212151EE50AF074012AF97A0E7B0516
:1014F0001206B474041204FE7F080203A07C947DDB
:10150000057A007B0079071206D874022290051331
:10151000E0900514F0900512E0900513F022240EDF
:10152000F582E93405F5832274F71202339005C879
:10153000E0F8A3E0E85404600D9005C8E054FBF027
:10154000A3E0F01205F49005C8E0F8A3E0E8541019
:10155000600D9005C8E054EFF0A3E0F01205FA909A
:1015600005C8E0F8A3E0E8A2E050149005C8E054F4
:10157000FEF0A3E0F09005C8E054FDF0A3E0F09089
:10158000620EE0FA7404F0906214E0A2E05035E5D7
:10159000A8FBC2AF906216E0FC906217E0ECFDEB96
:1015A000A2E792AF8015906228E0C0E0900302129B
:1015B0001643D0E0F0900302E004F0ED1D70E7E484
:1015C000906214F0EA90620EF0E0FE7404F0906213
:1015D00011E0A2E04031900404E0FA900403E06AD4
:1015E00060257A4090040312167EE0906228F09005
:1015F0000403E004F0FB900404E06B60041AEA705A
:10160000E37401906211F0EE90620EF00216C47461
:10161000F7120233E9FE7900801590030112164398
:10162000E08A828B83F0900301E004121673099024
:101630000301E0FC900302E06C6005E9C39E40DA20
:101640000216C4E02403F582E43403F58322C08249
:10165000C08380188A828B83E0C0E0900404121655
:101660007ED0E0121673900404E004F0E91970E4EF
:101670000216D0F08A828B83A3AA82AB8322E02455
:1016800005F582E43404F5832274F41202339005E4
:10169000CF780812059890059C78081205A7E49069
:1016A00005A0F09005A1F074089005A2F01205EED7
:1016B0007AFF7BFF12061253F4FED29043FE017FA5
:1016C000040203A07F010203A0C082C0831206C0EF
:1016D000D083D0820204B1D083D0820204B1C08210
:1016E000C083E9FCEAFD7A007B0080079005A4E056
:1016F0001217319005A3E0F8A3E0F99005DDE0684A
:101700007003A3E069601C1217256C700D9005A38F
:10171000E0FAA3E0FB12173180091217256D70CC97
:10172000ED60C980B29005A4E0F5838882A3E493BC
:1017300022F5838882E493F89005A3E028F8A3E0DB
:101740003400F99005A3E8F0A3E9F022C082C08339
:101750001217927A0079011206720216D774F612E5
:101760000233E9FEEAFF121792800E8A828B83A36E
:10177000A3A3A3A3E4936E60147A00790212067205
:10178000EA7001EB6007EE70E2EF1F70EC7F02027F
:1017900003A09005DBE0F8A3E0F99005A3E8F0A32F
:1017A000E9F02274F4120233EAFF8B087A00120582
:1017B000DC7A027904120672EA7001EB60188A8200
:1017C0008B83A3A3E4936F70E88A828B83A3A3A384
:1017D000E493650870DB7F040203A074F612023301
:1017E000E9FE1217927A007903120672EE1E70F566
:1017F000809B0204B174F41202338908740C120540
:10180000D2E0FEA3E0FF740F5508F50A750B0074D3
:101810000B780A1205852AF874803BF9E428E50B59
:1018200039F9E5C7F509E508C4540FC0E074F85567
:10183000C7FAD0E04AF5C7801C88828983E08C8291
:101840008D83F088828983A3A882A9838C828D836B
:10185000A3AC82AD83EEFAEFFB74FF2A1E74FF3B4C
:10186000FFEA7001EB70D28509C77F040203A07400
:10187000F6120233740A1205D2E0F508A3E0F50966
:10188000ED900506F0EC900507F07462900508F005
:101890007473900509F090050AE0541FF0E50833D1
:1018A0003354FC90050BF0740678081205B6E50871
:1018B00090050AF0741290050CF0744290050DF03A
:1018C00075D1FE75D601EA906271F0EB906272F00C
:1018D000906270E0D2E1F0E0A2E740FB7F020203F9
:1018E000A0C082C083E9C333906272F0906270E05E
:1018F000D2E0F0E0A2E740FB906272E02402F0D078
:1019000083D0820204B1C082C0839005C8E4F0A3F2
:10191000F09005CAEAF0A3EBF0E49005CCF0D08398
:10192000D0820204B174F2120233A2AFE492E0FC5E
:10193000D2AF7480659E70FA740390620FF0E0A2DB
:10194000E750FB906206E0F50A7406550A7006E55A
:101950008BA2E55042E50AA2E250339005CAE0F8B6
:10196000A3E0E890620B1219F5740478081205B62A
:10197000E5089062071219F5740978081205B6E5B2
:1019800008543E906209F0906201E0D2E0F0E50A6E
:10199000D2E1F50AE48014E50AA2E0501290620F49
:1019A000E0C2E1F0E0A2E740FB74019005CCF090CA
:1019B0006202E0F50C906204E0F508750D00740415
:1019C000780C120585E50C450AFAAB0D7509007413
:1019D000097808120585EAF8E5094BF99005C8E091
:1019E00048F0A3E049F0758B00C2E8ECA2E092AFAA
:1019F0007F060203A0F09005CAE0F508A3E0F50910
:101A000022C082C0839005BFE06422700A9005ACBA
:101A1000E0701C74028017E06420700D9005ACE04B
:101A2000700D121A5B7402800274049005ACF08091
:101A300046C082C0839005BFE0642170169005AC5B
:101A4000E07016121A5B9005BC7407F0A3E4F07402
:101A500001800274049005ACF0801C9005B9749C60
:101A6000F0A37405F0A3E4F02280028000C082C0DD
:101A70008374049005ACF0D083D0820204B180ED71
:101A8000C082C083E91203DE0109A01AA01AA01ABD
:101A9000A01AA01AA01AA01AA01AA01AA01AA01A76
:101AA00080D5C082C083900505E07014785079C35A
:101AB0000000E824FF18E934FFF9E87001E970F04C
:101AC000A2915004C2918002D291D083D0820204AC
:101AD000B174F612023374FC12052E7508047509F0
:101AE00000780812057474021205D2AC82AD837AB4
:101AF000047B0079071206D874021204FE8518824E
:101B0000851983E064FF7004A3E064FF601D8518FD
:101B100082851983E0F8A3E0F974021205D2E06827
:101B20007003A3E0697004790180027900740412E3
:101B300004FE7F020203A0FFFFFFFFFFFFFFFFFF86
:101B4000FFFFFFFFFFFFFFFFFFFFFFFFFFFFFFFFA5
:101B5000FFFFFFFFFFFFFFFFFFFFFFFFFFFFFFFF95
:101B6000FFFFFFFFFFFFFFFFFFFFFFFFFFFFFFFF85
:101B7000FFFFFFFFFFFFFFFFFFFFFFFFFFFFFFFF75
:08380000AAAAAAAA07B007B0AA
:020000040003F7
:10F80000FFFFFFFFFFFFFFFFFFFFFFFFFFFFFFFF08
:10F81000FFFFFFFFFFFFFFFFFFFFFFFFFFFFFFFFF8
:10F82000FFFFFFFFFFFFFFFFFFFFFFFFFFFFFFFFE8
:10F83000FFFFFFFFFFFFFFFFFFFFFFFFFFFFFFFFD8
:040000050000055A98
:020000040000FA
:0400000500000000F7
:020000040000FA
:1040000002418402539700000000000000000000FD
:1040100000000000000000000000000000000000A0
:10402000000000000000000000000002551F00001A
:104030000000000253C1000000000000000000006A
:1040400000000000000000000000000254E1000039
:1040500000000002522700000000000254FD000092
:1040600000000002550E00000000000254A20000F3
:1040700000000000000000000000000254A3000047
:1040800000000002528100000080FB790122000044
:1040900007B007B0312E30370000000000000000EC
:1040A0000000000000000000000000000000000010
:1040B0000000000000000000000000000000000000
:1040C00000000000000000000000000000000000F0
:1040D00000000000000000000000000000000000E0
:1040E00000000000000000000000000000000000D0
:1040F00000000000000000000000000000000000C0
:1041000012408BB90003024150E4791A7801B800DB
:10411000028004F709D8FCE49001817864790E806C
:1041200002F0A3D8FCD9FA900EE4AA82AB83905592
:104130003B78F079018015E493A3AC82AD838A8249
:104140008B83F0A3AA82AB838C828D83D8E9D9E7D5
:104150007582FC758364740012416675828675836E
:10416000407400124166C09FF59FE473D09F22D037
:1041700083D082C09FE493C0E0740193C0E07402D6
:1041800093F59F2275FD1075800075D000758140F4
:104190007518817519010002410012416FFF8602F6
:1041A00012416F09870212416F4F870212416FBFA0
:1041B000870212416FE7870212416F3D8802124168
:1041C0006F68880212416FC7880212416F6C8902C2
:1041D00012416FC6890212416F1D8A0212416F9C03
:1041E0008A0212416FE98A0212416F288B02124142
:1041F0006F5C8B0212416F6E8B0212416F808B02DB
:1042000012416F9F8B0212416FE5A00212416FE6CF
:10421000A10212416F80990212416FE4990212418A
:104220006F089A0212416F0E9B0212416F1CA70287
:1042300012416F32A70212416F3CA70212416F86F2
:10424000A70212416FF5930212416F0D94021241C1
:104250006FB5940212416FF6940212416F139502EA
:1042600012416F36950212416F71950212416FFF34
:10427000960212416F43970212416FC4FF0112412F
:104280006FD5FF0112416F399D0212416F7D9D0272
:1042900012416F9E9D0212416FE29D0212416F4CCE
:1042A0009E0212416F569E0212416F689E02124199
:1042B0006F859B0212416F939B0212416FAAF60118
:1042C00012416FE9F90112416F9AFB0112416FA28D
:1042D000FD0112416FEFFF0112416FDCA502124197
:1042E0006FECA50212416F04A60212416F74A60280
:1042F00012416FC79F0212416FCA9F0212416F465F
:10430000A00212416FB8A00212416F8A75001241DB
:104310006F80760012416FC9760012416FDC760023
:1043200012416FDF760012416FE8760012416F5143
:10433000770012416FE8770012416F6B78001241ED
:104340006F76790012416F7B8C0212416F898C026B
:1043500012416F098D0212416FD08D0212416F869A
:104360008F0212416FEB8F0212416F6C900212416B
:104370006F00800112416F5B970212416F16980225
:1043800012416F43990212416F7D990212416F549D
:10439000FE0112416F8FFE0112416FB3FE01124107
:1043A0006F11FF0112416F7CFF0112416F826500A6
:1043B00012416F92650012416F9A650012416FDDE4
:1043C000650012416F15660012416FB4660012411C
:1043D0006FB7660012416F16680012416F9A68004D
:1043E00012416FE7680012416F426A0012416F0D7F
:1043F0006B0012416FE56B0012416F3F6C00124180
:104400006F426C0012416F456C0012416F916C005D
:1044100012416FA86C0012416FB76C0012416FBA65
:104420006C0012416F7A6D0012416F10A3021241AD
:104430006F30A30212416F7D6D0012416F546E0008
:1044400012416F926E0012416FF26E0012416F477F
:104450006F0012416FA46F0012416F3E7000124155
:104460006F46710012416FF1720012416F9B730031
:1044700012416F00740012416F14740012416F3FBB
:10448000750012416F2C5A0012416FF95A00124107
:104490006FB45B0012416FC35C0012416F2C5D0072
:1044A00012416FB15D0012416F455E0012416FA86D
:1044B0005E0012416FB35E0012416F565F00124101
:1044C0006F855F0012416FB4610012416F5062004E
:1044D00012416F10630012416F18640012416FAAFD
:1044E000640012416F7BA80212416F8F7D00124160
:1044F0006FDE7D0012416F617E0012416FC07E0051
:1045000012416F237F0012416F747F0012416FAB25
:104510009E0212416F219F0212416F329F0212418F
:104520006F789F0212416FB09F0212416F8090021C
:1045300012416FD6900212416FF7900212416F55EF
:10454000930212416F8F930212416FB39302124193
:104550006F20A40212416F31A40212416FBFA40266
:1045600012416FADA70212416FD9A70212416F0528
:10457000A80212416F07A80212416F09A802124156
:104580006F1AA80212416F1CA80212416F0FA502F8
:1045900012416F1CA50212416F65A50212416F3EC8
:1045A000A80212416F00800212416FE480021241A2
:1045B0006FCD810212416FDE810212416FEF8102E5
:1045C00012416F44820212416FB7830212416F168B
:1045D000850212416F51850212416F1F86021241FE
:1045E0006F7F860212416F81A60212416FAEA60252
:1045F00012416FA1800112416FF9800112416FC514
:10460000810112416FD3820112416FD184011241A5
:104610006F58850112416F30860112416F9B8601F0
:1046200012416FB7860112416FEC860112416F1F74
:10463000870112416F28870112416F928701124151
:104640006FE0870112416F07890112416F1A8901DA
:1046500012416F37890112416FD9890112416F43AD
:104660008B0112416F4E8C0112416FBE8C011241C1
:104670006FC88C0112416F848D0112416F958D01BD
:1046800012416FC88D0112416F0C8E0112416F3BB8
:104690008E0112416F598E0112416FEB8E01124152
:1046A0006FFF8E0112416F07900112416F1C900144
:1046B00012416FCD900112416F66910112416F71ED
:1046C000910112416F86920112416FA19201124134
:1046D0006FF0920112416F0A930112416F2595010B
:1046E00012416F99950112416FAC970112416FAF62
:1046F000970112416FBB970112416FFA9701124166
:104700006FD1980112416F509A0112416F719A0155
:1047100012416FD39A0112416FAD9C0112416FB0EB
:104720009C0112416F229D0112416F369D01124181
:104730006F589D0112416FA59D0112416FD69D01D9
:1047400012416FD99D0112416F3E9E0112416F517E
:104750009F0112416F28A00112416FC0A0011241B8
:104760006FE7A10112416F20A20112416F55A20112
:1047700012416F5EA20112416F86A30112416FF7D1
:10478000A30112416F8EA40112416FB8A40112411E
:104790006FF3A40112416F38A50112416FA7A50163
:1047A00012416FBCA50112416FFFA50112416F2498
:1047B000A60112416F52A60112416F85A601124156
:1047C0006F16A80112416FA1A80112416FAEA80196
:1047D00012416FD3A80112416F58A90112416F9580
:1047E000A90112416FB6A90112416FFCA901124142
:1047F0006F0BAA0112416F1BAA0112416F34AA016B
:1048000012416F72AA0112416F8DAA0112416FF617
:10481000AA0112416FBCAE0112416F9CAF0112415F
:104820006FCDAF0112416F31B00112416F19B1016B
:1048300012416F41B10112416F6AB10112416F9A89
:10484000B10112416FEDB10112416F0BB201124182
:104850006F2CB20112416F4BB20112416F6DB20168
:1048600012416F9CB20112416FB7B20112416FE960
:10487000B20112416F8EB30112416F9EB401124119
:104880006F14B50112416F77B50112416FAFB501D9
:1048900012416FEDB50112416F1CB60112416F3D1F
:1048A000B60112416F65B60112416F93B601124114
:1048B0006FEEB60112416F8EB70112416FA2B701C0
:1048C00012416F15B80112416F90B90112416FA6E4
:1048D000B90112416FC1B90112416FD8B90112413A
:1048E0006FEDB90112416F55BA0112416FB6BA01AD
:1048F00012416F18BB0112416F5FBB0112416F98EB
:10490000BB0112416FAFBB0112416F99BC01124153
:104910006FADBC0112416FE2BC0112416F0BBD01D2
:1049200012416F34BD0112416F03BE0112416F93FA
:10493000BE0112416FACBE0112416FD2BE011241E5
:104940006F48BF0112416FD1C10112416F2FC201E7
:1049500012416F58C20112416FB0C20112416FD0B3
:10496000C20112416FD1C30112416FE8C30112416C
:104970006F14C40112416F5BC40112416F19C6016B
:1049800012416FD6C60112416F0EC70112416F5D11
:10499000C70112416FB4C70112416FC6C80112416D
:1049A0006FEAC80112416FE8C90112416F49CB019A
:1049B00012416F83CB0112416FB5CD0112416F508F
:1049C000CF0112416FB5CF0112416FA5D101124144
:1049D0006FB7D30112416F4BD40112416F59D60109
:1049E00012416F7ED60112416F01D70112416F69EA
:1049F000D80112416FA4D80112416FD8D8011241D9
:104A00006F8CD90112416F04DC0112416FE4DC01AB
:104A100012416F0CDD0112416FABDE0112416F15C7
:104A2000E00112416FB9E00112416FEAE001124169
:104A30006F72E10112416FA6E10112416FE5E101E0
:104A400012416F2DE20112416F48E20112416F18CD
:104A5000E30112416F36E30112416F59E301124144
:104A60006F77E30112416F80E40112416F57E50156
:104A700012416FA2E50112416FCCE60112416F367F
:104A8000E70112416FD5E70112416FBCEB01124102
:104A90006F43ED0112416F93EE0112416FDDEE01A4
:104AA00012416FFBEE0112416F13EF0112416FA52E
:104AB000EF0112416F67F00112416F38F1011241AD
:104AC0006F03F20112416FDDF20112416F7CF301BD
:104AD00012416F0DF40112416F66F40112416F89AA
:104AE000F50112416FD2F50112416FFDA102124191
:104AF0006F6EA20212416FADA20212416FEEA202CE
:104B000012416FC97F0012416F5DA80212010002BD
:104B1000000000082C20C100050101020301090268
:104B20002200010100A0320904000001030101007C
:104B3000092111010001222D000705810308000A47
:104B400004030904200345006E00680061006E0044
:104B5000630065006400200056006900730069006E
:104B60006F006E00280355005300420020004300F0
:104B70006F006E00740072006F006C002000430034
:104B80006F006E0073006F006C0065000803310059
:104B90003100300005010906A101950875010507DE
:104BA00019E029E7150025018102950175088101A9
:104BB000950675080507190029651500256581000A
:104BC000C022000000944B2D0021000000304B0952
:104BD00000274B0000C3E498F8E499F9124C1680C2
:104BE00026C3E49AFAE49BFBE920E7E9124C16E4B9
:104BF00098F8E499F922C3E498F8E499F9124C166C
:104C0000E498F8E499F9C3E49AFAE49BFB22EB20D8
:104C1000E7CFE920E7E0B90010BB0008E88AF0849C
:104C2000F8AAF022E4FBC8FA22EB70227B10C8330A
:104C3000C8C933C9335007C39AC3DBF280069A5000
:104C4000012ADBEAC833F4C8C933F4C9FA2275F083
:104C500008E4C833C8C933C933C99AC99B5004C9C9
:104C60002AC93BD5F0ECFBC833F4C8E4C9FA2208E2
:104C70000808EAC0E0EBC0E086F0E7A4FA1809866D
:104C8000F0E7A42AFA180986F0E7A42AFA18098698
:104C9000F0E7A42AFA1986F0E7A4FBE5F02AFA194E
:104CA0000886F0E7A42BFBE5F03AFA190886F0E74E
:104CB000A42BFBE5F03AFA18180986F0E7A4C5F032
:104CC0002BFBE43AFA1908E7C5F0C6A426F6E5F08E
:104CD0003BFBE43AFA1886F0E7A4F6E5F00826F67E
:104CE000E43B08F6E43A08F6D0E0FBD0E0FA22E430
:104CF000CFC0E0E4CEC0E0E4CDC0E0E4CCC0E075DD
:104D0000F020C3E633F608E633F608E633F608E6A5
:104D100033F6181818EC33FCED33FDEE33FEEF33A9
:104D2000FFC3EC9709ED9709EE9709EF9719191949
:104D3000400FFFEC97FC09ED97FD09EE97FE19195E
:104D400006D5F0BEECF709EDF709EEF709EFF71914
:104D50001919D0E0FCD0E0FDD0E0FED0E0FF222524
:104D600018C582C0E0E51934FFC583C0E0E518C36B
:104D7000958224F8F8E4C5A8858319858218C5A80A
:104D8000E8CEF0A3E520F0A37808E608F0A3DEFA69
:104D9000EFF0A3E58124FAF8E608F0A3E608F0A313
:104DA000E608F0A30808E608F0A3E608F0A31581DA
:104DB0001581D0E0FED0E0F8158115811581E8C09D
:104DC000E0EEC0E022C0D02518C582C0E0E519346D
:104DD000FFC583C0E0E518C3958224F310AF0885B2
:104DE00083198582188008858319858218D2AFC8F7
:104DF000F0A3E9F0A3EAF0A3EBF0A37908E709F048
:104E0000A3D8FAECF0A3EDF0A3EEF0A3EFF0A3D05B
:104E1000E0F0A3D0E0F0A3D0E0F0A3E520F0A3E51C
:104E2000F0F0A322851983851882E0C0E0A3E0F9A1
:104E3000A3E0FAA3E0FBA37808E0F608A3DFFAE01A
:104E4000FCA3E0FDA3E0FEA3E0FFA3E0C0E0A3E03D
:104E5000C0E0A3E0F5D0A3E0F520A3E0A3F5F0E4E3
:104E6000C5A8858319858218C5A8D082D083D0E0D3
:104E7000F8D0E032851983851882E0A3FEE0A3F51F
:104E8000207808E0A3F608DFFAE0A3FFE0A3C0E083
:104E9000E0A3C0E0E0A3C0E0E0A3C0E0E0A3C0E086
:104EA000E4C5A8858218858319C5A8D083D082025D
:104EB000416CD083D082C5F0E493A3C5F0C395F0D4
:104EC000F5F0E493A3C395F04005E5F0048001E418
:104ED00075F002A42582F582E5F03583F583E4932D
:104EE000A3C0E0E493C0E022740380047402800055
:104EF000CCC0E0EDC0E0E518C39CCCAD1950011D5D
:104F000010AF068C188D1980068C188D19D2AF122F
:104F10004F65D0E0FDD0E0FC22D083D082CCC0E051
:104F2000E493A36006124F861470FAE493A360061C
:104F300012508B1470FAD0E0FCE493A3C0E0E49329
:104F4000C0E022CAC0E0E493A3C582CCC582C58379
:104F5000CDC583F0A3C582CCC582C583CDC583DA18
:104F6000E5D0E0CA22CAC0E0E0A3C582CCC582C5B4
:104F700083CDC583F0A3C582CCC582C583CDC5834F
:104F8000DAE6D0E0CA22C0E0E493A3D39C5010E458
:104F900093A3C39C400AD0E0D0E0D0E0024F36A3F8
:104FA000A3A3D0E022700908080822601618181878
:104FB000C6C333C608C633C608C633C608C633C61A
:104FC000D5E0EA222518F58210AF08F51840021541
:104FD000198008F51840021519D2AF85198322747B
:104FE00004800A74038006740280027401C0E0F435
:104FF00004124FC4D0E012520E22C0D0251810AFB8
:1050000008F518500205198008F51850020519D244
:10501000AFD0D022BB0102E722C082C08389828A3E
:1050200083BB0003E08002E493D083D08222601629
:10503000080808C6C313C618C613C618C613C61870
:10504000C613C6D5E0EA22C3E0C696F608A3E0C6BA
:1050500096F608A3E0C696F608A3E0C696F622BB2D
:10506000000EC082C0838A838982F0D083D08222DE
:10507000BB0101F722251810AF08F51840021519D9
:105080008008F51840021519D2AF22C0E0E493A3BE
:105090006C7009D0E0D0E0D0E0024F36A3A3D0E09E
:1050A00022E066701008A3E066700A08A3E066704C
:1050B0000408A3E06622E76670100809E766700A34
:1050C0000809E76670040809E76622C3E09608A3AA
:1050D000E09608A3E09608A3E096A2D265D033221A
:1050E000C3E096F008A3E096F008A3E096F008A3CA
:1050F000E096F022C3E697F60809E697F60809E677
:1051000097F60809E697F622700422600D18C6C3C8
:1051100033C608C633C6D5E0F41822E627F60809D8
:10512000E637F60809E637F60809E637F622E056CC
:10513000F608A3E056F608A3E056F608A3E056F6F4
:1051400022E056F008A3E056F008A3E056F008A3CA
:10515000E056F022E026F008A3E036F008A3E0369F
:10516000F008A3E036F022E046F008A3E046F0089D
:10517000A3E046F008A3E046F022E026F608A3E00C
:1051800036F608A3E036F608A3E036F622C0E0E8DB
:10519000C0E0E58124FCF8E6A2E7D0E0F8D0E02208
:1051A000E4C396F608E496F608E496F608E496F664
:1051B00022C6F4C608C6F4C608C6F4C608C6F4C6B5
:1051C00022C3E09608A3E09608A3E09608A3E09621
:1051D00022C3E7960809E7960809E7960809E796C3
:1051E00022E0F608A3E0F608A3E0F608A3E0F62222
:1051F000600C08C6C313C618C613C6D5E0F422E671
:10520000F008A3E6F008A3E6F008A3E6F022CAC07F
:10521000E0E6F0A308DAFAD0E0FA222518F582E4F5
:105220003519F58322E473C0E074F2124DC5A2AFC4
:10523000E492E0FED2AFE5A7FAE5A1FBEA5B5410E9
:1052400060081247B875A1EF802AEAA2E0C0D0EB4F
:10525000A2E092F012518D158182F0501790619862
:10526000E0FA900BB8E0C39AA2D265D0335002EABC
:10527000F075A1FE751A00EEA2E092AF7F01024E1A
:1052800024C0E074F2124DC5A2AFE492E0FED2AFAA
:105290009061A4E0FA759B00E5915A540860097585
:1052A00091F71248BA025350E5915A5410607B7539
:1052B00091EFE0C2E4F09061E4E0700612488A02E7
:1052C0005350E06401705E7404900BAFF012485AC2
:1052D000900BB3E004F0900B47E0C0E0900BB3E01C
:1052E000FAD0E0C39A500779E11248968062900B99
:1052F000B1E0F874012808E43400F9900B53E0FAA7
:10530000E89AE99400C365D0335007900BB1E004EC
:105310008001E0900BB1F01248787483900BAFF0ED
:10532000124884802B1248908026EAA2E0C0D0E583
:1053300091A2E092F012518D158182F05012E0C2DC
:10534000E0F0E4900B9CF0900B9AE0700312483070
:105350009061A3E0FAE5E95A54046038900BABE0A1
:1053600070277401900BAAF0900B9DE0F8A3E0F574
:10537000838882125225E4900BAAF0900BABE06078
:1053800008124806E4900BABF075E9FB906193E0DE
:10539000A2E640C8025274C0E074F2124DC5A2AF3A
:1053A000E492E0FED2AF9061A5E0FAE5BF5A540462
:1053B000600C75BFFB900BACE004F0124800025289
:1053C00074C0E074ED124DC5A2AFE492E0FCD2AF20
:1053D0007480659E70FA740390620FF0E0A2E7504B
:1053E000FB906206E0F50A7406550A7006E58BA28A
:1053F000E55042E50AA2E25033900ACCE0F8A3E07F
:10540000E890620B125496740478081251F0E50883
:10541000906207125496740978081251F0E5085406
:105420003E906209F0906201E0D2E0F0E50AD2E13C
:10543000F50AE48014E50AA2E0501290620FE0C27F
:10544000E1F0E0A2E740FB7401900ACEF090620226
:10545000E0F50C906204E0F508750D007404780C1A
:10546000125108E50C450AFAAB0D7509007409786C
:1054700008125108EAF8E5094BF9900ACAE048F029
:10548000A3E049F0758B00C2E8751A00ECA2E09227
:10549000AF7F06024E24F0900ACCE0F508A3E0F5B9
:1054A000092232C0E074F2124DC5E58AA2E440063A
:1054B000E58AA2E35016E590A2E292F0A29320F0D2
:1054C00001B3500512432C8003124326A2804007EB
:1054D0007A487B001245E4758A00C2EB7F01024ED8
:1054E00024C0E074F2124DC5E5A8FED2AF12439875
:1054F000751A00EEA2E792AF7F01024E24C0E0745D
:10550000F2124DC5E5A8FED2AF12439E80E2C0E084
:1055100074F2124DC5E5A8FED2AF1243A480D1C0EB
:10552000E0C0D0EAC0E0E5A8D2AFC2C7751A00A2B9
:10553000E792AFD0E0FAD0D0D0E032910100000085
:1055400000010000000058000000091510081A05AD
:10555000110713190A0F1C1D1B55555555AAAAAA48
:10556000AA640000001F0000009F0200001100005C
:1055700000EFFFFFFFFFFFFFFFE442BC46FE49884C
:1055800044C243050000100060EA3075102019F88D
:10559000E7544920496E63000C4B944BC14BD14BEF
:1055A000D14B0000000000000000000000000000DF
:1055B000000101FF00FF00030003000300030003DC
:1055C00000030003000300030005000A0014002884
:1055D000004F009E000000E646E646E646E6464AE4
:1055E000464446E646A55600000000075700000066
:1055F000000C0000000C0002CE010201FFFFFFFFC3
:10560000FFFFFFFF44496E49AA49EC499849BC494C
:10561000A64A3000000000000C000000008000805E
:1056200010020004000000FCFFFF05001F00000046
:10563000FF030700FF1B0000000100000000000046
:105640000000000000000000000000007101750A69
:105650000F018E0A7206760A73017C0A74037D0AB2
:105660007507800A7602870A7702890A10028F0A74
:105670001107910A78028B0A79018D0A0005150D30
:105680000910080400383C3E363B3B352B432C3098
:105690003016181920231A1C1E3030301718192103
:1056A000301B1D1F300300710030016000110070BD
:1056B000003102200350048000100061000000143B
:1056C00000630073007200620043000000130006D4
:1056D00000000000000400120000000000000000B4
:1056E0000004000400370037003C024400000000C2
:1056F000000000000065000000350081000000058A
:105700000000008300000001037103010301030195
:10571000030103010322030203010310030003003A
:1057200003000300030003000300034203000324FB
:1057300003060300030003040312032503230325C8
:1057400003230304030403000300030003440300D2
:1057500003000323030003650321003503810300D5
:105760000305030003000300030304710402046043
:105770000411047004020402040104020410046110
:1057800004000414046304730472046204430400F8
:1057900004130406040004000404041204000400BA
:1057A00004000400045104640000040004000444E4
:1057B00004000400040004000465040004350481AE
:1057C0000464000504000483040004000349484203
:1057D0004D18172505020001191618161615230372
:1057E000000C0E020B040B0A0708000FE646EC46FD
:1057F000F2466E46F84668467446360001000600DA
:1058000000000F0000000000000000000000000089
:1058100003FFFF00000403FFFF0000FFFF0FF40180
:105820000005C4040320000100000B00000000007C
:1058300000000003010F00013636010100010201E2
:105840000001030100010401060605020000070132
:1058500000340801000F090401010D0100FF0E08CA
:10586000000017020000190100FF1A0100011B01CE
:1058700000FE1C0100081D0200001F0100012001A4
:105880000001210200002301000F24020000260174
:10589000000127010008280200FF2A0100072B0150
:1058A00002402C0100002D0100012E0100012F01FA
:1058B00000FF30010B1C310800003A0100083B01D9
:1058C000000F2F01000016473A473A47E6463A478D
:1058D00008461A463A473A4726463A4720463A4744
:1058E0003A473A473A473A473A473A473A473A47B0
:1058F0003A473A473A473A4792468C463A473A47F8
:105900003A473A473A4746475E4764474C47584705
:105910005247030003000400080010001F003E006F
:105920007B00F600EC01D703AF075D0FB91E713D98
:10593000000000BE040A03EAF5E5D5D5C5B5A59576
:105940009585857575656555554545353525251507
:105950001505140AE5D5C5B5A5A595858575650B0D
:10596000F4F5E5D5C5B5A5A5958575756565555558
:1059700045454535252515150504ECECDCCCCCBC9E
:10598000ACAC9C8C8C7C7C6C6C5C5C4C4C4C3C3C27
:105990002C2C1C0C795979597959365952595F591F
:1059A00000FA06F600FFFF0FFFC800000000010428
:1059B0000303640006000000000000000000000077
:1059C00000000000010000008D0C02028F0C01009D
:1059D000900C0103910C0204930C0205AC0C04061C
:1059E000950C01070000010000002B00960C010837
:1059F000970C0109980C010A990C010B9A0C020CE6
:105A00009C0C010D9D0C0F0EB00C010FB10C02107F
:105A1000B30C0711BA0C012100000800BB0C0222D4
:105A2000BD0C0223BF0C0100C00C010074F6124D26
:105A30005F74F7125075E9900A58F01244D6750851
:105A4000087509007808124FE7740312521BAC82E4
:105A5000AD837AE87B0F793F1242F67402124FFA57
:105A60007A008A08740112521BE5822508F582E546
:105A7000831261A564FF70070AEAC3940840E3EA51
:105A8000C394085010740112521BAC82AD837A008B
:105A90007984124A16E4851882851983F0AC82ADA8
:105AA000837A01797012447C851882851983E070AD
:105AB0001C7A767B441244DC740185188285198334
:105AC000F0AC82AD83FA797012447680077A7C7BE1
:105AD000441244DCE4900A74F0900A9AF074FF9047
:105AE000100CF0125AEE7409124FFA025D277A0177
:105AF000900A58E0F91242362274F6124D5FEAFE1F
:105B0000EBFF74805FF9E47001E9601A900A58E0D5
:105B1000F91241C4EA7001EB60031241B8EEFA7465
:105B2000806FFB025BA6EEA2E0506A7901124A1078
:105B30007C877D0A7A007960124A167C897D0A7A10
:105B4000007964124A167C8D7D0A7A007962124AC5
:105B50001674FF900A98F090100474E8F0A3740390
:105B6000125BAC7963124A16E4901004F07C047D59
:105B700010FA7966124A16741E125BA97969124AE4
:105B8000167401125BA9796C124A161249CE74017F
:105B90006EFAEF808D54026009900A9AE060031259
:105BA000640C7A007B00025D27901004F07C047D79
:105BB000107A002274F0124D5F74FE12507589083D
:105BC000ECFEEDFF7509008A8285820AE9C3949094
:105BD00050367468650870067509B4025CB77C04B9
:105BE0007D107A00124A04E9F509750C04750D1050
:105BF000750E00780C124FE3AC0A7D00EEFAEF123E
:105C000064A3124FFA025CB7E9C394AF5019750A46
:105C10007C750B44780A124FE712449A7402124FB3
:105C2000FAE9F509025CB7E9124F190007B0445CC4
:105C3000B1775CB27C5CC0A45CC1A85CC2AC5CC344
:105C4000B05CB45CE4900A99F0F50A851882851975
:105C500083AA82AB83A90A124A0AE97006900A99BC
:105C6000E004F0050AE50AC3940A40DF900A99E0CF
:105C70008E828F83F08040900A9880F38518828509
:105C80001983AA82AB83900A98E0F9124A0AE9FACA
:105C90008A097023851882851983E0F50CA3E0F545
:105CA0000D025BF0741280C8740A80C474CE80C088
:105CB000741080BC7509E8A9097402124FFA7F08B4
:105CC000024E7474F6124D5FE9FEC3949050107446
:105CD000686E700479B4804F7A00124A168048EEDC
:105CE000C394AF50157508767509447808124FE7CC
:105CF00012449A7402124FFA802DEE124F1901C00D
:105D0000C3D45C03B0D45CB10F5DB21C5D255D8C67
:105D1000828D83E0900A98F07900800B900A98E0D9
:105D2000FA796880B579E87F02024E7474ED124DFD
:105D30005F8A0D8C0A8D0B741312521BE0F508A3B9
:105D4000E0F509890E750F007402780E125108E50E
:105D50000E244CFEE50F3456FFEE2480F582EF341E
:105D6000FDF583E493F9850882850983125225E5C0
:105D700008647C7004E50964447031E9602EEE2407
:105D800082F582EF34FDF583E493F5087401938581
:105D90000810F5117512007810124FE3AC0D7D005C
:105DA000AA0AAB0B1264A4124FFA79007F0B024EC1
:105DB0007474F7124D5F74FF1250757A7C7B441235
:105DC00044DC900A75E0124EB20002265ED35D0CF0
:105DD0005E1A5E851882851983AC82AD837A00795C
:105DE00083124A04E9FE701F851882851983E060DA
:105DF0001B7900124A10900A8EE0A2E0402A7A0035
:105E00007B00124A7C80211243F280267A017B00BB
:105E1000900A58E0F91241E280131244D67A767B58
:105E2000441244DC80E67EE8EEF91243F27A001276
:105E30005AF07401124FFA7F01024E74900A74F006
:105E40007A5A7B0A22C082C083900A5A7430F0A327
:105E50007475F0900A7CE0FC900A5CF07A00801384
:105E6000126300C0E0E8245DF582E4340AF583D0D3
:105E7000E0F00A1262F740E87A0080131262E7C08D
:105E8000E0E82460F582E4340AF583D0E0F00A7497
:105E9000705CC430E30244F0FBEAC39B40DE7A5AF4
:105EA0007B0A124950025F7E74F7124D5F1249E679
:105EB000025E3774EE124D5F74FE12507589088AC7
:105EC0000FECFEEDFF8B10741412521BE0F51174F1
:105ED0001512521BE0F50AA3E0F50B85188285190F
:105EE00083AA82AB83124A0AE9FA8A097054E50848
:105EF000900A5AF0E50F900A5BF0900A5CEEF0A36E
:105F0000EFF0E510900A5FF0E511900A5E125E3F37
:105F1000124938E9FA8A097029850A0C850B0D7532
:105F20000E00780C124FE3AC117D00900A62E0FA8B
:105F3000A3E01264A3124FFA7407125E3C12493EAA
:105F4000800AE4900A74F0A9091244167402124FF0
:105F5000FA7F0A024E7474F7124D5FE9124EB200D6
:105F6000017A5F675F745F7AFF7BFF124A7C12449D
:105F700022025E377A007B0080F179E880F0D083DE
:105F8000D08202416C74F2124D5F74FE125075EAB9
:105F9000FEEBFF900A9BE07002A3E06011900A9B69
:105FA000E0F8A3E0F583888212522502618B8E828D
:105FB0008F83A3858208858309EE2402F8EF3400DD
:105FC000F9880A890B8E828F83E0124EB201108B02
:105FD000613261256110608B61426048608B61FDB8
:105FE0006096608B618B618B61F35F1B6103616203
:105FF000604E60900A8EE0A2E040077A007B0012BB
:106000004A7C850882850983E0F91243F202618B9C
:1060100090100CE064FF700302618B88828983E03A
:10602000FA90100CE06A600302618B90100DE0FBA7
:1060300090100C12619712440474FF90100CF0023F
:10604000618B1244C402618B1244CA02618B900AB4
:1060500074E06404600302618BE4F0F91243FE0211
:10606000618B850882850983E0F50C701D7CE87DD5
:10607000037A027B00900A58E0F912425AE9FA8A40
:106080000C70077401900A9A80B47BFF7AFFA90C08
:1060900012440402618B900A74E06405600AE064B3
:1060A00006704C750D018003750D00E41261AB7034
:1060B00029851882851983AA82AB8388828983E027
:1060C000F9124A0AE9701CEE241D1261A2FB850A2E
:1060D00082850B83E0FA790080067BFF7AFF7922C4
:1060E0001243F8E50D700302618B792402605CE4D1
:1060F000F07BFF7AFF79B41243F802618B1244D02F
:1061000002618B850882850983E0F91244108508B5
:1061100082850983E0F91249F280708882126195C4
:1061200012440A8066E4900A741261ABF9124416B4
:1061300080598E828F83A3A3A3A3A3A3A3A3124EEC
:10614000EC8E828F83A3A3A3A3A3E0F50D780D1299
:106150004FEB8E828F83A3A3A3A3A3A3A3E0F50D8C
:10616000780D124FEB8E828F83A3A3A3A3A3A3E08A
:10617000FB8E828F83A3A3A3E0FCA3E0FD850A82AC
:1061800012619512441C7404124FFA7402124FFAF1
:106190007F06024E748983E0FA850882850983E0D0
:1061A000F922F582EF3400F583E022F0850882853C
:1061B0000983E02274F5124D5F900A74E064016077
:1061C000030262468A828B83A3A882A983E070724D
:1061D0007E0080080CECC39406402E0EEA2417F5CE
:1061E00082EB126402FCEE9C50588E08EA2508FCF3
:1061F000EB3400FD74272CF582E43DF583E0FD745B
:10620000FE2DC3940E503B7C008C08E5082476F5E7
:1062100082E4340AF583E0FF6D600574FF6F70B4AB
:1062200088088909750A007808124FE37C317D00DF
:106230007AD37B0F1264A4124FFA7402900A74F09E
:106240008009740380F6E0640260F77F03024E74F5
:10625000C082C083900A74E064027073900FD4E02F
:10626000900A5AF0900FD5E0F8A3E0F9900A63E89D
:10627000F0A3E9F07CD77D0F7A5B7B0A124AFA1211
:1062800063F6800C126300C0E01263EBD0E0F00A0A
:106290001262F740EF7A00800C1262E7C0E01263EE
:1062A000E0D0E0F00A74705CC430E30244F0FBEA32
:1062B000C39B40E5900A8EE0A2E250047424800162
:1062C000E4900A70F07405125E3C1249A48015E057
:1062D00064016005E06403700BE4F07BFF7AFF79F2
:1062E000211243F8025F7E8A82A882E82480F58228
:1062F000E4340AF583E02274065CC313FBEA9B22B4
:106300008A82A882E8247DF582E4340AF583E022BB
:1063100074F6124D5FEAFEEBFFEE24301261A2FA32
:10632000900A70F08A08EE2416F582EF126402607B
:106330001A900A9AE06014EE24261261A2F50974FC
:10634000FF6A700474B18005E4800274B4900A5A44
:10635000F07A027B00900A58E0F91242601263F66C
:10636000800C126300C0E01263EBD0E0F00A12620E
:10637000F740EF7A00800C1262E7C0E01263E0D0D1
:10638000E0F00A74705CC430E30244F0FBEAC39BA3
:1063900040E58E828F83A3A3E0F8A3E0F9900A5B27
:1063A000E8F0A3E9F0EE2404FCEF3400FD7A5D7B15
:1063B0000A124AFA7A5A7B0A1249B6900A5AE070CF
:1063C00013E50890100CF0E50990100DF0E4900A28
:1063D0009AF08009900A9AE0600312640C025D272B
:1063E000E82469F582E4340AF58322E82466F5821C
:1063F000E4340AF58322900A7CE0FC900A65F07A86
:1064000000223400F583E05406C31322E4F07BFF3E
:106410007AFF79231244042274F5124D5F740190BF
:106420000A75F0740F900A8EF07C067D0079007A70
:10643000767B0A1241AC7402900A76F07412900ACC
:106440007CF07401900A7DF0900A80F0900A8774C5
:1064500010F0A3E4F0900A89744AF0A37401F0905C
:106460000A8F7407F0A3E4F075083A75090FF50A6E
:106470007808124FE37A3A7B0F12419A8A088B0907
:1064800074012508FCE43509FD7A917B0A1264A4A5
:10649000124FFA900A8B7464F0A3E4F0900A8DF026
:1064A00002624BFB1241A074032274F5124D5FEAA5
:1064B000FEEBFF750A00850A08750900740278086A
:1064C000125108E508244CF8E5093456F988828908
:1064D00083A3A3E493FC740193FD88828983A3E4DE
:1064E00093FA88828983E493F98E828F83125225EE
:1064F000050AE50AC3940C40BD02624B79FF1241C4
:10650000F453F3EFC28443FD1053BEFBE59DA2E6B6
:1065100050FA0078F8790100E824FF18E934FFF90F
:10652000E87001E970F175C6807480659E70FA4369
:10653000BE047408906270F0C29143FE02C291439F
:10654000FE021242DE1244281244701247281245FD
:106550004E1243381241FA7AC87B43790112430E36
:1065600079FF1241EE7C887D137A047B00900A3F0C
:10657000E0F912425A124200C2AF75C9AB75C95B4D
:1065800080FEC082C08379011244B8D083D08202D9
:10659000416CC082C083790080EE74F7124D5FE9D0
:1065A000900A3FF07401900A3EF0FA7B001241E23B
:1065B000900AD174AAF0A37443F0900AD374B0F097
:1065C000A37443F07C097D0079007A357B0A12417F
:1065D000AC80057401124FFA7F01024E74C082C074
:1065E000837A0A7B0012421E900A4EEAF0A3EBF077
:1065F0007C0A7D0079001241AC79001242D8790101
:106600001246B679021249F87903124482790412CB
:1066100043B602658B74F6124D5F74F0125075EA42
:10662000FEEBFF74805FF9E47001E9704EEEA2E0CA
:10663000505E740212521B7407126C3779A1124417
:1066400094740212521B740B126C3779A4126C2DC5
:1066500074E8F0A37403F0851882851983AC82ADC9
:10666000837A0279A712449479011242301244A02D
:1066700074016EFAEFFB80321241B8900A3FE0F9E4
:106680001241C4EA7001EB70EFEEFA74806F80E59E
:106690005404600943C90874046EFA800DEE540274
:1066A0006004740280F37A007B007410124FFA7F4A
:1066B00002024E7402416C74F7124D5F74D4125092
:1066C00075900A32E064016003026811900A33E0B9
:1066D000FE124EB201051168E46606671C67866704
:1066E0009667F367900A3EE0640270157403F07CCD
:1066F000E8FD7B327A1E79011243501244A60268EB
:10670000117AB402680C900A3EE0640270F37405DA
:10671000F0900A34E0F91244AC0268117F00851849
:1067200082851983AC82AD837A0179C112448E8F40
:106730000880377C347D0A7A0179B112449474015F
:1067400012521BAC82AD837A2B79B212448EE9705F
:1067500017740112521B74FFF0AC82AD837A2B794F
:10676000B2124494E96001FF0508851882851983F7
:10677000E0FAE508C39A40BBEF70077A007901128E
:10678000434AEF02680B851882851983AC82AD837A
:106790007A0179C1806B7C347D0A7A0179B1124427
:1067A00094740112521BAC82AD837A2B79B21244DD
:1067B0008EE9702E740112521BE0900A43F074238C
:1067C00012521BE0F8A3E0F9900A44E8F0A3E9F0C4
:1067D000740512521BAC82AD837A467B0A124AFAC8
:1067E000800674FF900A43F07402900A42F012434C
:1067F000DA801E851882851983AC82AD837A01798F
:106800006112448E851882851983E0FAEEF91243ED
:10681000D4742C0265D574F1124D5F74FD1250755D
:106820007401851882851983F012521BE9F07402F5
:1068300012521BEAF07A00A2AFE492E0F508126867
:106840008B4033851882851983A982AA83890C8A93
:106850000D750E00780C124FE379037A267B6212D5
:1068600045487403124FFA906211E0D2E0F0E50857
:10687000A2E092AF800DE508A2E092AF0AEAC394CD
:106880000340B47403124FFA026BD4C2AF74039086
:10689000620EF0906211E0A2E02274F5124D5F7A70
:1068A00000A2AFE492E0FE12688B402A75084275A0
:1068B000090A750A007808124FE3790C7A267B6280
:1068C0001245487403124FFA906211E0D2E0F0EEE4
:1068D000A2E092AF800CEEA2E092AF0AEAC394036A
:1068E00040BF7F03024E7474F1124D5FEAFEEBFF6E
:1068F000750900E9C394025003026A048E828F83F3
:10690000A3E0124EB20103596911694D69516955ED
:10691000697A528E828F83E0FB74016B6009900A62
:1069200050E060030269D9EA900A50F0900A38F00A
:106930007A357B0A12455A8E828F83E064036003A6
:10694000026A04750901E4900A50026A037A5180D0
:10695000C27A5080BE7A4F80BA1243E6EAF8EBF969
:10696000EA7001EB7003026A048E828F83E0FA748E
:10697000016A6009900A51E060030269FD740190A8
:106980000A51F0880C890D750E00780C124FE37CCB
:10699000027D007A407B0A1241A07403124FFA7AFA
:1069A00000A2AFE492E0F50AC2AF740212688F4011
:1069B0002D750C40750D0A780C124FE379027A247C
:1069C0007B621245487403124FFA906211E0D2E0E4
:1069D000F0E50AA2E092AF801274036B8022E50A10
:1069E000A2E092AF0AEAC3940340B68E828F83E09E
:1069F00064037010750901E4900A51800674036AFB
:106A00007002E4F08E828F83E064037022E50960F7
:106A1000047C0A801C7A027B00900A3FE0F9124253
:106A2000607A027B00900A3FE0F91241E280107C1C
:106A3000647D007A027B00900A3FE0F912425A021C
:106A40006BD4C082C083E4900A52F0900A53F08A5B
:106A5000828B83A3E0FC124F19001200B76A3093B7
:106A60006A31A06A32B36A40F66A41A46A42A86AEF
:106A700043AC6A44BB6A45D76A46BF6A47C36A48A3
:106A8000CB6A49C76A4BCF6A4CD36A68DB6A6BF63C
:106A90006AFA6A7410900A52F07A527B0A02658B85
:106AA000743080F1744080ED748080E97401900A44
:106AB0005380E5740380F7740480F3740580EF74E9
:106AC0000680EB740780E7740880E3740980DF7444
:106AD0000A80DB740B80D7740C80D3E9C394034025
:106AE000B88A828B83A3A3E0FAC3940350AB7401EA
:106AF0002A5403C480B8740280B474E02CC3940A8E
:106B0000500574E12C808E7A007B00809074F11225
:106B10004D5F90620EE0F50A7403F0906214E0A2FB
:106B2000E04003026BCE906216E0F508906217E039
:106B3000AE08FFC3EE9404EF9400501F7508327541
:106B4000090A8062780C124FE37903126BDB124F53
:106B5000FAEE24FD1E1E1EEF34FFFF750C32750D7C
:106B60000A750E00C3EE9404EF940050D7EE700146
:106B7000EF600B780C124FE3126BD9124FFAE490CE
:106B80006214F08049780C124FE379FF126BDB122C
:106B90004FFAEE24010EEF34FFFFE50824FFF5085D
:106BA000E5093400F50985080C85090D750E00C34B
:106BB000EF940150D0EE7001EF600B780C124FE3B0
:106BC000126BD9124FFAE4906214F01243CEE50A28
:106BD00090620EF07F07024E74EEF97A267B621205
:106BE000454274032274F7124D5F74FF125075E929
:106BF0007035E4851882851983126C3779A0126C80
:106C00002DAC82AD837A0179B012448EE970108583
:106C10001882851983E060077A01790112434A746A
:106C200002900A3EF080031242AE0265D3124494F1
:106C300085188285198322F0AC82AD837A01220205
:106C4000416C02416C74F7124D5F74FF125075E98C
:106C5000FE851882851983AC82AD837A0179B012E2
:106C6000448EE9700D851882851983E060047A01ED
:106C700080027A00790112434A900A3EE064037070
:106C800007EEFA79011243D47402900A3EF00265CD
:106C9000D374F7124D5F900A3EE0640570077402EA
:106CA000F0F91243D40265D874F7124D5FE9FA790E
:106CB000021243D40265D802416C74F1124D5F890F
:106CC000088A09740F12521BE0FA741012521BE06A
:106CD000F50A741112521BE0FEA3E0FFE50A7003EF
:106CE000026D77740165096003026D77EAA2E250D4
:106CF00003026D771245EA8E828F83E0FA74016A8F
:106D0000600A74026A600574036A700BEEFAEFFBA6
:106D1000A90A1243E0806074046A705BA3E07057B4
:106D20007402650A70517A227B0012421E8A0A8B15
:106D30000BEA7001EB6040750C2A750D56750E80DC
:106D4000780C124FE37C227D001241A07403124F95
:106D5000FA780A124FE7750C22780C124FEB7B047D
:106D60007C007D007A01A9081244B27403124FFA24
:106D7000AA0AAB0B124224026BD402416C74F412C7
:106D80004D5F74FC1250757E00E4900A57F0900A33
:106D900054F07F3D7508047509007808124FE774B8
:106DA0000212521BAC82AD837A007B00EF12739407
:106DB000124FFA851882851983C082C083900F2DE7
:106DC00078081251E1D083D08278081250A170194E
:106DD000900A54E06010F9124446EFF9124446E478
:106DE000900A54F08029EF80FA851882851983C0B3
:106DF00082C083900EE678081251E1D083D0827869
:106E0000081250A17004EFFE8005EFF91244460FFE
:106E1000EFC3943F5003026D94900A54E07026EE45
:106E20007018793D12443A900A557404F0A3E4F0C6
:106E3000900A57E0601979008017F012444CEEF97F
:106E400012445E800AEE6004F912444012444C7908
:106E50000102703474F4124D5F74FC125075E9FE37
:106E6000900F2D78081251E18518828519837808D2
:106E70001251FF851882851983AC82AD837A007B1D
:106E80000012446A900A57E07005EE900A54F0022E
:106E9000703474F4124D5F74FF1250758908794E86
:106EA00012427EE96006900A57E060087401900A79
:106EB00057F08039A9081243027E007F00750A014D
:106EC000750B00780A124FE7740212521BAC82ADA8
:106ED00083EEFAEFFBA908127395124FFA85188218
:106EE000851983E064FF70C4126F3B40D0740102C7
:106EF000703674F4124D5F74FF12507589087E006D
:106F00007F00750A01750B00780A124FE7740212B0
:106F1000521BAC82AD83EEFAEFFBA90812739512F7
:106F20004FFA851882851983E064FF6007A908126B
:106F300044408005126F3B40C980B2EE24010EEF41
:106F40003400FFC394102274F4124D5F74FC12508D
:106F5000757EFC7F0F7508047509007808124FE7ED
:106F6000740212521B127388124FFA851882851907
:106F700083C082C083900F1E78081251E1D083D065
:106F80008278081250A17011EE24FCFEEF34FFFF4E
:106F9000C3EE9404EF940050BC127534E8F0A3E9FA
:106FA000F002703474F4124D5F74FC12507589094C
:106FB000EAFEEBFF8C08EE24FCFEEF34FFFFC3EE8D
:106FC0009404EF94004069750A04750B00780A1266
:106FD0004FE7740212521BAC82AD83EEFAEFFBA9AD
:106FE00009127395124FFA740212521BE0F8A3E0D3
:106FF000F985188285198385080AE0650A7002A35D
:10700000E0700AEEC398FAEF9400FB802774805971
:10701000FBE47001EB709F740428FAE439FBC3EEC3
:107020009AEF9B4008EEC3981272DC80901242AE39
:107030007A007B007404124FFA7F04024E7474ECE1
:10704000124D5F74FC125075890AEAFEEBFF8C0B3F
:10705000741812521BE0F50EA3E0F50F741A1252C9
:107060001BE0F50CA3E0F50D85188285198374FFEC
:10707000F0A3F0A80E7480450FF9740212521BE8B9
:10708000F0A3E9F0E82EF508E50F3FF50985188231
:10709000851983AC82AD83AA08FBA90A12446A74DD
:1070A0000212521B12712B7402780E1251F0E50E6F
:1070B000F510900A57E0704E750F00780E124FE7EA
:1070C000AC0CAD0D8E0E8F0F7402780E1251F08540
:1070D0000A12F513740A7812125108250EFAE513F4
:1070E000350FFB1242FC7402124FFAE510F50E78D0
:1070F0000E124FEBAC0CAD0DEEFAEFFBA90A1244E9
:10710000647401124FFA850B0CE50C851882851901
:1071100083F0A374801271318518828519831271EE
:107120002B7404124FFA7F0C024E74E0F0A3E0546B
:107130007FF0851882851983AC82AD83AA08AB09DC
:10714000A90A12446A2274EA124D5F74F81250754B
:107150008910750DFF743D65107005750C3E800338
:10716000750C3D750A04750B00900A55E024FCFE71
:10717000A3E08005EE24FCFEEF34FFFFC3EE940491
:10718000EF940050030272B8900A57E06003027255
:10719000D27508047509007808124FE7740212527C
:1071A0001BAC82AD83EEFAEFFBA910127395124F60
:1071B000FA851882851983E064FF7004A3E064FFF8
:1071C0007035740212521BE0F8A3E0F9748059FB89
:1071D000E47001EB709E740428F8E439F9C3EE986A
:1071E000EF99400D740212521B1272E81272DC8089
:1071F0008A1242AE0272D2851882851983A3E054A6
:1072000080F9E47001E970DC851882851983850DA9
:1072100008E065087002A3E060CA851882851983BA
:10722000E0F50DFCAA0AAB0BA90C124452EA70015E
:10723000EB70B1740212521B1272E8F508EF99F567
:107240000988148915750E00750F007512047513E1
:10725000007812124FE7740612521BAC82AD83E520
:107260000E2508FAE50F350912738F124FFA7404D0
:1072700012521BAC82AD83E50E250AFAE50F350BE1
:10728000FBA90C12446AE50E2404F50EE50F340048
:10729000F50FC3E514950EE515950F50AE74021267
:1072A000521BE02404F8A3E03400F9E50A28F50AAB
:1072B000E50B39F50B0271E4A90C12443A900A5718
:1072C000E0700A900A55E50AF0A3E50BF0A9101248
:1072D00044407408124FFA7F0E024E74F8EF99F989
:1072E00074FC28FE74FF3922E0F8A3E0F9EEC3989D
:1072F0002274F0124D5F74FC125075890FEAFEEB98
:10730000FF8C0A8D0B741412521BE0F5098014EEE9
:107310002404FEEF3400FFE50A2404F50AE50B34EB
:1073200000F50B85090874FF2508F509E508604E8E
:10733000750C04750D00780C124FE7740212521B85
:10734000AC82AD83EEFAEFFBA90F127395124FFAE0
:10735000850A0C850B0D750E00780C124FE37C042A
:107360007D00740312521BA982AA837B001241A6DE
:107370007403124FFAE970977401900A57F074047D
:10738000124FFA7F08024E74AC82AD83EEFAEFFB27
:10739000900A54E0F91242F674022274F1124D5F21
:1073A000890E8A088B09ECFEEDFF900A57E0704BBE
:1073B000750A01750B00780A124FE78A0A8B0B7465
:1073C00002780A1251F0890CF50D740A780C1251EA
:1073D00008250AFAE50D350BFB1242FC7402124F28
:1073E000FA750A01780A124FEBEEFCEFFDAA08AB22
:1073F00009A90E1244647401124FFA7F07024E74F9
:10740000C082C083124434E970031242AED083D0EC
:107410008202416C74F0124D5F74FB125075890941
:107420008A088C0A8D0BAC091275758A0C8B0DAE0F
:107430000CAF0DEE7001EF6050750E00803B750CC7
:1074400001750D00780C124FE7740212521B127373
:1074500088124FFA851882851983E0FA850E0CE5AB
:107460000A250CF582E50B3400F583E06A701AEE0C
:1074700024010EEF3400FF050EE50EC3950840BE53
:10748000E508650E700302752D85080C7403250C44
:10749000F8E43400F97A047B00124C0E880C890D54
:1074A0007402780C125108AE0CAF0D900A55E02E04
:1074B000F8A3E03FF9740428F8E439F9C3E894012B
:1074C000E994104039900EE6780C1251E1740112E3
:1074D000521BE50CF0A3E50DF0A3E50EF0A3E50FBC
:1074E000F0740112521BAC82AD837A007B00900ACB
:1074F00054E0F912446A900A54E0F912445E780AA2
:10750000124FE78E0A8F0B780A124FE7AC091275FB
:107510007C1244587404124FFA900A57E0600479C0
:107520000A800C127534E028F0A3E039F079007479
:107530000502738074042EF8E43FF9900A55227412
:10754000F4124D5F890A8A0BECFEEDFFAC0A12754E
:1075500075EA7001EB6019850B087509007808124F
:107560004FE7EEFCEFFD127390124FFA79008002A4
:10757000790A02703912757C12445222900A55E041
:10758000FAA3E0FB900A54E0F92274F6124D5F531F
:10759000F5FE53FFFE53F7FE53F77F53F4DF53FE20
:1075A000DF53F6DF53F7BF53F4BF53FEBF53F6BFAD
:1075B00053F7BF53F47F53FE7F53F67F53F7BF5308
:1075C000F3FE53FDFE538FFE53F7DF53F3FD53FDE0
:1075D000FD538FFD53F7DF53F3FB53FDFB538FFB3D
:1075E00053F7DF53F5F753FFF753F7F753F77F538D
:1075F000F3DF53FDDF538FDF53F7DF53F3BF53FD4B
:10760000BF538FBF53F7DF53F5EF53FFEF53F7EF40
:1076100053F77F53F37F53FD7F538F7F53F7DF5330
:10762000F3F753FDF7538FF753F7DF7A008A08E536
:107630000824C9F582E43409F5837401F00AEAC329
:10764000941040E97A0012785DE4F00AEAC39408E5
:1076500040F47A008A08E5081277DEE4F00AEAC30B
:10766000940640F0E49009E7F053F4EF53FEEF5333
:10767000F4F753FEF753F4FB53FEFB7F02024E7404
:1076800074F7124D5FEAFEEBFFE99009E9F0602024
:10769000538CFD438D08439A10758AF7438C04433D
:1076A0008D10439A10758AEF538DFB758AFB800C01
:1076B0007A017B009009C8E0F91241E29009EAEEF4
:1076C000F0A3EFF07F01024E747900A2814002091D
:1076D00009A2864004E9D2E6F902416C02416CC07D
:1076E00082C083124314804CC082C083758AEF75B8
:1076F0008AF79009D7E06401703A9009E7E0C394F3
:10770000065031E49009D71277D5740E12773B12E8
:1077100077A7640E701112779F50051277BB80F621
:10772000E49009DEF080051277AC40E37401900923
:10773000D71277B6D083D08202416C127D847A054D
:107740007B001245E49009E7E014F0E49009E8F0CA
:1077500022C082C083758AF7758AEF9009D8E064E9
:1077600001703A9009E7E0C394065031E49009D8DB
:107770001277D5740F12773B1277A7640F7011122E
:10778000779F50051277BB80F6E49009DEF0800504
:107790001277AC40E374019009D81277B6809590C7
:1077A00009E8E0C39405221277DDE0229009E8E0C1
:1077B00004F0C3940622F012433222E024D9F8E404
:1077C0003409F988828983A3E088828983F090094B
:1077D000E8E004F022F09009E71277DD22E024D9F6
:1077E000F582E43409F5832274F6124D5F7A02784B
:1077F000007900E824DFF582E93409F583E4F0122A
:1078000078529408E99400A2D265D03340E578001C
:107810007900E824D9F582E93409F583E06013247E
:10782000F2F582E4340EF583E0C0E012785DD0E03A
:10783000F00A1278529406E99400A2D265D033403F
:10784000D17ADF7B0912455A7A0A7B001245E4029D
:10785000767BE8240108E93400F9C3E8228A08E5C8
:107860000824DFF582E43409F5832274F4124D5FB5
:1078700074F81250757508087509007808124FE7FA
:10788000740212521BAC82AD837A007B087903121A
:1078900042F67402124FFAA2A0851882851983C09D
:1078A00082C083900F0278081251E1D083D0827891
:1078B000081250A1500302793A7030900F067808F0
:1078C0001251E185188285198378081251FF1279C7
:1078D00068124FE7740212521BAC82AD837A007BB0
:1078E0000E1242FC7402124FFA80718518828519BB
:1078F00083C082C083900F0678081251E1D083D0F4
:107900008278081250A170B3900F0278081251E1EA
:1079100085188285198378081251FF127968124FF1
:10792000E7740212521BAC82AD837A007B0E1242C6
:10793000FC7402124FFAC284802460FA8518828592
:107940001983C082C083900F0678081251E1D0835A
:10795000D08278081250A160030278BBD2847408E8
:10796000124FFA7F04024E74790312430275080223
:10797000750900780822C082C0839009CCE0A2E09B
:10798000209601B34043A2969009E7E04013C394C8
:10799000065036E49009CC1277D57403127D8080AE
:1079A000281277491277A76403701112779F500548
:1079B0001277BB80F6E49009DEF080051277AC40C8
:1079C000E374019009CC1277B69009CAE0A2E020D6
:1079D000A001B34043A2A09009E7E04013C394067E
:1079E0005036E49009CA1277D57401127D80802840
:1079F0001277491277A76401701112779F50051210
:107A000077BB80F6E49009DEF080051277AC40E3A6
:107A100074019009CA1277B69009CEE0A2E02080E6
:107A200001B34043A2809009E7E04013C39406509D
:107A300036E49009CE1277D57405127D8080281225
:107A400077491277A76405701112779F5005127756
:107A5000BB80F6E49009DEF080051277AC40E37459
:107A6000019009CE1277B69009D3E0A2E0208601FA
:107A7000B34043A2869009E7E04013C39406503612
:107A8000E49009D31277D5740A127D80802812778A
:107A9000491277A7640A701112779F50051277BBBD
:107AA00080F6E49009DEF080051277AC40E37401C3
:107AB0009009D31277B69009CFE0A2E0208101B3FC
:107AC0004043A2819009E7E04013C394065036E496
:107AD0009009CF1277D57406127D808028127749DD
:107AE0001277A76406701112779F50051277BB803A
:107AF000F6E49009DEF080051277AC40E374019063
:107B000009CF1277B69009D1E0A2E020A301B340DB
:107B100043A2A39009E7E04013C394065036E490D3
:107B200009D11277D57408127D8080281277491206
:107B300077A76408701112779F50051277BB80F603
:107B4000E49009DEF080051277AC40E374019009FF
:107B5000D11277B69009D4E0A2E020A401B340434B
:107B6000A2A49009E7E04013C394065036E49009BC
:107B7000D41277D5740B127D808028127749127742
:107B8000A7640B701112779F50051277BB80F6E443
:107B90009009DEF080051277AC40E374019009D4BF
:107BA0001277B69009D5E0A2E0208701B34043A246
:107BB000879009E7E04013C394065036E49009D556
:107BC0001277D5740C127D8080281277491277A71E
:107BD000640C701112779F50051277BB80F6E49009
:107BE00009DEF080051277AC40E374019009D512EC
:107BF00077B69009D6E0A2E0208301B34043A28388
:107C00009009E7E04013C394065036E49009D61279
:107C100077D5740D127D8080281277491277A7647A
:107C20000D701112779F50051277BB80F6E4900912
:107C3000DEF080051277AC40E374019009D612772C
:107C4000B69009D0E0A2E0208201B34043A2829026
:107C500009E7E04013C394065036E49009D0127748
:107C6000D57407127D8080281277491277A76407A0
:107C7000701112779F50051277BB80F6E49009DEF1
:107C8000F080051277AC40E374019009D01277B60A
:107C90009009CDE0A2E0209701B34043A29790095C
:107CA000E7E04013C394065036E49009CD1277D52F
:107CB0007404127D8080281277491277A7640470BB
:107CC0001112779F50051277BB80F6E49009DEF021
:107CD00080051277AC40E374019009CD1277B6901D
:107CE00009D2E0A2E0208501B34043A2859009E7D4
:107CF000E04013C394065036E49009D21277D5744D
:107D000009127D8080281277491277A764097011C3
:107D100012779F50051277BB80F6E49009DEF08061
:107D2000051277AC40E374019009D21277B690093E
:107D3000CBE0A2E0209501B34043A2959009E7E093
:107D40004013C394065036E49009CB1277D57402E1
:107D5000127D8080281277491277A7640270111271
:107D6000779F50051277BB80F6E49009DEF080051E
:107D70001277AC40E374019009CB1277B6027734E6
:107D8000127D8422F01243329009E7E004F022C011
:107D900082C083900AA6E07042900ABBE0F9E470CA
:107DA00003740269702F900ABCE07002A3E0702592
:107DB000900ABEE064017002A3E070197402900A98
:107DC000A6F0900AB3744DF0A3740F127E5974019B
:107DD000F0A3E480057404900AA6F0027F1CC08220
:107DE000C083900AA6E0706E900ABBE0F9E47003CD
:107DF000740169705B900ABC127EBAE87001E97088
:107E000025900ABEE064087002A3E07043740190FC
:107E10000AA6F0900AB3744EF0A3740F127E597440
:107E200008F0A3E4802F7401687001E97022900AC1
:107E3000BEE064047002A3E070167401900AA6F01C
:107E4000900AB37456F0A3740F127E59740480D153
:107E50007404900AA6F0027F1CF0A3E4F0900AB626
:107E600022C082C083900AA6E0704A127EB774FED8
:107E700058FA74FF59FBEA7001EB701B900ABEE0E0
:107E80007002A3E07011900ABCE0FAA3E0FBC3EA21
:107E90009402EB940040077404900AA68016EA123C
:107EA0004EB20001B57EAA7EB07EE8900F5A8004E3
:107EB000E8900F5BF08065900ABAE0F8A3E0F92241
:107EC000C082C083900AA6E07052900ABAE07002A5
:107ED000A3E07011900ABEE064017002A3E0700597
:107EE000127F6440047404802FE8124EB200010D2A
:107EF0007FF57E007F900AB3745AF0A3740F800957
:107F0000900AB3745BF0A3740FF0A3E4F0900AB688
:107F10007401F0A3E4F07401900AA6F0D083D0823B
:107F200002416CC082C083900AA6E07035900ABE00
:107F3000E07002A3E07005127F6440077404900AA9
:107F4000A6801EE8124EB20001627F4F7F577F125B
:107F50007EB7900F5C8006127EB7900F5EE8F0A3AC
:107F6000E9F080B8900ABCE0F8A3E0F9C3E8940215
:107F7000E9940022C082C083900AA6E07048900A6B
:107F8000BEE064017002A3E07005127F64400474D7
:107F900004802FE8124EB20001B77F9F7FAA7F9026
:107FA0000AB3745DF0A3740F8009900AB3745FF094
:107FB000A3740FF0A3E4F0900AB67401F0A3E4F008
:107FC0007401900AA6F0027F1C74F7124D5F7409C9
:107FD00012521BE0F8A3E0F98A828B838003ECF055
:107FE000A3E8FEE9FF74FF2E1874FF3FF9EE70015D
:107FF000EF70EB7F01024E740000000000000000F3
:10800000851A870002416CF582EB12848FA2E2226E
:1080100078081251FF02805B128932E912848F22A4
:10802000E5A4851882851983F0E5A5C0E0740112E6
:10803000521BD0E0F0E5A6C0E0740212521BD0E063
:10804000F0740312521B12806078081251E1AA08E2
:10805000AB09AC0AAD0B7404124FFA7F04024E74E4
:10806000E4F0EAA2E792AF85188285198322900A8C
:10807000DE12B01712461422900B4FE0FA900B3428
:10808000E022F0900B34E0640F22A3A3E024F5C3B8
:1080900094122212478E900B5412C60B7A147B0056
:1080A00022C082C083900ADEE07002A3E060061264
:1080B000B010124224900ADB128E337408900ADD4D
:1080C000F0900ADEE4F0A3F0900B2AF0900AE002B0
:1080D0009D5079031A1AEFFB1246D4740222EE2443
:1080E000020A0AEF3400FB8A828B831280EF22E0BF
:1080F00024FFF8A3E034FFF92274F0124D5FEAFE8A
:10810000EBFF8908741012521B12959174121252CF
:108110001BE0F50AA3E0F50B1280DE850F0D12813E
:10812000B7E50E1281BDE5081281A9900B4E1281B0
:10813000A6900B4D1281A6850B0D1281B7E50AF0B2
:1081400088098A828B83E0C395098E828F83A3A3DB
:10815000A3A312950E12CF288C828D83A3A3A3A371
:10816000A3A3A3A3E064037008EE240E12819D80F4
:1081700008EE129002EF1290BF128EA57409F075EE
:108180000AFF750BFF780A124FE71280D2124FFADE
:10819000E97007EEFAEFFB1246620282CEF582EF3B
:1081A00012EB9274012212976A1281AD22F0E82438
:1081B000FF18E934FFF922E50D888289831281AD29
:1081C000888289832274F0124D5FEAFEEBFF890BEF
:1081D0008C0E8D0F750A00A2AFE492E0F50CC2AFD1
:1081E000900AE180351282A3502D1282AE64037092
:1081F000261294EF850882850983A3A3E02405FC59
:10820000A3E03400FDEEFAEFFB124AFA1294F87480
:1082100010250AF50A150B12844D12D193E50B6057
:1082200008E5087002E50970BCE50CA2E092AFA277
:10823000AFE492E0F50CC2AF900AE1801B2402F893
:10824000E509128ECD128B0912842C129A07128422
:108250002C050A150B12844D128C327002E5096050
:10826000251282AE640270ED1282A3E50840CE12A0
:108270009509E50912829D50DC7401850E82850FF7
:1082800083F0E50B70CFE50CA2E092AF8E828F8376
:10829000E50AF0EE24FFFAEF34FFFB803112848F01
:1082A000A2E522128930E50912848FA2E622850810
:1082B00082850983A3A3128B251282BD22A3E0131A
:1082C00013543F5403221247827404124FFA7F085A
:1082D000024E7474ED124D5F74F612507589128A55
:1082E000108B0FE4851882851983F0900AE7E0C3AC
:1082F000940840057511078003E0F511E51133334B
:108300003354F8900B33FAE02A2433F50A12912AF9
:108310007001EB7003028413EA250AF8EB3400F9CC
:10832000EA240212977012CF28900B33E0FCFAC3B4
:10833000E49AFAE49400FBE82AFEE93BFF900B3153
:10834000128421780C124FE312F3F4124FFA8518BD
:1083500082851983AC82AD83A911EE24FFFAEF3434
:10836000FFFB1245FC8A0C8B0DAE0CAF0DE41284A2
:1083700032E50FC454F0C0E0900B2BE0C43333540B
:10838000C0C0E0900B2D12B98913135480FAD0E0CD
:108390004AFAD0E04A440F128432E510C454F04542
:1083A000128E828F83F0EEFA850A82850B83E0C3FA
:1083B0009A850882850983A3A3A3A3129796EEF05A
:1083C000A3EFF0E508240E12D376E508240D12D3AE
:1083D00076740912521BE4F0F50AF50B780A124F75
:1083E000E7740312521BAE82AF831246CEEEFCEF4F
:1083F000FDAA08AB091280D8124FFA851882851998
:1084000083E06009850882850983128463AA08AB2A
:108410000980047A007B00740A124FFA7F0B024E27
:1084200074E0F50CA3E0F50D750E0022A3A3A3A341
:10843000A3E08E828F8312843A22F0EE24FF1EEF97
:1084400034FFFF227F05024E741282BE22E508240B
:10845000FBF582E50934FFF58322128930E5091224
:10846000848F22A3A31284AFD2E4F022A3A3A3E0BB
:10847000FA88828983227F06024E747AE17B0A128F
:1084800041D674022212848922EE2410F582EF3440
:1084900000F583E022A2E702B26812478274042248
:1084A000EE240EF582EF12EB9222A31284AF221279
:1084B0008B29E022EE240BF582EF12848F22EE242A
:1084C0000DF582EF12848F640122E0FEA3E0FFEE3F
:1084D0002274F4124D5F74F7125075EAFEEBFF122E
:1084E000460EE9F508704CEE240E1284B760447A0B
:1084F000007909124632EA7001EB603774081252B3
:108500001B128545124EEC7508FF7509FF7808129D
:108510004FE78E828F83A3A3A3A3A3A3A3A3E0F912
:10852000740412521BAC82AD831245F67404124FD0
:10853000FA800D8E828F83A3E5081286E612461A12
:108540007409028058740212D64874FFF0A3128591
:108550005222128EE1A3A32274F1124D5FEAFEEBC8
:10856000FF7508008E828F83A3A3A3A3A3A3128009
:108570008A40037508E88E828F83A3A3A3A3A3A3D5
:10858000A3A3A3A3E0C3941040057508E880138E4D
:10859000828F83A3A3A3A3A3A3A3A3A3A3E0640F96
:1085A000600B900B07E0540870037508E88E828F0B
:1085B00083A3A3A3A3A3A3A3A3A3A3E0C0E0EE2448
:1085C0000BF582EF1298CCD0E0C39A5008E0640F0C
:1085D00060037508E8900B4DE064FF7004A3E0644D
:1085E000FF70037508EC7A237B0012421E900ADEAE
:1085F00012EE78900ADEE07002A3E060258E828F92
:1086000083A3A3A982AA83890C8A0D750E00780C16
:10861000124FE37C237D0012B01012F3FA124FFACE
:10862000800375081AA908800239FB7F07024E747F
:1086300074F7124D5FEAFEEBFF8E828F83A3A3A334
:10864000A3A3A3A3A3E0900B34129F49900B4FF078
:108650001284B4900B2F128ED9A3A3A3A3A3A3E0DB
:10866000900B2BF0F91247CA900B2BE0600CEE2414
:1086700004128E9AEE24061286907401900B2A1230
:108680008082600474018001E4900AE0F00297F5B2
:10869000FAEF3400FB79E11247102274F7124D5FB4
:1086A000EAFEEBFF8E828F83A3E0700312806E746C
:1086B0002C1298B30297F574F7124D5FEAFEEBFFA8
:1086C000900ADEE07002A3E0600D12B010900ADEA6
:1086D000E4F0A3F012422474088E828F831286E69F
:1086E000124A1C0297F5F0EEFAEFFB2274F6124DD7
:1086F0005F900B2AE06012900AE0E0700C12870C89
:10870000EA7001EB600312466202B50F900B2FE096
:10871000FB128078F91246022212848F640222C072
:1087200082C0837908029A3C74F4124D5FE9FE24FA
:1087300084F582E43456F583E493F508FA7B00125D
:1087400041B2EA7001EB601212878512CF26E48AEB
:10875000828B83A3A3A3A3F080287A027B0012411B
:10876000B2EA7001EB6017EE249AF582E43456F514
:1087700083E4938A828B83F0741AA31289CF7A00E0
:108780007B0002805BEA2508F8EB3400F98A828BD3
:108790008322E9FDEAFC74062DFAECA2E0501EEA01
:1087A00075F00A84ABF0EB6014740A2AC39BFAEBF1
:1087B000C394054004740A2AFA740B2AFAEDC39490
:1087C000134004781480027806E82AF8740928F81F
:1087D000E43400F97A0A7B00124C0EE8F902416C8D
:1087E000C082C08374FE1250758518828519831269
:1087F00088FA124EB20003D98801885B88D9888034
:1088000088900B34E0640F60181246A4E97012855A
:10881000188285198312B013900F84129A0B12528A
:1088200025900B5CE0C0E085188285198312AE9814
:10883000D0E012D65412ED3D741412D654FCA3E0CD
:10884000FD7AE37B0A1241CAE5A8FAC2AF900AE9B1
:108850001288F1792012469802F55A900B09E085AA
:108860001882851983A3701112ED3F740D12D6542E
:10887000FAA3E0FB124A1C80DF12ED3F741580BAA8
:10888000128C3C6054128C3C1412DBF81284AAC087
:10889000E085188285198312B806D0E012D65424D8
:1088A00002F812B486240112F5698882898312883D
:1088B000FA14C39409502285188285198312C18D38
:1088C000A3A3E0240AC0E085188285198312ED3E37
:1088D000D0E01288FE0402883A851882851983AA9E
:1088E00082AB831246C8028858E5A8FAC2AF900A44
:1088F000E8E004F0EAA2E792AF22EAF0A3EB12DB91
:10890000FCA3A3A3A3E022C082C0831246A4E96013
:1089100004792080027901029D51C082C0831289AE
:1089200027E0D2E0029D50EA128932EB12EB92224C
:10893000E5082410F58222C082C0831295011284BA
:10894000C470111289C3400C8A828B83A3E0F91290
:10895000469E806CEA129509EB1284BAA2E6501288
:108960008A828B83A3E0F9900F86129A0B1252250C
:10897000804E1295011284C470091289C350047488
:108980003080368A828B83A3E0641B70047422805B
:10899000288A828B83A3E0700F1295011284BA2477
:1089A0008FF582E43456800D1295011284BA249A10
:1089B000F582E43456F583E4938A828B831289CF5F
:1089C000029D51EA240FF582EB12848FA2E322F07C
:1089D000900B02E0F91241BE2274F7124D5FE9FEDE
:1089E000900AEAE07002A3E0603EEE7006128B0689
:1089F000E48014741B6E7033900AEA12978AE06464
:108A00000570EA128B06EE12B48AFB124650900AE9
:108A1000EAE0240E128C2C5003129A0F900AEAE41A
:108A2000F0A3F079101246980297F574E96E60038E
:108A3000028ACC12D8257038124ADCE96032128BD7
:108A400036402D900B56E0C0E0900AEAE024111267
:108A5000B0DED0E0F0900B45E0C0E0128B1BA3A38A
:108A6000D0E0F0900B45E004F0790112487280B834
:108A700012D825900AEA604CE0240E181818128BC0
:108A80003D900AEAE04014241112B48314F07401FA
:108A9000900BB6F0900BB0E0F980D0240F12B485A3
:108AA000C2E7128C48240DF812B4866403700C904F
:108AB0000AEAE0241012B483D2E2F0128B0E1252B2
:108AC00025028A0E128B0974E9028A0774E16E701E
:108AD00014124ADCE97003028A03128B3650030237
:108AE0008A03028A43741C6E6003028A03900AEAB6
:108AF00012B013900F8C129A0B125225900AEAE4CE
:108B0000F0A3F0028A28900AEA128B25A322900A89
:108B1000EA12B017900F82128B2522900AEA12B047
:108B200023128B2522128B2922128B2D22E0F8A3EF
:108B3000E0F583888222900AEAE0240EF812D83009
:108B4000A2E22274F4124D5F750A00750B00A2AF09
:108B5000E492E0FEC2AF900AEAE07002A3E060088F
:108B6000EEA2E092AF028C16900F8A129A0B12526C
:108B700025E94410FA900AE1800985080A85090B65
:108B800012844D128C327002E50960D412845A5A54
:108B90006A70E7780A124FE7AC08AD0912847B12BD
:108BA0004FFA900AEAE508F0A3E509128C48128C06
:108BB0002A4066900AE8E014F0EEA2E092AF900A34
:108BC000EAE0240E181812B00AE8FEE9FF8E828F40
:108BD00083E0FA900AEAE0F8128C42F9124638E98A
:108BE000900AE5F0A3E412A472E0A2E75018900AFC
:108BF000EAE02412128C1E1247DC900AEAE02413E9
:108C0000128C1E1247D0900AEA128C23A2E1B3E420
:108C100092E0F912487202805B900AE7809812D8BD
:108C20002FF922E0240F12D82F22241012D82FA2BD
:108C3000E722E0F508A3E0F509E50822851882851A
:108C4000198312C191A3E022F0900AEAE02274F79E
:108C5000124D5FEAFEEBFF1246C2129508EF128931
:108C6000C940091284BE7004790280027905EEFCC5
:108C7000EFFD7AE17B0A1241DCE9602EEEFAEFFBB0
:108C8000900F88129A0B125225EE129002EF12806A
:108C90000A40081288E912465C8014EEFAEFFB9055
:108CA0000F80129A0B125225800574F1128CB202B9
:108CB00097F58E828F83A31286E612465022C082D9
:108CC000C08312465C029D5174F7124D5FEAFEEBC1
:108CD000FF7900900B07E05402700DEE242FF5820F
:108CE000EF12800A500279E8900B07E05460700C94
:108CF000EE242F1284B7A2E1500279E88E828F838E
:108D0000A3A3A3A3E0C39475400279E8EE242D1237
:108D100084B77010EE242A1284B7700879F51246D1
:108D20009E0297F5E970F7EE240D12819DF0EE2476
:108D30002F1284B7C0E01284A0D0E0F0EE243012ED
:108D400084B7C0E0EE24121284A3D0E012979EC034
:108D5000E0EE24131284A3D0E0F0EE242B1284A3BF
:108D6000124EECEE2422FCEF3400FDEE242D128492
:108D7000B7F91280D8124FFAE970A6EEFAEFFB129B
:108D80004662809DC082C083740D8A828B83F012FC
:108D90004A1C029D51C082C083E48A828B83F0A367
:108DA000F0EA242F1280074011900AE8E0C39402F1
:108DB000401179F112469E029D51900AE7E0C3945A
:108DC0000250EF12913680EF74F3124D5F890CEA76
:108DD000247CF582E43456F583E493244AFE890A20
:108DE000250AFAE43400FB1241B2EA7001EB601587
:108DF0008A828B83A3A3A3A3E50CF08E0812878538
:108E000012CF2680047A007B00028444C082C08393
:108E1000E4900B00F0900B01F0900AF4128E337482
:108E200002900AF6F0900AFD128E337401900AFF48
:108E3000029D507498F0A37446F02274F0124D5FB6
:108E400012A0A71251E17808790C124C6F78081221
:108E50004FDF7AF77B0A0282C674F4124D5F74CE3C
:108E6000125075900B34E0640F6007742E129277E5
:108E700080237AEE7B0A128093124C1688088909A7
:108E8000750A00750B007808124FDF7AEE7B0A1224
:108E9000849A124FFA7432028058FAEF3400FB7948
:108EA0005012471022F0EE240D12EB8F22124FFACF
:108EB0000297F57402028EADAA82AB831241AC8593
:108EC0001882851983AA82AB83124A1C223400F9C6
:108ED000E8FAE9FB8A828B8322128EDD22128EE170
:108EE00022F08E828F83A3A3A3A32274F7124D5F77
:108EF000E9FA7B00900B02E0F91241E20297F57467
:108F0000F4124D5F74F0125075E9FE8A828B83E093
:108F100024E1F582E43457F583E493C0E074011250
:108F2000521BD0E0F0640B700DEE8A828B83A3F0AD
:108F30001246F8028FFCE07003028FFC640C6003A1
:108F4000028FE9740412521B12EE78EA242EF58285
:108F5000EB1284BAC0E0740312521BD0E012950EDB
:108F6000A3A3A3A3A378081251E1740612521B789D
:108F7000081251FF8A828B8312D158740A12521B35
:108F800012CF28129001EB1284BAA2E45003E480BD
:108F90000D12D36F1284BAFC900B56E0C39C851857
:108FA00082851983F0E0C0E0740C12521BD0E0F00F
:108FB000EA2414F582EB1284BAC0E0740D12521B3D
:108FC000D0E0F0EA2415F582EB1284BAC0E0740E0A
:108FD00012521BD0E0F0EA2416F582EB1284BAC0DC
:108FE000E0740F12521BD0E0F0740212521BEEF02C
:108FF000740112521BAA82AB83124A1C74100280A5
:1090000058EA240EF58222C082C083900B09E064E6
:10901000037004790180027900029D5174F6124DAB
:109020005F900B091290C4248EF582E9340FF5830A
:1090300012D3A5E0C2E7F0C333FCE82CF582E912B5
:1090400084A6A3E493FEC333FCE433FDEC248EF545
:1090500082ED340FF583E07002A3E06005EE900B23
:1090600009F08A828B83E0C333FCE433FDE82CF5FE
:1090700082E93DF583E493F508C4540FC333241803
:10908000F582E4340BF583129C987001E970118A23
:10909000828B83E0C3940B5020791812469E80196E
:1090A000740F5508C333FCE82C1290BC93C0E074D5
:1090B0000193F583D08212522502B50FF582E91291
:1090C000EB92E422E0C333F8E433F9E82274F012BF
:1090D0004D5F74FE125075890FEAFEEBFF12913F4F
:1090E00012912A7001EB60328A828B83E50FF0E4E3
:1090F000A3F08E0C8F0DF50E780C124FE3850F0A3E
:10910000E50A12914CEA24020A0AEB12D383124FA9
:10911000FAAA08AB09129136800B8518828519834B
:10912000E50F12915B74020282CBFA7B001241B20E
:109130008A088B09EA22900B02E0F91241BE22E96B
:1091400024CBF582E43457F583E4932224D6F582C8
:10915000E43457F583E493FC7D0022F0791AAA8267
:10916000AB8312469E22C082C083E9900B02029D0F
:109170005074F6124D5F74FE125075EAFEEBFFEE6E
:1091800054207031803CE5A8FCC2AF900AE9E0149D
:1091900012A9518A828B8312925B900B0512EE7892
:1091A0001246AA851882851983E0641560077A053E
:1091B0007B0B1246C87AE37B0A1241D0EA7001EBBE
:1091C00070C474805FF9E47001E970058011129237
:1091D00064900B02E0F91241C4EA7001EB70EFEE0B
:1091E00054106005742D129277EEA2E0500574249D
:1091F000129277EE540260057425129277EE5404B1
:1092000060057426129277EE540860057428129255
:1092100077EE5440600C740112521BE4F0742C126F
:109220009277EE5480600C740112521BE4F0742F9C
:10923000129277900B03E07002A3E06017E5A8FCA0
:10924000C2AF900B0312B013900B03E4F0A312A96A
:10925000511292647A007B0002B50AE0851882857B
:109260001983F022900B05EAF0A3EBF01246AA7ADC
:10927000057B0B1246C822851882851983F0AA82C5
:10928000AB831246AA22C082C083900B0512A3F2C0
:10929000687002EB697007900B05E4F0A3F0029D83
:1092A0005174F7124D5FA2AFE492E0F508C2AF8AA5
:1092B000828B83E07002A3E060338A828B8312CBBF
:1092C0007DEC24FBF8ED34FFF9900B0512A810ECAF
:1092D0006E7002ED6F7007900B05E4F0A3F08A82C8
:1092E0008B83E4F0A3F0E8FAE9FB12422402B264B3
:1092F000C082C083900B4DC3E094FEA3E094FF4076
:1093000004790380027902029D5174EA124D5F8A4A
:10931000088B098C108D11741612521B12959175C1
:109320000A008C828D83A3A3A3A3A3A3A3A3E0F528
:1093300012E9A2E75008750CFF750DFF800A900B2B
:1093400049E0F50CA3E0F50DE9C2E7F51312900131
:10935000EB12829DEA500B129509EB1284A6740859
:109360008007129509EB1290BF129514A2E2EA5001
:1093700007128928748080051289287410129514A8
:10938000A2E4500812D36F1290BF800E900B56E0EB
:10939000C0E012D36F1284A6D0E0129514A2E05060
:1093A00003750A208A828B83A3A3E024FFFEA3E037
:1093B00034FFFF1295011284BAC39402E0400614F0
:1093C0001284327403450AF50A8513147515007466
:1093D0000E7814125108E515F50B7402651370111F
:1093E000900B4E128431900B4D12E4611294F88070
:1093F0001A7403651370101294EF7C5D7D0BEEFA06
:10940000EFFB124AFA80E5E5136026E5126014E5E9
:109410000E650C7004E50F650D70087440450AF583
:109420000A800E8E828F83E50D12951DE50C128445
:109430003685120C750D00740A780C125108E50D72
:10944000450BF50B74026512701785108285118328
:1094500012843085108285118312E4611294F880A1
:109460001A7403651270101294EFAC10AD11EEFA7D
:10947000EFFB124AFA80E5E512600E8E828F83E5DB
:109480000F12951DE50E128436EEF8EFF9E824FF71
:109490001EE934FFFFE508240DF582E5091284BAC0
:1094A0007005900B398003900B45E0FA04F0EA88D0
:1094B00082898312A472E50B12951DE50AF0E50876
:1094C0002404F8E5093400F9E5082402FAE5093432
:1094D00000FBEEFC8A828B8312976AFDE02DC39C11
:1094E00012950EEEF0A3EFF079007F0E024E74EEAF
:1094F00024F9FEEF34FFFF22EE24FF1EEF34FFFFBE
:1095000022EA240DF582EB22EE240FF58222F08A66
:10951000828B8322F0129001EB12848F2212843A04
:109520008E828F832274EE124D5F890A8A0C8C081A
:109530008D098B0B741212521B129591AA0B1246B5
:10954000328A108B11A810A911E8FEE9FFE870011A
:10955000E960391284A0E50B128EA5E50AF0780EB9
:10956000124FE7AC08AD09A90C1280D8124FFAE9E6
:10957000701AE50A124EB2070185957F957F951204
:109580008485D2E5F0EEFAEFFB1246627F0A024EC6
:1095900074E0F50EA3E0F50F2274EE124D5F8A0819
:1095A0008B09ECFEEDFF74058A828B8312979E8AED
:1095B000828B83A3A3F0EA2403129770E0F510A333
:1095C000E0F511EE24241284A3780C1251E1E51089
:1095D0002411F582E5111284A612EBA012C5F2AA9D
:1095E00010AB11124AEE850A82850B831298C3FADA
:1095F000A3E0FB88828983A3A3A3A3A3A3A3A3A31C
:1096000012EE78EE242E1284B7C0E0E8128932E917
:109610001284A6D0E012979112B0DCE41297912444
:109620000E12AE927C0BFDF9850A82850B83E02435
:109630001612F5691241AC8E828F83A3A3A3A3A354
:10964000A3E0C0E0850A82850B8312978AD0E012DE
:1096500097A6FAA3E0FB850A82850B83129C9824C7
:109660000BFCE93400FD8A828B83E08C828D83F0D1
:10967000A3E412BB89E0F50B8C828D83E0F0A3E0BC
:10968000450B1298BEFCA30A0AAB83A2E7E492E062
:10969000C0E0E8129509E91284A6D0E0F074075CF6
:1096A000600478018002780075F00374075CA428D8
:1096B000F8EA28FAEB3400FBE5082405F8E509127E
:1096C000878A12976A12BB89850882850983A3A3BA
:1096D000A3A3A3A3EA12D19BF50CF50A7407550ABC
:1096E000C333FC7470550CC430E30244F0F50A3304
:1096F00095E0F50B7403780A125108E50A2CF8E599
:109700000B3400F9EA28F8EB39F9850882850983DA
:1097100012CF1F8E828F8312977D12F567C3EA984E
:10972000EB9940278E828F83A3A3E0F8850882857A
:109730000983A3A3A3A3A312977DA3A3E0C39A289D
:10974000850882850983A3A3A38016E48508828502
:109750000983A3A3A3A3A3A3A3A3F08508828509D8
:1097600083A3A3A3A3A3F002958CE088828983221C
:10977000F50AEB3400F50B850A82F58322A3A3A337
:10978000A3E0FA8E828F83A3A322E0240D12C6BF2A
:1097900022129796E022F0850A82850B8322F0EE52
:1097A000243112848C2212CF1AA3E02202416CC011
:1097B00082C083791912469E029D5174F7124D5F43
:1097C000EAFEEBFF900B03E07002A3E06010900B49
:1097D0000312B0131246EC7A037B0B1246C8EEFA62
:1097E000EFFB1246C2900B03EEF0A3EFF0800612DF
:1097F000CAF11244BE7F01024E7474F7124D5F74B9
:10980000DE125075EAFEEBFF8E828F83E0124F1955
:10981000011E1F5D9803032198055D981821986625
:1098200098741612521BE412989B740B12521BAAC6
:1098300082AB83124AFA741312521B7403129A20D9
:10984000740212521B12CF28740A12521B74021295
:109850009893741412521BE8F0A3E9801074161246
:10986000521B740180C1741612521B7402F0740BE7
:1098700085188285198312CF16E0C0E07401125258
:109880001BD0E01298A9741712521B128EB87422C2
:10989000028EADF0900B4912C60B22F01298A02256
:1098A000EE2417FCEF3400FD22F07C0B7D007900E4
:1098B0002274298E828F831286E61246AA2212BB58
:1098C00091E02212A531242A12848C2212848FFA6C
:1098D0002274F6124D5F74FE125075E9FEA2AFE4D9
:1098E00092E0FFC2AFEE601C9057FA7C2C7D0B74A7
:1098F0003C124F431247C4E9900B45F01247C4E9AC
:10990000900B39F0900FA0E0701512484EE4900BC8
:109910009BF0900BA9F012DBC61247E81247F453F4
:10992000A7EF1247A012486C129A0F900B2BE0F988
:109930001247CA129C9D129A20E8906174F0E912B5
:10994000B37C750800E508C333F8E433F91299FCD9
:10995000E07002A3E060091299FC129A0B125225E2
:109960000508E508C3940740DC900B03E07002A3F0
:10997000E060077A037B0B1246C8E4900B09F09075
:109980000A4EE07002A3E0601E800D8518828519E2
:1099900083AA82AB831246C8900B0212DBD712CF88
:1099A00028E87001E970E4E4900B68F080077AE140
:1099B0007B0A129A28900AE1E07002A3E070EF900F
:1099C0000AE3E07002A3E060097AE37B0A129A28B6
:1099D00080ED900AE1E4F0A3F0900AE7F0900AE845
:1099E000F0900AE9F0900B2BF07A4C7B0B79521235
:1099F0004710EFA2E092AF790002B50AE8240AF519
:109A000082E9340BF583228A828B83128B25229084
:109A10000B5CE0F91247DC900B5BE0F91247D022B7
:109A2000F0900B4D12C60B221241D0851882851979
:109A300083EAF0A3EB12D6F91246C8221246B0020E
:109A40009D51F0900B07E4F0A3F01247BE029D5128
:109A5000E9FA74C02AC3941E500674C02AF9800E15
:109A600074202AC394065004743E80F07924024185
:109A70006C74F3124D5FEAFEEBFF124704E9F50840
:109A800074246508700479F48046E5A8F50CC2AF2B
:109A900075090074027808125108E5082436FAE5C1
:109AA000093458FB8A828B83E493242CF508E43430
:109AB0000BF509750A007808124FE38A828B83A39D
:109AC000E49312F3F3124FFAE50CA2E792AF790098
:109AD00002844474F1124D5F8908EAFEEBFF74457D
:109AE0006508700B900B31EEF0A3EFF0029C6F1243
:109AF0004704E9FA8A0974246A700579F4029C71B2
:109B0000890A750B007402780A125108129C83703E
:109B100014890A750B007402780A125108129C7499
:109B20007003029BB2890A750B007402780A125105
:109B300008E50A2436FAE50B3458FB8A828B83A3A6
:109B4000A3E493FC8A828B83A3A3A3E4936C7005A4
:109B500079FB029C7174586508701B8E828F83E0BC
:109B60002471F8A3E034FFF9C3E89422E994644037
:109B70000579E8029C718E828F83E0C0E085090A36
:109B8000750B007402780A125108129C83FAD0E017
:109B9000C39A40DD85090A750B007402780A1251D8
:109BA00008129C74C0E08E828F83E0FAD0E0C39AE2
:109BB00040BFE5A8F50AC2AF85090C750D00740217
:109BC000780C125108E50C2436F8E50D3458F9E804
:109BD000FAE9FB8E0C8F0D750E00780C124FE38A9C
:109BE000828B83A3E493FC7D008A828B83E493249D
:109BF0002CFAE4340B12F3F9124FFAE50AA2E792B9
:109C0000AFE508124F190007501F9C52359C532591
:109C10009CE0609CE1479CE2519CE5679C6F9C1234
:109C20009C9D029AEB900B4D129C98906174F0E908
:109C300090617580ED900B4CE0790260051248420E
:109C4000802D1248488028900B5CE0F91247DC8098
:109C50001E79087C5D7D0B7A6A7B611248F6800F65
:109C6000900B5BE0F404F0900B5BE0F91247D079C5
:109C70000002862BE50A2439F582E50B3458F5837A
:109C8000E49322E50A2438F582E50B3458F583E4A1
:109C900093228E828F83A3A312C60BE822900B49D6
:109CA00012C60BE8906172F0E99061732202416C78
:109CB00074F7124D5FE9FE900B68E06E7004790056
:109CC0008034E0702F900B09E0600464027025A2DC
:109CD000AFE492E0FFC2AF900B9AE07012900B9C41
:109CE000E0700C900BAFE07006900BAEE0600AEFF6
:109CF000A2E092AF79E20297F5124866EE900FA0CB
:109D0000F0EFA2E092AF5394FEE594A2E240FA7421
:109D1000016E60079061A5E0C2E2F0EE900B68F082
:109D2000809CC082C083900B68E0600812486CE49D
:109D3000900B68F0801BC082C083900B1874ECF00D
:109D4000A37457029A42F0900B07E04402F0A3E09C
:109D5000F0D083D08202416CC082C083900B1A7411
:109D6000C6F0A37458F0900B1E74E0F0A37458F082
:109D7000900B2074FCF0A37458129D93F0A3E01292
:109D80009D88F012473480C9F0900B1C7406F0A334
:109D9000745922F0900B0A7486F0A37446F0900B6D
:109DA00007E0440122C082C083900B2274D0F0A34C
:109DB0007458F0900B2474D4F0A37458129DC18091
:109DC00085F0900F967469F0A37457F0900B0C74A3
:109DD000F0F0A374452202416C74F4124D5F7407D5
:109DE0008A828B83129E2E12BB83A3A3129E2EA364
:109DF000A312BB83A3A3A3129E38A3A37808125176
:109E0000E18A828B83A3A3A3A378081251FFE48A7B
:109E1000828B83A3A3A3A3A3A3A3A3F0EC2415F590
:109E200082ED1284A612D3A512CF1F02805B129E70
:109E300038A3A3A3A3A3A322F08C828D832274F45E
:109E4000124D5FEAFEEBFFE4900B6A12C1BAC394B5
:109E500004400674E8900B6AF08E828F83A3A3A35C
:109E6000A3A3A3A3E0C3940F40158E828F83A3A363
:109E7000A3A3A3A3E06403601574E8900B6AF08EBB
:109E8000828F83A3A3A3A3A3A3E06403700E900B0C
:109E900007E0A2E0400674E8900B6AF0EEFCEFFDEC
:109EA0007A697B0B1247408E828F83A3A3780812B6
:109EB00051E1740A780812502E900B7D78081251E7
:109EC000FF8E828F83A3A3A3A3A3A3A3E0900B8100
:109ED000129F49900B82F0740A900B83F0900B5CF8
:109EE000E0900B84F0900B7A128E337404900B7C0C
:109EF000F0900B6AE07041900B6BE0600674EA90A2
:109F00000B6AF0900B6BE0FA70077401900B9B806A
:109F10001874036A7004740380F27402900B9BF04F
:109F200074FF906172F0906173F074268E828F835B
:109F3000F07904124842800774298E828F83F0EEF4
:109F4000FAEFFB1246AA02805B128552A3A3A3E09C
:109F50002274F4124D5F74F7125075EAFEEBFF9015
:109F60000B6BE0702E900B83E0640A60261247F4BE
:109F7000E9C0E0900B83E0F8900B72E02812B00982
:109F800074F528F58274FF39F583D0E0F0900B71F9
:109F9000E004F0900B7D78081251E174017808120A
:109FA000502E900B7D78081251FF900B83E004F047
:109FB000E508A2E04006E0C3941D40D7E0641D60C0
:109FC0005B7A837B0B79E1124710900B6BE06004A6
:109FD00064027009EEFAEFFB1247528042740812D5
:109FE000521B740212D64474FFF0A3F0900B6BE086
:109FF0006401700679087A80800479077A8375088D
:10A00000FF7509FF7808124FE77B00740212521B9C
:10A01000AC82AD8312A022124FFA80031298B102D3
:10A0200085401246DA74022274F0124D5F75080101
:10A03000750900750A00750B00900B83E078081213
:10A040004FA578081251B1900B6D780812514190CC
:10A050000B6BE06403700F12A0A71251E17808792E
:10A060000C124C6F8035750801750900750A007572
:10A070000B00900B81E07808124FA5900EEA78084B
:10A0800012517A900FBB780C1251E17808790C12BA
:10A090004C6F900B6BE070031247EE7808124FDFA5
:10A0A0007A747B0B0282C6900B5712A0B9750A0016
:10A0B000750B00900FBB780C22E0F50875090022A3
:10A0C00074F1124D5F74D4125075EAFEEBFF900BE1
:10A0D0006BE064026008E06401600302A1C8E490E0
:10A0E0000B6AF0740B12521BA882A98374031252DC
:10A0F0001B12A1D0900B82E0700302A192900B7111
:10A10000E0C0E0900B82E0FAD0E0C39A400302A1E5
:10A1100092900B7212D193900B71E0F50A80338507
:10A12000088285098312D158741412521BE068709A
:10A1300003A3E0696013740B12521BAC82AD83AAB7
:10A1400008AB09124AE8E96013150AE50824211250
:10A15000E545E50A70C9900B71E07036740B125238
:10A160001BA982AA83890C8A0D750E00780C124FE8
:10A17000E37C217D00900B71E08CF0A4F8A9F0E560
:10A180000828FAE5093912F3F9124FFA900B71E039
:10A1900004F0900B2EE0600E740812521BE0700663
:10A1A000900B82E0700D851882851983AA82AB839B
:10A1B000124A1C900B82E0600F900B71E0FA900B3A
:10A1C00082E06A70031298B1742C124FFA02862B47
:10A1D000E8F0A3E9F0EEFCEFFD851882851983AA6B
:10A1E00082AB831246E022C082C083900B6AE06497
:10A1F000E860267A747B0B12478E1247E8790412C6
:10A200004848900B6BE064037006900B6AE06009AD
:10A210007A847B0B79E11247107A697B0B028D8F70
:10A22000C082C08374F5125075EAFCEBFD8518827C
:10A23000851983AA82AB83124740740112521B74A2
:10A24000FC12A248740B800712D6F9124A1C221283
:10A250004FFA029D51C082C0837907029A3C74F084
:10A26000124D5F900B89E4F0A3F0900B85E0700233
:10A27000A3E06037900B8512B01FC082C083900F9F
:10A280009878081251E1D083D08278081250CB50D0
:10A290001A12A36A12A37D1250CB500612A37D128C
:10A2A00051FF900B8512A37612CF28900B87E07098
:10A2B00002A3E0900B896030E07002A3E0601E9082
:10A2C0000B8712B01FC082C083900B8912A380122B
:10A2D00051E1D083D08278081250CB5012900B8776
:10A2E00012A37612CF288007E07002A3E0607512F7
:10A2F000B01CC082C083900F9878081251E1D083BF
:10A30000D08278081250CB505B900B8912A3801238
:10A3100051E1A2AFE492E0FEC2AF900B9178081237
:10A3200051FF12A6747808790C1251D150087402AA
:10A33000900B95F0801C900EE678081250A17004E6
:10A34000740380027405900B95F0900B8D780812C1
:10A3500051E1AA08AB09AC0AAD0B1248E4EEA2E049
:10A3600092AF80031247B20282CE1247AC8A088BAA
:10A37000098C0A8D0B2212C60B900B8922900B853B
:10A3800012B02378082274F0124D5F8A088B098C72
:10A390000A8D0B741012521B804C8A828B83A3A3EC
:10A3A0007808125154900B8912A3F2687002EB697D
:10A3B00070308A828B83A3A3C082C083900EE6781C
:10A3C0000C1251E1D083D082780C1250CB501390F4
:10A3D0000EE6780C1251E18A828B83A3A3780C12CB
:10A3E00051FF8A828B8312B013EA7001EB70AB02CB
:10A3F00082CE12C60BEA2274F0124D5FEAFEEBFF2A
:10A40000A2AFE492E0F50CC2AFECFAEDFB8C828DCA
:10A41000838008AA0EAB0F8A828B83129591E50E7A
:10A420007002E50F60228E828F83A3A3C082C08357
:10A43000850E82850F83A3A378081251E1D083D0C3
:10A440008278081250CB50CB8A828B83EEF0A3EF38
:10A4500012A472E50EF0A3E50F129E3812A52D6826
:10A460007002EF697003124770E50CA2E092AF0230
:10A4700082CE12A47622F08E828F8322EEFAEFFB38
:10A4800012477C0282CE12A59B7808790C2274F0C8
:10A49000124D5FEAFEEBFF741012521B7808125146
:10A4A000E112A48612511B8E828F83A3A378081217
:10A4B00051FF7C857D0B80C474F7124D5FECF8ED85
:10A4C000F98C828D838004A882A98312CB7D8C8233
:10A4D0008D83E5827002E5836014EA65827003EB88
:10A4E000658370E312B01312EE7479018002790073
:10A4F0000297F574F7124D5FEAFEEBFFA2AFE4920C
:10A50000E0F508C2AF7C857D0B124788E9700B7CB3
:10A51000877D0BEEFAEFFB124788900B8912A52D71
:10A52000687002EF69700312477002B26412A531BD
:10A5300022E0F8A3E0F9EE2274F0124D5F900B8553
:10A54000E07002A3E0700A900B87E07002A3E06065
:10A550003BE5A8FEC2AF900B9178081251E112A51D
:10A5600097EEA2E792AF900EEA780C12517A780833
:10A57000790C1251D150117808790C1250F4AA08B4
:10A58000AB09AC0AAD0B800C7A0180027A007B002B
:10A590007C007D000282CE12A59B221247AC8A0C61
:10A5A0008B0D8C0E8D0F22C082C083900B8CE064CB
:10A5B00001700479FE800279FF029D5174F4124DFE
:10A5C0005F7401900B95F0900EE678081251E1AAA5
:10A5D00008AB09AC0AAD0B1248DE900FBF78081229
:10A5E00051E1AA08AB09AC0AAD0B1247A675A1EF61
:10A5F000439401E594A2E250FA43A71002805B74F1
:10A60000F4124D5F8A088B098C0A8D0BE5A8FEC2F7
:10A61000AF900B8D78081251FF1248E4EEA2E7923A
:10A62000AF02805B74F0124D5FE5A8FEC2AF12BAB4
:10A6300049EEA2E792AF900B8D780C1251E1780CA5
:10A6400079081251D140087A007B007C007D00021D
:10A6500082CE74F4124D5FE5A8FEC2AF7401900B78
:10A6600095F0900B8D78081251E1AA08AB09AC0A5D
:10A67000AD0B80A51248D28A0C8B0D8C0E8D0F224B
:10A680007F0C024E7474F0124D5FA2AFE492E0F5BD
:10A6900008C2AF900B95E0F509A2E0400302A7695C
:10A6A000900EE6780C1251E1AA0CAB0DAC0EAD0F7A
:10A6B0001248DEA2AFE492E0F50AC2AF900B871217
:10A6C000A810900B85124EEC900F98780C1251E167
:10A6D000780C1251A0AA0CAB0DAC0EAD0F12477640
:10A6E0007402124FFA80378E828F83A3A3C082C078
:10A6F00083900F98780C1251E1D083D082780C129D
:10A7000050CB4013900F98780C1251E18E828F83BA
:10A71000A3A3780C1250E08E828F8312A810EE70E3
:10A7200001EF70C3900F98C082900F9C780C12516B
:10A73000E175830FD082780C1250A16023900F9C9A
:10A74000780C1251E1900F98780C1251FF900F98ED
:10A75000780C1251E1AA0CAB0DAC0EAD0F1247A64E
:10A76000124770E50AA2E092AFE509A2E1506B74CE
:10A7700001900B95F0900B8D780C1251E1AA0CAB67
:10A780000DAC0EAD0F1248E4E508A2E092AF900BBD
:10A7900089E07002A3E06067900B89E07002A3E09B
:10A7A000605D12A36A12B01C780C1251E1780C792A
:10A7B000081251D14049900B891284CAFAEFFB125A
:10A7C000A802A3A3A3A3E0F98E828F83A3A3A3A3CC
:10A7D000A3A3129A0B12522580BE74056509701945
:10A7E0007402900B95F0900B91780C1251E1AA0C29
:10A7F000AB0DAC0EAD0F1248E4E508A2E092AF023B
:10A8000082CE12478E8E828F83A3A3A3A322A3A3FB
:10A81000E0FEA3E0FF22C082C0831248C07C00ECAF
:10A82000C333F8E433F9E82412F582E93459F583A7
:10A83000E493FA740193FB12A89212EE780CECC325
:10A84000941040DB740B900B98F0900B97F07432DF
:10A85000900B99F0900B96F0E4900BAEF0900BAD4E
:10A86000F0900B9BF0900BA9F0900B9FF0A3F09051
:10A870000B9A12AAE712B108900BAAF0900BABF05A
:10A88000900BACF0900BAFF0900BB6F01247A0021B
:10A890009D51E812A897222460F582E9340FF583D0
:10A8A0002274F355B44404F5B4A9BD02416CC082CE
:10A8B000C083906180E0FAE96004D2F08002C2F0C7
:10A8C000A2F0E492E0C333C0E074FD5AFAD0E04A4B
:10A8D000029D5074F7124D5FE9FE907803E0649595
:10A8E000900BCF700FE0C4540FC3332494F582E46F
:10A8F0003459800DE0C4540FC333249AF582E434F4
:10A9000059F583E493F8740193F988828983E49379
:10A91000C39EA2D265D0334013A3E493FAEEC39A48
:10A92000A2D265D033500888828983A3E493FEE5E0
:10A93000A8FCC2AF88828983E493C39E2402FAE80C
:10A940002A1290BC93900B9912A9511247D60297E4
:10A95000F5F0ECA2E792AF22C082C083A2AFE492EE
:10A96000E0FBC2AF900B99E0FA900B96E06A601A98
:10A97000900B9CE07014900BAFE0A2E7400C900BA2
:10A9800099E0900B96F0906190F0EB8001EAA2E0E4
:10A9900092AF029D5174F7124D5FE9FEA2AFE492AF
:10A9A000E0FFC2AFEE900B98F0900BAFE070031297
:10A9B00047E2EF02B266C082C083A2AFE492E0FB3E
:10A9C000C2AF900B98E0FA900B97E06A6026900B6C
:10A9D00098E0900B97F0EBA2E092AF12486675F00A
:10A9E00005900B97E0A424D490618FF012480012D8
:10A9F00048548005EBA2E092AF029D51C082C08313
:10AA0000E4900B9BF012B36C029D50C082C0837423
:10AA100080900BB8F043A701029D51C082C08353C0
:10AA2000A7FE12AEA8900BB8FAE02A24B7F9124795
:10AA3000FA029D51E9FCC394AFA2D265D033500411
:10AA40007CAF800DECC3940BA2D265D03340027C66
:10AA50000AECF83395E0F9745128F8E439F9E8750F
:10AA6000F0FFA4F8AAF075F0FFE9A42AF97A5B02D6
:10AA700087D6C082C0837401900BABF0900BAAE024
:10AA80007008124806E4900BABF0029D51C082C0E2
:10AA9000839061A412E7107405906194F075E1ED64
:10AAA00075E1EDE5A8C2AF759B0075E9FBA2E792E1
:10AAB000AF900B9FE07002A3E060077A9F7B0B12C0
:10AAC00046C8900B9FE4F0A312AAE7F0900B9AE01F
:10AAD0007006900B9CE0600CE4900B9AF0900B9C3D
:10AAE000F0124830029D5112AAEB22F0900B9D7497
:10AAF0000CF0A374482274F4124D5F74FE1250756A
:10AB00007481900B9AF0900BADE0600D906193E032
:10AB1000A2E74010E0A2E6400BE4900B9AF0124846
:10AB20003002AE7F9061E4E070179061A4E0A2E48F
:10AB3000500FE0C2E4F0E0A2E350031248BA12481A
:10AB40008A12B102900B9BE0900BA8F079047AA1D5
:10AB50007B0B1248FC900BA1E0547F24FD900BA5C9
:10AB6000F0900BB7E07020900BA5E0C3947D500BE4
:10AB7000900BA2E05407C39404400C75E1ED75E11D
:10AB8000ED12482A02AE7F900BA2E05407640260E7
:10AB90000302AC5E900BA9E0600302AC5E79028513
:10ABA0001882851983AA82AB831248FCA2AFE49273
:10ABB000E0FFC2AF900BAFE06486600302AC5612B8
:10ABC000AEA8851882851983FAE02A24B7FE74019D
:10ABD00012521BE0547FF508EEF91247FAE9C0E083
:10ABE000900AEAE0241412B0DED0E0128C4812B0D1
:10ABF000DCE508128C48241612B0E2F0EFA2E092D5
:10AC0000AF740112521BE0A2E75046900BA2E05431
:10AC100010FE900BA4E0FFA2AFE492E0F508C2AFF3
:10AC2000900BAFE0648670257487F01248B4E50895
:10AC3000A2E092AF900BB4E06F700EEE6007791B4C
:10AC40001248968016790080F779E980F3E508804C
:10AC5000061248908005EFA2E092AF02AB81900B04
:10AC6000AFE064867003124890900BA8E0602490D7
:10AC70000BA9E0701E900BA8E06401700302AD32D6
:10AC8000E06402600302AD1D900BA2E05407600374
:10AC900002AD32900BA3E0FA1313543F5403F50BAB
:10ACA000EAC413135403F50A900BB7E07012740151
:10ACB000650A700302AB7B7401650B700302AB7B0A
:10ACC000850A0812AE84C0E0850B0812AE84FAD063
:10ACD000E02AFEE50A600A900BA2E0A2E650021EFE
:10ACE0001E900BA5E0FA8E087402250812EB6F4047
:10ACF00041E0C39E24FE900BA7F0900AE9E0C394C4
:10AD0000025035900BA7E0F8743228FAE43400FBC7
:10AD10001241B28A088B09A808A909801FE06403C0
:10AD2000600302AC93900BA2E0540764037003022B
:10AD3000AC9312483602AE7F78007900900B9F12D8
:10AD4000B10F7002A3E0700575E1E880E57F009027
:10AD50000BA9E0700A900BA2E05420900B9CF0909D
:10AD60000B9CE06068A2AFE492E0F508C2AF900BE4
:10AD7000A2E0540764037039900B07E05402601995
:10AD8000900AE7E07021900AEAE07002A3E060090F
:10AD9000900AEAE0128C2A400E900B8BE0601212AF
:10ADA000479AE964FE700A7F0490618AE0D2E280EB
:10ADB0000690618AE0C2E212B3637591FEA2E79247
:10ADC000AF9061A412DBC9E508A2E092AF900B9F9F
:10ADD000E012B0E712CF26900BA7E0C0E0900B9FE7
:10ADE00012B01FA3A3D0E012B113241A12B0DEE5F3
:10ADF0000A12B113242312B0DEE50BF012B7FA9059
:10AE00000B9FE0242412B0DE78081251FF1248CCC8
:10AE1000900B9FE0242812EE6E900BA2E05407C026
:10AE2000E0900B9F12B806D0E0F0900BA4E0C0E0D9
:10AE3000900B9FE0243112B0DED0E0F0900BA2E046
:10AE40005478C0E0900BA3E0C4540F5403FAD0E050
:10AE50004A4FC0E0900B9F12AE98D0E012B113247D
:10AE60000F12AE92EE700512AF8E8013900BA6F00B
:10AE700014906194F0900B9D7412F0A37448F074D8
:10AE800002028058E5082432F582E43459F583E45F
:10AE9000932212C6BFE4F02212AE9C2212AEA02270
:10AEA00012B02BA3A3A3A322900BCFE0F8740F58EA
:10AEB00024A0F582E43459F583E4932274F7124D0B
:10AEC0005F74EC12507512B1CD851882851983AC70
:10AED00082AD83900BA3128449FE6065900B9FE0C6
:10AEE000242C12B009851882851983E0FC740112A4
:10AEF000521BE0FBEC8882898312D19BFA900B9F56
:10AF0000E0242A12EE6E74036E7016740212521B45
:10AF1000AC82AD83900B9FE0241B12C8AE740A80F4
:10AF200019740212521BE0FA740312521BE0FB90D8
:10AF30000B9FE0241B12EE6E740412521BAC82AD08
:10AF400083900BA312D169FE603012B0FAA2E640E2
:10AF50001112AF82242A12EE6EEC24020C0CED3496
:10AF600000FD74036E700B900B9FE0241212C8AEAC
:10AF7000800812AF82241212EE6E12AF8E74140289
:10AF80008EAD8C828D8312B017900B9FE022900BB8
:10AF90009D741EF0A37448F012481822C082C0832A
:10AFA000900BA7E070117401906194F0900B9D7468
:10AFB00024F0A374488013C394105003E0800274FB
:10AFC00010900BA6F0E014906194029D50C082C0D6
:10AFD00083900BA6E0F9900B9F12B01F12B01312D2
:10AFE00048FC900B9FE0240212B009900BA612843B
:10AFF0006F12F56712EE74900BA6E0FA900BA7E0C3
:10B00000C39AF0124818029D51F8A3E03400F922C7
:10B01000900ADE12B0172212B492FB22900B891212
:10B02000B0232212B0272212B02B22128B2DA3A301
:10B030002274F6124D5F7F0079027AA17B0B1248D1
:10B04000FC900BA2E05480F5087008900BA9E06416
:10B050000270727402900B9AF012485A12AEA890C5
:10B060000BA1FAE02A24B7FE900BA2E0547FF50969
:10B07000900B8BE06010900B8CE07008906163E0A7
:10B08000A2E650027F04EF4508FA12B0FA4AF0EE49
:10B09000F91247FAE9C0E0900B9F12F57AD0E0125E
:10B0A000B113243012B0E212B113242F12B0DEE536
:10B0B0000912B11312B0E7A3A312B10FFAA3E0FB78
:10B0C00012463E800A12B1027A9F7B0B1246C8904C
:10B0D0000B9FE4F0A3F012B1E002B50F241512C6E5
:10B0E000BF2212C6BFEE222432F8A3E03400F9904A
:10B0F0000B9F12B492F5838A8222900B9F12AE9C12
:10B10000E0229061A4E0C2E0F0E4900B9CF022E821
:10B11000F0A3E9F0900B9FE022C082C0839061937E
:10B12000E0A2E6500BE0A2E7400675E1ED75E1ED27
:10B13000E4900B9AF0900B9CE07003124830029D53
:10B1400051C082C08312485A1247D6A2AFE492E09F
:10B15000FAC2AF900BAFE064027007748312B49729
:10B160008005EAA2E092AF029D51C082C083900B9D
:10B17000A5E0700512482A801EC394105003E08099
:10B18000027410900BA6F0E014906194F0900B9D67
:10B19000743CF0A37448F0029D51C082C08374F0E7
:10B1A00012507512B1CD900BA6E0FA900BA5E0C33A
:10B1B0009AF06011C39410500FE0900BA6F0149019
:10B1C0006194F0800312B1E0741002A24F900BA6BC
:10B1D000E0F9851882851983AA82AB831248FC2284
:10B1E000740590619412AAEBF012482A2274F712A7
:10B1F0004D5FE9FEE5A8FFC2AF900BAEE04EF01246
:10B200004860EF028495A2E702A99074F7124D5F9F
:10B21000E9FEE5A8FBC2AF74FF6EFA900BAEE05AF0
:10B22000F0EBA2E792AF12485A0297F5C082C083B2
:10B23000E5A8FAC2AFE4900BAEF0900BAD12B2DE0F
:10B24000EAA2E792AF124800029D5174F7124D5FD7
:10B25000A2AFE492E0FEC2AF900BAEE060031248F2
:10B2600060EE8002E508A2E092AF0297F574F71253
:10B270004D5FA2AFE492E0FEC2AF900BAEE070195A
:10B28000900B9AE0A2E74011900B9CE0700B900BA2
:10B29000AFE0A2E74003124866EE80CAC082C083D6
:10B2A000A2AFE492E0FAC2AF900BADE07006740179
:10B2B000F075E1E302A98DC082C083A2AFE492E001
:10B2C000FAC2AF900BADE06012E412B2DEE5A8C2A4
:10B2D000AF759B0075E9FBA2E792AF02A98DF075EF
:10B2E000E1EF75E1ED75E1ED22C082C083900FA022
:10B2F000E0606D439401E594A2E250FAE0640270CC
:10B30000579061A512EE4F900BCFE054F060187487
:10B31000689061EBF074FB906244F0746A9061ECA9
:10B32000F074FC906247F0900BB7E0C39412501396
:10B3300012B36CF0900B4DE0906174F0900B4EE006
:10B3400012B37C740590619412B36375E9FBA2E7B4
:10B3500092AF9061A312EE4FE4900FA0F012485408
:10B36000029D51F0E5A8C2AF759B0022900B49E009
:10B37000906172F0900B4AE090617322906175F0D9
:10B3800079087C5D7D0B7A6A7B611248F62274F73E
:10B39000124D5FE9FE7401900BAFF0900FA0E060DA
:10B3A00008791D12489602B479EE900BB0F0640251
:10B3B000701A12B50375E1D975E10175E10975E1FE
:10B3C000BA75E10175E1C575E1D2803CE4900BB33B
:10B3D000128C48240EF812B486A2E65005900B6633
:10B3E0008003900B48E0900BB1F0900BB0E070152B
:10B3F000900B2FE0600F900BB1E0C39403400474F6
:10B40000028001E0F0124878900BB6E07045900A97
:10B41000EA12F688FAA3E0F5838A82E05420900BC2
:10B42000B512D19EFAA3E0F5838A82A3A3E0900B24
:10B43000B412B48AF5838A82A312846C1280EB88DA
:10B4400082898374022AF075E1EE0AE0F5D9A31A25
:10B45000EA70F8A2AFE492E0FAC2AF900B9AE07003
:10B4600010900B9CE0700A7483900BAF12B497801D
:10B47000087402900BAF12B47C0297F5F0EAA2E0D8
:10B4800092AF2208080812D83022F0900AEA12B4CB
:10B490009222E0FAA3E02212B47C12487E2274F6D3
:10B4A000124D5F750801750900900BB1E078081224
:10B4B0005108E50814C0E01247C4E9FAD0E05A90F8
:10B4C0000BB2F0900BB0E0701112B50375E181750D
:10B4D000E11075E1D275E181800C12B50375E1B818
:10B4E00075E18175E1B875E11075E1D275E1D97545
:10B4F000E10175E10975E1BA75E10175E1C575E133
:10B50000D2800C1248A275E1BC227402124FFA7F5D
:10B5100002024E7474F7124D5F12B102900BB0E04C
:10B520006402704D12B6E2A2AFE492E0FEC2AF75C3
:10B53000C300E5A2E5A4FF740F5FFA740FC39AF588
:10B54000089061E2F012484E7401900BADF075E185
:10B55000E175C300E5A2E5A46F600FE508C394029E
:10B56000400874FF25089061E2F0EEA2E092AF80FF
:10B57000031248840297F5C082C083900BB0E0703C
:10B5800028900AECE07002A3E0600D900AEC129A99
:10B590000B125225E9FA80027A00900BB2E0C39AAE
:10B5A0004007791C12489680031248A8029D5174E6
:10B5B000F7124D5FA2AFE492E0FEC2AF900BAFE096
:10B5C00064837021900BB5E070127485900BAFF01E
:10B5D000EEA2E092AF7900124896800E7486900B2E
:10B5E000AFF01248AEEEA2E092AF0297F574F712F8
:10B5F0004D5FA2AFE492E0FEC2AF900BAFE0648675
:10B6000070127487F01248B4EEA2E092AF79E9129A
:10B6100048968005EEA2E092AF0297F574F7124DBE
:10B620005FE9FEE4900BB6F0900BAFF012485A12AF
:10B6300047D61247E2EEF91246560297F5C008E5E2
:10B64000A8FAC2AF75C300E5A2F508E5A3FBEAA21C
:10B65000E792AFEBF9A8087A007B02124C0EE8F9EA
:10B66000D00802416CC082C083759C017401906156
:10B67000E4F075E1E275E1FFE5A8C2AF759B0075E6
:10B6800091EFA2E792AFE5A8C2AF759B007591F765
:10B6900002B206C082C083900BB2E09061E2F0E09B
:10B6A0006003E014F075A1FDA2AFE492E0FAC2AF2E
:10B6B00075C300E5A2FBE5A3FC900BB7E0C39412B1
:10B6C0005008EB7005EC70027B0175C3038BA28CF4
:10B6D000A3EAA2E092AF12B6E212486075E1E1027D
:10B6E0009D519061A4E0D2E4F0E0D2E3F02274F640
:10B6F000124D5F12489CE9FF900B2CE02F24ECFACE
:10B7000075F01484FE75F014A4CA9AFA0E740290AF
:10B7100061E4F0EE9061E2F075A1FDA2AFE492E089
:10B72000FBC2AF75C3038A08750900740978081253
:10B730005108F8A909900BB7E0C394125009E470BE
:10B7400001E97003087900E8F5A2E9F5A3EBA2E0AE
:10B7500092AF75E1E275E1FFE5A8C2AF759B007598
:10B7600091EFA2E792AF75E1BC75E1B875E1D290B7
:10B7700061A4E0D2E4F075E1E112489CE9C39F5076
:10B780000A9061E2E06E7003E014F002B50FC0822F
:10B79000C0839061A4E0C2E4F075E1E275E1FF02CC
:10B7A0009D5174F0124D5F9061A4E0C2E3F0E5A8F2
:10B7B000FEC2AF12B7FAEEA2E792AF900B8D780CF3
:10B7C0001251E1780C79081251D1400A900EE678B6
:10B7D0000C1251E180088A0C8B0D8C0E8D0F900A93
:10B7E000EA12B806780C1251FF1248CC900AEA12FD
:10B7F000B80CA3A312EE780282CE1248D88A088B26
:10B80000098C0A8D0B2212D7EFA3A32212B81022A3
:10B8100012AEA0A32274F6124D5F74F0125075742C
:10B82000149061A9F0743F9061ABF074F890619648
:10B83000F074859061A8F0745A9061ACF0E4906166
:10B84000AEF074159061B2F0E4906182F0741090E3
:10B8500061B5F0740E9061B6F074039061B7F07446
:10B86000099061FAF074FF9061E5F0439A01D2A863
:10B8700043A90153B9FE906249E0900BB7F0E5A8E7
:10B88000C2AF75C30275A20075A328A2E792AF43A9
:10B890009401E594A2E250FA439408D2BA74489015
:10B8A0006189F0124860906199E0A2E050F87A0056
:10B8B0007C007B0812B986C0E0ECC333FCD0E04CBE
:10B8C000FC1BEB70EF8A08E50824BFF582E4340B1B
:10B8D000F583ECF00AEAC3941040D5780079007C37
:10B8E00010E8C333F8E933F912B98648F81CEC7054
:10B8F000F0E87001E9600A7480687003740369708D
:10B900000478BE79BAE8F5BCE9F5BC900BBDE070EF
:10B9100002A3E060467A007C007B0812B986C0E092
:10B92000ECC333FCD0E04CFC1BEB70EF8A088518AD
:10B9300082851983E5822508F582E5831284A6ECC9
:10B94000F00AEAC3941040CF851882851983AA8231
:10B95000AB83900BBD129A0B1252251248667440AD
:10B96000906189F0E0D2E5F0E4906164F090616567
:10B97000F0906166F0906167F0906168F0906169A5
:10B98000F0741002B50C9061A7E0A2E0E492E0220E
:10B9900074F355B44404F5B4E5BDF9E5BC2400FAEC
:10B9A000E439FB02416CC008E5A8FAC2AF75C301D7
:10B9B000E5A3FBE5A2F508EAA2E792AFAA0802B662
:10B9C0006074F4124D5F74FC125075E5A8FAC2AFB2
:10B9D00075C300E5A202802074F4124D5F74FC125E
:10B9E0005075E5A8FAC2AF75C31002802074F41236
:10B9F0004D5F74FC12507512BAA4900BB9C082C08E
:10BA00008312BA49D083D082780812517A8518827D
:10BA10008519837808125047900BB978081251FFA6
:10BA2000E5A8FAC2AF75C300851882851983E0F5D1
:10BA3000A4740112521BE0F5A5740212521BE0F52A
:10BA4000A6EAA2E792AF0280561248D28A088B0972
:10BA50008C0A8D0B22C082C08374FC12507512BAFE
:10BA6000A47A00A2AFE492E0FBC2AFE5A7A2E45043
:10BA7000040A53A7EF75C330851882851983E0F552
:10BA8000A4740112521BE0F5A5740212521BE0F5DA
:10BA9000A675A1EFEA600343A710EBA2E092AF7492
:10BAA0000402A24F851882851983EAF0A3EBF0A364
:10BAB000ECF0A3EDF02274F4124D5F74FC1250759B
:10BAC000E5A7A2E4504FE5A1A2E44049E5A8FAC2E7
:10BAD000AF75C330E5A4851882851983F0E5A5C04C
:10BAE000E0740112521BD0E0F0E5A6C0E07402122F
:10BAF000521BD0E0F0740312521B128060C082C04F
:10BB00008312BA49D083D08278081251C1500612EC
:10BB100047B875A1EF02805674F4124D5F74FE129F
:10BB20005075E5A8FAC2AF75C300E5A2E5A4851873
:10BB300082851983F0E5A5C0E0740112521BD0E0A4
:10BB4000128061C082C083900BB978081251E1D095
:10BB500083D082E02508FAA3E03509FB02AE7F74AA
:10BB6000F7124D5F8017198C828D8312BB83F0A36F
:10BB7000AA82AB838C828D83A3AC82AD83E970E60D
:10BB80000297F5E08A828B832212BB91AA82AB8353
:10BB900022F08A828B83A322C082C083E5D98A8265
:10BBA0008B83F0A3AA82AB8319E970F0029D5174D4
:10BBB000F7124D5F900BD2E07036900BD1E064022B
:10BBC000702E1247F4E9FF900C8FE0F912492CE92E
:10BBD000FEEFFA124920900BD0E0C0E0900F36E063
:10BBE000FAD0E0C39A500C900BD0E004F012493226
:10BBF0000297F5EE12BC88C0E0900F35E0FAD0E075
:10BC0000C39A40E9900CBFE06008900BE9E0640340
:10BC10007006900C8FE08047EE12BE7012D16175F5
:10BC2000830F758233C3E098A3E0994024900BE919
:10BC3000E004F06403700B900F3112C7AC7B02126A
:10BC4000BEC9900BE9E06403700CEEF9124926803E
:10BC50000DE4900BE9F0900C8FE0F9124A4CE9FAF0
:10BC6000900C8FE06A6086900ED4E0A2E4500E74CF
:10BC700004900BD1F0EA900BD3F002BBF0EA900CE9
:10BC80008FF012491402BBF075F007A4A9F024DA72
:10BC9000F582E9340BF583E022C082C083900BD299
:10BCA00012DBCE6402700312E30C029D51C082C00D
:10BCB00083900BD1E06401700512DE99801BE06473
:10BCC00002700512E30C8011E064047012900BD333
:10BCD000E0900C8FF0F912491A7403900BD1F00226
:10BCE0009D51C082C0837401900BD1F0900C8FE005
:10BCF000F912491A7A8F7B0C79E11247107C017D89
:10BD0000007A007B0112BEC9029D5174F7124D5F8B
:10BD100089087900E9C0E0A90812DBA8FAE5F03447
:10BD20000BFB7C07E4FDD0E0F91241ACE4900BD0B2
:10BD3000F00297F574F4124D5FE9FDEAFCED75F041
:10BD400007A4A9F012BDFE64FF7004A3E064FF60C5
:10BD500010ED75F007A412BDFE2401F0A3E034003D
:10BD6000F0ED75F007A424D6F582E9340BF583C015
:10BD700082C083900FC378081251E1D083D08278BB
:10BD80000812512E900EE678081250A1600AED7547
:10BD9000F007A412BC8E14F0ED75F007A424D4FAB9
:10BDA000E9340BFBEA2402EB34000A0AFB8A828B9B
:10BDB0008378081251E174017808124FA58A828BAA
:10BDC0008378081251FF900F37E0C39C502DED751A
:10BDD000F007A424D4E9340B1A1AFB900EEA780871
:10BDE0001251E18A828B83A3A378081251678A8259
:10BDF0008B83A3A3A3A3A3A3E004F002805B12BEE2
:10BE000078E02274F7124D5FE9FBFC7D00EB6D607A
:10BE10004312BE82C0E0EC12BE83FAD0E0C39A4067
:10BE20003112BE82FEEC12BC886E7028EC12BE701D
:10BE3000C082C083ED75F007A424D4F582E5F03408
:10BE40000BF58312D161D083D082C3E098A3E0992F
:10BE50005002EDFC0DEDC3940340B2EC7004790F79
:10BE6000800B74016C70047914800279190297F5C3
:10BE700075F007A412BE782224D4F582E9340BF5BC
:10BE80008322ED75F007A424DAF582E5F0340BF592
:10BE900083E022E9FA74146A70047901800B741942
:10BEA0006A700479028002790002416CC082C0830A
:10BEB000900C8FE0900BD3F07C027D007A1012BEC4
:10BEC000C71247EE029D517B00900ED3E0F912425B
:10BED0005A2274F4124D5FEAFEEBFF8E828F83A329
:10BEE000A3A3A3A3E0A2E650057508088003750884
:10BEF000068E828F83A3A3A3A3E02508F98E828FE9
:10BF000083A3A3A3A3A3E0A2E35004740429F97BB1
:10BF1000007A001246808A0A8B0BA80AA90BE870E7
:10BF200001E9700479BE801D8E828F8312CF22AA10
:10BF30000888828983A3A3E02A12B0098E828F83A6
:10BF400012CF20790002805B74F0124D5FEAFEEBA5
:10BF5000FFE4900E7012F2B3F0A3F0900ED5E064FF
:10BF6000016014E06402600F74B4900E70F012C1AE
:10BF7000A012CFAE0282CE900F1E78081251E1754A
:10BF8000830C7582AC78081250A1700474B680DA04
:10BF90008E828F83A3A3A3A3A3E054096409601135
:10BFA0008E828F83A3A3A3A3A3A3E07002A3E07058
:10BFB0000474E880B58E828F83A3A3A3A3A3E0A219
:10BFC000E0402F7A897B108E828F83E0F9124A0A33
:10BFD000E9600474B280938E828F83A3A3A3A3A38A
:10BFE000E0A2E3500D90108912D828700574BD02AC
:10BFF000BF6A900E70E0600302BF6E8E828F83E096
:10C0000090100E12C1BAF8A3E0F990108712CF2851
:10C01000EE240512C17E5415900EE012D19EA2E0CE
:10C020005033900CB0E0A2E0901087E0500512C1B0
:10C0300098800312C6C312C6CF901087E024221244
:10C04000B0DE74FFF0A3F012C6B574FF12C1BFE4F6
:10C0500090100F8050901087E012C19812C1CBA2AF
:10C06000E1400512D8194011901087E0242A12C629
:10C07000C512D84E12D7F98014901087E0242A12E6
:10C08000C19A12D84E240E12B0DE12EE6512D819E3
:10C09000500512D835800312C8B212D84EF812C11A
:10C0A0008DE0900EE112C1CBA2E25006900ED412A8
:10C0B000EE4F90108712B01F12D193740185088241
:10C0C00085098312C1CB54246424700912CB0C90CF
:10C0D0000C8FE08001E490100F12C1CBA2E6502932
:10C0E000850882850983E044031297A67002A3E0C5
:10C0F0007005900CB180068E828F83A3A312D1614C
:10C1000085088285098312CF22850882850983E00C
:10C110004428F0124A6A8A0C8B0D8C0E8D0F85080C
:10C1200082850983A3780C1251FF8E828F83A3121C
:10C13000CF3B12C1CBA2E3503A8E828F83A3A3A33D
:10C14000A3A3A3A3A3124EEC8E828F83A3A3A3A3C6
:10C15000E0F990108912CB7DAA08AB09124A7074DD
:10C1600002124FFAE9700C12C1A0F074BE900E706A
:10C1700002BF717903124A46124AD602BF7412C135
:10C1800083E022F8EF3400F9888289832212C1917A
:10C1900022128B2FA3A3A322242D12C6BF74022226
:10C1A0008E828F83A3A3A3A3A3A312F26974029028
:10C1B0000E6F12A476E0900E7122128552E022F0EA
:10C1C000A3F0900C8FE0900EE1F022128EDDA3E040
:10C1D00022C082C083900ED9E07025900ED4E0A2D8
:10C1E000E2501D90100FE07004900EE1E0FB12F49D
:10C1F0000012CD95E06B600812F40012CD97EBF0C1
:10C20000900ED4E0C2E2F0900CB0E0A2E0500C90AE
:10C210000ED4E0A2E45004790280027901124A4669
:10C220007402900E6FF090100E12CFA2029D51C0BA
:10C2300082C083900C8FE0124F1900030F47C21485
:10C240004BC2194FC253C27901800A790280067924
:10C250000380027900029D5174F5124D5FEAFEEBF6
:10C26000FF12C2BE8E828F83A3A3A982AA838908EC
:10C270008A09750A007808124FE37C0B7D007AF377
:10C280007B0B12F3FA124FFA8E828F83E07002A3B7
:10C29000E07003E480138E828F8312C7AC7B081298
:10C2A000BEC9E4900C11F07401900C7FF002C6142A
:10C2B000C082C08312C2BEE4900C7F029D50900EDB
:10C2C000D6E0F0A3E054F7F07A007B0812E7C12231
:10C2D00074F6124D5FEAFEEBFF7B0080130A900BB1
:10C2E000F312E45C30E30244F0FCEAC39C40130B1D
:10C2F00012E45630E30244F0FAEBC39A50257A0078
:10C3000080DC8B08EE2508F8EF3400F9742628F558
:10C3100082E43912C5D324F7F582E4340BF583E0C7
:10C320006C70BA7A0080010A12E477FCEA9C50181B
:10C33000EE242D12C3C8601012C5D524F4F582E492
:10C34000340BF583E06C70DFEBC0E012E45630E3B1
:10C350000244F0FBD0E0C39B5062EAC0E012E477F5
:10C36000FAD0E09A5056900C11E0700E740112C889
:10C37000BE7A097B0C124AFA80426401703E8E82BA
:10C380008F83A3AC82AD837A097B0C12C3C0602774
:10C39000E4900BEA12C8BE7AEB7B0B124AFAEE2449
:10C3A0002E1284B7900BFEF07402900C11F07AEA12
:10C3B0007B0B124992800579B712496802B50FFBD1
:10C3C000124AF4E922EE2416F582EF12848F64FFFC
:10C3D00022C082C083900C11E064027008900ED9D4
:10C3E000E0F9124968029D5174F7124D5FE9FEE4CD
:10C3F000900C7FF012C2BE7410900BFFF0EE900C08
:10C4000000F07CEB7D0B7A017B0C124AFA7AFF7B01
:10C410000B0297F2C082C083900C7EE0A2E2502013
:10C42000C2E2F0A2E3500D12CB71741190101312FE
:10C43000C443800C900ED9E0600612C44C124986A9
:10C44000029D51F07A137B101244BE22900ED6E06A
:10C4500054FB12E7D07A0412E7BF2274F5124D5F45
:10C46000EAFEEBFF900ED5E06404600302C5BC1247
:10C47000C5C7600302C5BC900C2CE0C3940A4003FE
:10C4800002C5BC750A00802312C5BE850A0875095D
:10C490000074037808125108E508242DFAE50934E0
:10C4A0000C12C3BF600302C5BC050A900C2CE0FA55
:10C4B000E50AC39A40D27405900E6FF0900EE1E049
:10C4C000900E7112C5FC900E7212C5EE7A747B0E3E
:10C4D000124AFA129C922411F582E912D1525004A8
:10C4E0007C0F80027C0012D17030E30244F012C94C
:10C4F000DC741312D1367001EB600302C5BC888274
:10C500008983A3A3A3A3A3A312CDA1E82407FCE9D5
:10C510003400FD7A7C7B0E12C9D3900EA0F07B0014
:10C52000800C0A900C22E0FCEAC39C40160B900E93
:10C530008612E45C30E30244F0FAEBC39A501F7AAF
:10C540000080E08B08E5082499F582E4340E12C5DA
:10C55000D32423F582E4340CF583E06C70C4900C92
:10C5600022E0600E900E8612E45C30E30244F06B31
:10C57000604A12C5BE900C2C12A0B9740378081240
:10C580005108E508242DFAE509340CFB124AFA900B
:10C590000C2CE00412CFAE900C2CE0640A6009E091
:10C5A000FA900C99E06A701412C5DC900C7E12DBD4
:10C5B000C9900C96E0600514900C7DF08056EE2436
:10C5C00012FCEF3400FD22EE241AF582EF12848F64
:10C5D000640322F583E0FC8A08E50822900ED6E089
:10C5E000F0A3E054FBF07A007B0412E7C122E8F0EC
:10C5F000A3E9F0EE2412FCEF3400FD22F0EE242A31
:10C6000012C60422F582EF3400F583E0F8A3E0F9C6
:10C6100022124FFA7F03024E7474F6124D5F900C93
:10C6200016E0A2E05004780F80027800FC7B007ACC
:10C630000074705CC4C0E012CB04D0E02C2412F96A
:10C6400012D8597002A3E0700A12CB7179BE124958
:10C6500080805F901087E012C6C312C6CF900C1482
:10C6600012EE65900C1212B01312C6B512D85F12FA
:10C67000ED3DA3A312D7F474018E828F83A3A3A3ED
:10C68000A3A3F07C167D0CEE2406FAEF12C89D9051
:10C690000C2112C8A9900C2A12CB7D7A0412BEC7B5
:10C6A000741112F2B0E4F0A3F0900C7EE0D2E2122A
:10C6B000F1FE02B50F901087E0242B12C6BF2212A4
:10C6C000F2D222242D12C6C92212F2D274032212EF
:10C6D000F2C17402F02274F7124D5FE9FE74069005
:10C6E0000E6FF0900C99E0C0E0900C2CE0FAD0E0D6
:10C6F000C39A500474B78008E0700474B88001EEE7
:10C70000900E70F0900C2CE0900E710297EFC082AA
:10C71000C08312F69C640F7035900C7DE004F0909D
:10C720000C7E12EE60900C7DE0C0E0900C96E0FA7A
:10C73000D0E0C39A400D12CB71900ED9E0F91249A6
:10C74000808017900C7EE0A2E0500F12498C7AE1B5
:10C750007B0E79E112471012497A029D51C082C0C6
:10C7600083900C7D12C7A1900C96E0FAE89AE994A8
:10C7700000C365D033501D900C91E07002A3E060BF
:10C7800013900C9112C7AC7B0412BEC9900C7EE0D2
:10C79000C2E08006900C7EE0D2E0F0E0C2E1029DB3
:10C7A00050E0F874012808E43400F922E0FCA3E02A
:10C7B000FD7A002274F6124D5FEAFEEBFF900ED573
:10C7C000E06401600302C866740312CB29900E7204
:10C7D000F0A3F07401900E7412C8BE7A757B0E122D
:10C7E0004AFA8E828F83A3A3A3A3A3A3A3A3A3E048
:10C7F000A2E05004780F80027800FC7B007A00747D
:10C80000705CC4C0E012CB04D0E02C2413F912D821
:10C81000597002A3E0700302C89A12CAF7901087F9
:10C82000E0242212C8AE12C8B212CB3974028508B5
:10C830008285098312CF2EF0EE2409FCEF3400FD2F
:10C84000E5082407FAE50912C89DEE24141284A312
:10C8500012C8A9790712CEE112C1C1901089E4F083
:10C86000A312F1FE80347403901013F074FF901043
:10C8700015F090101612CF0D12C8BE7A197B101247
:10C880004AFA74B4901014F0900C7FE070097A6F3B
:10C890007B0E1244BE800312496202B50F12CAE732
:10C8A0008A088B09A808A9092212976AF02212D8CF
:10C8B0000F2212C8B62212F2CC74FFF0A32212CFBC
:10C8C0001AAC82AD8322C082C0837901124A46909D
:10C8D0000ED912CDA1900C7FE070097A6F7B0E12F9
:10C8E00044BE8003124962029D5174F6124D5FEA04
:10C8F000FEEBFF900ED5E06401600302C9D012C5C3
:10C90000C7600302C9D0EE2430F582EF12EE544026
:10C910000474FF8003E0C333900ED0F0C0E0900CAD
:10C9200090E0FAD0E0C39A500302C9D07404900E8C
:10C93000A1F0EE2412F508EF12E549AC08FD7AA348
:10C940007B0E124AFAE4900EA2F0AA08AB09124A32
:10C950003AEA7001EB700E124A40E964FF70067407
:10C96000B1900EA2F0129C92128018A2E050047CAA
:10C970000F80027C00F5088E828F83A3A3A3A3E01F
:10C98000FE7406550812D1885508C430E30244F0FD
:10C9900012C9DC74122AFAE43BFBEA6E7001EB70F8
:10C9A0002FE82406FCE93400FD7AAB7B0E12C9D3D4
:10C9B000900ECFF0900C7FE0700F900C95E060101F
:10C9C0007AA17B0E1244BE80077AA27B0E12495CCC
:10C9D00002B50F124A648A828B83E022FA3395E013
:10C9E000FBEA2CFAEB3DFB2274F6124D5FEAFEEBFC
:10C9F000FF900ED5E06401600302CACB8E828F8364
:10CA0000A3AA82AB83124A3AEA7001EB7013124A6E
:10CA100040E964FF700B12CB2774B012CAEE02CA51
:10CA2000DE12D14C5004780F80027800FC7B007A33
:10CA30000074705CC4C0E012CB04D0E02C2414F964
:10CA400012D8597002A3E0700302CAE112CAF712A9
:10CA5000CEF5A3A3A3A3A3A3A3A312CB34900CB09E
:10CA6000E0A2E0500F12CB0C900CBD12CEFDE8F00E
:10CA7000A3E98012850882850983A3A3A3A3A3A3A6
:10CA800074FEF0A374FFF07403850882850983A304
:10CA9000A3A3A3A3F012CEEA240812CAE4EE24163C
:10CAA00012C18312BB8312D19E901070F0790512CF
:10CAB0004A468E828F83E0900EE1F0124A9A7424E7
:10CAC00012F2B0E4F0A312F1FE8016740990101374
:10CAD000F074FF90101512CB20F07A137B101244E3
:10CAE000BE02B50FFAE5093400FB124A5E22900E31
:10CAF00070F07A6F7B0E22124A588E828F83A3AC1D
:10CB000082AD832274065CC31328FC2212494AE9D1
:10CB1000C4333354C0FA850882850983E04AF02281
:10CB2000F074B4901014227409900E6FF074FF909A
:10CB30000E71F022A3E012D84212F2B8F508A3E079
:10CB4000F509AA08FB124A5222C082C083900ED96E
:10CB5000E0700D900C9A12CB7D7A0812BEC7800E41
:10CB600012CB717409900E6FF074FF12CFA3029D67
:10CB7000517901124A46124AA02212EB92E0FCA31C
:10CB8000E0FD2274F0124D5F8A0C8B0D900ED5E003
:10CB90006405600302CD8BEA241AF582EB12C5CD41
:10CBA000600302CD8B8A828B83A3A3128C3224155F
:10CBB000F582E50912D15250047A0F80027A00FE04
:10CBC000850C828B83A3A3A3A3E0FC74065EC3132E
:10CBD0002AFAE43400FB74705EC430E30244F0F8D7
:10CBE0003395E0F9E82AF8E93BF9741628F8E439B6
:10CBF000F9E86C7001E9600302CD8B900ED6E05429
:10CC0000F712E7D07A0812E7A27409900E6F12CDDE
:10CC1000A712CDA1E508240BFCE5093400FD7A72CA
:10CC20007B0E124A64900E70E0600302CD81E50C29
:10CC30002412FAE50D12D13F7002E5836005E0F59C
:10CC40000A800B124A40E9F50A12E0DBE9F0E50A36
:10CC5000900E71F0900E72E0A2E0502B8508828554
:10CC6000098312D169124EB2010287CC72CC79CC01
:10CC700080CC12CD8E740F801912CD8E7414801258
:10CC800012CD8E7419800B900EE1E0C0E012CD8EB3
:10CC9000D0E0F0E875F02BA424C1FEE9340CFFE5E8
:10CCA0000C242AF582E50D12EB8312CF28E50C2423
:10CCB00012FCE50D3400FDEE2404FAEF3400FB1203
:10CCC0004AFA900CB0E0A2E05005900CBD800D85B2
:10CCD0000882850983A3A3A3A3A3A3A312B013E58A
:10CCE0000A75F02BA424C2F582E5F0340CF583EA32
:10CCF000F0A3EB12CDA7A3A3A312A52D1284A1121A
:10CD0000CF28EE2424F508EF12E5497C037D007955
:10CD100000AA08FB1241AC750C8C750D0E750E0047
:10CD2000780C124FE3900E7C12E470AA08AB091243
:10CD3000F3FA124FFA900E7312A52D24221284A337
:10CD400012CF28900E72E0C0E0EE24101284A3D01F
:10CD5000E0F0900EE6780C1251E1EE24271284A345
:10CD6000780C1251FFEE2411F582EF12D37A74037E
:10CD7000901086F0A90A124AB274FF901071F080E8
:10CD80000A12CB717A6F7B0E1244BE0282CEA80AC1
:10CD9000E875F02BA4A9F024C4F582E9340CF583DE
:10CDA00022E0900E70F022F0850882850983A3A30B
:10CDB000A3A3A3A32274F6124D5FEAFEEBFF900E2D
:10CDC000D5E06401600302CEC412C3C5600CE0FA72
:10CDD000900C89E06A600302CEC47403900E6F1257
:10CDE000CF48900E7112CF1612D161900E7212CFF1
:10CDF000287401900E7412D3AD7A757B0E124AFA24
:10CE000012D14C5004780F80027800FC7B007A002D
:10CE100074705CC4C0E012CB04D0E02C2416F9126C
:10CE2000D8597002A3E0700302CEDE8E828F83E0B9
:10CE3000700E12C3C56009EEFAEFFB1249C88006F6
:10CE400074FF900C89F012D7E0EE2403FCEF34005D
:10CE5000FD12CEF512CB3412CB0C740412CF2E126D
:10CE6000CF4864FF602212F40312F114A2E04018CC
:10CE7000EE24161284A312D38CE9340CF58312CE5F
:10CE8000FDA3E8F0A3E98013850882850983A3A3A5
:10CE9000A3A3A3A3A374FEF0A374FFF0E5082409E1
:10CEA000FAE5093400FB795312470A12CEEA240B43
:10CEB00012CAE4790812CEE112F2B3E412C1BF1231
:10CEC0004AD6801A740390101312CF48901015F0B0
:10CED00090101674FF12CF0D12CB2012C44302B56E
:10CEE0000F124A467414900EE022EE240BFCEF342D
:10CEF00000FDE5082212D8058E828F832212C60B10
:10CF0000850882850983A3A3A3A3A3A322F0A3F08A
:10CF100074019010182212CF1A2212A476A322A311
:10CF2000A3A3A3A3A3A3A3A3E8F0A3E9F022A3A32D
:10CF3000A3A3A312A47612CF3BA322E08508828587
:10CF40000983A3A3A3A3A322F0EE241612848C22A8
:10CF5000C082C083900C89E064FF6018900ED9E015
:10CF6000601C900C8912F457900C8912EB7D74FFB1
:10CF7000900C89F07901124A4612CFA78021E490E3
:10CF80001086F0900C89E0F9124AB2E96011E49041
:10CF90001071F07A397B0F79E5124710124AB80206
:10CFA0009D51E0900E71F0900ED9E0900E7012CA73
:10CFB000F11244BE2274F2124D5FEAFEEBFF900EB6
:10CFC000D5E06401600302D0C512C5C7600302D07A
:10CFD000C5900C7FE06401700302D0C5900CB0E0F6
:10CFE000A2E0400302D0C5129C922412F582E912FD
:10CFF000D15250047C0F80027C0012D17030E302C9
:10D0000044F012C9DC741412D1367001EB600302D3
:10D01000D0C588828983A3A3A3A3A3A312D193120B
:10D02000D165124EB201023ED02FD034D039D07526
:10D030000A0F8010750A14800B750A198006900C6F
:10D040008FE0F50AE82408FCE93400FD7AAD7B0E98
:10D05000124A648A0C8B0DA80CA90D88828983E082
:10D0600090107012D19E900ED2F0900C89E064FF67
:10D070006005750BFF8020EE2412FAEF12D13F708D
:10D0800002E5836007E0F50B74B58007124A40E9BA
:10D09000F50BE4900EA2F07408900EA1F0E50B9051
:10D0A0000ED112C5FC900EA312C5EE7AA57B0E120E
:10D0B0004AFA74FF650B701074B1900EA2F07AA159
:10D0C0007B0E1244BE028476E50B900C89F0900E24
:10D0D000ADE0900C80F0900C81E508F0A3E509F03C
:10D0E000E50A900C83F0900EAE12D161900C841280
:10D0F000CF287A0080198A82A882E824C7F582E4C2
:10D10000340EF583E0C0E0E812D12CD0E0F00A90B4
:10D110000EB712E47AFBEA9B40DCEAC39403509E0C
:10D120008A08E50812D12CE4F00A80EE2486F58204
:10D13000E4340CF583222AFAE43BFBEA6508223446
:10D1400000FB124A3A8A828B83E58222EE240BF599
:10D1500082EF12848FA2E022A3A3A3A3A3A3A3A37D
:10D16000A312C60B2288828983E0C41313540322BE
:10D17000F50A8E828F83A3A3A3A3E0F50874065556
:10D180000A12D188550AC422C3132CFCE43400FDD2
:10D19000747022E0F508A3E0F50922F0A3EBF08813
:10D1A000828983E02274F4124D5F74FC125075EA98
:10D1B000FEEBFF900C89E0C0E012E0DBD0E0F090E5
:10D1C0000C80E0A2E0502F900C8912F1268E828F05
:10D1D00083A312B013E8240CF582E91284A612EEA0
:10D1E00078900C8112B013E8129002E91284A6EA3A
:10D1F000F0A3EB02D2C6900CBB12B013900C8912B4
:10D20000F40324CDF582E5F0340CF58312EE787446
:10D210000212521BAA82AB83795012470A851882E8
:10D22000851983AA82AB83795312470A1248C68AAA
:10D23000088B09A808A909851882851983E06870F8
:10D2400003A3E06960E6C3E894FEE994FF50DD754E
:10D250000900AA09EA75F02BA4ABF024C1F582EB12
:10D26000340CF583E064FF603BEA75F02BA424CF17
:10D27000F582EB340CF583E0687003A3E069702459
:10D28000740212521B12B013E50975F02BA485F03D
:10D290000824CDF582E508340CF583E06A7003A319
:10D2A000E06B60090509E509C3940A40A5740A65A5
:10D2B00009600302D22C900C8912D38CE5F0340C57
:10D2C000F583E8F0A3E9F0900C80E0A2E0500D9027
:10D2D0000C83E0C0E012D394D0E08012900C8FE079
:10D2E000C0E012D394D0E012CF1674FFF0A312D393
:10D2F000AD900C8912F40324C5FAE5F0340CFB124E
:10D300004AFA900C8912F121E5F0340CFB900CBD27
:10D3100012D3A512CF27900C80E0C0E0128927D04D
:10D32000E0F0900EE678081251E1EA2427F582EB4E
:10D330001284A678081251FF12D36F12D37A900C80
:10D340008412A3F22422F582EB1284A612CF287550
:10D35000088675090C750A007808124FE37C037D76
:10D3600000EA2424FAEB12D383124FFA028056EA21
:10D370002411F582EB22F582E50912EB92E4F0220A
:10D38000FAE50B3400FB1241A074032212F40724C7
:10D39000CFF58222900C8912F40724C4F582E5F0BF
:10D3A000340CF5832212C60B8A828B8322F0EE2482
:10D3B00003FCEF3400FD2274F4124D5F74EA125046
:10D3C00075900CB0E0A2E05050790A124A46900FD6
:10D3D000C778081251E1740112521B78081251FFEC
:10D3E000740512521BE4F0900C9CE0C0E07406122D
:10D3F000521BD0E0F0740812521B7403F074141224
:10D40000521B7410F0A37410F07401900C8AF01287
:10D41000521BAA82AB8312476A7901124230900CE8
:10D42000B0E0A2E0402012DE83740D900E6FF0E4B5
:10D43000900E70F0740185188285198312DBEB7AE7
:10D440006F7B0E1244BE741602805874F0124D5F4A
:10D4500074E9125075EAFEEBFF900ED5E0640A60A5
:10D460000302D6318E828F83A3A3E0600302D540EE
:10D47000750A007A01802A8E828F8312D1588A0819
:10D48000E82508F582E91284BAC0E0850A08E82593
:10D4900008F582E91284BAFBD0E0C39B50028A0AE5
:10D4A0000A8E828F83A3A3A3A3A3A3A3A3E0FBEA73
:10D4B000C39B40C3E50A124EB20001C9D4C1D4C512
:10D4C000D4740F8006741480027419900C8FF0903D
:10D4D0000FC7780C1251E1740212521B780C1251D2
:10D4E000FF740612521B7401F0900C9CE0C0E074B3
:10D4F0000712521BD0E0F0740912521B7405F07A27
:10D50000A57B001241B2741512521B12EE787415ED
:10D5100012521BE07002A3E07017E4900C8AF0F93D
:10D52000124A46740D900E6FF074BE12CFAB02D645
:10D5300031740212521BAA82AB8312476A02D6319F
:10D5400012D63612D65464FF7004A3E064FF60F074
:10D550007D00803A851882851983E0FAED75F02107
:10D56000A4F8A9F08E828F83A3A3A3A3A3A3A3A34C
:10D57000A3E028FCA3E0398C82F583A3A3A3A3A393
:10D58000A3A3A3A3E06A7003A3E06B60B30D8E8234
:10D590008F83A3A3A3A3A3A3A3A3E0FAEDC39A40FD
:10D5A000B38E828F83A3A3A3A3A3A3A3A3E06D70D1
:10D5B0008F8E828F83A3A3A3A3A3A3A3A3A3E070AF
:10D5C00002A3E060108E828F83A3A3A3A3A3A3A3CF
:10D5D000A3A312F265851882851983AA82AB837989
:10D5E0005012F5C812D161900CBB12CF2812D6365A
:10D5F00012D644C3E094F0A3E094FF50F085188263
:10D60000851983AA82AB83795312F5C812D1619030
:10D610000CBD12CF287CBB7D0C7A02792212447695
:10D620007CBD7D0C7A0279231244761249DA1249C4
:10D63000E074170282CB1248C6851882851983EAE6
:10D64000F0A3EB2212D6482212D64C22F085188283
:10D650008519832212D648E022C082C08312DBB330
:10D660007AA37B0F79461247107AA17B0F79451276
:10D6700047107A8C7B0C7941124710029D5174F44B
:10D68000124D5F74DD125075900CBB12D1617404A1
:10D6900012521B12CF28900EE678081251E185181D
:10D6A0008285198378081251FF900C8FE0C0E074D6
:10D6B0000612521BD0E0F0740812521B740FF07463
:10D6C0000912521B740FF0740A12521B7401F07489
:10D6D0000B12521BE4F0740C12521BE4F07415127E
:10D6E000521BE4F0742012521BE412D6F512462CA1
:10D6F000742302805812D6F92212D64CAA82AB8328
:10D700002274F4124D5F8908900ED5E06401700A0E
:10D710007A897B10124A0AE96028900ED5E06401EC
:10D72000600474B4800274B2901014F0740E9010FF
:10D7300013F0E508901015F07A137B101244BE0226
:10D74000D7DD90108912D8287B007A006004790A0E
:10D750008002790612D8597002A3E07013740E90FB
:10D760000E6FF0E508900E71F074BE12CAEE80CC18
:10D7700012D7E0901089E012D7F912D8195005128B
:10D78000D835800312C8B212F58112D7F474058E11
:10D79000828F83A3A3A3A3A312D84E2411F812B49B
:10D7A00086602212EE4BEE2405F50AEF3400F50BED
:10D7B000780A124FE7790112F273124FFAE97005F5
:10D7C00012F26280987906124A4690108912D7EABE
:10D7D000900EE1F0E508900C8BF012F1F902805BFD
:10D7E00090108712B017124A582212D7EFE0221277
:10D7F000B027A322E012F2A42212D7FD222404FCB7
:10D80000A3E03400FD901087E0242212D80F22FA02
:10D81000A3E03400FB124AFA22901089E02410128F
:10D82000D82FA2E022900AEAE0241112D82F22F881
:10D8300012F2D3E022901089E0240C12D82F12D8D3
:10D840004222FAA3E0FB12F2CCEAF0A3EB2212F29E
:10D85000B3E0227B007A00790F124680901087EAAD
:10D86000F0A3EBF0901087E022C082C08374FE1218
:10D870005075851882851983AA82AB83900C8BE042
:10D88000F9124A0AE9700912D8CB900C8B12EB7D81
:10D890007901124A46740E900E6FF0900C8B12CFE5
:10D8A000A202F55A74F7124D5F74FE125075E9FE2C
:10D8B000851882851983AA82AB83124A0AE9700807
:10D8C00012D8CBEEF9124A34028EB385188285192C
:10D8D00083128B2574FFF02274F5124D5F74F812D9
:10D8E0005075E9900ED3F0E4900ED4F07401900CD2
:10D8F000BFF0747F900CC0F0E4900BD1F012472E73
:10D90000124A22E4900CB0F0900CBAF0900CBB7468
:10D91000FFF0A3F0900CBDF0A312D644AC82AD830F
:10D920007A08790112447CE970287508A575090FF9
:10D93000750A007808124FE37C087D0074031252C8
:10D940001BA982AA837B001241A67403124FFAE935
:10D95000603275080C750978750A007808124FE373
:10D960007C087D00740312521BAA82AB8312F3FA67
:10D97000124FFA851882851983AC82AD837A0879B3
:10D9800001124476124A2E740802C61174F6124D22
:10D990005F74FD125075EAFEEBFF74805FF9E4706E
:10D9A00001E9700302DA2D900ED312DBD712CF28D3
:10D9B000E87001E9606E8518828519831284AB12C4
:10D9C0004F19000307DCD908E9D90DCFD917DA853B
:10D9D0001882851983E0FA124A82803B8518828575
:10D9E0001983E0FA1249D4802E900ED5E0640A70B3
:10D9F00026740D900E6F12DBF812CDA1700A74021E
:10DA000012521B740112DBEB7901124A46900C8A08
:10DA1000E06004E412CFAE851882851983AA82AB38
:10DA2000831246C8EEFA74806FFB02DBA3900ED619
:10DA3000EEF0A3EFF0900ED6E0A2E05003124AE21F
:10DA4000900ED6E054806003124A76900ED6E054D1
:10DA5000026005E4900EE0F0900ED6E05404600BF6
:10DA6000900ED5E064047003124986900ED7E054FE
:10DA700004F9E47001E96021900ED5E064047019A6
:10DA8000900C7E12DBC9A2E1500F12498C7AE17B27
:10DA90000E79E112471012497A900ED6E0540860D0
:10DAA00013900ED5E06405700B12CB7112CB277466
:10DAB000B312CFAB900ED6E05420602E900ED5E07E
:10DAC00064016005E06402701612DBB3900ED4129C
:10DAD000DBCE640370091249327402900BD1F090CE
:10DAE0000C8D12CB7D7A4012BEC7900ED6E054400A
:10DAF000601E900ED4E0A2E45016900ED5E06401B2
:10DB00006005E06402700612E70412490E12E71580
:10DB1000900ED7E05401F9E47001E96014900BD243
:10DB2000E0700E900BD1E0640170067402F01249AF
:10DB300032900ED6E054106003124902900ED7E0E6
:10DB40005402F9E47001E96018900C8FE0F912DBDF
:10DB5000A8F582E5F0340BF583E4F0A3F0900BE92F
:10DB6000F0900ED7E05408F9E47001E9600579B847
:10DB7000124968900ED7E05410F9E47001E9601F73
:10DB8000901086E06403600AE064046005E06402CB
:10DB9000700779B9124AD08006E070037401F07AF8
:10DBA000007B00740302B50C12492CE975F007A440
:10DBB00024D4227A8F7B0C79E11247107AA47B0F50
:10DBC000795212471022906180E0D2E0F022E0D238
:10DBD000E0F0900BD1E022E0F91241C48A088B09F1
:10DBE000A808A90985188285198322F0AC82AD8323
:10DBF0007A007983124A162212DBFC2212D64C12CA
:10DC00008B29A32274F5124D5FE9FEEAFFECFAEDD1
:10DC1000FB74A02EC39410505F7CC87D5974A02E55
:10DC2000F50A850A0875090074027808125108EC93
:10DC30002508F582ED350912DE787001E9604D8521
:10DC40000A0875090074027808125108EC2508FCCE
:10DC5000ED3509FDE493F508740193F509750A00A3
:10DC60007808124FE38C828D83A3A3E493FC7D009C
:10DC700012F3FA124FFA806774802EC39409500889
:10DC80007C087D5A7480809779F4805574686E7032
:10DC900025EFC3940A501BEF75F02BA424C1F5089F
:10DCA000E5F0340CF509750A007808124FE37C2B77
:10DCB00080BC79F9802B74846E700DEAFCEBFD7AE0
:10DCC00008790112447C801774676E70BB900ED483
:10DCD000E0A2E4500474018001E48A828B83F0792D
:10DCE0000002C614C082C083E9FD12EB4A6D7017B2
:10DCF000ED75F02BA424C1F8E9340CF98A828B83EA
:10DD000012CF287900800279B2029D5174F4124D2D
:10DD10005F74F8125075E9FE124A2E79011246FE20
:10DD2000851882851983AC82AD837A087901124403
:10DD30007C851882851983AA82AB8379E212471009
:10DD4000900F38E0906196F07AC07B0C79E512472D
:10DD500010EE607C124A227F008F08750900740261
:10DD60007808125108E50824CBF582E5093459F505
:10DD700083E49360398F08750900740278081251A2
:10DD800008E50824C8F582E509345912DE787001E7
:10DD9000E9601B8F0875090074027808125108E5C4
:10DDA0000824C8F8E509345912E14F1244760FEF00
:10DDB000C3941040A47F00EFF9124A340FEFC394CC
:10DDC0000A40F47C8C7D0C7A007983124A16801B01
:10DDD000900FCB78081251E1900CAC780812515496
:10DDE0007CAC7D0C7A047906124476E4900ED4F073
:10DDF000900ED5F07A8F7B0C79E1124710900BD200
:10DE0000E07022900BD1E06402701A12E7CA7A1017
:10DE100012E7A8F0A3E054FDF07A007B0212E7A419
:10DE20001247F4800B900BD1E06401700312DE996D
:10DE3000E4900BD1F012495674FF900C89F07901EF
:10DE4000124230900CBAE0602A900CB0E0A2E05090
:10DE50001F7ABB7B0C79501247107ABD7B0C79532B
:10DE6000124710790A124A461249DA1249E0800331
:10DE700012DE837408028058F583E493F8740193EA
:10DE8000F9E8227AA47B0F7952124710900ED4E061
:10DE9000D2E0F07901124A4622900ED6E0F0A3E0DB
:10DEA00054FEF07A007B0112E7C12274EC124D5F40
:10DEB000890B8A0AECFEEDFF74A0250BC394104079
:10DEC0000302DFAF7508C875095974A0250BF51258
:10DED00085120C750D007402780C12510812E00ABC
:10DEE00012DE787001E9604485120C750D00740231
:10DEF000780C125108E508250CF510E509350DF5EB
:10DF0000118E0C8F0D750E00780C124FE385108268
:10DF1000851183A3A3E493FC7D0085108285118382
:10DF2000E493FA74019312F3F9124FFA85120C7507
:10DF30000D007402780C12510812E00AF583A3A3B5
:10DF4000A3E493603475130074027812125108E54B
:10DF5000082512F510E5093513F511EEFCEFFD85E6
:10DF60001082851183A3A3E493FA8510828511831F
:10DF7000A3A3A3E493F91244767468650B704CE58F
:10DF80000AC3940A50418E0C8F0D750E00780C1246
:10DF90004FE37C2B7D00E50A8CF0A424C1FAE5F068
:10DFA000340C12F3F9124FFAA90A124A348056744B
:10DFB00080250BC39409500B75080875095A7480A5
:10DFC00002DECC79F4804079F9803C7461650B7095
:10DFD00005124A94802F7484650B701AEEFCEFFDD5
:10DFE0007A087901124476E97008EEFAEFFB79E2DB
:10DFF000801079BE80117488650B7009EEFAEFFB12
:10E0000079E5124710790002A680E508250CF58213
:10E01000E509350D2274F2124D5F8A088B098A8258
:10E020008B83E0124F190004077DE008B4E00C3642
:10E03000E00D71E0B1E0EA2403F8EB3400F9E8FE0A
:10E04000E9FF8E828F8312B0131246C28508828543
:10E050000983A3E0900ED912A47212D161900EDA56
:10E0600012CF287A017B00900ED3E0F91241E280B2
:10E0700040AE08AF09EE7001EF6036802A750B0BD9
:10E08000AA0B7B001241B28A0C8B0DAE0CAF0DEEC9
:10E090007001EF601C750A007808124FE3AC0B7D2D
:10E0A0000012F3FA124FFAEEFAEFFB900ED3129130
:10E0B00039028476750B0280C7C082C0839059A54F
:10E0C0007C8D7D0C7423124F43FBEB12E0DB74FF5D
:10E0D000F00BEBC3940A40F2029D5175F02BA4247F
:10E0E000C1F582E5F0340CF5832274F4124D5FEA39
:10E0F000FEEBFF8909750800804B85080A750B0047
:10E100007402780A12510812E167A3A3A3E4936092
:10E110003285080A750B007402780A12510812E160
:10E120006712DE7A7001E9601A85080A750B0074BF
:10E1300002780A125108EE250AF8EF350B12E14F6A
:10E1400012447C0508E508C3950940AE02805BF9DE
:10E15000E493FC740193FDA3A3E493FA888289837A
:10E16000A3A3A3E493F922EE250AF582EF350BF57C
:10E17000832274F7124D5F79107AC87B59124A28AE
:10E1800079097A087B5A124A28750800E50812E1D5
:10E19000BD12447C12E1D512447C0508E508C39405
:10E1A0000A40E90297F574F7124D5F8908E912E118
:10E1B000BD12447612E1D51244760297F575F02B24
:10E1C000A424C1FEE5F0340CFFEEFCEFFD7A2774C9
:10E1D000242508F922EE2427FCEF3400FD7A04748C
:10E1E0002E2508F92274F7124D5FEAFEEBFF750841
:10E1F00000A808E812EB446024EEFCEFFDE875F09F
:10E200002BA424C5FAE9340C12C3BF6010E50875CD
:10E21000F02BA424C1FAE5F0340CFB800D0508E5D1
:10E2200008C3940A40CB7A007B000297F5C082C0F5
:10E23000837900E912E0DBE064FF600909E9C39437
:10E240000A40F079FF029D5174F7124D5FE9FE908C
:10E250000ED5E0FF74016F70051249088005740245
:10E260006F60F6EE900ED5F074016E705D900CB09C
:10E27000E0A2E050097A8F7B0C79E1124710900BF5
:10E28000D1E07029900CB0E0A2E0507D7402900BB8
:10E29000D1F0E4900BD2F07C15FDF97AD47B0B120F
:10E2A00041ACE4900BE9F0900BD0F08059900BD288
:10E2B00012E71074026F7043900BD1E064036005A5
:10E2C000E064047044124914803F74026E703A9006
:10E2D0000CB0E0A2E050097A8F7B0C79E112471074
:10E2E000900BD212E71074016F7010900BD1E064A4
:10E2F0000270167403F012E30C800EE0700B900BAA
:10E30000D1E0640270031249320297F512E7CA7A2B
:10E310001012E7BF1247F422E9FA740F6A70047909
:10E3200014801074146A70047919800774196A7063
:10E3300002790F02416C74F4124D5FEAFEEBFF7438
:10E340002A8E828F83F0124A6A8A088B098C0A8D82
:10E350000B8E828F83A3028010C082C083EA242D9B
:10E36000F582EB1284A67403F0EA242AF582EB12FC
:10E3700084A67403029D5074F1124D5FEAFEEBFF18
:10E380008C088D09900CB012E461900CB112E46815
:10E3900012CF27750CB3750D0C750E00780C124F4B
:10E3A000E37C077D00EE24030A0A0AEF12D38312EE
:10E3B0004FFA85088285098312F1EDA3A3A3A3F088
:10E3C000EE240BFEEF3400FF850882850983E0A26E
:10E3D000E0501B750C9D750D0C780C124FE37C0FF3
:10E3E00012F3F4124FFAEE240FFEEF3400FF85080B
:10E3F00082850983A3A982AA83890C8A0D780C12CD
:10E400004FE385088285098312E47012F3F6124FF8
:10E41000FA85088285098312E54EEE28FEEF340066
:10E42000FFE5082404F50CE5093400F50D780C121D
:10E430004FE374705AC412F3F3124FFA85088285C1
:10E44000098312E45C30E30244F0F83395E0F9EE1E
:10E4500028FAEF028629EE241312EB8FE05470C4E1
:10E4600022E08E828F83F02212C60B8E828F83224F
:10E4700012E47AFC7D0022900BF3E05406C31322D1
:10E4800074F1124D5F8A0A8B0BECFEEDFF8E0C8F40
:10E490000D750E00780C124FE37C0B7D0012F3FA21
:10E4A000124FFAEE240BF508EF12E5498E828F83A6
:10E4B000A3A3A3A3A3A3A3A3A3A3E0A2E0502085A7
:10E4C000080C85090D780C124FE37C0F7D00E50ADE
:10E4D000240B12D380124FFAE508240F12E545EE03
:10E4E000240AFEEF3400FF85080C85090D780C1214
:10E4F0004FE38E828F8312E470E50A241A12D380D0
:10E50000124FFA8E828F8312E54EE5082812E545F8
:10E5100085080CF50D780C124FE374705AC4FC7D1D
:10E5200000E50A241D12D380124FFA8E828F8312C7
:10E53000E45C30E30244F0F83395E0F9E50828FAAA
:10E54000E509028629F508E5093400F50922E0FA13
:10E5500074065AC313F82274F0124D5F900CAC7815
:10E560000C1251E1900EEA78081251E1900CAC784F
:10E5700008125154900CAC78081251E174FF550800
:10E58000F874035509F9E87001E9700B7CAC7D0C57
:10E590007A047906124476AA0CAB0DAC0EAD0F02CC
:10E5A00082CE74EC124D5FEAFEEBFF8C128D138964
:10E5B00008741412521BE0F510A3E0F51112EE4B93
:10E5C0007A457B1079E212470A8E828F83A3858277
:10E5D0000A85830B780C1251E112EBAF8E828F8388
:10E5E000E0901052129796780C1251E190105378E7
:10E5F0000C1251FFE5122404FCE5133400FD7A5798
:10E600007B10124AFA12E6BFAA0AFB1242A2750C4C
:10E610005F750D10780C124FE7780A124FE7750AF4
:10E620000D750B00780A124FE7750A52750B1078BA
:10E630000A124FE785080A750B00780A124FE7ACFB
:10E6400010AD117A457B1079041242BA740A124F48
:10E65000FAE97066750A5F750B10780A124FE712B7
:10E66000E6BF780A124FE785080A750B00780A1290
:10E670004FE7AC10AD117A457B1079041242C0749B
:10E6800006124FFAE9702F7A008A82A882E8245F86
:10E69000F582E43410F583E0C0E0E8250AF8E434BC
:10E6A00000F9E51028F582E51139F583D0E0F00A8C
:10E6B000EAC3940440D379018002790002A680E580
:10E6C000122412F50AE5133400F50B22C082C08330
:10E6D00012E70DD2E4F0900CB0E0A2E0501D900ED5
:10E6E000D5E0640170057902124A46900C93E070FF
:10E6F00002A3E0600312E71512490E7A8C7B0C79B5
:10E700005202D6787A8C7B0C7952124710900ED434
:10E71000E0C2E0F022900C8D12C60B75830C75825E
:10E7200093E0C398FCA3E099FD7A207B00900ED380
:10E73000E0F912425A2274F7124D5FEAFEEBFFEE47
:10E740007001EF700812E7B0124A768050900ED434
:10E75000E0C2E4F0D2E0F0900ED6E054BF12E7D071
:10E760007A4012E7A854DF12E7D07A2012E7A27AA3
:10E77000A47B0F7952124710900ED5E06402700509
:10E780007901124A4674FF6E700374FF6F700512B0
:10E79000E7B08009EEFCEFFD7A8012BEC779000277
:10E7A00097F57B0012E7C12212E7BF900ED6E02258
:10E7B000900ED6E0547F12E7D07A8012E7BF227B1A
:10E7C00000900ED3E0F912426022900ED6E054EF92
:10E7D000F0A3E0F02274EA124D5F8A0A8B0B124418
:10E7E000E2850A82850B83A3A3A3A3E0C39402500E
:10E7F0000302EB41850A82850B83A3A3E0F514A3F2
:10E80000E0F515851482F583E05403F5097401657C
:10E81000097005750806800E740265097005750893
:10E82000058003750808E0A2E5500A541813131375
:10E83000541FFA80027A00850A82850B83A3A3A362
:10E84000A3E0C39508500302EB41EA700302EB41D9
:10E85000E50A241AF582E50B128719600302E96FB5
:10E86000E50A2412F582E50B1284A612B01312EB0E
:10E870006612CB7A7F00EF12EB44603CEF75F02B11
:10E88000A424CDF582E9340CF583E06C7003A3E099
:10E890006D7025EF75F02BA424CFF582E9340CF5CB
:10E8A00083E06A7003A3E06B700EEF75F02BA42475
:10E8B000C1FEE9340CFF800B0FEFC3940A40B77E12
:10E8C000007F00EE7001EF700302E9B1EE24271221
:10E8D00084A3C082C083851482851583A3780C121B
:10E8E00051E1D083D082780C1251C1500302E9B1BA
:10E8F00074026509600302EB41851482851583E08B
:10E900005404600302EB41EE7001EF700302EB1759
:10E91000EE24111284B7600E851482851583E054AD
:10E9200004700302EB17EE24271284A3C082C08375
:10E93000900FCF78101251E1D083D082781012510D
:10E940002E851482851583A3C082C083900FCF7853
:10E950000C1251E1D083D082780C12512E781079AC
:10E960000C1250B6700302EAEE75080102EAF1E5F6
:10E970000A2412FAE50B3400FB124A3A8A0C8B0D7A
:10E98000AE0CAF0DEE7001EF602712EB6612C3CB39
:10E990007004A3E064FF700302E8CC12EB6612EB94
:10E9A00083E0687003A3E069700302E8CC7E007F17
:10E9B00000851482851583E05404700302E90785FD
:10E9C0000A82850B83A3A3A3A3E0FA85080C740431
:10E9D000250C12EB6F500302EB41EE7001EF700358
:10E9E00002EB41EE24111284B7700302EB41EE24D6
:10E9F00004FCEF3400FD7A457B10124AFA8514823C
:10EA0000851583A3858210858311780C1251E1123C
:10EA1000EBAF851482851583E0901052F08510824B
:10EA2000851183780C1251E190105312EB977A57AD
:10EA30007B1079E212470AA808850A82850B83A316
:10EA4000A3E028F50CA3E03400F50D850A82850BC0
:10EA500083A3A3A3A3E0C39508F50812EB5BAA0E5A
:10EA6000FB1242A275105F7511107810124FE778F3
:10EA70000E124FE785080E750F00780E124FE7ACA7
:10EA80000CAD0D7A457B1079041242C67406124F04
:10EA9000FAE97047750E5F750F10780E124FE71286
:10EAA000EB5B780E124FE7750E0D750F00780E12A6
:10EAB0004FE7750E52750F10780E124FE785080E4E
:10EAC000750F00780E124FE7AC0CAD0D7A457B1038
:10EAD00079041242CC740A124FFAE97064850A82F2
:10EAE000850B83A3A3A3A3E024FCF002E91075081F
:10EAF00000851482851583A3780C1251E1EE24273A
:10EB00001284A312EB97E508600D74026509602674
:10EB10008E828F8312EB7D74016509600674036534
:10EB200009700DEEFCEFFDAA0AAB0B124A8E8011A4
:10EB300074026509700BEEFCEFFDAA0AAB0B124ADA
:10EB4000880294EA12EB4A64FF2275F02BA4A9F024
:10EB500024C1F582E9340CF583E022EE2412F50E8F
:10EB6000EF3400F50F22E50A242AF582E50B22F89E
:10EB7000E43400F9EA98E499C365D03322E0F9124D
:10EB80004A342212EB9212A531240C12EB8F22F59B
:10EB900082EF3400F5832212EB9B2212EBA0F022CD
:10EBA000E50CF0A3E50DF0A3E50EF0A3E50F229030
:10EBB000104D12EB9B7405901051F02274F7124D1A
:10EBC0005F8A828B83A3A3A3A3E0C39406500302AE
:10EBD000ED3A8A828B83A3A312B806E0124EB201EB
:10EBE000073AEDF3EBF9EBFFEB05EC0BEC65EC6BA7
:10EBF000ECCAEC12499E02ED3A12497402ED3A1247
:10EC000049C202ED3A1249B002ED3A8A828B83A3DF
:10EC1000A3A3A3E06406600302ED3AEA241AF58296
:10EC2000EB12C5CD600302ED3AEC7001ED7003020A
:10EC3000ED3AEC2411F582ED1284BA60118A828BD0
:10EC400083A3A312ED3EE0A2E2400302ED3A740F6B
:10EC5000900EA1129E38E0900EA2F07AA17B0E12C7
:10EC600044BE02ED3A124AAC02ED3AEC7001ED708E
:10EC70000302ED3A900ED5E06409600302ED3A908C
:10EC80001086E06402600302ED3A12F03160030284
:10EC9000ED3A8A828B8312A80E8E828F83E0540411
:10ECA000700302ED31A3A3A3A3A3A3E0600302EDCD
:10ECB000318A828B83A3A3A3A3E0640B707312F049
:10ECC00055EEFAEFFB124AC48070EC7001ED606AF9
:10ECD000900ED5E064097062901086E06404705A6A
:10ECE00012F03170558A828B83A3A3A3E0F97F00D1
:10ECF0008F82AC82EC12F258E0FEE82CF582E91229
:10ED0000F34B6E70070FEFC3940440E4888289834D
:10ED1000E05404601CA3A3A3A3A3A3E070138A82FE
:10ED20008B83A3A3A3A3E0640B7006EFC3940450EA
:10ED30000479BA80027900124AD00297F5F8A3123A
:10ED40008B302274F7124D5FEC7001ED700302EE10
:10ED5000488C828D83E0900EA212950E12D15F1224
:10ED6000D165124EB201027BED6FED73ED77ED7E52
:10ED70000F800A7E1480067E1980027E0074019046
:10ED80000EA1F0EA2430F582EB12EE54400474FF39
:10ED90008003E0C333900EA712D19E540364038A0C
:10EDA000828B83A3A3700AE0240812EE7E24F880ED
:10EDB00008E0240612EE7E24FA900EA6F0EA242340
:10EDC000F582EB1287197015EA241BF582EB12C34A
:10EDD000CB7004A3E064FF700474018001E4900E22
:10EDE000A812D19E54046006900EA812EE6088828C
:10EDF0008983E0540364037019900EA812EE4F88C3
:10EE0000828983A3A3A3A3A3A312B013900EA41279
:10EE1000EE7888828983A3A3A3A3A3E0900EA3F036
:10EE2000EE601E900C8FE06E6017900CB0E0A2E3D5
:10EE3000500FEE900C8FF07A807B00124380124AC4
:10EE4000947AA17B0E1244BE0297F58E828F83E0E6
:10EE5000D2E2F02212848FC39400A2D265D0332272
:10EE6000E0D2E1F02212B017901087E02422F8A33C
:10EE7000E03400F988828983EAF0A3EBF022FCA356
:10EE8000E03400FD900EA9ECF0A3ED12BB91A3A31A
:10EE9000A3E022C082C083900ED4E0A2E050097AA1
:10EEA0008F7B0C79E1124710900BD1E06402701453
:10EEB000900BD3E0FA900C8FE06A600B12E30C1217
:10EEC0004914800BE06008900C8FE0F912491A9009
:10EED0000BE9E0C394035002E4F0029D51C082C0EC
:10EEE00083900ED4E0A2E0400F7AA47B0F795212F7
:10EEF0004710900ED412DBC9029D51C082C083908E
:10EF00000ED4E0A2E4500312E7047A8F7B0C79E17F
:10EF100002D67874F5124D5F901086E060046401AB
:10EF20007061900ED9E07033901071E0FA9010701B
:10EF3000E06A701F7AC07B0C79E51247107402906A
:10EF40001086F012F055900C9A12C7AC7B1012BECE
:10EF5000C9804F901071E004F08014750872750933
:10EF600010750A007808124FE312F03D124FFA9024
:10EF70001086E06401700779B9124AD08024124AE1
:10EF8000B8801FE064037015900ED9E07008740417
:10EF9000901086F080B0900ED9E0F980DCE0640239
:10EFA00060F402C61474F5124D5FEC7001ED607EE2
:10EFB000900ED5E064097076901086E06403706E60
:10EFC00012F03170698A828B83A3A3A3A3E06457F4
:10EFD000705C8A828B83129C96FEE9FF8E828F83FF
:10EFE000A3A3A3A3A3A3E0FA901071E06A7016751F
:10EFF0000872750910750A007808124FE312F03D87
:10F00000124FFA8005E0046A70248E828F83A3A3D6
:10F01000A3A3A3A3E0901071F012F1E1901071E0AE
:10F02000FA901070E06A700612F055124ABE02C6DD
:10F03000148C828D83E0FC90106FE06C227C107D3C
:10F040000090106F12F40724D3FAE5F0340CFB1291
:10F0500041A0740322900ED6E0F0A3E054EFF07AC2
:10F06000007B1012E7C12274F7124D5FE9FE901089
:10F070006FF075F02BA412F114A2E25008900CB0BE
:10F08000E0A2E2400A79B0124AD0790002F1119070
:10F09000106F12F121E9340CFB12D36F1281A0F032
:10F0A0007C107D007900EA2412FAEB3400FB124157
:10F0B000AC7C107D0079007A727B101241AC79092A
:10F0C000124A46900CB0E0A2E04012EE75F02BA47C
:10F0D00024CDFAE5F0340CFB7950124710901070F3
:10F0E000E0F8740128FCE43400FDEC75F03CA4FC6D
:10F0F000AAF075F03CEDA42AFD7A007B1012BEC97F
:10F1000090106F12F12690108912CF28124A9A7926
:10F11000010297F5A9F024D1F582E9340CF583E0DA
:10F120002212F130FA2212F130F8E5F0340CF92213
:10F13000E075F02BA424C12274F0124D5F7B007A9D
:10F1400000795712D8597002A3E0700879BE124AAC
:10F15000D002F1DE12F28574068E828F83A3A3A300
:10F16000A3A3F090107112F1EDF0EE2407F508EF73
:10F1700012E5497ABF7B0B1242A2750A0512420CB6
:10F180008A0C8B0D8C0E8D0F850882850983780C77
:10F190001251FF900EDC780C1251E185088285092E
:10F1A00083A3A3A3A3A3A3A3A3780C1251FF900E40
:10F1B000EA780C1251E1900EDC780C125154AC0834
:10F1C000AD097ABF7B0B1242A8E508241012E54571
:10F1D000150AE50A70A712F1E1749412F1FB02829C
:10F1E000CEEE2407FAEF3400FB124ACA22E08E82E8
:10F1F0008F83A3A3A3A3A3A3227414900EE0F01201
:10F200004AD62274F6124D5F12D8537002A3E070F2
:10F210000779BE124AD0803D12F285740712F3506E
:10F22000F5081247C4850882A882E812F258E9F06E
:10F2300012F336E9F00508E508C3940440E412F33C
:10F2400067124FE712F271124FFAE9700512F2627B
:10F2500080BF12F1F902B50F2482F582E43410F573
:10F26000832290108712F2692212B492FB1241B8E5
:10F27000227906901089E0FCA3E0FDEEFAEFFB1284
:10F280004A70740222901087E0242D12C6C912F22F
:10F29000C1740312F2B3E012D7FD12C8B612F2B86D
:10F2A00012F2A422FEA3E0FFEEFAEFFB124A522272
:10F2B000900EE0F090108922F090108712B027E0B5
:10F2C00022F0901087E0242A12F2D222901087E0D8
:10F2D000242BF8A3E03400F9888289832274F61283
:10F2E0004D5F8A088B0912D8537002A3E07007792A
:10F2F000BE124AD0803D12F285740812F350FA8A89
:10F3000082A882E50828F582E50912F34BC0E012D5
:10F31000F336D0E0F00AEAC3940440E312F3671234
:10F320004FE712F271124FFAE9700512F26280BFD4
:10F3300012F1F902B50FEE28F582EF12F33F2234F5
:10F3400000F583A3A3A3A3A3A3A32212F33FE02268
:10F350008E828F83A3A3A3A3A3F0E48E828F83A3C3
:10F36000A3A3A3A3A3F0228E828F83E0D2E2F0EEC8
:10F370002405F508EF3400F50978082274F5124DDC
:10F380005FEAFEEBFF90106F12F40324D3F508E55B
:10F39000F0340CF509750A007808124FE37C107DF3
:10F3A000007A727B1012F3FA124FFA7A008A82A85E
:10F3B00082850A08EE25081284B7F50890106F12AE
:10F3C000F403FCE824D3FAE4340CFBEC2AF582E5E0
:10F3D000F03BF583E06508F074012808E43400F997
:10F3E0007A107B00124C0E050AE50AC3945040BD0A
:10F3F00002C614FC7D00EEFAEFFB1241A07403225A
:10F4000090100E12F40722E075F02BA42274F7126C
:10F410004D5FE9FE12F05574B06E70047E008009F5
:10F42000EE600690106F12F45790106F12EB7D1281
:10F43000CB71901086E0600964016005E0640270A1
:10F440000F7AC07B0C79E512471074FF900C89F09D
:10F45000EE900E700297EF12F130F582E5F0340C69
:10F46000F58374FFF022C082C08374FE1250759041
:10F470000BD212EE60900BD1E06402700312E30C29
:10F48000900CB0E0A2E04036901089E07002A3E05A
:10F49000601B901089E0240C12F569795012471016
:10F4A000901089E0240112F5697953800E900CBB0D
:10F4B00074FFF0A3F07ABB7B0C79501247107A9757
:10F4C0007B0C794E12F55FA2E750168518828519DC
:10F4D00083E4F0A312D6F5795912F55FC2E7F08004
:10F4E000097A987B0C79591247107AE17B0E79E101
:10F4F00012F55F640470097CE87D037A0212BEC7CE
:10F50000900EE0E06404600AE064146005E06424A6
:10F51000700712F5707401800412F570E4F0900E1B
:10F52000D8E0C0E090108712F57AD0E0F0900ED8C5
:10F53000E004F0900EE0E0600964016005E06424FE
:10F54000700474028001E4900EE212F581A3A3E03E
:10F55000900EE3F090108712F681740202A24F120F
:10F560004710900EE0E022E02AFAA3E03400FB22EC
:10F57000901087E0242F12C6BF22E0242E12C6BFAF
:10F5800022F090108712B02322C082C08374FF1231
:10F590005075900EE0E064047027E48518828519A8
:10F5A00083F012F68F851882851983AA82AB83793E
:10F5B0004E12F5C8AA82AB8379591247107901809F
:10F5C000027900740102A24F124710851882851932
:10F5D0008322C082C083900EE2E0900EDA604BE09E
:10F5E0007002A3E06059900EE0E064247006900E73
:10F5F000D9E0603D12F68F900EDAE0240412B009D3
:10F60000900EE312846FE0C39AFA900EE312C8A939
:10F61000900EDA12F68812F56812EE74900EE2E09F
:10F6200014F0900EDA12F6818054E07002A3E060CC
:10F630000E7ADA7B0E1246C8900EDAE4F0A3F09050
:10F640000ED6E054FD12E7D07A0212E7A2900BD258
:10F65000E0C2E1F0700B900BD1E06402700312493C
:10F6600032900ED5E024FDC3940750121290C424AA
:10F67000A7F582E9340FF583129A0B125225029DE9
:10F680005112B01712467A22E0240212D82F221209
:10F69000F69C7AE17B0E79E112471022900EE1E0B0
:10F6A000F9124A4CE9900EE1F02274E8124D5F74B1
:10F6B000ED125075E9851882851983F07401125294
:10F6C0001BECF0A3EDF0742B12521BE0F510A3E03D
:10F6D000F511742D12521BE0F516A3E0F517742FE7
:10F6E00012521BE0FEA3E0FF851882851983E070AB
:10F6F0000302F9D5740312521B7401F0EE7001EF8E
:10F7000060037441F0851882851983E024FE333349
:10F7100054FCFC740312521BE04C12FD86124FE3A2
:10F720007C0D7D00740712521BAA82AB8312FB94DE
:10F73000124FFA741112521BE511F0741212521B7F
:10F74000E510F07C107D007900743312521BE0FA52
:10F75000A3E0FB1241AC750820750900C3EE940FBD
:10F76000EF9400402D74F22EF874FF3FF974F058B6
:10F77000F8742028F508E439F509EE24F2540F60F6
:10F7800004781080027800E50828F508E5093400BF
:10F79000F509E510540FF50F60047A1080027A0025
:10F7A00074F05510F874FF5511F9EA28F8E439F9A6
:10F7B000E50828F508E50939F509AA08FB12421EF3
:10F7C0008A148B15EA7001EB7005791002F9D77471
:10F7D0000312521BA982AA83890C8A0D750E007828
:10F7E0000C124FE37C107D00AA1412FB94124FFA06
:10F7F000E5142410F50AE5153400F50BEF850A82AF
:10F80000850B83F0A3EEF0A385820A85830B851612
:10F810000C85170DC3940FEF9400400B780C124F1A
:10F82000E37C0E7D0080167C0E7D007900AA0AAB79
:10F830000B1241AC780C124FE3EEFCEFFD12FB9083
:10F84000124FFAE50A240EF50AE50B3400F50BC356
:10F85000EE940FEF9400407BEE24F2FEEF34FFFFB6
:10F860008E0C8F0D7404780C1251F0EE540FFE7450
:10F8700004780C125108850C128F13E516240EF52E
:10F880000CE5173400F50D780C124FE3AC12AD13F4
:10F8900012FB90124FFAE50A2512F50AE50B351313
:10F8A000F50BEE602E7C107D007900AA0AAB0B12DE
:10F8B00041ACE5162512F8E5173513F9740E28F555
:10F8C0000CE439F50D780C124FE312FB8C124FFA51
:10F8D00012F9DC740478101251F0A810A911AE0FBF
:10F8E000880C890D7404780C125108850C10850D54
:10F8F00011740112521BE0F50CA3E0F50D780C1207
:10F900004FE3AC10AD1112FB90124FFAE50A25102F
:10F91000F50AE50B3511F50BEE602B7C107D0079B7
:10F9200000AA0AAB0B1241AC740112521BE0251065
:10F93000F50CA3E03511F50D780C124FE312FB8C9A
:10F94000124FFA12F9DCE50AC39514F8E50B951588
:10F95000F9E865087003E9650960031242AE12FD1B
:10F960005D43B350E5B3743312521BE0FAA3E0FBDE
:10F9700012428A7808124FE77814124FE77C107D04
:10F9800000743712521B12FD77124FFA53B3F8E589
:10F99000B3740478081251F074FF2508F874FF3529
:10F9A00009F9800943B301E5B3A2E350FAE8FAE9A3
:10F9B000FB74FF2A1874FF3BF9EA7001EB70E51243
:10F9C000FD5D85B3B343B301E5D1A2E250FAAA14B9
:10F9D000AB151242247900741302FB84E50A24104B
:10F9E000F50AE50B3400F50B2274E8124D5F74E064
:10F9F000125075EAFEEBFF8C168D17743812521BED
:10FA0000E0F508A3E0F509743C12521BE0F512A3DF
:10FA1000E0F51385120CF50D750E00780C124FE30E
:10FA2000E9FC7D00741312521BAA82AB8312FB9473
:10FA3000124FFA7401851882851983F08E0C8F0D90
:10FA4000780C124FE37C0D7D00740412521BAA82C5
:10FA5000AB8312FB94124FFA740F12521BE4F07432
:10FA60000E12521BE4F085080A85090B7404780A0B
:10FA70001251F0AE0AAF0BE508540FF50F6008EE17
:10FA800024010EEF3400FF8E0C8F0D7404780C12DD
:10FA90005108850C0A850D0BAA0AAB0B12421E8A6F
:10FAA000108B11EA7001EB7005791002FB8285164C
:10FAB0000C85170D780C124FE3AC08AD0912FB94BE
:10FAC000124FFAE50F601BF50C7410C3950CFCE4A3
:10FAD0009400FD7900E5102508FAE5113509FB12BF
:10FAE00041AC12FD63750C10750D00780C124FE7D8
:10FAF000741212521B85820C85830D780C124FE70D
:10FB00007C107D00AA12AB1312FD80124FFA12FD79
:10FB100049E5D1A2E250FAEE7001EF604312FD52C6
:10FB200012521B12FD91780A124FE77810124FE71C
:10FB3000AC0AAD0BAA10AB1112FD80124FFA53B3F1
:10FB4000F8E5B3800943B301E5B3A2E350FAEEF858
:10FB5000EFF974FF281E74FF39FFE87001E970E5C2
:10FB600085100C85110D780C124FE3AC08AD09AA75
:10FB700016AB1712FB94124FFAAA10AB11124224C3
:10FB800079007420124FFA7F10024E74EEFC7D0053
:10FB9000AA0AAB0B1241A074032274E8124D5F74E1
:10FBA000E0125075890F8C148D15743812521BE0B9
:10FBB000FE740185188285198312FD86124FE37C3D
:10FBC0000D7D00740412521BAA82AB8312FB9412A7
:10FBD0004FFA740F12521BE4F0740E12521BE4F031
:10FBE000EEC3950FF50CC4540FFE7F00740F550C37
:10FBF00060010E7C107D007900EC12521BAA82ABD2
:10FC0000831241AC850C08E5142508F516E515347A
:10FC100000F517850F82858212851608F509780888
:10FC2000124FE3AC127D00741312521BAA82AB83F5
:10FC300012FB94124FFA12FD637508108F097808B1
:10FC4000124FE7741212521B8582088583097808C7
:10FC5000124FE77C107D00744012521B12FD771288
:10FC60004FFA12FD49E5D1A2E250FA8E0A8F0B74C9
:10FC700004780A125108850A08850B09AA08AB09FD
:10FC800012421E8A0A8B0BEA7001EB700579100292
:10FC9000FD46AC08AD0979001241AC850C82858225
:10FCA0001085140C85150D8F0E780C124FE3AC10D7
:10FCB00012FB8E124FFAEE7001E4604612FD5212F2
:10FCC000521B12FD917808124FE7780A124FE7ACE9
:10FCD00008AD09AA0AAB0B12FD80124FFA74F85551
:10FCE000B34402F5B3800943B301E5B3A2E350FA8C
:10FCF000EEF8EFF974FF281E74FF39FFE87001E990
:10FD000070E5850A0C850B0D780C124FE3AC107D65
:10FD100000AA14AB1512FB94124FFAAA0AAB0B12ED
:10FD20004224743C12521BE0F508A3E0F509750A61
:10FD3000007808124FE3AC127D00AA16AB1712FB35
:10FD400094124FFA790002FB8253B3F8E5B343B340
:10FD5000012212FD5D43B330E5B3740F2253B38F1C
:10FD6000E5B32212FD5D43B320851882851983AA6D
:10FD700082AB8312428A22E0FAA3E0FB12FD8022CA
:10FD8000124296740422F08A088B09750A007808DA
:10FD9000227401F0851882851983AA82AB831242EE
:10FDA0008A2274EE124D5F8908ECFEEDFF74121288
:10FDB000521BE0F8741412521BE0F510A3E0F51189
:10FDC000741612521BE0F50EA3E0F50F74181252D0
:10FDD0001BE0F50CA3E0F50D741A12521BE0F50AB6
:10FDE000A3E0F50BE9700779007F0A024E74E8C3BF
:10FDF0009508F509780A124FE7780C124FE7780E4C
:10FE0000124FE77810124FE785090C750D00780C3A
:10FE1000124FE71242BA740A124FFAE970CB7A0015
:10FE200080010AEAC3950850C0AC0974012CF50999
:10FE30008A0CE50A250CF582E50B3400F583E0FB1E
:10FE40008C0CEE250CF582EF3400F583E06B60D26C
:10FE50007901809574F7124D5FE9FE8A08EBFF1275
:10FE6000FF73241CF582E5F0340AF58312FE85E564
:10FE7000827002E5836009EFFBAA08EEF9125225B1
:10FE80007F01024E74E0F8A3E0F98882898322C0E2
:10FE900082C083E9124EB20003AFFEA3FEAFFEA7FD
:10FEA000FEABFE7901800A79028006790080027932
:10FEB000038057C082C083790312FF5E7033E5E48C
:10FEC000A2E5500C53E4DF7B027A02790312438CE3
:10FED000E5E4A2E6500C53E4BF7B027A04790312F6
:10FEE000438CE5E4A2E7502253E47F7B027A08804A
:10FEF00014790312FF587012E5E4A2E4500C53E4A5
:10FF0000EF7B047A01790312438CD083D0820241C3
:10FF10006CC082C083790012FF5E7021A2D9500E9E
:10FF2000E5D875D8407B027A02790012438CA2DAB8
:10FF30005024E5D875D8407B027A048014790012E9
:10FF4000FF587012A2D8500EE5D875D8407B047ABD
:10FF500001790012438C80B212FF6464042212FF04
:10FF60006464022212FF732418F582E5F0340AF566
:10FF700083E022124392E975F00AA422C082C08372
:10FF8000790212FF5E7021A2DC500EE5D875D840D0
:10FF90007B027A02790212438CA2DD5024E5D875E7
:10FFA000D8407B027A048014790212FF587012A2A2
:10FFB000DB500EE5D875D8407B047A0179021243F4
:10FFC0008C02FF0AC082C083748090099EF0D083A7
:10FFD000D08202416CE9FA75B60FE5B4A2E750FA97
:10FFE000EAC395BB500479018002790002416C7428
:10FFF00009F5D575D4A07409F5D375D2A802416C62
:020000040001F9
:1000000074F6124D5F900ABAE07002A3E0701C9083
:100010000ABC1283B174FF59FBE47001EB700C90C1
:100020000ABEE064027002A3E0600474048055908C
:100030000AB8E0124EB280022B8040808B809B80F9
:10004000E870E8900AB2E0600478018002780090DD
:100050000ACFE812838B900AB1E0600A900ACFE0E1
:100060004402F0A3E4F0900AA6E06404601A900A47
:10007000B374CFF0A3740A12838B900AB674021281
:10008000838B7401900AA6F00286FA900AA1E064BC
:10009000047098900ACFE4F0A380CAE8547FF50872
:1000A000900AA1E064047083E508C394064003024B
:1000B000802BE50824A1F582E4340AF583E8548016
:1000C000A3A3A3A3A36011E06403700478018002DA
:1000D0007800900ACFE8808AA3A3A3A3A3E06403D7
:1000E00070EE80E874F6124D5FE9FE900ABEE07093
:1000F00002A3E07012900AA1E064046015900ABCAB
:10010000E07002A3E0600B7404900AA6F07901028B
:1001100086FA900AB8E0541F124EB20002078125F9
:10012000812D814581900ABAE064016004790080E4
:10013000DEEE900AB1F060047905800279067A005B
:1001400012458480C8900ABCE0547FFA900ABAE055
:1001500070DBEAC3940650AFEA90620EF024A1F877
:10016000E4340AF9900ABCE05480602AEE6004741A
:100170001080027440906211F0EE600474038001FC
:10018000E488828983A3A3A3A3A3F0EE6004790883
:1001900080317907802DEE60047420800274809095
:1001A0006214F0EE600474038001E488828983A302
:1001B000A3A3A3A3A3A3A3A3A3F0EE6004790A803F
:1001C000027909124584E490620E02810CC082C05B
:1001D0008379001245A8E97003124578805FC082D8
:1001E000C08379011245A8E9700312457E804EC094
:1001F00082C083900ABCE07002A3E0701E900ABE29
:10020000E07002A3E07014900ABA1283B1748058AF
:10021000FA74FF59FBEA7001EB60077404900AA6B8
:10022000801AE8906200F0900AA16009E064027010
:100230000C74038007E0640370037402F0D083D071
:100240008202416C74F2124D5F900ABAE0FAA3E0A8
:10025000124EB2010289825D826F82828212451241
:10026000128390125014900AB612838B028347793E
:1002700000124518128390E924020909EA3400FAB1
:1002800080E1EAF912452480D7900AB3E4F0A3F0A4
:10029000A3F0F50B900F45E0FAA3E0FB0283217574
:1002A000090074037808125108EA2508F8EB3509AB
:1002B000F9900ABA1283A7E493C0E0EFFCD0E06C97
:1002C000705DA3E4936E7057900ABC1283A7A3A33A
:1002D000E493C0E0EFFCD0E06C704488828983A393
:1002E000A3A3E4936E703888828983A3A3A3A3E4B5
:1002F00093F508740193F509900AB3E508F0A3E5B6
:1003000009F0A37480F088828983A3A3A3A3A3A385
:10031000E493F8740193F9900AB6E8F0A3E9F005C4
:100320000B850B08900F471283B1E8C39AF50CE9CF
:100330009BF50D7403780C1251F0C3E508950CE49D
:10034000950D500302829F900AB3E0FCA3E0FDA349
:10035000E0FEEC4D4E700474048027900AA6E06421
:10036000046023900ABEE0FAA3E0FB900AB6128371
:10037000B1C3EA98EB995008900AB6EAF0A3EBF003
:100380007401900AA6F07F06024E74F0A3E4F022F6
:10039000900AB3EAF0A3EBF0A37480F0900AB3E004
:1003A000F9A3E0FA7B8022E0FEA3E0FF8882898344
:1003B00022E0F8A3E0F92274ED124D5FEA2404F57F
:1003C00008EB3400F509850882F583E493602690F4
:1003D0000F491283B1E8FEE98007EE2404FEEF34F2
:1003E00000FF8E828F83E493F8740193F9EA6870BA
:1003F00002EB6970E5750A0080417490906214F018
:10040000741012850A7003750B408E828F83A3A32C
:10041000A3E49355106006E50BD2E0F50BE50B90D5
:100420006215F0EA906213128501A3A3A3A3A3A30C
:10043000A3A3A3A3F090620EF0050A8508828509A4
:1004400083E493FAE50AC39A40030284FC7A0079B4
:100450000512450C8A0EEA7001EB60DDEA2402F811
:10046000EB3400F9E8FCE9FD8C828D83E493540FB2
:10047000F51290620EF0750B008A828B83A3A3A302
:10048000A3E4932407F50CA3E4933400F50D74035F
:10049000780C1251F0AA0C85120CE50C24A1F8E49A
:1004A000340AF9880C890D751001751100E5127870
:1004B00010125108E50E2403F8EB3400F98C828DFC
:1004C00083E493A2E740030283FA7448906211F038
:1004D000740812850A7003750B408E828F83A3A364
:1004E000E49355106006E50BD2E0F50BE50B906246
:1004F00012F0EA90621012850102842F7F0B024EE7
:1005000074F0E4850C82850D8322F088828983E46F
:10051000935403640122C082C083900ABAE070023F
:10052000A3E07016900ABCE07002A3E0700C900A81
:10053000BEE064017002A3E060047404800C900AC1
:10054000B374A2F0A3740A128671900AA6F0028214
:100550003D74F3124D5F900AA1E06402601F900A9F
:10056000BCE07002A3E07015900ABEE07002A3E048
:10057000700B900ABBE0F9E47001E9600974049023
:100580000AA6F002861A7A007901124584900ABA06
:10059000E060727A00F91245188A088B09EA700146
:1005A000EB605A7404900AA1F0900ABAE0900AA293
:1005B000F0750C00850882850983A3A3A3A3E493A7
:1005C000FAE50CC39A504C850C0AE50A24A3F8E41A
:1005D000340AF9E8FEE9FFE48E828F83F07A00792D
:1005E0000412450C8A828B83A3A3A3E493FC8E821E
:1005F0008F83E06C70E71245C6050C80B7740490D9
:100600000AA6F0800E900AA2F07403900AA1F0F9F5
:1006100012453C7A0079021245847F05024E7474BB
:10062000F5124D5F900AA1E06404701E900AB8E0D4
:1006300064817016900ABAE07002A3E0700C900A10
:10064000BEE064017002A3E060047404801A900AA2
:10065000BCE024A3F508A3E0340AF509900AB3E549
:1006600008F0A3E509128671900AA6F07F03024EF6
:100670007412838B900AB6740112838B74012274F6
:10068000F6124D5F900AA1E064047012900AB8E07F
:100690006401700A900ABEE07002A3E0600874046E
:1006A000900AA6F08054900ABAE0FB900ABCE0FAE7
:1006B000900AA2E0F912451E8A088B09AE08AF091C
:1006C000EE7001EF60D8900ABCE0FA79031245841D
:1006D000900ABAE0C0E0900ABCE024A3F8A3E0349A
:1006E0000AF988828983D0E0F0EEFAEFFB1245C662
:1006F000900ABCE0FA79041245847F02024E74C06D
:1007000082C083124B0602886174F5124D5FEAFEC7
:10071000EBFF740B12521B12895EA3E0A908AA0911
:10072000FB8E828F83800D125014F0E9240109EAB8
:100730003400FAA3ECFEEDFF74FF2E1C74FF3FFDA6
:10074000EE7001EF70E1AA82AB837F03024E7474F6
:10075000ED124D5F741312521BE0F510A3E0F5117A
:10076000A3E0F51289088A098B0A85100C85110D02
:10077000ECF8EDF974FF281C74FF39FDE87001E90D
:100780006036A908AA09AB0AE92401F508EA340091
:10079000F509850C10850D11E50C2401F50CE50D0E
:1007A0003400F50D125014FEA910AA11AB1212500C
:1007B000146E60BC7900800279017F0B024E747464
:1007C000F6124D5FE9FE8C088D097808124FE7EEAE
:1007D000FC7D00124B007402124FFA028A18A2E04C
:1007E00092AF7F01024E7474F6124D5FEAFEEBFF8A
:1007F000EE7001EF70067A007B00803E74052EFAE1
:10080000E43FFB12421E8A088B09A808A909E87078
:1008100001E960E288828983E4F0A3F08882898319
:10082000A3A3EEF0A3EFF074FF88828983A3A3A3B0
:10083000A3F0E82405FAE93400FB028A18C082C05C
:1008400083EA7001EB7004790580161288B96004A0
:100850007904800DEA24FBFAEB34FFFB1242247981
:1008600000D083D08202416C74F7124D5FE9FEEA3A
:100870007001EB70047905803D900F2CE0FCE9C31A
:100880009C40071241B87903802C128A8BE07002D9
:10089000A3E070051288B960051241B880D7EEF068
:1008A000EAFCEBFD7A817B011241CA7A007B80EE83
:1008B000F91241E279000287E2EA24FFF582EB3483
:1008C000FFF583E064FF2274F2124D5F890B750C13
:1008D00000750D007E007F00A2AFE492E0F50AC231
:1008E000AF9001818017EE7001EF700685080C85CE
:1008F000090DE50824FBF582E509128A9112895E4B
:10090000E5087002E5096025E50824FFF582E509A0
:10091000128A91E0650B70CEEE7001EF7006AE08A2
:10092000AF0980CE7A007B801241E2800D7A007B95
:10093000801241E8EE7001EF6015780C124FE7EE7F
:10094000FCEFFD7A817B011241D67402124FFAE569
:100950000AA2E092AFEEFAEFFB7F06024E74E0F5DA
:1009600008A3E0F50922E0FAA3E0FB2274F7124D98
:100970005FA2AFE492E0FEC2AFEC24FBF582ED1281
:100980008A91E4F0A3F01289BB7001E970098A82B0
:100990008B838010128A961289AD7002A3E0888240
:1009A000898370F0ECF0A3EDF0EE0287DEE824FB23
:1009B000F8E934FFF988828983E0228A828B83E018
:1009C000F8A3E0F9E82274F6124D5FEAFCEBFD7A39
:1009D000007B00A2AFE492E0F508C2AF8C828D8369
:1009E0001289BF7001E9602AE8FAE9FBEA24FBF802
:1009F000EB1289B2FEA3E0FF8C828D83EEF0A3EFB1
:100A0000F088828983E4F0A3F0EA24FF128A8E74CE
:100A1000FFF0E508A2E092AF7F02024E7474F51277
:100A20004D5F740B12521B128A96A2AFE492E0F54E
:100A30000AC2AFEC24FBFEED34FFFF8A828B8312E7
:100A4000895EEC65087003ED65098E828F83700DF9
:100A5000128A968A828B83E8F0A3E9801012896655
:100A6000E824FBF582E9128A91EAF0A3EBF08E828A
:100A70008F83E4F0A3F0EC24FFF582ED128A9174E9
:100A8000FFF0E50AA2E092AF02874AEA24FBF58272
:100A9000EB34FFF58322E0F8A3E0F92274F6124D5F
:100AA0005FE9FE750800A2AFE492E0FFC2AF1289D1
:100AB000BB7001E970108A828B83801BEE602088F6
:100AC000828983128A961E1289AD7002A3E070ECAF
:100AD000EE600C88828983ECF0A3EDF0750801EFDD
:100AE000A2E092AFA908028A1874F7124D5FE9FDDF
:100AF000900F2CE0FCE9C39C5029E5A8FEC2AFEDA5
:100B0000C333F8E433F9900A4EE028FCA3E0398CB3
:100B100082F583E04AF0A3E04BF0EEA2E792AF79D2
:100B200000800279030287E274F7124D5FE9FE90BC
:100B30000F2CE0FCE9C39C501EE5A8FFC2AFEAF40D
:100B4000FCEBF4FDEE128C665CF0A3E05DF0EFA22E
:100B5000E792AF7900800279030287E2E9FA74FF35
:100B60006A7006D2AF79008002790702416CE9FA17
:100B700074FF6A7006C2AF79008002790702416C87
:100B8000C082C083124212900181E4F0A3F01242AD
:100B90004212422A1243BC12421879000288617440
:100BA000F4124D5F750800751A011242061242EAEE
:100BB000E508128C667002A3E0700D0508900F2CFA
:100BC000E0FAE508C39A40E8900F2CE0FAE508C384
:100BD0009A505BE5A8FCC2AFE508C333FEE433FFDF
:100BE000900A4EE02EF8A3E03FF9888289831289AB
:100BF0006688828983E4F0A3F0ECA2E792AFA908AB
:100C0000EE2422F582EF340FF583128C5D1252250B
:100C1000E5A8FDC2AF900A4EE02EFCA3E03F8C8217
:100C2000F583E04AF0A3E04BF0EDA2E792AF740F3A
:100C300055C944A0F5C9740F55C94450F5C9A2AFB0
:100C400040031242AE900F2CE065086003028BA4B3
:100C5000E51A7003028BA412423C028BA4E0F8A3B5
:100C6000E0F583888222C333F8E433F9900A4EE03A
:100C700028FAA3E0398A82F583E022C082C0837A11
:100C800000790F12434A028FDF74F5124D5F890815
:100C90008A0AEA124F19010001BE8C0302A78C04D4
:100CA000B48C08BE8CFF8C7CE87D037B057A011236
:100CB0004350804B7CE87D037B057A3280F17509D7
:100CC0000153080F7EEF7F09801DE06401F0E0FA18
:100CD000A90912435CE5096208E509C333F509EE89
:100CE0002409FEEF3400FFE5086014E509550860AB
:100CF000E87408650A8E828F8360CFE50A80CE9003
:100D000009ECE0F97F03024E7474EE124D5F89081E
:100D10008A0B8B0A8C108D11E97003028DC6EB7063
:100D200003028DC6EC7001ED7003028DC6EBC39417
:100D3000644003028DC275090153080F7EEF7F09DD
:100D4000806EE5095508605A9009ECE05509FA9063
:100D500009EEE04AF0E48E828F83F0A3A3A3E510AE
:100D6000F0A3E511F08E828F83A3A3E50AF08E82B3
:100D70008F83A3E50BF0700774048E828F83F012CB
:100D800042728E828F83A3A3A3A3A3EAF0A3EBF006
:100D9000A3ECF0A3EDF08E828F83E0D2E1F0E509C1
:100DA0006208E509C333F509EE2409FEEF3400FFBC
:100DB000E508708E7A027B009009C8E0F91241E2E2
:100DC00080097A0180027A0012434A7F0A024E7437
:100DD00074E8124D5F74FF1250757E007F00751627
:100DE00001740F851882851983F07514EF75150944
:100DF000900A13E06003028F7C851882851983E0D6
:100E000055167003028F4E851482851583E0A2E18A
:100E10004003028F441242728A0C8B0D8C0E8D0F90
:100E2000851482851583A3A3A3A3A378081251E197
:100E30007808790C1251D15003028F1C85148285D9
:100E40001583A3A3E0FA851482851583E0A2E05000
:100E50002E7464C39AF517E0C2E0F07A00A9161266
:100E6000435C851482851583E0A2E2401EA3E01452
:100E7000F07018851482851583E06402F0800C8A76
:100E800017D2E0F07A01A91612435C851482851509
:100E900083E0A2E15061851708750900750A0075A5
:100EA0000B00A3A3A3E0F510A3E0F51175120075E4
:100EB000130078087910124C6F900F0A78101251B5
:100EC000E178087910124CEF850810850911751228
:100ED00000751300780C791012511B85148285154A
:100EE00083A3A3A3A3A3E50CF0A3E50DF0A3E50E54
:100EF000F0A3E50FF080327508007509009009EE47
:100F0000E0551660047A0180027A00A91612434A5D
:100F100074FF6516FA9009EEE05A80D8E508C3958B
:100F20000CF508E509950DF509EE7001EF6011E586
:100F3000087002E509600DC3E5089EE5099F5004AD
:100F4000AE08AF09851882851983E06516F0E516AD
:100F5000C333F516E5142409F514E5153400F51529
:100F6000E06003028DF9EE7001EF6010EEFCEFFD22
:100F70007A027B009009C8E0F912425A7401124FBC
:100F8000FA7F10024E74C082C083E9A2E0500B7455
:100F9000016A7004D2918002C291E9A2E1500B74FF
:100FA000016A7004D2918002C291E9A2E2500B74EE
:100FB000016A7004D2918002C291E9A2E3500B74DD
:100FC000016A7004D2918005C291EA60079009EC31
:100FD000E049800974FF69FB9009ECE05B8004E460
:100FE000900A13F0D083D08202416CC082C0837417
:100FF00001900A13F0E590FAE590FBE590FCE5908E
:10100000FDEAA2E15004D2F08002C2F0EBA2E1506E
:1010100004D2F18002C2F1ECA2E15004D2F28002CB
:10102000C2F2EDA2E15004D2F38002C2F3A2F3E4D3
:1010300092E033333354F8C0E0A2F2E492E0333369
:1010400054FCC0E0A2F1E492E0C333C0E0A2F0E4BB
:1010500092E0FAD0E04AFAD0E04AFAD0E04A9009A9
:10106000EDF07A00790F12435C028FE4C082C083F6
:101070007A019009EDE0F912435C124356028FDFCA
:10108000C082C0837A0079011245188A828B83A3BB
:10109000A3A3A3A3A3A3E493A2E650047401800135
:1010A000E4900AB2F07401900AB1F07480659E7009
:1010B000FA740390620FF0E0A2E750FB53F4FED203
:1010C0009043FE01758B00C2E843AC20439A02D0E6
:1010D00083D08202416CC082C0837402900AA1F066
:1010E000E4900AA2F0900AA6F0790312453C900A17
:1010F000C0E4F0A3F080D874F5124D5F90620EE06A
:10110000FEE4F0906211E0F50AA2E4501E7480F053
:101110007407900AA6F0900AC0E07002A3E060068F
:10112000129327125225E4900AA6F0E50AA2E25093
:101130000BE4906211F0900AA6F0807A900AA6E083
:10114000FA74026A705C906216E0FF900AB3124E65
:10115000E8EFF97A207B621245427403124FFA8F4E
:1011600008900AB612931C129333E07002A3E06059
:1011700004744080027448906211F0900AB6E070E6
:1011800002A3E07015900AC0E07002A3E0600612AE
:101190009327125225E4900AA6F0EE90620EF00218
:1011A00093D574066A7006129327125225900AA6E8
:1011B000E060030292B6E50AA2E050DE7508B87559
:1011C000090A750A007808124FE379087A207B62D1
:1011D0001245427403124FFA900AC0E4F0A3F09053
:1011E0000AB8E054E0124F19000600FE91209092D8
:1011F000407292803F92A0A092C081926A92900A1F
:10120000B9E0124F190005013092032B9205189294
:101210000935920B3A926A921245BA900AA6E06496
:101220000460030292B074600292B21245B480EB83
:101230001245AE80E61245D280E11245DE80DC9098
:101240000AB9E0124F190004005692065B9208603A
:10125000920A65926A921245A280C01245C080BB74
:101260001245CC80B61245D880B17404900AA6F01D
:1012700080B4900AC0746CF0A37445F012456C8081
:101280009A900AC07472F0A37445F0124572808B74
:10129000900AC07460F0A37445F012456002921B7E
:1012A000900AC07466F0A37445F012456602921B62
:1012B0007440906211F0900AA6E0FA74016A704BD3
:1012C000750A02900AB6E0F8A3E0F9C3E89408E9C9
:1012D00094005007E8FF750A0A80027F08900AB35D
:1012E000124EE8EFF97A207B621245487403124FE0
:1012F000FA8F0812933312931CE50A906211F0EFF3
:10130000C39408400302919A02918574056A6003B0
:1013100002919A12932712522502919AC3E09508DE
:10132000F0A3E09400F022900AC0E0F8A3E0F58377
:10133000888222900AB3E0F9A3E0FAA3E0FBE92552
:1013400008F9EA3400FA900AB3E9F0A3EAF0A3EB53
:10135000F0900AB62274F6124D5F7A008A08E5080A
:1013600024A7F582E4340AF583E9F00AEAC3940578
:1013700040EA7A008A08E50824ACF582E4340AF5EC
:1013800083E9F00AEAC3940540EA7F02024E7474CE
:10139000F5124D5FEAFCEBFDE9FE740B12521B12D5
:1013A00093E5600D8C828D83E012505F1293DA70AA
:1013B000F3802274F5124D5FEAFCEBFDE9FE740B3D
:1013C00012521B1293E5600D1250148C828D83F023
:1013D0001293DA70F37F03024E74E9240109EA34B0
:1013E00000FA1EEE22E0F508A3E0F509A3E0A90843
:1013F000AA09FBEE2274F4124D5F900EE6780812F3
:1014000051E190099A78081251FF02956C74F2121A
:101410004D5F8908EAFEEBFF8C0A8D0B12424EEA03
:101420007001EB600F8A828B83A3A3E50AF0A3E52A
:101430000BF080727A097B0012421EEA7001EB60A9
:10144000618A828B83A3A3A3A3A3A3E5081294AB11
:10145000EEF0A3EFF08A828B83A3A3E50AF0A3E565
:101460000BF08A828B83E4F0A31294ABA3A3A3F0C6
:10147000A3F0900998E07002A3E09009987006EA42
:10148000F0A3EB80ACE0FCA3E08003E8FCE9FD8C7A
:10149000828D831296F9E87001E970EF8C828D835A
:1014A00080DD7A007B007F06024E74F08A828B8397
:1014B000A3A3A3A32274F7124D5F90099880048C14
:1014C000828D83E0FCA3E0FDEC7001ED601F8C8257
:1014D0008D83A3A3A3A3E06A7003A3E06B70E08CE9
:1014E000828D83A3A3A3A3A3A3E06970D2ECFAED3A
:1014F000FB7F01024E74C082C083EA7001EB600C76
:101500008A828B83A3A3A3A3E4F0A3F0D083D08229
:1015100002416C74F6124D5FE5A8FFC2AF1242485B
:10152000EFA2E792AFEA7001EB60047900800279E4
:10153000087F02024E7474F4124D5FA2AFE492E091
:10154000F509C2AF12424E8A0A8B0BAE0AAF0BEE00
:101550007001EF6003124254E509A2E092AFEE7011
:1015600001EF600479008002790680007F04024E5A
:101570007474EB124D5F8A0E8B0FE5A8FAC2AF852B
:101580000E088B09750A00750B0090099A780812ED
:101590005154EAA2E792AF900998E07002A3E0707C
:1015A000030296F4900998E0F508A3E0F5097E009F
:1015B0007F00A2AFE492E0F514C2AFE5082404F581
:1015C00012E5093400F513E5082402F50CE50934A9
:1015D00000F50D850C82F5831296F9C3E50E98E5AA
:1015E0000F99850C82850D834006E4F0A3F08017E7
:1015F000C3E0950EF0A3E0950FF0850C82850D8376
:10160000E07002A3E0704EE5082407F510E5093408
:1016100000F511851082F583E07002A3E06050852B
:101620001282851383E0FAA3E0FBEA7001EB603FCE
:10163000850882850983A3A3A3A3A3A3E0F912418C
:10164000E28510828511831296F9850C82850D83BF
:10165000E8F0A3E9F0850C82850D83E07002A3E039
:10166000600D851282851383E07002A3E0702B85E4
:1016700008828509831296F9E50A7002E50B700568
:101680009009988006850A82850B83E8F0A3E9F02B
:10169000AE08AF098E828F83800C85080A85090BFE
:1016A000850882850983E0F508A3E0F509E514A221
:1016B000E092AFEE7001EF60308E828F83A3A3E0E3
:1016C0007002A3E0701C8E828F83A3A3A3A3E0FA11
:1016D000A3E0FB8E828F83A3A3A3A3A3A3E0F912AD
:1016E00041E2EEFAEFFB124224E5087002E50960E0
:1016F000030295AE7F0D024E74E0F8A3E0F922C01C
:1017000082C083900998E07002A3E0602F9009984E
:101710001296F97AFF7BFF88828983A3A3E0FCA35A
:10172000E0FDC3EC9AED9B5004ECFAEDFB88828956
:10173000831296F9E87001E9600680DB7A007B008D
:1017400002950C74F4124D5F90099A78081251E1D9
:10175000AA08AB09AC0AAD0B02956C74EB124D5F95
:101760008A088B0912436212431AE5087002E509E0
:10177000700512479480421247948A0C8B0D8C0E90
:101780008D0F750A00750B00900F0A78101251E149
:1017900078087910124C6F900F0E780812517A74F5
:1017A00005780812502E900EE6780C1250A16011A8
:1017B0007808790C1251D150088A088B098C0A8D4F
:1017C0000B790212471CE9701AE5A8F514E5B8FF79
:1017D000E59AFE75A88053B820E5B8539A12E59AA9
:1017E00043BE01AA08AB09AC0AAD0B12437A1243FF
:1017F0006EC2AD124320124368740355BE6012538B
:10180000BEFCE5BE1247228514A88FB88E9A1248F6
:10181000EA7F0D024E7474F0124D5F74F812507529
:101820008A088B098C0A8D0B900EE678081250A15D
:101830007003029939900F12780C1251E1780879EF
:101840000C124C6F7406780812502E900F16780CFC
:101850001251E1780C79081251D15006751A000224
:101860009939E595851882851983F0E596C0E0746D
:101870000112521BD0E0F0E597C0E0740212521B37
:10188000D0E0F0740312521BE4F0851882851983AE
:1018900085080C85090D850A0E850B0F780C1251F1
:1018A0007A900F1A780C12517A740412521B780C29
:1018B0001251FF740612521BE0F597740512521B69
:1018C000E0F596740412521BE0F595E5ADA2E050E8
:1018D000FAC2AFE595851882851983F0E596C0E0D8
:1018E000740112521BD0E0F0E597C0E0740212526E
:1018F0001BD0E0F0740312521BE4F0740412521B6C
:10190000780C1251E1851882851983780C125047A2
:10191000900F1E780C12517A740412521B780C121C
:1019200051FFE4F0740412521B78081251C15004A4
:10193000D2AD8003751A00D2AF7408124FFA7F0837
:10194000024E74EBC313FBEA13FAEAF8EBF974FFE7
:1019500028FA74FF39FB7400687003740069601A18
:101960000000000000000000000000000000000077
:10197000000000000000000080D002416C02416CB9
:10198000C082C083900EE4E024FEF8A3E03407F99F
:1019900088828983E4F0A3F0900EE4E0F8A3E0F5F8
:1019A00083888274E8F0A3E4F0900EE4E024E8F881
:1019B000A3E03400F9888289837416F0A37407F0D9
:1019C00090018DE8F0A3E9F07A007B0012421E90AE
:1019D000018FEAF0A3EBF0900EE41299FAD083D0D5
:1019E0008202416CC082C083E5A8FAC2AF90018F29
:1019F0001299FAEAA2E792AF80E3E0F8A3E0F99047
:101A0000018DE8F0A3E9F02274F3124D5F7C007DB4
:101A1000008C0BEA24020A0AEB3400FBA2AFE4922A
:101A2000E0F50AC2AFC3EA9411EB940050059001AF
:101A30008D800390018FE0F8A3E0F988828983E02C
:101A4000FEA3E0FF74805FF509E47002E509600918
:101A500074806FFF750B008074E50B60628882896B
:101A600083E0F508A3E0F5098C828D83E02508F07A
:101A7000A3E03509F08C828D83C3E09AA3E09B40FC
:101A80004CECF8EDF988828983E0FEA3E0FFE87072
:101A900001E9606BC3EE9AFEEF9BFFC3EE9404EF87
:101AA00094004047E82AF582E93BF583EEF0A3EF86
:101AB000F074804BFB88828983EAF0A3EB8036C305
:101AC000EE9AEF9B50C8750B01E8FCE9FDE82EF893
:101AD000E93FF988828983E0FEA3E0FFEE7001EF21
:101AE0006003029A4478007900801488828983E038
:101AF000F0A3E04480F0E824020808E93400F9E5A6
:101B00000AA2E092AFE8FAE9FB7F05024E7474F78F
:101B1000124D5FEAFEEBFFA2AFE492E0F508C2AF20
:101B2000EEF8EFF9C3E89491E994014009C3E89411
:101B300091E9940940031242AEEE24FE1E1EEF34DA
:101B4000FFFF8E828F83A3E05480F9E47001E97077
:101B5000031242AE8E828F83E0F0A3E0547FF090B8
:101B6000018DE0F8A3E0F9C3EE98EF99500CEEF880
:101B7000EFF990018DE8F0A3E9F0E508A2E092AF5B
:101B80007F01024E74C082C0831242B4D083D082DF
:101B900002416C74F4124D5F74F6125075C2AF536B
:101BA000F3EFC28443FD1053BEFBE59DA2E650FA5D
:101BB0000078F8790100E824FF18E934FFF9E870AB
:101BC00001E970F175C6807480659E70FA43BE04A9
:101BD0007408906270F0C29143FE02C29143FE020B
:101BE000C291C291C2918017C2910B74086B6003BD
:101BF000029CC47B000CECC394065003029CC4C23C
:101C0000917A0080060A740A6A6064900EE6780889
:101C10001251E1740612521B78081251FF80129083
:101C20000EEA78081251E1740612521B780812511C
:101C300054740612521BC082C083900EEE780812B4
:101C400051E1D083D08278081251C140D2A2915084
:101C500004C2918002D29190099FE0600CE4F0747C
:101C60000A124FFA7F04024E74A28150988092C2E9
:101C700091C291C291C29178007900A2814004780A
:101C8000007900129D2440F39061A3E0C0E0740449
:101C900012521BD0E0F09061A4E0C0E07405125233
:101CA0001BD0E0F0900BAFE0C0E0740212521BD0EA
:101CB000E0F0900B9AE0C0E0740312521BD0E0F009
:101CC0007B007C00A28140FCD291D291D291EB703A
:101CD00004D2918002C29178007900A281400478F8
:101CE000007900129D2440F3C291C291C291C29129
:101CF0007508017509007407C39B7808125108C064
:101D0000088C08851882851983E5822508F582E507
:101D1000833400F583D0E0FAE05A7003029BE8D2E6
:101D200091029BEAE8240108E93400F9C3E894F43D
:101D3000E99401A2D265D03322C082C0837470902E
:101D400009AAF074B19009ABF09009ACE0541FF00F
:101D5000741D9009AEF074429009AFF07470900950
:101D6000B0F074B29009B1F09009B4E0541FF0746F
:101D70001E9009B6F074129009B7F08040C082C07E
:101D800083129DC400E5D6A2E150F974F855B3441E
:101D900006F5B343B301E5B3A2E350FA801FC08256
:101DA000C083129DC400E5D6A2E150F974F855B382
:101DB0004404F5B343B301E5B3A2E350FAD083D0B2
:101DC0008202416CEB9009A8F0EA9009A9F0741026
:101DD0009009ADF09009ACE054E0F075D1FD75D6F6
:101DE000022274F6124D5F740A12521BE0FEA3E049
:101DF000FF740C12521BE0F8A3E0F9EF9009A8F071
:101E0000EE9009A9F0E89009ADF0E9F89009ACE08E
:101E100054E048F0EB9009B2F0EA9009B3F0EC908E
:101E200009B5F0EDFC9009B4E054E04CF075D1FD3B
:101E300075D60200E5D6A2E150F975D1FB75D6043E
:101E400000E5D6A2E250F97F02024E74C082C08340
:101E5000124284029DBDC082C08353B38FE5B34359
:101E6000B340124290029DBD74F4124D5F8C088DF8
:101E700009750A10750B00780A124FE77808124F9F
:101E8000E77C107D00AA08AB091242967404124F39
:101E9000FA53B3F8E5B343B301E5D1A2E250FA7FB8
:101EA00004024E74D083D08202416C74F7124D5FED
:101EB000E9FCEAFD7A007B00800818900AA0E01295
:101EC0009F06900A9FE0F8A3E0F9900F43E0687046
:101ED00003A3E069602B900A9FE0240108A3E0348B
:101EE00000F988828983E4936C700E900A9FE0FA6F
:101EF000A3E0FB18129F068008E4936D70BCED60B0
:101F0000B97F01024E74F5838882E493F8900A9FAA
:101F1000E028F8A3E03400F9900A9FE8F0A3E9F084
:101F200022C082C083129F677A00790112450C0299
:101F30009EA474F6124D5FE9FEEAFF129F67800EC1
:101F40008A828B83A3A3A3A3A3E4936E60147A0075
:101F5000790212450CEA7001EB6007EE70E2EF1FA8
:101F600070EC7F02024E74900F41E0F8A3E0F9900C
:101F70000A9FE8F0A3E9F02274F4124D5FEAFF8BA8
:101F8000087A001245187A02790412450CEA7001A9
:101F9000EB60188A828B83A3A3E4936F70E88A8234
:101FA0008B83A3A3A3E493650870DB7F04024E74C4
:101FB00074F6124D5FE9FE129F677A0079031245AD
:101FC0000CEE1E70F5809B02416C74F4124D5F891B
:101FD00008740C12521BE0FEA3E0FF74075508F5CD
:101FE0000A750B00740C780A1251082AF874803BA9
:101FF000F9E428E50B39F9E5C7F509E508131313EA
:10200000541FC0E074F855C7FAD0E04AF5C7801CE9
:1020100088828983E08C828D83F088828983A3A85B
:1020200082A9838C828D83A3AC82AD83EEFAEFFB11
:1020300074FF2A1E74FF3BFFEA7001EB70D2850922
:10204000C77F04024E7474F6124D5F740A12521B5D
:10205000E0F508A3E0F509ED9009A0F0EC9009A1E6
:10206000F074629009A2F074739009A3F09009A42F
:10207000E0541FF0E508333354FC9009A5F07406D2
:1020800078081251F0E5089009A4F074129009A69E
:10209000F074429009A7F075D1FE75D601EA9062FE
:1020A00071F0EB906272F0906270E0D2E1F0E0A229
:1020B000E740FB7F02024E74C082C083E933335491
:1020C000FC906272F07A02906270E0D2E0F0E0A2DE
:1020D000E740FB906272E02402F01AEA70E9D083D4
:1020E000D08202416C74F4124D5F7E007F00124872
:1020F000F08A088B09AC08AD09900183E06C70038D
:10210000A3E06D700302A1D4900183E0F8A3E0F98D
:10211000ECC398F508ED99F509900183ECF0A3ED77
:10212000801FE5082404F508E50934E0F509EE24EC
:102130003CFEEF340AFF900185E02404F0A3E03474
:1021400000F0C3E50894FDE509941F50D5740378A9
:1021500008125108900185E02508FCA3E03509FD2F
:10216000ECF8EDF97A197B00124C1688088909EE13
:102170002508FEEF3509FFECF8EDF97A197B00121E
:102180004C16900185EAF0A3EBF0EE7001EF60448D
:10219000900187E02EF0A3E03FF0900187C3E09428
:1021A000E9A3E09403402612A1D9124C16880889AD
:1021B00009750A00750B00900189780812515412B4
:1021C000A1D9124C16900187EAF0A3EBF0EEFAEFDA
:1021D000FB1242667F04024E74900187E0F8A3E090
:1021E000F97AE87B032274F4124D5F900189780834
:1021F0001251E1AA08AB09AC0AAD0B80D774F712F3
:102200004D5F12A2516004790080358A828B83A3CE
:10221000A3A3A3A3A3A3A3E060ED64028A828B839C
:10222000700E12A2457003A3E06970DB7901801083
:10223000A3A3A3A3A3A3A3A3E0640370CA124AF4B5
:102240007F01024E74E0F8A3E0F98C828D83E06890
:10225000228A828B83A3A3A3A3A3A3A3A3E0FE8CC0
:10226000828D83A3A3A3A3A3A3A3A3E06E2274F7E9
:10227000124D5F8C828D83A3A3A3A3A3A3A3A3E08A
:10228000FE8A828B83A3A3A3A3A3A3A3A3F07403B7
:102290006E7005124AFA80128C828D83E0F8A3E0FA
:1022A000F98A828B83E8F0A3E9F002A24074F61267
:1022B0004D5F750808EAFEEBFF8E828F83A3AA822A
:1022C000AB83ECF8EDF988828983A3AC82AD838E71
:1022D000828F83E0FE88828983E06E6004790080CB
:1022E000081508E50870CE79017F02024E7474F576
:1022F000124D5F8C088D09750A007808124FE37C37
:10230000087D001241A07403124FFA7F03024E743D
:1023100074F7124D5F7E3DEEF912442EE97005EE22
:10232000F91243020EEEC3943F40EC7F01024E745B
:1023300074F0124D5F74FC12507589087EFC7F0F9B
:10234000750A04750B00780A124FE7740212521BCB
:10235000AC82AD83EEFAEFFBA9081242F6740212CA
:102360004FFA851882851983C082C083900F1E782A
:102370000C1251E1D083D082780C1250A17011EE72
:1023800024FCFEEF34FFFFC3EE9404EF940050B042
:10239000C3EE9404EF9400407B780A124FE7740276
:1023A00012521BAC82AD83EEFAEFFBA9081242F683
:1023B0007402124FFA740212521BE0F8A3E0F9748F
:1023C0008059FBE47001EB602DEE24FCFEEF34FF3E
:1023D000FF851882851983A3E05480F9E47001E930
:1023E00070AE851882851983C3E094FFA3E0940042
:1023F000409E79008020740428FAE439FBC3EE9AE9
:10240000EF9B40EEEEC398F8EF99F974FC28FE7448
:10241000FF3980BC79017404124FFA7F08024E74B0
:10242000C082C0837AFF7BFF12459C12452A02A519
:1024300008C082C08312A4B65402601D900ACAE08C
:1024400054FDF0A3E0F0900AD3E07002A3E060092D
:10245000900AD312A4AD12522512A4B654046010EF
:10246000900ACAE0A3E0900ACAE4F0A3F012453053
:1024700012A4B6A2E0501D900ACAE054FEF0A3E0F8
:10248000F0900AD1E07002A3E06009900AD112A492
:10249000AD12522512A4B65410600D900ACAE05431
:1024A000EFF0A3E0F01245361243EC805BE0F8A3B6
:1024B000E0F583888222900ACAE0F8A3E0E822C00F
:1024C00082C0838A828B83E0900AC2F08A828B83E7
:1024D000A3E0900AC3F07C008C82A882EA28F582EF
:1024E000EB3400F583A3A3E0C0E0E824C4F582E464
:1024F000340AF583D0E0F00CECC3940640DA7AC2DB
:102500007B0A124596124590D083D08202416CE539
:10251000A8C2AFA2E7E492E0F902416C74F5124D53
:102520005F7E0012458AE9FF740190620EF09062AE
:1025300011E0A2E0402375084E75090F8E0A780855
:10254000124FE379087A227B621245487403124FD6
:10255000FA906211E0D2E0F00EEFA2E092AFEEF955
:102560007F03024E7474F7124D5F12A5CD900F4E8B
:1025700012A5B9900F5012A5C6900F5112A5A5E053
:10258000900F5212A5A5A3E0900F5312A5B3E090AF
:102590000F5412A5B3A3E0900F55F0EAA2E092AF5A
:1025A0007F01024E7412A5A922F08E828F83A3A30D
:1025B000A3A32212A5A9A3A32212A5BFA3E022F0E0
:1025C0008E828F83A32212A5BFA3A3E022EAFEEB93
:1025D000FF12458AE9FA8E828F83E022C082C0838F
:1025E000E99009C8F0D083D08202416CC082C083D8
:1025F0001242781242D21242F012429C124344120A
:10260000430880E174F6124D5FEAFEEBFF74805FD1
:10261000F9E47001E9601B80031241B89009C8E039
:10262000F91241C4EA7001EB70EFEEFA74806FFBAF
:10263000803DEE5402600A12435674026EFAEF8037
:10264000EEEEA2E0501A9009E9E070107C647D0083
:102650007A017B009009C8E0F912425A740180DCCB
:1026600054046007124386740480D17A007B007F93
:1026700002024E74C082C08312455412433E02A52A
:10268000E574F7124D5FEAFEEBFFEEF8EFF974FF29
:1026900028FE74FF39FF74006870037400696009D4
:1026A0007AE87B0312438080E17F01024E7474F765
:1026B000124D5F7A00900AB1E0700479008058A250
:1026C000AFE492E0FEC2AF900ACEE060287480656D
:1026D0009E70FA740390620FF0E0A2E750FB9062E4
:1026E00001E0D2E2F07A0A7B001245E4906201E058
:1026F000C2E2F07A01EEA2E092AFEA6018900AD34B
:10270000E07002A3E0600E900AD3E0F8A3E0F58346
:10271000888212522579017F01024E74C082C083E3
:10272000E4900997F0900991F0A3F0D083D0820251
:10273000416CC082C083E990099780EE74F6124D17
:102740005FE9FE900F2CE0FBE9C39B400479038016
:1027500030750801750900EE7808125108AC08AD13
:1027600009EA7011ECF4F8EDF4F9900991E058F0F1
:10277000A3E0598009900991E04CF0A3E04DF07975
:10278000007F02024E7474F6124D5F900997E0606C
:102790001A900991E07002A3E07010E5A8FEC2AFA4
:1027A00012426CEEA2E792AF12437480D4C082C092
:1027B00083900AB9E0124EB20902D1A7C2A7CCA7F2
:1027C000C7A71244E880101244F4800B1245008021
:1027D000067404900AA6F0803AC082C083900AB9B9
:1027E000E0124EB20102FDA7EEA7F8A7F3A712442C
:1027F000EE80101244FA800B124506800674049095
:102800000AA6F0800E80028000C082C0837404900B
:102810000AA6F0D083D08202416C80EDC082C083D2
:10282000E9124EB201093CA83CA83CA83CA83CA82F
:102830003CA83CA83CA83CA83CA83CA880D5C082A9
:10284000C083900ACAE4F0A3F0900ACCEAF0A3EBAC
:10285000F0E4900ACEF0D083D08202416CC082C0F6
:10286000838A828B838001A3E070FCE582C39AFA9D
:10287000E5839BFBD083D08202416CC082C08390F1
:102880000A9DE02401F0A3E03400F0D083D082025E
:02289000416C99
:00000001FF